{
	"contracts/BonDeFiToken.sol": {
		"BonDeFiToken": {
			"abi": [
				{
					"inputs": [
						{
							"internalType": "address",
							"name": "administrator",
							"type": "address"
						},
						{
							"internalType": "address",
							"name": "bondIssuer",
							"type": "address"
						},
						{
							"internalType": "address",
							"name": "_stableCoin",
							"type": "address"
						},
						{
							"internalType": "uint256",
							"name": "_faceValue",
							"type": "uint256"
						},
						{
							"internalType": "uint256",
							"name": "_maturityDate",
							"type": "uint256"
						}
					],
					"stateMutability": "nonpayable",
					"type": "constructor"
				},
				{
					"inputs": [],
					"name": "AccessControlBadConfirmation",
					"type": "error"
				},
				{
					"inputs": [
						{
							"internalType": "address",
							"name": "account",
							"type": "address"
						},
						{
							"internalType": "bytes32",
							"name": "neededRole",
							"type": "bytes32"
						}
					],
					"name": "AccessControlUnauthorizedAccount",
					"type": "error"
				},
				{
					"inputs": [
						{
							"internalType": "address",
							"name": "spender",
							"type": "address"
						},
						{
							"internalType": "uint256",
							"name": "allowance",
							"type": "uint256"
						},
						{
							"internalType": "uint256",
							"name": "needed",
							"type": "uint256"
						}
					],
					"name": "ERC20InsufficientAllowance",
					"type": "error"
				},
				{
					"inputs": [
						{
							"internalType": "address",
							"name": "sender",
							"type": "address"
						},
						{
							"internalType": "uint256",
							"name": "balance",
							"type": "uint256"
						},
						{
							"internalType": "uint256",
							"name": "needed",
							"type": "uint256"
						}
					],
					"name": "ERC20InsufficientBalance",
					"type": "error"
				},
				{
					"inputs": [
						{
							"internalType": "address",
							"name": "approver",
							"type": "address"
						}
					],
					"name": "ERC20InvalidApprover",
					"type": "error"
				},
				{
					"inputs": [
						{
							"internalType": "address",
							"name": "receiver",
							"type": "address"
						}
					],
					"name": "ERC20InvalidReceiver",
					"type": "error"
				},
				{
					"inputs": [
						{
							"internalType": "address",
							"name": "sender",
							"type": "address"
						}
					],
					"name": "ERC20InvalidSender",
					"type": "error"
				},
				{
					"inputs": [
						{
							"internalType": "address",
							"name": "spender",
							"type": "address"
						}
					],
					"name": "ERC20InvalidSpender",
					"type": "error"
				},
				{
					"inputs": [],
					"name": "EnforcedPause",
					"type": "error"
				},
				{
					"inputs": [],
					"name": "ExpectedPause",
					"type": "error"
				},
				{
					"anonymous": false,
					"inputs": [
						{
							"indexed": true,
							"internalType": "address",
							"name": "owner",
							"type": "address"
						},
						{
							"indexed": true,
							"internalType": "address",
							"name": "spender",
							"type": "address"
						},
						{
							"indexed": false,
							"internalType": "uint256",
							"name": "value",
							"type": "uint256"
						}
					],
					"name": "Approval",
					"type": "event"
				},
				{
					"anonymous": false,
					"inputs": [
						{
							"indexed": false,
							"internalType": "address",
							"name": "account",
							"type": "address"
						}
					],
					"name": "Paused",
					"type": "event"
				},
				{
					"anonymous": false,
					"inputs": [
						{
							"indexed": true,
							"internalType": "bytes32",
							"name": "role",
							"type": "bytes32"
						},
						{
							"indexed": true,
							"internalType": "bytes32",
							"name": "previousAdminRole",
							"type": "bytes32"
						},
						{
							"indexed": true,
							"internalType": "bytes32",
							"name": "newAdminRole",
							"type": "bytes32"
						}
					],
					"name": "RoleAdminChanged",
					"type": "event"
				},
				{
					"anonymous": false,
					"inputs": [
						{
							"indexed": true,
							"internalType": "bytes32",
							"name": "role",
							"type": "bytes32"
						},
						{
							"indexed": true,
							"internalType": "address",
							"name": "account",
							"type": "address"
						},
						{
							"indexed": true,
							"internalType": "address",
							"name": "sender",
							"type": "address"
						}
					],
					"name": "RoleGranted",
					"type": "event"
				},
				{
					"anonymous": false,
					"inputs": [
						{
							"indexed": true,
							"internalType": "bytes32",
							"name": "role",
							"type": "bytes32"
						},
						{
							"indexed": true,
							"internalType": "address",
							"name": "account",
							"type": "address"
						},
						{
							"indexed": true,
							"internalType": "address",
							"name": "sender",
							"type": "address"
						}
					],
					"name": "RoleRevoked",
					"type": "event"
				},
				{
					"anonymous": false,
					"inputs": [
						{
							"indexed": true,
							"internalType": "address",
							"name": "from",
							"type": "address"
						},
						{
							"indexed": true,
							"internalType": "address",
							"name": "to",
							"type": "address"
						},
						{
							"indexed": false,
							"internalType": "uint256",
							"name": "value",
							"type": "uint256"
						}
					],
					"name": "Transfer",
					"type": "event"
				},
				{
					"anonymous": false,
					"inputs": [
						{
							"indexed": false,
							"internalType": "address",
							"name": "account",
							"type": "address"
						}
					],
					"name": "Unpaused",
					"type": "event"
				},
				{
					"inputs": [],
					"name": "ADMIN",
					"outputs": [
						{
							"internalType": "bytes32",
							"name": "",
							"type": "bytes32"
						}
					],
					"stateMutability": "view",
					"type": "function"
				},
				{
					"inputs": [],
					"name": "BOND_ISSUER",
					"outputs": [
						{
							"internalType": "bytes32",
							"name": "",
							"type": "bytes32"
						}
					],
					"stateMutability": "view",
					"type": "function"
				},
				{
					"inputs": [],
					"name": "DEFAULT_ADMIN_ROLE",
					"outputs": [
						{
							"internalType": "bytes32",
							"name": "",
							"type": "bytes32"
						}
					],
					"stateMutability": "view",
					"type": "function"
				},
				{
					"inputs": [
						{
							"internalType": "address",
							"name": "owner",
							"type": "address"
						},
						{
							"internalType": "address",
							"name": "spender",
							"type": "address"
						}
					],
					"name": "allowance",
					"outputs": [
						{
							"internalType": "uint256",
							"name": "",
							"type": "uint256"
						}
					],
					"stateMutability": "view",
					"type": "function"
				},
				{
					"inputs": [
						{
							"internalType": "address",
							"name": "spender",
							"type": "address"
						},
						{
							"internalType": "uint256",
							"name": "value",
							"type": "uint256"
						}
					],
					"name": "approve",
					"outputs": [
						{
							"internalType": "bool",
							"name": "",
							"type": "bool"
						}
					],
					"stateMutability": "nonpayable",
					"type": "function"
				},
				{
					"inputs": [
						{
							"internalType": "address",
							"name": "account",
							"type": "address"
						}
					],
					"name": "balanceOf",
					"outputs": [
						{
							"internalType": "uint256",
							"name": "",
							"type": "uint256"
						}
					],
					"stateMutability": "view",
					"type": "function"
				},
				{
					"inputs": [
						{
							"internalType": "uint256",
							"name": "value",
							"type": "uint256"
						}
					],
					"name": "burn",
					"outputs": [],
					"stateMutability": "nonpayable",
					"type": "function"
				},
				{
					"inputs": [
						{
							"internalType": "address",
							"name": "account",
							"type": "address"
						},
						{
							"internalType": "uint256",
							"name": "value",
							"type": "uint256"
						}
					],
					"name": "burnFrom",
					"outputs": [],
					"stateMutability": "nonpayable",
					"type": "function"
				},
				{
					"inputs": [
						{
							"internalType": "uint256",
							"name": "amountTokens",
							"type": "uint256"
						}
					],
					"name": "buyBond",
					"outputs": [],
					"stateMutability": "nonpayable",
					"type": "function"
				},
				{
					"inputs": [
						{
							"internalType": "uint256",
							"name": "amountTokens",
							"type": "uint256"
						}
					],
					"name": "claimFaceValue",
					"outputs": [],
					"stateMutability": "nonpayable",
					"type": "function"
				},
				{
					"inputs": [],
					"name": "claimInvestorFunds",
					"outputs": [],
					"stateMutability": "nonpayable",
					"type": "function"
				},
				{
					"inputs": [],
					"name": "decimals",
					"outputs": [
						{
							"internalType": "uint8",
							"name": "",
							"type": "uint8"
						}
					],
					"stateMutability": "view",
					"type": "function"
				},
				{
					"inputs": [
						{
							"internalType": "address",
							"name": "tokenHolder",
							"type": "address"
						},
						{
							"internalType": "uint256",
							"name": "amount",
							"type": "uint256"
						}
					],
					"name": "distributeInterest",
					"outputs": [],
					"stateMutability": "nonpayable",
					"type": "function"
				},
				{
					"inputs": [
						{
							"internalType": "address[]",
							"name": "tokenHolders",
							"type": "address[]"
						},
						{
							"internalType": "uint256[]",
							"name": "amounts",
							"type": "uint256[]"
						}
					],
					"name": "distributeInterestAll",
					"outputs": [],
					"stateMutability": "nonpayable",
					"type": "function"
				},
				{
					"inputs": [
						{
							"internalType": "bytes32",
							"name": "role",
							"type": "bytes32"
						}
					],
					"name": "getRoleAdmin",
					"outputs": [
						{
							"internalType": "bytes32",
							"name": "",
							"type": "bytes32"
						}
					],
					"stateMutability": "view",
					"type": "function"
				},
				{
					"inputs": [
						{
							"internalType": "bytes32",
							"name": "role",
							"type": "bytes32"
						},
						{
							"internalType": "address",
							"name": "account",
							"type": "address"
						}
					],
					"name": "grantRole",
					"outputs": [],
					"stateMutability": "nonpayable",
					"type": "function"
				},
				{
					"inputs": [
						{
							"internalType": "bytes32",
							"name": "role",
							"type": "bytes32"
						},
						{
							"internalType": "address",
							"name": "account",
							"type": "address"
						}
					],
					"name": "hasRole",
					"outputs": [
						{
							"internalType": "bool",
							"name": "",
							"type": "bool"
						}
					],
					"stateMutability": "view",
					"type": "function"
				},
				{
					"inputs": [],
					"name": "interestToken",
					"outputs": [
						{
							"internalType": "address",
							"name": "",
							"type": "address"
						}
					],
					"stateMutability": "view",
					"type": "function"
				},
				{
					"inputs": [],
					"name": "maturityDate",
					"outputs": [
						{
							"internalType": "uint256",
							"name": "",
							"type": "uint256"
						}
					],
					"stateMutability": "view",
					"type": "function"
				},
				{
					"inputs": [],
					"name": "name",
					"outputs": [
						{
							"internalType": "string",
							"name": "",
							"type": "string"
						}
					],
					"stateMutability": "view",
					"type": "function"
				},
				{
					"inputs": [],
					"name": "pause",
					"outputs": [],
					"stateMutability": "nonpayable",
					"type": "function"
				},
				{
					"inputs": [],
					"name": "paused",
					"outputs": [
						{
							"internalType": "bool",
							"name": "",
							"type": "bool"
						}
					],
					"stateMutability": "view",
					"type": "function"
				},
				{
					"inputs": [
						{
							"internalType": "bytes32",
							"name": "role",
							"type": "bytes32"
						},
						{
							"internalType": "address",
							"name": "callerConfirmation",
							"type": "address"
						}
					],
					"name": "renounceRole",
					"outputs": [],
					"stateMutability": "nonpayable",
					"type": "function"
				},
				{
					"inputs": [
						{
							"internalType": "bytes32",
							"name": "role",
							"type": "bytes32"
						},
						{
							"internalType": "address",
							"name": "account",
							"type": "address"
						}
					],
					"name": "revokeRole",
					"outputs": [],
					"stateMutability": "nonpayable",
					"type": "function"
				},
				{
					"inputs": [
						{
							"internalType": "address",
							"name": "interestTokenAddr",
							"type": "address"
						}
					],
					"name": "setInterestToken",
					"outputs": [],
					"stateMutability": "nonpayable",
					"type": "function"
				},
				{
					"inputs": [],
					"name": "showBondTokens",
					"outputs": [
						{
							"internalType": "uint256",
							"name": "",
							"type": "uint256"
						}
					],
					"stateMutability": "view",
					"type": "function"
				},
				{
					"inputs": [],
					"name": "showInterestTokens",
					"outputs": [
						{
							"internalType": "uint256",
							"name": "",
							"type": "uint256"
						}
					],
					"stateMutability": "view",
					"type": "function"
				},
				{
					"inputs": [],
					"name": "showStableCoins",
					"outputs": [
						{
							"internalType": "uint256",
							"name": "",
							"type": "uint256"
						}
					],
					"stateMutability": "view",
					"type": "function"
				},
				{
					"inputs": [],
					"name": "stableCoin",
					"outputs": [
						{
							"internalType": "address",
							"name": "",
							"type": "address"
						}
					],
					"stateMutability": "view",
					"type": "function"
				},
				{
					"inputs": [
						{
							"internalType": "bytes4",
							"name": "interfaceId",
							"type": "bytes4"
						}
					],
					"name": "supportsInterface",
					"outputs": [
						{
							"internalType": "bool",
							"name": "",
							"type": "bool"
						}
					],
					"stateMutability": "view",
					"type": "function"
				},
				{
					"inputs": [],
					"name": "symbol",
					"outputs": [
						{
							"internalType": "string",
							"name": "",
							"type": "string"
						}
					],
					"stateMutability": "view",
					"type": "function"
				},
				{
					"inputs": [],
					"name": "totalSupply",
					"outputs": [
						{
							"internalType": "uint256",
							"name": "",
							"type": "uint256"
						}
					],
					"stateMutability": "view",
					"type": "function"
				},
				{
					"inputs": [
						{
							"internalType": "address",
							"name": "to",
							"type": "address"
						},
						{
							"internalType": "uint256",
							"name": "value",
							"type": "uint256"
						}
					],
					"name": "transfer",
					"outputs": [
						{
							"internalType": "bool",
							"name": "",
							"type": "bool"
						}
					],
					"stateMutability": "nonpayable",
					"type": "function"
				},
				{
					"inputs": [
						{
							"internalType": "address",
							"name": "from",
							"type": "address"
						},
						{
							"internalType": "address",
							"name": "to",
							"type": "address"
						},
						{
							"internalType": "uint256",
							"name": "value",
							"type": "uint256"
						}
					],
					"name": "transferFrom",
					"outputs": [
						{
							"internalType": "bool",
							"name": "",
							"type": "bool"
						}
					],
					"stateMutability": "nonpayable",
					"type": "function"
				},
				{
					"inputs": [],
					"name": "unpause",
					"outputs": [],
					"stateMutability": "nonpayable",
					"type": "function"
				}
			],
			"devdoc": {
				"errors": {
					"AccessControlBadConfirmation()": [
						{
							"details": "The caller of a function is not the expected one. NOTE: Don't confuse with {AccessControlUnauthorizedAccount}."
						}
					],
					"AccessControlUnauthorizedAccount(address,bytes32)": [
						{
							"details": "The `account` is missing a role."
						}
					],
					"ERC20InsufficientAllowance(address,uint256,uint256)": [
						{
							"details": "Indicates a failure with the `spender`’s `allowance`. Used in transfers.",
							"params": {
								"allowance": "Amount of tokens a `spender` is allowed to operate with.",
								"needed": "Minimum amount required to perform a transfer.",
								"spender": "Address that may be allowed to operate on tokens without being their owner."
							}
						}
					],
					"ERC20InsufficientBalance(address,uint256,uint256)": [
						{
							"details": "Indicates an error related to the current `balance` of a `sender`. Used in transfers.",
							"params": {
								"balance": "Current balance for the interacting account.",
								"needed": "Minimum amount required to perform a transfer.",
								"sender": "Address whose tokens are being transferred."
							}
						}
					],
					"ERC20InvalidApprover(address)": [
						{
							"details": "Indicates a failure with the `approver` of a token to be approved. Used in approvals.",
							"params": {
								"approver": "Address initiating an approval operation."
							}
						}
					],
					"ERC20InvalidReceiver(address)": [
						{
							"details": "Indicates a failure with the token `receiver`. Used in transfers.",
							"params": {
								"receiver": "Address to which tokens are being transferred."
							}
						}
					],
					"ERC20InvalidSender(address)": [
						{
							"details": "Indicates a failure with the token `sender`. Used in transfers.",
							"params": {
								"sender": "Address whose tokens are being transferred."
							}
						}
					],
					"ERC20InvalidSpender(address)": [
						{
							"details": "Indicates a failure with the `spender` to be approved. Used in approvals.",
							"params": {
								"spender": "Address that may be allowed to operate on tokens without being their owner."
							}
						}
					],
					"EnforcedPause()": [
						{
							"details": "The operation failed because the contract is paused."
						}
					],
					"ExpectedPause()": [
						{
							"details": "The operation failed because the contract is not paused."
						}
					]
				},
				"events": {
					"Approval(address,address,uint256)": {
						"details": "Emitted when the allowance of a `spender` for an `owner` is set by a call to {approve}. `value` is the new allowance."
					},
					"Paused(address)": {
						"details": "Emitted when the pause is triggered by `account`."
					},
					"RoleAdminChanged(bytes32,bytes32,bytes32)": {
						"details": "Emitted when `newAdminRole` is set as ``role``'s admin role, replacing `previousAdminRole` `DEFAULT_ADMIN_ROLE` is the starting admin for all roles, despite {RoleAdminChanged} not being emitted signaling this."
					},
					"RoleGranted(bytes32,address,address)": {
						"details": "Emitted when `account` is granted `role`. `sender` is the account that originated the contract call, an admin role bearer except when using {AccessControl-_setupRole}."
					},
					"RoleRevoked(bytes32,address,address)": {
						"details": "Emitted when `account` is revoked `role`. `sender` is the account that originated the contract call:   - if using `revokeRole`, it is the admin role bearer   - if using `renounceRole`, it is the role bearer (i.e. `account`)"
					},
					"Transfer(address,address,uint256)": {
						"details": "Emitted when `value` tokens are moved from one account (`from`) to another (`to`). Note that `value` may be zero."
					},
					"Unpaused(address)": {
						"details": "Emitted when the pause is lifted by `account`."
					}
				},
				"kind": "dev",
				"methods": {
					"allowance(address,address)": {
						"details": "See {IERC20-allowance}."
					},
					"approve(address,uint256)": {
						"details": "See {IERC20-approve}. NOTE: If `value` is the maximum `uint256`, the allowance is not updated on `transferFrom`. This is semantically equivalent to an infinite approval. Requirements: - `spender` cannot be the zero address."
					},
					"balanceOf(address)": {
						"details": "See {IERC20-balanceOf}."
					},
					"burn(uint256)": {
						"details": "Destroys a `value` amount of tokens from the caller. See {ERC20-_burn}."
					},
					"burnFrom(address,uint256)": {
						"details": "Destroys a `value` amount of tokens from `account`, deducting from the caller's allowance. See {ERC20-_burn} and {ERC20-allowance}. Requirements: - the caller must have allowance for ``accounts``'s tokens of at least `value`."
					},
					"decimals()": {
						"details": "Returns the number of decimals used to get its user representation. For example, if `decimals` equals `2`, a balance of `505` tokens should be displayed to a user as `5.05` (`505 / 10 ** 2`). Tokens usually opt for a value of 18, imitating the relationship between Ether and Wei. This is the default value returned by this function, unless it's overridden. NOTE: This information is only used for _display_ purposes: it in no way affects any of the arithmetic of the contract, including {IERC20-balanceOf} and {IERC20-transfer}."
					},
					"getRoleAdmin(bytes32)": {
						"details": "Returns the admin role that controls `role`. See {grantRole} and {revokeRole}. To change a role's admin, use {_setRoleAdmin}."
					},
					"grantRole(bytes32,address)": {
						"details": "Grants `role` to `account`. If `account` had not been already granted `role`, emits a {RoleGranted} event. Requirements: - the caller must have ``role``'s admin role. May emit a {RoleGranted} event."
					},
					"hasRole(bytes32,address)": {
						"details": "Returns `true` if `account` has been granted `role`."
					},
					"name()": {
						"details": "Returns the name of the token."
					},
					"paused()": {
						"details": "Returns true if the contract is paused, and false otherwise."
					},
					"renounceRole(bytes32,address)": {
						"details": "Revokes `role` from the calling account. Roles are often managed via {grantRole} and {revokeRole}: this function's purpose is to provide a mechanism for accounts to lose their privileges if they are compromised (such as when a trusted device is misplaced). If the calling account had been revoked `role`, emits a {RoleRevoked} event. Requirements: - the caller must be `callerConfirmation`. May emit a {RoleRevoked} event."
					},
					"revokeRole(bytes32,address)": {
						"details": "Revokes `role` from `account`. If `account` had been granted `role`, emits a {RoleRevoked} event. Requirements: - the caller must have ``role``'s admin role. May emit a {RoleRevoked} event."
					},
					"supportsInterface(bytes4)": {
						"details": "See {IERC165-supportsInterface}."
					},
					"symbol()": {
						"details": "Returns the symbol of the token, usually a shorter version of the name."
					},
					"totalSupply()": {
						"details": "See {IERC20-totalSupply}."
					},
					"transfer(address,uint256)": {
						"details": "See {IERC20-transfer}. Requirements: - `to` cannot be the zero address. - the caller must have a balance of at least `value`."
					},
					"transferFrom(address,address,uint256)": {
						"details": "See {IERC20-transferFrom}. Emits an {Approval} event indicating the updated allowance. This is not required by the EIP. See the note at the beginning of {ERC20}. NOTE: Does not update the allowance if the current allowance is the maximum `uint256`. Requirements: - `from` and `to` cannot be the zero address. - `from` must have a balance of at least `value`. - the caller must have allowance for ``from``'s tokens of at least `value`."
					}
				},
				"version": 1
			},
			"evm": {
				"assembly": "    /* \"contracts/BonDeFiToken.sol\":373:3782  contract BonDeFiToken is ERC20, ERC20Burnable, ERC20Pausable, AccessControl {... */\n  mstore(0x40, 0xc0)\n    /* \"contracts/BonDeFiToken.sol\":698:1086  constructor(address administrator, address bondIssuer, address _stableCoin,... */\n  callvalue\n  dup1\n  iszero\n  tag_1\n  jumpi\n  0x00\n  dup1\n  revert\ntag_1:\n  pop\n  mload(0x40)\n  sub(codesize, bytecodeSize)\n  dup1\n  bytecodeSize\n  dup4\n  codecopy\n  dup2\n  dup2\n  add\n  0x40\n  mstore\n  dup2\n  add\n  swap1\n  tag_2\n  swap2\n  swap1\n  tag_3\n  jump\t// in\ntag_2:\n    /* \"@openzeppelin/contracts/token/ERC20/ERC20.sol\":1896:2009  constructor(string memory name_, string memory symbol_) {... */\n  mload(0x40)\n  dup1\n  0x40\n  add\n  0x40\n  mstore\n  dup1\n  0x0c\n  dup2\n  mstore\n  0x20\n  add\n  0x426f6e44654669546f6b656e0000000000000000000000000000000000000000\n  dup2\n  mstore\n  pop\n  mload(0x40)\n  dup1\n  0x40\n  add\n  0x40\n  mstore\n  dup1\n  0x03\n  dup2\n  mstore\n  0x20\n  add\n  0x4244460000000000000000000000000000000000000000000000000000000000\n  dup2\n  mstore\n  pop\n    /* \"@openzeppelin/contracts/token/ERC20/ERC20.sol\":1970:1975  name_ */\n  dup2\n    /* \"@openzeppelin/contracts/token/ERC20/ERC20.sol\":1962:1967  _name */\n  0x03\n    /* \"@openzeppelin/contracts/token/ERC20/ERC20.sol\":1962:1975  _name = name_ */\n  swap1\n  dup2\n  tag_8\n  swap2\n  swap1\n  tag_9\n  jump\t// in\ntag_8:\n  pop\n    /* \"@openzeppelin/contracts/token/ERC20/ERC20.sol\":1995:2002  symbol_ */\n  dup1\n    /* \"@openzeppelin/contracts/token/ERC20/ERC20.sol\":1985:1992  _symbol */\n  0x04\n    /* \"@openzeppelin/contracts/token/ERC20/ERC20.sol\":1985:2002  _symbol = symbol_ */\n  swap1\n  dup2\n  tag_10\n  swap2\n  swap1\n  tag_9\n  jump\t// in\ntag_10:\n  pop\n    /* \"@openzeppelin/contracts/token/ERC20/ERC20.sol\":1896:2009  constructor(string memory name_, string memory symbol_) {... */\n  pop\n  pop\n    /* \"@openzeppelin/contracts/utils/Pausable.sol\":1241:1246  false */\n  0x00\n    /* \"@openzeppelin/contracts/utils/Pausable.sol\":1231:1238  _paused */\n  0x05\n  0x00\n    /* \"@openzeppelin/contracts/utils/Pausable.sol\":1231:1246  _paused = false */\n  0x0100\n  exp\n  dup2\n  sload\n  dup2\n  0xff\n  mul\n  not\n  and\n  swap1\n  dup4\n  iszero\n  iszero\n  mul\n  or\n  swap1\n  sstore\n  pop\n    /* \"contracts/BonDeFiToken.sol\":872:904  _grantRole(ADMIN, administrator) */\n  tag_13\n    /* \"contracts/BonDeFiToken.sol\":487:505  keccak256(\"ADMIN\") */\n  0xdf8b4c520ffe197c5343c6f5aec59570151ef9a492f2c624fd45ddde6135ec42\n    /* \"contracts/BonDeFiToken.sol\":890:903  administrator */\n  dup7\n    /* \"contracts/BonDeFiToken.sol\":872:882  _grantRole */\n  shl(0x20, tag_14)\n    /* \"contracts/BonDeFiToken.sol\":872:904  _grantRole(ADMIN, administrator) */\n  0x20\n  shr\n  jump\t// in\ntag_13:\n  pop\n    /* \"contracts/BonDeFiToken.sol\":914:949  _grantRole(BOND_ISSUER, bondIssuer) */\n  tag_15\n    /* \"contracts/BonDeFiToken.sol\":549:573  keccak256(\"BOND_ISSUER\") */\n  0xf877234297ef562d54f0328f892acfc1d6c1e44ca89f02e3a2c2a4736f6095b7\n    /* \"contracts/BonDeFiToken.sol\":938:948  bondIssuer */\n  dup6\n    /* \"contracts/BonDeFiToken.sol\":914:924  _grantRole */\n  shl(0x20, tag_14)\n    /* \"contracts/BonDeFiToken.sol\":914:949  _grantRole(BOND_ISSUER, bondIssuer) */\n  0x20\n  shr\n  jump\t// in\ntag_15:\n  pop\n    /* \"contracts/BonDeFiToken.sol\":972:983  _stableCoin */\n  dup3\n    /* \"contracts/BonDeFiToken.sol\":959:983  stableCoin = _stableCoin */\n  0xffffffffffffffffffffffffffffffffffffffff\n  and\n  0x80\n  dup2\n  0xffffffffffffffffffffffffffffffffffffffff\n  and\n  dup2\n  mstore\n  pop\n  pop\n    /* \"contracts/BonDeFiToken.sol\":1008:1021  _maturityDate */\n  dup1\n    /* \"contracts/BonDeFiToken.sol\":993:1021  maturityDate = _maturityDate */\n  0xa0\n  dup2\n  dup2\n  mstore\n  pop\n  pop\n    /* \"contracts/BonDeFiToken.sol\":1031:1079  _mint(msg.sender, _faceValue * 10 ** decimals()) */\n  tag_16\n    /* \"contracts/BonDeFiToken.sol\":1037:1047  msg.sender */\n  caller\n    /* \"contracts/BonDeFiToken.sol\":1068:1078  decimals() */\n  tag_17\n    /* \"contracts/BonDeFiToken.sol\":1068:1076  decimals */\n  shl(0x20, tag_18)\n    /* \"contracts/BonDeFiToken.sol\":1068:1078  decimals() */\n  0x20\n  shr\n  jump\t// in\ntag_17:\n    /* \"contracts/BonDeFiToken.sol\":1062:1064  10 */\n  0x0a\n    /* \"contracts/BonDeFiToken.sol\":1062:1078  10 ** decimals() */\n  tag_19\n  swap2\n  swap1\n  tag_20\n  jump\t// in\ntag_19:\n    /* \"contracts/BonDeFiToken.sol\":1049:1059  _faceValue */\n  dup5\n    /* \"contracts/BonDeFiToken.sol\":1049:1078  _faceValue * 10 ** decimals() */\n  tag_21\n  swap2\n  swap1\n  tag_22\n  jump\t// in\ntag_21:\n    /* \"contracts/BonDeFiToken.sol\":1031:1036  _mint */\n  shl(0x20, tag_23)\n    /* \"contracts/BonDeFiToken.sol\":1031:1079  _mint(msg.sender, _faceValue * 10 ** decimals()) */\n  0x20\n  shr\n  jump\t// in\ntag_16:\n    /* \"contracts/BonDeFiToken.sol\":698:1086  constructor(address administrator, address bondIssuer, address _stableCoin,... */\n  pop\n  pop\n  pop\n  pop\n  pop\n    /* \"contracts/BonDeFiToken.sol\":373:3782  contract BonDeFiToken is ERC20, ERC20Burnable, ERC20Pausable, AccessControl {... */\n  jump(tag_24)\n    /* \"@openzeppelin/contracts/access/AccessControl.sol\":6179:6495  function _grantRole(bytes32 role, address account) internal virtual returns (bool) {... */\ntag_14:\n    /* \"@openzeppelin/contracts/access/AccessControl.sol\":6256:6260  bool */\n  0x00\n    /* \"@openzeppelin/contracts/access/AccessControl.sol\":6277:6299  hasRole(role, account) */\n  tag_26\n    /* \"@openzeppelin/contracts/access/AccessControl.sol\":6285:6289  role */\n  dup4\n    /* \"@openzeppelin/contracts/access/AccessControl.sol\":6291:6298  account */\n  dup4\n    /* \"@openzeppelin/contracts/access/AccessControl.sol\":6277:6284  hasRole */\n  shl(0x20, tag_27)\n    /* \"@openzeppelin/contracts/access/AccessControl.sol\":6277:6299  hasRole(role, account) */\n  0x20\n  shr\n  jump\t// in\ntag_26:\n    /* \"@openzeppelin/contracts/access/AccessControl.sol\":6272:6489  if (!hasRole(role, account)) {... */\n  tag_28\n  jumpi\n    /* \"@openzeppelin/contracts/access/AccessControl.sol\":6347:6351  true */\n  0x01\n    /* \"@openzeppelin/contracts/access/AccessControl.sol\":6315:6321  _roles */\n  0x06\n    /* \"@openzeppelin/contracts/access/AccessControl.sol\":6315:6327  _roles[role] */\n  0x00\n    /* \"@openzeppelin/contracts/access/AccessControl.sol\":6322:6326  role */\n  dup6\n    /* \"@openzeppelin/contracts/access/AccessControl.sol\":6315:6327  _roles[role] */\n  dup2\n  mstore\n  0x20\n  add\n  swap1\n  dup2\n  mstore\n  0x20\n  add\n  0x00\n  keccak256\n    /* \"@openzeppelin/contracts/access/AccessControl.sol\":6315:6335  _roles[role].hasRole */\n  0x00\n  add\n    /* \"@openzeppelin/contracts/access/AccessControl.sol\":6315:6344  _roles[role].hasRole[account] */\n  0x00\n    /* \"@openzeppelin/contracts/access/AccessControl.sol\":6336:6343  account */\n  dup5\n    /* \"@openzeppelin/contracts/access/AccessControl.sol\":6315:6344  _roles[role].hasRole[account] */\n  0xffffffffffffffffffffffffffffffffffffffff\n  and\n  0xffffffffffffffffffffffffffffffffffffffff\n  and\n  dup2\n  mstore\n  0x20\n  add\n  swap1\n  dup2\n  mstore\n  0x20\n  add\n  0x00\n  keccak256\n  0x00\n    /* \"@openzeppelin/contracts/access/AccessControl.sol\":6315:6351  _roles[role].hasRole[account] = true */\n  0x0100\n  exp\n  dup2\n  sload\n  dup2\n  0xff\n  mul\n  not\n  and\n  swap1\n  dup4\n  iszero\n  iszero\n  mul\n  or\n  swap1\n  sstore\n  pop\n    /* \"@openzeppelin/contracts/access/AccessControl.sol\":6397:6409  _msgSender() */\n  tag_29\n    /* \"@openzeppelin/contracts/access/AccessControl.sol\":6397:6407  _msgSender */\n  shl(0x20, tag_30)\n    /* \"@openzeppelin/contracts/access/AccessControl.sol\":6397:6409  _msgSender() */\n  0x20\n  shr\n  jump\t// in\ntag_29:\n    /* \"@openzeppelin/contracts/access/AccessControl.sol\":6370:6410  RoleGranted(role, account, _msgSender()) */\n  0xffffffffffffffffffffffffffffffffffffffff\n  and\n    /* \"@openzeppelin/contracts/access/AccessControl.sol\":6388:6395  account */\n  dup3\n    /* \"@openzeppelin/contracts/access/AccessControl.sol\":6370:6410  RoleGranted(role, account, _msgSender()) */\n  0xffffffffffffffffffffffffffffffffffffffff\n  and\n    /* \"@openzeppelin/contracts/access/AccessControl.sol\":6382:6386  role */\n  dup5\n    /* \"@openzeppelin/contracts/access/AccessControl.sol\":6370:6410  RoleGranted(role, account, _msgSender()) */\n  0x2f8788117e7eff1d82e926ec794901d17c78024a50270940304540a733656f0d\n  mload(0x40)\n  mload(0x40)\n  dup1\n  swap2\n  sub\n  swap1\n  log4\n    /* \"@openzeppelin/contracts/access/AccessControl.sol\":6431:6435  true */\n  0x01\n    /* \"@openzeppelin/contracts/access/AccessControl.sol\":6424:6435  return true */\n  swap1\n  pop\n  jump(tag_25)\n    /* \"@openzeppelin/contracts/access/AccessControl.sol\":6272:6489  if (!hasRole(role, account)) {... */\ntag_28:\n    /* \"@openzeppelin/contracts/access/AccessControl.sol\":6473:6478  false */\n  0x00\n    /* \"@openzeppelin/contracts/access/AccessControl.sol\":6466:6478  return false */\n  swap1\n  pop\n    /* \"@openzeppelin/contracts/access/AccessControl.sol\":6179:6495  function _grantRole(bytes32 role, address account) internal virtual returns (bool) {... */\ntag_25:\n  swap3\n  swap2\n  pop\n  pop\n  jump\t// out\n    /* \"@openzeppelin/contracts/token/ERC20/ERC20.sol\":3002:3084  function decimals() public view virtual returns (uint8) {... */\ntag_18:\n    /* \"@openzeppelin/contracts/token/ERC20/ERC20.sol\":3051:3056  uint8 */\n  0x00\n    /* \"@openzeppelin/contracts/token/ERC20/ERC20.sol\":3075:3077  18 */\n  0x12\n    /* \"@openzeppelin/contracts/token/ERC20/ERC20.sol\":3068:3077  return 18 */\n  swap1\n  pop\n    /* \"@openzeppelin/contracts/token/ERC20/ERC20.sol\":3002:3084  function decimals() public view virtual returns (uint8) {... */\n  swap1\n  jump\t// out\n    /* \"@openzeppelin/contracts/token/ERC20/ERC20.sol\":7721:7929  function _mint(address account, uint256 value) internal {... */\ntag_23:\n    /* \"@openzeppelin/contracts/token/ERC20/ERC20.sol\":7810:7811  0 */\n  0x00\n    /* \"@openzeppelin/contracts/token/ERC20/ERC20.sol\":7791:7812  account == address(0) */\n  0xffffffffffffffffffffffffffffffffffffffff\n  and\n    /* \"@openzeppelin/contracts/token/ERC20/ERC20.sol\":7791:7798  account */\n  dup3\n    /* \"@openzeppelin/contracts/token/ERC20/ERC20.sol\":7791:7812  account == address(0) */\n  0xffffffffffffffffffffffffffffffffffffffff\n  and\n  sub\n    /* \"@openzeppelin/contracts/token/ERC20/ERC20.sol\":7787:7878  if (account == address(0)) {... */\n  tag_34\n  jumpi\n    /* \"@openzeppelin/contracts/token/ERC20/ERC20.sol\":7864:7865  0 */\n  0x00\n    /* \"@openzeppelin/contracts/token/ERC20/ERC20.sol\":7835:7867  ERC20InvalidReceiver(address(0)) */\n  mload(0x40)\n  0xec442f0500000000000000000000000000000000000000000000000000000000\n  dup2\n  mstore\n  0x04\n  add\n  tag_35\n  swap2\n  swap1\n  tag_36\n  jump\t// in\ntag_35:\n  mload(0x40)\n  dup1\n  swap2\n  sub\n  swap1\n  revert\n    /* \"@openzeppelin/contracts/token/ERC20/ERC20.sol\":7787:7878  if (account == address(0)) {... */\ntag_34:\n    /* \"@openzeppelin/contracts/token/ERC20/ERC20.sol\":7887:7922  _update(address(0), account, value) */\n  tag_37\n    /* \"@openzeppelin/contracts/token/ERC20/ERC20.sol\":7903:7904  0 */\n  0x00\n    /* \"@openzeppelin/contracts/token/ERC20/ERC20.sol\":7907:7914  account */\n  dup4\n    /* \"@openzeppelin/contracts/token/ERC20/ERC20.sol\":7916:7921  value */\n  dup4\n    /* \"@openzeppelin/contracts/token/ERC20/ERC20.sol\":7887:7894  _update */\n  shl(0x20, tag_38)\n    /* \"@openzeppelin/contracts/token/ERC20/ERC20.sol\":7887:7922  _update(address(0), account, value) */\n  0x20\n  shr\n  jump\t// in\ntag_37:\n    /* \"@openzeppelin/contracts/token/ERC20/ERC20.sol\":7721:7929  function _mint(address account, uint256 value) internal {... */\n  pop\n  pop\n  jump\t// out\n    /* \"@openzeppelin/contracts/access/AccessControl.sol\":2854:2990  function hasRole(bytes32 role, address account) public view virtual returns (bool) {... */\ntag_27:\n    /* \"@openzeppelin/contracts/access/AccessControl.sol\":2931:2935  bool */\n  0x00\n    /* \"@openzeppelin/contracts/access/AccessControl.sol\":2954:2960  _roles */\n  0x06\n    /* \"@openzeppelin/contracts/access/AccessControl.sol\":2954:2966  _roles[role] */\n  0x00\n    /* \"@openzeppelin/contracts/access/AccessControl.sol\":2961:2965  role */\n  dup5\n    /* \"@openzeppelin/contracts/access/AccessControl.sol\":2954:2966  _roles[role] */\n  dup2\n  mstore\n  0x20\n  add\n  swap1\n  dup2\n  mstore\n  0x20\n  add\n  0x00\n  keccak256\n    /* \"@openzeppelin/contracts/access/AccessControl.sol\":2954:2974  _roles[role].hasRole */\n  0x00\n  add\n    /* \"@openzeppelin/contracts/access/AccessControl.sol\":2954:2983  _roles[role].hasRole[account] */\n  0x00\n    /* \"@openzeppelin/contracts/access/AccessControl.sol\":2975:2982  account */\n  dup4\n    /* \"@openzeppelin/contracts/access/AccessControl.sol\":2954:2983  _roles[role].hasRole[account] */\n  0xffffffffffffffffffffffffffffffffffffffff\n  and\n  0xffffffffffffffffffffffffffffffffffffffff\n  and\n  dup2\n  mstore\n  0x20\n  add\n  swap1\n  dup2\n  mstore\n  0x20\n  add\n  0x00\n  keccak256\n  0x00\n  swap1\n  sload\n  swap1\n  0x0100\n  exp\n  swap1\n  div\n  0xff\n  and\n    /* \"@openzeppelin/contracts/access/AccessControl.sol\":2947:2983  return _roles[role].hasRole[account] */\n  swap1\n  pop\n    /* \"@openzeppelin/contracts/access/AccessControl.sol\":2854:2990  function hasRole(bytes32 role, address account) public view virtual returns (bool) {... */\n  swap3\n  swap2\n  pop\n  pop\n  jump\t// out\n    /* \"@openzeppelin/contracts/utils/Context.sol\":656:752  function _msgSender() internal view virtual returns (address) {... */\ntag_30:\n    /* \"@openzeppelin/contracts/utils/Context.sol\":709:716  address */\n  0x00\n    /* \"@openzeppelin/contracts/utils/Context.sol\":735:745  msg.sender */\n  caller\n    /* \"@openzeppelin/contracts/utils/Context.sol\":728:745  return msg.sender */\n  swap1\n  pop\n    /* \"@openzeppelin/contracts/utils/Context.sol\":656:752  function _msgSender() internal view virtual returns (address) {... */\n  swap1\n  jump\t// out\n    /* \"contracts/BonDeFiToken.sol\":3466:3631  function _update(address from, address to, uint256 value)... */\ntag_38:\n    /* \"contracts/BonDeFiToken.sol\":3594:3624  super._update(from, to, value) */\n  tag_42\n    /* \"contracts/BonDeFiToken.sol\":3608:3612  from */\n  dup4\n    /* \"contracts/BonDeFiToken.sol\":3614:3616  to */\n  dup4\n    /* \"contracts/BonDeFiToken.sol\":3618:3623  value */\n  dup4\n    /* \"contracts/BonDeFiToken.sol\":3594:3607  super._update */\n  shl(0x20, tag_43)\n    /* \"contracts/BonDeFiToken.sol\":3594:3624  super._update(from, to, value) */\n  0x20\n  shr\n  jump\t// in\ntag_42:\n    /* \"contracts/BonDeFiToken.sol\":3466:3631  function _update(address from, address to, uint256 value)... */\n  pop\n  pop\n  pop\n  jump\t// out\n    /* \"@openzeppelin/contracts/token/ERC20/extensions/ERC20Pausable.sol\":1112:1257  function _update(address from, address to, uint256 value) internal virtual override whenNotPaused {... */\ntag_43:\n    /* \"@openzeppelin/contracts/utils/Pausable.sol\":1474:1493  _requireNotPaused() */\n  tag_45\n    /* \"@openzeppelin/contracts/utils/Pausable.sol\":1474:1491  _requireNotPaused */\n  shl(0x20, tag_46)\n    /* \"@openzeppelin/contracts/utils/Pausable.sol\":1474:1493  _requireNotPaused() */\n  0x20\n  shr\n  jump\t// in\ntag_45:\n    /* \"@openzeppelin/contracts/token/ERC20/extensions/ERC20Pausable.sol\":1220:1250  super._update(from, to, value) */\n  tag_48\n    /* \"@openzeppelin/contracts/token/ERC20/extensions/ERC20Pausable.sol\":1234:1238  from */\n  dup4\n    /* \"@openzeppelin/contracts/token/ERC20/extensions/ERC20Pausable.sol\":1240:1242  to */\n  dup4\n    /* \"@openzeppelin/contracts/token/ERC20/extensions/ERC20Pausable.sol\":1244:1249  value */\n  dup4\n    /* \"@openzeppelin/contracts/token/ERC20/extensions/ERC20Pausable.sol\":1220:1233  super._update */\n  shl(0x20, tag_49)\n    /* \"@openzeppelin/contracts/token/ERC20/extensions/ERC20Pausable.sol\":1220:1250  super._update(from, to, value) */\n  0x20\n  shr\n  jump\t// in\ntag_48:\n    /* \"@openzeppelin/contracts/token/ERC20/extensions/ERC20Pausable.sol\":1112:1257  function _update(address from, address to, uint256 value) internal virtual override whenNotPaused {... */\n  pop\n  pop\n  pop\n  jump\t// out\n    /* \"@openzeppelin/contracts/utils/Pausable.sol\":2002:2130  function _requireNotPaused() internal view virtual {... */\ntag_46:\n    /* \"@openzeppelin/contracts/utils/Pausable.sol\":2067:2075  paused() */\n  tag_51\n    /* \"@openzeppelin/contracts/utils/Pausable.sol\":2067:2073  paused */\n  shl(0x20, tag_52)\n    /* \"@openzeppelin/contracts/utils/Pausable.sol\":2067:2075  paused() */\n  0x20\n  shr\n  jump\t// in\ntag_51:\n    /* \"@openzeppelin/contracts/utils/Pausable.sol\":2063:2124  if (paused()) {... */\n  iszero\n  tag_53\n  jumpi\n    /* \"@openzeppelin/contracts/utils/Pausable.sol\":2098:2113  EnforcedPause() */\n  mload(0x40)\n  0xd93c066500000000000000000000000000000000000000000000000000000000\n  dup2\n  mstore\n  0x04\n  add\n  mload(0x40)\n  dup1\n  swap2\n  sub\n  swap1\n  revert\n    /* \"@openzeppelin/contracts/utils/Pausable.sol\":2063:2124  if (paused()) {... */\ntag_53:\n    /* \"@openzeppelin/contracts/utils/Pausable.sol\":2002:2130  function _requireNotPaused() internal view virtual {... */\n  jump\t// out\n    /* \"@openzeppelin/contracts/token/ERC20/ERC20.sol\":6271:7378  function _update(address from, address to, uint256 value) internal virtual {... */\ntag_49:\n    /* \"@openzeppelin/contracts/token/ERC20/ERC20.sol\":6376:6377  0 */\n  0x00\n    /* \"@openzeppelin/contracts/token/ERC20/ERC20.sol\":6360:6378  from == address(0) */\n  0xffffffffffffffffffffffffffffffffffffffff\n  and\n    /* \"@openzeppelin/contracts/token/ERC20/ERC20.sol\":6360:6364  from */\n  dup4\n    /* \"@openzeppelin/contracts/token/ERC20/ERC20.sol\":6360:6378  from == address(0) */\n  0xffffffffffffffffffffffffffffffffffffffff\n  and\n  sub\n    /* \"@openzeppelin/contracts/token/ERC20/ERC20.sol\":6356:6896  if (from == address(0)) {... */\n  tag_55\n  jumpi\n    /* \"@openzeppelin/contracts/token/ERC20/ERC20.sol\":6512:6517  value */\n  dup1\n    /* \"@openzeppelin/contracts/token/ERC20/ERC20.sol\":6496:6508  _totalSupply */\n  0x02\n  0x00\n    /* \"@openzeppelin/contracts/token/ERC20/ERC20.sol\":6496:6517  _totalSupply += value */\n  dup3\n  dup3\n  sload\n  tag_56\n  swap2\n  swap1\n  tag_57\n  jump\t// in\ntag_56:\n  swap3\n  pop\n  pop\n  dup2\n  swap1\n  sstore\n  pop\n    /* \"@openzeppelin/contracts/token/ERC20/ERC20.sol\":6356:6896  if (from == address(0)) {... */\n  jump(tag_58)\ntag_55:\n    /* \"@openzeppelin/contracts/token/ERC20/ERC20.sol\":6548:6567  uint256 fromBalance */\n  0x00\n    /* \"@openzeppelin/contracts/token/ERC20/ERC20.sol\":6570:6579  _balances */\n  dup1\n    /* \"@openzeppelin/contracts/token/ERC20/ERC20.sol\":6570:6585  _balances[from] */\n  0x00\n    /* \"@openzeppelin/contracts/token/ERC20/ERC20.sol\":6580:6584  from */\n  dup6\n    /* \"@openzeppelin/contracts/token/ERC20/ERC20.sol\":6570:6585  _balances[from] */\n  0xffffffffffffffffffffffffffffffffffffffff\n  and\n  0xffffffffffffffffffffffffffffffffffffffff\n  and\n  dup2\n  mstore\n  0x20\n  add\n  swap1\n  dup2\n  mstore\n  0x20\n  add\n  0x00\n  keccak256\n  sload\n    /* \"@openzeppelin/contracts/token/ERC20/ERC20.sol\":6548:6585  uint256 fromBalance = _balances[from] */\n  swap1\n  pop\n    /* \"@openzeppelin/contracts/token/ERC20/ERC20.sol\":6617:6622  value */\n  dup2\n    /* \"@openzeppelin/contracts/token/ERC20/ERC20.sol\":6603:6614  fromBalance */\n  dup2\n    /* \"@openzeppelin/contracts/token/ERC20/ERC20.sol\":6603:6622  fromBalance < value */\n  lt\n    /* \"@openzeppelin/contracts/token/ERC20/ERC20.sol\":6599:6714  if (fromBalance < value) {... */\n  iszero\n  tag_59\n  jumpi\n    /* \"@openzeppelin/contracts/token/ERC20/ERC20.sol\":6674:6678  from */\n  dup4\n    /* \"@openzeppelin/contracts/token/ERC20/ERC20.sol\":6680:6691  fromBalance */\n  dup2\n    /* \"@openzeppelin/contracts/token/ERC20/ERC20.sol\":6693:6698  value */\n  dup4\n    /* \"@openzeppelin/contracts/token/ERC20/ERC20.sol\":6649:6699  ERC20InsufficientBalance(from, fromBalance, value) */\n  mload(0x40)\n  0xe450d38c00000000000000000000000000000000000000000000000000000000\n  dup2\n  mstore\n  0x04\n  add\n  tag_60\n  swap4\n  swap3\n  swap2\n  swap1\n  tag_61\n  jump\t// in\ntag_60:\n  mload(0x40)\n  dup1\n  swap2\n  sub\n  swap1\n  revert\n    /* \"@openzeppelin/contracts/token/ERC20/ERC20.sol\":6599:6714  if (fromBalance < value) {... */\ntag_59:\n    /* \"@openzeppelin/contracts/token/ERC20/ERC20.sol\":6866:6871  value */\n  dup2\n    /* \"@openzeppelin/contracts/token/ERC20/ERC20.sol\":6852:6863  fromBalance */\n  dup2\n    /* \"@openzeppelin/contracts/token/ERC20/ERC20.sol\":6852:6871  fromBalance - value */\n  sub\n    /* \"@openzeppelin/contracts/token/ERC20/ERC20.sol\":6834:6843  _balances */\n  0x00\n    /* \"@openzeppelin/contracts/token/ERC20/ERC20.sol\":6834:6849  _balances[from] */\n  dup1\n    /* \"@openzeppelin/contracts/token/ERC20/ERC20.sol\":6844:6848  from */\n  dup7\n    /* \"@openzeppelin/contracts/token/ERC20/ERC20.sol\":6834:6849  _balances[from] */\n  0xffffffffffffffffffffffffffffffffffffffff\n  and\n  0xffffffffffffffffffffffffffffffffffffffff\n  and\n  dup2\n  mstore\n  0x20\n  add\n  swap1\n  dup2\n  mstore\n  0x20\n  add\n  0x00\n  keccak256\n    /* \"@openzeppelin/contracts/token/ERC20/ERC20.sol\":6834:6871  _balances[from] = fromBalance - value */\n  dup2\n  swap1\n  sstore\n  pop\n    /* \"@openzeppelin/contracts/token/ERC20/ERC20.sol\":6534:6896  {... */\n  pop\n    /* \"@openzeppelin/contracts/token/ERC20/ERC20.sol\":6356:6896  if (from == address(0)) {... */\ntag_58:\n    /* \"@openzeppelin/contracts/token/ERC20/ERC20.sol\":6924:6925  0 */\n  0x00\n    /* \"@openzeppelin/contracts/token/ERC20/ERC20.sol\":6910:6926  to == address(0) */\n  0xffffffffffffffffffffffffffffffffffffffff\n  and\n    /* \"@openzeppelin/contracts/token/ERC20/ERC20.sol\":6910:6912  to */\n  dup3\n    /* \"@openzeppelin/contracts/token/ERC20/ERC20.sol\":6910:6926  to == address(0) */\n  0xffffffffffffffffffffffffffffffffffffffff\n  and\n  sub\n    /* \"@openzeppelin/contracts/token/ERC20/ERC20.sol\":6906:7331  if (to == address(0)) {... */\n  tag_62\n  jumpi\n    /* \"@openzeppelin/contracts/token/ERC20/ERC20.sol\":7089:7094  value */\n  dup1\n    /* \"@openzeppelin/contracts/token/ERC20/ERC20.sol\":7073:7085  _totalSupply */\n  0x02\n  0x00\n    /* \"@openzeppelin/contracts/token/ERC20/ERC20.sol\":7073:7094  _totalSupply -= value */\n  dup3\n  dup3\n  sload\n  sub\n  swap3\n  pop\n  pop\n  dup2\n  swap1\n  sstore\n  pop\n    /* \"@openzeppelin/contracts/token/ERC20/ERC20.sol\":6906:7331  if (to == address(0)) {... */\n  jump(tag_63)\ntag_62:\n    /* \"@openzeppelin/contracts/token/ERC20/ERC20.sol\":7301:7306  value */\n  dup1\n    /* \"@openzeppelin/contracts/token/ERC20/ERC20.sol\":7284:7293  _balances */\n  0x00\n    /* \"@openzeppelin/contracts/token/ERC20/ERC20.sol\":7284:7297  _balances[to] */\n  dup1\n    /* \"@openzeppelin/contracts/token/ERC20/ERC20.sol\":7294:7296  to */\n  dup5\n    /* \"@openzeppelin/contracts/token/ERC20/ERC20.sol\":7284:7297  _balances[to] */\n  0xffffffffffffffffffffffffffffffffffffffff\n  and\n  0xffffffffffffffffffffffffffffffffffffffff\n  and\n  dup2\n  mstore\n  0x20\n  add\n  swap1\n  dup2\n  mstore\n  0x20\n  add\n  0x00\n  keccak256\n  0x00\n    /* \"@openzeppelin/contracts/token/ERC20/ERC20.sol\":7284:7306  _balances[to] += value */\n  dup3\n  dup3\n  sload\n  add\n  swap3\n  pop\n  pop\n  dup2\n  swap1\n  sstore\n  pop\n    /* \"@openzeppelin/contracts/token/ERC20/ERC20.sol\":6906:7331  if (to == address(0)) {... */\ntag_63:\n    /* \"@openzeppelin/contracts/token/ERC20/ERC20.sol\":7361:7363  to */\n  dup2\n    /* \"@openzeppelin/contracts/token/ERC20/ERC20.sol\":7346:7371  Transfer(from, to, value) */\n  0xffffffffffffffffffffffffffffffffffffffff\n  and\n    /* \"@openzeppelin/contracts/token/ERC20/ERC20.sol\":7355:7359  from */\n  dup4\n    /* \"@openzeppelin/contracts/token/ERC20/ERC20.sol\":7346:7371  Transfer(from, to, value) */\n  0xffffffffffffffffffffffffffffffffffffffff\n  and\n  0xddf252ad1be2c89b69c2b068fc378daa952ba7f163c4a11628f55a4df523b3ef\n    /* \"@openzeppelin/contracts/token/ERC20/ERC20.sol\":7365:7370  value */\n  dup4\n    /* \"@openzeppelin/contracts/token/ERC20/ERC20.sol\":7346:7371  Transfer(from, to, value) */\n  mload(0x40)\n  tag_64\n  swap2\n  swap1\n  tag_65\n  jump\t// in\ntag_64:\n  mload(0x40)\n  dup1\n  swap2\n  sub\n  swap1\n  log3\n    /* \"@openzeppelin/contracts/token/ERC20/ERC20.sol\":6271:7378  function _update(address from, address to, uint256 value) internal virtual {... */\n  pop\n  pop\n  pop\n  jump\t// out\n    /* \"@openzeppelin/contracts/utils/Pausable.sol\":1850:1934  function paused() public view virtual returns (bool) {... */\ntag_52:\n    /* \"@openzeppelin/contracts/utils/Pausable.sol\":1897:1901  bool */\n  0x00\n    /* \"@openzeppelin/contracts/utils/Pausable.sol\":1920:1927  _paused */\n  0x05\n  0x00\n  swap1\n  sload\n  swap1\n  0x0100\n  exp\n  swap1\n  div\n  0xff\n  and\n    /* \"@openzeppelin/contracts/utils/Pausable.sol\":1913:1927  return _paused */\n  swap1\n  pop\n    /* \"@openzeppelin/contracts/utils/Pausable.sol\":1850:1934  function paused() public view virtual returns (bool) {... */\n  swap1\n  jump\t// out\n    /* \"#utility.yul\":88:205   */\ntag_68:\n    /* \"#utility.yul\":197:198   */\n  0x00\n    /* \"#utility.yul\":194:195   */\n  dup1\n    /* \"#utility.yul\":187:199   */\n  revert\n    /* \"#utility.yul\":334:460   */\ntag_70:\n    /* \"#utility.yul\":371:378   */\n  0x00\n    /* \"#utility.yul\":411:453   */\n  0xffffffffffffffffffffffffffffffffffffffff\n    /* \"#utility.yul\":404:409   */\n  dup3\n    /* \"#utility.yul\":400:454   */\n  and\n    /* \"#utility.yul\":389:454   */\n  swap1\n  pop\n    /* \"#utility.yul\":334:460   */\n  swap2\n  swap1\n  pop\n  jump\t// out\n    /* \"#utility.yul\":466:562   */\ntag_71:\n    /* \"#utility.yul\":503:510   */\n  0x00\n    /* \"#utility.yul\":532:556   */\n  tag_109\n    /* \"#utility.yul\":550:555   */\n  dup3\n    /* \"#utility.yul\":532:556   */\n  tag_70\n  jump\t// in\ntag_109:\n    /* \"#utility.yul\":521:556   */\n  swap1\n  pop\n    /* \"#utility.yul\":466:562   */\n  swap2\n  swap1\n  pop\n  jump\t// out\n    /* \"#utility.yul\":568:690   */\ntag_72:\n    /* \"#utility.yul\":641:665   */\n  tag_111\n    /* \"#utility.yul\":659:664   */\n  dup2\n    /* \"#utility.yul\":641:665   */\n  tag_71\n  jump\t// in\ntag_111:\n    /* \"#utility.yul\":634:639   */\n  dup2\n    /* \"#utility.yul\":631:666   */\n  eq\n    /* \"#utility.yul\":621:684   */\n  tag_112\n  jumpi\n    /* \"#utility.yul\":680:681   */\n  0x00\n    /* \"#utility.yul\":677:678   */\n  dup1\n    /* \"#utility.yul\":670:682   */\n  revert\n    /* \"#utility.yul\":621:684   */\ntag_112:\n    /* \"#utility.yul\":568:690   */\n  pop\n  jump\t// out\n    /* \"#utility.yul\":696:839   */\ntag_73:\n    /* \"#utility.yul\":753:758   */\n  0x00\n    /* \"#utility.yul\":784:790   */\n  dup2\n    /* \"#utility.yul\":778:791   */\n  mload\n    /* \"#utility.yul\":769:791   */\n  swap1\n  pop\n    /* \"#utility.yul\":800:833   */\n  tag_114\n    /* \"#utility.yul\":827:832   */\n  dup2\n    /* \"#utility.yul\":800:833   */\n  tag_72\n  jump\t// in\ntag_114:\n    /* \"#utility.yul\":696:839   */\n  swap3\n  swap2\n  pop\n  pop\n  jump\t// out\n    /* \"#utility.yul\":845:922   */\ntag_74:\n    /* \"#utility.yul\":882:889   */\n  0x00\n    /* \"#utility.yul\":911:916   */\n  dup2\n    /* \"#utility.yul\":900:916   */\n  swap1\n  pop\n    /* \"#utility.yul\":845:922   */\n  swap2\n  swap1\n  pop\n  jump\t// out\n    /* \"#utility.yul\":928:1050   */\ntag_75:\n    /* \"#utility.yul\":1001:1025   */\n  tag_117\n    /* \"#utility.yul\":1019:1024   */\n  dup2\n    /* \"#utility.yul\":1001:1025   */\n  tag_74\n  jump\t// in\ntag_117:\n    /* \"#utility.yul\":994:999   */\n  dup2\n    /* \"#utility.yul\":991:1026   */\n  eq\n    /* \"#utility.yul\":981:1044   */\n  tag_118\n  jumpi\n    /* \"#utility.yul\":1040:1041   */\n  0x00\n    /* \"#utility.yul\":1037:1038   */\n  dup1\n    /* \"#utility.yul\":1030:1042   */\n  revert\n    /* \"#utility.yul\":981:1044   */\ntag_118:\n    /* \"#utility.yul\":928:1050   */\n  pop\n  jump\t// out\n    /* \"#utility.yul\":1056:1199   */\ntag_76:\n    /* \"#utility.yul\":1113:1118   */\n  0x00\n    /* \"#utility.yul\":1144:1150   */\n  dup2\n    /* \"#utility.yul\":1138:1151   */\n  mload\n    /* \"#utility.yul\":1129:1151   */\n  swap1\n  pop\n    /* \"#utility.yul\":1160:1193   */\n  tag_120\n    /* \"#utility.yul\":1187:1192   */\n  dup2\n    /* \"#utility.yul\":1160:1193   */\n  tag_75\n  jump\t// in\ntag_120:\n    /* \"#utility.yul\":1056:1199   */\n  swap3\n  swap2\n  pop\n  pop\n  jump\t// out\n    /* \"#utility.yul\":1205:2182   */\ntag_3:\n    /* \"#utility.yul\":1311:1317   */\n  0x00\n    /* \"#utility.yul\":1319:1325   */\n  dup1\n    /* \"#utility.yul\":1327:1333   */\n  0x00\n    /* \"#utility.yul\":1335:1341   */\n  dup1\n    /* \"#utility.yul\":1343:1349   */\n  0x00\n    /* \"#utility.yul\":1392:1395   */\n  0xa0\n    /* \"#utility.yul\":1380:1389   */\n  dup7\n    /* \"#utility.yul\":1371:1378   */\n  dup9\n    /* \"#utility.yul\":1367:1390   */\n  sub\n    /* \"#utility.yul\":1363:1396   */\n  slt\n    /* \"#utility.yul\":1360:1480   */\n  iszero\n  tag_122\n  jumpi\n    /* \"#utility.yul\":1399:1478   */\n  tag_123\n  tag_68\n  jump\t// in\ntag_123:\n    /* \"#utility.yul\":1360:1480   */\ntag_122:\n    /* \"#utility.yul\":1519:1520   */\n  0x00\n    /* \"#utility.yul\":1544:1608   */\n  tag_124\n    /* \"#utility.yul\":1600:1607   */\n  dup9\n    /* \"#utility.yul\":1591:1597   */\n  dup3\n    /* \"#utility.yul\":1580:1589   */\n  dup10\n    /* \"#utility.yul\":1576:1598   */\n  add\n    /* \"#utility.yul\":1544:1608   */\n  tag_73\n  jump\t// in\ntag_124:\n    /* \"#utility.yul\":1534:1608   */\n  swap6\n  pop\n    /* \"#utility.yul\":1490:1618   */\n  pop\n    /* \"#utility.yul\":1657:1659   */\n  0x20\n    /* \"#utility.yul\":1683:1747   */\n  tag_125\n    /* \"#utility.yul\":1739:1746   */\n  dup9\n    /* \"#utility.yul\":1730:1736   */\n  dup3\n    /* \"#utility.yul\":1719:1728   */\n  dup10\n    /* \"#utility.yul\":1715:1737   */\n  add\n    /* \"#utility.yul\":1683:1747   */\n  tag_73\n  jump\t// in\ntag_125:\n    /* \"#utility.yul\":1673:1747   */\n  swap5\n  pop\n    /* \"#utility.yul\":1628:1757   */\n  pop\n    /* \"#utility.yul\":1796:1798   */\n  0x40\n    /* \"#utility.yul\":1822:1886   */\n  tag_126\n    /* \"#utility.yul\":1878:1885   */\n  dup9\n    /* \"#utility.yul\":1869:1875   */\n  dup3\n    /* \"#utility.yul\":1858:1867   */\n  dup10\n    /* \"#utility.yul\":1854:1876   */\n  add\n    /* \"#utility.yul\":1822:1886   */\n  tag_73\n  jump\t// in\ntag_126:\n    /* \"#utility.yul\":1812:1886   */\n  swap4\n  pop\n    /* \"#utility.yul\":1767:1896   */\n  pop\n    /* \"#utility.yul\":1935:1937   */\n  0x60\n    /* \"#utility.yul\":1961:2025   */\n  tag_127\n    /* \"#utility.yul\":2017:2024   */\n  dup9\n    /* \"#utility.yul\":2008:2014   */\n  dup3\n    /* \"#utility.yul\":1997:2006   */\n  dup10\n    /* \"#utility.yul\":1993:2015   */\n  add\n    /* \"#utility.yul\":1961:2025   */\n  tag_76\n  jump\t// in\ntag_127:\n    /* \"#utility.yul\":1951:2025   */\n  swap3\n  pop\n    /* \"#utility.yul\":1906:2035   */\n  pop\n    /* \"#utility.yul\":2074:2077   */\n  0x80\n    /* \"#utility.yul\":2101:2165   */\n  tag_128\n    /* \"#utility.yul\":2157:2164   */\n  dup9\n    /* \"#utility.yul\":2148:2154   */\n  dup3\n    /* \"#utility.yul\":2137:2146   */\n  dup10\n    /* \"#utility.yul\":2133:2155   */\n  add\n    /* \"#utility.yul\":2101:2165   */\n  tag_76\n  jump\t// in\ntag_128:\n    /* \"#utility.yul\":2091:2165   */\n  swap2\n  pop\n    /* \"#utility.yul\":2045:2175   */\n  pop\n    /* \"#utility.yul\":1205:2182   */\n  swap3\n  swap6\n  pop\n  swap3\n  swap6\n  swap1\n  swap4\n  pop\n  jump\t// out\n    /* \"#utility.yul\":2188:2287   */\ntag_77:\n    /* \"#utility.yul\":2240:2246   */\n  0x00\n    /* \"#utility.yul\":2274:2279   */\n  dup2\n    /* \"#utility.yul\":2268:2280   */\n  mload\n    /* \"#utility.yul\":2258:2280   */\n  swap1\n  pop\n    /* \"#utility.yul\":2188:2287   */\n  swap2\n  swap1\n  pop\n  jump\t// out\n    /* \"#utility.yul\":2293:2473   */\ntag_78:\n    /* \"#utility.yul\":2341:2418   */\n  0x4e487b7100000000000000000000000000000000000000000000000000000000\n    /* \"#utility.yul\":2338:2339   */\n  0x00\n    /* \"#utility.yul\":2331:2419   */\n  mstore\n    /* \"#utility.yul\":2438:2442   */\n  0x41\n    /* \"#utility.yul\":2435:2436   */\n  0x04\n    /* \"#utility.yul\":2428:2443   */\n  mstore\n    /* \"#utility.yul\":2462:2466   */\n  0x24\n    /* \"#utility.yul\":2459:2460   */\n  0x00\n    /* \"#utility.yul\":2452:2467   */\n  revert\n    /* \"#utility.yul\":2479:2659   */\ntag_79:\n    /* \"#utility.yul\":2527:2604   */\n  0x4e487b7100000000000000000000000000000000000000000000000000000000\n    /* \"#utility.yul\":2524:2525   */\n  0x00\n    /* \"#utility.yul\":2517:2605   */\n  mstore\n    /* \"#utility.yul\":2624:2628   */\n  0x22\n    /* \"#utility.yul\":2621:2622   */\n  0x04\n    /* \"#utility.yul\":2614:2629   */\n  mstore\n    /* \"#utility.yul\":2648:2652   */\n  0x24\n    /* \"#utility.yul\":2645:2646   */\n  0x00\n    /* \"#utility.yul\":2638:2653   */\n  revert\n    /* \"#utility.yul\":2665:2985   */\ntag_80:\n    /* \"#utility.yul\":2709:2715   */\n  0x00\n    /* \"#utility.yul\":2746:2747   */\n  0x02\n    /* \"#utility.yul\":2740:2744   */\n  dup3\n    /* \"#utility.yul\":2736:2748   */\n  div\n    /* \"#utility.yul\":2726:2748   */\n  swap1\n  pop\n    /* \"#utility.yul\":2793:2794   */\n  0x01\n    /* \"#utility.yul\":2787:2791   */\n  dup3\n    /* \"#utility.yul\":2783:2795   */\n  and\n    /* \"#utility.yul\":2814:2832   */\n  dup1\n    /* \"#utility.yul\":2804:2885   */\n  tag_133\n  jumpi\n    /* \"#utility.yul\":2870:2874   */\n  0x7f\n    /* \"#utility.yul\":2862:2868   */\n  dup3\n    /* \"#utility.yul\":2858:2875   */\n  and\n    /* \"#utility.yul\":2848:2875   */\n  swap2\n  pop\n    /* \"#utility.yul\":2804:2885   */\ntag_133:\n    /* \"#utility.yul\":2932:2934   */\n  0x20\n    /* \"#utility.yul\":2924:2930   */\n  dup3\n    /* \"#utility.yul\":2921:2935   */\n  lt\n    /* \"#utility.yul\":2901:2919   */\n  dup2\n    /* \"#utility.yul\":2898:2936   */\n  sub\n    /* \"#utility.yul\":2895:2979   */\n  tag_134\n  jumpi\n    /* \"#utility.yul\":2951:2969   */\n  tag_135\n  tag_79\n  jump\t// in\ntag_135:\n    /* \"#utility.yul\":2895:2979   */\ntag_134:\n    /* \"#utility.yul\":2716:2985   */\n  pop\n    /* \"#utility.yul\":2665:2985   */\n  swap2\n  swap1\n  pop\n  jump\t// out\n    /* \"#utility.yul\":2991:3132   */\ntag_81:\n    /* \"#utility.yul\":3040:3044   */\n  0x00\n    /* \"#utility.yul\":3063:3066   */\n  dup2\n    /* \"#utility.yul\":3055:3066   */\n  swap1\n  pop\n    /* \"#utility.yul\":3086:3089   */\n  dup2\n    /* \"#utility.yul\":3083:3084   */\n  0x00\n    /* \"#utility.yul\":3076:3090   */\n  mstore\n    /* \"#utility.yul\":3120:3124   */\n  0x20\n    /* \"#utility.yul\":3117:3118   */\n  0x00\n    /* \"#utility.yul\":3107:3125   */\n  keccak256\n    /* \"#utility.yul\":3099:3125   */\n  swap1\n  pop\n    /* \"#utility.yul\":2991:3132   */\n  swap2\n  swap1\n  pop\n  jump\t// out\n    /* \"#utility.yul\":3138:3231   */\ntag_82:\n    /* \"#utility.yul\":3175:3181   */\n  0x00\n    /* \"#utility.yul\":3222:3224   */\n  0x20\n    /* \"#utility.yul\":3217:3219   */\n  0x1f\n    /* \"#utility.yul\":3210:3215   */\n  dup4\n    /* \"#utility.yul\":3206:3220   */\n  add\n    /* \"#utility.yul\":3202:3225   */\n  div\n    /* \"#utility.yul\":3192:3225   */\n  swap1\n  pop\n    /* \"#utility.yul\":3138:3231   */\n  swap2\n  swap1\n  pop\n  jump\t// out\n    /* \"#utility.yul\":3237:3344   */\ntag_83:\n    /* \"#utility.yul\":3281:3289   */\n  0x00\n    /* \"#utility.yul\":3331:3336   */\n  dup3\n    /* \"#utility.yul\":3325:3329   */\n  dup3\n    /* \"#utility.yul\":3321:3337   */\n  shl\n    /* \"#utility.yul\":3300:3337   */\n  swap1\n  pop\n    /* \"#utility.yul\":3237:3344   */\n  swap3\n  swap2\n  pop\n  pop\n  jump\t// out\n    /* \"#utility.yul\":3350:3743   */\ntag_84:\n    /* \"#utility.yul\":3419:3425   */\n  0x00\n    /* \"#utility.yul\":3469:3470   */\n  0x08\n    /* \"#utility.yul\":3457:3467   */\n  dup4\n    /* \"#utility.yul\":3453:3471   */\n  mul\n    /* \"#utility.yul\":3492:3589   */\n  tag_140\n    /* \"#utility.yul\":3522:3588   */\n  0xffffffffffffffffffffffffffffffffffffffffffffffffffffffffffffffff\n    /* \"#utility.yul\":3511:3520   */\n  dup3\n    /* \"#utility.yul\":3492:3589   */\n  tag_83\n  jump\t// in\ntag_140:\n    /* \"#utility.yul\":3610:3649   */\n  tag_141\n    /* \"#utility.yul\":3640:3648   */\n  dup7\n    /* \"#utility.yul\":3629:3638   */\n  dup4\n    /* \"#utility.yul\":3610:3649   */\n  tag_83\n  jump\t// in\ntag_141:\n    /* \"#utility.yul\":3598:3649   */\n  swap6\n  pop\n    /* \"#utility.yul\":3682:3686   */\n  dup1\n    /* \"#utility.yul\":3678:3687   */\n  not\n    /* \"#utility.yul\":3671:3676   */\n  dup5\n    /* \"#utility.yul\":3667:3688   */\n  and\n    /* \"#utility.yul\":3658:3688   */\n  swap4\n  pop\n    /* \"#utility.yul\":3731:3735   */\n  dup1\n    /* \"#utility.yul\":3721:3729   */\n  dup7\n    /* \"#utility.yul\":3717:3736   */\n  and\n    /* \"#utility.yul\":3710:3715   */\n  dup5\n    /* \"#utility.yul\":3707:3737   */\n  or\n    /* \"#utility.yul\":3697:3737   */\n  swap3\n  pop\n    /* \"#utility.yul\":3426:3743   */\n  pop\n  pop\n    /* \"#utility.yul\":3350:3743   */\n  swap4\n  swap3\n  pop\n  pop\n  pop\n  jump\t// out\n    /* \"#utility.yul\":3749:3809   */\ntag_85:\n    /* \"#utility.yul\":3777:3780   */\n  0x00\n    /* \"#utility.yul\":3798:3803   */\n  dup2\n    /* \"#utility.yul\":3791:3803   */\n  swap1\n  pop\n    /* \"#utility.yul\":3749:3809   */\n  swap2\n  swap1\n  pop\n  jump\t// out\n    /* \"#utility.yul\":3815:3957   */\ntag_86:\n    /* \"#utility.yul\":3865:3874   */\n  0x00\n    /* \"#utility.yul\":3898:3951   */\n  tag_144\n    /* \"#utility.yul\":3916:3950   */\n  tag_145\n    /* \"#utility.yul\":3925:3949   */\n  tag_146\n    /* \"#utility.yul\":3943:3948   */\n  dup5\n    /* \"#utility.yul\":3925:3949   */\n  tag_74\n  jump\t// in\ntag_146:\n    /* \"#utility.yul\":3916:3950   */\n  tag_85\n  jump\t// in\ntag_145:\n    /* \"#utility.yul\":3898:3951   */\n  tag_74\n  jump\t// in\ntag_144:\n    /* \"#utility.yul\":3885:3951   */\n  swap1\n  pop\n    /* \"#utility.yul\":3815:3957   */\n  swap2\n  swap1\n  pop\n  jump\t// out\n    /* \"#utility.yul\":3963:4038   */\ntag_87:\n    /* \"#utility.yul\":4006:4009   */\n  0x00\n    /* \"#utility.yul\":4027:4032   */\n  dup2\n    /* \"#utility.yul\":4020:4032   */\n  swap1\n  pop\n    /* \"#utility.yul\":3963:4038   */\n  swap2\n  swap1\n  pop\n  jump\t// out\n    /* \"#utility.yul\":4044:4313   */\ntag_88:\n    /* \"#utility.yul\":4154:4193   */\n  tag_149\n    /* \"#utility.yul\":4185:4192   */\n  dup4\n    /* \"#utility.yul\":4154:4193   */\n  tag_86\n  jump\t// in\ntag_149:\n    /* \"#utility.yul\":4215:4306   */\n  tag_150\n    /* \"#utility.yul\":4264:4305   */\n  tag_151\n    /* \"#utility.yul\":4288:4304   */\n  dup3\n    /* \"#utility.yul\":4264:4305   */\n  tag_87\n  jump\t// in\ntag_151:\n    /* \"#utility.yul\":4256:4262   */\n  dup5\n    /* \"#utility.yul\":4249:4253   */\n  dup5\n    /* \"#utility.yul\":4243:4254   */\n  sload\n    /* \"#utility.yul\":4215:4306   */\n  tag_84\n  jump\t// in\ntag_150:\n    /* \"#utility.yul\":4209:4213   */\n  dup3\n    /* \"#utility.yul\":4202:4307   */\n  sstore\n    /* \"#utility.yul\":4120:4313   */\n  pop\n    /* \"#utility.yul\":4044:4313   */\n  pop\n  pop\n  pop\n  jump\t// out\n    /* \"#utility.yul\":4319:4392   */\ntag_89:\n    /* \"#utility.yul\":4364:4367   */\n  0x00\n    /* \"#utility.yul\":4319:4392   */\n  swap1\n  jump\t// out\n    /* \"#utility.yul\":4398:4587   */\ntag_90:\n    /* \"#utility.yul\":4475:4507   */\n  tag_154\n  tag_89\n  jump\t// in\ntag_154:\n    /* \"#utility.yul\":4516:4581   */\n  tag_155\n    /* \"#utility.yul\":4574:4580   */\n  dup2\n    /* \"#utility.yul\":4566:4572   */\n  dup5\n    /* \"#utility.yul\":4560:4564   */\n  dup5\n    /* \"#utility.yul\":4516:4581   */\n  tag_88\n  jump\t// in\ntag_155:\n    /* \"#utility.yul\":4451:4587   */\n  pop\n    /* \"#utility.yul\":4398:4587   */\n  pop\n  pop\n  jump\t// out\n    /* \"#utility.yul\":4593:4779   */\ntag_91:\n    /* \"#utility.yul\":4653:4773   */\ntag_157:\n    /* \"#utility.yul\":4670:4673   */\n  dup2\n    /* \"#utility.yul\":4663:4668   */\n  dup2\n    /* \"#utility.yul\":4660:4674   */\n  lt\n    /* \"#utility.yul\":4653:4773   */\n  iszero\n  tag_159\n  jumpi\n    /* \"#utility.yul\":4724:4763   */\n  tag_160\n    /* \"#utility.yul\":4761:4762   */\n  0x00\n    /* \"#utility.yul\":4754:4759   */\n  dup3\n    /* \"#utility.yul\":4724:4763   */\n  tag_90\n  jump\t// in\ntag_160:\n    /* \"#utility.yul\":4697:4698   */\n  0x01\n    /* \"#utility.yul\":4690:4695   */\n  dup2\n    /* \"#utility.yul\":4686:4699   */\n  add\n    /* \"#utility.yul\":4677:4699   */\n  swap1\n  pop\n    /* \"#utility.yul\":4653:4773   */\n  jump(tag_157)\ntag_159:\n    /* \"#utility.yul\":4593:4779   */\n  pop\n  pop\n  jump\t// out\n    /* \"#utility.yul\":4785:5328   */\ntag_92:\n    /* \"#utility.yul\":4886:4888   */\n  0x1f\n    /* \"#utility.yul\":4881:4884   */\n  dup3\n    /* \"#utility.yul\":4878:4889   */\n  gt\n    /* \"#utility.yul\":4875:5321   */\n  iszero\n  tag_162\n  jumpi\n    /* \"#utility.yul\":4920:4958   */\n  tag_163\n    /* \"#utility.yul\":4952:4957   */\n  dup2\n    /* \"#utility.yul\":4920:4958   */\n  tag_81\n  jump\t// in\ntag_163:\n    /* \"#utility.yul\":5004:5033   */\n  tag_164\n    /* \"#utility.yul\":5022:5032   */\n  dup5\n    /* \"#utility.yul\":5004:5033   */\n  tag_82\n  jump\t// in\ntag_164:\n    /* \"#utility.yul\":4994:5002   */\n  dup2\n    /* \"#utility.yul\":4990:5034   */\n  add\n    /* \"#utility.yul\":5187:5189   */\n  0x20\n    /* \"#utility.yul\":5175:5185   */\n  dup6\n    /* \"#utility.yul\":5172:5190   */\n  lt\n    /* \"#utility.yul\":5169:5218   */\n  iszero\n  tag_165\n  jumpi\n    /* \"#utility.yul\":5208:5216   */\n  dup2\n    /* \"#utility.yul\":5193:5216   */\n  swap1\n  pop\n    /* \"#utility.yul\":5169:5218   */\ntag_165:\n    /* \"#utility.yul\":5231:5311   */\n  tag_166\n    /* \"#utility.yul\":5287:5309   */\n  tag_167\n    /* \"#utility.yul\":5305:5308   */\n  dup6\n    /* \"#utility.yul\":5287:5309   */\n  tag_82\n  jump\t// in\ntag_167:\n    /* \"#utility.yul\":5277:5285   */\n  dup4\n    /* \"#utility.yul\":5273:5310   */\n  add\n    /* \"#utility.yul\":5260:5271   */\n  dup3\n    /* \"#utility.yul\":5231:5311   */\n  tag_91\n  jump\t// in\ntag_166:\n    /* \"#utility.yul\":4890:5321   */\n  pop\n  pop\n    /* \"#utility.yul\":4875:5321   */\ntag_162:\n    /* \"#utility.yul\":4785:5328   */\n  pop\n  pop\n  pop\n  jump\t// out\n    /* \"#utility.yul\":5334:5451   */\ntag_93:\n    /* \"#utility.yul\":5388:5396   */\n  0x00\n    /* \"#utility.yul\":5438:5443   */\n  dup3\n    /* \"#utility.yul\":5432:5436   */\n  dup3\n    /* \"#utility.yul\":5428:5444   */\n  shr\n    /* \"#utility.yul\":5407:5444   */\n  swap1\n  pop\n    /* \"#utility.yul\":5334:5451   */\n  swap3\n  swap2\n  pop\n  pop\n  jump\t// out\n    /* \"#utility.yul\":5457:5626   */\ntag_94:\n    /* \"#utility.yul\":5501:5507   */\n  0x00\n    /* \"#utility.yul\":5534:5585   */\n  tag_170\n    /* \"#utility.yul\":5582:5583   */\n  0x00\n    /* \"#utility.yul\":5578:5584   */\n  not\n    /* \"#utility.yul\":5570:5575   */\n  dup5\n    /* \"#utility.yul\":5567:5568   */\n  0x08\n    /* \"#utility.yul\":5563:5576   */\n  mul\n    /* \"#utility.yul\":5534:5585   */\n  tag_93\n  jump\t// in\ntag_170:\n    /* \"#utility.yul\":5530:5586   */\n  not\n    /* \"#utility.yul\":5615:5619   */\n  dup1\n    /* \"#utility.yul\":5609:5613   */\n  dup4\n    /* \"#utility.yul\":5605:5620   */\n  and\n    /* \"#utility.yul\":5595:5620   */\n  swap2\n  pop\n    /* \"#utility.yul\":5508:5626   */\n  pop\n    /* \"#utility.yul\":5457:5626   */\n  swap3\n  swap2\n  pop\n  pop\n  jump\t// out\n    /* \"#utility.yul\":5631:5926   */\ntag_95:\n    /* \"#utility.yul\":5707:5711   */\n  0x00\n    /* \"#utility.yul\":5853:5882   */\n  tag_172\n    /* \"#utility.yul\":5878:5881   */\n  dup4\n    /* \"#utility.yul\":5872:5876   */\n  dup4\n    /* \"#utility.yul\":5853:5882   */\n  tag_94\n  jump\t// in\ntag_172:\n    /* \"#utility.yul\":5845:5882   */\n  swap2\n  pop\n    /* \"#utility.yul\":5915:5918   */\n  dup3\n    /* \"#utility.yul\":5912:5913   */\n  0x02\n    /* \"#utility.yul\":5908:5919   */\n  mul\n    /* \"#utility.yul\":5902:5906   */\n  dup3\n    /* \"#utility.yul\":5899:5920   */\n  or\n    /* \"#utility.yul\":5891:5920   */\n  swap1\n  pop\n    /* \"#utility.yul\":5631:5926   */\n  swap3\n  swap2\n  pop\n  pop\n  jump\t// out\n    /* \"#utility.yul\":5931:7326   */\ntag_9:\n    /* \"#utility.yul\":6048:6085   */\n  tag_174\n    /* \"#utility.yul\":6081:6084   */\n  dup3\n    /* \"#utility.yul\":6048:6085   */\n  tag_77\n  jump\t// in\ntag_174:\n    /* \"#utility.yul\":6150:6168   */\n  0xffffffffffffffff\n    /* \"#utility.yul\":6142:6148   */\n  dup2\n    /* \"#utility.yul\":6139:6169   */\n  gt\n    /* \"#utility.yul\":6136:6192   */\n  iszero\n  tag_175\n  jumpi\n    /* \"#utility.yul\":6172:6190   */\n  tag_176\n  tag_78\n  jump\t// in\ntag_176:\n    /* \"#utility.yul\":6136:6192   */\ntag_175:\n    /* \"#utility.yul\":6216:6254   */\n  tag_177\n    /* \"#utility.yul\":6248:6252   */\n  dup3\n    /* \"#utility.yul\":6242:6253   */\n  sload\n    /* \"#utility.yul\":6216:6254   */\n  tag_80\n  jump\t// in\ntag_177:\n    /* \"#utility.yul\":6301:6368   */\n  tag_178\n    /* \"#utility.yul\":6361:6367   */\n  dup3\n    /* \"#utility.yul\":6353:6359   */\n  dup3\n    /* \"#utility.yul\":6347:6351   */\n  dup6\n    /* \"#utility.yul\":6301:6368   */\n  tag_92\n  jump\t// in\ntag_178:\n    /* \"#utility.yul\":6395:6396   */\n  0x00\n    /* \"#utility.yul\":6419:6423   */\n  0x20\n    /* \"#utility.yul\":6406:6423   */\n  swap1\n  pop\n    /* \"#utility.yul\":6451:6453   */\n  0x1f\n    /* \"#utility.yul\":6443:6449   */\n  dup4\n    /* \"#utility.yul\":6440:6454   */\n  gt\n    /* \"#utility.yul\":6468:6469   */\n  0x01\n    /* \"#utility.yul\":6463:7081   */\n  dup2\n  eq\n  tag_180\n  jumpi\n    /* \"#utility.yul\":7125:7126   */\n  0x00\n    /* \"#utility.yul\":7142:7148   */\n  dup5\n    /* \"#utility.yul\":7139:7216   */\n  iszero\n  tag_181\n  jumpi\n    /* \"#utility.yul\":7191:7200   */\n  dup3\n    /* \"#utility.yul\":7186:7189   */\n  dup8\n    /* \"#utility.yul\":7182:7201   */\n  add\n    /* \"#utility.yul\":7176:7202   */\n  mload\n    /* \"#utility.yul\":7167:7202   */\n  swap1\n  pop\n    /* \"#utility.yul\":7139:7216   */\ntag_181:\n    /* \"#utility.yul\":7242:7309   */\n  tag_182\n    /* \"#utility.yul\":7302:7308   */\n  dup6\n    /* \"#utility.yul\":7295:7300   */\n  dup3\n    /* \"#utility.yul\":7242:7309   */\n  tag_95\n  jump\t// in\ntag_182:\n    /* \"#utility.yul\":7236:7240   */\n  dup7\n    /* \"#utility.yul\":7229:7310   */\n  sstore\n    /* \"#utility.yul\":7098:7320   */\n  pop\n    /* \"#utility.yul\":6433:7320   */\n  jump(tag_179)\n    /* \"#utility.yul\":6463:7081   */\ntag_180:\n    /* \"#utility.yul\":6515:6519   */\n  0x1f\n    /* \"#utility.yul\":6511:6520   */\n  not\n    /* \"#utility.yul\":6503:6509   */\n  dup5\n    /* \"#utility.yul\":6499:6521   */\n  and\n    /* \"#utility.yul\":6549:6586   */\n  tag_183\n    /* \"#utility.yul\":6581:6585   */\n  dup7\n    /* \"#utility.yul\":6549:6586   */\n  tag_81\n  jump\t// in\ntag_183:\n    /* \"#utility.yul\":6608:6609   */\n  0x00\n    /* \"#utility.yul\":6622:6830   */\ntag_184:\n    /* \"#utility.yul\":6636:6643   */\n  dup3\n    /* \"#utility.yul\":6633:6634   */\n  dup2\n    /* \"#utility.yul\":6630:6644   */\n  lt\n    /* \"#utility.yul\":6622:6830   */\n  iszero\n  tag_186\n  jumpi\n    /* \"#utility.yul\":6715:6724   */\n  dup5\n    /* \"#utility.yul\":6710:6713   */\n  dup10\n    /* \"#utility.yul\":6706:6725   */\n  add\n    /* \"#utility.yul\":6700:6726   */\n  mload\n    /* \"#utility.yul\":6692:6698   */\n  dup3\n    /* \"#utility.yul\":6685:6727   */\n  sstore\n    /* \"#utility.yul\":6766:6767   */\n  0x01\n    /* \"#utility.yul\":6758:6764   */\n  dup3\n    /* \"#utility.yul\":6754:6768   */\n  add\n    /* \"#utility.yul\":6744:6768   */\n  swap2\n  pop\n    /* \"#utility.yul\":6813:6815   */\n  0x20\n    /* \"#utility.yul\":6802:6811   */\n  dup6\n    /* \"#utility.yul\":6798:6816   */\n  add\n    /* \"#utility.yul\":6785:6816   */\n  swap5\n  pop\n    /* \"#utility.yul\":6659:6663   */\n  0x20\n    /* \"#utility.yul\":6656:6657   */\n  dup2\n    /* \"#utility.yul\":6652:6664   */\n  add\n    /* \"#utility.yul\":6647:6664   */\n  swap1\n  pop\n    /* \"#utility.yul\":6622:6830   */\n  jump(tag_184)\ntag_186:\n    /* \"#utility.yul\":6858:6864   */\n  dup7\n    /* \"#utility.yul\":6849:6856   */\n  dup4\n    /* \"#utility.yul\":6846:6865   */\n  lt\n    /* \"#utility.yul\":6843:7022   */\n  iszero\n  tag_187\n  jumpi\n    /* \"#utility.yul\":6916:6925   */\n  dup5\n    /* \"#utility.yul\":6911:6914   */\n  dup10\n    /* \"#utility.yul\":6907:6926   */\n  add\n    /* \"#utility.yul\":6901:6927   */\n  mload\n    /* \"#utility.yul\":6959:7007   */\n  tag_188\n    /* \"#utility.yul\":7001:7005   */\n  0x1f\n    /* \"#utility.yul\":6993:6999   */\n  dup10\n    /* \"#utility.yul\":6989:7006   */\n  and\n    /* \"#utility.yul\":6978:6987   */\n  dup3\n    /* \"#utility.yul\":6959:7007   */\n  tag_94\n  jump\t// in\ntag_188:\n    /* \"#utility.yul\":6951:6957   */\n  dup4\n    /* \"#utility.yul\":6944:7008   */\n  sstore\n    /* \"#utility.yul\":6866:7022   */\n  pop\n    /* \"#utility.yul\":6843:7022   */\ntag_187:\n    /* \"#utility.yul\":7068:7069   */\n  0x01\n    /* \"#utility.yul\":7064:7065   */\n  0x02\n    /* \"#utility.yul\":7056:7062   */\n  dup9\n    /* \"#utility.yul\":7052:7066   */\n  mul\n    /* \"#utility.yul\":7048:7070   */\n  add\n    /* \"#utility.yul\":7042:7046   */\n  dup9\n    /* \"#utility.yul\":7035:7071   */\n  sstore\n    /* \"#utility.yul\":6470:7081   */\n  pop\n  pop\n  pop\n    /* \"#utility.yul\":6433:7320   */\ntag_179:\n  pop\n    /* \"#utility.yul\":6023:7326   */\n  pop\n  pop\n  pop\n    /* \"#utility.yul\":5931:7326   */\n  pop\n  pop\n  jump\t// out\n    /* \"#utility.yul\":7332:7512   */\ntag_96:\n    /* \"#utility.yul\":7380:7457   */\n  0x4e487b7100000000000000000000000000000000000000000000000000000000\n    /* \"#utility.yul\":7377:7378   */\n  0x00\n    /* \"#utility.yul\":7370:7458   */\n  mstore\n    /* \"#utility.yul\":7477:7481   */\n  0x11\n    /* \"#utility.yul\":7474:7475   */\n  0x04\n    /* \"#utility.yul\":7467:7482   */\n  mstore\n    /* \"#utility.yul\":7501:7505   */\n  0x24\n    /* \"#utility.yul\":7498:7499   */\n  0x00\n    /* \"#utility.yul\":7491:7506   */\n  revert\n    /* \"#utility.yul\":7518:7620   */\ntag_97:\n    /* \"#utility.yul\":7560:7568   */\n  0x00\n    /* \"#utility.yul\":7607:7612   */\n  dup2\n    /* \"#utility.yul\":7604:7605   */\n  0x01\n    /* \"#utility.yul\":7600:7613   */\n  shr\n    /* \"#utility.yul\":7579:7613   */\n  swap1\n  pop\n    /* \"#utility.yul\":7518:7620   */\n  swap2\n  swap1\n  pop\n  jump\t// out\n    /* \"#utility.yul\":7626:8474   */\ntag_98:\n    /* \"#utility.yul\":7687:7692   */\n  0x00\n    /* \"#utility.yul\":7694:7698   */\n  dup1\n    /* \"#utility.yul\":7718:7724   */\n  dup3\n    /* \"#utility.yul\":7709:7724   */\n  swap2\n  pop\n    /* \"#utility.yul\":7742:7747   */\n  dup4\n    /* \"#utility.yul\":7733:7747   */\n  swap1\n  pop\n    /* \"#utility.yul\":7756:8468   */\ntag_192:\n    /* \"#utility.yul\":7777:7778   */\n  0x01\n    /* \"#utility.yul\":7767:7775   */\n  dup6\n    /* \"#utility.yul\":7764:7779   */\n  gt\n    /* \"#utility.yul\":7756:8468   */\n  iszero\n  tag_194\n  jumpi\n    /* \"#utility.yul\":7872:7876   */\n  dup1\n    /* \"#utility.yul\":7867:7870   */\n  dup7\n    /* \"#utility.yul\":7863:7877   */\n  div\n    /* \"#utility.yul\":7857:7861   */\n  dup2\n    /* \"#utility.yul\":7854:7878   */\n  gt\n    /* \"#utility.yul\":7851:7901   */\n  iszero\n  tag_195\n  jumpi\n    /* \"#utility.yul\":7881:7899   */\n  tag_196\n  tag_96\n  jump\t// in\ntag_196:\n    /* \"#utility.yul\":7851:7901   */\ntag_195:\n    /* \"#utility.yul\":7931:7932   */\n  0x01\n    /* \"#utility.yul\":7921:7929   */\n  dup6\n    /* \"#utility.yul\":7917:7933   */\n  and\n    /* \"#utility.yul\":7914:8365   */\n  iszero\n  tag_197\n  jumpi\n    /* \"#utility.yul\":8346:8350   */\n  dup1\n    /* \"#utility.yul\":8339:8344   */\n  dup3\n    /* \"#utility.yul\":8335:8351   */\n  mul\n    /* \"#utility.yul\":8326:8351   */\n  swap2\n  pop\n    /* \"#utility.yul\":7914:8365   */\ntag_197:\n    /* \"#utility.yul\":8396:8400   */\n  dup1\n    /* \"#utility.yul\":8390:8394   */\n  dup2\n    /* \"#utility.yul\":8386:8401   */\n  mul\n    /* \"#utility.yul\":8378:8401   */\n  swap1\n  pop\n    /* \"#utility.yul\":8426:8458   */\n  tag_198\n    /* \"#utility.yul\":8449:8457   */\n  dup6\n    /* \"#utility.yul\":8426:8458   */\n  tag_97\n  jump\t// in\ntag_198:\n    /* \"#utility.yul\":8414:8458   */\n  swap5\n  pop\n    /* \"#utility.yul\":7756:8468   */\n  jump(tag_192)\ntag_194:\n    /* \"#utility.yul\":7626:8474   */\n  swap5\n  pop\n  swap5\n  swap3\n  pop\n  pop\n  pop\n  jump\t// out\n    /* \"#utility.yul\":8480:9553   */\ntag_99:\n    /* \"#utility.yul\":8534:8539   */\n  0x00\n    /* \"#utility.yul\":8725:8733   */\n  dup3\n    /* \"#utility.yul\":8715:8755   */\n  tag_200\n  jumpi\n    /* \"#utility.yul\":8746:8747   */\n  0x01\n    /* \"#utility.yul\":8737:8747   */\n  swap1\n  pop\n    /* \"#utility.yul\":8748:8753   */\n  jump(tag_199)\n    /* \"#utility.yul\":8715:8755   */\ntag_200:\n    /* \"#utility.yul\":8774:8778   */\n  dup2\n    /* \"#utility.yul\":8764:8800   */\n  tag_201\n  jumpi\n    /* \"#utility.yul\":8791:8792   */\n  0x00\n    /* \"#utility.yul\":8782:8792   */\n  swap1\n  pop\n    /* \"#utility.yul\":8793:8798   */\n  jump(tag_199)\n    /* \"#utility.yul\":8764:8800   */\ntag_201:\n    /* \"#utility.yul\":8860:8864   */\n  dup2\n    /* \"#utility.yul\":8908:8909   */\n  0x01\n    /* \"#utility.yul\":8903:8930   */\n  dup2\n  eq\n  tag_203\n  jumpi\n    /* \"#utility.yul\":8944:8945   */\n  0x02\n    /* \"#utility.yul\":8939:9130   */\n  dup2\n  eq\n  tag_204\n  jumpi\n    /* \"#utility.yul\":8853:9130   */\n  jump(tag_202)\n    /* \"#utility.yul\":8903:8930   */\ntag_203:\n    /* \"#utility.yul\":8921:8922   */\n  0x01\n    /* \"#utility.yul\":8912:8922   */\n  swap2\n  pop\n    /* \"#utility.yul\":8923:8928   */\n  pop\n  jump(tag_199)\n    /* \"#utility.yul\":8939:9130   */\ntag_204:\n    /* \"#utility.yul\":8984:8987   */\n  0xff\n    /* \"#utility.yul\":8974:8982   */\n  dup5\n    /* \"#utility.yul\":8971:8988   */\n  gt\n    /* \"#utility.yul\":8968:9011   */\n  iszero\n  tag_205\n  jumpi\n    /* \"#utility.yul\":8991:9009   */\n  tag_206\n  tag_96\n  jump\t// in\ntag_206:\n    /* \"#utility.yul\":8968:9011   */\ntag_205:\n    /* \"#utility.yul\":9040:9048   */\n  dup4\n    /* \"#utility.yul\":9037:9038   */\n  0x02\n    /* \"#utility.yul\":9033:9049   */\n  exp\n    /* \"#utility.yul\":9024:9049   */\n  swap2\n  pop\n    /* \"#utility.yul\":9075:9078   */\n  dup5\n    /* \"#utility.yul\":9068:9073   */\n  dup3\n    /* \"#utility.yul\":9065:9079   */\n  gt\n    /* \"#utility.yul\":9062:9102   */\n  iszero\n  tag_207\n  jumpi\n    /* \"#utility.yul\":9082:9100   */\n  tag_208\n  tag_96\n  jump\t// in\ntag_208:\n    /* \"#utility.yul\":9062:9102   */\ntag_207:\n    /* \"#utility.yul\":9115:9120   */\n  pop\n  jump(tag_199)\n    /* \"#utility.yul\":8853:9130   */\ntag_202:\n  pop\n    /* \"#utility.yul\":9239:9241   */\n  0x20\n    /* \"#utility.yul\":9229:9237   */\n  dup4\n    /* \"#utility.yul\":9226:9242   */\n  lt\n    /* \"#utility.yul\":9220:9223   */\n  0x0133\n    /* \"#utility.yul\":9214:9218   */\n  dup4\n    /* \"#utility.yul\":9211:9224   */\n  lt\n    /* \"#utility.yul\":9207:9243   */\n  and\n    /* \"#utility.yul\":9189:9191   */\n  0x4e\n    /* \"#utility.yul\":9179:9187   */\n  dup5\n    /* \"#utility.yul\":9176:9192   */\n  lt\n    /* \"#utility.yul\":9171:9173   */\n  0x0b\n    /* \"#utility.yul\":9165:9169   */\n  dup5\n    /* \"#utility.yul\":9162:9174   */\n  lt\n    /* \"#utility.yul\":9158:9193   */\n  and\n    /* \"#utility.yul\":9142:9253   */\n  or\n    /* \"#utility.yul\":9139:9385   */\n  iszero\n  tag_209\n  jumpi\n    /* \"#utility.yul\":9295:9303   */\n  dup3\n    /* \"#utility.yul\":9289:9293   */\n  dup3\n    /* \"#utility.yul\":9285:9304   */\n  exp\n    /* \"#utility.yul\":9276:9304   */\n  swap1\n  pop\n    /* \"#utility.yul\":9330:9333   */\n  dup4\n    /* \"#utility.yul\":9323:9328   */\n  dup2\n    /* \"#utility.yul\":9320:9334   */\n  gt\n    /* \"#utility.yul\":9317:9357   */\n  iszero\n  tag_210\n  jumpi\n    /* \"#utility.yul\":9337:9355   */\n  tag_211\n  tag_96\n  jump\t// in\ntag_211:\n    /* \"#utility.yul\":9317:9357   */\ntag_210:\n    /* \"#utility.yul\":9370:9375   */\n  jump(tag_199)\n    /* \"#utility.yul\":9139:9385   */\ntag_209:\n    /* \"#utility.yul\":9410:9452   */\n  tag_212\n    /* \"#utility.yul\":9448:9451   */\n  dup5\n    /* \"#utility.yul\":9438:9446   */\n  dup5\n    /* \"#utility.yul\":9432:9436   */\n  dup5\n    /* \"#utility.yul\":9429:9430   */\n  0x01\n    /* \"#utility.yul\":9410:9452   */\n  tag_98\n  jump\t// in\ntag_212:\n    /* \"#utility.yul\":9395:9452   */\n  swap3\n  pop\n  swap1\n  pop\n    /* \"#utility.yul\":9484:9488   */\n  dup2\n    /* \"#utility.yul\":9479:9482   */\n  dup5\n    /* \"#utility.yul\":9475:9489   */\n  div\n    /* \"#utility.yul\":9468:9473   */\n  dup2\n    /* \"#utility.yul\":9465:9490   */\n  gt\n    /* \"#utility.yul\":9462:9513   */\n  iszero\n  tag_213\n  jumpi\n    /* \"#utility.yul\":9493:9511   */\n  tag_214\n  tag_96\n  jump\t// in\ntag_214:\n    /* \"#utility.yul\":9462:9513   */\ntag_213:\n    /* \"#utility.yul\":9542:9546   */\n  dup2\n    /* \"#utility.yul\":9535:9540   */\n  dup2\n    /* \"#utility.yul\":9531:9547   */\n  mul\n    /* \"#utility.yul\":9522:9547   */\n  swap1\n  pop\n    /* \"#utility.yul\":8480:9553   */\ntag_199:\n  swap4\n  swap3\n  pop\n  pop\n  pop\n  jump\t// out\n    /* \"#utility.yul\":9559:9645   */\ntag_100:\n    /* \"#utility.yul\":9594:9601   */\n  0x00\n    /* \"#utility.yul\":9634:9638   */\n  0xff\n    /* \"#utility.yul\":9627:9632   */\n  dup3\n    /* \"#utility.yul\":9623:9639   */\n  and\n    /* \"#utility.yul\":9612:9639   */\n  swap1\n  pop\n    /* \"#utility.yul\":9559:9645   */\n  swap2\n  swap1\n  pop\n  jump\t// out\n    /* \"#utility.yul\":9651:9932   */\ntag_20:\n    /* \"#utility.yul\":9709:9714   */\n  0x00\n    /* \"#utility.yul\":9733:9756   */\n  tag_217\n    /* \"#utility.yul\":9751:9755   */\n  dup3\n    /* \"#utility.yul\":9733:9756   */\n  tag_74\n  jump\t// in\ntag_217:\n    /* \"#utility.yul\":9725:9756   */\n  swap2\n  pop\n    /* \"#utility.yul\":9777:9802   */\n  tag_218\n    /* \"#utility.yul\":9793:9801   */\n  dup4\n    /* \"#utility.yul\":9777:9802   */\n  tag_100\n  jump\t// in\ntag_218:\n    /* \"#utility.yul\":9765:9802   */\n  swap3\n  pop\n    /* \"#utility.yul\":9821:9925   */\n  tag_219\n    /* \"#utility.yul\":9858:9924   */\n  0xffffffffffffffffffffffffffffffffffffffffffffffffffffffffffffffff\n    /* \"#utility.yul\":9848:9856   */\n  dup5\n    /* \"#utility.yul\":9842:9846   */\n  dup5\n    /* \"#utility.yul\":9821:9925   */\n  tag_99\n  jump\t// in\ntag_219:\n    /* \"#utility.yul\":9812:9925   */\n  swap1\n  pop\n    /* \"#utility.yul\":9651:9932   */\n  swap3\n  swap2\n  pop\n  pop\n  jump\t// out\n    /* \"#utility.yul\":9938:10348   */\ntag_22:\n    /* \"#utility.yul\":9978:9985   */\n  0x00\n    /* \"#utility.yul\":10001:10021   */\n  tag_221\n    /* \"#utility.yul\":10019:10020   */\n  dup3\n    /* \"#utility.yul\":10001:10021   */\n  tag_74\n  jump\t// in\ntag_221:\n    /* \"#utility.yul\":9996:10021   */\n  swap2\n  pop\n    /* \"#utility.yul\":10035:10055   */\n  tag_222\n    /* \"#utility.yul\":10053:10054   */\n  dup4\n    /* \"#utility.yul\":10035:10055   */\n  tag_74\n  jump\t// in\ntag_222:\n    /* \"#utility.yul\":10030:10055   */\n  swap3\n  pop\n    /* \"#utility.yul\":10090:10091   */\n  dup3\n    /* \"#utility.yul\":10087:10088   */\n  dup3\n    /* \"#utility.yul\":10083:10092   */\n  mul\n    /* \"#utility.yul\":10112:10142   */\n  tag_223\n    /* \"#utility.yul\":10130:10141   */\n  dup2\n    /* \"#utility.yul\":10112:10142   */\n  tag_74\n  jump\t// in\ntag_223:\n    /* \"#utility.yul\":10101:10142   */\n  swap2\n  pop\n    /* \"#utility.yul\":10291:10292   */\n  dup3\n    /* \"#utility.yul\":10282:10289   */\n  dup3\n    /* \"#utility.yul\":10278:10293   */\n  div\n    /* \"#utility.yul\":10275:10276   */\n  dup5\n    /* \"#utility.yul\":10272:10294   */\n  eq\n    /* \"#utility.yul\":10252:10253   */\n  dup4\n    /* \"#utility.yul\":10245:10254   */\n  iszero\n    /* \"#utility.yul\":10225:10308   */\n  or\n    /* \"#utility.yul\":10202:10341   */\n  tag_224\n  jumpi\n    /* \"#utility.yul\":10321:10339   */\n  tag_225\n  tag_96\n  jump\t// in\ntag_225:\n    /* \"#utility.yul\":10202:10341   */\ntag_224:\n    /* \"#utility.yul\":9986:10348   */\n  pop\n    /* \"#utility.yul\":9938:10348   */\n  swap3\n  swap2\n  pop\n  pop\n  jump\t// out\n    /* \"#utility.yul\":10354:10472   */\ntag_101:\n    /* \"#utility.yul\":10441:10465   */\n  tag_227\n    /* \"#utility.yul\":10459:10464   */\n  dup2\n    /* \"#utility.yul\":10441:10465   */\n  tag_71\n  jump\t// in\ntag_227:\n    /* \"#utility.yul\":10436:10439   */\n  dup3\n    /* \"#utility.yul\":10429:10466   */\n  mstore\n    /* \"#utility.yul\":10354:10472   */\n  pop\n  pop\n  jump\t// out\n    /* \"#utility.yul\":10478:10700   */\ntag_36:\n    /* \"#utility.yul\":10571:10575   */\n  0x00\n    /* \"#utility.yul\":10609:10611   */\n  0x20\n    /* \"#utility.yul\":10598:10607   */\n  dup3\n    /* \"#utility.yul\":10594:10612   */\n  add\n    /* \"#utility.yul\":10586:10612   */\n  swap1\n  pop\n    /* \"#utility.yul\":10622:10693   */\n  tag_229\n    /* \"#utility.yul\":10690:10691   */\n  0x00\n    /* \"#utility.yul\":10679:10688   */\n  dup4\n    /* \"#utility.yul\":10675:10692   */\n  add\n    /* \"#utility.yul\":10666:10672   */\n  dup5\n    /* \"#utility.yul\":10622:10693   */\n  tag_101\n  jump\t// in\ntag_229:\n    /* \"#utility.yul\":10478:10700   */\n  swap3\n  swap2\n  pop\n  pop\n  jump\t// out\n    /* \"#utility.yul\":10706:10897   */\ntag_57:\n    /* \"#utility.yul\":10746:10749   */\n  0x00\n    /* \"#utility.yul\":10765:10785   */\n  tag_231\n    /* \"#utility.yul\":10783:10784   */\n  dup3\n    /* \"#utility.yul\":10765:10785   */\n  tag_74\n  jump\t// in\ntag_231:\n    /* \"#utility.yul\":10760:10785   */\n  swap2\n  pop\n    /* \"#utility.yul\":10799:10819   */\n  tag_232\n    /* \"#utility.yul\":10817:10818   */\n  dup4\n    /* \"#utility.yul\":10799:10819   */\n  tag_74\n  jump\t// in\ntag_232:\n    /* \"#utility.yul\":10794:10819   */\n  swap3\n  pop\n    /* \"#utility.yul\":10842:10843   */\n  dup3\n    /* \"#utility.yul\":10839:10840   */\n  dup3\n    /* \"#utility.yul\":10835:10844   */\n  add\n    /* \"#utility.yul\":10828:10844   */\n  swap1\n  pop\n    /* \"#utility.yul\":10863:10866   */\n  dup1\n    /* \"#utility.yul\":10860:10861   */\n  dup3\n    /* \"#utility.yul\":10857:10867   */\n  gt\n    /* \"#utility.yul\":10854:10890   */\n  iszero\n  tag_233\n  jumpi\n    /* \"#utility.yul\":10870:10888   */\n  tag_234\n  tag_96\n  jump\t// in\ntag_234:\n    /* \"#utility.yul\":10854:10890   */\ntag_233:\n    /* \"#utility.yul\":10706:10897   */\n  swap3\n  swap2\n  pop\n  pop\n  jump\t// out\n    /* \"#utility.yul\":10903:11021   */\ntag_102:\n    /* \"#utility.yul\":10990:11014   */\n  tag_236\n    /* \"#utility.yul\":11008:11013   */\n  dup2\n    /* \"#utility.yul\":10990:11014   */\n  tag_74\n  jump\t// in\ntag_236:\n    /* \"#utility.yul\":10985:10988   */\n  dup3\n    /* \"#utility.yul\":10978:11015   */\n  mstore\n    /* \"#utility.yul\":10903:11021   */\n  pop\n  pop\n  jump\t// out\n    /* \"#utility.yul\":11027:11469   */\ntag_61:\n    /* \"#utility.yul\":11176:11180   */\n  0x00\n    /* \"#utility.yul\":11214:11216   */\n  0x60\n    /* \"#utility.yul\":11203:11212   */\n  dup3\n    /* \"#utility.yul\":11199:11217   */\n  add\n    /* \"#utility.yul\":11191:11217   */\n  swap1\n  pop\n    /* \"#utility.yul\":11227:11298   */\n  tag_238\n    /* \"#utility.yul\":11295:11296   */\n  0x00\n    /* \"#utility.yul\":11284:11293   */\n  dup4\n    /* \"#utility.yul\":11280:11297   */\n  add\n    /* \"#utility.yul\":11271:11277   */\n  dup7\n    /* \"#utility.yul\":11227:11298   */\n  tag_101\n  jump\t// in\ntag_238:\n    /* \"#utility.yul\":11308:11380   */\n  tag_239\n    /* \"#utility.yul\":11376:11378   */\n  0x20\n    /* \"#utility.yul\":11365:11374   */\n  dup4\n    /* \"#utility.yul\":11361:11379   */\n  add\n    /* \"#utility.yul\":11352:11358   */\n  dup6\n    /* \"#utility.yul\":11308:11380   */\n  tag_102\n  jump\t// in\ntag_239:\n    /* \"#utility.yul\":11390:11462   */\n  tag_240\n    /* \"#utility.yul\":11458:11460   */\n  0x40\n    /* \"#utility.yul\":11447:11456   */\n  dup4\n    /* \"#utility.yul\":11443:11461   */\n  add\n    /* \"#utility.yul\":11434:11440   */\n  dup5\n    /* \"#utility.yul\":11390:11462   */\n  tag_102\n  jump\t// in\ntag_240:\n    /* \"#utility.yul\":11027:11469   */\n  swap5\n  swap4\n  pop\n  pop\n  pop\n  pop\n  jump\t// out\n    /* \"#utility.yul\":11475:11697   */\ntag_65:\n    /* \"#utility.yul\":11568:11572   */\n  0x00\n    /* \"#utility.yul\":11606:11608   */\n  0x20\n    /* \"#utility.yul\":11595:11604   */\n  dup3\n    /* \"#utility.yul\":11591:11609   */\n  add\n    /* \"#utility.yul\":11583:11609   */\n  swap1\n  pop\n    /* \"#utility.yul\":11619:11690   */\n  tag_242\n    /* \"#utility.yul\":11687:11688   */\n  0x00\n    /* \"#utility.yul\":11676:11685   */\n  dup4\n    /* \"#utility.yul\":11672:11689   */\n  add\n    /* \"#utility.yul\":11663:11669   */\n  dup5\n    /* \"#utility.yul\":11619:11690   */\n  tag_102\n  jump\t// in\ntag_242:\n    /* \"#utility.yul\":11475:11697   */\n  swap3\n  swap2\n  pop\n  pop\n  jump\t// out\n    /* \"contracts/BonDeFiToken.sol\":373:3782  contract BonDeFiToken is ERC20, ERC20Burnable, ERC20Pausable, AccessControl {... */\ntag_24:\n  mload(0x80)\n  mload(0xa0)\n  codecopy(0x00, dataOffset(sub_0), dataSize(sub_0))\n  0x00\n  assignImmutable(\"0xc6fa869c00cca07fff5e26638bf9bc331de0994499fcf1ee63eb1a2437869a1b\")\n  0x00\n  assignImmutable(\"0x560f53f9e6643f63dace8b2695c9680c3b0d96473ff0914d6a3517970d490ef6\")\n  return(0x00, dataSize(sub_0))\nstop\n\nsub_0: assembly {\n        /* \"contracts/BonDeFiToken.sol\":373:3782  contract BonDeFiToken is ERC20, ERC20Burnable, ERC20Pausable, AccessControl {... */\n      mstore(0x40, 0x80)\n      callvalue\n      dup1\n      iszero\n      tag_1\n      jumpi\n      0x00\n      dup1\n      revert\n    tag_1:\n      pop\n      jumpi(tag_2, lt(calldatasize, 0x04))\n      shr(0xe0, calldataload(0x00))\n      dup1\n      0x8456cb59\n      gt\n      tag_38\n      jumpi\n      dup1\n      0xacd17a99\n      gt\n      tag_39\n      jumpi\n      dup1\n      0xd547741f\n      gt\n      tag_40\n      jumpi\n      dup1\n      0xd547741f\n      eq\n      tag_33\n      jumpi\n      dup1\n      0xd59624b4\n      eq\n      tag_34\n      jumpi\n      dup1\n      0xdd62ed3e\n      eq\n      tag_35\n      jumpi\n      dup1\n      0xe091a39b\n      eq\n      tag_36\n      jumpi\n      dup1\n      0xf57d283e\n      eq\n      tag_37\n      jumpi\n      jump(tag_2)\n    tag_40:\n      dup1\n      0xacd17a99\n      eq\n      tag_29\n      jumpi\n      dup1\n      0xca19c11c\n      eq\n      tag_30\n      jumpi\n      dup1\n      0xce4120da\n      eq\n      tag_31\n      jumpi\n      dup1\n      0xced0550f\n      eq\n      tag_32\n      jumpi\n      jump(tag_2)\n    tag_39:\n      dup1\n      0x94d7cc88\n      gt\n      tag_41\n      jumpi\n      dup1\n      0x94d7cc88\n      eq\n      tag_24\n      jumpi\n      dup1\n      0x95d89b41\n      eq\n      tag_25\n      jumpi\n      dup1\n      0x992642e5\n      eq\n      tag_26\n      jumpi\n      dup1\n      0xa217fddf\n      eq\n      tag_27\n      jumpi\n      dup1\n      0xa9059cbb\n      eq\n      tag_28\n      jumpi\n      jump(tag_2)\n    tag_41:\n      dup1\n      0x8456cb59\n      eq\n      tag_20\n      jumpi\n      dup1\n      0x86d71654\n      eq\n      tag_21\n      jumpi\n      dup1\n      0x904835c4\n      eq\n      tag_22\n      jumpi\n      dup1\n      0x91d14854\n      eq\n      tag_23\n      jumpi\n      jump(tag_2)\n    tag_38:\n      dup1\n      0x2f2ff15d\n      gt\n      tag_42\n      jumpi\n      dup1\n      0x42966c68\n      gt\n      tag_43\n      jumpi\n      dup1\n      0x42966c68\n      eq\n      tag_15\n      jumpi\n      dup1\n      0x5c975abb\n      eq\n      tag_16\n      jumpi\n      dup1\n      0x70a08231\n      eq\n      tag_17\n      jumpi\n      dup1\n      0x764b666c\n      eq\n      tag_18\n      jumpi\n      dup1\n      0x79cc6790\n      eq\n      tag_19\n      jumpi\n      jump(tag_2)\n    tag_43:\n      dup1\n      0x2f2ff15d\n      eq\n      tag_11\n      jumpi\n      dup1\n      0x313ce567\n      eq\n      tag_12\n      jumpi\n      dup1\n      0x36568abe\n      eq\n      tag_13\n      jumpi\n      dup1\n      0x3f4ba83a\n      eq\n      tag_14\n      jumpi\n      jump(tag_2)\n    tag_42:\n      dup1\n      0x18160ddd\n      gt\n      tag_44\n      jumpi\n      dup1\n      0x18160ddd\n      eq\n      tag_7\n      jumpi\n      dup1\n      0x23b872dd\n      eq\n      tag_8\n      jumpi\n      dup1\n      0x248a9ca3\n      eq\n      tag_9\n      jumpi\n      dup1\n      0x2a0acc6a\n      eq\n      tag_10\n      jumpi\n      jump(tag_2)\n    tag_44:\n      dup1\n      0x01ffc9a7\n      eq\n      tag_3\n      jumpi\n      dup1\n      0x06fdde03\n      eq\n      tag_4\n      jumpi\n      dup1\n      0x095ea7b3\n      eq\n      tag_5\n      jumpi\n      dup1\n      0x10002dbd\n      eq\n      tag_6\n      jumpi\n    tag_2:\n      0x00\n      dup1\n      revert\n        /* \"@openzeppelin/contracts/access/AccessControl.sol\":2565:2767  function supportsInterface(bytes4 interfaceId) public view virtual override returns (bool) {... */\n    tag_3:\n      tag_45\n      0x04\n      dup1\n      calldatasize\n      sub\n      dup2\n      add\n      swap1\n      tag_46\n      swap2\n      swap1\n      tag_47\n      jump\t// in\n    tag_46:\n      tag_48\n      jump\t// in\n    tag_45:\n      mload(0x40)\n      tag_49\n      swap2\n      swap1\n      tag_50\n      jump\t// in\n    tag_49:\n      mload(0x40)\n      dup1\n      swap2\n      sub\n      swap1\n      return\n        /* \"@openzeppelin/contracts/token/ERC20/ERC20.sol\":2074:2163  function name() public view virtual returns (string memory) {... */\n    tag_4:\n      tag_51\n      tag_52\n      jump\t// in\n    tag_51:\n      mload(0x40)\n      tag_53\n      swap2\n      swap1\n      tag_54\n      jump\t// in\n    tag_53:\n      mload(0x40)\n      dup1\n      swap2\n      sub\n      swap1\n      return\n        /* \"@openzeppelin/contracts/token/ERC20/ERC20.sol\":4293:4479  function approve(address spender, uint256 value) public virtual returns (bool) {... */\n    tag_5:\n      tag_55\n      0x04\n      dup1\n      calldatasize\n      sub\n      dup2\n      add\n      swap1\n      tag_56\n      swap2\n      swap1\n      tag_57\n      jump\t// in\n    tag_56:\n      tag_58\n      jump\t// in\n    tag_55:\n      mload(0x40)\n      tag_59\n      swap2\n      swap1\n      tag_50\n      jump\t// in\n    tag_59:\n      mload(0x40)\n      dup1\n      swap2\n      sub\n      swap1\n      return\n        /* \"contracts/BonDeFiToken.sol\":1207:1471  function buyBond(uint256 amountTokens) public{... */\n    tag_6:\n      tag_60\n      0x04\n      dup1\n      calldatasize\n      sub\n      dup2\n      add\n      swap1\n      tag_61\n      swap2\n      swap1\n      tag_62\n      jump\t// in\n    tag_61:\n      tag_63\n      jump\t// in\n    tag_60:\n      stop\n        /* \"@openzeppelin/contracts/token/ERC20/ERC20.sol\":3144:3241  function totalSupply() public view virtual returns (uint256) {... */\n    tag_7:\n      tag_64\n      tag_65\n      jump\t// in\n    tag_64:\n      mload(0x40)\n      tag_66\n      swap2\n      swap1\n      tag_67\n      jump\t// in\n    tag_66:\n      mload(0x40)\n      dup1\n      swap2\n      sub\n      swap1\n      return\n        /* \"@openzeppelin/contracts/token/ERC20/ERC20.sol\":5039:5283  function transferFrom(address from, address to, uint256 value) public virtual returns (bool) {... */\n    tag_8:\n      tag_68\n      0x04\n      dup1\n      calldatasize\n      sub\n      dup2\n      add\n      swap1\n      tag_69\n      swap2\n      swap1\n      tag_70\n      jump\t// in\n    tag_69:\n      tag_71\n      jump\t// in\n    tag_68:\n      mload(0x40)\n      tag_72\n      swap2\n      swap1\n      tag_50\n      jump\t// in\n    tag_72:\n      mload(0x40)\n      dup1\n      swap2\n      sub\n      swap1\n      return\n        /* \"@openzeppelin/contracts/access/AccessControl.sol\":3810:3930  function getRoleAdmin(bytes32 role) public view virtual returns (bytes32) {... */\n    tag_9:\n      tag_73\n      0x04\n      dup1\n      calldatasize\n      sub\n      dup2\n      add\n      swap1\n      tag_74\n      swap2\n      swap1\n      tag_75\n      jump\t// in\n    tag_74:\n      tag_76\n      jump\t// in\n    tag_73:\n      mload(0x40)\n      tag_77\n      swap2\n      swap1\n      tag_78\n      jump\t// in\n    tag_77:\n      mload(0x40)\n      dup1\n      swap2\n      sub\n      swap1\n      return\n        /* \"contracts/BonDeFiToken.sol\":455:505  bytes32 public constant ADMIN = keccak256(\"ADMIN\") */\n    tag_10:\n      tag_79\n      tag_80\n      jump\t// in\n    tag_79:\n      mload(0x40)\n      tag_81\n      swap2\n      swap1\n      tag_78\n      jump\t// in\n    tag_81:\n      mload(0x40)\n      dup1\n      swap2\n      sub\n      swap1\n      return\n        /* \"@openzeppelin/contracts/access/AccessControl.sol\":4226:4362  function grantRole(bytes32 role, address account) public virtual onlyRole(getRoleAdmin(role)) {... */\n    tag_11:\n      tag_82\n      0x04\n      dup1\n      calldatasize\n      sub\n      dup2\n      add\n      swap1\n      tag_83\n      swap2\n      swap1\n      tag_84\n      jump\t// in\n    tag_83:\n      tag_85\n      jump\t// in\n    tag_82:\n      stop\n        /* \"@openzeppelin/contracts/token/ERC20/ERC20.sol\":3002:3084  function decimals() public view virtual returns (uint8) {... */\n    tag_12:\n      tag_86\n      tag_87\n      jump\t// in\n    tag_86:\n      mload(0x40)\n      tag_88\n      swap2\n      swap1\n      tag_89\n      jump\t// in\n    tag_88:\n      mload(0x40)\n      dup1\n      swap2\n      sub\n      swap1\n      return\n        /* \"@openzeppelin/contracts/access/AccessControl.sol\":5328:5573  function renounceRole(bytes32 role, address callerConfirmation) public virtual {... */\n    tag_13:\n      tag_90\n      0x04\n      dup1\n      calldatasize\n      sub\n      dup2\n      add\n      swap1\n      tag_91\n      swap2\n      swap1\n      tag_84\n      jump\t// in\n    tag_91:\n      tag_92\n      jump\t// in\n    tag_90:\n      stop\n        /* \"contracts/BonDeFiToken.sol\":3711:3780  function unpause() public onlyRole(ADMIN) {... */\n    tag_14:\n      tag_93\n      tag_94\n      jump\t// in\n    tag_93:\n      stop\n        /* \"@openzeppelin/contracts/token/ERC20/extensions/ERC20Burnable.sol\":618:705  function burn(uint256 value) public virtual {... */\n    tag_15:\n      tag_95\n      0x04\n      dup1\n      calldatasize\n      sub\n      dup2\n      add\n      swap1\n      tag_96\n      swap2\n      swap1\n      tag_62\n      jump\t// in\n    tag_96:\n      tag_97\n      jump\t// in\n    tag_95:\n      stop\n        /* \"@openzeppelin/contracts/utils/Pausable.sol\":1850:1934  function paused() public view virtual returns (bool) {... */\n    tag_16:\n      tag_98\n      tag_99\n      jump\t// in\n    tag_98:\n      mload(0x40)\n      tag_100\n      swap2\n      swap1\n      tag_50\n      jump\t// in\n    tag_100:\n      mload(0x40)\n      dup1\n      swap2\n      sub\n      swap1\n      return\n        /* \"@openzeppelin/contracts/token/ERC20/ERC20.sol\":3299:3415  function balanceOf(address account) public view virtual returns (uint256) {... */\n    tag_17:\n      tag_101\n      0x04\n      dup1\n      calldatasize\n      sub\n      dup2\n      add\n      swap1\n      tag_102\n      swap2\n      swap1\n      tag_103\n      jump\t// in\n    tag_102:\n      tag_104\n      jump\t// in\n    tag_101:\n      mload(0x40)\n      tag_105\n      swap2\n      swap1\n      tag_67\n      jump\t// in\n    tag_105:\n      mload(0x40)\n      dup1\n      swap2\n      sub\n      swap1\n      return\n        /* \"contracts/BonDeFiToken.sol\":663:691  address public interestToken */\n    tag_18:\n      tag_106\n      tag_107\n      jump\t// in\n    tag_106:\n      mload(0x40)\n      tag_108\n      swap2\n      swap1\n      tag_109\n      jump\t// in\n    tag_108:\n      mload(0x40)\n      dup1\n      swap2\n      sub\n      swap1\n      return\n        /* \"@openzeppelin/contracts/token/ERC20/extensions/ERC20Burnable.sol\":1021:1179  function burnFrom(address account, uint256 value) public virtual {... */\n    tag_19:\n      tag_110\n      0x04\n      dup1\n      calldatasize\n      sub\n      dup2\n      add\n      swap1\n      tag_111\n      swap2\n      swap1\n      tag_57\n      jump\t// in\n    tag_111:\n      tag_112\n      jump\t// in\n    tag_110:\n      stop\n        /* \"contracts/BonDeFiToken.sol\":3640:3705  function pause() public onlyRole(ADMIN) {... */\n    tag_20:\n      tag_113\n      tag_114\n      jump\t// in\n    tag_113:\n      stop\n        /* \"contracts/BonDeFiToken.sol\":2983:3099  function showBondTokens() public view returns (uint256) {... */\n    tag_21:\n      tag_115\n      tag_116\n      jump\t// in\n    tag_115:\n      mload(0x40)\n      tag_117\n      swap2\n      swap1\n      tag_67\n      jump\t// in\n    tag_117:\n      mload(0x40)\n      dup1\n      swap2\n      sub\n      swap1\n      return\n        /* \"contracts/BonDeFiToken.sol\":1681:2087  function distributeInterestAll(address[] memory tokenHolders, uint256[] memory amounts) public onlyRole(ADMIN) {... */\n    tag_22:\n      tag_118\n      0x04\n      dup1\n      calldatasize\n      sub\n      dup2\n      add\n      swap1\n      tag_119\n      swap2\n      swap1\n      tag_120\n      jump\t// in\n    tag_119:\n      tag_121\n      jump\t// in\n    tag_118:\n      stop\n        /* \"@openzeppelin/contracts/access/AccessControl.sol\":2854:2990  function hasRole(bytes32 role, address account) public view virtual returns (bool) {... */\n    tag_23:\n      tag_122\n      0x04\n      dup1\n      calldatasize\n      sub\n      dup2\n      add\n      swap1\n      tag_123\n      swap2\n      swap1\n      tag_84\n      jump\t// in\n    tag_123:\n      tag_124\n      jump\t// in\n    tag_122:\n      mload(0x40)\n      tag_125\n      swap2\n      swap1\n      tag_50\n      jump\t// in\n    tag_125:\n      mload(0x40)\n      dup1\n      swap2\n      sub\n      swap1\n      return\n        /* \"contracts/BonDeFiToken.sol\":1091:1201  function setInterestToken(address interestTokenAddr) public {... */\n    tag_24:\n      tag_126\n      0x04\n      dup1\n      calldatasize\n      sub\n      dup2\n      add\n      swap1\n      tag_127\n      swap2\n      swap1\n      tag_103\n      jump\t// in\n    tag_127:\n      tag_128\n      jump\t// in\n    tag_126:\n      stop\n        /* \"@openzeppelin/contracts/token/ERC20/ERC20.sol\":2276:2369  function symbol() public view virtual returns (string memory) {... */\n    tag_25:\n      tag_129\n      tag_130\n      jump\t// in\n    tag_129:\n      mload(0x40)\n      tag_131\n      swap2\n      swap1\n      tag_54\n      jump\t// in\n    tag_131:\n      mload(0x40)\n      dup1\n      swap2\n      sub\n      swap1\n      return\n        /* \"contracts/BonDeFiToken.sol\":579:614  address public immutable stableCoin */\n    tag_26:\n      tag_132\n      tag_133\n      jump\t// in\n    tag_132:\n      mload(0x40)\n      tag_134\n      swap2\n      swap1\n      tag_109\n      jump\t// in\n    tag_134:\n      mload(0x40)\n      dup1\n      swap2\n      sub\n      swap1\n      return\n        /* \"@openzeppelin/contracts/access/AccessControl.sol\":2187:2236  bytes32 public constant DEFAULT_ADMIN_ROLE = 0x00 */\n    tag_27:\n      tag_135\n      tag_136\n      jump\t// in\n    tag_135:\n      mload(0x40)\n      tag_137\n      swap2\n      swap1\n      tag_78\n      jump\t// in\n    tag_137:\n      mload(0x40)\n      dup1\n      swap2\n      sub\n      swap1\n      return\n        /* \"@openzeppelin/contracts/token/ERC20/ERC20.sol\":3610:3788  function transfer(address to, uint256 value) public virtual returns (bool) {... */\n    tag_28:\n      tag_138\n      0x04\n      dup1\n      calldatasize\n      sub\n      dup2\n      add\n      swap1\n      tag_139\n      swap2\n      swap1\n      tag_57\n      jump\t// in\n    tag_139:\n      tag_140\n      jump\t// in\n    tag_138:\n      mload(0x40)\n      tag_141\n      swap2\n      swap1\n      tag_50\n      jump\t// in\n    tag_141:\n      mload(0x40)\n      dup1\n      swap2\n      sub\n      swap1\n      return\n        /* \"contracts/BonDeFiToken.sol\":3235:3355  function showStableCoins() public view returns (uint256){... */\n    tag_29:\n      tag_142\n      tag_143\n      jump\t// in\n    tag_142:\n      mload(0x40)\n      tag_144\n      swap2\n      swap1\n      tag_67\n      jump\t// in\n    tag_144:\n      mload(0x40)\n      dup1\n      swap2\n      sub\n      swap1\n      return\n        /* \"contracts/BonDeFiToken.sol\":2425:2949  function claimFaceValue(uint256 amountTokens) public{... */\n    tag_30:\n      tag_145\n      0x04\n      dup1\n      calldatasize\n      sub\n      dup2\n      add\n      swap1\n      tag_146\n      swap2\n      swap1\n      tag_62\n      jump\t// in\n    tag_146:\n      tag_147\n      jump\t// in\n    tag_145:\n      stop\n        /* \"contracts/BonDeFiToken.sol\":3104:3230  function showInterestTokens() public view returns (uint256){... */\n    tag_31:\n      tag_148\n      tag_149\n      jump\t// in\n    tag_148:\n      mload(0x40)\n      tag_150\n      swap2\n      swap1\n      tag_67\n      jump\t// in\n    tag_150:\n      mload(0x40)\n      dup1\n      swap2\n      sub\n      swap1\n      return\n        /* \"contracts/BonDeFiToken.sol\":2093:2419  function claimInvestorFunds() public onlyRole(BOND_ISSUER){... */\n    tag_32:\n      tag_151\n      tag_152\n      jump\t// in\n    tag_151:\n      stop\n        /* \"@openzeppelin/contracts/access/AccessControl.sol\":4642:4780  function revokeRole(bytes32 role, address account) public virtual onlyRole(getRoleAdmin(role)) {... */\n    tag_33:\n      tag_153\n      0x04\n      dup1\n      calldatasize\n      sub\n      dup2\n      add\n      swap1\n      tag_154\n      swap2\n      swap1\n      tag_84\n      jump\t// in\n    tag_154:\n      tag_155\n      jump\t// in\n    tag_153:\n      stop\n        /* \"contracts/BonDeFiToken.sol\":620:657  uint256 public immutable maturityDate */\n    tag_34:\n      tag_156\n      tag_157\n      jump\t// in\n    tag_156:\n      mload(0x40)\n      tag_158\n      swap2\n      swap1\n      tag_67\n      jump\t// in\n    tag_158:\n      mload(0x40)\n      dup1\n      swap2\n      sub\n      swap1\n      return\n        /* \"@openzeppelin/contracts/token/ERC20/ERC20.sol\":3846:3986  function allowance(address owner, address spender) public view virtual returns (uint256) {... */\n    tag_35:\n      tag_159\n      0x04\n      dup1\n      calldatasize\n      sub\n      dup2\n      add\n      swap1\n      tag_160\n      swap2\n      swap1\n      tag_161\n      jump\t// in\n    tag_160:\n      tag_162\n      jump\t// in\n    tag_159:\n      mload(0x40)\n      tag_163\n      swap2\n      swap1\n      tag_67\n      jump\t// in\n    tag_163:\n      mload(0x40)\n      dup1\n      swap2\n      sub\n      swap1\n      return\n        /* \"contracts/BonDeFiToken.sol\":511:573  bytes32 public constant BOND_ISSUER = keccak256(\"BOND_ISSUER\") */\n    tag_36:\n      tag_164\n      tag_165\n      jump\t// in\n    tag_164:\n      mload(0x40)\n      tag_166\n      swap2\n      swap1\n      tag_78\n      jump\t// in\n    tag_166:\n      mload(0x40)\n      dup1\n      swap2\n      sub\n      swap1\n      return\n        /* \"contracts/BonDeFiToken.sol\":1477:1675  function distributeInterest(address tokenHolder,uint256 amount) public onlyRole(ADMIN){... */\n    tag_37:\n      tag_167\n      0x04\n      dup1\n      calldatasize\n      sub\n      dup2\n      add\n      swap1\n      tag_168\n      swap2\n      swap1\n      tag_57\n      jump\t// in\n    tag_168:\n      tag_169\n      jump\t// in\n    tag_167:\n      stop\n        /* \"@openzeppelin/contracts/access/AccessControl.sol\":2565:2767  function supportsInterface(bytes4 interfaceId) public view virtual override returns (bool) {... */\n    tag_48:\n        /* \"@openzeppelin/contracts/access/AccessControl.sol\":2650:2654  bool */\n      0x00\n        /* \"@openzeppelin/contracts/access/AccessControl.sol\":2688:2720  type(IAccessControl).interfaceId */\n      0x7965db0b00000000000000000000000000000000000000000000000000000000\n        /* \"@openzeppelin/contracts/access/AccessControl.sol\":2673:2720  interfaceId == type(IAccessControl).interfaceId */\n      not(0xffffffffffffffffffffffffffffffffffffffffffffffffffffffff)\n      and\n        /* \"@openzeppelin/contracts/access/AccessControl.sol\":2673:2684  interfaceId */\n      dup3\n        /* \"@openzeppelin/contracts/access/AccessControl.sol\":2673:2720  interfaceId == type(IAccessControl).interfaceId */\n      not(0xffffffffffffffffffffffffffffffffffffffffffffffffffffffff)\n      and\n      eq\n        /* \"@openzeppelin/contracts/access/AccessControl.sol\":2673:2760  interfaceId == type(IAccessControl).interfaceId || super.supportsInterface(interfaceId) */\n      dup1\n      tag_171\n      jumpi\n      pop\n        /* \"@openzeppelin/contracts/access/AccessControl.sol\":2724:2760  super.supportsInterface(interfaceId) */\n      tag_172\n        /* \"@openzeppelin/contracts/access/AccessControl.sol\":2748:2759  interfaceId */\n      dup3\n        /* \"@openzeppelin/contracts/access/AccessControl.sol\":2724:2747  super.supportsInterface */\n      tag_173\n        /* \"@openzeppelin/contracts/access/AccessControl.sol\":2724:2760  super.supportsInterface(interfaceId) */\n      jump\t// in\n    tag_172:\n        /* \"@openzeppelin/contracts/access/AccessControl.sol\":2673:2760  interfaceId == type(IAccessControl).interfaceId || super.supportsInterface(interfaceId) */\n    tag_171:\n        /* \"@openzeppelin/contracts/access/AccessControl.sol\":2666:2760  return interfaceId == type(IAccessControl).interfaceId || super.supportsInterface(interfaceId) */\n      swap1\n      pop\n        /* \"@openzeppelin/contracts/access/AccessControl.sol\":2565:2767  function supportsInterface(bytes4 interfaceId) public view virtual override returns (bool) {... */\n      swap2\n      swap1\n      pop\n      jump\t// out\n        /* \"@openzeppelin/contracts/token/ERC20/ERC20.sol\":2074:2163  function name() public view virtual returns (string memory) {... */\n    tag_52:\n        /* \"@openzeppelin/contracts/token/ERC20/ERC20.sol\":2119:2132  string memory */\n      0x60\n        /* \"@openzeppelin/contracts/token/ERC20/ERC20.sol\":2151:2156  _name */\n      0x03\n        /* \"@openzeppelin/contracts/token/ERC20/ERC20.sol\":2144:2156  return _name */\n      dup1\n      sload\n      tag_175\n      swap1\n      tag_176\n      jump\t// in\n    tag_175:\n      dup1\n      0x1f\n      add\n      0x20\n      dup1\n      swap2\n      div\n      mul\n      0x20\n      add\n      mload(0x40)\n      swap1\n      dup2\n      add\n      0x40\n      mstore\n      dup1\n      swap3\n      swap2\n      swap1\n      dup2\n      dup2\n      mstore\n      0x20\n      add\n      dup3\n      dup1\n      sload\n      tag_177\n      swap1\n      tag_176\n      jump\t// in\n    tag_177:\n      dup1\n      iszero\n      tag_178\n      jumpi\n      dup1\n      0x1f\n      lt\n      tag_179\n      jumpi\n      0x0100\n      dup1\n      dup4\n      sload\n      div\n      mul\n      dup4\n      mstore\n      swap2\n      0x20\n      add\n      swap2\n      jump(tag_178)\n    tag_179:\n      dup3\n      add\n      swap2\n      swap1\n      0x00\n      mstore\n      keccak256(0x00, 0x20)\n      swap1\n    tag_180:\n      dup2\n      sload\n      dup2\n      mstore\n      swap1\n      0x01\n      add\n      swap1\n      0x20\n      add\n      dup1\n      dup4\n      gt\n      tag_180\n      jumpi\n      dup3\n      swap1\n      sub\n      0x1f\n      and\n      dup3\n      add\n      swap2\n    tag_178:\n      pop\n      pop\n      pop\n      pop\n      pop\n      swap1\n      pop\n        /* \"@openzeppelin/contracts/token/ERC20/ERC20.sol\":2074:2163  function name() public view virtual returns (string memory) {... */\n      swap1\n      jump\t// out\n        /* \"@openzeppelin/contracts/token/ERC20/ERC20.sol\":4293:4479  function approve(address spender, uint256 value) public virtual returns (bool) {... */\n    tag_58:\n        /* \"@openzeppelin/contracts/token/ERC20/ERC20.sol\":4366:4370  bool */\n      0x00\n        /* \"@openzeppelin/contracts/token/ERC20/ERC20.sol\":4382:4395  address owner */\n      dup1\n        /* \"@openzeppelin/contracts/token/ERC20/ERC20.sol\":4398:4410  _msgSender() */\n      tag_182\n        /* \"@openzeppelin/contracts/token/ERC20/ERC20.sol\":4398:4408  _msgSender */\n      tag_183\n        /* \"@openzeppelin/contracts/token/ERC20/ERC20.sol\":4398:4410  _msgSender() */\n      jump\t// in\n    tag_182:\n        /* \"@openzeppelin/contracts/token/ERC20/ERC20.sol\":4382:4410  address owner = _msgSender() */\n      swap1\n      pop\n        /* \"@openzeppelin/contracts/token/ERC20/ERC20.sol\":4420:4451  _approve(owner, spender, value) */\n      tag_184\n        /* \"@openzeppelin/contracts/token/ERC20/ERC20.sol\":4429:4434  owner */\n      dup2\n        /* \"@openzeppelin/contracts/token/ERC20/ERC20.sol\":4436:4443  spender */\n      dup6\n        /* \"@openzeppelin/contracts/token/ERC20/ERC20.sol\":4445:4450  value */\n      dup6\n        /* \"@openzeppelin/contracts/token/ERC20/ERC20.sol\":4420:4428  _approve */\n      tag_185\n        /* \"@openzeppelin/contracts/token/ERC20/ERC20.sol\":4420:4451  _approve(owner, spender, value) */\n      jump\t// in\n    tag_184:\n        /* \"@openzeppelin/contracts/token/ERC20/ERC20.sol\":4468:4472  true */\n      0x01\n        /* \"@openzeppelin/contracts/token/ERC20/ERC20.sol\":4461:4472  return true */\n      swap2\n      pop\n      pop\n        /* \"@openzeppelin/contracts/token/ERC20/ERC20.sol\":4293:4479  function approve(address spender, uint256 value) public virtual returns (bool) {... */\n      swap3\n      swap2\n      pop\n      pop\n      jump\t// out\n        /* \"contracts/BonDeFiToken.sol\":1207:1471  function buyBond(uint256 amountTokens) public{... */\n    tag_63:\n        /* \"contracts/BonDeFiToken.sol\":1277:1287  stableCoin */\n      immutable(\"0x560f53f9e6643f63dace8b2695c9680c3b0d96473ff0914d6a3517970d490ef6\")\n        /* \"contracts/BonDeFiToken.sol\":1270:1301  IERC20(stableCoin).transferFrom */\n      0xffffffffffffffffffffffffffffffffffffffff\n      and\n      0x23b872dd\n        /* \"contracts/BonDeFiToken.sol\":1302:1312  msg.sender */\n      caller\n        /* \"contracts/BonDeFiToken.sol\":1321:1325  this */\n      address\n        /* \"contracts/BonDeFiToken.sol\":1327:1339  amountTokens */\n      dup5\n        /* \"contracts/BonDeFiToken.sol\":1270:1340  IERC20(stableCoin).transferFrom(msg.sender,address(this),amountTokens) */\n      mload(0x40)\n      dup5\n      0xffffffff\n      and\n      0xe0\n      shl\n      dup2\n      mstore\n      0x04\n      add\n      tag_187\n      swap4\n      swap3\n      swap2\n      swap1\n      tag_188\n      jump\t// in\n    tag_187:\n      0x20\n      mload(0x40)\n      dup1\n      dup4\n      sub\n      dup2\n      0x00\n      dup8\n      gas\n      call\n      iszero\n      dup1\n      iszero\n      tag_190\n      jumpi\n      returndatasize\n      0x00\n      dup1\n      returndatacopy\n      revert(0x00, returndatasize)\n    tag_190:\n      pop\n      pop\n      pop\n      pop\n      mload(0x40)\n      returndatasize\n      not(0x1f)\n      0x1f\n      dup3\n      add\n      and\n      dup3\n      add\n      dup1\n      0x40\n      mstore\n      pop\n      dup2\n      add\n      swap1\n      tag_191\n      swap2\n      swap1\n      tag_192\n      jump\t// in\n    tag_191:\n        /* \"contracts/BonDeFiToken.sol\":1262:1371  require(IERC20(stableCoin).transferFrom(msg.sender,address(this),amountTokens),\"Stable coin transfer failed\") */\n      tag_193\n      jumpi\n      mload(0x40)\n      0x08c379a000000000000000000000000000000000000000000000000000000000\n      dup2\n      mstore\n      0x04\n      add\n      tag_194\n      swap1\n      tag_195\n      jump\t// in\n    tag_194:\n      mload(0x40)\n      dup1\n      swap2\n      sub\n      swap1\n      revert\n    tag_193:\n        /* \"contracts/BonDeFiToken.sol\":1395:1399  this */\n      address\n        /* \"contracts/BonDeFiToken.sol\":1389:1409  ERC20(this).transfer */\n      0xffffffffffffffffffffffffffffffffffffffff\n      and\n      0xa9059cbb\n        /* \"contracts/BonDeFiToken.sol\":1410:1420  msg.sender */\n      caller\n        /* \"contracts/BonDeFiToken.sol\":1421:1433  amountTokens */\n      dup4\n        /* \"contracts/BonDeFiToken.sol\":1389:1434  ERC20(this).transfer(msg.sender,amountTokens) */\n      mload(0x40)\n      dup4\n      0xffffffff\n      and\n      0xe0\n      shl\n      dup2\n      mstore\n      0x04\n      add\n      tag_196\n      swap3\n      swap2\n      swap1\n      tag_197\n      jump\t// in\n    tag_196:\n      0x20\n      mload(0x40)\n      dup1\n      dup4\n      sub\n      dup2\n      0x00\n      dup8\n      gas\n      call\n      iszero\n      dup1\n      iszero\n      tag_199\n      jumpi\n      returndatasize\n      0x00\n      dup1\n      returndatacopy\n      revert(0x00, returndatasize)\n    tag_199:\n      pop\n      pop\n      pop\n      pop\n      mload(0x40)\n      returndatasize\n      not(0x1f)\n      0x1f\n      dup3\n      add\n      and\n      dup3\n      add\n      dup1\n      0x40\n      mstore\n      pop\n      dup2\n      add\n      swap1\n      tag_200\n      swap2\n      swap1\n      tag_192\n      jump\t// in\n    tag_200:\n        /* \"contracts/BonDeFiToken.sol\":1381:1464  require(ERC20(this).transfer(msg.sender,amountTokens),\"Bond token transfer failed\") */\n      tag_201\n      jumpi\n      mload(0x40)\n      0x08c379a000000000000000000000000000000000000000000000000000000000\n      dup2\n      mstore\n      0x04\n      add\n      tag_202\n      swap1\n      tag_203\n      jump\t// in\n    tag_202:\n      mload(0x40)\n      dup1\n      swap2\n      sub\n      swap1\n      revert\n    tag_201:\n        /* \"contracts/BonDeFiToken.sol\":1207:1471  function buyBond(uint256 amountTokens) public{... */\n      pop\n      jump\t// out\n        /* \"@openzeppelin/contracts/token/ERC20/ERC20.sol\":3144:3241  function totalSupply() public view virtual returns (uint256) {... */\n    tag_65:\n        /* \"@openzeppelin/contracts/token/ERC20/ERC20.sol\":3196:3203  uint256 */\n      0x00\n        /* \"@openzeppelin/contracts/token/ERC20/ERC20.sol\":3222:3234  _totalSupply */\n      sload(0x02)\n        /* \"@openzeppelin/contracts/token/ERC20/ERC20.sol\":3215:3234  return _totalSupply */\n      swap1\n      pop\n        /* \"@openzeppelin/contracts/token/ERC20/ERC20.sol\":3144:3241  function totalSupply() public view virtual returns (uint256) {... */\n      swap1\n      jump\t// out\n        /* \"@openzeppelin/contracts/token/ERC20/ERC20.sol\":5039:5283  function transferFrom(address from, address to, uint256 value) public virtual returns (bool) {... */\n    tag_71:\n        /* \"@openzeppelin/contracts/token/ERC20/ERC20.sol\":5126:5130  bool */\n      0x00\n        /* \"@openzeppelin/contracts/token/ERC20/ERC20.sol\":5142:5157  address spender */\n      dup1\n        /* \"@openzeppelin/contracts/token/ERC20/ERC20.sol\":5160:5172  _msgSender() */\n      tag_206\n        /* \"@openzeppelin/contracts/token/ERC20/ERC20.sol\":5160:5170  _msgSender */\n      tag_183\n        /* \"@openzeppelin/contracts/token/ERC20/ERC20.sol\":5160:5172  _msgSender() */\n      jump\t// in\n    tag_206:\n        /* \"@openzeppelin/contracts/token/ERC20/ERC20.sol\":5142:5172  address spender = _msgSender() */\n      swap1\n      pop\n        /* \"@openzeppelin/contracts/token/ERC20/ERC20.sol\":5182:5219  _spendAllowance(from, spender, value) */\n      tag_207\n        /* \"@openzeppelin/contracts/token/ERC20/ERC20.sol\":5198:5202  from */\n      dup6\n        /* \"@openzeppelin/contracts/token/ERC20/ERC20.sol\":5204:5211  spender */\n      dup3\n        /* \"@openzeppelin/contracts/token/ERC20/ERC20.sol\":5213:5218  value */\n      dup6\n        /* \"@openzeppelin/contracts/token/ERC20/ERC20.sol\":5182:5197  _spendAllowance */\n      tag_208\n        /* \"@openzeppelin/contracts/token/ERC20/ERC20.sol\":5182:5219  _spendAllowance(from, spender, value) */\n      jump\t// in\n    tag_207:\n        /* \"@openzeppelin/contracts/token/ERC20/ERC20.sol\":5229:5255  _transfer(from, to, value) */\n      tag_209\n        /* \"@openzeppelin/contracts/token/ERC20/ERC20.sol\":5239:5243  from */\n      dup6\n        /* \"@openzeppelin/contracts/token/ERC20/ERC20.sol\":5245:5247  to */\n      dup6\n        /* \"@openzeppelin/contracts/token/ERC20/ERC20.sol\":5249:5254  value */\n      dup6\n        /* \"@openzeppelin/contracts/token/ERC20/ERC20.sol\":5229:5238  _transfer */\n      tag_210\n        /* \"@openzeppelin/contracts/token/ERC20/ERC20.sol\":5229:5255  _transfer(from, to, value) */\n      jump\t// in\n    tag_209:\n        /* \"@openzeppelin/contracts/token/ERC20/ERC20.sol\":5272:5276  true */\n      0x01\n        /* \"@openzeppelin/contracts/token/ERC20/ERC20.sol\":5265:5276  return true */\n      swap2\n      pop\n      pop\n        /* \"@openzeppelin/contracts/token/ERC20/ERC20.sol\":5039:5283  function transferFrom(address from, address to, uint256 value) public virtual returns (bool) {... */\n      swap4\n      swap3\n      pop\n      pop\n      pop\n      jump\t// out\n        /* \"@openzeppelin/contracts/access/AccessControl.sol\":3810:3930  function getRoleAdmin(bytes32 role) public view virtual returns (bytes32) {... */\n    tag_76:\n        /* \"@openzeppelin/contracts/access/AccessControl.sol\":3875:3882  bytes32 */\n      0x00\n        /* \"@openzeppelin/contracts/access/AccessControl.sol\":3901:3907  _roles */\n      0x06\n        /* \"@openzeppelin/contracts/access/AccessControl.sol\":3901:3913  _roles[role] */\n      0x00\n        /* \"@openzeppelin/contracts/access/AccessControl.sol\":3908:3912  role */\n      dup4\n        /* \"@openzeppelin/contracts/access/AccessControl.sol\":3901:3913  _roles[role] */\n      dup2\n      mstore\n      0x20\n      add\n      swap1\n      dup2\n      mstore\n      0x20\n      add\n      0x00\n      keccak256\n        /* \"@openzeppelin/contracts/access/AccessControl.sol\":3901:3923  _roles[role].adminRole */\n      0x01\n      add\n      sload\n        /* \"@openzeppelin/contracts/access/AccessControl.sol\":3894:3923  return _roles[role].adminRole */\n      swap1\n      pop\n        /* \"@openzeppelin/contracts/access/AccessControl.sol\":3810:3930  function getRoleAdmin(bytes32 role) public view virtual returns (bytes32) {... */\n      swap2\n      swap1\n      pop\n      jump\t// out\n        /* \"contracts/BonDeFiToken.sol\":455:505  bytes32 public constant ADMIN = keccak256(\"ADMIN\") */\n    tag_80:\n        /* \"contracts/BonDeFiToken.sol\":487:505  keccak256(\"ADMIN\") */\n      0xdf8b4c520ffe197c5343c6f5aec59570151ef9a492f2c624fd45ddde6135ec42\n        /* \"contracts/BonDeFiToken.sol\":455:505  bytes32 public constant ADMIN = keccak256(\"ADMIN\") */\n      dup2\n      jump\t// out\n        /* \"@openzeppelin/contracts/access/AccessControl.sol\":4226:4362  function grantRole(bytes32 role, address account) public virtual onlyRole(getRoleAdmin(role)) {... */\n    tag_85:\n        /* \"@openzeppelin/contracts/access/AccessControl.sol\":4300:4318  getRoleAdmin(role) */\n      tag_212\n        /* \"@openzeppelin/contracts/access/AccessControl.sol\":4313:4317  role */\n      dup3\n        /* \"@openzeppelin/contracts/access/AccessControl.sol\":4300:4312  getRoleAdmin */\n      tag_76\n        /* \"@openzeppelin/contracts/access/AccessControl.sol\":4300:4318  getRoleAdmin(role) */\n      jump\t// in\n    tag_212:\n        /* \"@openzeppelin/contracts/access/AccessControl.sol\":2464:2480  _checkRole(role) */\n      tag_214\n        /* \"@openzeppelin/contracts/access/AccessControl.sol\":2475:2479  role */\n      dup2\n        /* \"@openzeppelin/contracts/access/AccessControl.sol\":2464:2474  _checkRole */\n      tag_215\n        /* \"@openzeppelin/contracts/access/AccessControl.sol\":2464:2480  _checkRole(role) */\n      jump\t// in\n    tag_214:\n        /* \"@openzeppelin/contracts/access/AccessControl.sol\":4330:4355  _grantRole(role, account) */\n      tag_217\n        /* \"@openzeppelin/contracts/access/AccessControl.sol\":4341:4345  role */\n      dup4\n        /* \"@openzeppelin/contracts/access/AccessControl.sol\":4347:4354  account */\n      dup4\n        /* \"@openzeppelin/contracts/access/AccessControl.sol\":4330:4340  _grantRole */\n      tag_218\n        /* \"@openzeppelin/contracts/access/AccessControl.sol\":4330:4355  _grantRole(role, account) */\n      jump\t// in\n    tag_217:\n      pop\n        /* \"@openzeppelin/contracts/access/AccessControl.sol\":4226:4362  function grantRole(bytes32 role, address account) public virtual onlyRole(getRoleAdmin(role)) {... */\n      pop\n      pop\n      pop\n      jump\t// out\n        /* \"@openzeppelin/contracts/token/ERC20/ERC20.sol\":3002:3084  function decimals() public view virtual returns (uint8) {... */\n    tag_87:\n        /* \"@openzeppelin/contracts/token/ERC20/ERC20.sol\":3051:3056  uint8 */\n      0x00\n        /* \"@openzeppelin/contracts/token/ERC20/ERC20.sol\":3075:3077  18 */\n      0x12\n        /* \"@openzeppelin/contracts/token/ERC20/ERC20.sol\":3068:3077  return 18 */\n      swap1\n      pop\n        /* \"@openzeppelin/contracts/token/ERC20/ERC20.sol\":3002:3084  function decimals() public view virtual returns (uint8) {... */\n      swap1\n      jump\t// out\n        /* \"@openzeppelin/contracts/access/AccessControl.sol\":5328:5573  function renounceRole(bytes32 role, address callerConfirmation) public virtual {... */\n    tag_92:\n        /* \"@openzeppelin/contracts/access/AccessControl.sol\":5443:5455  _msgSender() */\n      tag_221\n        /* \"@openzeppelin/contracts/access/AccessControl.sol\":5443:5453  _msgSender */\n      tag_183\n        /* \"@openzeppelin/contracts/access/AccessControl.sol\":5443:5455  _msgSender() */\n      jump\t// in\n    tag_221:\n        /* \"@openzeppelin/contracts/access/AccessControl.sol\":5421:5455  callerConfirmation != _msgSender() */\n      0xffffffffffffffffffffffffffffffffffffffff\n      and\n        /* \"@openzeppelin/contracts/access/AccessControl.sol\":5421:5439  callerConfirmation */\n      dup2\n        /* \"@openzeppelin/contracts/access/AccessControl.sol\":5421:5455  callerConfirmation != _msgSender() */\n      0xffffffffffffffffffffffffffffffffffffffff\n      and\n      eq\n        /* \"@openzeppelin/contracts/access/AccessControl.sol\":5417:5519  if (callerConfirmation != _msgSender()) {... */\n      tag_222\n      jumpi\n        /* \"@openzeppelin/contracts/access/AccessControl.sol\":5478:5508  AccessControlBadConfirmation() */\n      mload(0x40)\n      0x6697b23200000000000000000000000000000000000000000000000000000000\n      dup2\n      mstore\n      0x04\n      add\n      mload(0x40)\n      dup1\n      swap2\n      sub\n      swap1\n      revert\n        /* \"@openzeppelin/contracts/access/AccessControl.sol\":5417:5519  if (callerConfirmation != _msgSender()) {... */\n    tag_222:\n        /* \"@openzeppelin/contracts/access/AccessControl.sol\":5529:5566  _revokeRole(role, callerConfirmation) */\n      tag_223\n        /* \"@openzeppelin/contracts/access/AccessControl.sol\":5541:5545  role */\n      dup3\n        /* \"@openzeppelin/contracts/access/AccessControl.sol\":5547:5565  callerConfirmation */\n      dup3\n        /* \"@openzeppelin/contracts/access/AccessControl.sol\":5529:5540  _revokeRole */\n      tag_224\n        /* \"@openzeppelin/contracts/access/AccessControl.sol\":5529:5566  _revokeRole(role, callerConfirmation) */\n      jump\t// in\n    tag_223:\n      pop\n        /* \"@openzeppelin/contracts/access/AccessControl.sol\":5328:5573  function renounceRole(bytes32 role, address callerConfirmation) public virtual {... */\n      pop\n      pop\n      jump\t// out\n        /* \"contracts/BonDeFiToken.sol\":3711:3780  function unpause() public onlyRole(ADMIN) {... */\n    tag_94:\n        /* \"contracts/BonDeFiToken.sol\":487:505  keccak256(\"ADMIN\") */\n      0xdf8b4c520ffe197c5343c6f5aec59570151ef9a492f2c624fd45ddde6135ec42\n        /* \"@openzeppelin/contracts/access/AccessControl.sol\":2464:2480  _checkRole(role) */\n      tag_226\n        /* \"@openzeppelin/contracts/access/AccessControl.sol\":2475:2479  role */\n      dup2\n        /* \"@openzeppelin/contracts/access/AccessControl.sol\":2464:2474  _checkRole */\n      tag_215\n        /* \"@openzeppelin/contracts/access/AccessControl.sol\":2464:2480  _checkRole(role) */\n      jump\t// in\n    tag_226:\n        /* \"contracts/BonDeFiToken.sol\":3763:3773  _unpause() */\n      tag_228\n        /* \"contracts/BonDeFiToken.sol\":3763:3771  _unpause */\n      tag_229\n        /* \"contracts/BonDeFiToken.sol\":3763:3773  _unpause() */\n      jump\t// in\n    tag_228:\n        /* \"contracts/BonDeFiToken.sol\":3711:3780  function unpause() public onlyRole(ADMIN) {... */\n      pop\n      jump\t// out\n        /* \"@openzeppelin/contracts/token/ERC20/extensions/ERC20Burnable.sol\":618:705  function burn(uint256 value) public virtual {... */\n    tag_97:\n        /* \"@openzeppelin/contracts/token/ERC20/extensions/ERC20Burnable.sol\":672:698  _burn(_msgSender(), value) */\n      tag_231\n        /* \"@openzeppelin/contracts/token/ERC20/extensions/ERC20Burnable.sol\":678:690  _msgSender() */\n      tag_232\n        /* \"@openzeppelin/contracts/token/ERC20/extensions/ERC20Burnable.sol\":678:688  _msgSender */\n      tag_183\n        /* \"@openzeppelin/contracts/token/ERC20/extensions/ERC20Burnable.sol\":678:690  _msgSender() */\n      jump\t// in\n    tag_232:\n        /* \"@openzeppelin/contracts/token/ERC20/extensions/ERC20Burnable.sol\":692:697  value */\n      dup3\n        /* \"@openzeppelin/contracts/token/ERC20/extensions/ERC20Burnable.sol\":672:677  _burn */\n      tag_233\n        /* \"@openzeppelin/contracts/token/ERC20/extensions/ERC20Burnable.sol\":672:698  _burn(_msgSender(), value) */\n      jump\t// in\n    tag_231:\n        /* \"@openzeppelin/contracts/token/ERC20/extensions/ERC20Burnable.sol\":618:705  function burn(uint256 value) public virtual {... */\n      pop\n      jump\t// out\n        /* \"@openzeppelin/contracts/utils/Pausable.sol\":1850:1934  function paused() public view virtual returns (bool) {... */\n    tag_99:\n        /* \"@openzeppelin/contracts/utils/Pausable.sol\":1897:1901  bool */\n      0x00\n        /* \"@openzeppelin/contracts/utils/Pausable.sol\":1920:1927  _paused */\n      0x05\n      0x00\n      swap1\n      sload\n      swap1\n      0x0100\n      exp\n      swap1\n      div\n      0xff\n      and\n        /* \"@openzeppelin/contracts/utils/Pausable.sol\":1913:1927  return _paused */\n      swap1\n      pop\n        /* \"@openzeppelin/contracts/utils/Pausable.sol\":1850:1934  function paused() public view virtual returns (bool) {... */\n      swap1\n      jump\t// out\n        /* \"@openzeppelin/contracts/token/ERC20/ERC20.sol\":3299:3415  function balanceOf(address account) public view virtual returns (uint256) {... */\n    tag_104:\n        /* \"@openzeppelin/contracts/token/ERC20/ERC20.sol\":3364:3371  uint256 */\n      0x00\n        /* \"@openzeppelin/contracts/token/ERC20/ERC20.sol\":3390:3399  _balances */\n      dup1\n        /* \"@openzeppelin/contracts/token/ERC20/ERC20.sol\":3390:3408  _balances[account] */\n      0x00\n        /* \"@openzeppelin/contracts/token/ERC20/ERC20.sol\":3400:3407  account */\n      dup4\n        /* \"@openzeppelin/contracts/token/ERC20/ERC20.sol\":3390:3408  _balances[account] */\n      0xffffffffffffffffffffffffffffffffffffffff\n      and\n      0xffffffffffffffffffffffffffffffffffffffff\n      and\n      dup2\n      mstore\n      0x20\n      add\n      swap1\n      dup2\n      mstore\n      0x20\n      add\n      0x00\n      keccak256\n      sload\n        /* \"@openzeppelin/contracts/token/ERC20/ERC20.sol\":3383:3408  return _balances[account] */\n      swap1\n      pop\n        /* \"@openzeppelin/contracts/token/ERC20/ERC20.sol\":3299:3415  function balanceOf(address account) public view virtual returns (uint256) {... */\n      swap2\n      swap1\n      pop\n      jump\t// out\n        /* \"contracts/BonDeFiToken.sol\":663:691  address public interestToken */\n    tag_107:\n      0x07\n      0x00\n      swap1\n      sload\n      swap1\n      0x0100\n      exp\n      swap1\n      div\n      0xffffffffffffffffffffffffffffffffffffffff\n      and\n      dup2\n      jump\t// out\n        /* \"@openzeppelin/contracts/token/ERC20/extensions/ERC20Burnable.sol\":1021:1179  function burnFrom(address account, uint256 value) public virtual {... */\n    tag_112:\n        /* \"@openzeppelin/contracts/token/ERC20/extensions/ERC20Burnable.sol\":1096:1141  _spendAllowance(account, _msgSender(), value) */\n      tag_237\n        /* \"@openzeppelin/contracts/token/ERC20/extensions/ERC20Burnable.sol\":1112:1119  account */\n      dup3\n        /* \"@openzeppelin/contracts/token/ERC20/extensions/ERC20Burnable.sol\":1121:1133  _msgSender() */\n      tag_238\n        /* \"@openzeppelin/contracts/token/ERC20/extensions/ERC20Burnable.sol\":1121:1131  _msgSender */\n      tag_183\n        /* \"@openzeppelin/contracts/token/ERC20/extensions/ERC20Burnable.sol\":1121:1133  _msgSender() */\n      jump\t// in\n    tag_238:\n        /* \"@openzeppelin/contracts/token/ERC20/extensions/ERC20Burnable.sol\":1135:1140  value */\n      dup4\n        /* \"@openzeppelin/contracts/token/ERC20/extensions/ERC20Burnable.sol\":1096:1111  _spendAllowance */\n      tag_208\n        /* \"@openzeppelin/contracts/token/ERC20/extensions/ERC20Burnable.sol\":1096:1141  _spendAllowance(account, _msgSender(), value) */\n      jump\t// in\n    tag_237:\n        /* \"@openzeppelin/contracts/token/ERC20/extensions/ERC20Burnable.sol\":1151:1172  _burn(account, value) */\n      tag_239\n        /* \"@openzeppelin/contracts/token/ERC20/extensions/ERC20Burnable.sol\":1157:1164  account */\n      dup3\n        /* \"@openzeppelin/contracts/token/ERC20/extensions/ERC20Burnable.sol\":1166:1171  value */\n      dup3\n        /* \"@openzeppelin/contracts/token/ERC20/extensions/ERC20Burnable.sol\":1151:1156  _burn */\n      tag_233\n        /* \"@openzeppelin/contracts/token/ERC20/extensions/ERC20Burnable.sol\":1151:1172  _burn(account, value) */\n      jump\t// in\n    tag_239:\n        /* \"@openzeppelin/contracts/token/ERC20/extensions/ERC20Burnable.sol\":1021:1179  function burnFrom(address account, uint256 value) public virtual {... */\n      pop\n      pop\n      jump\t// out\n        /* \"contracts/BonDeFiToken.sol\":3640:3705  function pause() public onlyRole(ADMIN) {... */\n    tag_114:\n        /* \"contracts/BonDeFiToken.sol\":487:505  keccak256(\"ADMIN\") */\n      0xdf8b4c520ffe197c5343c6f5aec59570151ef9a492f2c624fd45ddde6135ec42\n        /* \"@openzeppelin/contracts/access/AccessControl.sol\":2464:2480  _checkRole(role) */\n      tag_241\n        /* \"@openzeppelin/contracts/access/AccessControl.sol\":2475:2479  role */\n      dup2\n        /* \"@openzeppelin/contracts/access/AccessControl.sol\":2464:2474  _checkRole */\n      tag_215\n        /* \"@openzeppelin/contracts/access/AccessControl.sol\":2464:2480  _checkRole(role) */\n      jump\t// in\n    tag_241:\n        /* \"contracts/BonDeFiToken.sol\":3690:3698  _pause() */\n      tag_243\n        /* \"contracts/BonDeFiToken.sol\":3690:3696  _pause */\n      tag_244\n        /* \"contracts/BonDeFiToken.sol\":3690:3698  _pause() */\n      jump\t// in\n    tag_243:\n        /* \"contracts/BonDeFiToken.sol\":3640:3705  function pause() public onlyRole(ADMIN) {... */\n      pop\n      jump\t// out\n        /* \"contracts/BonDeFiToken.sol\":2983:3099  function showBondTokens() public view returns (uint256) {... */\n    tag_116:\n        /* \"contracts/BonDeFiToken.sol\":3030:3037  uint256 */\n      0x00\n        /* \"contracts/BonDeFiToken.sol\":3062:3066  this */\n      address\n        /* \"contracts/BonDeFiToken.sol\":3056:3077  ERC20(this).balanceOf */\n      0xffffffffffffffffffffffffffffffffffffffff\n      and\n      0x70a08231\n        /* \"contracts/BonDeFiToken.sol\":3086:3090  this */\n      address\n        /* \"contracts/BonDeFiToken.sol\":3056:3092  ERC20(this).balanceOf(address(this)) */\n      mload(0x40)\n      dup3\n      0xffffffff\n      and\n      0xe0\n      shl\n      dup2\n      mstore\n      0x04\n      add\n      tag_246\n      swap2\n      swap1\n      tag_109\n      jump\t// in\n    tag_246:\n      0x20\n      mload(0x40)\n      dup1\n      dup4\n      sub\n      dup2\n      dup7\n      gas\n      staticcall\n      iszero\n      dup1\n      iszero\n      tag_248\n      jumpi\n      returndatasize\n      0x00\n      dup1\n      returndatacopy\n      revert(0x00, returndatasize)\n    tag_248:\n      pop\n      pop\n      pop\n      pop\n      mload(0x40)\n      returndatasize\n      not(0x1f)\n      0x1f\n      dup3\n      add\n      and\n      dup3\n      add\n      dup1\n      0x40\n      mstore\n      pop\n      dup2\n      add\n      swap1\n      tag_249\n      swap2\n      swap1\n      tag_250\n      jump\t// in\n    tag_249:\n        /* \"contracts/BonDeFiToken.sol\":3049:3092  return ERC20(this).balanceOf(address(this)) */\n      swap1\n      pop\n        /* \"contracts/BonDeFiToken.sol\":2983:3099  function showBondTokens() public view returns (uint256) {... */\n      swap1\n      jump\t// out\n        /* \"contracts/BonDeFiToken.sol\":1681:2087  function distributeInterestAll(address[] memory tokenHolders, uint256[] memory amounts) public onlyRole(ADMIN) {... */\n    tag_121:\n        /* \"contracts/BonDeFiToken.sol\":487:505  keccak256(\"ADMIN\") */\n      0xdf8b4c520ffe197c5343c6f5aec59570151ef9a492f2c624fd45ddde6135ec42\n        /* \"@openzeppelin/contracts/access/AccessControl.sol\":2464:2480  _checkRole(role) */\n      tag_252\n        /* \"@openzeppelin/contracts/access/AccessControl.sol\":2475:2479  role */\n      dup2\n        /* \"@openzeppelin/contracts/access/AccessControl.sol\":2464:2474  _checkRole */\n      tag_215\n        /* \"@openzeppelin/contracts/access/AccessControl.sol\":2464:2480  _checkRole(role) */\n      jump\t// in\n    tag_252:\n        /* \"contracts/BonDeFiToken.sol\":1833:1840  amounts */\n      dup2\n        /* \"contracts/BonDeFiToken.sol\":1833:1847  amounts.length */\n      mload\n        /* \"contracts/BonDeFiToken.sol\":1810:1822  tokenHolders */\n      dup4\n        /* \"contracts/BonDeFiToken.sol\":1810:1829  tokenHolders.length */\n      mload\n        /* \"contracts/BonDeFiToken.sol\":1810:1847  tokenHolders.length == amounts.length */\n      eq\n        /* \"contracts/BonDeFiToken.sol\":1802:1893  require(tokenHolders.length == amounts.length, \"Token holders and amounts length mismatch\") */\n      tag_254\n      jumpi\n      mload(0x40)\n      0x08c379a000000000000000000000000000000000000000000000000000000000\n      dup2\n      mstore\n      0x04\n      add\n      tag_255\n      swap1\n      tag_256\n      jump\t// in\n    tag_255:\n      mload(0x40)\n      dup1\n      swap2\n      sub\n      swap1\n      revert\n    tag_254:\n        /* \"contracts/BonDeFiToken.sol\":1908:1917  uint256 i */\n      0x00\n        /* \"contracts/BonDeFiToken.sol\":1903:2081  for (uint256 i = 0; i < tokenHolders.length; i++) {... */\n    tag_257:\n        /* \"contracts/BonDeFiToken.sol\":1927:1939  tokenHolders */\n      dup4\n        /* \"contracts/BonDeFiToken.sol\":1927:1946  tokenHolders.length */\n      mload\n        /* \"contracts/BonDeFiToken.sol\":1923:1924  i */\n      dup2\n        /* \"contracts/BonDeFiToken.sol\":1923:1946  i < tokenHolders.length */\n      lt\n        /* \"contracts/BonDeFiToken.sol\":1903:2081  for (uint256 i = 0; i < tokenHolders.length; i++) {... */\n      iszero\n      tag_258\n      jumpi\n        /* \"contracts/BonDeFiToken.sol\":1982:1995  interestToken */\n      0x07\n      0x00\n      swap1\n      sload\n      swap1\n      0x0100\n      exp\n      swap1\n      div\n      0xffffffffffffffffffffffffffffffffffffffff\n      and\n        /* \"contracts/BonDeFiToken.sol\":1975:2009  IERC20(interestToken).transferFrom */\n      0xffffffffffffffffffffffffffffffffffffffff\n      and\n      0x23b872dd\n        /* \"contracts/BonDeFiToken.sol\":2010:2020  msg.sender */\n      caller\n        /* \"contracts/BonDeFiToken.sol\":2022:2034  tokenHolders */\n      dup7\n        /* \"contracts/BonDeFiToken.sol\":2035:2036  i */\n      dup5\n        /* \"contracts/BonDeFiToken.sol\":2022:2037  tokenHolders[i] */\n      dup2\n      mload\n      dup2\n      lt\n      tag_260\n      jumpi\n      tag_261\n      tag_262\n      jump\t// in\n    tag_261:\n    tag_260:\n      0x20\n      mul\n      0x20\n      add\n      add\n      mload\n        /* \"contracts/BonDeFiToken.sol\":2039:2046  amounts */\n      dup7\n        /* \"contracts/BonDeFiToken.sol\":2047:2048  i */\n      dup6\n        /* \"contracts/BonDeFiToken.sol\":2039:2049  amounts[i] */\n      dup2\n      mload\n      dup2\n      lt\n      tag_263\n      jumpi\n      tag_264\n      tag_262\n      jump\t// in\n    tag_264:\n    tag_263:\n      0x20\n      mul\n      0x20\n      add\n      add\n      mload\n        /* \"contracts/BonDeFiToken.sol\":1975:2050  IERC20(interestToken).transferFrom(msg.sender, tokenHolders[i], amounts[i]) */\n      mload(0x40)\n      dup5\n      0xffffffff\n      and\n      0xe0\n      shl\n      dup2\n      mstore\n      0x04\n      add\n      tag_265\n      swap4\n      swap3\n      swap2\n      swap1\n      tag_188\n      jump\t// in\n    tag_265:\n      0x20\n      mload(0x40)\n      dup1\n      dup4\n      sub\n      dup2\n      0x00\n      dup8\n      gas\n      call\n      iszero\n      dup1\n      iszero\n      tag_267\n      jumpi\n      returndatasize\n      0x00\n      dup1\n      returndatacopy\n      revert(0x00, returndatasize)\n    tag_267:\n      pop\n      pop\n      pop\n      pop\n      mload(0x40)\n      returndatasize\n      not(0x1f)\n      0x1f\n      dup3\n      add\n      and\n      dup3\n      add\n      dup1\n      0x40\n      mstore\n      pop\n      dup2\n      add\n      swap1\n      tag_268\n      swap2\n      swap1\n      tag_192\n      jump\t// in\n    tag_268:\n        /* \"contracts/BonDeFiToken.sol\":1967:2070  require(IERC20(interestToken).transferFrom(msg.sender, tokenHolders[i], amounts[i]), \"Transfer failed\") */\n      tag_269\n      jumpi\n      mload(0x40)\n      0x08c379a000000000000000000000000000000000000000000000000000000000\n      dup2\n      mstore\n      0x04\n      add\n      tag_270\n      swap1\n      tag_271\n      jump\t// in\n    tag_270:\n      mload(0x40)\n      dup1\n      swap2\n      sub\n      swap1\n      revert\n    tag_269:\n        /* \"contracts/BonDeFiToken.sol\":1948:1951  i++ */\n      dup1\n      dup1\n      0x01\n      add\n      swap2\n      pop\n      pop\n        /* \"contracts/BonDeFiToken.sol\":1903:2081  for (uint256 i = 0; i < tokenHolders.length; i++) {... */\n      jump(tag_257)\n    tag_258:\n      pop\n        /* \"contracts/BonDeFiToken.sol\":1681:2087  function distributeInterestAll(address[] memory tokenHolders, uint256[] memory amounts) public onlyRole(ADMIN) {... */\n      pop\n      pop\n      pop\n      jump\t// out\n        /* \"@openzeppelin/contracts/access/AccessControl.sol\":2854:2990  function hasRole(bytes32 role, address account) public view virtual returns (bool) {... */\n    tag_124:\n        /* \"@openzeppelin/contracts/access/AccessControl.sol\":2931:2935  bool */\n      0x00\n        /* \"@openzeppelin/contracts/access/AccessControl.sol\":2954:2960  _roles */\n      0x06\n        /* \"@openzeppelin/contracts/access/AccessControl.sol\":2954:2966  _roles[role] */\n      0x00\n        /* \"@openzeppelin/contracts/access/AccessControl.sol\":2961:2965  role */\n      dup5\n        /* \"@openzeppelin/contracts/access/AccessControl.sol\":2954:2966  _roles[role] */\n      dup2\n      mstore\n      0x20\n      add\n      swap1\n      dup2\n      mstore\n      0x20\n      add\n      0x00\n      keccak256\n        /* \"@openzeppelin/contracts/access/AccessControl.sol\":2954:2974  _roles[role].hasRole */\n      0x00\n      add\n        /* \"@openzeppelin/contracts/access/AccessControl.sol\":2954:2983  _roles[role].hasRole[account] */\n      0x00\n        /* \"@openzeppelin/contracts/access/AccessControl.sol\":2975:2982  account */\n      dup4\n        /* \"@openzeppelin/contracts/access/AccessControl.sol\":2954:2983  _roles[role].hasRole[account] */\n      0xffffffffffffffffffffffffffffffffffffffff\n      and\n      0xffffffffffffffffffffffffffffffffffffffff\n      and\n      dup2\n      mstore\n      0x20\n      add\n      swap1\n      dup2\n      mstore\n      0x20\n      add\n      0x00\n      keccak256\n      0x00\n      swap1\n      sload\n      swap1\n      0x0100\n      exp\n      swap1\n      div\n      0xff\n      and\n        /* \"@openzeppelin/contracts/access/AccessControl.sol\":2947:2983  return _roles[role].hasRole[account] */\n      swap1\n      pop\n        /* \"@openzeppelin/contracts/access/AccessControl.sol\":2854:2990  function hasRole(bytes32 role, address account) public view virtual returns (bool) {... */\n      swap3\n      swap2\n      pop\n      pop\n      jump\t// out\n        /* \"contracts/BonDeFiToken.sol\":1091:1201  function setInterestToken(address interestTokenAddr) public {... */\n    tag_128:\n        /* \"contracts/BonDeFiToken.sol\":1177:1194  interestTokenAddr */\n      dup1\n        /* \"contracts/BonDeFiToken.sol\":1161:1174  interestToken */\n      0x07\n      0x00\n        /* \"contracts/BonDeFiToken.sol\":1161:1194  interestToken = interestTokenAddr */\n      0x0100\n      exp\n      dup2\n      sload\n      dup2\n      0xffffffffffffffffffffffffffffffffffffffff\n      mul\n      not\n      and\n      swap1\n      dup4\n      0xffffffffffffffffffffffffffffffffffffffff\n      and\n      mul\n      or\n      swap1\n      sstore\n      pop\n        /* \"contracts/BonDeFiToken.sol\":1091:1201  function setInterestToken(address interestTokenAddr) public {... */\n      pop\n      jump\t// out\n        /* \"@openzeppelin/contracts/token/ERC20/ERC20.sol\":2276:2369  function symbol() public view virtual returns (string memory) {... */\n    tag_130:\n        /* \"@openzeppelin/contracts/token/ERC20/ERC20.sol\":2323:2336  string memory */\n      0x60\n        /* \"@openzeppelin/contracts/token/ERC20/ERC20.sol\":2355:2362  _symbol */\n      0x04\n        /* \"@openzeppelin/contracts/token/ERC20/ERC20.sol\":2348:2362  return _symbol */\n      dup1\n      sload\n      tag_275\n      swap1\n      tag_176\n      jump\t// in\n    tag_275:\n      dup1\n      0x1f\n      add\n      0x20\n      dup1\n      swap2\n      div\n      mul\n      0x20\n      add\n      mload(0x40)\n      swap1\n      dup2\n      add\n      0x40\n      mstore\n      dup1\n      swap3\n      swap2\n      swap1\n      dup2\n      dup2\n      mstore\n      0x20\n      add\n      dup3\n      dup1\n      sload\n      tag_276\n      swap1\n      tag_176\n      jump\t// in\n    tag_276:\n      dup1\n      iszero\n      tag_277\n      jumpi\n      dup1\n      0x1f\n      lt\n      tag_278\n      jumpi\n      0x0100\n      dup1\n      dup4\n      sload\n      div\n      mul\n      dup4\n      mstore\n      swap2\n      0x20\n      add\n      swap2\n      jump(tag_277)\n    tag_278:\n      dup3\n      add\n      swap2\n      swap1\n      0x00\n      mstore\n      keccak256(0x00, 0x20)\n      swap1\n    tag_279:\n      dup2\n      sload\n      dup2\n      mstore\n      swap1\n      0x01\n      add\n      swap1\n      0x20\n      add\n      dup1\n      dup4\n      gt\n      tag_279\n      jumpi\n      dup3\n      swap1\n      sub\n      0x1f\n      and\n      dup3\n      add\n      swap2\n    tag_277:\n      pop\n      pop\n      pop\n      pop\n      pop\n      swap1\n      pop\n        /* \"@openzeppelin/contracts/token/ERC20/ERC20.sol\":2276:2369  function symbol() public view virtual returns (string memory) {... */\n      swap1\n      jump\t// out\n        /* \"contracts/BonDeFiToken.sol\":579:614  address public immutable stableCoin */\n    tag_133:\n      immutable(\"0x560f53f9e6643f63dace8b2695c9680c3b0d96473ff0914d6a3517970d490ef6\")\n      dup2\n      jump\t// out\n        /* \"@openzeppelin/contracts/access/AccessControl.sol\":2187:2236  bytes32 public constant DEFAULT_ADMIN_ROLE = 0x00 */\n    tag_136:\n        /* \"@openzeppelin/contracts/access/AccessControl.sol\":2232:2236  0x00 */\n      0x00\n        /* \"@openzeppelin/contracts/access/AccessControl.sol\":2187:2236  bytes32 public constant DEFAULT_ADMIN_ROLE = 0x00 */\n      dup1\n      shl\n      dup2\n      jump\t// out\n        /* \"@openzeppelin/contracts/token/ERC20/ERC20.sol\":3610:3788  function transfer(address to, uint256 value) public virtual returns (bool) {... */\n    tag_140:\n        /* \"@openzeppelin/contracts/token/ERC20/ERC20.sol\":3679:3683  bool */\n      0x00\n        /* \"@openzeppelin/contracts/token/ERC20/ERC20.sol\":3695:3708  address owner */\n      dup1\n        /* \"@openzeppelin/contracts/token/ERC20/ERC20.sol\":3711:3723  _msgSender() */\n      tag_281\n        /* \"@openzeppelin/contracts/token/ERC20/ERC20.sol\":3711:3721  _msgSender */\n      tag_183\n        /* \"@openzeppelin/contracts/token/ERC20/ERC20.sol\":3711:3723  _msgSender() */\n      jump\t// in\n    tag_281:\n        /* \"@openzeppelin/contracts/token/ERC20/ERC20.sol\":3695:3723  address owner = _msgSender() */\n      swap1\n      pop\n        /* \"@openzeppelin/contracts/token/ERC20/ERC20.sol\":3733:3760  _transfer(owner, to, value) */\n      tag_282\n        /* \"@openzeppelin/contracts/token/ERC20/ERC20.sol\":3743:3748  owner */\n      dup2\n        /* \"@openzeppelin/contracts/token/ERC20/ERC20.sol\":3750:3752  to */\n      dup6\n        /* \"@openzeppelin/contracts/token/ERC20/ERC20.sol\":3754:3759  value */\n      dup6\n        /* \"@openzeppelin/contracts/token/ERC20/ERC20.sol\":3733:3742  _transfer */\n      tag_210\n        /* \"@openzeppelin/contracts/token/ERC20/ERC20.sol\":3733:3760  _transfer(owner, to, value) */\n      jump\t// in\n    tag_282:\n        /* \"@openzeppelin/contracts/token/ERC20/ERC20.sol\":3777:3781  true */\n      0x01\n        /* \"@openzeppelin/contracts/token/ERC20/ERC20.sol\":3770:3781  return true */\n      swap2\n      pop\n      pop\n        /* \"@openzeppelin/contracts/token/ERC20/ERC20.sol\":3610:3788  function transfer(address to, uint256 value) public virtual returns (bool) {... */\n      swap3\n      swap2\n      pop\n      pop\n      jump\t// out\n        /* \"contracts/BonDeFiToken.sol\":3235:3355  function showStableCoins() public view returns (uint256){... */\n    tag_143:\n        /* \"contracts/BonDeFiToken.sol\":3283:3290  uint256 */\n      0x00\n        /* \"contracts/BonDeFiToken.sol\":3315:3325  stableCoin */\n      immutable(\"0x560f53f9e6643f63dace8b2695c9680c3b0d96473ff0914d6a3517970d490ef6\")\n        /* \"contracts/BonDeFiToken.sol\":3308:3336  IERC20(stableCoin).balanceOf */\n      0xffffffffffffffffffffffffffffffffffffffff\n      and\n      0x70a08231\n        /* \"contracts/BonDeFiToken.sol\":3337:3347  msg.sender */\n      caller\n        /* \"contracts/BonDeFiToken.sol\":3308:3348  IERC20(stableCoin).balanceOf(msg.sender) */\n      mload(0x40)\n      dup3\n      0xffffffff\n      and\n      0xe0\n      shl\n      dup2\n      mstore\n      0x04\n      add\n      tag_284\n      swap2\n      swap1\n      tag_109\n      jump\t// in\n    tag_284:\n      0x20\n      mload(0x40)\n      dup1\n      dup4\n      sub\n      dup2\n      dup7\n      gas\n      staticcall\n      iszero\n      dup1\n      iszero\n      tag_286\n      jumpi\n      returndatasize\n      0x00\n      dup1\n      returndatacopy\n      revert(0x00, returndatasize)\n    tag_286:\n      pop\n      pop\n      pop\n      pop\n      mload(0x40)\n      returndatasize\n      not(0x1f)\n      0x1f\n      dup3\n      add\n      and\n      dup3\n      add\n      dup1\n      0x40\n      mstore\n      pop\n      dup2\n      add\n      swap1\n      tag_287\n      swap2\n      swap1\n      tag_250\n      jump\t// in\n    tag_287:\n        /* \"contracts/BonDeFiToken.sol\":3301:3348  return IERC20(stableCoin).balanceOf(msg.sender) */\n      swap1\n      pop\n        /* \"contracts/BonDeFiToken.sol\":3235:3355  function showStableCoins() public view returns (uint256){... */\n      swap1\n      jump\t// out\n        /* \"contracts/BonDeFiToken.sol\":2425:2949  function claimFaceValue(uint256 amountTokens) public{... */\n    tag_147:\n        /* \"contracts/BonDeFiToken.sol\":2539:2551  maturityDate */\n      immutable(\"0xc6fa869c00cca07fff5e26638bf9bc331de0994499fcf1ee63eb1a2437869a1b\")\n        /* \"contracts/BonDeFiToken.sol\":2520:2535  block.timestamp */\n      timestamp\n        /* \"contracts/BonDeFiToken.sol\":2520:2551  block.timestamp >= maturityDate */\n      lt\n      iszero\n        /* \"contracts/BonDeFiToken.sol\":2512:2579  require(block.timestamp >= maturityDate,\"Maturity not yet reached\") */\n      tag_289\n      jumpi\n      mload(0x40)\n      0x08c379a000000000000000000000000000000000000000000000000000000000\n      dup2\n      mstore\n      0x04\n      add\n      tag_290\n      swap1\n      tag_291\n      jump\t// in\n    tag_290:\n      mload(0x40)\n      dup1\n      swap2\n      sub\n      swap1\n      revert\n    tag_289:\n        /* \"contracts/BonDeFiToken.sol\":2639:2640  0 */\n      0x00\n        /* \"contracts/BonDeFiToken.sol\":2624:2636  amountTokens */\n      dup2\n        /* \"contracts/BonDeFiToken.sol\":2624:2640  amountTokens > 0 */\n      gt\n        /* \"contracts/BonDeFiToken.sol\":2616:2666  require(amountTokens > 0,\"Can't claim zero coins\") */\n      tag_292\n      jumpi\n      mload(0x40)\n      0x08c379a000000000000000000000000000000000000000000000000000000000\n      dup2\n      mstore\n      0x04\n      add\n      tag_293\n      swap1\n      tag_294\n      jump\t// in\n    tag_293:\n      mload(0x40)\n      dup1\n      swap2\n      sub\n      swap1\n      revert\n    tag_292:\n        /* \"contracts/BonDeFiToken.sol\":2690:2694  this */\n      address\n        /* \"contracts/BonDeFiToken.sol\":2684:2708  ERC20(this).transferFrom */\n      0xffffffffffffffffffffffffffffffffffffffff\n      and\n      0x23b872dd\n        /* \"contracts/BonDeFiToken.sol\":2709:2719  msg.sender */\n      caller\n        /* \"contracts/BonDeFiToken.sol\":2728:2732  this */\n      address\n        /* \"contracts/BonDeFiToken.sol\":2734:2746  amountTokens */\n      dup5\n        /* \"contracts/BonDeFiToken.sol\":2684:2747  ERC20(this).transferFrom(msg.sender,address(this),amountTokens) */\n      mload(0x40)\n      dup5\n      0xffffffff\n      and\n      0xe0\n      shl\n      dup2\n      mstore\n      0x04\n      add\n      tag_295\n      swap4\n      swap3\n      swap2\n      swap1\n      tag_188\n      jump\t// in\n    tag_295:\n      0x20\n      mload(0x40)\n      dup1\n      dup4\n      sub\n      dup2\n      0x00\n      dup8\n      gas\n      call\n      iszero\n      dup1\n      iszero\n      tag_297\n      jumpi\n      returndatasize\n      0x00\n      dup1\n      returndatacopy\n      revert(0x00, returndatasize)\n    tag_297:\n      pop\n      pop\n      pop\n      pop\n      mload(0x40)\n      returndatasize\n      not(0x1f)\n      0x1f\n      dup3\n      add\n      and\n      dup3\n      add\n      dup1\n      0x40\n      mstore\n      pop\n      dup2\n      add\n      swap1\n      tag_298\n      swap2\n      swap1\n      tag_192\n      jump\t// in\n    tag_298:\n        /* \"contracts/BonDeFiToken.sol\":2676:2777  require(ERC20(this).transferFrom(msg.sender,address(this),amountTokens),\"Bond token transfer failed\") */\n      tag_299\n      jumpi\n      mload(0x40)\n      0x08c379a000000000000000000000000000000000000000000000000000000000\n      dup2\n      mstore\n      0x04\n      add\n      tag_300\n      swap1\n      tag_203\n      jump\t// in\n    tag_300:\n      mload(0x40)\n      dup1\n      swap2\n      sub\n      swap1\n      revert\n    tag_299:\n        /* \"contracts/BonDeFiToken.sol\":2802:2812  stableCoin */\n      immutable(\"0x560f53f9e6643f63dace8b2695c9680c3b0d96473ff0914d6a3517970d490ef6\")\n        /* \"contracts/BonDeFiToken.sol\":2795:2822  IERC20(stableCoin).transfer */\n      0xffffffffffffffffffffffffffffffffffffffff\n      and\n      0xa9059cbb\n        /* \"contracts/BonDeFiToken.sol\":2823:2833  msg.sender */\n      caller\n        /* \"contracts/BonDeFiToken.sol\":2834:2846  amountTokens */\n      dup4\n        /* \"contracts/BonDeFiToken.sol\":2795:2847  IERC20(stableCoin).transfer(msg.sender,amountTokens) */\n      mload(0x40)\n      dup4\n      0xffffffff\n      and\n      0xe0\n      shl\n      dup2\n      mstore\n      0x04\n      add\n      tag_301\n      swap3\n      swap2\n      swap1\n      tag_197\n      jump\t// in\n    tag_301:\n      0x20\n      mload(0x40)\n      dup1\n      dup4\n      sub\n      dup2\n      0x00\n      dup8\n      gas\n      call\n      iszero\n      dup1\n      iszero\n      tag_303\n      jumpi\n      returndatasize\n      0x00\n      dup1\n      returndatacopy\n      revert(0x00, returndatasize)\n    tag_303:\n      pop\n      pop\n      pop\n      pop\n      mload(0x40)\n      returndatasize\n      not(0x1f)\n      0x1f\n      dup3\n      add\n      and\n      dup3\n      add\n      dup1\n      0x40\n      mstore\n      pop\n      dup2\n      add\n      swap1\n      tag_304\n      swap2\n      swap1\n      tag_192\n      jump\t// in\n    tag_304:\n        /* \"contracts/BonDeFiToken.sol\":2787:2878  require(IERC20(stableCoin).transfer(msg.sender,amountTokens),\"Stable coin transfer failed\") */\n      tag_305\n      jumpi\n      mload(0x40)\n      0x08c379a000000000000000000000000000000000000000000000000000000000\n      dup2\n      mstore\n      0x04\n      add\n      tag_306\n      swap1\n      tag_195\n      jump\t// in\n    tag_306:\n      mload(0x40)\n      dup1\n      swap2\n      sub\n      swap1\n      revert\n    tag_305:\n        /* \"contracts/BonDeFiToken.sol\":2909:2942  _burn(address(this),amountTokens) */\n      tag_307\n        /* \"contracts/BonDeFiToken.sol\":2923:2927  this */\n      address\n        /* \"contracts/BonDeFiToken.sol\":2929:2941  amountTokens */\n      dup3\n        /* \"contracts/BonDeFiToken.sol\":2909:2914  _burn */\n      tag_233\n        /* \"contracts/BonDeFiToken.sol\":2909:2942  _burn(address(this),amountTokens) */\n      jump\t// in\n    tag_307:\n        /* \"contracts/BonDeFiToken.sol\":2425:2949  function claimFaceValue(uint256 amountTokens) public{... */\n      pop\n      jump\t// out\n        /* \"contracts/BonDeFiToken.sol\":3104:3230  function showInterestTokens() public view returns (uint256){... */\n    tag_149:\n        /* \"contracts/BonDeFiToken.sol\":3155:3162  uint256 */\n      0x00\n        /* \"contracts/BonDeFiToken.sol\":3187:3200  interestToken */\n      0x07\n      0x00\n      swap1\n      sload\n      swap1\n      0x0100\n      exp\n      swap1\n      div\n      0xffffffffffffffffffffffffffffffffffffffff\n      and\n        /* \"contracts/BonDeFiToken.sol\":3180:3211  IERC20(interestToken).balanceOf */\n      0xffffffffffffffffffffffffffffffffffffffff\n      and\n      0x70a08231\n        /* \"contracts/BonDeFiToken.sol\":3212:3222  msg.sender */\n      caller\n        /* \"contracts/BonDeFiToken.sol\":3180:3223  IERC20(interestToken).balanceOf(msg.sender) */\n      mload(0x40)\n      dup3\n      0xffffffff\n      and\n      0xe0\n      shl\n      dup2\n      mstore\n      0x04\n      add\n      tag_309\n      swap2\n      swap1\n      tag_109\n      jump\t// in\n    tag_309:\n      0x20\n      mload(0x40)\n      dup1\n      dup4\n      sub\n      dup2\n      dup7\n      gas\n      staticcall\n      iszero\n      dup1\n      iszero\n      tag_311\n      jumpi\n      returndatasize\n      0x00\n      dup1\n      returndatacopy\n      revert(0x00, returndatasize)\n    tag_311:\n      pop\n      pop\n      pop\n      pop\n      mload(0x40)\n      returndatasize\n      not(0x1f)\n      0x1f\n      dup3\n      add\n      and\n      dup3\n      add\n      dup1\n      0x40\n      mstore\n      pop\n      dup2\n      add\n      swap1\n      tag_312\n      swap2\n      swap1\n      tag_250\n      jump\t// in\n    tag_312:\n        /* \"contracts/BonDeFiToken.sol\":3173:3223  return IERC20(interestToken).balanceOf(msg.sender) */\n      swap1\n      pop\n        /* \"contracts/BonDeFiToken.sol\":3104:3230  function showInterestTokens() public view returns (uint256){... */\n      swap1\n      jump\t// out\n        /* \"contracts/BonDeFiToken.sol\":2093:2419  function claimInvestorFunds() public onlyRole(BOND_ISSUER){... */\n    tag_152:\n        /* \"contracts/BonDeFiToken.sol\":549:573  keccak256(\"BOND_ISSUER\") */\n      0xf877234297ef562d54f0328f892acfc1d6c1e44ca89f02e3a2c2a4736f6095b7\n        /* \"@openzeppelin/contracts/access/AccessControl.sol\":2464:2480  _checkRole(role) */\n      tag_314\n        /* \"@openzeppelin/contracts/access/AccessControl.sol\":2475:2479  role */\n      dup2\n        /* \"@openzeppelin/contracts/access/AccessControl.sol\":2464:2474  _checkRole */\n      tag_215\n        /* \"@openzeppelin/contracts/access/AccessControl.sol\":2464:2480  _checkRole(role) */\n      jump\t// in\n    tag_314:\n        /* \"contracts/BonDeFiToken.sol\":2161:2188  uint256 amountInvestorCoins */\n      0x00\n        /* \"contracts/BonDeFiToken.sol\":2198:2208  stableCoin */\n      immutable(\"0x560f53f9e6643f63dace8b2695c9680c3b0d96473ff0914d6a3517970d490ef6\")\n        /* \"contracts/BonDeFiToken.sol\":2191:2219  IERC20(stableCoin).balanceOf */\n      0xffffffffffffffffffffffffffffffffffffffff\n      and\n      0x70a08231\n        /* \"contracts/BonDeFiToken.sol\":2228:2232  this */\n      address\n        /* \"contracts/BonDeFiToken.sol\":2191:2234  IERC20(stableCoin).balanceOf(address(this)) */\n      mload(0x40)\n      dup3\n      0xffffffff\n      and\n      0xe0\n      shl\n      dup2\n      mstore\n      0x04\n      add\n      tag_316\n      swap2\n      swap1\n      tag_109\n      jump\t// in\n    tag_316:\n      0x20\n      mload(0x40)\n      dup1\n      dup4\n      sub\n      dup2\n      dup7\n      gas\n      staticcall\n      iszero\n      dup1\n      iszero\n      tag_318\n      jumpi\n      returndatasize\n      0x00\n      dup1\n      returndatacopy\n      revert(0x00, returndatasize)\n    tag_318:\n      pop\n      pop\n      pop\n      pop\n      mload(0x40)\n      returndatasize\n      not(0x1f)\n      0x1f\n      dup3\n      add\n      and\n      dup3\n      add\n      dup1\n      0x40\n      mstore\n      pop\n      dup2\n      add\n      swap1\n      tag_319\n      swap2\n      swap1\n      tag_250\n      jump\t// in\n    tag_319:\n        /* \"contracts/BonDeFiToken.sol\":2161:2234  uint256 amountInvestorCoins = IERC20(stableCoin).balanceOf(address(this)) */\n      swap1\n      pop\n        /* \"contracts/BonDeFiToken.sol\":2274:2275  0 */\n      0x00\n        /* \"contracts/BonDeFiToken.sol\":2252:2271  amountInvestorCoins */\n      dup2\n        /* \"contracts/BonDeFiToken.sol\":2252:2275  amountInvestorCoins > 0 */\n      gt\n        /* \"contracts/BonDeFiToken.sol\":2244:2307  require(amountInvestorCoins > 0,\"No investor funds available.\") */\n      tag_320\n      jumpi\n      mload(0x40)\n      0x08c379a000000000000000000000000000000000000000000000000000000000\n      dup2\n      mstore\n      0x04\n      add\n      tag_321\n      swap1\n      tag_322\n      jump\t// in\n    tag_321:\n      mload(0x40)\n      dup1\n      swap2\n      sub\n      swap1\n      revert\n    tag_320:\n        /* \"contracts/BonDeFiToken.sol\":2331:2335  this */\n      address\n        /* \"contracts/BonDeFiToken.sol\":2325:2345  ERC20(this).transfer */\n      0xffffffffffffffffffffffffffffffffffffffff\n      and\n      0xa9059cbb\n        /* \"contracts/BonDeFiToken.sol\":2346:2356  msg.sender */\n      caller\n        /* \"contracts/BonDeFiToken.sol\":2357:2376  amountInvestorCoins */\n      dup4\n        /* \"contracts/BonDeFiToken.sol\":2325:2377  ERC20(this).transfer(msg.sender,amountInvestorCoins) */\n      mload(0x40)\n      dup4\n      0xffffffff\n      and\n      0xe0\n      shl\n      dup2\n      mstore\n      0x04\n      add\n      tag_323\n      swap3\n      swap2\n      swap1\n      tag_197\n      jump\t// in\n    tag_323:\n      0x20\n      mload(0x40)\n      dup1\n      dup4\n      sub\n      dup2\n      0x00\n      dup8\n      gas\n      call\n      iszero\n      dup1\n      iszero\n      tag_325\n      jumpi\n      returndatasize\n      0x00\n      dup1\n      returndatacopy\n      revert(0x00, returndatasize)\n    tag_325:\n      pop\n      pop\n      pop\n      pop\n      mload(0x40)\n      returndatasize\n      not(0x1f)\n      0x1f\n      dup3\n      add\n      and\n      dup3\n      add\n      dup1\n      0x40\n      mstore\n      pop\n      dup2\n      add\n      swap1\n      tag_326\n      swap2\n      swap1\n      tag_192\n      jump\t// in\n    tag_326:\n        /* \"contracts/BonDeFiToken.sol\":2317:2412  require(ERC20(this).transfer(msg.sender,amountInvestorCoins),\"Failed to transfer stable coins\") */\n      tag_327\n      jumpi\n      mload(0x40)\n      0x08c379a000000000000000000000000000000000000000000000000000000000\n      dup2\n      mstore\n      0x04\n      add\n      tag_328\n      swap1\n      tag_329\n      jump\t// in\n    tag_328:\n      mload(0x40)\n      dup1\n      swap2\n      sub\n      swap1\n      revert\n    tag_327:\n        /* \"contracts/BonDeFiToken.sol\":2151:2419  {... */\n      pop\n        /* \"contracts/BonDeFiToken.sol\":2093:2419  function claimInvestorFunds() public onlyRole(BOND_ISSUER){... */\n      pop\n      jump\t// out\n        /* \"@openzeppelin/contracts/access/AccessControl.sol\":4642:4780  function revokeRole(bytes32 role, address account) public virtual onlyRole(getRoleAdmin(role)) {... */\n    tag_155:\n        /* \"@openzeppelin/contracts/access/AccessControl.sol\":4717:4735  getRoleAdmin(role) */\n      tag_330\n        /* \"@openzeppelin/contracts/access/AccessControl.sol\":4730:4734  role */\n      dup3\n        /* \"@openzeppelin/contracts/access/AccessControl.sol\":4717:4729  getRoleAdmin */\n      tag_76\n        /* \"@openzeppelin/contracts/access/AccessControl.sol\":4717:4735  getRoleAdmin(role) */\n      jump\t// in\n    tag_330:\n        /* \"@openzeppelin/contracts/access/AccessControl.sol\":2464:2480  _checkRole(role) */\n      tag_332\n        /* \"@openzeppelin/contracts/access/AccessControl.sol\":2475:2479  role */\n      dup2\n        /* \"@openzeppelin/contracts/access/AccessControl.sol\":2464:2474  _checkRole */\n      tag_215\n        /* \"@openzeppelin/contracts/access/AccessControl.sol\":2464:2480  _checkRole(role) */\n      jump\t// in\n    tag_332:\n        /* \"@openzeppelin/contracts/access/AccessControl.sol\":4747:4773  _revokeRole(role, account) */\n      tag_334\n        /* \"@openzeppelin/contracts/access/AccessControl.sol\":4759:4763  role */\n      dup4\n        /* \"@openzeppelin/contracts/access/AccessControl.sol\":4765:4772  account */\n      dup4\n        /* \"@openzeppelin/contracts/access/AccessControl.sol\":4747:4758  _revokeRole */\n      tag_224\n        /* \"@openzeppelin/contracts/access/AccessControl.sol\":4747:4773  _revokeRole(role, account) */\n      jump\t// in\n    tag_334:\n      pop\n        /* \"@openzeppelin/contracts/access/AccessControl.sol\":4642:4780  function revokeRole(bytes32 role, address account) public virtual onlyRole(getRoleAdmin(role)) {... */\n      pop\n      pop\n      pop\n      jump\t// out\n        /* \"contracts/BonDeFiToken.sol\":620:657  uint256 public immutable maturityDate */\n    tag_157:\n      immutable(\"0xc6fa869c00cca07fff5e26638bf9bc331de0994499fcf1ee63eb1a2437869a1b\")\n      dup2\n      jump\t// out\n        /* \"@openzeppelin/contracts/token/ERC20/ERC20.sol\":3846:3986  function allowance(address owner, address spender) public view virtual returns (uint256) {... */\n    tag_162:\n        /* \"@openzeppelin/contracts/token/ERC20/ERC20.sol\":3926:3933  uint256 */\n      0x00\n        /* \"@openzeppelin/contracts/token/ERC20/ERC20.sol\":3952:3963  _allowances */\n      0x01\n        /* \"@openzeppelin/contracts/token/ERC20/ERC20.sol\":3952:3970  _allowances[owner] */\n      0x00\n        /* \"@openzeppelin/contracts/token/ERC20/ERC20.sol\":3964:3969  owner */\n      dup5\n        /* \"@openzeppelin/contracts/token/ERC20/ERC20.sol\":3952:3970  _allowances[owner] */\n      0xffffffffffffffffffffffffffffffffffffffff\n      and\n      0xffffffffffffffffffffffffffffffffffffffff\n      and\n      dup2\n      mstore\n      0x20\n      add\n      swap1\n      dup2\n      mstore\n      0x20\n      add\n      0x00\n      keccak256\n        /* \"@openzeppelin/contracts/token/ERC20/ERC20.sol\":3952:3979  _allowances[owner][spender] */\n      0x00\n        /* \"@openzeppelin/contracts/token/ERC20/ERC20.sol\":3971:3978  spender */\n      dup4\n        /* \"@openzeppelin/contracts/token/ERC20/ERC20.sol\":3952:3979  _allowances[owner][spender] */\n      0xffffffffffffffffffffffffffffffffffffffff\n      and\n      0xffffffffffffffffffffffffffffffffffffffff\n      and\n      dup2\n      mstore\n      0x20\n      add\n      swap1\n      dup2\n      mstore\n      0x20\n      add\n      0x00\n      keccak256\n      sload\n        /* \"@openzeppelin/contracts/token/ERC20/ERC20.sol\":3945:3979  return _allowances[owner][spender] */\n      swap1\n      pop\n        /* \"@openzeppelin/contracts/token/ERC20/ERC20.sol\":3846:3986  function allowance(address owner, address spender) public view virtual returns (uint256) {... */\n      swap3\n      swap2\n      pop\n      pop\n      jump\t// out\n        /* \"contracts/BonDeFiToken.sol\":511:573  bytes32 public constant BOND_ISSUER = keccak256(\"BOND_ISSUER\") */\n    tag_165:\n        /* \"contracts/BonDeFiToken.sol\":549:573  keccak256(\"BOND_ISSUER\") */\n      0xf877234297ef562d54f0328f892acfc1d6c1e44ca89f02e3a2c2a4736f6095b7\n        /* \"contracts/BonDeFiToken.sol\":511:573  bytes32 public constant BOND_ISSUER = keccak256(\"BOND_ISSUER\") */\n      dup2\n      jump\t// out\n        /* \"contracts/BonDeFiToken.sol\":1477:1675  function distributeInterest(address tokenHolder,uint256 amount) public onlyRole(ADMIN){... */\n    tag_169:\n        /* \"contracts/BonDeFiToken.sol\":487:505  keccak256(\"ADMIN\") */\n      0xdf8b4c520ffe197c5343c6f5aec59570151ef9a492f2c624fd45ddde6135ec42\n        /* \"@openzeppelin/contracts/access/AccessControl.sol\":2464:2480  _checkRole(role) */\n      tag_337\n        /* \"@openzeppelin/contracts/access/AccessControl.sol\":2475:2479  role */\n      dup2\n        /* \"@openzeppelin/contracts/access/AccessControl.sol\":2464:2474  _checkRole */\n      tag_215\n        /* \"@openzeppelin/contracts/access/AccessControl.sol\":2464:2480  _checkRole(role) */\n      jump\t// in\n    tag_337:\n        /* \"contracts/BonDeFiToken.sol\":1588:1601  interestToken */\n      0x07\n      0x00\n      swap1\n      sload\n      swap1\n      0x0100\n      exp\n      swap1\n      div\n      0xffffffffffffffffffffffffffffffffffffffff\n      and\n        /* \"contracts/BonDeFiToken.sol\":1581:1615  IERC20(interestToken).transferFrom */\n      0xffffffffffffffffffffffffffffffffffffffff\n      and\n      0x23b872dd\n        /* \"contracts/BonDeFiToken.sol\":1616:1629  interestToken */\n      0x07\n      0x00\n      swap1\n      sload\n      swap1\n      0x0100\n      exp\n      swap1\n      div\n      0xffffffffffffffffffffffffffffffffffffffff\n      and\n        /* \"contracts/BonDeFiToken.sol\":1630:1641  tokenHolder */\n      dup6\n        /* \"contracts/BonDeFiToken.sol\":1642:1648  amount */\n      dup6\n        /* \"contracts/BonDeFiToken.sol\":1581:1649  IERC20(interestToken).transferFrom(interestToken,tokenHolder,amount) */\n      mload(0x40)\n      dup5\n      0xffffffff\n      and\n      0xe0\n      shl\n      dup2\n      mstore\n      0x04\n      add\n      tag_339\n      swap4\n      swap3\n      swap2\n      swap1\n      tag_188\n      jump\t// in\n    tag_339:\n      0x20\n      mload(0x40)\n      dup1\n      dup4\n      sub\n      dup2\n      0x00\n      dup8\n      gas\n      call\n      iszero\n      dup1\n      iszero\n      tag_341\n      jumpi\n      returndatasize\n      0x00\n      dup1\n      returndatacopy\n      revert(0x00, returndatasize)\n    tag_341:\n      pop\n      pop\n      pop\n      pop\n      mload(0x40)\n      returndatasize\n      not(0x1f)\n      0x1f\n      dup3\n      add\n      and\n      dup3\n      add\n      dup1\n      0x40\n      mstore\n      pop\n      dup2\n      add\n      swap1\n      tag_342\n      swap2\n      swap1\n      tag_192\n      jump\t// in\n    tag_342:\n        /* \"contracts/BonDeFiToken.sol\":1573:1668  require(IERC20(interestToken).transferFrom(interestToken,tokenHolder,amount),\"Transfer failed\") */\n      tag_343\n      jumpi\n      mload(0x40)\n      0x08c379a000000000000000000000000000000000000000000000000000000000\n      dup2\n      mstore\n      0x04\n      add\n      tag_344\n      swap1\n      tag_271\n      jump\t// in\n    tag_344:\n      mload(0x40)\n      dup1\n      swap2\n      sub\n      swap1\n      revert\n    tag_343:\n        /* \"contracts/BonDeFiToken.sol\":1477:1675  function distributeInterest(address tokenHolder,uint256 amount) public onlyRole(ADMIN){... */\n      pop\n      pop\n      pop\n      jump\t// out\n        /* \"@openzeppelin/contracts/utils/introspection/ERC165.sol\":762:908  function supportsInterface(bytes4 interfaceId) public view virtual returns (bool) {... */\n    tag_173:\n        /* \"@openzeppelin/contracts/utils/introspection/ERC165.sol\":838:842  bool */\n      0x00\n        /* \"@openzeppelin/contracts/utils/introspection/ERC165.sol\":876:901  type(IERC165).interfaceId */\n      0x01ffc9a700000000000000000000000000000000000000000000000000000000\n        /* \"@openzeppelin/contracts/utils/introspection/ERC165.sol\":861:901  interfaceId == type(IERC165).interfaceId */\n      not(0xffffffffffffffffffffffffffffffffffffffffffffffffffffffff)\n      and\n        /* \"@openzeppelin/contracts/utils/introspection/ERC165.sol\":861:872  interfaceId */\n      dup3\n        /* \"@openzeppelin/contracts/utils/introspection/ERC165.sol\":861:901  interfaceId == type(IERC165).interfaceId */\n      not(0xffffffffffffffffffffffffffffffffffffffffffffffffffffffff)\n      and\n      eq\n        /* \"@openzeppelin/contracts/utils/introspection/ERC165.sol\":854:901  return interfaceId == type(IERC165).interfaceId */\n      swap1\n      pop\n        /* \"@openzeppelin/contracts/utils/introspection/ERC165.sol\":762:908  function supportsInterface(bytes4 interfaceId) public view virtual returns (bool) {... */\n      swap2\n      swap1\n      pop\n      jump\t// out\n        /* \"@openzeppelin/contracts/utils/Context.sol\":656:752  function _msgSender() internal view virtual returns (address) {... */\n    tag_183:\n        /* \"@openzeppelin/contracts/utils/Context.sol\":709:716  address */\n      0x00\n        /* \"@openzeppelin/contracts/utils/Context.sol\":735:745  msg.sender */\n      caller\n        /* \"@openzeppelin/contracts/utils/Context.sol\":728:745  return msg.sender */\n      swap1\n      pop\n        /* \"@openzeppelin/contracts/utils/Context.sol\":656:752  function _msgSender() internal view virtual returns (address) {... */\n      swap1\n      jump\t// out\n        /* \"@openzeppelin/contracts/token/ERC20/ERC20.sol\":8989:9117  function _approve(address owner, address spender, uint256 value) internal {... */\n    tag_185:\n        /* \"@openzeppelin/contracts/token/ERC20/ERC20.sol\":9073:9110  _approve(owner, spender, value, true) */\n      tag_348\n        /* \"@openzeppelin/contracts/token/ERC20/ERC20.sol\":9082:9087  owner */\n      dup4\n        /* \"@openzeppelin/contracts/token/ERC20/ERC20.sol\":9089:9096  spender */\n      dup4\n        /* \"@openzeppelin/contracts/token/ERC20/ERC20.sol\":9098:9103  value */\n      dup4\n        /* \"@openzeppelin/contracts/token/ERC20/ERC20.sol\":9105:9109  true */\n      0x01\n        /* \"@openzeppelin/contracts/token/ERC20/ERC20.sol\":9073:9081  _approve */\n      tag_349\n        /* \"@openzeppelin/contracts/token/ERC20/ERC20.sol\":9073:9110  _approve(owner, spender, value, true) */\n      jump\t// in\n    tag_348:\n        /* \"@openzeppelin/contracts/token/ERC20/ERC20.sol\":8989:9117  function _approve(address owner, address spender, uint256 value) internal {... */\n      pop\n      pop\n      pop\n      jump\t// out\n        /* \"@openzeppelin/contracts/token/ERC20/ERC20.sol\":10663:11140  function _spendAllowance(address owner, address spender, uint256 value) internal virtual {... */\n    tag_208:\n        /* \"@openzeppelin/contracts/token/ERC20/ERC20.sol\":10762:10786  uint256 currentAllowance */\n      0x00\n        /* \"@openzeppelin/contracts/token/ERC20/ERC20.sol\":10789:10814  allowance(owner, spender) */\n      tag_351\n        /* \"@openzeppelin/contracts/token/ERC20/ERC20.sol\":10799:10804  owner */\n      dup5\n        /* \"@openzeppelin/contracts/token/ERC20/ERC20.sol\":10806:10813  spender */\n      dup5\n        /* \"@openzeppelin/contracts/token/ERC20/ERC20.sol\":10789:10798  allowance */\n      tag_162\n        /* \"@openzeppelin/contracts/token/ERC20/ERC20.sol\":10789:10814  allowance(owner, spender) */\n      jump\t// in\n    tag_351:\n        /* \"@openzeppelin/contracts/token/ERC20/ERC20.sol\":10762:10814  uint256 currentAllowance = allowance(owner, spender) */\n      swap1\n      pop\n        /* \"@openzeppelin/contracts/token/ERC20/ERC20.sol\":10848:10865  type(uint256).max */\n      0xffffffffffffffffffffffffffffffffffffffffffffffffffffffffffffffff\n        /* \"@openzeppelin/contracts/token/ERC20/ERC20.sol\":10828:10844  currentAllowance */\n      dup2\n        /* \"@openzeppelin/contracts/token/ERC20/ERC20.sol\":10828:10865  currentAllowance != type(uint256).max */\n      eq\n        /* \"@openzeppelin/contracts/token/ERC20/ERC20.sol\":10824:11134  if (currentAllowance != type(uint256).max) {... */\n      tag_352\n      jumpi\n        /* \"@openzeppelin/contracts/token/ERC20/ERC20.sol\":10904:10909  value */\n      dup2\n        /* \"@openzeppelin/contracts/token/ERC20/ERC20.sol\":10885:10901  currentAllowance */\n      dup2\n        /* \"@openzeppelin/contracts/token/ERC20/ERC20.sol\":10885:10909  currentAllowance < value */\n      lt\n        /* \"@openzeppelin/contracts/token/ERC20/ERC20.sol\":10881:11011  if (currentAllowance < value) {... */\n      iszero\n      tag_353\n      jumpi\n        /* \"@openzeppelin/contracts/token/ERC20/ERC20.sol\":10963:10970  spender */\n      dup3\n        /* \"@openzeppelin/contracts/token/ERC20/ERC20.sol\":10972:10988  currentAllowance */\n      dup2\n        /* \"@openzeppelin/contracts/token/ERC20/ERC20.sol\":10990:10995  value */\n      dup4\n        /* \"@openzeppelin/contracts/token/ERC20/ERC20.sol\":10936:10996  ERC20InsufficientAllowance(spender, currentAllowance, value) */\n      mload(0x40)\n      0xfb8f41b200000000000000000000000000000000000000000000000000000000\n      dup2\n      mstore\n      0x04\n      add\n      tag_354\n      swap4\n      swap3\n      swap2\n      swap1\n      tag_355\n      jump\t// in\n    tag_354:\n      mload(0x40)\n      dup1\n      swap2\n      sub\n      swap1\n      revert\n        /* \"@openzeppelin/contracts/token/ERC20/ERC20.sol\":10881:11011  if (currentAllowance < value) {... */\n    tag_353:\n        /* \"@openzeppelin/contracts/token/ERC20/ERC20.sol\":11052:11109  _approve(owner, spender, currentAllowance - value, false) */\n      tag_356\n        /* \"@openzeppelin/contracts/token/ERC20/ERC20.sol\":11061:11066  owner */\n      dup5\n        /* \"@openzeppelin/contracts/token/ERC20/ERC20.sol\":11068:11075  spender */\n      dup5\n        /* \"@openzeppelin/contracts/token/ERC20/ERC20.sol\":11096:11101  value */\n      dup5\n        /* \"@openzeppelin/contracts/token/ERC20/ERC20.sol\":11077:11093  currentAllowance */\n      dup5\n        /* \"@openzeppelin/contracts/token/ERC20/ERC20.sol\":11077:11101  currentAllowance - value */\n      sub\n        /* \"@openzeppelin/contracts/token/ERC20/ERC20.sol\":11103:11108  false */\n      0x00\n        /* \"@openzeppelin/contracts/token/ERC20/ERC20.sol\":11052:11060  _approve */\n      tag_349\n        /* \"@openzeppelin/contracts/token/ERC20/ERC20.sol\":11052:11109  _approve(owner, spender, currentAllowance - value, false) */\n      jump\t// in\n    tag_356:\n        /* \"@openzeppelin/contracts/token/ERC20/ERC20.sol\":10824:11134  if (currentAllowance != type(uint256).max) {... */\n    tag_352:\n        /* \"@openzeppelin/contracts/token/ERC20/ERC20.sol\":10752:11140  {... */\n      pop\n        /* \"@openzeppelin/contracts/token/ERC20/ERC20.sol\":10663:11140  function _spendAllowance(address owner, address spender, uint256 value) internal virtual {... */\n      pop\n      pop\n      pop\n      jump\t// out\n        /* \"@openzeppelin/contracts/token/ERC20/ERC20.sol\":5656:5956  function _transfer(address from, address to, uint256 value) internal {... */\n    tag_210:\n        /* \"@openzeppelin/contracts/token/ERC20/ERC20.sol\":5755:5756  0 */\n      0x00\n        /* \"@openzeppelin/contracts/token/ERC20/ERC20.sol\":5739:5757  from == address(0) */\n      0xffffffffffffffffffffffffffffffffffffffff\n      and\n        /* \"@openzeppelin/contracts/token/ERC20/ERC20.sol\":5739:5743  from */\n      dup4\n        /* \"@openzeppelin/contracts/token/ERC20/ERC20.sol\":5739:5757  from == address(0) */\n      0xffffffffffffffffffffffffffffffffffffffff\n      and\n      sub\n        /* \"@openzeppelin/contracts/token/ERC20/ERC20.sol\":5735:5821  if (from == address(0)) {... */\n      tag_358\n      jumpi\n        /* \"@openzeppelin/contracts/token/ERC20/ERC20.sol\":5807:5808  0 */\n      0x00\n        /* \"@openzeppelin/contracts/token/ERC20/ERC20.sol\":5780:5810  ERC20InvalidSender(address(0)) */\n      mload(0x40)\n      0x96c6fd1e00000000000000000000000000000000000000000000000000000000\n      dup2\n      mstore\n      0x04\n      add\n      tag_359\n      swap2\n      swap1\n      tag_109\n      jump\t// in\n    tag_359:\n      mload(0x40)\n      dup1\n      swap2\n      sub\n      swap1\n      revert\n        /* \"@openzeppelin/contracts/token/ERC20/ERC20.sol\":5735:5821  if (from == address(0)) {... */\n    tag_358:\n        /* \"@openzeppelin/contracts/token/ERC20/ERC20.sol\":5848:5849  0 */\n      0x00\n        /* \"@openzeppelin/contracts/token/ERC20/ERC20.sol\":5834:5850  to == address(0) */\n      0xffffffffffffffffffffffffffffffffffffffff\n      and\n        /* \"@openzeppelin/contracts/token/ERC20/ERC20.sol\":5834:5836  to */\n      dup3\n        /* \"@openzeppelin/contracts/token/ERC20/ERC20.sol\":5834:5850  to == address(0) */\n      0xffffffffffffffffffffffffffffffffffffffff\n      and\n      sub\n        /* \"@openzeppelin/contracts/token/ERC20/ERC20.sol\":5830:5916  if (to == address(0)) {... */\n      tag_360\n      jumpi\n        /* \"@openzeppelin/contracts/token/ERC20/ERC20.sol\":5902:5903  0 */\n      0x00\n        /* \"@openzeppelin/contracts/token/ERC20/ERC20.sol\":5873:5905  ERC20InvalidReceiver(address(0)) */\n      mload(0x40)\n      0xec442f0500000000000000000000000000000000000000000000000000000000\n      dup2\n      mstore\n      0x04\n      add\n      tag_361\n      swap2\n      swap1\n      tag_109\n      jump\t// in\n    tag_361:\n      mload(0x40)\n      dup1\n      swap2\n      sub\n      swap1\n      revert\n        /* \"@openzeppelin/contracts/token/ERC20/ERC20.sol\":5830:5916  if (to == address(0)) {... */\n    tag_360:\n        /* \"@openzeppelin/contracts/token/ERC20/ERC20.sol\":5925:5949  _update(from, to, value) */\n      tag_362\n        /* \"@openzeppelin/contracts/token/ERC20/ERC20.sol\":5933:5937  from */\n      dup4\n        /* \"@openzeppelin/contracts/token/ERC20/ERC20.sol\":5939:5941  to */\n      dup4\n        /* \"@openzeppelin/contracts/token/ERC20/ERC20.sol\":5943:5948  value */\n      dup4\n        /* \"@openzeppelin/contracts/token/ERC20/ERC20.sol\":5925:5932  _update */\n      tag_363\n        /* \"@openzeppelin/contracts/token/ERC20/ERC20.sol\":5925:5949  _update(from, to, value) */\n      jump\t// in\n    tag_362:\n        /* \"@openzeppelin/contracts/token/ERC20/ERC20.sol\":5656:5956  function _transfer(address from, address to, uint256 value) internal {... */\n      pop\n      pop\n      pop\n      jump\t// out\n        /* \"@openzeppelin/contracts/access/AccessControl.sol\":3199:3302  function _checkRole(bytes32 role) internal view virtual {... */\n    tag_215:\n        /* \"@openzeppelin/contracts/access/AccessControl.sol\":3265:3295  _checkRole(role, _msgSender()) */\n      tag_365\n        /* \"@openzeppelin/contracts/access/AccessControl.sol\":3276:3280  role */\n      dup2\n        /* \"@openzeppelin/contracts/access/AccessControl.sol\":3282:3294  _msgSender() */\n      tag_366\n        /* \"@openzeppelin/contracts/access/AccessControl.sol\":3282:3292  _msgSender */\n      tag_183\n        /* \"@openzeppelin/contracts/access/AccessControl.sol\":3282:3294  _msgSender() */\n      jump\t// in\n    tag_366:\n        /* \"@openzeppelin/contracts/access/AccessControl.sol\":3265:3275  _checkRole */\n      tag_367\n        /* \"@openzeppelin/contracts/access/AccessControl.sol\":3265:3295  _checkRole(role, _msgSender()) */\n      jump\t// in\n    tag_365:\n        /* \"@openzeppelin/contracts/access/AccessControl.sol\":3199:3302  function _checkRole(bytes32 role) internal view virtual {... */\n      pop\n      jump\t// out\n        /* \"@openzeppelin/contracts/access/AccessControl.sol\":6179:6495  function _grantRole(bytes32 role, address account) internal virtual returns (bool) {... */\n    tag_218:\n        /* \"@openzeppelin/contracts/access/AccessControl.sol\":6256:6260  bool */\n      0x00\n        /* \"@openzeppelin/contracts/access/AccessControl.sol\":6277:6299  hasRole(role, account) */\n      tag_369\n        /* \"@openzeppelin/contracts/access/AccessControl.sol\":6285:6289  role */\n      dup4\n        /* \"@openzeppelin/contracts/access/AccessControl.sol\":6291:6298  account */\n      dup4\n        /* \"@openzeppelin/contracts/access/AccessControl.sol\":6277:6284  hasRole */\n      tag_124\n        /* \"@openzeppelin/contracts/access/AccessControl.sol\":6277:6299  hasRole(role, account) */\n      jump\t// in\n    tag_369:\n        /* \"@openzeppelin/contracts/access/AccessControl.sol\":6272:6489  if (!hasRole(role, account)) {... */\n      tag_370\n      jumpi\n        /* \"@openzeppelin/contracts/access/AccessControl.sol\":6347:6351  true */\n      0x01\n        /* \"@openzeppelin/contracts/access/AccessControl.sol\":6315:6321  _roles */\n      0x06\n        /* \"@openzeppelin/contracts/access/AccessControl.sol\":6315:6327  _roles[role] */\n      0x00\n        /* \"@openzeppelin/contracts/access/AccessControl.sol\":6322:6326  role */\n      dup6\n        /* \"@openzeppelin/contracts/access/AccessControl.sol\":6315:6327  _roles[role] */\n      dup2\n      mstore\n      0x20\n      add\n      swap1\n      dup2\n      mstore\n      0x20\n      add\n      0x00\n      keccak256\n        /* \"@openzeppelin/contracts/access/AccessControl.sol\":6315:6335  _roles[role].hasRole */\n      0x00\n      add\n        /* \"@openzeppelin/contracts/access/AccessControl.sol\":6315:6344  _roles[role].hasRole[account] */\n      0x00\n        /* \"@openzeppelin/contracts/access/AccessControl.sol\":6336:6343  account */\n      dup5\n        /* \"@openzeppelin/contracts/access/AccessControl.sol\":6315:6344  _roles[role].hasRole[account] */\n      0xffffffffffffffffffffffffffffffffffffffff\n      and\n      0xffffffffffffffffffffffffffffffffffffffff\n      and\n      dup2\n      mstore\n      0x20\n      add\n      swap1\n      dup2\n      mstore\n      0x20\n      add\n      0x00\n      keccak256\n      0x00\n        /* \"@openzeppelin/contracts/access/AccessControl.sol\":6315:6351  _roles[role].hasRole[account] = true */\n      0x0100\n      exp\n      dup2\n      sload\n      dup2\n      0xff\n      mul\n      not\n      and\n      swap1\n      dup4\n      iszero\n      iszero\n      mul\n      or\n      swap1\n      sstore\n      pop\n        /* \"@openzeppelin/contracts/access/AccessControl.sol\":6397:6409  _msgSender() */\n      tag_371\n        /* \"@openzeppelin/contracts/access/AccessControl.sol\":6397:6407  _msgSender */\n      tag_183\n        /* \"@openzeppelin/contracts/access/AccessControl.sol\":6397:6409  _msgSender() */\n      jump\t// in\n    tag_371:\n        /* \"@openzeppelin/contracts/access/AccessControl.sol\":6370:6410  RoleGranted(role, account, _msgSender()) */\n      0xffffffffffffffffffffffffffffffffffffffff\n      and\n        /* \"@openzeppelin/contracts/access/AccessControl.sol\":6388:6395  account */\n      dup3\n        /* \"@openzeppelin/contracts/access/AccessControl.sol\":6370:6410  RoleGranted(role, account, _msgSender()) */\n      0xffffffffffffffffffffffffffffffffffffffff\n      and\n        /* \"@openzeppelin/contracts/access/AccessControl.sol\":6382:6386  role */\n      dup5\n        /* \"@openzeppelin/contracts/access/AccessControl.sol\":6370:6410  RoleGranted(role, account, _msgSender()) */\n      0x2f8788117e7eff1d82e926ec794901d17c78024a50270940304540a733656f0d\n      mload(0x40)\n      mload(0x40)\n      dup1\n      swap2\n      sub\n      swap1\n      log4\n        /* \"@openzeppelin/contracts/access/AccessControl.sol\":6431:6435  true */\n      0x01\n        /* \"@openzeppelin/contracts/access/AccessControl.sol\":6424:6435  return true */\n      swap1\n      pop\n      jump(tag_368)\n        /* \"@openzeppelin/contracts/access/AccessControl.sol\":6272:6489  if (!hasRole(role, account)) {... */\n    tag_370:\n        /* \"@openzeppelin/contracts/access/AccessControl.sol\":6473:6478  false */\n      0x00\n        /* \"@openzeppelin/contracts/access/AccessControl.sol\":6466:6478  return false */\n      swap1\n      pop\n        /* \"@openzeppelin/contracts/access/AccessControl.sol\":6179:6495  function _grantRole(bytes32 role, address account) internal virtual returns (bool) {... */\n    tag_368:\n      swap3\n      swap2\n      pop\n      pop\n      jump\t// out\n        /* \"@openzeppelin/contracts/access/AccessControl.sol\":6730:7047  function _revokeRole(bytes32 role, address account) internal virtual returns (bool) {... */\n    tag_224:\n        /* \"@openzeppelin/contracts/access/AccessControl.sol\":6808:6812  bool */\n      0x00\n        /* \"@openzeppelin/contracts/access/AccessControl.sol\":6828:6850  hasRole(role, account) */\n      tag_374\n        /* \"@openzeppelin/contracts/access/AccessControl.sol\":6836:6840  role */\n      dup4\n        /* \"@openzeppelin/contracts/access/AccessControl.sol\":6842:6849  account */\n      dup4\n        /* \"@openzeppelin/contracts/access/AccessControl.sol\":6828:6835  hasRole */\n      tag_124\n        /* \"@openzeppelin/contracts/access/AccessControl.sol\":6828:6850  hasRole(role, account) */\n      jump\t// in\n    tag_374:\n        /* \"@openzeppelin/contracts/access/AccessControl.sol\":6824:7041  if (hasRole(role, account)) {... */\n      iszero\n      tag_375\n      jumpi\n        /* \"@openzeppelin/contracts/access/AccessControl.sol\":6898:6903  false */\n      0x00\n        /* \"@openzeppelin/contracts/access/AccessControl.sol\":6866:6872  _roles */\n      0x06\n        /* \"@openzeppelin/contracts/access/AccessControl.sol\":6866:6878  _roles[role] */\n      0x00\n        /* \"@openzeppelin/contracts/access/AccessControl.sol\":6873:6877  role */\n      dup6\n        /* \"@openzeppelin/contracts/access/AccessControl.sol\":6866:6878  _roles[role] */\n      dup2\n      mstore\n      0x20\n      add\n      swap1\n      dup2\n      mstore\n      0x20\n      add\n      0x00\n      keccak256\n        /* \"@openzeppelin/contracts/access/AccessControl.sol\":6866:6886  _roles[role].hasRole */\n      0x00\n      add\n        /* \"@openzeppelin/contracts/access/AccessControl.sol\":6866:6895  _roles[role].hasRole[account] */\n      0x00\n        /* \"@openzeppelin/contracts/access/AccessControl.sol\":6887:6894  account */\n      dup5\n        /* \"@openzeppelin/contracts/access/AccessControl.sol\":6866:6895  _roles[role].hasRole[account] */\n      0xffffffffffffffffffffffffffffffffffffffff\n      and\n      0xffffffffffffffffffffffffffffffffffffffff\n      and\n      dup2\n      mstore\n      0x20\n      add\n      swap1\n      dup2\n      mstore\n      0x20\n      add\n      0x00\n      keccak256\n      0x00\n        /* \"@openzeppelin/contracts/access/AccessControl.sol\":6866:6903  _roles[role].hasRole[account] = false */\n      0x0100\n      exp\n      dup2\n      sload\n      dup2\n      0xff\n      mul\n      not\n      and\n      swap1\n      dup4\n      iszero\n      iszero\n      mul\n      or\n      swap1\n      sstore\n      pop\n        /* \"@openzeppelin/contracts/access/AccessControl.sol\":6949:6961  _msgSender() */\n      tag_376\n        /* \"@openzeppelin/contracts/access/AccessControl.sol\":6949:6959  _msgSender */\n      tag_183\n        /* \"@openzeppelin/contracts/access/AccessControl.sol\":6949:6961  _msgSender() */\n      jump\t// in\n    tag_376:\n        /* \"@openzeppelin/contracts/access/AccessControl.sol\":6922:6962  RoleRevoked(role, account, _msgSender()) */\n      0xffffffffffffffffffffffffffffffffffffffff\n      and\n        /* \"@openzeppelin/contracts/access/AccessControl.sol\":6940:6947  account */\n      dup3\n        /* \"@openzeppelin/contracts/access/AccessControl.sol\":6922:6962  RoleRevoked(role, account, _msgSender()) */\n      0xffffffffffffffffffffffffffffffffffffffff\n      and\n        /* \"@openzeppelin/contracts/access/AccessControl.sol\":6934:6938  role */\n      dup5\n        /* \"@openzeppelin/contracts/access/AccessControl.sol\":6922:6962  RoleRevoked(role, account, _msgSender()) */\n      0xf6391f5c32d9c69d2a47ea670b442974b53935d1edc7fd64eb21e047a839171b\n      mload(0x40)\n      mload(0x40)\n      dup1\n      swap2\n      sub\n      swap1\n      log4\n        /* \"@openzeppelin/contracts/access/AccessControl.sol\":6983:6987  true */\n      0x01\n        /* \"@openzeppelin/contracts/access/AccessControl.sol\":6976:6987  return true */\n      swap1\n      pop\n      jump(tag_373)\n        /* \"@openzeppelin/contracts/access/AccessControl.sol\":6824:7041  if (hasRole(role, account)) {... */\n    tag_375:\n        /* \"@openzeppelin/contracts/access/AccessControl.sol\":7025:7030  false */\n      0x00\n        /* \"@openzeppelin/contracts/access/AccessControl.sol\":7018:7030  return false */\n      swap1\n      pop\n        /* \"@openzeppelin/contracts/access/AccessControl.sol\":6730:7047  function _revokeRole(bytes32 role, address account) internal virtual returns (bool) {... */\n    tag_373:\n      swap3\n      swap2\n      pop\n      pop\n      jump\t// out\n        /* \"@openzeppelin/contracts/utils/Pausable.sol\":2710:2827  function _unpause() internal virtual whenPaused {... */\n    tag_229:\n        /* \"@openzeppelin/contracts/utils/Pausable.sol\":1721:1737  _requirePaused() */\n      tag_379\n        /* \"@openzeppelin/contracts/utils/Pausable.sol\":1721:1735  _requirePaused */\n      tag_380\n        /* \"@openzeppelin/contracts/utils/Pausable.sol\":1721:1737  _requirePaused() */\n      jump\t// in\n    tag_379:\n        /* \"@openzeppelin/contracts/utils/Pausable.sol\":2778:2783  false */\n      0x00\n        /* \"@openzeppelin/contracts/utils/Pausable.sol\":2768:2775  _paused */\n      0x05\n      0x00\n        /* \"@openzeppelin/contracts/utils/Pausable.sol\":2768:2783  _paused = false */\n      0x0100\n      exp\n      dup2\n      sload\n      dup2\n      0xff\n      mul\n      not\n      and\n      swap1\n      dup4\n      iszero\n      iszero\n      mul\n      or\n      swap1\n      sstore\n      pop\n        /* \"@openzeppelin/contracts/utils/Pausable.sol\":2798:2820  Unpaused(_msgSender()) */\n      0x5db9ee0a495bf2e6ff9c91a7834c1ba4fdd244a5e8aa4e537bd38aeae4b073aa\n        /* \"@openzeppelin/contracts/utils/Pausable.sol\":2807:2819  _msgSender() */\n      tag_382\n        /* \"@openzeppelin/contracts/utils/Pausable.sol\":2807:2817  _msgSender */\n      tag_183\n        /* \"@openzeppelin/contracts/utils/Pausable.sol\":2807:2819  _msgSender() */\n      jump\t// in\n    tag_382:\n        /* \"@openzeppelin/contracts/utils/Pausable.sol\":2798:2820  Unpaused(_msgSender()) */\n      mload(0x40)\n      tag_383\n      swap2\n      swap1\n      tag_109\n      jump\t// in\n    tag_383:\n      mload(0x40)\n      dup1\n      swap2\n      sub\n      swap1\n      log1\n        /* \"@openzeppelin/contracts/utils/Pausable.sol\":2710:2827  function _unpause() internal virtual whenPaused {... */\n      jump\t// out\n        /* \"@openzeppelin/contracts/token/ERC20/ERC20.sol\":8247:8453  function _burn(address account, uint256 value) internal {... */\n    tag_233:\n        /* \"@openzeppelin/contracts/token/ERC20/ERC20.sol\":8336:8337  0 */\n      0x00\n        /* \"@openzeppelin/contracts/token/ERC20/ERC20.sol\":8317:8338  account == address(0) */\n      0xffffffffffffffffffffffffffffffffffffffff\n      and\n        /* \"@openzeppelin/contracts/token/ERC20/ERC20.sol\":8317:8324  account */\n      dup3\n        /* \"@openzeppelin/contracts/token/ERC20/ERC20.sol\":8317:8338  account == address(0) */\n      0xffffffffffffffffffffffffffffffffffffffff\n      and\n      sub\n        /* \"@openzeppelin/contracts/token/ERC20/ERC20.sol\":8313:8402  if (account == address(0)) {... */\n      tag_385\n      jumpi\n        /* \"@openzeppelin/contracts/token/ERC20/ERC20.sol\":8388:8389  0 */\n      0x00\n        /* \"@openzeppelin/contracts/token/ERC20/ERC20.sol\":8361:8391  ERC20InvalidSender(address(0)) */\n      mload(0x40)\n      0x96c6fd1e00000000000000000000000000000000000000000000000000000000\n      dup2\n      mstore\n      0x04\n      add\n      tag_386\n      swap2\n      swap1\n      tag_109\n      jump\t// in\n    tag_386:\n      mload(0x40)\n      dup1\n      swap2\n      sub\n      swap1\n      revert\n        /* \"@openzeppelin/contracts/token/ERC20/ERC20.sol\":8313:8402  if (account == address(0)) {... */\n    tag_385:\n        /* \"@openzeppelin/contracts/token/ERC20/ERC20.sol\":8411:8446  _update(account, address(0), value) */\n      tag_387\n        /* \"@openzeppelin/contracts/token/ERC20/ERC20.sol\":8419:8426  account */\n      dup3\n        /* \"@openzeppelin/contracts/token/ERC20/ERC20.sol\":8436:8437  0 */\n      0x00\n        /* \"@openzeppelin/contracts/token/ERC20/ERC20.sol\":8440:8445  value */\n      dup4\n        /* \"@openzeppelin/contracts/token/ERC20/ERC20.sol\":8411:8418  _update */\n      tag_363\n        /* \"@openzeppelin/contracts/token/ERC20/ERC20.sol\":8411:8446  _update(account, address(0), value) */\n      jump\t// in\n    tag_387:\n        /* \"@openzeppelin/contracts/token/ERC20/ERC20.sol\":8247:8453  function _burn(address account, uint256 value) internal {... */\n      pop\n      pop\n      jump\t// out\n        /* \"@openzeppelin/contracts/utils/Pausable.sol\":2463:2578  function _pause() internal virtual whenNotPaused {... */\n    tag_244:\n        /* \"@openzeppelin/contracts/utils/Pausable.sol\":1474:1493  _requireNotPaused() */\n      tag_389\n        /* \"@openzeppelin/contracts/utils/Pausable.sol\":1474:1491  _requireNotPaused */\n      tag_390\n        /* \"@openzeppelin/contracts/utils/Pausable.sol\":1474:1493  _requireNotPaused() */\n      jump\t// in\n    tag_389:\n        /* \"@openzeppelin/contracts/utils/Pausable.sol\":2532:2536  true */\n      0x01\n        /* \"@openzeppelin/contracts/utils/Pausable.sol\":2522:2529  _paused */\n      0x05\n      0x00\n        /* \"@openzeppelin/contracts/utils/Pausable.sol\":2522:2536  _paused = true */\n      0x0100\n      exp\n      dup2\n      sload\n      dup2\n      0xff\n      mul\n      not\n      and\n      swap1\n      dup4\n      iszero\n      iszero\n      mul\n      or\n      swap1\n      sstore\n      pop\n        /* \"@openzeppelin/contracts/utils/Pausable.sol\":2551:2571  Paused(_msgSender()) */\n      0x62e78cea01bee320cd4e420270b5ea74000d11b0c9f74754ebdbfc544b05a258\n        /* \"@openzeppelin/contracts/utils/Pausable.sol\":2558:2570  _msgSender() */\n      tag_392\n        /* \"@openzeppelin/contracts/utils/Pausable.sol\":2558:2568  _msgSender */\n      tag_183\n        /* \"@openzeppelin/contracts/utils/Pausable.sol\":2558:2570  _msgSender() */\n      jump\t// in\n    tag_392:\n        /* \"@openzeppelin/contracts/utils/Pausable.sol\":2551:2571  Paused(_msgSender()) */\n      mload(0x40)\n      tag_393\n      swap2\n      swap1\n      tag_109\n      jump\t// in\n    tag_393:\n      mload(0x40)\n      dup1\n      swap2\n      sub\n      swap1\n      log1\n        /* \"@openzeppelin/contracts/utils/Pausable.sol\":2463:2578  function _pause() internal virtual whenNotPaused {... */\n      jump\t// out\n        /* \"@openzeppelin/contracts/token/ERC20/ERC20.sol\":9949:10381  function _approve(address owner, address spender, uint256 value, bool emitEvent) internal virtual {... */\n    tag_349:\n        /* \"@openzeppelin/contracts/token/ERC20/ERC20.sol\":10078:10079  0 */\n      0x00\n        /* \"@openzeppelin/contracts/token/ERC20/ERC20.sol\":10061:10080  owner == address(0) */\n      0xffffffffffffffffffffffffffffffffffffffff\n      and\n        /* \"@openzeppelin/contracts/token/ERC20/ERC20.sol\":10061:10066  owner */\n      dup5\n        /* \"@openzeppelin/contracts/token/ERC20/ERC20.sol\":10061:10080  owner == address(0) */\n      0xffffffffffffffffffffffffffffffffffffffff\n      and\n      sub\n        /* \"@openzeppelin/contracts/token/ERC20/ERC20.sol\":10057:10146  if (owner == address(0)) {... */\n      tag_395\n      jumpi\n        /* \"@openzeppelin/contracts/token/ERC20/ERC20.sol\":10132:10133  0 */\n      0x00\n        /* \"@openzeppelin/contracts/token/ERC20/ERC20.sol\":10103:10135  ERC20InvalidApprover(address(0)) */\n      mload(0x40)\n      0xe602df0500000000000000000000000000000000000000000000000000000000\n      dup2\n      mstore\n      0x04\n      add\n      tag_396\n      swap2\n      swap1\n      tag_109\n      jump\t// in\n    tag_396:\n      mload(0x40)\n      dup1\n      swap2\n      sub\n      swap1\n      revert\n        /* \"@openzeppelin/contracts/token/ERC20/ERC20.sol\":10057:10146  if (owner == address(0)) {... */\n    tag_395:\n        /* \"@openzeppelin/contracts/token/ERC20/ERC20.sol\":10178:10179  0 */\n      0x00\n        /* \"@openzeppelin/contracts/token/ERC20/ERC20.sol\":10159:10180  spender == address(0) */\n      0xffffffffffffffffffffffffffffffffffffffff\n      and\n        /* \"@openzeppelin/contracts/token/ERC20/ERC20.sol\":10159:10166  spender */\n      dup4\n        /* \"@openzeppelin/contracts/token/ERC20/ERC20.sol\":10159:10180  spender == address(0) */\n      0xffffffffffffffffffffffffffffffffffffffff\n      and\n      sub\n        /* \"@openzeppelin/contracts/token/ERC20/ERC20.sol\":10155:10245  if (spender == address(0)) {... */\n      tag_397\n      jumpi\n        /* \"@openzeppelin/contracts/token/ERC20/ERC20.sol\":10231:10232  0 */\n      0x00\n        /* \"@openzeppelin/contracts/token/ERC20/ERC20.sol\":10203:10234  ERC20InvalidSpender(address(0)) */\n      mload(0x40)\n      0x94280d6200000000000000000000000000000000000000000000000000000000\n      dup2\n      mstore\n      0x04\n      add\n      tag_398\n      swap2\n      swap1\n      tag_109\n      jump\t// in\n    tag_398:\n      mload(0x40)\n      dup1\n      swap2\n      sub\n      swap1\n      revert\n        /* \"@openzeppelin/contracts/token/ERC20/ERC20.sol\":10155:10245  if (spender == address(0)) {... */\n    tag_397:\n        /* \"@openzeppelin/contracts/token/ERC20/ERC20.sol\":10284:10289  value */\n      dup2\n        /* \"@openzeppelin/contracts/token/ERC20/ERC20.sol\":10254:10265  _allowances */\n      0x01\n        /* \"@openzeppelin/contracts/token/ERC20/ERC20.sol\":10254:10272  _allowances[owner] */\n      0x00\n        /* \"@openzeppelin/contracts/token/ERC20/ERC20.sol\":10266:10271  owner */\n      dup7\n        /* \"@openzeppelin/contracts/token/ERC20/ERC20.sol\":10254:10272  _allowances[owner] */\n      0xffffffffffffffffffffffffffffffffffffffff\n      and\n      0xffffffffffffffffffffffffffffffffffffffff\n      and\n      dup2\n      mstore\n      0x20\n      add\n      swap1\n      dup2\n      mstore\n      0x20\n      add\n      0x00\n      keccak256\n        /* \"@openzeppelin/contracts/token/ERC20/ERC20.sol\":10254:10281  _allowances[owner][spender] */\n      0x00\n        /* \"@openzeppelin/contracts/token/ERC20/ERC20.sol\":10273:10280  spender */\n      dup6\n        /* \"@openzeppelin/contracts/token/ERC20/ERC20.sol\":10254:10281  _allowances[owner][spender] */\n      0xffffffffffffffffffffffffffffffffffffffff\n      and\n      0xffffffffffffffffffffffffffffffffffffffff\n      and\n      dup2\n      mstore\n      0x20\n      add\n      swap1\n      dup2\n      mstore\n      0x20\n      add\n      0x00\n      keccak256\n        /* \"@openzeppelin/contracts/token/ERC20/ERC20.sol\":10254:10289  _allowances[owner][spender] = value */\n      dup2\n      swap1\n      sstore\n      pop\n        /* \"@openzeppelin/contracts/token/ERC20/ERC20.sol\":10303:10312  emitEvent */\n      dup1\n        /* \"@openzeppelin/contracts/token/ERC20/ERC20.sol\":10299:10375  if (emitEvent) {... */\n      iszero\n      tag_399\n      jumpi\n        /* \"@openzeppelin/contracts/token/ERC20/ERC20.sol\":10349:10356  spender */\n      dup3\n        /* \"@openzeppelin/contracts/token/ERC20/ERC20.sol\":10333:10364  Approval(owner, spender, value) */\n      0xffffffffffffffffffffffffffffffffffffffff\n      and\n        /* \"@openzeppelin/contracts/token/ERC20/ERC20.sol\":10342:10347  owner */\n      dup5\n        /* \"@openzeppelin/contracts/token/ERC20/ERC20.sol\":10333:10364  Approval(owner, spender, value) */\n      0xffffffffffffffffffffffffffffffffffffffff\n      and\n      0x8c5be1e5ebec7d5bd14f71427d1e84f3dd0314c0f7b2291e5b200ac8c7c3b925\n        /* \"@openzeppelin/contracts/token/ERC20/ERC20.sol\":10358:10363  value */\n      dup5\n        /* \"@openzeppelin/contracts/token/ERC20/ERC20.sol\":10333:10364  Approval(owner, spender, value) */\n      mload(0x40)\n      tag_400\n      swap2\n      swap1\n      tag_67\n      jump\t// in\n    tag_400:\n      mload(0x40)\n      dup1\n      swap2\n      sub\n      swap1\n      log3\n        /* \"@openzeppelin/contracts/token/ERC20/ERC20.sol\":10299:10375  if (emitEvent) {... */\n    tag_399:\n        /* \"@openzeppelin/contracts/token/ERC20/ERC20.sol\":9949:10381  function _approve(address owner, address spender, uint256 value, bool emitEvent) internal virtual {... */\n      pop\n      pop\n      pop\n      pop\n      jump\t// out\n        /* \"contracts/BonDeFiToken.sol\":3466:3631  function _update(address from, address to, uint256 value)... */\n    tag_363:\n        /* \"contracts/BonDeFiToken.sol\":3594:3624  super._update(from, to, value) */\n      tag_402\n        /* \"contracts/BonDeFiToken.sol\":3608:3612  from */\n      dup4\n        /* \"contracts/BonDeFiToken.sol\":3614:3616  to */\n      dup4\n        /* \"contracts/BonDeFiToken.sol\":3618:3623  value */\n      dup4\n        /* \"contracts/BonDeFiToken.sol\":3594:3607  super._update */\n      tag_403\n        /* \"contracts/BonDeFiToken.sol\":3594:3624  super._update(from, to, value) */\n      jump\t// in\n    tag_402:\n        /* \"contracts/BonDeFiToken.sol\":3466:3631  function _update(address from, address to, uint256 value)... */\n      pop\n      pop\n      pop\n      jump\t// out\n        /* \"@openzeppelin/contracts/access/AccessControl.sol\":3432:3629  function _checkRole(bytes32 role, address account) internal view virtual {... */\n    tag_367:\n        /* \"@openzeppelin/contracts/access/AccessControl.sol\":3520:3542  hasRole(role, account) */\n      tag_405\n        /* \"@openzeppelin/contracts/access/AccessControl.sol\":3528:3532  role */\n      dup3\n        /* \"@openzeppelin/contracts/access/AccessControl.sol\":3534:3541  account */\n      dup3\n        /* \"@openzeppelin/contracts/access/AccessControl.sol\":3520:3527  hasRole */\n      tag_124\n        /* \"@openzeppelin/contracts/access/AccessControl.sol\":3520:3542  hasRole(role, account) */\n      jump\t// in\n    tag_405:\n        /* \"@openzeppelin/contracts/access/AccessControl.sol\":3515:3623  if (!hasRole(role, account)) {... */\n      tag_406\n      jumpi\n        /* \"@openzeppelin/contracts/access/AccessControl.sol\":3598:3605  account */\n      dup1\n        /* \"@openzeppelin/contracts/access/AccessControl.sol\":3607:3611  role */\n      dup3\n        /* \"@openzeppelin/contracts/access/AccessControl.sol\":3565:3612  AccessControlUnauthorizedAccount(account, role) */\n      mload(0x40)\n      0xe2517d3f00000000000000000000000000000000000000000000000000000000\n      dup2\n      mstore\n      0x04\n      add\n      tag_407\n      swap3\n      swap2\n      swap1\n      tag_408\n      jump\t// in\n    tag_407:\n      mload(0x40)\n      dup1\n      swap2\n      sub\n      swap1\n      revert\n        /* \"@openzeppelin/contracts/access/AccessControl.sol\":3515:3623  if (!hasRole(role, account)) {... */\n    tag_406:\n        /* \"@openzeppelin/contracts/access/AccessControl.sol\":3432:3629  function _checkRole(bytes32 role, address account) internal view virtual {... */\n      pop\n      pop\n      jump\t// out\n        /* \"@openzeppelin/contracts/utils/Pausable.sol\":2202:2328  function _requirePaused() internal view virtual {... */\n    tag_380:\n        /* \"@openzeppelin/contracts/utils/Pausable.sol\":2265:2273  paused() */\n      tag_410\n        /* \"@openzeppelin/contracts/utils/Pausable.sol\":2265:2271  paused */\n      tag_99\n        /* \"@openzeppelin/contracts/utils/Pausable.sol\":2265:2273  paused() */\n      jump\t// in\n    tag_410:\n        /* \"@openzeppelin/contracts/utils/Pausable.sol\":2260:2322  if (!paused()) {... */\n      tag_411\n      jumpi\n        /* \"@openzeppelin/contracts/utils/Pausable.sol\":2296:2311  ExpectedPause() */\n      mload(0x40)\n      0x8dfc202b00000000000000000000000000000000000000000000000000000000\n      dup2\n      mstore\n      0x04\n      add\n      mload(0x40)\n      dup1\n      swap2\n      sub\n      swap1\n      revert\n        /* \"@openzeppelin/contracts/utils/Pausable.sol\":2260:2322  if (!paused()) {... */\n    tag_411:\n        /* \"@openzeppelin/contracts/utils/Pausable.sol\":2202:2328  function _requirePaused() internal view virtual {... */\n      jump\t// out\n        /* \"@openzeppelin/contracts/utils/Pausable.sol\":2002:2130  function _requireNotPaused() internal view virtual {... */\n    tag_390:\n        /* \"@openzeppelin/contracts/utils/Pausable.sol\":2067:2075  paused() */\n      tag_413\n        /* \"@openzeppelin/contracts/utils/Pausable.sol\":2067:2073  paused */\n      tag_99\n        /* \"@openzeppelin/contracts/utils/Pausable.sol\":2067:2075  paused() */\n      jump\t// in\n    tag_413:\n        /* \"@openzeppelin/contracts/utils/Pausable.sol\":2063:2124  if (paused()) {... */\n      iszero\n      tag_414\n      jumpi\n        /* \"@openzeppelin/contracts/utils/Pausable.sol\":2098:2113  EnforcedPause() */\n      mload(0x40)\n      0xd93c066500000000000000000000000000000000000000000000000000000000\n      dup2\n      mstore\n      0x04\n      add\n      mload(0x40)\n      dup1\n      swap2\n      sub\n      swap1\n      revert\n        /* \"@openzeppelin/contracts/utils/Pausable.sol\":2063:2124  if (paused()) {... */\n    tag_414:\n        /* \"@openzeppelin/contracts/utils/Pausable.sol\":2002:2130  function _requireNotPaused() internal view virtual {... */\n      jump\t// out\n        /* \"@openzeppelin/contracts/token/ERC20/extensions/ERC20Pausable.sol\":1112:1257  function _update(address from, address to, uint256 value) internal virtual override whenNotPaused {... */\n    tag_403:\n        /* \"@openzeppelin/contracts/utils/Pausable.sol\":1474:1493  _requireNotPaused() */\n      tag_416\n        /* \"@openzeppelin/contracts/utils/Pausable.sol\":1474:1491  _requireNotPaused */\n      tag_390\n        /* \"@openzeppelin/contracts/utils/Pausable.sol\":1474:1493  _requireNotPaused() */\n      jump\t// in\n    tag_416:\n        /* \"@openzeppelin/contracts/token/ERC20/extensions/ERC20Pausable.sol\":1220:1250  super._update(from, to, value) */\n      tag_418\n        /* \"@openzeppelin/contracts/token/ERC20/extensions/ERC20Pausable.sol\":1234:1238  from */\n      dup4\n        /* \"@openzeppelin/contracts/token/ERC20/extensions/ERC20Pausable.sol\":1240:1242  to */\n      dup4\n        /* \"@openzeppelin/contracts/token/ERC20/extensions/ERC20Pausable.sol\":1244:1249  value */\n      dup4\n        /* \"@openzeppelin/contracts/token/ERC20/extensions/ERC20Pausable.sol\":1220:1233  super._update */\n      tag_419\n        /* \"@openzeppelin/contracts/token/ERC20/extensions/ERC20Pausable.sol\":1220:1250  super._update(from, to, value) */\n      jump\t// in\n    tag_418:\n        /* \"@openzeppelin/contracts/token/ERC20/extensions/ERC20Pausable.sol\":1112:1257  function _update(address from, address to, uint256 value) internal virtual override whenNotPaused {... */\n      pop\n      pop\n      pop\n      jump\t// out\n        /* \"@openzeppelin/contracts/token/ERC20/ERC20.sol\":6271:7378  function _update(address from, address to, uint256 value) internal virtual {... */\n    tag_419:\n        /* \"@openzeppelin/contracts/token/ERC20/ERC20.sol\":6376:6377  0 */\n      0x00\n        /* \"@openzeppelin/contracts/token/ERC20/ERC20.sol\":6360:6378  from == address(0) */\n      0xffffffffffffffffffffffffffffffffffffffff\n      and\n        /* \"@openzeppelin/contracts/token/ERC20/ERC20.sol\":6360:6364  from */\n      dup4\n        /* \"@openzeppelin/contracts/token/ERC20/ERC20.sol\":6360:6378  from == address(0) */\n      0xffffffffffffffffffffffffffffffffffffffff\n      and\n      sub\n        /* \"@openzeppelin/contracts/token/ERC20/ERC20.sol\":6356:6896  if (from == address(0)) {... */\n      tag_421\n      jumpi\n        /* \"@openzeppelin/contracts/token/ERC20/ERC20.sol\":6512:6517  value */\n      dup1\n        /* \"@openzeppelin/contracts/token/ERC20/ERC20.sol\":6496:6508  _totalSupply */\n      0x02\n      0x00\n        /* \"@openzeppelin/contracts/token/ERC20/ERC20.sol\":6496:6517  _totalSupply += value */\n      dup3\n      dup3\n      sload\n      tag_422\n      swap2\n      swap1\n      tag_423\n      jump\t// in\n    tag_422:\n      swap3\n      pop\n      pop\n      dup2\n      swap1\n      sstore\n      pop\n        /* \"@openzeppelin/contracts/token/ERC20/ERC20.sol\":6356:6896  if (from == address(0)) {... */\n      jump(tag_424)\n    tag_421:\n        /* \"@openzeppelin/contracts/token/ERC20/ERC20.sol\":6548:6567  uint256 fromBalance */\n      0x00\n        /* \"@openzeppelin/contracts/token/ERC20/ERC20.sol\":6570:6579  _balances */\n      dup1\n        /* \"@openzeppelin/contracts/token/ERC20/ERC20.sol\":6570:6585  _balances[from] */\n      0x00\n        /* \"@openzeppelin/contracts/token/ERC20/ERC20.sol\":6580:6584  from */\n      dup6\n        /* \"@openzeppelin/contracts/token/ERC20/ERC20.sol\":6570:6585  _balances[from] */\n      0xffffffffffffffffffffffffffffffffffffffff\n      and\n      0xffffffffffffffffffffffffffffffffffffffff\n      and\n      dup2\n      mstore\n      0x20\n      add\n      swap1\n      dup2\n      mstore\n      0x20\n      add\n      0x00\n      keccak256\n      sload\n        /* \"@openzeppelin/contracts/token/ERC20/ERC20.sol\":6548:6585  uint256 fromBalance = _balances[from] */\n      swap1\n      pop\n        /* \"@openzeppelin/contracts/token/ERC20/ERC20.sol\":6617:6622  value */\n      dup2\n        /* \"@openzeppelin/contracts/token/ERC20/ERC20.sol\":6603:6614  fromBalance */\n      dup2\n        /* \"@openzeppelin/contracts/token/ERC20/ERC20.sol\":6603:6622  fromBalance < value */\n      lt\n        /* \"@openzeppelin/contracts/token/ERC20/ERC20.sol\":6599:6714  if (fromBalance < value) {... */\n      iszero\n      tag_425\n      jumpi\n        /* \"@openzeppelin/contracts/token/ERC20/ERC20.sol\":6674:6678  from */\n      dup4\n        /* \"@openzeppelin/contracts/token/ERC20/ERC20.sol\":6680:6691  fromBalance */\n      dup2\n        /* \"@openzeppelin/contracts/token/ERC20/ERC20.sol\":6693:6698  value */\n      dup4\n        /* \"@openzeppelin/contracts/token/ERC20/ERC20.sol\":6649:6699  ERC20InsufficientBalance(from, fromBalance, value) */\n      mload(0x40)\n      0xe450d38c00000000000000000000000000000000000000000000000000000000\n      dup2\n      mstore\n      0x04\n      add\n      tag_426\n      swap4\n      swap3\n      swap2\n      swap1\n      tag_355\n      jump\t// in\n    tag_426:\n      mload(0x40)\n      dup1\n      swap2\n      sub\n      swap1\n      revert\n        /* \"@openzeppelin/contracts/token/ERC20/ERC20.sol\":6599:6714  if (fromBalance < value) {... */\n    tag_425:\n        /* \"@openzeppelin/contracts/token/ERC20/ERC20.sol\":6866:6871  value */\n      dup2\n        /* \"@openzeppelin/contracts/token/ERC20/ERC20.sol\":6852:6863  fromBalance */\n      dup2\n        /* \"@openzeppelin/contracts/token/ERC20/ERC20.sol\":6852:6871  fromBalance - value */\n      sub\n        /* \"@openzeppelin/contracts/token/ERC20/ERC20.sol\":6834:6843  _balances */\n      0x00\n        /* \"@openzeppelin/contracts/token/ERC20/ERC20.sol\":6834:6849  _balances[from] */\n      dup1\n        /* \"@openzeppelin/contracts/token/ERC20/ERC20.sol\":6844:6848  from */\n      dup7\n        /* \"@openzeppelin/contracts/token/ERC20/ERC20.sol\":6834:6849  _balances[from] */\n      0xffffffffffffffffffffffffffffffffffffffff\n      and\n      0xffffffffffffffffffffffffffffffffffffffff\n      and\n      dup2\n      mstore\n      0x20\n      add\n      swap1\n      dup2\n      mstore\n      0x20\n      add\n      0x00\n      keccak256\n        /* \"@openzeppelin/contracts/token/ERC20/ERC20.sol\":6834:6871  _balances[from] = fromBalance - value */\n      dup2\n      swap1\n      sstore\n      pop\n        /* \"@openzeppelin/contracts/token/ERC20/ERC20.sol\":6534:6896  {... */\n      pop\n        /* \"@openzeppelin/contracts/token/ERC20/ERC20.sol\":6356:6896  if (from == address(0)) {... */\n    tag_424:\n        /* \"@openzeppelin/contracts/token/ERC20/ERC20.sol\":6924:6925  0 */\n      0x00\n        /* \"@openzeppelin/contracts/token/ERC20/ERC20.sol\":6910:6926  to == address(0) */\n      0xffffffffffffffffffffffffffffffffffffffff\n      and\n        /* \"@openzeppelin/contracts/token/ERC20/ERC20.sol\":6910:6912  to */\n      dup3\n        /* \"@openzeppelin/contracts/token/ERC20/ERC20.sol\":6910:6926  to == address(0) */\n      0xffffffffffffffffffffffffffffffffffffffff\n      and\n      sub\n        /* \"@openzeppelin/contracts/token/ERC20/ERC20.sol\":6906:7331  if (to == address(0)) {... */\n      tag_427\n      jumpi\n        /* \"@openzeppelin/contracts/token/ERC20/ERC20.sol\":7089:7094  value */\n      dup1\n        /* \"@openzeppelin/contracts/token/ERC20/ERC20.sol\":7073:7085  _totalSupply */\n      0x02\n      0x00\n        /* \"@openzeppelin/contracts/token/ERC20/ERC20.sol\":7073:7094  _totalSupply -= value */\n      dup3\n      dup3\n      sload\n      sub\n      swap3\n      pop\n      pop\n      dup2\n      swap1\n      sstore\n      pop\n        /* \"@openzeppelin/contracts/token/ERC20/ERC20.sol\":6906:7331  if (to == address(0)) {... */\n      jump(tag_428)\n    tag_427:\n        /* \"@openzeppelin/contracts/token/ERC20/ERC20.sol\":7301:7306  value */\n      dup1\n        /* \"@openzeppelin/contracts/token/ERC20/ERC20.sol\":7284:7293  _balances */\n      0x00\n        /* \"@openzeppelin/contracts/token/ERC20/ERC20.sol\":7284:7297  _balances[to] */\n      dup1\n        /* \"@openzeppelin/contracts/token/ERC20/ERC20.sol\":7294:7296  to */\n      dup5\n        /* \"@openzeppelin/contracts/token/ERC20/ERC20.sol\":7284:7297  _balances[to] */\n      0xffffffffffffffffffffffffffffffffffffffff\n      and\n      0xffffffffffffffffffffffffffffffffffffffff\n      and\n      dup2\n      mstore\n      0x20\n      add\n      swap1\n      dup2\n      mstore\n      0x20\n      add\n      0x00\n      keccak256\n      0x00\n        /* \"@openzeppelin/contracts/token/ERC20/ERC20.sol\":7284:7306  _balances[to] += value */\n      dup3\n      dup3\n      sload\n      add\n      swap3\n      pop\n      pop\n      dup2\n      swap1\n      sstore\n      pop\n        /* \"@openzeppelin/contracts/token/ERC20/ERC20.sol\":6906:7331  if (to == address(0)) {... */\n    tag_428:\n        /* \"@openzeppelin/contracts/token/ERC20/ERC20.sol\":7361:7363  to */\n      dup2\n        /* \"@openzeppelin/contracts/token/ERC20/ERC20.sol\":7346:7371  Transfer(from, to, value) */\n      0xffffffffffffffffffffffffffffffffffffffff\n      and\n        /* \"@openzeppelin/contracts/token/ERC20/ERC20.sol\":7355:7359  from */\n      dup4\n        /* \"@openzeppelin/contracts/token/ERC20/ERC20.sol\":7346:7371  Transfer(from, to, value) */\n      0xffffffffffffffffffffffffffffffffffffffff\n      and\n      0xddf252ad1be2c89b69c2b068fc378daa952ba7f163c4a11628f55a4df523b3ef\n        /* \"@openzeppelin/contracts/token/ERC20/ERC20.sol\":7365:7370  value */\n      dup4\n        /* \"@openzeppelin/contracts/token/ERC20/ERC20.sol\":7346:7371  Transfer(from, to, value) */\n      mload(0x40)\n      tag_429\n      swap2\n      swap1\n      tag_67\n      jump\t// in\n    tag_429:\n      mload(0x40)\n      dup1\n      swap2\n      sub\n      swap1\n      log3\n        /* \"@openzeppelin/contracts/token/ERC20/ERC20.sol\":6271:7378  function _update(address from, address to, uint256 value) internal virtual {... */\n      pop\n      pop\n      pop\n      jump\t// out\n        /* \"#utility.yul\":7:82   */\n    tag_430:\n        /* \"#utility.yul\":40:46   */\n      0x00\n        /* \"#utility.yul\":73:75   */\n      0x40\n        /* \"#utility.yul\":67:76   */\n      mload\n        /* \"#utility.yul\":57:76   */\n      swap1\n      pop\n        /* \"#utility.yul\":7:82   */\n      swap1\n      jump\t// out\n        /* \"#utility.yul\":88:205   */\n    tag_431:\n        /* \"#utility.yul\":197:198   */\n      0x00\n        /* \"#utility.yul\":194:195   */\n      dup1\n        /* \"#utility.yul\":187:199   */\n      revert\n        /* \"#utility.yul\":211:328   */\n    tag_432:\n        /* \"#utility.yul\":320:321   */\n      0x00\n        /* \"#utility.yul\":317:318   */\n      dup1\n        /* \"#utility.yul\":310:322   */\n      revert\n        /* \"#utility.yul\":334:483   */\n    tag_433:\n        /* \"#utility.yul\":370:377   */\n      0x00\n        /* \"#utility.yul\":410:476   */\n      0xffffffff00000000000000000000000000000000000000000000000000000000\n        /* \"#utility.yul\":403:408   */\n      dup3\n        /* \"#utility.yul\":399:477   */\n      and\n        /* \"#utility.yul\":388:477   */\n      swap1\n      pop\n        /* \"#utility.yul\":334:483   */\n      swap2\n      swap1\n      pop\n      jump\t// out\n        /* \"#utility.yul\":489:609   */\n    tag_434:\n        /* \"#utility.yul\":561:584   */\n      tag_496\n        /* \"#utility.yul\":578:583   */\n      dup2\n        /* \"#utility.yul\":561:584   */\n      tag_433\n      jump\t// in\n    tag_496:\n        /* \"#utility.yul\":554:559   */\n      dup2\n        /* \"#utility.yul\":551:585   */\n      eq\n        /* \"#utility.yul\":541:603   */\n      tag_497\n      jumpi\n        /* \"#utility.yul\":599:600   */\n      0x00\n        /* \"#utility.yul\":596:597   */\n      dup1\n        /* \"#utility.yul\":589:601   */\n      revert\n        /* \"#utility.yul\":541:603   */\n    tag_497:\n        /* \"#utility.yul\":489:609   */\n      pop\n      jump\t// out\n        /* \"#utility.yul\":615:752   */\n    tag_435:\n        /* \"#utility.yul\":660:665   */\n      0x00\n        /* \"#utility.yul\":698:704   */\n      dup2\n        /* \"#utility.yul\":685:705   */\n      calldataload\n        /* \"#utility.yul\":676:705   */\n      swap1\n      pop\n        /* \"#utility.yul\":714:746   */\n      tag_499\n        /* \"#utility.yul\":740:745   */\n      dup2\n        /* \"#utility.yul\":714:746   */\n      tag_434\n      jump\t// in\n    tag_499:\n        /* \"#utility.yul\":615:752   */\n      swap3\n      swap2\n      pop\n      pop\n      jump\t// out\n        /* \"#utility.yul\":758:1085   */\n    tag_47:\n        /* \"#utility.yul\":816:822   */\n      0x00\n        /* \"#utility.yul\":865:867   */\n      0x20\n        /* \"#utility.yul\":853:862   */\n      dup3\n        /* \"#utility.yul\":844:851   */\n      dup5\n        /* \"#utility.yul\":840:863   */\n      sub\n        /* \"#utility.yul\":836:868   */\n      slt\n        /* \"#utility.yul\":833:952   */\n      iszero\n      tag_501\n      jumpi\n        /* \"#utility.yul\":871:950   */\n      tag_502\n      tag_431\n      jump\t// in\n    tag_502:\n        /* \"#utility.yul\":833:952   */\n    tag_501:\n        /* \"#utility.yul\":991:992   */\n      0x00\n        /* \"#utility.yul\":1016:1068   */\n      tag_503\n        /* \"#utility.yul\":1060:1067   */\n      dup5\n        /* \"#utility.yul\":1051:1057   */\n      dup3\n        /* \"#utility.yul\":1040:1049   */\n      dup6\n        /* \"#utility.yul\":1036:1058   */\n      add\n        /* \"#utility.yul\":1016:1068   */\n      tag_435\n      jump\t// in\n    tag_503:\n        /* \"#utility.yul\":1006:1068   */\n      swap2\n      pop\n        /* \"#utility.yul\":962:1078   */\n      pop\n        /* \"#utility.yul\":758:1085   */\n      swap3\n      swap2\n      pop\n      pop\n      jump\t// out\n        /* \"#utility.yul\":1091:1181   */\n    tag_436:\n        /* \"#utility.yul\":1125:1132   */\n      0x00\n        /* \"#utility.yul\":1168:1173   */\n      dup2\n        /* \"#utility.yul\":1161:1174   */\n      iszero\n        /* \"#utility.yul\":1154:1175   */\n      iszero\n        /* \"#utility.yul\":1143:1175   */\n      swap1\n      pop\n        /* \"#utility.yul\":1091:1181   */\n      swap2\n      swap1\n      pop\n      jump\t// out\n        /* \"#utility.yul\":1187:1296   */\n    tag_437:\n        /* \"#utility.yul\":1268:1289   */\n      tag_506\n        /* \"#utility.yul\":1283:1288   */\n      dup2\n        /* \"#utility.yul\":1268:1289   */\n      tag_436\n      jump\t// in\n    tag_506:\n        /* \"#utility.yul\":1263:1266   */\n      dup3\n        /* \"#utility.yul\":1256:1290   */\n      mstore\n        /* \"#utility.yul\":1187:1296   */\n      pop\n      pop\n      jump\t// out\n        /* \"#utility.yul\":1302:1512   */\n    tag_50:\n        /* \"#utility.yul\":1389:1393   */\n      0x00\n        /* \"#utility.yul\":1427:1429   */\n      0x20\n        /* \"#utility.yul\":1416:1425   */\n      dup3\n        /* \"#utility.yul\":1412:1430   */\n      add\n        /* \"#utility.yul\":1404:1430   */\n      swap1\n      pop\n        /* \"#utility.yul\":1440:1505   */\n      tag_508\n        /* \"#utility.yul\":1502:1503   */\n      0x00\n        /* \"#utility.yul\":1491:1500   */\n      dup4\n        /* \"#utility.yul\":1487:1504   */\n      add\n        /* \"#utility.yul\":1478:1484   */\n      dup5\n        /* \"#utility.yul\":1440:1505   */\n      tag_437\n      jump\t// in\n    tag_508:\n        /* \"#utility.yul\":1302:1512   */\n      swap3\n      swap2\n      pop\n      pop\n      jump\t// out\n        /* \"#utility.yul\":1518:1617   */\n    tag_438:\n        /* \"#utility.yul\":1570:1576   */\n      0x00\n        /* \"#utility.yul\":1604:1609   */\n      dup2\n        /* \"#utility.yul\":1598:1610   */\n      mload\n        /* \"#utility.yul\":1588:1610   */\n      swap1\n      pop\n        /* \"#utility.yul\":1518:1617   */\n      swap2\n      swap1\n      pop\n      jump\t// out\n        /* \"#utility.yul\":1623:1792   */\n    tag_439:\n        /* \"#utility.yul\":1707:1718   */\n      0x00\n        /* \"#utility.yul\":1741:1747   */\n      dup3\n        /* \"#utility.yul\":1736:1739   */\n      dup3\n        /* \"#utility.yul\":1729:1748   */\n      mstore\n        /* \"#utility.yul\":1781:1785   */\n      0x20\n        /* \"#utility.yul\":1776:1779   */\n      dup3\n        /* \"#utility.yul\":1772:1786   */\n      add\n        /* \"#utility.yul\":1757:1786   */\n      swap1\n      pop\n        /* \"#utility.yul\":1623:1792   */\n      swap3\n      swap2\n      pop\n      pop\n      jump\t// out\n        /* \"#utility.yul\":1798:1937   */\n    tag_440:\n        /* \"#utility.yul\":1887:1893   */\n      dup3\n        /* \"#utility.yul\":1882:1885   */\n      dup2\n        /* \"#utility.yul\":1877:1880   */\n      dup4\n        /* \"#utility.yul\":1871:1894   */\n      mcopy\n        /* \"#utility.yul\":1928:1929   */\n      0x00\n        /* \"#utility.yul\":1919:1925   */\n      dup4\n        /* \"#utility.yul\":1914:1917   */\n      dup4\n        /* \"#utility.yul\":1910:1926   */\n      add\n        /* \"#utility.yul\":1903:1930   */\n      mstore\n        /* \"#utility.yul\":1798:1937   */\n      pop\n      pop\n      pop\n      jump\t// out\n        /* \"#utility.yul\":1943:2045   */\n    tag_441:\n        /* \"#utility.yul\":1984:1990   */\n      0x00\n        /* \"#utility.yul\":2035:2037   */\n      0x1f\n        /* \"#utility.yul\":2031:2038   */\n      not\n        /* \"#utility.yul\":2026:2028   */\n      0x1f\n        /* \"#utility.yul\":2019:2024   */\n      dup4\n        /* \"#utility.yul\":2015:2029   */\n      add\n        /* \"#utility.yul\":2011:2039   */\n      and\n        /* \"#utility.yul\":2001:2039   */\n      swap1\n      pop\n        /* \"#utility.yul\":1943:2045   */\n      swap2\n      swap1\n      pop\n      jump\t// out\n        /* \"#utility.yul\":2051:2428   */\n    tag_442:\n        /* \"#utility.yul\":2139:2142   */\n      0x00\n        /* \"#utility.yul\":2167:2206   */\n      tag_514\n        /* \"#utility.yul\":2200:2205   */\n      dup3\n        /* \"#utility.yul\":2167:2206   */\n      tag_438\n      jump\t// in\n    tag_514:\n        /* \"#utility.yul\":2222:2293   */\n      tag_515\n        /* \"#utility.yul\":2286:2292   */\n      dup2\n        /* \"#utility.yul\":2281:2284   */\n      dup6\n        /* \"#utility.yul\":2222:2293   */\n      tag_439\n      jump\t// in\n    tag_515:\n        /* \"#utility.yul\":2215:2293   */\n      swap4\n      pop\n        /* \"#utility.yul\":2302:2367   */\n      tag_516\n        /* \"#utility.yul\":2360:2366   */\n      dup2\n        /* \"#utility.yul\":2355:2358   */\n      dup6\n        /* \"#utility.yul\":2348:2352   */\n      0x20\n        /* \"#utility.yul\":2341:2346   */\n      dup7\n        /* \"#utility.yul\":2337:2353   */\n      add\n        /* \"#utility.yul\":2302:2367   */\n      tag_440\n      jump\t// in\n    tag_516:\n        /* \"#utility.yul\":2392:2421   */\n      tag_517\n        /* \"#utility.yul\":2414:2420   */\n      dup2\n        /* \"#utility.yul\":2392:2421   */\n      tag_441\n      jump\t// in\n    tag_517:\n        /* \"#utility.yul\":2387:2390   */\n      dup5\n        /* \"#utility.yul\":2383:2422   */\n      add\n        /* \"#utility.yul\":2376:2422   */\n      swap2\n      pop\n        /* \"#utility.yul\":2143:2428   */\n      pop\n        /* \"#utility.yul\":2051:2428   */\n      swap3\n      swap2\n      pop\n      pop\n      jump\t// out\n        /* \"#utility.yul\":2434:2747   */\n    tag_54:\n        /* \"#utility.yul\":2547:2551   */\n      0x00\n        /* \"#utility.yul\":2585:2587   */\n      0x20\n        /* \"#utility.yul\":2574:2583   */\n      dup3\n        /* \"#utility.yul\":2570:2588   */\n      add\n        /* \"#utility.yul\":2562:2588   */\n      swap1\n      pop\n        /* \"#utility.yul\":2634:2643   */\n      dup2\n        /* \"#utility.yul\":2628:2632   */\n      dup2\n        /* \"#utility.yul\":2624:2644   */\n      sub\n        /* \"#utility.yul\":2620:2621   */\n      0x00\n        /* \"#utility.yul\":2609:2618   */\n      dup4\n        /* \"#utility.yul\":2605:2622   */\n      add\n        /* \"#utility.yul\":2598:2645   */\n      mstore\n        /* \"#utility.yul\":2662:2740   */\n      tag_519\n        /* \"#utility.yul\":2735:2739   */\n      dup2\n        /* \"#utility.yul\":2726:2732   */\n      dup5\n        /* \"#utility.yul\":2662:2740   */\n      tag_442\n      jump\t// in\n    tag_519:\n        /* \"#utility.yul\":2654:2740   */\n      swap1\n      pop\n        /* \"#utility.yul\":2434:2747   */\n      swap3\n      swap2\n      pop\n      pop\n      jump\t// out\n        /* \"#utility.yul\":2753:2879   */\n    tag_443:\n        /* \"#utility.yul\":2790:2797   */\n      0x00\n        /* \"#utility.yul\":2830:2872   */\n      0xffffffffffffffffffffffffffffffffffffffff\n        /* \"#utility.yul\":2823:2828   */\n      dup3\n        /* \"#utility.yul\":2819:2873   */\n      and\n        /* \"#utility.yul\":2808:2873   */\n      swap1\n      pop\n        /* \"#utility.yul\":2753:2879   */\n      swap2\n      swap1\n      pop\n      jump\t// out\n        /* \"#utility.yul\":2885:2981   */\n    tag_444:\n        /* \"#utility.yul\":2922:2929   */\n      0x00\n        /* \"#utility.yul\":2951:2975   */\n      tag_522\n        /* \"#utility.yul\":2969:2974   */\n      dup3\n        /* \"#utility.yul\":2951:2975   */\n      tag_443\n      jump\t// in\n    tag_522:\n        /* \"#utility.yul\":2940:2975   */\n      swap1\n      pop\n        /* \"#utility.yul\":2885:2981   */\n      swap2\n      swap1\n      pop\n      jump\t// out\n        /* \"#utility.yul\":2987:3109   */\n    tag_445:\n        /* \"#utility.yul\":3060:3084   */\n      tag_524\n        /* \"#utility.yul\":3078:3083   */\n      dup2\n        /* \"#utility.yul\":3060:3084   */\n      tag_444\n      jump\t// in\n    tag_524:\n        /* \"#utility.yul\":3053:3058   */\n      dup2\n        /* \"#utility.yul\":3050:3085   */\n      eq\n        /* \"#utility.yul\":3040:3103   */\n      tag_525\n      jumpi\n        /* \"#utility.yul\":3099:3100   */\n      0x00\n        /* \"#utility.yul\":3096:3097   */\n      dup1\n        /* \"#utility.yul\":3089:3101   */\n      revert\n        /* \"#utility.yul\":3040:3103   */\n    tag_525:\n        /* \"#utility.yul\":2987:3109   */\n      pop\n      jump\t// out\n        /* \"#utility.yul\":3115:3254   */\n    tag_446:\n        /* \"#utility.yul\":3161:3166   */\n      0x00\n        /* \"#utility.yul\":3199:3205   */\n      dup2\n        /* \"#utility.yul\":3186:3206   */\n      calldataload\n        /* \"#utility.yul\":3177:3206   */\n      swap1\n      pop\n        /* \"#utility.yul\":3215:3248   */\n      tag_527\n        /* \"#utility.yul\":3242:3247   */\n      dup2\n        /* \"#utility.yul\":3215:3248   */\n      tag_445\n      jump\t// in\n    tag_527:\n        /* \"#utility.yul\":3115:3254   */\n      swap3\n      swap2\n      pop\n      pop\n      jump\t// out\n        /* \"#utility.yul\":3260:3337   */\n    tag_447:\n        /* \"#utility.yul\":3297:3304   */\n      0x00\n        /* \"#utility.yul\":3326:3331   */\n      dup2\n        /* \"#utility.yul\":3315:3331   */\n      swap1\n      pop\n        /* \"#utility.yul\":3260:3337   */\n      swap2\n      swap1\n      pop\n      jump\t// out\n        /* \"#utility.yul\":3343:3465   */\n    tag_448:\n        /* \"#utility.yul\":3416:3440   */\n      tag_530\n        /* \"#utility.yul\":3434:3439   */\n      dup2\n        /* \"#utility.yul\":3416:3440   */\n      tag_447\n      jump\t// in\n    tag_530:\n        /* \"#utility.yul\":3409:3414   */\n      dup2\n        /* \"#utility.yul\":3406:3441   */\n      eq\n        /* \"#utility.yul\":3396:3459   */\n      tag_531\n      jumpi\n        /* \"#utility.yul\":3455:3456   */\n      0x00\n        /* \"#utility.yul\":3452:3453   */\n      dup1\n        /* \"#utility.yul\":3445:3457   */\n      revert\n        /* \"#utility.yul\":3396:3459   */\n    tag_531:\n        /* \"#utility.yul\":3343:3465   */\n      pop\n      jump\t// out\n        /* \"#utility.yul\":3471:3610   */\n    tag_449:\n        /* \"#utility.yul\":3517:3522   */\n      0x00\n        /* \"#utility.yul\":3555:3561   */\n      dup2\n        /* \"#utility.yul\":3542:3562   */\n      calldataload\n        /* \"#utility.yul\":3533:3562   */\n      swap1\n      pop\n        /* \"#utility.yul\":3571:3604   */\n      tag_533\n        /* \"#utility.yul\":3598:3603   */\n      dup2\n        /* \"#utility.yul\":3571:3604   */\n      tag_448\n      jump\t// in\n    tag_533:\n        /* \"#utility.yul\":3471:3610   */\n      swap3\n      swap2\n      pop\n      pop\n      jump\t// out\n        /* \"#utility.yul\":3616:4090   */\n    tag_57:\n        /* \"#utility.yul\":3684:3690   */\n      0x00\n        /* \"#utility.yul\":3692:3698   */\n      dup1\n        /* \"#utility.yul\":3741:3743   */\n      0x40\n        /* \"#utility.yul\":3729:3738   */\n      dup4\n        /* \"#utility.yul\":3720:3727   */\n      dup6\n        /* \"#utility.yul\":3716:3739   */\n      sub\n        /* \"#utility.yul\":3712:3744   */\n      slt\n        /* \"#utility.yul\":3709:3828   */\n      iszero\n      tag_535\n      jumpi\n        /* \"#utility.yul\":3747:3826   */\n      tag_536\n      tag_431\n      jump\t// in\n    tag_536:\n        /* \"#utility.yul\":3709:3828   */\n    tag_535:\n        /* \"#utility.yul\":3867:3868   */\n      0x00\n        /* \"#utility.yul\":3892:3945   */\n      tag_537\n        /* \"#utility.yul\":3937:3944   */\n      dup6\n        /* \"#utility.yul\":3928:3934   */\n      dup3\n        /* \"#utility.yul\":3917:3926   */\n      dup7\n        /* \"#utility.yul\":3913:3935   */\n      add\n        /* \"#utility.yul\":3892:3945   */\n      tag_446\n      jump\t// in\n    tag_537:\n        /* \"#utility.yul\":3882:3945   */\n      swap3\n      pop\n        /* \"#utility.yul\":3838:3955   */\n      pop\n        /* \"#utility.yul\":3994:3996   */\n      0x20\n        /* \"#utility.yul\":4020:4073   */\n      tag_538\n        /* \"#utility.yul\":4065:4072   */\n      dup6\n        /* \"#utility.yul\":4056:4062   */\n      dup3\n        /* \"#utility.yul\":4045:4054   */\n      dup7\n        /* \"#utility.yul\":4041:4063   */\n      add\n        /* \"#utility.yul\":4020:4073   */\n      tag_449\n      jump\t// in\n    tag_538:\n        /* \"#utility.yul\":4010:4073   */\n      swap2\n      pop\n        /* \"#utility.yul\":3965:4083   */\n      pop\n        /* \"#utility.yul\":3616:4090   */\n      swap3\n      pop\n      swap3\n      swap1\n      pop\n      jump\t// out\n        /* \"#utility.yul\":4096:4425   */\n    tag_62:\n        /* \"#utility.yul\":4155:4161   */\n      0x00\n        /* \"#utility.yul\":4204:4206   */\n      0x20\n        /* \"#utility.yul\":4192:4201   */\n      dup3\n        /* \"#utility.yul\":4183:4190   */\n      dup5\n        /* \"#utility.yul\":4179:4202   */\n      sub\n        /* \"#utility.yul\":4175:4207   */\n      slt\n        /* \"#utility.yul\":4172:4291   */\n      iszero\n      tag_540\n      jumpi\n        /* \"#utility.yul\":4210:4289   */\n      tag_541\n      tag_431\n      jump\t// in\n    tag_541:\n        /* \"#utility.yul\":4172:4291   */\n    tag_540:\n        /* \"#utility.yul\":4330:4331   */\n      0x00\n        /* \"#utility.yul\":4355:4408   */\n      tag_542\n        /* \"#utility.yul\":4400:4407   */\n      dup5\n        /* \"#utility.yul\":4391:4397   */\n      dup3\n        /* \"#utility.yul\":4380:4389   */\n      dup6\n        /* \"#utility.yul\":4376:4398   */\n      add\n        /* \"#utility.yul\":4355:4408   */\n      tag_449\n      jump\t// in\n    tag_542:\n        /* \"#utility.yul\":4345:4408   */\n      swap2\n      pop\n        /* \"#utility.yul\":4301:4418   */\n      pop\n        /* \"#utility.yul\":4096:4425   */\n      swap3\n      swap2\n      pop\n      pop\n      jump\t// out\n        /* \"#utility.yul\":4431:4549   */\n    tag_450:\n        /* \"#utility.yul\":4518:4542   */\n      tag_544\n        /* \"#utility.yul\":4536:4541   */\n      dup2\n        /* \"#utility.yul\":4518:4542   */\n      tag_447\n      jump\t// in\n    tag_544:\n        /* \"#utility.yul\":4513:4516   */\n      dup3\n        /* \"#utility.yul\":4506:4543   */\n      mstore\n        /* \"#utility.yul\":4431:4549   */\n      pop\n      pop\n      jump\t// out\n        /* \"#utility.yul\":4555:4777   */\n    tag_67:\n        /* \"#utility.yul\":4648:4652   */\n      0x00\n        /* \"#utility.yul\":4686:4688   */\n      0x20\n        /* \"#utility.yul\":4675:4684   */\n      dup3\n        /* \"#utility.yul\":4671:4689   */\n      add\n        /* \"#utility.yul\":4663:4689   */\n      swap1\n      pop\n        /* \"#utility.yul\":4699:4770   */\n      tag_546\n        /* \"#utility.yul\":4767:4768   */\n      0x00\n        /* \"#utility.yul\":4756:4765   */\n      dup4\n        /* \"#utility.yul\":4752:4769   */\n      add\n        /* \"#utility.yul\":4743:4749   */\n      dup5\n        /* \"#utility.yul\":4699:4770   */\n      tag_450\n      jump\t// in\n    tag_546:\n        /* \"#utility.yul\":4555:4777   */\n      swap3\n      swap2\n      pop\n      pop\n      jump\t// out\n        /* \"#utility.yul\":4783:5402   */\n    tag_70:\n        /* \"#utility.yul\":4860:4866   */\n      0x00\n        /* \"#utility.yul\":4868:4874   */\n      dup1\n        /* \"#utility.yul\":4876:4882   */\n      0x00\n        /* \"#utility.yul\":4925:4927   */\n      0x60\n        /* \"#utility.yul\":4913:4922   */\n      dup5\n        /* \"#utility.yul\":4904:4911   */\n      dup7\n        /* \"#utility.yul\":4900:4923   */\n      sub\n        /* \"#utility.yul\":4896:4928   */\n      slt\n        /* \"#utility.yul\":4893:5012   */\n      iszero\n      tag_548\n      jumpi\n        /* \"#utility.yul\":4931:5010   */\n      tag_549\n      tag_431\n      jump\t// in\n    tag_549:\n        /* \"#utility.yul\":4893:5012   */\n    tag_548:\n        /* \"#utility.yul\":5051:5052   */\n      0x00\n        /* \"#utility.yul\":5076:5129   */\n      tag_550\n        /* \"#utility.yul\":5121:5128   */\n      dup7\n        /* \"#utility.yul\":5112:5118   */\n      dup3\n        /* \"#utility.yul\":5101:5110   */\n      dup8\n        /* \"#utility.yul\":5097:5119   */\n      add\n        /* \"#utility.yul\":5076:5129   */\n      tag_446\n      jump\t// in\n    tag_550:\n        /* \"#utility.yul\":5066:5129   */\n      swap4\n      pop\n        /* \"#utility.yul\":5022:5139   */\n      pop\n        /* \"#utility.yul\":5178:5180   */\n      0x20\n        /* \"#utility.yul\":5204:5257   */\n      tag_551\n        /* \"#utility.yul\":5249:5256   */\n      dup7\n        /* \"#utility.yul\":5240:5246   */\n      dup3\n        /* \"#utility.yul\":5229:5238   */\n      dup8\n        /* \"#utility.yul\":5225:5247   */\n      add\n        /* \"#utility.yul\":5204:5257   */\n      tag_446\n      jump\t// in\n    tag_551:\n        /* \"#utility.yul\":5194:5257   */\n      swap3\n      pop\n        /* \"#utility.yul\":5149:5267   */\n      pop\n        /* \"#utility.yul\":5306:5308   */\n      0x40\n        /* \"#utility.yul\":5332:5385   */\n      tag_552\n        /* \"#utility.yul\":5377:5384   */\n      dup7\n        /* \"#utility.yul\":5368:5374   */\n      dup3\n        /* \"#utility.yul\":5357:5366   */\n      dup8\n        /* \"#utility.yul\":5353:5375   */\n      add\n        /* \"#utility.yul\":5332:5385   */\n      tag_449\n      jump\t// in\n    tag_552:\n        /* \"#utility.yul\":5322:5385   */\n      swap2\n      pop\n        /* \"#utility.yul\":5277:5395   */\n      pop\n        /* \"#utility.yul\":4783:5402   */\n      swap3\n      pop\n      swap3\n      pop\n      swap3\n      jump\t// out\n        /* \"#utility.yul\":5408:5485   */\n    tag_451:\n        /* \"#utility.yul\":5445:5452   */\n      0x00\n        /* \"#utility.yul\":5474:5479   */\n      dup2\n        /* \"#utility.yul\":5463:5479   */\n      swap1\n      pop\n        /* \"#utility.yul\":5408:5485   */\n      swap2\n      swap1\n      pop\n      jump\t// out\n        /* \"#utility.yul\":5491:5613   */\n    tag_452:\n        /* \"#utility.yul\":5564:5588   */\n      tag_555\n        /* \"#utility.yul\":5582:5587   */\n      dup2\n        /* \"#utility.yul\":5564:5588   */\n      tag_451\n      jump\t// in\n    tag_555:\n        /* \"#utility.yul\":5557:5562   */\n      dup2\n        /* \"#utility.yul\":5554:5589   */\n      eq\n        /* \"#utility.yul\":5544:5607   */\n      tag_556\n      jumpi\n        /* \"#utility.yul\":5603:5604   */\n      0x00\n        /* \"#utility.yul\":5600:5601   */\n      dup1\n        /* \"#utility.yul\":5593:5605   */\n      revert\n        /* \"#utility.yul\":5544:5607   */\n    tag_556:\n        /* \"#utility.yul\":5491:5613   */\n      pop\n      jump\t// out\n        /* \"#utility.yul\":5619:5758   */\n    tag_453:\n        /* \"#utility.yul\":5665:5670   */\n      0x00\n        /* \"#utility.yul\":5703:5709   */\n      dup2\n        /* \"#utility.yul\":5690:5710   */\n      calldataload\n        /* \"#utility.yul\":5681:5710   */\n      swap1\n      pop\n        /* \"#utility.yul\":5719:5752   */\n      tag_558\n        /* \"#utility.yul\":5746:5751   */\n      dup2\n        /* \"#utility.yul\":5719:5752   */\n      tag_452\n      jump\t// in\n    tag_558:\n        /* \"#utility.yul\":5619:5758   */\n      swap3\n      swap2\n      pop\n      pop\n      jump\t// out\n        /* \"#utility.yul\":5764:6093   */\n    tag_75:\n        /* \"#utility.yul\":5823:5829   */\n      0x00\n        /* \"#utility.yul\":5872:5874   */\n      0x20\n        /* \"#utility.yul\":5860:5869   */\n      dup3\n        /* \"#utility.yul\":5851:5858   */\n      dup5\n        /* \"#utility.yul\":5847:5870   */\n      sub\n        /* \"#utility.yul\":5843:5875   */\n      slt\n        /* \"#utility.yul\":5840:5959   */\n      iszero\n      tag_560\n      jumpi\n        /* \"#utility.yul\":5878:5957   */\n      tag_561\n      tag_431\n      jump\t// in\n    tag_561:\n        /* \"#utility.yul\":5840:5959   */\n    tag_560:\n        /* \"#utility.yul\":5998:5999   */\n      0x00\n        /* \"#utility.yul\":6023:6076   */\n      tag_562\n        /* \"#utility.yul\":6068:6075   */\n      dup5\n        /* \"#utility.yul\":6059:6065   */\n      dup3\n        /* \"#utility.yul\":6048:6057   */\n      dup6\n        /* \"#utility.yul\":6044:6066   */\n      add\n        /* \"#utility.yul\":6023:6076   */\n      tag_453\n      jump\t// in\n    tag_562:\n        /* \"#utility.yul\":6013:6076   */\n      swap2\n      pop\n        /* \"#utility.yul\":5969:6086   */\n      pop\n        /* \"#utility.yul\":5764:6093   */\n      swap3\n      swap2\n      pop\n      pop\n      jump\t// out\n        /* \"#utility.yul\":6099:6217   */\n    tag_454:\n        /* \"#utility.yul\":6186:6210   */\n      tag_564\n        /* \"#utility.yul\":6204:6209   */\n      dup2\n        /* \"#utility.yul\":6186:6210   */\n      tag_451\n      jump\t// in\n    tag_564:\n        /* \"#utility.yul\":6181:6184   */\n      dup3\n        /* \"#utility.yul\":6174:6211   */\n      mstore\n        /* \"#utility.yul\":6099:6217   */\n      pop\n      pop\n      jump\t// out\n        /* \"#utility.yul\":6223:6445   */\n    tag_78:\n        /* \"#utility.yul\":6316:6320   */\n      0x00\n        /* \"#utility.yul\":6354:6356   */\n      0x20\n        /* \"#utility.yul\":6343:6352   */\n      dup3\n        /* \"#utility.yul\":6339:6357   */\n      add\n        /* \"#utility.yul\":6331:6357   */\n      swap1\n      pop\n        /* \"#utility.yul\":6367:6438   */\n      tag_566\n        /* \"#utility.yul\":6435:6436   */\n      0x00\n        /* \"#utility.yul\":6424:6433   */\n      dup4\n        /* \"#utility.yul\":6420:6437   */\n      add\n        /* \"#utility.yul\":6411:6417   */\n      dup5\n        /* \"#utility.yul\":6367:6438   */\n      tag_454\n      jump\t// in\n    tag_566:\n        /* \"#utility.yul\":6223:6445   */\n      swap3\n      swap2\n      pop\n      pop\n      jump\t// out\n        /* \"#utility.yul\":6451:6925   */\n    tag_84:\n        /* \"#utility.yul\":6519:6525   */\n      0x00\n        /* \"#utility.yul\":6527:6533   */\n      dup1\n        /* \"#utility.yul\":6576:6578   */\n      0x40\n        /* \"#utility.yul\":6564:6573   */\n      dup4\n        /* \"#utility.yul\":6555:6562   */\n      dup6\n        /* \"#utility.yul\":6551:6574   */\n      sub\n        /* \"#utility.yul\":6547:6579   */\n      slt\n        /* \"#utility.yul\":6544:6663   */\n      iszero\n      tag_568\n      jumpi\n        /* \"#utility.yul\":6582:6661   */\n      tag_569\n      tag_431\n      jump\t// in\n    tag_569:\n        /* \"#utility.yul\":6544:6663   */\n    tag_568:\n        /* \"#utility.yul\":6702:6703   */\n      0x00\n        /* \"#utility.yul\":6727:6780   */\n      tag_570\n        /* \"#utility.yul\":6772:6779   */\n      dup6\n        /* \"#utility.yul\":6763:6769   */\n      dup3\n        /* \"#utility.yul\":6752:6761   */\n      dup7\n        /* \"#utility.yul\":6748:6770   */\n      add\n        /* \"#utility.yul\":6727:6780   */\n      tag_453\n      jump\t// in\n    tag_570:\n        /* \"#utility.yul\":6717:6780   */\n      swap3\n      pop\n        /* \"#utility.yul\":6673:6790   */\n      pop\n        /* \"#utility.yul\":6829:6831   */\n      0x20\n        /* \"#utility.yul\":6855:6908   */\n      tag_571\n        /* \"#utility.yul\":6900:6907   */\n      dup6\n        /* \"#utility.yul\":6891:6897   */\n      dup3\n        /* \"#utility.yul\":6880:6889   */\n      dup7\n        /* \"#utility.yul\":6876:6898   */\n      add\n        /* \"#utility.yul\":6855:6908   */\n      tag_446\n      jump\t// in\n    tag_571:\n        /* \"#utility.yul\":6845:6908   */\n      swap2\n      pop\n        /* \"#utility.yul\":6800:6918   */\n      pop\n        /* \"#utility.yul\":6451:6925   */\n      swap3\n      pop\n      swap3\n      swap1\n      pop\n      jump\t// out\n        /* \"#utility.yul\":6931:7017   */\n    tag_455:\n        /* \"#utility.yul\":6966:6973   */\n      0x00\n        /* \"#utility.yul\":7006:7010   */\n      0xff\n        /* \"#utility.yul\":6999:7004   */\n      dup3\n        /* \"#utility.yul\":6995:7011   */\n      and\n        /* \"#utility.yul\":6984:7011   */\n      swap1\n      pop\n        /* \"#utility.yul\":6931:7017   */\n      swap2\n      swap1\n      pop\n      jump\t// out\n        /* \"#utility.yul\":7023:7135   */\n    tag_456:\n        /* \"#utility.yul\":7106:7128   */\n      tag_574\n        /* \"#utility.yul\":7122:7127   */\n      dup2\n        /* \"#utility.yul\":7106:7128   */\n      tag_455\n      jump\t// in\n    tag_574:\n        /* \"#utility.yul\":7101:7104   */\n      dup3\n        /* \"#utility.yul\":7094:7129   */\n      mstore\n        /* \"#utility.yul\":7023:7135   */\n      pop\n      pop\n      jump\t// out\n        /* \"#utility.yul\":7141:7355   */\n    tag_89:\n        /* \"#utility.yul\":7230:7234   */\n      0x00\n        /* \"#utility.yul\":7268:7270   */\n      0x20\n        /* \"#utility.yul\":7257:7266   */\n      dup3\n        /* \"#utility.yul\":7253:7271   */\n      add\n        /* \"#utility.yul\":7245:7271   */\n      swap1\n      pop\n        /* \"#utility.yul\":7281:7348   */\n      tag_576\n        /* \"#utility.yul\":7345:7346   */\n      0x00\n        /* \"#utility.yul\":7334:7343   */\n      dup4\n        /* \"#utility.yul\":7330:7347   */\n      add\n        /* \"#utility.yul\":7321:7327   */\n      dup5\n        /* \"#utility.yul\":7281:7348   */\n      tag_456\n      jump\t// in\n    tag_576:\n        /* \"#utility.yul\":7141:7355   */\n      swap3\n      swap2\n      pop\n      pop\n      jump\t// out\n        /* \"#utility.yul\":7361:7690   */\n    tag_103:\n        /* \"#utility.yul\":7420:7426   */\n      0x00\n        /* \"#utility.yul\":7469:7471   */\n      0x20\n        /* \"#utility.yul\":7457:7466   */\n      dup3\n        /* \"#utility.yul\":7448:7455   */\n      dup5\n        /* \"#utility.yul\":7444:7467   */\n      sub\n        /* \"#utility.yul\":7440:7472   */\n      slt\n        /* \"#utility.yul\":7437:7556   */\n      iszero\n      tag_578\n      jumpi\n        /* \"#utility.yul\":7475:7554   */\n      tag_579\n      tag_431\n      jump\t// in\n    tag_579:\n        /* \"#utility.yul\":7437:7556   */\n    tag_578:\n        /* \"#utility.yul\":7595:7596   */\n      0x00\n        /* \"#utility.yul\":7620:7673   */\n      tag_580\n        /* \"#utility.yul\":7665:7672   */\n      dup5\n        /* \"#utility.yul\":7656:7662   */\n      dup3\n        /* \"#utility.yul\":7645:7654   */\n      dup6\n        /* \"#utility.yul\":7641:7663   */\n      add\n        /* \"#utility.yul\":7620:7673   */\n      tag_446\n      jump\t// in\n    tag_580:\n        /* \"#utility.yul\":7610:7673   */\n      swap2\n      pop\n        /* \"#utility.yul\":7566:7683   */\n      pop\n        /* \"#utility.yul\":7361:7690   */\n      swap3\n      swap2\n      pop\n      pop\n      jump\t// out\n        /* \"#utility.yul\":7696:7814   */\n    tag_457:\n        /* \"#utility.yul\":7783:7807   */\n      tag_582\n        /* \"#utility.yul\":7801:7806   */\n      dup2\n        /* \"#utility.yul\":7783:7807   */\n      tag_444\n      jump\t// in\n    tag_582:\n        /* \"#utility.yul\":7778:7781   */\n      dup3\n        /* \"#utility.yul\":7771:7808   */\n      mstore\n        /* \"#utility.yul\":7696:7814   */\n      pop\n      pop\n      jump\t// out\n        /* \"#utility.yul\":7820:8042   */\n    tag_109:\n        /* \"#utility.yul\":7913:7917   */\n      0x00\n        /* \"#utility.yul\":7951:7953   */\n      0x20\n        /* \"#utility.yul\":7940:7949   */\n      dup3\n        /* \"#utility.yul\":7936:7954   */\n      add\n        /* \"#utility.yul\":7928:7954   */\n      swap1\n      pop\n        /* \"#utility.yul\":7964:8035   */\n      tag_584\n        /* \"#utility.yul\":8032:8033   */\n      0x00\n        /* \"#utility.yul\":8021:8030   */\n      dup4\n        /* \"#utility.yul\":8017:8034   */\n      add\n        /* \"#utility.yul\":8008:8014   */\n      dup5\n        /* \"#utility.yul\":7964:8035   */\n      tag_457\n      jump\t// in\n    tag_584:\n        /* \"#utility.yul\":7820:8042   */\n      swap3\n      swap2\n      pop\n      pop\n      jump\t// out\n        /* \"#utility.yul\":8048:8165   */\n    tag_458:\n        /* \"#utility.yul\":8157:8158   */\n      0x00\n        /* \"#utility.yul\":8154:8155   */\n      dup1\n        /* \"#utility.yul\":8147:8159   */\n      revert\n        /* \"#utility.yul\":8171:8351   */\n    tag_459:\n        /* \"#utility.yul\":8219:8296   */\n      0x4e487b7100000000000000000000000000000000000000000000000000000000\n        /* \"#utility.yul\":8216:8217   */\n      0x00\n        /* \"#utility.yul\":8209:8297   */\n      mstore\n        /* \"#utility.yul\":8316:8320   */\n      0x41\n        /* \"#utility.yul\":8313:8314   */\n      0x04\n        /* \"#utility.yul\":8306:8321   */\n      mstore\n        /* \"#utility.yul\":8340:8344   */\n      0x24\n        /* \"#utility.yul\":8337:8338   */\n      0x00\n        /* \"#utility.yul\":8330:8345   */\n      revert\n        /* \"#utility.yul\":8357:8638   */\n    tag_460:\n        /* \"#utility.yul\":8440:8467   */\n      tag_588\n        /* \"#utility.yul\":8462:8466   */\n      dup3\n        /* \"#utility.yul\":8440:8467   */\n      tag_441\n      jump\t// in\n    tag_588:\n        /* \"#utility.yul\":8432:8438   */\n      dup2\n        /* \"#utility.yul\":8428:8468   */\n      add\n        /* \"#utility.yul\":8570:8576   */\n      dup2\n        /* \"#utility.yul\":8558:8568   */\n      dup2\n        /* \"#utility.yul\":8555:8577   */\n      lt\n        /* \"#utility.yul\":8534:8552   */\n      0xffffffffffffffff\n        /* \"#utility.yul\":8522:8532   */\n      dup3\n        /* \"#utility.yul\":8519:8553   */\n      gt\n        /* \"#utility.yul\":8516:8578   */\n      or\n        /* \"#utility.yul\":8513:8601   */\n      iszero\n      tag_589\n      jumpi\n        /* \"#utility.yul\":8581:8599   */\n      tag_590\n      tag_459\n      jump\t// in\n    tag_590:\n        /* \"#utility.yul\":8513:8601   */\n    tag_589:\n        /* \"#utility.yul\":8621:8631   */\n      dup1\n        /* \"#utility.yul\":8617:8619   */\n      0x40\n        /* \"#utility.yul\":8610:8632   */\n      mstore\n        /* \"#utility.yul\":8400:8638   */\n      pop\n        /* \"#utility.yul\":8357:8638   */\n      pop\n      pop\n      jump\t// out\n        /* \"#utility.yul\":8644:8773   */\n    tag_461:\n        /* \"#utility.yul\":8678:8684   */\n      0x00\n        /* \"#utility.yul\":8705:8725   */\n      tag_592\n      tag_430\n      jump\t// in\n    tag_592:\n        /* \"#utility.yul\":8695:8725   */\n      swap1\n      pop\n        /* \"#utility.yul\":8734:8767   */\n      tag_593\n        /* \"#utility.yul\":8762:8766   */\n      dup3\n        /* \"#utility.yul\":8754:8760   */\n      dup3\n        /* \"#utility.yul\":8734:8767   */\n      tag_460\n      jump\t// in\n    tag_593:\n        /* \"#utility.yul\":8644:8773   */\n      swap2\n      swap1\n      pop\n      jump\t// out\n        /* \"#utility.yul\":8779:9090   */\n    tag_462:\n        /* \"#utility.yul\":8856:8860   */\n      0x00\n        /* \"#utility.yul\":8946:8964   */\n      0xffffffffffffffff\n        /* \"#utility.yul\":8938:8944   */\n      dup3\n        /* \"#utility.yul\":8935:8965   */\n      gt\n        /* \"#utility.yul\":8932:8988   */\n      iszero\n      tag_595\n      jumpi\n        /* \"#utility.yul\":8968:8986   */\n      tag_596\n      tag_459\n      jump\t// in\n    tag_596:\n        /* \"#utility.yul\":8932:8988   */\n    tag_595:\n        /* \"#utility.yul\":9018:9022   */\n      0x20\n        /* \"#utility.yul\":9010:9016   */\n      dup3\n        /* \"#utility.yul\":9006:9023   */\n      mul\n        /* \"#utility.yul\":8998:9023   */\n      swap1\n      pop\n        /* \"#utility.yul\":9078:9082   */\n      0x20\n        /* \"#utility.yul\":9072:9076   */\n      dup2\n        /* \"#utility.yul\":9068:9083   */\n      add\n        /* \"#utility.yul\":9060:9083   */\n      swap1\n      pop\n        /* \"#utility.yul\":8779:9090   */\n      swap2\n      swap1\n      pop\n      jump\t// out\n        /* \"#utility.yul\":9096:9213   */\n    tag_463:\n        /* \"#utility.yul\":9205:9206   */\n      0x00\n        /* \"#utility.yul\":9202:9203   */\n      dup1\n        /* \"#utility.yul\":9195:9207   */\n      revert\n        /* \"#utility.yul\":9236:9946   */\n    tag_464:\n        /* \"#utility.yul\":9332:9337   */\n      0x00\n        /* \"#utility.yul\":9357:9438   */\n      tag_599\n        /* \"#utility.yul\":9373:9437   */\n      tag_600\n        /* \"#utility.yul\":9430:9436   */\n      dup5\n        /* \"#utility.yul\":9373:9437   */\n      tag_462\n      jump\t// in\n    tag_600:\n        /* \"#utility.yul\":9357:9438   */\n      tag_461\n      jump\t// in\n    tag_599:\n        /* \"#utility.yul\":9348:9438   */\n      swap1\n      pop\n        /* \"#utility.yul\":9458:9463   */\n      dup1\n        /* \"#utility.yul\":9487:9493   */\n      dup4\n        /* \"#utility.yul\":9480:9485   */\n      dup3\n        /* \"#utility.yul\":9473:9494   */\n      mstore\n        /* \"#utility.yul\":9521:9525   */\n      0x20\n        /* \"#utility.yul\":9514:9519   */\n      dup3\n        /* \"#utility.yul\":9510:9526   */\n      add\n        /* \"#utility.yul\":9503:9526   */\n      swap1\n      pop\n        /* \"#utility.yul\":9574:9578   */\n      0x20\n        /* \"#utility.yul\":9566:9572   */\n      dup5\n        /* \"#utility.yul\":9562:9579   */\n      mul\n        /* \"#utility.yul\":9554:9560   */\n      dup4\n        /* \"#utility.yul\":9550:9580   */\n      add\n        /* \"#utility.yul\":9603:9606   */\n      dup6\n        /* \"#utility.yul\":9595:9601   */\n      dup2\n        /* \"#utility.yul\":9592:9607   */\n      gt\n        /* \"#utility.yul\":9589:9711   */\n      iszero\n      tag_601\n      jumpi\n        /* \"#utility.yul\":9622:9701   */\n      tag_602\n      tag_463\n      jump\t// in\n    tag_602:\n        /* \"#utility.yul\":9589:9711   */\n    tag_601:\n        /* \"#utility.yul\":9737:9743   */\n      dup4\n        /* \"#utility.yul\":9720:9940   */\n    tag_603:\n        /* \"#utility.yul\":9754:9760   */\n      dup2\n        /* \"#utility.yul\":9749:9752   */\n      dup2\n        /* \"#utility.yul\":9746:9761   */\n      lt\n        /* \"#utility.yul\":9720:9940   */\n      iszero\n      tag_605\n      jumpi\n        /* \"#utility.yul\":9829:9832   */\n      dup1\n        /* \"#utility.yul\":9858:9895   */\n      tag_606\n        /* \"#utility.yul\":9891:9894   */\n      dup9\n        /* \"#utility.yul\":9879:9889   */\n      dup3\n        /* \"#utility.yul\":9858:9895   */\n      tag_446\n      jump\t// in\n    tag_606:\n        /* \"#utility.yul\":9853:9856   */\n      dup5\n        /* \"#utility.yul\":9846:9896   */\n      mstore\n        /* \"#utility.yul\":9925:9929   */\n      0x20\n        /* \"#utility.yul\":9920:9923   */\n      dup5\n        /* \"#utility.yul\":9916:9930   */\n      add\n        /* \"#utility.yul\":9909:9930   */\n      swap4\n      pop\n        /* \"#utility.yul\":9796:9940   */\n      pop\n        /* \"#utility.yul\":9780:9784   */\n      0x20\n        /* \"#utility.yul\":9775:9778   */\n      dup2\n        /* \"#utility.yul\":9771:9785   */\n      add\n        /* \"#utility.yul\":9764:9785   */\n      swap1\n      pop\n        /* \"#utility.yul\":9720:9940   */\n      jump(tag_603)\n    tag_605:\n        /* \"#utility.yul\":9724:9745   */\n      pop\n        /* \"#utility.yul\":9338:9946   */\n      pop\n      pop\n        /* \"#utility.yul\":9236:9946   */\n      swap4\n      swap3\n      pop\n      pop\n      pop\n      jump\t// out\n        /* \"#utility.yul\":9969:10339   */\n    tag_465:\n        /* \"#utility.yul\":10040:10045   */\n      0x00\n        /* \"#utility.yul\":10089:10092   */\n      dup3\n        /* \"#utility.yul\":10082:10086   */\n      0x1f\n        /* \"#utility.yul\":10074:10080   */\n      dup4\n        /* \"#utility.yul\":10070:10087   */\n      add\n        /* \"#utility.yul\":10066:10093   */\n      slt\n        /* \"#utility.yul\":10056:10178   */\n      tag_608\n      jumpi\n        /* \"#utility.yul\":10097:10176   */\n      tag_609\n      tag_458\n      jump\t// in\n    tag_609:\n        /* \"#utility.yul\":10056:10178   */\n    tag_608:\n        /* \"#utility.yul\":10214:10220   */\n      dup2\n        /* \"#utility.yul\":10201:10221   */\n      calldataload\n        /* \"#utility.yul\":10239:10333   */\n      tag_610\n        /* \"#utility.yul\":10329:10332   */\n      dup5\n        /* \"#utility.yul\":10321:10327   */\n      dup3\n        /* \"#utility.yul\":10314:10318   */\n      0x20\n        /* \"#utility.yul\":10306:10312   */\n      dup7\n        /* \"#utility.yul\":10302:10319   */\n      add\n        /* \"#utility.yul\":10239:10333   */\n      tag_464\n      jump\t// in\n    tag_610:\n        /* \"#utility.yul\":10230:10333   */\n      swap2\n      pop\n        /* \"#utility.yul\":10046:10339   */\n      pop\n        /* \"#utility.yul\":9969:10339   */\n      swap3\n      swap2\n      pop\n      pop\n      jump\t// out\n        /* \"#utility.yul\":10345:10656   */\n    tag_466:\n        /* \"#utility.yul\":10422:10426   */\n      0x00\n        /* \"#utility.yul\":10512:10530   */\n      0xffffffffffffffff\n        /* \"#utility.yul\":10504:10510   */\n      dup3\n        /* \"#utility.yul\":10501:10531   */\n      gt\n        /* \"#utility.yul\":10498:10554   */\n      iszero\n      tag_612\n      jumpi\n        /* \"#utility.yul\":10534:10552   */\n      tag_613\n      tag_459\n      jump\t// in\n    tag_613:\n        /* \"#utility.yul\":10498:10554   */\n    tag_612:\n        /* \"#utility.yul\":10584:10588   */\n      0x20\n        /* \"#utility.yul\":10576:10582   */\n      dup3\n        /* \"#utility.yul\":10572:10589   */\n      mul\n        /* \"#utility.yul\":10564:10589   */\n      swap1\n      pop\n        /* \"#utility.yul\":10644:10648   */\n      0x20\n        /* \"#utility.yul\":10638:10642   */\n      dup2\n        /* \"#utility.yul\":10634:10649   */\n      add\n        /* \"#utility.yul\":10626:10649   */\n      swap1\n      pop\n        /* \"#utility.yul\":10345:10656   */\n      swap2\n      swap1\n      pop\n      jump\t// out\n        /* \"#utility.yul\":10679:11389   */\n    tag_467:\n        /* \"#utility.yul\":10775:10780   */\n      0x00\n        /* \"#utility.yul\":10800:10881   */\n      tag_615\n        /* \"#utility.yul\":10816:10880   */\n      tag_616\n        /* \"#utility.yul\":10873:10879   */\n      dup5\n        /* \"#utility.yul\":10816:10880   */\n      tag_466\n      jump\t// in\n    tag_616:\n        /* \"#utility.yul\":10800:10881   */\n      tag_461\n      jump\t// in\n    tag_615:\n        /* \"#utility.yul\":10791:10881   */\n      swap1\n      pop\n        /* \"#utility.yul\":10901:10906   */\n      dup1\n        /* \"#utility.yul\":10930:10936   */\n      dup4\n        /* \"#utility.yul\":10923:10928   */\n      dup3\n        /* \"#utility.yul\":10916:10937   */\n      mstore\n        /* \"#utility.yul\":10964:10968   */\n      0x20\n        /* \"#utility.yul\":10957:10962   */\n      dup3\n        /* \"#utility.yul\":10953:10969   */\n      add\n        /* \"#utility.yul\":10946:10969   */\n      swap1\n      pop\n        /* \"#utility.yul\":11017:11021   */\n      0x20\n        /* \"#utility.yul\":11009:11015   */\n      dup5\n        /* \"#utility.yul\":11005:11022   */\n      mul\n        /* \"#utility.yul\":10997:11003   */\n      dup4\n        /* \"#utility.yul\":10993:11023   */\n      add\n        /* \"#utility.yul\":11046:11049   */\n      dup6\n        /* \"#utility.yul\":11038:11044   */\n      dup2\n        /* \"#utility.yul\":11035:11050   */\n      gt\n        /* \"#utility.yul\":11032:11154   */\n      iszero\n      tag_617\n      jumpi\n        /* \"#utility.yul\":11065:11144   */\n      tag_618\n      tag_463\n      jump\t// in\n    tag_618:\n        /* \"#utility.yul\":11032:11154   */\n    tag_617:\n        /* \"#utility.yul\":11180:11186   */\n      dup4\n        /* \"#utility.yul\":11163:11383   */\n    tag_619:\n        /* \"#utility.yul\":11197:11203   */\n      dup2\n        /* \"#utility.yul\":11192:11195   */\n      dup2\n        /* \"#utility.yul\":11189:11204   */\n      lt\n        /* \"#utility.yul\":11163:11383   */\n      iszero\n      tag_621\n      jumpi\n        /* \"#utility.yul\":11272:11275   */\n      dup1\n        /* \"#utility.yul\":11301:11338   */\n      tag_622\n        /* \"#utility.yul\":11334:11337   */\n      dup9\n        /* \"#utility.yul\":11322:11332   */\n      dup3\n        /* \"#utility.yul\":11301:11338   */\n      tag_449\n      jump\t// in\n    tag_622:\n        /* \"#utility.yul\":11296:11299   */\n      dup5\n        /* \"#utility.yul\":11289:11339   */\n      mstore\n        /* \"#utility.yul\":11368:11372   */\n      0x20\n        /* \"#utility.yul\":11363:11366   */\n      dup5\n        /* \"#utility.yul\":11359:11373   */\n      add\n        /* \"#utility.yul\":11352:11373   */\n      swap4\n      pop\n        /* \"#utility.yul\":11239:11383   */\n      pop\n        /* \"#utility.yul\":11223:11227   */\n      0x20\n        /* \"#utility.yul\":11218:11221   */\n      dup2\n        /* \"#utility.yul\":11214:11228   */\n      add\n        /* \"#utility.yul\":11207:11228   */\n      swap1\n      pop\n        /* \"#utility.yul\":11163:11383   */\n      jump(tag_619)\n    tag_621:\n        /* \"#utility.yul\":11167:11188   */\n      pop\n        /* \"#utility.yul\":10781:11389   */\n      pop\n      pop\n        /* \"#utility.yul\":10679:11389   */\n      swap4\n      swap3\n      pop\n      pop\n      pop\n      jump\t// out\n        /* \"#utility.yul\":11412:11782   */\n    tag_468:\n        /* \"#utility.yul\":11483:11488   */\n      0x00\n        /* \"#utility.yul\":11532:11535   */\n      dup3\n        /* \"#utility.yul\":11525:11529   */\n      0x1f\n        /* \"#utility.yul\":11517:11523   */\n      dup4\n        /* \"#utility.yul\":11513:11530   */\n      add\n        /* \"#utility.yul\":11509:11536   */\n      slt\n        /* \"#utility.yul\":11499:11621   */\n      tag_624\n      jumpi\n        /* \"#utility.yul\":11540:11619   */\n      tag_625\n      tag_458\n      jump\t// in\n    tag_625:\n        /* \"#utility.yul\":11499:11621   */\n    tag_624:\n        /* \"#utility.yul\":11657:11663   */\n      dup2\n        /* \"#utility.yul\":11644:11664   */\n      calldataload\n        /* \"#utility.yul\":11682:11776   */\n      tag_626\n        /* \"#utility.yul\":11772:11775   */\n      dup5\n        /* \"#utility.yul\":11764:11770   */\n      dup3\n        /* \"#utility.yul\":11757:11761   */\n      0x20\n        /* \"#utility.yul\":11749:11755   */\n      dup7\n        /* \"#utility.yul\":11745:11762   */\n      add\n        /* \"#utility.yul\":11682:11776   */\n      tag_467\n      jump\t// in\n    tag_626:\n        /* \"#utility.yul\":11673:11776   */\n      swap2\n      pop\n        /* \"#utility.yul\":11489:11782   */\n      pop\n        /* \"#utility.yul\":11412:11782   */\n      swap3\n      swap2\n      pop\n      pop\n      jump\t// out\n        /* \"#utility.yul\":11788:12682   */\n    tag_120:\n        /* \"#utility.yul\":11906:11912   */\n      0x00\n        /* \"#utility.yul\":11914:11920   */\n      dup1\n        /* \"#utility.yul\":11963:11965   */\n      0x40\n        /* \"#utility.yul\":11951:11960   */\n      dup4\n        /* \"#utility.yul\":11942:11949   */\n      dup6\n        /* \"#utility.yul\":11938:11961   */\n      sub\n        /* \"#utility.yul\":11934:11966   */\n      slt\n        /* \"#utility.yul\":11931:12050   */\n      iszero\n      tag_628\n      jumpi\n        /* \"#utility.yul\":11969:12048   */\n      tag_629\n      tag_431\n      jump\t// in\n    tag_629:\n        /* \"#utility.yul\":11931:12050   */\n    tag_628:\n        /* \"#utility.yul\":12117:12118   */\n      0x00\n        /* \"#utility.yul\":12106:12115   */\n      dup4\n        /* \"#utility.yul\":12102:12119   */\n      add\n        /* \"#utility.yul\":12089:12120   */\n      calldataload\n        /* \"#utility.yul\":12147:12165   */\n      0xffffffffffffffff\n        /* \"#utility.yul\":12139:12145   */\n      dup2\n        /* \"#utility.yul\":12136:12166   */\n      gt\n        /* \"#utility.yul\":12133:12250   */\n      iszero\n      tag_630\n      jumpi\n        /* \"#utility.yul\":12169:12248   */\n      tag_631\n      tag_432\n      jump\t// in\n    tag_631:\n        /* \"#utility.yul\":12133:12250   */\n    tag_630:\n        /* \"#utility.yul\":12274:12352   */\n      tag_632\n        /* \"#utility.yul\":12344:12351   */\n      dup6\n        /* \"#utility.yul\":12335:12341   */\n      dup3\n        /* \"#utility.yul\":12324:12333   */\n      dup7\n        /* \"#utility.yul\":12320:12342   */\n      add\n        /* \"#utility.yul\":12274:12352   */\n      tag_465\n      jump\t// in\n    tag_632:\n        /* \"#utility.yul\":12264:12352   */\n      swap3\n      pop\n        /* \"#utility.yul\":12060:12362   */\n      pop\n        /* \"#utility.yul\":12429:12431   */\n      0x20\n        /* \"#utility.yul\":12418:12427   */\n      dup4\n        /* \"#utility.yul\":12414:12432   */\n      add\n        /* \"#utility.yul\":12401:12433   */\n      calldataload\n        /* \"#utility.yul\":12460:12478   */\n      0xffffffffffffffff\n        /* \"#utility.yul\":12452:12458   */\n      dup2\n        /* \"#utility.yul\":12449:12479   */\n      gt\n        /* \"#utility.yul\":12446:12563   */\n      iszero\n      tag_633\n      jumpi\n        /* \"#utility.yul\":12482:12561   */\n      tag_634\n      tag_432\n      jump\t// in\n    tag_634:\n        /* \"#utility.yul\":12446:12563   */\n    tag_633:\n        /* \"#utility.yul\":12587:12665   */\n      tag_635\n        /* \"#utility.yul\":12657:12664   */\n      dup6\n        /* \"#utility.yul\":12648:12654   */\n      dup3\n        /* \"#utility.yul\":12637:12646   */\n      dup7\n        /* \"#utility.yul\":12633:12655   */\n      add\n        /* \"#utility.yul\":12587:12665   */\n      tag_468\n      jump\t// in\n    tag_635:\n        /* \"#utility.yul\":12577:12665   */\n      swap2\n      pop\n        /* \"#utility.yul\":12372:12675   */\n      pop\n        /* \"#utility.yul\":11788:12682   */\n      swap3\n      pop\n      swap3\n      swap1\n      pop\n      jump\t// out\n        /* \"#utility.yul\":12688:13162   */\n    tag_161:\n        /* \"#utility.yul\":12756:12762   */\n      0x00\n        /* \"#utility.yul\":12764:12770   */\n      dup1\n        /* \"#utility.yul\":12813:12815   */\n      0x40\n        /* \"#utility.yul\":12801:12810   */\n      dup4\n        /* \"#utility.yul\":12792:12799   */\n      dup6\n        /* \"#utility.yul\":12788:12811   */\n      sub\n        /* \"#utility.yul\":12784:12816   */\n      slt\n        /* \"#utility.yul\":12781:12900   */\n      iszero\n      tag_637\n      jumpi\n        /* \"#utility.yul\":12819:12898   */\n      tag_638\n      tag_431\n      jump\t// in\n    tag_638:\n        /* \"#utility.yul\":12781:12900   */\n    tag_637:\n        /* \"#utility.yul\":12939:12940   */\n      0x00\n        /* \"#utility.yul\":12964:13017   */\n      tag_639\n        /* \"#utility.yul\":13009:13016   */\n      dup6\n        /* \"#utility.yul\":13000:13006   */\n      dup3\n        /* \"#utility.yul\":12989:12998   */\n      dup7\n        /* \"#utility.yul\":12985:13007   */\n      add\n        /* \"#utility.yul\":12964:13017   */\n      tag_446\n      jump\t// in\n    tag_639:\n        /* \"#utility.yul\":12954:13017   */\n      swap3\n      pop\n        /* \"#utility.yul\":12910:13027   */\n      pop\n        /* \"#utility.yul\":13066:13068   */\n      0x20\n        /* \"#utility.yul\":13092:13145   */\n      tag_640\n        /* \"#utility.yul\":13137:13144   */\n      dup6\n        /* \"#utility.yul\":13128:13134   */\n      dup3\n        /* \"#utility.yul\":13117:13126   */\n      dup7\n        /* \"#utility.yul\":13113:13135   */\n      add\n        /* \"#utility.yul\":13092:13145   */\n      tag_446\n      jump\t// in\n    tag_640:\n        /* \"#utility.yul\":13082:13145   */\n      swap2\n      pop\n        /* \"#utility.yul\":13037:13155   */\n      pop\n        /* \"#utility.yul\":12688:13162   */\n      swap3\n      pop\n      swap3\n      swap1\n      pop\n      jump\t// out\n        /* \"#utility.yul\":13168:13348   */\n    tag_469:\n        /* \"#utility.yul\":13216:13293   */\n      0x4e487b7100000000000000000000000000000000000000000000000000000000\n        /* \"#utility.yul\":13213:13214   */\n      0x00\n        /* \"#utility.yul\":13206:13294   */\n      mstore\n        /* \"#utility.yul\":13313:13317   */\n      0x22\n        /* \"#utility.yul\":13310:13311   */\n      0x04\n        /* \"#utility.yul\":13303:13318   */\n      mstore\n        /* \"#utility.yul\":13337:13341   */\n      0x24\n        /* \"#utility.yul\":13334:13335   */\n      0x00\n        /* \"#utility.yul\":13327:13342   */\n      revert\n        /* \"#utility.yul\":13354:13674   */\n    tag_176:\n        /* \"#utility.yul\":13398:13404   */\n      0x00\n        /* \"#utility.yul\":13435:13436   */\n      0x02\n        /* \"#utility.yul\":13429:13433   */\n      dup3\n        /* \"#utility.yul\":13425:13437   */\n      div\n        /* \"#utility.yul\":13415:13437   */\n      swap1\n      pop\n        /* \"#utility.yul\":13482:13483   */\n      0x01\n        /* \"#utility.yul\":13476:13480   */\n      dup3\n        /* \"#utility.yul\":13472:13484   */\n      and\n        /* \"#utility.yul\":13503:13521   */\n      dup1\n        /* \"#utility.yul\":13493:13574   */\n      tag_643\n      jumpi\n        /* \"#utility.yul\":13559:13563   */\n      0x7f\n        /* \"#utility.yul\":13551:13557   */\n      dup3\n        /* \"#utility.yul\":13547:13564   */\n      and\n        /* \"#utility.yul\":13537:13564   */\n      swap2\n      pop\n        /* \"#utility.yul\":13493:13574   */\n    tag_643:\n        /* \"#utility.yul\":13621:13623   */\n      0x20\n        /* \"#utility.yul\":13613:13619   */\n      dup3\n        /* \"#utility.yul\":13610:13624   */\n      lt\n        /* \"#utility.yul\":13590:13608   */\n      dup2\n        /* \"#utility.yul\":13587:13625   */\n      sub\n        /* \"#utility.yul\":13584:13668   */\n      tag_644\n      jumpi\n        /* \"#utility.yul\":13640:13658   */\n      tag_645\n      tag_469\n      jump\t// in\n    tag_645:\n        /* \"#utility.yul\":13584:13668   */\n    tag_644:\n        /* \"#utility.yul\":13405:13674   */\n      pop\n        /* \"#utility.yul\":13354:13674   */\n      swap2\n      swap1\n      pop\n      jump\t// out\n        /* \"#utility.yul\":13680:14122   */\n    tag_188:\n        /* \"#utility.yul\":13829:13833   */\n      0x00\n        /* \"#utility.yul\":13867:13869   */\n      0x60\n        /* \"#utility.yul\":13856:13865   */\n      dup3\n        /* \"#utility.yul\":13852:13870   */\n      add\n        /* \"#utility.yul\":13844:13870   */\n      swap1\n      pop\n        /* \"#utility.yul\":13880:13951   */\n      tag_647\n        /* \"#utility.yul\":13948:13949   */\n      0x00\n        /* \"#utility.yul\":13937:13946   */\n      dup4\n        /* \"#utility.yul\":13933:13950   */\n      add\n        /* \"#utility.yul\":13924:13930   */\n      dup7\n        /* \"#utility.yul\":13880:13951   */\n      tag_457\n      jump\t// in\n    tag_647:\n        /* \"#utility.yul\":13961:14033   */\n      tag_648\n        /* \"#utility.yul\":14029:14031   */\n      0x20\n        /* \"#utility.yul\":14018:14027   */\n      dup4\n        /* \"#utility.yul\":14014:14032   */\n      add\n        /* \"#utility.yul\":14005:14011   */\n      dup6\n        /* \"#utility.yul\":13961:14033   */\n      tag_457\n      jump\t// in\n    tag_648:\n        /* \"#utility.yul\":14043:14115   */\n      tag_649\n        /* \"#utility.yul\":14111:14113   */\n      0x40\n        /* \"#utility.yul\":14100:14109   */\n      dup4\n        /* \"#utility.yul\":14096:14114   */\n      add\n        /* \"#utility.yul\":14087:14093   */\n      dup5\n        /* \"#utility.yul\":14043:14115   */\n      tag_450\n      jump\t// in\n    tag_649:\n        /* \"#utility.yul\":13680:14122   */\n      swap5\n      swap4\n      pop\n      pop\n      pop\n      pop\n      jump\t// out\n        /* \"#utility.yul\":14128:14244   */\n    tag_470:\n        /* \"#utility.yul\":14198:14219   */\n      tag_651\n        /* \"#utility.yul\":14213:14218   */\n      dup2\n        /* \"#utility.yul\":14198:14219   */\n      tag_436\n      jump\t// in\n    tag_651:\n        /* \"#utility.yul\":14191:14196   */\n      dup2\n        /* \"#utility.yul\":14188:14220   */\n      eq\n        /* \"#utility.yul\":14178:14238   */\n      tag_652\n      jumpi\n        /* \"#utility.yul\":14234:14235   */\n      0x00\n        /* \"#utility.yul\":14231:14232   */\n      dup1\n        /* \"#utility.yul\":14224:14236   */\n      revert\n        /* \"#utility.yul\":14178:14238   */\n    tag_652:\n        /* \"#utility.yul\":14128:14244   */\n      pop\n      jump\t// out\n        /* \"#utility.yul\":14250:14387   */\n    tag_471:\n        /* \"#utility.yul\":14304:14309   */\n      0x00\n        /* \"#utility.yul\":14335:14341   */\n      dup2\n        /* \"#utility.yul\":14329:14342   */\n      mload\n        /* \"#utility.yul\":14320:14342   */\n      swap1\n      pop\n        /* \"#utility.yul\":14351:14381   */\n      tag_654\n        /* \"#utility.yul\":14375:14380   */\n      dup2\n        /* \"#utility.yul\":14351:14381   */\n      tag_470\n      jump\t// in\n    tag_654:\n        /* \"#utility.yul\":14250:14387   */\n      swap3\n      swap2\n      pop\n      pop\n      jump\t// out\n        /* \"#utility.yul\":14393:14738   */\n    tag_192:\n        /* \"#utility.yul\":14460:14466   */\n      0x00\n        /* \"#utility.yul\":14509:14511   */\n      0x20\n        /* \"#utility.yul\":14497:14506   */\n      dup3\n        /* \"#utility.yul\":14488:14495   */\n      dup5\n        /* \"#utility.yul\":14484:14507   */\n      sub\n        /* \"#utility.yul\":14480:14512   */\n      slt\n        /* \"#utility.yul\":14477:14596   */\n      iszero\n      tag_656\n      jumpi\n        /* \"#utility.yul\":14515:14594   */\n      tag_657\n      tag_431\n      jump\t// in\n    tag_657:\n        /* \"#utility.yul\":14477:14596   */\n    tag_656:\n        /* \"#utility.yul\":14635:14636   */\n      0x00\n        /* \"#utility.yul\":14660:14721   */\n      tag_658\n        /* \"#utility.yul\":14713:14720   */\n      dup5\n        /* \"#utility.yul\":14704:14710   */\n      dup3\n        /* \"#utility.yul\":14693:14702   */\n      dup6\n        /* \"#utility.yul\":14689:14711   */\n      add\n        /* \"#utility.yul\":14660:14721   */\n      tag_471\n      jump\t// in\n    tag_658:\n        /* \"#utility.yul\":14650:14721   */\n      swap2\n      pop\n        /* \"#utility.yul\":14606:14731   */\n      pop\n        /* \"#utility.yul\":14393:14738   */\n      swap3\n      swap2\n      pop\n      pop\n      jump\t// out\n        /* \"#utility.yul\":14744:14921   */\n    tag_472:\n        /* \"#utility.yul\":14884:14913   */\n      0x537461626c6520636f696e207472616e73666572206661696c65640000000000\n        /* \"#utility.yul\":14880:14881   */\n      0x00\n        /* \"#utility.yul\":14872:14878   */\n      dup3\n        /* \"#utility.yul\":14868:14882   */\n      add\n        /* \"#utility.yul\":14861:14914   */\n      mstore\n        /* \"#utility.yul\":14744:14921   */\n      pop\n      jump\t// out\n        /* \"#utility.yul\":14927:15293   */\n    tag_473:\n        /* \"#utility.yul\":15069:15072   */\n      0x00\n        /* \"#utility.yul\":15090:15157   */\n      tag_661\n        /* \"#utility.yul\":15154:15156   */\n      0x1b\n        /* \"#utility.yul\":15149:15152   */\n      dup4\n        /* \"#utility.yul\":15090:15157   */\n      tag_439\n      jump\t// in\n    tag_661:\n        /* \"#utility.yul\":15083:15157   */\n      swap2\n      pop\n        /* \"#utility.yul\":15166:15259   */\n      tag_662\n        /* \"#utility.yul\":15255:15258   */\n      dup3\n        /* \"#utility.yul\":15166:15259   */\n      tag_472\n      jump\t// in\n    tag_662:\n        /* \"#utility.yul\":15284:15286   */\n      0x20\n        /* \"#utility.yul\":15279:15282   */\n      dup3\n        /* \"#utility.yul\":15275:15287   */\n      add\n        /* \"#utility.yul\":15268:15287   */\n      swap1\n      pop\n        /* \"#utility.yul\":14927:15293   */\n      swap2\n      swap1\n      pop\n      jump\t// out\n        /* \"#utility.yul\":15299:15718   */\n    tag_195:\n        /* \"#utility.yul\":15465:15469   */\n      0x00\n        /* \"#utility.yul\":15503:15505   */\n      0x20\n        /* \"#utility.yul\":15492:15501   */\n      dup3\n        /* \"#utility.yul\":15488:15506   */\n      add\n        /* \"#utility.yul\":15480:15506   */\n      swap1\n      pop\n        /* \"#utility.yul\":15552:15561   */\n      dup2\n        /* \"#utility.yul\":15546:15550   */\n      dup2\n        /* \"#utility.yul\":15542:15562   */\n      sub\n        /* \"#utility.yul\":15538:15539   */\n      0x00\n        /* \"#utility.yul\":15527:15536   */\n      dup4\n        /* \"#utility.yul\":15523:15540   */\n      add\n        /* \"#utility.yul\":15516:15563   */\n      mstore\n        /* \"#utility.yul\":15580:15711   */\n      tag_664\n        /* \"#utility.yul\":15706:15710   */\n      dup2\n        /* \"#utility.yul\":15580:15711   */\n      tag_473\n      jump\t// in\n    tag_664:\n        /* \"#utility.yul\":15572:15711   */\n      swap1\n      pop\n        /* \"#utility.yul\":15299:15718   */\n      swap2\n      swap1\n      pop\n      jump\t// out\n        /* \"#utility.yul\":15724:16056   */\n    tag_197:\n        /* \"#utility.yul\":15845:15849   */\n      0x00\n        /* \"#utility.yul\":15883:15885   */\n      0x40\n        /* \"#utility.yul\":15872:15881   */\n      dup3\n        /* \"#utility.yul\":15868:15886   */\n      add\n        /* \"#utility.yul\":15860:15886   */\n      swap1\n      pop\n        /* \"#utility.yul\":15896:15967   */\n      tag_666\n        /* \"#utility.yul\":15964:15965   */\n      0x00\n        /* \"#utility.yul\":15953:15962   */\n      dup4\n        /* \"#utility.yul\":15949:15966   */\n      add\n        /* \"#utility.yul\":15940:15946   */\n      dup6\n        /* \"#utility.yul\":15896:15967   */\n      tag_457\n      jump\t// in\n    tag_666:\n        /* \"#utility.yul\":15977:16049   */\n      tag_667\n        /* \"#utility.yul\":16045:16047   */\n      0x20\n        /* \"#utility.yul\":16034:16043   */\n      dup4\n        /* \"#utility.yul\":16030:16048   */\n      add\n        /* \"#utility.yul\":16021:16027   */\n      dup5\n        /* \"#utility.yul\":15977:16049   */\n      tag_450\n      jump\t// in\n    tag_667:\n        /* \"#utility.yul\":15724:16056   */\n      swap4\n      swap3\n      pop\n      pop\n      pop\n      jump\t// out\n        /* \"#utility.yul\":16062:16238   */\n    tag_474:\n        /* \"#utility.yul\":16202:16230   */\n      0x426f6e6420746f6b656e207472616e73666572206661696c6564000000000000\n        /* \"#utility.yul\":16198:16199   */\n      0x00\n        /* \"#utility.yul\":16190:16196   */\n      dup3\n        /* \"#utility.yul\":16186:16200   */\n      add\n        /* \"#utility.yul\":16179:16231   */\n      mstore\n        /* \"#utility.yul\":16062:16238   */\n      pop\n      jump\t// out\n        /* \"#utility.yul\":16244:16610   */\n    tag_475:\n        /* \"#utility.yul\":16386:16389   */\n      0x00\n        /* \"#utility.yul\":16407:16474   */\n      tag_670\n        /* \"#utility.yul\":16471:16473   */\n      0x1a\n        /* \"#utility.yul\":16466:16469   */\n      dup4\n        /* \"#utility.yul\":16407:16474   */\n      tag_439\n      jump\t// in\n    tag_670:\n        /* \"#utility.yul\":16400:16474   */\n      swap2\n      pop\n        /* \"#utility.yul\":16483:16576   */\n      tag_671\n        /* \"#utility.yul\":16572:16575   */\n      dup3\n        /* \"#utility.yul\":16483:16576   */\n      tag_474\n      jump\t// in\n    tag_671:\n        /* \"#utility.yul\":16601:16603   */\n      0x20\n        /* \"#utility.yul\":16596:16599   */\n      dup3\n        /* \"#utility.yul\":16592:16604   */\n      add\n        /* \"#utility.yul\":16585:16604   */\n      swap1\n      pop\n        /* \"#utility.yul\":16244:16610   */\n      swap2\n      swap1\n      pop\n      jump\t// out\n        /* \"#utility.yul\":16616:17035   */\n    tag_203:\n        /* \"#utility.yul\":16782:16786   */\n      0x00\n        /* \"#utility.yul\":16820:16822   */\n      0x20\n        /* \"#utility.yul\":16809:16818   */\n      dup3\n        /* \"#utility.yul\":16805:16823   */\n      add\n        /* \"#utility.yul\":16797:16823   */\n      swap1\n      pop\n        /* \"#utility.yul\":16869:16878   */\n      dup2\n        /* \"#utility.yul\":16863:16867   */\n      dup2\n        /* \"#utility.yul\":16859:16879   */\n      sub\n        /* \"#utility.yul\":16855:16856   */\n      0x00\n        /* \"#utility.yul\":16844:16853   */\n      dup4\n        /* \"#utility.yul\":16840:16857   */\n      add\n        /* \"#utility.yul\":16833:16880   */\n      mstore\n        /* \"#utility.yul\":16897:17028   */\n      tag_673\n        /* \"#utility.yul\":17023:17027   */\n      dup2\n        /* \"#utility.yul\":16897:17028   */\n      tag_475\n      jump\t// in\n    tag_673:\n        /* \"#utility.yul\":16889:17028   */\n      swap1\n      pop\n        /* \"#utility.yul\":16616:17035   */\n      swap2\n      swap1\n      pop\n      jump\t// out\n        /* \"#utility.yul\":17041:17184   */\n    tag_476:\n        /* \"#utility.yul\":17098:17103   */\n      0x00\n        /* \"#utility.yul\":17129:17135   */\n      dup2\n        /* \"#utility.yul\":17123:17136   */\n      mload\n        /* \"#utility.yul\":17114:17136   */\n      swap1\n      pop\n        /* \"#utility.yul\":17145:17178   */\n      tag_675\n        /* \"#utility.yul\":17172:17177   */\n      dup2\n        /* \"#utility.yul\":17145:17178   */\n      tag_448\n      jump\t// in\n    tag_675:\n        /* \"#utility.yul\":17041:17184   */\n      swap3\n      swap2\n      pop\n      pop\n      jump\t// out\n        /* \"#utility.yul\":17190:17541   */\n    tag_250:\n        /* \"#utility.yul\":17260:17266   */\n      0x00\n        /* \"#utility.yul\":17309:17311   */\n      0x20\n        /* \"#utility.yul\":17297:17306   */\n      dup3\n        /* \"#utility.yul\":17288:17295   */\n      dup5\n        /* \"#utility.yul\":17284:17307   */\n      sub\n        /* \"#utility.yul\":17280:17312   */\n      slt\n        /* \"#utility.yul\":17277:17396   */\n      iszero\n      tag_677\n      jumpi\n        /* \"#utility.yul\":17315:17394   */\n      tag_678\n      tag_431\n      jump\t// in\n    tag_678:\n        /* \"#utility.yul\":17277:17396   */\n    tag_677:\n        /* \"#utility.yul\":17435:17436   */\n      0x00\n        /* \"#utility.yul\":17460:17524   */\n      tag_679\n        /* \"#utility.yul\":17516:17523   */\n      dup5\n        /* \"#utility.yul\":17507:17513   */\n      dup3\n        /* \"#utility.yul\":17496:17505   */\n      dup6\n        /* \"#utility.yul\":17492:17514   */\n      add\n        /* \"#utility.yul\":17460:17524   */\n      tag_476\n      jump\t// in\n    tag_679:\n        /* \"#utility.yul\":17450:17524   */\n      swap2\n      pop\n        /* \"#utility.yul\":17406:17534   */\n      pop\n        /* \"#utility.yul\":17190:17541   */\n      swap3\n      swap2\n      pop\n      pop\n      jump\t// out\n        /* \"#utility.yul\":17547:17775   */\n    tag_477:\n        /* \"#utility.yul\":17687:17721   */\n      0x546f6b656e20686f6c6465727320616e6420616d6f756e7473206c656e677468\n        /* \"#utility.yul\":17683:17684   */\n      0x00\n        /* \"#utility.yul\":17675:17681   */\n      dup3\n        /* \"#utility.yul\":17671:17685   */\n      add\n        /* \"#utility.yul\":17664:17722   */\n      mstore\n        /* \"#utility.yul\":17756:17767   */\n      0x206d69736d617463680000000000000000000000000000000000000000000000\n        /* \"#utility.yul\":17751:17753   */\n      0x20\n        /* \"#utility.yul\":17743:17749   */\n      dup3\n        /* \"#utility.yul\":17739:17754   */\n      add\n        /* \"#utility.yul\":17732:17768   */\n      mstore\n        /* \"#utility.yul\":17547:17775   */\n      pop\n      jump\t// out\n        /* \"#utility.yul\":17781:18147   */\n    tag_478:\n        /* \"#utility.yul\":17923:17926   */\n      0x00\n        /* \"#utility.yul\":17944:18011   */\n      tag_682\n        /* \"#utility.yul\":18008:18010   */\n      0x29\n        /* \"#utility.yul\":18003:18006   */\n      dup4\n        /* \"#utility.yul\":17944:18011   */\n      tag_439\n      jump\t// in\n    tag_682:\n        /* \"#utility.yul\":17937:18011   */\n      swap2\n      pop\n        /* \"#utility.yul\":18020:18113   */\n      tag_683\n        /* \"#utility.yul\":18109:18112   */\n      dup3\n        /* \"#utility.yul\":18020:18113   */\n      tag_477\n      jump\t// in\n    tag_683:\n        /* \"#utility.yul\":18138:18140   */\n      0x40\n        /* \"#utility.yul\":18133:18136   */\n      dup3\n        /* \"#utility.yul\":18129:18141   */\n      add\n        /* \"#utility.yul\":18122:18141   */\n      swap1\n      pop\n        /* \"#utility.yul\":17781:18147   */\n      swap2\n      swap1\n      pop\n      jump\t// out\n        /* \"#utility.yul\":18153:18572   */\n    tag_256:\n        /* \"#utility.yul\":18319:18323   */\n      0x00\n        /* \"#utility.yul\":18357:18359   */\n      0x20\n        /* \"#utility.yul\":18346:18355   */\n      dup3\n        /* \"#utility.yul\":18342:18360   */\n      add\n        /* \"#utility.yul\":18334:18360   */\n      swap1\n      pop\n        /* \"#utility.yul\":18406:18415   */\n      dup2\n        /* \"#utility.yul\":18400:18404   */\n      dup2\n        /* \"#utility.yul\":18396:18416   */\n      sub\n        /* \"#utility.yul\":18392:18393   */\n      0x00\n        /* \"#utility.yul\":18381:18390   */\n      dup4\n        /* \"#utility.yul\":18377:18394   */\n      add\n        /* \"#utility.yul\":18370:18417   */\n      mstore\n        /* \"#utility.yul\":18434:18565   */\n      tag_685\n        /* \"#utility.yul\":18560:18564   */\n      dup2\n        /* \"#utility.yul\":18434:18565   */\n      tag_478\n      jump\t// in\n    tag_685:\n        /* \"#utility.yul\":18426:18565   */\n      swap1\n      pop\n        /* \"#utility.yul\":18153:18572   */\n      swap2\n      swap1\n      pop\n      jump\t// out\n        /* \"#utility.yul\":18578:18758   */\n    tag_262:\n        /* \"#utility.yul\":18626:18703   */\n      0x4e487b7100000000000000000000000000000000000000000000000000000000\n        /* \"#utility.yul\":18623:18624   */\n      0x00\n        /* \"#utility.yul\":18616:18704   */\n      mstore\n        /* \"#utility.yul\":18723:18727   */\n      0x32\n        /* \"#utility.yul\":18720:18721   */\n      0x04\n        /* \"#utility.yul\":18713:18728   */\n      mstore\n        /* \"#utility.yul\":18747:18751   */\n      0x24\n        /* \"#utility.yul\":18744:18745   */\n      0x00\n        /* \"#utility.yul\":18737:18752   */\n      revert\n        /* \"#utility.yul\":18764:18929   */\n    tag_479:\n        /* \"#utility.yul\":18904:18921   */\n      0x5472616e73666572206661696c65640000000000000000000000000000000000\n        /* \"#utility.yul\":18900:18901   */\n      0x00\n        /* \"#utility.yul\":18892:18898   */\n      dup3\n        /* \"#utility.yul\":18888:18902   */\n      add\n        /* \"#utility.yul\":18881:18922   */\n      mstore\n        /* \"#utility.yul\":18764:18929   */\n      pop\n      jump\t// out\n        /* \"#utility.yul\":18935:19301   */\n    tag_480:\n        /* \"#utility.yul\":19077:19080   */\n      0x00\n        /* \"#utility.yul\":19098:19165   */\n      tag_689\n        /* \"#utility.yul\":19162:19164   */\n      0x0f\n        /* \"#utility.yul\":19157:19160   */\n      dup4\n        /* \"#utility.yul\":19098:19165   */\n      tag_439\n      jump\t// in\n    tag_689:\n        /* \"#utility.yul\":19091:19165   */\n      swap2\n      pop\n        /* \"#utility.yul\":19174:19267   */\n      tag_690\n        /* \"#utility.yul\":19263:19266   */\n      dup3\n        /* \"#utility.yul\":19174:19267   */\n      tag_479\n      jump\t// in\n    tag_690:\n        /* \"#utility.yul\":19292:19294   */\n      0x20\n        /* \"#utility.yul\":19287:19290   */\n      dup3\n        /* \"#utility.yul\":19283:19295   */\n      add\n        /* \"#utility.yul\":19276:19295   */\n      swap1\n      pop\n        /* \"#utility.yul\":18935:19301   */\n      swap2\n      swap1\n      pop\n      jump\t// out\n        /* \"#utility.yul\":19307:19726   */\n    tag_271:\n        /* \"#utility.yul\":19473:19477   */\n      0x00\n        /* \"#utility.yul\":19511:19513   */\n      0x20\n        /* \"#utility.yul\":19500:19509   */\n      dup3\n        /* \"#utility.yul\":19496:19514   */\n      add\n        /* \"#utility.yul\":19488:19514   */\n      swap1\n      pop\n        /* \"#utility.yul\":19560:19569   */\n      dup2\n        /* \"#utility.yul\":19554:19558   */\n      dup2\n        /* \"#utility.yul\":19550:19570   */\n      sub\n        /* \"#utility.yul\":19546:19547   */\n      0x00\n        /* \"#utility.yul\":19535:19544   */\n      dup4\n        /* \"#utility.yul\":19531:19548   */\n      add\n        /* \"#utility.yul\":19524:19571   */\n      mstore\n        /* \"#utility.yul\":19588:19719   */\n      tag_692\n        /* \"#utility.yul\":19714:19718   */\n      dup2\n        /* \"#utility.yul\":19588:19719   */\n      tag_480\n      jump\t// in\n    tag_692:\n        /* \"#utility.yul\":19580:19719   */\n      swap1\n      pop\n        /* \"#utility.yul\":19307:19726   */\n      swap2\n      swap1\n      pop\n      jump\t// out\n        /* \"#utility.yul\":19732:19906   */\n    tag_481:\n        /* \"#utility.yul\":19872:19898   */\n      0x4d61747572697479206e6f742079657420726561636865640000000000000000\n        /* \"#utility.yul\":19868:19869   */\n      0x00\n        /* \"#utility.yul\":19860:19866   */\n      dup3\n        /* \"#utility.yul\":19856:19870   */\n      add\n        /* \"#utility.yul\":19849:19899   */\n      mstore\n        /* \"#utility.yul\":19732:19906   */\n      pop\n      jump\t// out\n        /* \"#utility.yul\":19912:20278   */\n    tag_482:\n        /* \"#utility.yul\":20054:20057   */\n      0x00\n        /* \"#utility.yul\":20075:20142   */\n      tag_695\n        /* \"#utility.yul\":20139:20141   */\n      0x18\n        /* \"#utility.yul\":20134:20137   */\n      dup4\n        /* \"#utility.yul\":20075:20142   */\n      tag_439\n      jump\t// in\n    tag_695:\n        /* \"#utility.yul\":20068:20142   */\n      swap2\n      pop\n        /* \"#utility.yul\":20151:20244   */\n      tag_696\n        /* \"#utility.yul\":20240:20243   */\n      dup3\n        /* \"#utility.yul\":20151:20244   */\n      tag_481\n      jump\t// in\n    tag_696:\n        /* \"#utility.yul\":20269:20271   */\n      0x20\n        /* \"#utility.yul\":20264:20267   */\n      dup3\n        /* \"#utility.yul\":20260:20272   */\n      add\n        /* \"#utility.yul\":20253:20272   */\n      swap1\n      pop\n        /* \"#utility.yul\":19912:20278   */\n      swap2\n      swap1\n      pop\n      jump\t// out\n        /* \"#utility.yul\":20284:20703   */\n    tag_291:\n        /* \"#utility.yul\":20450:20454   */\n      0x00\n        /* \"#utility.yul\":20488:20490   */\n      0x20\n        /* \"#utility.yul\":20477:20486   */\n      dup3\n        /* \"#utility.yul\":20473:20491   */\n      add\n        /* \"#utility.yul\":20465:20491   */\n      swap1\n      pop\n        /* \"#utility.yul\":20537:20546   */\n      dup2\n        /* \"#utility.yul\":20531:20535   */\n      dup2\n        /* \"#utility.yul\":20527:20547   */\n      sub\n        /* \"#utility.yul\":20523:20524   */\n      0x00\n        /* \"#utility.yul\":20512:20521   */\n      dup4\n        /* \"#utility.yul\":20508:20525   */\n      add\n        /* \"#utility.yul\":20501:20548   */\n      mstore\n        /* \"#utility.yul\":20565:20696   */\n      tag_698\n        /* \"#utility.yul\":20691:20695   */\n      dup2\n        /* \"#utility.yul\":20565:20696   */\n      tag_482\n      jump\t// in\n    tag_698:\n        /* \"#utility.yul\":20557:20696   */\n      swap1\n      pop\n        /* \"#utility.yul\":20284:20703   */\n      swap2\n      swap1\n      pop\n      jump\t// out\n        /* \"#utility.yul\":20709:20881   */\n    tag_483:\n        /* \"#utility.yul\":20849:20873   */\n      0x43616e277420636c61696d207a65726f20636f696e7300000000000000000000\n        /* \"#utility.yul\":20845:20846   */\n      0x00\n        /* \"#utility.yul\":20837:20843   */\n      dup3\n        /* \"#utility.yul\":20833:20847   */\n      add\n        /* \"#utility.yul\":20826:20874   */\n      mstore\n        /* \"#utility.yul\":20709:20881   */\n      pop\n      jump\t// out\n        /* \"#utility.yul\":20887:21253   */\n    tag_484:\n        /* \"#utility.yul\":21029:21032   */\n      0x00\n        /* \"#utility.yul\":21050:21117   */\n      tag_701\n        /* \"#utility.yul\":21114:21116   */\n      0x16\n        /* \"#utility.yul\":21109:21112   */\n      dup4\n        /* \"#utility.yul\":21050:21117   */\n      tag_439\n      jump\t// in\n    tag_701:\n        /* \"#utility.yul\":21043:21117   */\n      swap2\n      pop\n        /* \"#utility.yul\":21126:21219   */\n      tag_702\n        /* \"#utility.yul\":21215:21218   */\n      dup3\n        /* \"#utility.yul\":21126:21219   */\n      tag_483\n      jump\t// in\n    tag_702:\n        /* \"#utility.yul\":21244:21246   */\n      0x20\n        /* \"#utility.yul\":21239:21242   */\n      dup3\n        /* \"#utility.yul\":21235:21247   */\n      add\n        /* \"#utility.yul\":21228:21247   */\n      swap1\n      pop\n        /* \"#utility.yul\":20887:21253   */\n      swap2\n      swap1\n      pop\n      jump\t// out\n        /* \"#utility.yul\":21259:21678   */\n    tag_294:\n        /* \"#utility.yul\":21425:21429   */\n      0x00\n        /* \"#utility.yul\":21463:21465   */\n      0x20\n        /* \"#utility.yul\":21452:21461   */\n      dup3\n        /* \"#utility.yul\":21448:21466   */\n      add\n        /* \"#utility.yul\":21440:21466   */\n      swap1\n      pop\n        /* \"#utility.yul\":21512:21521   */\n      dup2\n        /* \"#utility.yul\":21506:21510   */\n      dup2\n        /* \"#utility.yul\":21502:21522   */\n      sub\n        /* \"#utility.yul\":21498:21499   */\n      0x00\n        /* \"#utility.yul\":21487:21496   */\n      dup4\n        /* \"#utility.yul\":21483:21500   */\n      add\n        /* \"#utility.yul\":21476:21523   */\n      mstore\n        /* \"#utility.yul\":21540:21671   */\n      tag_704\n        /* \"#utility.yul\":21666:21670   */\n      dup2\n        /* \"#utility.yul\":21540:21671   */\n      tag_484\n      jump\t// in\n    tag_704:\n        /* \"#utility.yul\":21532:21671   */\n      swap1\n      pop\n        /* \"#utility.yul\":21259:21678   */\n      swap2\n      swap1\n      pop\n      jump\t// out\n        /* \"#utility.yul\":21684:21862   */\n    tag_485:\n        /* \"#utility.yul\":21824:21854   */\n      0x4e6f20696e766573746f722066756e647320617661696c61626c652e00000000\n        /* \"#utility.yul\":21820:21821   */\n      0x00\n        /* \"#utility.yul\":21812:21818   */\n      dup3\n        /* \"#utility.yul\":21808:21822   */\n      add\n        /* \"#utility.yul\":21801:21855   */\n      mstore\n        /* \"#utility.yul\":21684:21862   */\n      pop\n      jump\t// out\n        /* \"#utility.yul\":21868:22234   */\n    tag_486:\n        /* \"#utility.yul\":22010:22013   */\n      0x00\n        /* \"#utility.yul\":22031:22098   */\n      tag_707\n        /* \"#utility.yul\":22095:22097   */\n      0x1c\n        /* \"#utility.yul\":22090:22093   */\n      dup4\n        /* \"#utility.yul\":22031:22098   */\n      tag_439\n      jump\t// in\n    tag_707:\n        /* \"#utility.yul\":22024:22098   */\n      swap2\n      pop\n        /* \"#utility.yul\":22107:22200   */\n      tag_708\n        /* \"#utility.yul\":22196:22199   */\n      dup3\n        /* \"#utility.yul\":22107:22200   */\n      tag_485\n      jump\t// in\n    tag_708:\n        /* \"#utility.yul\":22225:22227   */\n      0x20\n        /* \"#utility.yul\":22220:22223   */\n      dup3\n        /* \"#utility.yul\":22216:22228   */\n      add\n        /* \"#utility.yul\":22209:22228   */\n      swap1\n      pop\n        /* \"#utility.yul\":21868:22234   */\n      swap2\n      swap1\n      pop\n      jump\t// out\n        /* \"#utility.yul\":22240:22659   */\n    tag_322:\n        /* \"#utility.yul\":22406:22410   */\n      0x00\n        /* \"#utility.yul\":22444:22446   */\n      0x20\n        /* \"#utility.yul\":22433:22442   */\n      dup3\n        /* \"#utility.yul\":22429:22447   */\n      add\n        /* \"#utility.yul\":22421:22447   */\n      swap1\n      pop\n        /* \"#utility.yul\":22493:22502   */\n      dup2\n        /* \"#utility.yul\":22487:22491   */\n      dup2\n        /* \"#utility.yul\":22483:22503   */\n      sub\n        /* \"#utility.yul\":22479:22480   */\n      0x00\n        /* \"#utility.yul\":22468:22477   */\n      dup4\n        /* \"#utility.yul\":22464:22481   */\n      add\n        /* \"#utility.yul\":22457:22504   */\n      mstore\n        /* \"#utility.yul\":22521:22652   */\n      tag_710\n        /* \"#utility.yul\":22647:22651   */\n      dup2\n        /* \"#utility.yul\":22521:22652   */\n      tag_486\n      jump\t// in\n    tag_710:\n        /* \"#utility.yul\":22513:22652   */\n      swap1\n      pop\n        /* \"#utility.yul\":22240:22659   */\n      swap2\n      swap1\n      pop\n      jump\t// out\n        /* \"#utility.yul\":22665:22846   */\n    tag_487:\n        /* \"#utility.yul\":22805:22838   */\n      0x4661696c656420746f207472616e7366657220737461626c6520636f696e7300\n        /* \"#utility.yul\":22801:22802   */\n      0x00\n        /* \"#utility.yul\":22793:22799   */\n      dup3\n        /* \"#utility.yul\":22789:22803   */\n      add\n        /* \"#utility.yul\":22782:22839   */\n      mstore\n        /* \"#utility.yul\":22665:22846   */\n      pop\n      jump\t// out\n        /* \"#utility.yul\":22852:23218   */\n    tag_488:\n        /* \"#utility.yul\":22994:22997   */\n      0x00\n        /* \"#utility.yul\":23015:23082   */\n      tag_713\n        /* \"#utility.yul\":23079:23081   */\n      0x1f\n        /* \"#utility.yul\":23074:23077   */\n      dup4\n        /* \"#utility.yul\":23015:23082   */\n      tag_439\n      jump\t// in\n    tag_713:\n        /* \"#utility.yul\":23008:23082   */\n      swap2\n      pop\n        /* \"#utility.yul\":23091:23184   */\n      tag_714\n        /* \"#utility.yul\":23180:23183   */\n      dup3\n        /* \"#utility.yul\":23091:23184   */\n      tag_487\n      jump\t// in\n    tag_714:\n        /* \"#utility.yul\":23209:23211   */\n      0x20\n        /* \"#utility.yul\":23204:23207   */\n      dup3\n        /* \"#utility.yul\":23200:23212   */\n      add\n        /* \"#utility.yul\":23193:23212   */\n      swap1\n      pop\n        /* \"#utility.yul\":22852:23218   */\n      swap2\n      swap1\n      pop\n      jump\t// out\n        /* \"#utility.yul\":23224:23643   */\n    tag_329:\n        /* \"#utility.yul\":23390:23394   */\n      0x00\n        /* \"#utility.yul\":23428:23430   */\n      0x20\n        /* \"#utility.yul\":23417:23426   */\n      dup3\n        /* \"#utility.yul\":23413:23431   */\n      add\n        /* \"#utility.yul\":23405:23431   */\n      swap1\n      pop\n        /* \"#utility.yul\":23477:23486   */\n      dup2\n        /* \"#utility.yul\":23471:23475   */\n      dup2\n        /* \"#utility.yul\":23467:23487   */\n      sub\n        /* \"#utility.yul\":23463:23464   */\n      0x00\n        /* \"#utility.yul\":23452:23461   */\n      dup4\n        /* \"#utility.yul\":23448:23465   */\n      add\n        /* \"#utility.yul\":23441:23488   */\n      mstore\n        /* \"#utility.yul\":23505:23636   */\n      tag_716\n        /* \"#utility.yul\":23631:23635   */\n      dup2\n        /* \"#utility.yul\":23505:23636   */\n      tag_488\n      jump\t// in\n    tag_716:\n        /* \"#utility.yul\":23497:23636   */\n      swap1\n      pop\n        /* \"#utility.yul\":23224:23643   */\n      swap2\n      swap1\n      pop\n      jump\t// out\n        /* \"#utility.yul\":23649:24091   */\n    tag_355:\n        /* \"#utility.yul\":23798:23802   */\n      0x00\n        /* \"#utility.yul\":23836:23838   */\n      0x60\n        /* \"#utility.yul\":23825:23834   */\n      dup3\n        /* \"#utility.yul\":23821:23839   */\n      add\n        /* \"#utility.yul\":23813:23839   */\n      swap1\n      pop\n        /* \"#utility.yul\":23849:23920   */\n      tag_718\n        /* \"#utility.yul\":23917:23918   */\n      0x00\n        /* \"#utility.yul\":23906:23915   */\n      dup4\n        /* \"#utility.yul\":23902:23919   */\n      add\n        /* \"#utility.yul\":23893:23899   */\n      dup7\n        /* \"#utility.yul\":23849:23920   */\n      tag_457\n      jump\t// in\n    tag_718:\n        /* \"#utility.yul\":23930:24002   */\n      tag_719\n        /* \"#utility.yul\":23998:24000   */\n      0x20\n        /* \"#utility.yul\":23987:23996   */\n      dup4\n        /* \"#utility.yul\":23983:24001   */\n      add\n        /* \"#utility.yul\":23974:23980   */\n      dup6\n        /* \"#utility.yul\":23930:24002   */\n      tag_450\n      jump\t// in\n    tag_719:\n        /* \"#utility.yul\":24012:24084   */\n      tag_720\n        /* \"#utility.yul\":24080:24082   */\n      0x40\n        /* \"#utility.yul\":24069:24078   */\n      dup4\n        /* \"#utility.yul\":24065:24083   */\n      add\n        /* \"#utility.yul\":24056:24062   */\n      dup5\n        /* \"#utility.yul\":24012:24084   */\n      tag_450\n      jump\t// in\n    tag_720:\n        /* \"#utility.yul\":23649:24091   */\n      swap5\n      swap4\n      pop\n      pop\n      pop\n      pop\n      jump\t// out\n        /* \"#utility.yul\":24097:24429   */\n    tag_408:\n        /* \"#utility.yul\":24218:24222   */\n      0x00\n        /* \"#utility.yul\":24256:24258   */\n      0x40\n        /* \"#utility.yul\":24245:24254   */\n      dup3\n        /* \"#utility.yul\":24241:24259   */\n      add\n        /* \"#utility.yul\":24233:24259   */\n      swap1\n      pop\n        /* \"#utility.yul\":24269:24340   */\n      tag_722\n        /* \"#utility.yul\":24337:24338   */\n      0x00\n        /* \"#utility.yul\":24326:24335   */\n      dup4\n        /* \"#utility.yul\":24322:24339   */\n      add\n        /* \"#utility.yul\":24313:24319   */\n      dup6\n        /* \"#utility.yul\":24269:24340   */\n      tag_457\n      jump\t// in\n    tag_722:\n        /* \"#utility.yul\":24350:24422   */\n      tag_723\n        /* \"#utility.yul\":24418:24420   */\n      0x20\n        /* \"#utility.yul\":24407:24416   */\n      dup4\n        /* \"#utility.yul\":24403:24421   */\n      add\n        /* \"#utility.yul\":24394:24400   */\n      dup5\n        /* \"#utility.yul\":24350:24422   */\n      tag_454\n      jump\t// in\n    tag_723:\n        /* \"#utility.yul\":24097:24429   */\n      swap4\n      swap3\n      pop\n      pop\n      pop\n      jump\t// out\n        /* \"#utility.yul\":24435:24615   */\n    tag_489:\n        /* \"#utility.yul\":24483:24560   */\n      0x4e487b7100000000000000000000000000000000000000000000000000000000\n        /* \"#utility.yul\":24480:24481   */\n      0x00\n        /* \"#utility.yul\":24473:24561   */\n      mstore\n        /* \"#utility.yul\":24580:24584   */\n      0x11\n        /* \"#utility.yul\":24577:24578   */\n      0x04\n        /* \"#utility.yul\":24570:24585   */\n      mstore\n        /* \"#utility.yul\":24604:24608   */\n      0x24\n        /* \"#utility.yul\":24601:24602   */\n      0x00\n        /* \"#utility.yul\":24594:24609   */\n      revert\n        /* \"#utility.yul\":24621:24812   */\n    tag_423:\n        /* \"#utility.yul\":24661:24664   */\n      0x00\n        /* \"#utility.yul\":24680:24700   */\n      tag_726\n        /* \"#utility.yul\":24698:24699   */\n      dup3\n        /* \"#utility.yul\":24680:24700   */\n      tag_447\n      jump\t// in\n    tag_726:\n        /* \"#utility.yul\":24675:24700   */\n      swap2\n      pop\n        /* \"#utility.yul\":24714:24734   */\n      tag_727\n        /* \"#utility.yul\":24732:24733   */\n      dup4\n        /* \"#utility.yul\":24714:24734   */\n      tag_447\n      jump\t// in\n    tag_727:\n        /* \"#utility.yul\":24709:24734   */\n      swap3\n      pop\n        /* \"#utility.yul\":24757:24758   */\n      dup3\n        /* \"#utility.yul\":24754:24755   */\n      dup3\n        /* \"#utility.yul\":24750:24759   */\n      add\n        /* \"#utility.yul\":24743:24759   */\n      swap1\n      pop\n        /* \"#utility.yul\":24778:24781   */\n      dup1\n        /* \"#utility.yul\":24775:24776   */\n      dup3\n        /* \"#utility.yul\":24772:24782   */\n      gt\n        /* \"#utility.yul\":24769:24805   */\n      iszero\n      tag_728\n      jumpi\n        /* \"#utility.yul\":24785:24803   */\n      tag_729\n      tag_489\n      jump\t// in\n    tag_729:\n        /* \"#utility.yul\":24769:24805   */\n    tag_728:\n        /* \"#utility.yul\":24621:24812   */\n      swap3\n      swap2\n      pop\n      pop\n      jump\t// out\n\n    auxdata: 0xa26469706673582212200f7e65f7206b52c18eac87858610629e4d35d9ae5049cb7aacf3b4819923f75564736f6c634300081a0033\n}\n",
				"bytecode": {
					"linkReferences": {},
					"object": "60c060405234801561000f575f80fd5b50604051613a57380380613a57833981810160405281019061003191906106e2565b6040518060400160405280600c81526020017f426f6e44654669546f6b656e00000000000000000000000000000000000000008152506040518060400160405280600381526020017f424446000000000000000000000000000000000000000000000000000000000081525081600390816100ac919061098a565b5080600490816100bc919061098a565b5050505f60055f6101000a81548160ff0219169083151502179055506101087fdf8b4c520ffe197c5343c6f5aec59570151ef9a492f2c624fd45ddde6135ec42866101b460201b60201c565b506101397ff877234297ef562d54f0328f892acfc1d6c1e44ca89f02e3a2c2a4736f6095b7856101b460201b60201c565b508273ffffffffffffffffffffffffffffffffffffffff1660808173ffffffffffffffffffffffffffffffffffffffff16815250508060a081815250506101aa336101886102aa60201b60201c565b600a6101949190610bc1565b8461019f9190610c0b565b6102b260201b60201c565b5050505050610d04565b5f6101c5838361033760201b60201c565b6102a057600160065f8581526020019081526020015f205f015f8473ffffffffffffffffffffffffffffffffffffffff1673ffffffffffffffffffffffffffffffffffffffff1681526020019081526020015f205f6101000a81548160ff02191690831515021790555061023d61039b60201b60201c565b73ffffffffffffffffffffffffffffffffffffffff168273ffffffffffffffffffffffffffffffffffffffff16847f2f8788117e7eff1d82e926ec794901d17c78024a50270940304540a733656f0d60405160405180910390a4600190506102a4565b5f90505b92915050565b5f6012905090565b5f73ffffffffffffffffffffffffffffffffffffffff168273ffffffffffffffffffffffffffffffffffffffff1603610322575f6040517fec442f050000000000000000000000000000000000000000000000000000000081526004016103199190610c5b565b60405180910390fd5b6103335f83836103a260201b60201c565b5050565b5f60065f8481526020019081526020015f205f015f8373ffffffffffffffffffffffffffffffffffffffff1673ffffffffffffffffffffffffffffffffffffffff1681526020019081526020015f205f9054906101000a900460ff16905092915050565b5f33905090565b6103b38383836103b860201b60201c565b505050565b6103c66103dc60201b60201c565b6103d783838361042360201b60201c565b505050565b6103ea61063c60201b60201c565b15610421576040517fd93c066500000000000000000000000000000000000000000000000000000000815260040160405180910390fd5b565b5f73ffffffffffffffffffffffffffffffffffffffff168373ffffffffffffffffffffffffffffffffffffffff1603610473578060025f8282546104679190610c74565b92505081905550610541565b5f805f8573ffffffffffffffffffffffffffffffffffffffff1673ffffffffffffffffffffffffffffffffffffffff1681526020019081526020015f20549050818110156104fc578381836040517fe450d38c0000000000000000000000000000000000000000000000000000000081526004016104f393929190610cb6565b60405180910390fd5b8181035f808673ffffffffffffffffffffffffffffffffffffffff1673ffffffffffffffffffffffffffffffffffffffff1681526020019081526020015f2081905550505b5f73ffffffffffffffffffffffffffffffffffffffff168273ffffffffffffffffffffffffffffffffffffffff1603610588578060025f82825403925050819055506105d2565b805f808473ffffffffffffffffffffffffffffffffffffffff1673ffffffffffffffffffffffffffffffffffffffff1681526020019081526020015f205f82825401925050819055505b8173ffffffffffffffffffffffffffffffffffffffff168373ffffffffffffffffffffffffffffffffffffffff167fddf252ad1be2c89b69c2b068fc378daa952ba7f163c4a11628f55a4df523b3ef8360405161062f9190610ceb565b60405180910390a3505050565b5f60055f9054906101000a900460ff16905090565b5f80fd5b5f73ffffffffffffffffffffffffffffffffffffffff82169050919050565b5f61067e82610655565b9050919050565b61068e81610674565b8114610698575f80fd5b50565b5f815190506106a981610685565b92915050565b5f819050919050565b6106c1816106af565b81146106cb575f80fd5b50565b5f815190506106dc816106b8565b92915050565b5f805f805f60a086880312156106fb576106fa610651565b5b5f6107088882890161069b565b95505060206107198882890161069b565b945050604061072a8882890161069b565b935050606061073b888289016106ce565b925050608061074c888289016106ce565b9150509295509295909350565b5f81519050919050565b7f4e487b71000000000000000000000000000000000000000000000000000000005f52604160045260245ffd5b7f4e487b71000000000000000000000000000000000000000000000000000000005f52602260045260245ffd5b5f60028204905060018216806107d457607f821691505b6020821081036107e7576107e6610790565b5b50919050565b5f819050815f5260205f209050919050565b5f6020601f8301049050919050565b5f82821b905092915050565b5f600883026108497fffffffffffffffffffffffffffffffffffffffffffffffffffffffffffffffff8261080e565b610853868361080e565b95508019841693508086168417925050509392505050565b5f819050919050565b5f61088e610889610884846106af565b61086b565b6106af565b9050919050565b5f819050919050565b6108a783610874565b6108bb6108b382610895565b84845461081a565b825550505050565b5f90565b6108cf6108c3565b6108da81848461089e565b505050565b5b818110156108fd576108f25f826108c7565b6001810190506108e0565b5050565b601f82111561094257610913816107ed565b61091c846107ff565b8101602085101561092b578190505b61093f610937856107ff565b8301826108df565b50505b505050565b5f82821c905092915050565b5f6109625f1984600802610947565b1980831691505092915050565b5f61097a8383610953565b9150826002028217905092915050565b61099382610759565b67ffffffffffffffff8111156109ac576109ab610763565b5b6109b682546107bd565b6109c1828285610901565b5f60209050601f8311600181146109f2575f84156109e0578287015190505b6109ea858261096f565b865550610a51565b601f198416610a00866107ed565b5f5b82811015610a2757848901518255600182019150602085019450602081019050610a02565b86831015610a445784890151610a40601f891682610953565b8355505b6001600288020188555050505b505050505050565b7f4e487b71000000000000000000000000000000000000000000000000000000005f52601160045260245ffd5b5f8160011c9050919050565b5f808291508390505b6001851115610adb57808604811115610ab757610ab6610a59565b5b6001851615610ac65780820291505b8081029050610ad485610a86565b9450610a9b565b94509492505050565b5f82610af35760019050610bae565b81610b00575f9050610bae565b8160018114610b165760028114610b2057610b4f565b6001915050610bae565b60ff841115610b3257610b31610a59565b5b8360020a915084821115610b4957610b48610a59565b5b50610bae565b5060208310610133831016604e8410600b8410161715610b845782820a905083811115610b7f57610b7e610a59565b5b610bae565b610b918484846001610a92565b92509050818404811115610ba857610ba7610a59565b5b81810290505b9392505050565b5f60ff82169050919050565b5f610bcb826106af565b9150610bd683610bb5565b9250610c037fffffffffffffffffffffffffffffffffffffffffffffffffffffffffffffffff8484610ae4565b905092915050565b5f610c15826106af565b9150610c20836106af565b9250828202610c2e816106af565b91508282048414831517610c4557610c44610a59565b5b5092915050565b610c5581610674565b82525050565b5f602082019050610c6e5f830184610c4c565b92915050565b5f610c7e826106af565b9150610c89836106af565b9250828201905080821115610ca157610ca0610a59565b5b92915050565b610cb0816106af565b82525050565b5f606082019050610cc95f830186610c4c565b610cd66020830185610ca7565b610ce36040830184610ca7565b949350505050565b5f602082019050610cfe5f830184610ca7565b92915050565b60805160a051612d0f610d485f395f8181610fa9015261147701525f818161079a01528181610ebf01528181610f0c0152818161110a01526112bb0152612d0f5ff3fe608060405234801561000f575f80fd5b506004361061020f575f3560e01c80638456cb5911610123578063acd17a99116100ab578063d547741f1161007a578063d547741f146105c9578063d59624b4146105e5578063dd62ed3e14610603578063e091a39b14610633578063f57d283e146106515761020f565b8063acd17a9914610567578063ca19c11c14610585578063ce4120da146105a1578063ced0550f146105bf5761020f565b806394d7cc88116100f257806394d7cc88146104c157806395d89b41146104dd578063992642e5146104fb578063a217fddf14610519578063a9059cbb146105375761020f565b80638456cb591461044d57806386d7165414610457578063904835c41461047557806391d14854146104915761020f565b80632f2ff15d116101a657806342966c681161017557806342966c68146103a95780635c975abb146103c557806370a08231146103e3578063764b666c1461041357806379cc6790146104315761020f565b80632f2ff15d14610349578063313ce5671461036557806336568abe146103835780633f4ba83a1461039f5761020f565b806318160ddd116101e257806318160ddd146102ad57806323b872dd146102cb578063248a9ca3146102fb5780632a0acc6a1461032b5761020f565b806301ffc9a71461021357806306fdde0314610243578063095ea7b31461026157806310002dbd14610291575b5f80fd5b61022d600480360381019061022891906120e2565b61066d565b60405161023a9190612127565b60405180910390f35b61024b6106e6565b60405161025891906121b0565b60405180910390f35b61027b6004803603810190610276919061225d565b610776565b6040516102889190612127565b60405180910390f35b6102ab60048036038101906102a6919061229b565b610798565b005b6102b5610931565b6040516102c291906122d5565b60405180910390f35b6102e560048036038101906102e091906122ee565b61093a565b6040516102f29190612127565b60405180910390f35b61031560048036038101906103109190612371565b610968565b60405161032291906123ab565b60405180910390f35b610333610985565b60405161034091906123ab565b60405180910390f35b610363600480360381019061035e91906123c4565b6109a9565b005b61036d6109cb565b60405161037a919061241d565b60405180910390f35b61039d600480360381019061039891906123c4565b6109d3565b005b6103a7610a4e565b005b6103c360048036038101906103be919061229b565b610a83565b005b6103cd610a97565b6040516103da9190612127565b60405180910390f35b6103fd60048036038101906103f89190612436565b610aac565b60405161040a91906122d5565b60405180910390f35b61041b610af1565b6040516104289190612470565b60405180910390f35b61044b6004803603810190610446919061225d565b610b16565b005b610455610b36565b005b61045f610b6b565b60405161046c91906122d5565b60405180910390f35b61048f600480360381019061048a9190612689565b610be9565b005b6104ab60048036038101906104a691906123c4565b610d86565b6040516104b89190612127565b60405180910390f35b6104db60048036038101906104d69190612436565b610dea565b005b6104e5610e2d565b6040516104f291906121b0565b60405180910390f35b610503610ebd565b6040516105109190612470565b60405180910390f35b610521610ee1565b60405161052e91906123ab565b60405180910390f35b610551600480360381019061054c919061225d565b610ee7565b60405161055e9190612127565b60405180910390f35b61056f610f09565b60405161057c91906122d5565b60405180910390f35b61059f600480360381019061059a919061229b565b610fa7565b005b6105a96111ef565b6040516105b691906122d5565b60405180910390f35b6105c761128e565b005b6105e360048036038101906105de91906123c4565b611453565b005b6105ed611475565b6040516105fa91906122d5565b60405180910390f35b61061d600480360381019061061891906126ff565b611499565b60405161062a91906122d5565b60405180910390f35b61063b61151b565b60405161064891906123ab565b60405180910390f35b61066b6004803603810190610666919061225d565b61153f565b005b5f7f7965db0b000000000000000000000000000000000000000000000000000000007bffffffffffffffffffffffffffffffffffffffffffffffffffffffff1916827bffffffffffffffffffffffffffffffffffffffffffffffffffffffff191614806106df57506106de8261166c565b5b9050919050565b6060600380546106f59061276a565b80601f01602080910402602001604051908101604052809291908181526020018280546107219061276a565b801561076c5780601f106107435761010080835404028352916020019161076c565b820191905f5260205f20905b81548152906001019060200180831161074f57829003601f168201915b5050505050905090565b5f806107806116d5565b905061078d8185856116dc565b600191505092915050565b7f000000000000000000000000000000000000000000000000000000000000000073ffffffffffffffffffffffffffffffffffffffff166323b872dd3330846040518463ffffffff1660e01b81526004016107f59392919061279a565b6020604051808303815f875af1158015610811573d5f803e3d5ffd5b505050506040513d601f19601f8201168201806040525081019061083591906127f9565b610874576040517f08c379a000000000000000000000000000000000000000000000000000000000815260040161086b9061286e565b60405180910390fd5b3073ffffffffffffffffffffffffffffffffffffffff1663a9059cbb33836040518363ffffffff1660e01b81526004016108af92919061288c565b6020604051808303815f875af11580156108cb573d5f803e3d5ffd5b505050506040513d601f19601f820116820180604052508101906108ef91906127f9565b61092e576040517f08c379a0000000000000000000000000000000000000000000000000000000008152600401610925906128fd565b60405180910390fd5b50565b5f600254905090565b5f806109446116d5565b90506109518582856116ee565b61095c858585611780565b60019150509392505050565b5f60065f8381526020019081526020015f20600101549050919050565b7fdf8b4c520ffe197c5343c6f5aec59570151ef9a492f2c624fd45ddde6135ec4281565b6109b282610968565b6109bb81611870565b6109c58383611884565b50505050565b5f6012905090565b6109db6116d5565b73ffffffffffffffffffffffffffffffffffffffff168173ffffffffffffffffffffffffffffffffffffffff1614610a3f576040517f6697b23200000000000000000000000000000000000000000000000000000000815260040160405180910390fd5b610a49828261196e565b505050565b7fdf8b4c520ffe197c5343c6f5aec59570151ef9a492f2c624fd45ddde6135ec42610a7881611870565b610a80611a58565b50565b610a94610a8e6116d5565b82611ab9565b50565b5f60055f9054906101000a900460ff16905090565b5f805f8373ffffffffffffffffffffffffffffffffffffffff1673ffffffffffffffffffffffffffffffffffffffff1681526020019081526020015f20549050919050565b60075f9054906101000a900473ffffffffffffffffffffffffffffffffffffffff1681565b610b2882610b226116d5565b836116ee565b610b328282611ab9565b5050565b7fdf8b4c520ffe197c5343c6f5aec59570151ef9a492f2c624fd45ddde6135ec42610b6081611870565b610b68611b38565b50565b5f3073ffffffffffffffffffffffffffffffffffffffff166370a08231306040518263ffffffff1660e01b8152600401610ba59190612470565b602060405180830381865afa158015610bc0573d5f803e3d5ffd5b505050506040513d601f19601f82011682018060405250810190610be4919061292f565b905090565b7fdf8b4c520ffe197c5343c6f5aec59570151ef9a492f2c624fd45ddde6135ec42610c1381611870565b8151835114610c57576040517f08c379a0000000000000000000000000000000000000000000000000000000008152600401610c4e906129ca565b60405180910390fd5b5f5b8351811015610d805760075f9054906101000a900473ffffffffffffffffffffffffffffffffffffffff1673ffffffffffffffffffffffffffffffffffffffff166323b872dd33868481518110610cb357610cb26129e8565b5b6020026020010151868581518110610cce57610ccd6129e8565b5b60200260200101516040518463ffffffff1660e01b8152600401610cf49392919061279a565b6020604051808303815f875af1158015610d10573d5f803e3d5ffd5b505050506040513d601f19601f82011682018060405250810190610d3491906127f9565b610d73576040517f08c379a0000000000000000000000000000000000000000000000000000000008152600401610d6a90612a5f565b60405180910390fd5b8080600101915050610c59565b50505050565b5f60065f8481526020019081526020015f205f015f8373ffffffffffffffffffffffffffffffffffffffff1673ffffffffffffffffffffffffffffffffffffffff1681526020019081526020015f205f9054906101000a900460ff16905092915050565b8060075f6101000a81548173ffffffffffffffffffffffffffffffffffffffff021916908373ffffffffffffffffffffffffffffffffffffffff16021790555050565b606060048054610e3c9061276a565b80601f0160208091040260200160405190810160405280929190818152602001828054610e689061276a565b8015610eb35780601f10610e8a57610100808354040283529160200191610eb3565b820191905f5260205f20905b815481529060010190602001808311610e9657829003601f168201915b5050505050905090565b7f000000000000000000000000000000000000000000000000000000000000000081565b5f801b81565b5f80610ef16116d5565b9050610efe818585611780565b600191505092915050565b5f7f000000000000000000000000000000000000000000000000000000000000000073ffffffffffffffffffffffffffffffffffffffff166370a08231336040518263ffffffff1660e01b8152600401610f639190612470565b602060405180830381865afa158015610f7e573d5f803e3d5ffd5b505050506040513d601f19601f82011682018060405250810190610fa2919061292f565b905090565b7f000000000000000000000000000000000000000000000000000000000000000042101561100a576040517f08c379a000000000000000000000000000000000000000000000000000000000815260040161100190612ac7565b60405180910390fd5b5f811161104c576040517f08c379a000000000000000000000000000000000000000000000000000000000815260040161104390612b2f565b60405180910390fd5b3073ffffffffffffffffffffffffffffffffffffffff166323b872dd3330846040518463ffffffff1660e01b81526004016110899392919061279a565b6020604051808303815f875af11580156110a5573d5f803e3d5ffd5b505050506040513d601f19601f820116820180604052508101906110c991906127f9565b611108576040517f08c379a00000000000000000000000000000000000000000000000000000000081526004016110ff906128fd565b60405180910390fd5b7f000000000000000000000000000000000000000000000000000000000000000073ffffffffffffffffffffffffffffffffffffffff1663a9059cbb33836040518363ffffffff1660e01b815260040161116392919061288c565b6020604051808303815f875af115801561117f573d5f803e3d5ffd5b505050506040513d601f19601f820116820180604052508101906111a391906127f9565b6111e2576040517f08c379a00000000000000000000000000000000000000000000000000000000081526004016111d99061286e565b60405180910390fd5b6111ec3082611ab9565b50565b5f60075f9054906101000a900473ffffffffffffffffffffffffffffffffffffffff1673ffffffffffffffffffffffffffffffffffffffff166370a08231336040518263ffffffff1660e01b815260040161124a9190612470565b602060405180830381865afa158015611265573d5f803e3d5ffd5b505050506040513d601f19601f82011682018060405250810190611289919061292f565b905090565b7ff877234297ef562d54f0328f892acfc1d6c1e44ca89f02e3a2c2a4736f6095b76112b881611870565b5f7f000000000000000000000000000000000000000000000000000000000000000073ffffffffffffffffffffffffffffffffffffffff166370a08231306040518263ffffffff1660e01b81526004016113129190612470565b602060405180830381865afa15801561132d573d5f803e3d5ffd5b505050506040513d601f19601f82011682018060405250810190611351919061292f565b90505f8111611395576040517f08c379a000000000000000000000000000000000000000000000000000000000815260040161138c90612b97565b60405180910390fd5b3073ffffffffffffffffffffffffffffffffffffffff1663a9059cbb33836040518363ffffffff1660e01b81526004016113d092919061288c565b6020604051808303815f875af11580156113ec573d5f803e3d5ffd5b505050506040513d601f19601f8201168201806040525081019061141091906127f9565b61144f576040517f08c379a000000000000000000000000000000000000000000000000000000000815260040161144690612bff565b60405180910390fd5b5050565b61145c82610968565b61146581611870565b61146f838361196e565b50505050565b7f000000000000000000000000000000000000000000000000000000000000000081565b5f60015f8473ffffffffffffffffffffffffffffffffffffffff1673ffffffffffffffffffffffffffffffffffffffff1681526020019081526020015f205f8373ffffffffffffffffffffffffffffffffffffffff1673ffffffffffffffffffffffffffffffffffffffff1681526020019081526020015f2054905092915050565b7ff877234297ef562d54f0328f892acfc1d6c1e44ca89f02e3a2c2a4736f6095b781565b7fdf8b4c520ffe197c5343c6f5aec59570151ef9a492f2c624fd45ddde6135ec4261156981611870565b60075f9054906101000a900473ffffffffffffffffffffffffffffffffffffffff1673ffffffffffffffffffffffffffffffffffffffff166323b872dd60075f9054906101000a900473ffffffffffffffffffffffffffffffffffffffff1685856040518463ffffffff1660e01b81526004016115e89392919061279a565b6020604051808303815f875af1158015611604573d5f803e3d5ffd5b505050506040513d601f19601f8201168201806040525081019061162891906127f9565b611667576040517f08c379a000000000000000000000000000000000000000000000000000000000815260040161165e90612a5f565b60405180910390fd5b505050565b5f7f01ffc9a7000000000000000000000000000000000000000000000000000000007bffffffffffffffffffffffffffffffffffffffffffffffffffffffff1916827bffffffffffffffffffffffffffffffffffffffffffffffffffffffff1916149050919050565b5f33905090565b6116e98383836001611b9a565b505050565b5f6116f98484611499565b90507fffffffffffffffffffffffffffffffffffffffffffffffffffffffffffffffff811461177a578181101561176b578281836040517ffb8f41b200000000000000000000000000000000000000000000000000000000815260040161176293929190612c1d565b60405180910390fd5b61177984848484035f611b9a565b5b50505050565b5f73ffffffffffffffffffffffffffffffffffffffff168373ffffffffffffffffffffffffffffffffffffffff16036117f0575f6040517f96c6fd1e0000000000000000000000000000000000000000000000000000000081526004016117e79190612470565b60405180910390fd5b5f73ffffffffffffffffffffffffffffffffffffffff168273ffffffffffffffffffffffffffffffffffffffff1603611860575f6040517fec442f050000000000000000000000000000000000000000000000000000000081526004016118579190612470565b60405180910390fd5b61186b838383611d69565b505050565b6118818161187c6116d5565b611d79565b50565b5f61188f8383610d86565b61196457600160065f8581526020019081526020015f205f015f8473ffffffffffffffffffffffffffffffffffffffff1673ffffffffffffffffffffffffffffffffffffffff1681526020019081526020015f205f6101000a81548160ff0219169083151502179055506119016116d5565b73ffffffffffffffffffffffffffffffffffffffff168273ffffffffffffffffffffffffffffffffffffffff16847f2f8788117e7eff1d82e926ec794901d17c78024a50270940304540a733656f0d60405160405180910390a460019050611968565b5f90505b92915050565b5f6119798383610d86565b15611a4e575f60065f8581526020019081526020015f205f015f8473ffffffffffffffffffffffffffffffffffffffff1673ffffffffffffffffffffffffffffffffffffffff1681526020019081526020015f205f6101000a81548160ff0219169083151502179055506119eb6116d5565b73ffffffffffffffffffffffffffffffffffffffff168273ffffffffffffffffffffffffffffffffffffffff16847ff6391f5c32d9c69d2a47ea670b442974b53935d1edc7fd64eb21e047a839171b60405160405180910390a460019050611a52565b5f90505b92915050565b611a60611dca565b5f60055f6101000a81548160ff0219169083151502179055507f5db9ee0a495bf2e6ff9c91a7834c1ba4fdd244a5e8aa4e537bd38aeae4b073aa611aa26116d5565b604051611aaf9190612470565b60405180910390a1565b5f73ffffffffffffffffffffffffffffffffffffffff168273ffffffffffffffffffffffffffffffffffffffff1603611b29575f6040517f96c6fd1e000000000000000000000000000000000000000000000000000000008152600401611b209190612470565b60405180910390fd5b611b34825f83611d69565b5050565b611b40611e0a565b600160055f6101000a81548160ff0219169083151502179055507f62e78cea01bee320cd4e420270b5ea74000d11b0c9f74754ebdbfc544b05a258611b836116d5565b604051611b909190612470565b60405180910390a1565b5f73ffffffffffffffffffffffffffffffffffffffff168473ffffffffffffffffffffffffffffffffffffffff1603611c0a575f6040517fe602df05000000000000000000000000000000000000000000000000000000008152600401611c019190612470565b60405180910390fd5b5f73ffffffffffffffffffffffffffffffffffffffff168373ffffffffffffffffffffffffffffffffffffffff1603611c7a575f6040517f94280d62000000000000000000000000000000000000000000000000000000008152600401611c719190612470565b60405180910390fd5b8160015f8673ffffffffffffffffffffffffffffffffffffffff1673ffffffffffffffffffffffffffffffffffffffff1681526020019081526020015f205f8573ffffffffffffffffffffffffffffffffffffffff1673ffffffffffffffffffffffffffffffffffffffff1681526020019081526020015f20819055508015611d63578273ffffffffffffffffffffffffffffffffffffffff168473ffffffffffffffffffffffffffffffffffffffff167f8c5be1e5ebec7d5bd14f71427d1e84f3dd0314c0f7b2291e5b200ac8c7c3b92584604051611d5a91906122d5565b60405180910390a35b50505050565b611d74838383611e4b565b505050565b611d838282610d86565b611dc65780826040517fe2517d3f000000000000000000000000000000000000000000000000000000008152600401611dbd929190612c52565b60405180910390fd5b5050565b611dd2610a97565b611e08576040517f8dfc202b00000000000000000000000000000000000000000000000000000000815260040160405180910390fd5b565b611e12610a97565b15611e49576040517fd93c066500000000000000000000000000000000000000000000000000000000815260040160405180910390fd5b565b611e53611e0a565b611e5e838383611e63565b505050565b5f73ffffffffffffffffffffffffffffffffffffffff168373ffffffffffffffffffffffffffffffffffffffff1603611eb3578060025f828254611ea79190612ca6565b92505081905550611f81565b5f805f8573ffffffffffffffffffffffffffffffffffffffff1673ffffffffffffffffffffffffffffffffffffffff1681526020019081526020015f2054905081811015611f3c578381836040517fe450d38c000000000000000000000000000000000000000000000000000000008152600401611f3393929190612c1d565b60405180910390fd5b8181035f808673ffffffffffffffffffffffffffffffffffffffff1673ffffffffffffffffffffffffffffffffffffffff1681526020019081526020015f2081905550505b5f73ffffffffffffffffffffffffffffffffffffffff168273ffffffffffffffffffffffffffffffffffffffff1603611fc8578060025f8282540392505081905550612012565b805f808473ffffffffffffffffffffffffffffffffffffffff1673ffffffffffffffffffffffffffffffffffffffff1681526020019081526020015f205f82825401925050819055505b8173ffffffffffffffffffffffffffffffffffffffff168373ffffffffffffffffffffffffffffffffffffffff167fddf252ad1be2c89b69c2b068fc378daa952ba7f163c4a11628f55a4df523b3ef8360405161206f91906122d5565b60405180910390a3505050565b5f604051905090565b5f80fd5b5f80fd5b5f7fffffffff0000000000000000000000000000000000000000000000000000000082169050919050565b6120c18161208d565b81146120cb575f80fd5b50565b5f813590506120dc816120b8565b92915050565b5f602082840312156120f7576120f6612085565b5b5f612104848285016120ce565b91505092915050565b5f8115159050919050565b6121218161210d565b82525050565b5f60208201905061213a5f830184612118565b92915050565b5f81519050919050565b5f82825260208201905092915050565b8281835e5f83830152505050565b5f601f19601f8301169050919050565b5f61218282612140565b61218c818561214a565b935061219c81856020860161215a565b6121a581612168565b840191505092915050565b5f6020820190508181035f8301526121c88184612178565b905092915050565b5f73ffffffffffffffffffffffffffffffffffffffff82169050919050565b5f6121f9826121d0565b9050919050565b612209816121ef565b8114612213575f80fd5b50565b5f8135905061222481612200565b92915050565b5f819050919050565b61223c8161222a565b8114612246575f80fd5b50565b5f8135905061225781612233565b92915050565b5f806040838503121561227357612272612085565b5b5f61228085828601612216565b925050602061229185828601612249565b9150509250929050565b5f602082840312156122b0576122af612085565b5b5f6122bd84828501612249565b91505092915050565b6122cf8161222a565b82525050565b5f6020820190506122e85f8301846122c6565b92915050565b5f805f6060848603121561230557612304612085565b5b5f61231286828701612216565b935050602061232386828701612216565b925050604061233486828701612249565b9150509250925092565b5f819050919050565b6123508161233e565b811461235a575f80fd5b50565b5f8135905061236b81612347565b92915050565b5f6020828403121561238657612385612085565b5b5f6123938482850161235d565b91505092915050565b6123a58161233e565b82525050565b5f6020820190506123be5f83018461239c565b92915050565b5f80604083850312156123da576123d9612085565b5b5f6123e78582860161235d565b92505060206123f885828601612216565b9150509250929050565b5f60ff82169050919050565b61241781612402565b82525050565b5f6020820190506124305f83018461240e565b92915050565b5f6020828403121561244b5761244a612085565b5b5f61245884828501612216565b91505092915050565b61246a816121ef565b82525050565b5f6020820190506124835f830184612461565b92915050565b5f80fd5b7f4e487b71000000000000000000000000000000000000000000000000000000005f52604160045260245ffd5b6124c382612168565b810181811067ffffffffffffffff821117156124e2576124e161248d565b5b80604052505050565b5f6124f461207c565b905061250082826124ba565b919050565b5f67ffffffffffffffff82111561251f5761251e61248d565b5b602082029050602081019050919050565b5f80fd5b5f61254661254184612505565b6124eb565b9050808382526020820190506020840283018581111561256957612568612530565b5b835b81811015612592578061257e8882612216565b84526020840193505060208101905061256b565b5050509392505050565b5f82601f8301126125b0576125af612489565b5b81356125c0848260208601612534565b91505092915050565b5f67ffffffffffffffff8211156125e3576125e261248d565b5b602082029050602081019050919050565b5f612606612601846125c9565b6124eb565b9050808382526020820190506020840283018581111561262957612628612530565b5b835b81811015612652578061263e8882612249565b84526020840193505060208101905061262b565b5050509392505050565b5f82601f8301126126705761266f612489565b5b81356126808482602086016125f4565b91505092915050565b5f806040838503121561269f5761269e612085565b5b5f83013567ffffffffffffffff8111156126bc576126bb612089565b5b6126c88582860161259c565b925050602083013567ffffffffffffffff8111156126e9576126e8612089565b5b6126f58582860161265c565b9150509250929050565b5f806040838503121561271557612714612085565b5b5f61272285828601612216565b925050602061273385828601612216565b9150509250929050565b7f4e487b71000000000000000000000000000000000000000000000000000000005f52602260045260245ffd5b5f600282049050600182168061278157607f821691505b6020821081036127945761279361273d565b5b50919050565b5f6060820190506127ad5f830186612461565b6127ba6020830185612461565b6127c760408301846122c6565b949350505050565b6127d88161210d565b81146127e2575f80fd5b50565b5f815190506127f3816127cf565b92915050565b5f6020828403121561280e5761280d612085565b5b5f61281b848285016127e5565b91505092915050565b7f537461626c6520636f696e207472616e73666572206661696c656400000000005f82015250565b5f612858601b8361214a565b915061286382612824565b602082019050919050565b5f6020820190508181035f8301526128858161284c565b9050919050565b5f60408201905061289f5f830185612461565b6128ac60208301846122c6565b9392505050565b7f426f6e6420746f6b656e207472616e73666572206661696c65640000000000005f82015250565b5f6128e7601a8361214a565b91506128f2826128b3565b602082019050919050565b5f6020820190508181035f830152612914816128db565b9050919050565b5f8151905061292981612233565b92915050565b5f6020828403121561294457612943612085565b5b5f6129518482850161291b565b91505092915050565b7f546f6b656e20686f6c6465727320616e6420616d6f756e7473206c656e6774685f8201527f206d69736d617463680000000000000000000000000000000000000000000000602082015250565b5f6129b460298361214a565b91506129bf8261295a565b604082019050919050565b5f6020820190508181035f8301526129e1816129a8565b9050919050565b7f4e487b71000000000000000000000000000000000000000000000000000000005f52603260045260245ffd5b7f5472616e73666572206661696c656400000000000000000000000000000000005f82015250565b5f612a49600f8361214a565b9150612a5482612a15565b602082019050919050565b5f6020820190508181035f830152612a7681612a3d565b9050919050565b7f4d61747572697479206e6f7420796574207265616368656400000000000000005f82015250565b5f612ab160188361214a565b9150612abc82612a7d565b602082019050919050565b5f6020820190508181035f830152612ade81612aa5565b9050919050565b7f43616e277420636c61696d207a65726f20636f696e73000000000000000000005f82015250565b5f612b1960168361214a565b9150612b2482612ae5565b602082019050919050565b5f6020820190508181035f830152612b4681612b0d565b9050919050565b7f4e6f20696e766573746f722066756e647320617661696c61626c652e000000005f82015250565b5f612b81601c8361214a565b9150612b8c82612b4d565b602082019050919050565b5f6020820190508181035f830152612bae81612b75565b9050919050565b7f4661696c656420746f207472616e7366657220737461626c6520636f696e73005f82015250565b5f612be9601f8361214a565b9150612bf482612bb5565b602082019050919050565b5f6020820190508181035f830152612c1681612bdd565b9050919050565b5f606082019050612c305f830186612461565b612c3d60208301856122c6565b612c4a60408301846122c6565b949350505050565b5f604082019050612c655f830185612461565b612c72602083018461239c565b9392505050565b7f4e487b71000000000000000000000000000000000000000000000000000000005f52601160045260245ffd5b5f612cb08261222a565b9150612cbb8361222a565b9250828201905080821115612cd357612cd2612c79565b5b9291505056fea26469706673582212200f7e65f7206b52c18eac87858610629e4d35d9ae5049cb7aacf3b4819923f75564736f6c634300081a0033",
					"opcodes": "PUSH1 0xC0 PUSH1 0x40 MSTORE CALLVALUE DUP1 ISZERO PUSH2 0xF JUMPI PUSH0 DUP1 REVERT JUMPDEST POP PUSH1 0x40 MLOAD PUSH2 0x3A57 CODESIZE SUB DUP1 PUSH2 0x3A57 DUP4 CODECOPY DUP2 DUP2 ADD PUSH1 0x40 MSTORE DUP2 ADD SWAP1 PUSH2 0x31 SWAP2 SWAP1 PUSH2 0x6E2 JUMP JUMPDEST PUSH1 0x40 MLOAD DUP1 PUSH1 0x40 ADD PUSH1 0x40 MSTORE DUP1 PUSH1 0xC DUP2 MSTORE PUSH1 0x20 ADD PUSH32 0x426F6E44654669546F6B656E0000000000000000000000000000000000000000 DUP2 MSTORE POP PUSH1 0x40 MLOAD DUP1 PUSH1 0x40 ADD PUSH1 0x40 MSTORE DUP1 PUSH1 0x3 DUP2 MSTORE PUSH1 0x20 ADD PUSH32 0x4244460000000000000000000000000000000000000000000000000000000000 DUP2 MSTORE POP DUP2 PUSH1 0x3 SWAP1 DUP2 PUSH2 0xAC SWAP2 SWAP1 PUSH2 0x98A JUMP JUMPDEST POP DUP1 PUSH1 0x4 SWAP1 DUP2 PUSH2 0xBC SWAP2 SWAP1 PUSH2 0x98A JUMP JUMPDEST POP POP POP PUSH0 PUSH1 0x5 PUSH0 PUSH2 0x100 EXP DUP2 SLOAD DUP2 PUSH1 0xFF MUL NOT AND SWAP1 DUP4 ISZERO ISZERO MUL OR SWAP1 SSTORE POP PUSH2 0x108 PUSH32 0xDF8B4C520FFE197C5343C6F5AEC59570151EF9A492F2C624FD45DDDE6135EC42 DUP7 PUSH2 0x1B4 PUSH1 0x20 SHL PUSH1 0x20 SHR JUMP JUMPDEST POP PUSH2 0x139 PUSH32 0xF877234297EF562D54F0328F892ACFC1D6C1E44CA89F02E3A2C2A4736F6095B7 DUP6 PUSH2 0x1B4 PUSH1 0x20 SHL PUSH1 0x20 SHR JUMP JUMPDEST POP DUP3 PUSH20 0xFFFFFFFFFFFFFFFFFFFFFFFFFFFFFFFFFFFFFFFF AND PUSH1 0x80 DUP2 PUSH20 0xFFFFFFFFFFFFFFFFFFFFFFFFFFFFFFFFFFFFFFFF AND DUP2 MSTORE POP POP DUP1 PUSH1 0xA0 DUP2 DUP2 MSTORE POP POP PUSH2 0x1AA CALLER PUSH2 0x188 PUSH2 0x2AA PUSH1 0x20 SHL PUSH1 0x20 SHR JUMP JUMPDEST PUSH1 0xA PUSH2 0x194 SWAP2 SWAP1 PUSH2 0xBC1 JUMP JUMPDEST DUP5 PUSH2 0x19F SWAP2 SWAP1 PUSH2 0xC0B JUMP JUMPDEST PUSH2 0x2B2 PUSH1 0x20 SHL PUSH1 0x20 SHR JUMP JUMPDEST POP POP POP POP POP PUSH2 0xD04 JUMP JUMPDEST PUSH0 PUSH2 0x1C5 DUP4 DUP4 PUSH2 0x337 PUSH1 0x20 SHL PUSH1 0x20 SHR JUMP JUMPDEST PUSH2 0x2A0 JUMPI PUSH1 0x1 PUSH1 0x6 PUSH0 DUP6 DUP2 MSTORE PUSH1 0x20 ADD SWAP1 DUP2 MSTORE PUSH1 0x20 ADD PUSH0 KECCAK256 PUSH0 ADD PUSH0 DUP5 PUSH20 0xFFFFFFFFFFFFFFFFFFFFFFFFFFFFFFFFFFFFFFFF AND PUSH20 0xFFFFFFFFFFFFFFFFFFFFFFFFFFFFFFFFFFFFFFFF AND DUP2 MSTORE PUSH1 0x20 ADD SWAP1 DUP2 MSTORE PUSH1 0x20 ADD PUSH0 KECCAK256 PUSH0 PUSH2 0x100 EXP DUP2 SLOAD DUP2 PUSH1 0xFF MUL NOT AND SWAP1 DUP4 ISZERO ISZERO MUL OR SWAP1 SSTORE POP PUSH2 0x23D PUSH2 0x39B PUSH1 0x20 SHL PUSH1 0x20 SHR JUMP JUMPDEST PUSH20 0xFFFFFFFFFFFFFFFFFFFFFFFFFFFFFFFFFFFFFFFF AND DUP3 PUSH20 0xFFFFFFFFFFFFFFFFFFFFFFFFFFFFFFFFFFFFFFFF AND DUP5 PUSH32 0x2F8788117E7EFF1D82E926EC794901D17C78024A50270940304540A733656F0D PUSH1 0x40 MLOAD PUSH1 0x40 MLOAD DUP1 SWAP2 SUB SWAP1 LOG4 PUSH1 0x1 SWAP1 POP PUSH2 0x2A4 JUMP JUMPDEST PUSH0 SWAP1 POP JUMPDEST SWAP3 SWAP2 POP POP JUMP JUMPDEST PUSH0 PUSH1 0x12 SWAP1 POP SWAP1 JUMP JUMPDEST PUSH0 PUSH20 0xFFFFFFFFFFFFFFFFFFFFFFFFFFFFFFFFFFFFFFFF AND DUP3 PUSH20 0xFFFFFFFFFFFFFFFFFFFFFFFFFFFFFFFFFFFFFFFF AND SUB PUSH2 0x322 JUMPI PUSH0 PUSH1 0x40 MLOAD PUSH32 0xEC442F0500000000000000000000000000000000000000000000000000000000 DUP2 MSTORE PUSH1 0x4 ADD PUSH2 0x319 SWAP2 SWAP1 PUSH2 0xC5B JUMP JUMPDEST PUSH1 0x40 MLOAD DUP1 SWAP2 SUB SWAP1 REVERT JUMPDEST PUSH2 0x333 PUSH0 DUP4 DUP4 PUSH2 0x3A2 PUSH1 0x20 SHL PUSH1 0x20 SHR JUMP JUMPDEST POP POP JUMP JUMPDEST PUSH0 PUSH1 0x6 PUSH0 DUP5 DUP2 MSTORE PUSH1 0x20 ADD SWAP1 DUP2 MSTORE PUSH1 0x20 ADD PUSH0 KECCAK256 PUSH0 ADD PUSH0 DUP4 PUSH20 0xFFFFFFFFFFFFFFFFFFFFFFFFFFFFFFFFFFFFFFFF AND PUSH20 0xFFFFFFFFFFFFFFFFFFFFFFFFFFFFFFFFFFFFFFFF AND DUP2 MSTORE PUSH1 0x20 ADD SWAP1 DUP2 MSTORE PUSH1 0x20 ADD PUSH0 KECCAK256 PUSH0 SWAP1 SLOAD SWAP1 PUSH2 0x100 EXP SWAP1 DIV PUSH1 0xFF AND SWAP1 POP SWAP3 SWAP2 POP POP JUMP JUMPDEST PUSH0 CALLER SWAP1 POP SWAP1 JUMP JUMPDEST PUSH2 0x3B3 DUP4 DUP4 DUP4 PUSH2 0x3B8 PUSH1 0x20 SHL PUSH1 0x20 SHR JUMP JUMPDEST POP POP POP JUMP JUMPDEST PUSH2 0x3C6 PUSH2 0x3DC PUSH1 0x20 SHL PUSH1 0x20 SHR JUMP JUMPDEST PUSH2 0x3D7 DUP4 DUP4 DUP4 PUSH2 0x423 PUSH1 0x20 SHL PUSH1 0x20 SHR JUMP JUMPDEST POP POP POP JUMP JUMPDEST PUSH2 0x3EA PUSH2 0x63C PUSH1 0x20 SHL PUSH1 0x20 SHR JUMP JUMPDEST ISZERO PUSH2 0x421 JUMPI PUSH1 0x40 MLOAD PUSH32 0xD93C066500000000000000000000000000000000000000000000000000000000 DUP2 MSTORE PUSH1 0x4 ADD PUSH1 0x40 MLOAD DUP1 SWAP2 SUB SWAP1 REVERT JUMPDEST JUMP JUMPDEST PUSH0 PUSH20 0xFFFFFFFFFFFFFFFFFFFFFFFFFFFFFFFFFFFFFFFF AND DUP4 PUSH20 0xFFFFFFFFFFFFFFFFFFFFFFFFFFFFFFFFFFFFFFFF AND SUB PUSH2 0x473 JUMPI DUP1 PUSH1 0x2 PUSH0 DUP3 DUP3 SLOAD PUSH2 0x467 SWAP2 SWAP1 PUSH2 0xC74 JUMP JUMPDEST SWAP3 POP POP DUP2 SWAP1 SSTORE POP PUSH2 0x541 JUMP JUMPDEST PUSH0 DUP1 PUSH0 DUP6 PUSH20 0xFFFFFFFFFFFFFFFFFFFFFFFFFFFFFFFFFFFFFFFF AND PUSH20 0xFFFFFFFFFFFFFFFFFFFFFFFFFFFFFFFFFFFFFFFF AND DUP2 MSTORE PUSH1 0x20 ADD SWAP1 DUP2 MSTORE PUSH1 0x20 ADD PUSH0 KECCAK256 SLOAD SWAP1 POP DUP2 DUP2 LT ISZERO PUSH2 0x4FC JUMPI DUP4 DUP2 DUP4 PUSH1 0x40 MLOAD PUSH32 0xE450D38C00000000000000000000000000000000000000000000000000000000 DUP2 MSTORE PUSH1 0x4 ADD PUSH2 0x4F3 SWAP4 SWAP3 SWAP2 SWAP1 PUSH2 0xCB6 JUMP JUMPDEST PUSH1 0x40 MLOAD DUP1 SWAP2 SUB SWAP1 REVERT JUMPDEST DUP2 DUP2 SUB PUSH0 DUP1 DUP7 PUSH20 0xFFFFFFFFFFFFFFFFFFFFFFFFFFFFFFFFFFFFFFFF AND PUSH20 0xFFFFFFFFFFFFFFFFFFFFFFFFFFFFFFFFFFFFFFFF AND DUP2 MSTORE PUSH1 0x20 ADD SWAP1 DUP2 MSTORE PUSH1 0x20 ADD PUSH0 KECCAK256 DUP2 SWAP1 SSTORE POP POP JUMPDEST PUSH0 PUSH20 0xFFFFFFFFFFFFFFFFFFFFFFFFFFFFFFFFFFFFFFFF AND DUP3 PUSH20 0xFFFFFFFFFFFFFFFFFFFFFFFFFFFFFFFFFFFFFFFF AND SUB PUSH2 0x588 JUMPI DUP1 PUSH1 0x2 PUSH0 DUP3 DUP3 SLOAD SUB SWAP3 POP POP DUP2 SWAP1 SSTORE POP PUSH2 0x5D2 JUMP JUMPDEST DUP1 PUSH0 DUP1 DUP5 PUSH20 0xFFFFFFFFFFFFFFFFFFFFFFFFFFFFFFFFFFFFFFFF AND PUSH20 0xFFFFFFFFFFFFFFFFFFFFFFFFFFFFFFFFFFFFFFFF AND DUP2 MSTORE PUSH1 0x20 ADD SWAP1 DUP2 MSTORE PUSH1 0x20 ADD PUSH0 KECCAK256 PUSH0 DUP3 DUP3 SLOAD ADD SWAP3 POP POP DUP2 SWAP1 SSTORE POP JUMPDEST DUP2 PUSH20 0xFFFFFFFFFFFFFFFFFFFFFFFFFFFFFFFFFFFFFFFF AND DUP4 PUSH20 0xFFFFFFFFFFFFFFFFFFFFFFFFFFFFFFFFFFFFFFFF AND PUSH32 0xDDF252AD1BE2C89B69C2B068FC378DAA952BA7F163C4A11628F55A4DF523B3EF DUP4 PUSH1 0x40 MLOAD PUSH2 0x62F SWAP2 SWAP1 PUSH2 0xCEB JUMP JUMPDEST PUSH1 0x40 MLOAD DUP1 SWAP2 SUB SWAP1 LOG3 POP POP POP JUMP JUMPDEST PUSH0 PUSH1 0x5 PUSH0 SWAP1 SLOAD SWAP1 PUSH2 0x100 EXP SWAP1 DIV PUSH1 0xFF AND SWAP1 POP SWAP1 JUMP JUMPDEST PUSH0 DUP1 REVERT JUMPDEST PUSH0 PUSH20 0xFFFFFFFFFFFFFFFFFFFFFFFFFFFFFFFFFFFFFFFF DUP3 AND SWAP1 POP SWAP2 SWAP1 POP JUMP JUMPDEST PUSH0 PUSH2 0x67E DUP3 PUSH2 0x655 JUMP JUMPDEST SWAP1 POP SWAP2 SWAP1 POP JUMP JUMPDEST PUSH2 0x68E DUP2 PUSH2 0x674 JUMP JUMPDEST DUP2 EQ PUSH2 0x698 JUMPI PUSH0 DUP1 REVERT JUMPDEST POP JUMP JUMPDEST PUSH0 DUP2 MLOAD SWAP1 POP PUSH2 0x6A9 DUP2 PUSH2 0x685 JUMP JUMPDEST SWAP3 SWAP2 POP POP JUMP JUMPDEST PUSH0 DUP2 SWAP1 POP SWAP2 SWAP1 POP JUMP JUMPDEST PUSH2 0x6C1 DUP2 PUSH2 0x6AF JUMP JUMPDEST DUP2 EQ PUSH2 0x6CB JUMPI PUSH0 DUP1 REVERT JUMPDEST POP JUMP JUMPDEST PUSH0 DUP2 MLOAD SWAP1 POP PUSH2 0x6DC DUP2 PUSH2 0x6B8 JUMP JUMPDEST SWAP3 SWAP2 POP POP JUMP JUMPDEST PUSH0 DUP1 PUSH0 DUP1 PUSH0 PUSH1 0xA0 DUP7 DUP9 SUB SLT ISZERO PUSH2 0x6FB JUMPI PUSH2 0x6FA PUSH2 0x651 JUMP JUMPDEST JUMPDEST PUSH0 PUSH2 0x708 DUP9 DUP3 DUP10 ADD PUSH2 0x69B JUMP JUMPDEST SWAP6 POP POP PUSH1 0x20 PUSH2 0x719 DUP9 DUP3 DUP10 ADD PUSH2 0x69B JUMP JUMPDEST SWAP5 POP POP PUSH1 0x40 PUSH2 0x72A DUP9 DUP3 DUP10 ADD PUSH2 0x69B JUMP JUMPDEST SWAP4 POP POP PUSH1 0x60 PUSH2 0x73B DUP9 DUP3 DUP10 ADD PUSH2 0x6CE JUMP JUMPDEST SWAP3 POP POP PUSH1 0x80 PUSH2 0x74C DUP9 DUP3 DUP10 ADD PUSH2 0x6CE JUMP JUMPDEST SWAP2 POP POP SWAP3 SWAP6 POP SWAP3 SWAP6 SWAP1 SWAP4 POP JUMP JUMPDEST PUSH0 DUP2 MLOAD SWAP1 POP SWAP2 SWAP1 POP JUMP JUMPDEST PUSH32 0x4E487B7100000000000000000000000000000000000000000000000000000000 PUSH0 MSTORE PUSH1 0x41 PUSH1 0x4 MSTORE PUSH1 0x24 PUSH0 REVERT JUMPDEST PUSH32 0x4E487B7100000000000000000000000000000000000000000000000000000000 PUSH0 MSTORE PUSH1 0x22 PUSH1 0x4 MSTORE PUSH1 0x24 PUSH0 REVERT JUMPDEST PUSH0 PUSH1 0x2 DUP3 DIV SWAP1 POP PUSH1 0x1 DUP3 AND DUP1 PUSH2 0x7D4 JUMPI PUSH1 0x7F DUP3 AND SWAP2 POP JUMPDEST PUSH1 0x20 DUP3 LT DUP2 SUB PUSH2 0x7E7 JUMPI PUSH2 0x7E6 PUSH2 0x790 JUMP JUMPDEST JUMPDEST POP SWAP2 SWAP1 POP JUMP JUMPDEST PUSH0 DUP2 SWAP1 POP DUP2 PUSH0 MSTORE PUSH1 0x20 PUSH0 KECCAK256 SWAP1 POP SWAP2 SWAP1 POP JUMP JUMPDEST PUSH0 PUSH1 0x20 PUSH1 0x1F DUP4 ADD DIV SWAP1 POP SWAP2 SWAP1 POP JUMP JUMPDEST PUSH0 DUP3 DUP3 SHL SWAP1 POP SWAP3 SWAP2 POP POP JUMP JUMPDEST PUSH0 PUSH1 0x8 DUP4 MUL PUSH2 0x849 PUSH32 0xFFFFFFFFFFFFFFFFFFFFFFFFFFFFFFFFFFFFFFFFFFFFFFFFFFFFFFFFFFFFFFFF DUP3 PUSH2 0x80E JUMP JUMPDEST PUSH2 0x853 DUP7 DUP4 PUSH2 0x80E JUMP JUMPDEST SWAP6 POP DUP1 NOT DUP5 AND SWAP4 POP DUP1 DUP7 AND DUP5 OR SWAP3 POP POP POP SWAP4 SWAP3 POP POP POP JUMP JUMPDEST PUSH0 DUP2 SWAP1 POP SWAP2 SWAP1 POP JUMP JUMPDEST PUSH0 PUSH2 0x88E PUSH2 0x889 PUSH2 0x884 DUP5 PUSH2 0x6AF JUMP JUMPDEST PUSH2 0x86B JUMP JUMPDEST PUSH2 0x6AF JUMP JUMPDEST SWAP1 POP SWAP2 SWAP1 POP JUMP JUMPDEST PUSH0 DUP2 SWAP1 POP SWAP2 SWAP1 POP JUMP JUMPDEST PUSH2 0x8A7 DUP4 PUSH2 0x874 JUMP JUMPDEST PUSH2 0x8BB PUSH2 0x8B3 DUP3 PUSH2 0x895 JUMP JUMPDEST DUP5 DUP5 SLOAD PUSH2 0x81A JUMP JUMPDEST DUP3 SSTORE POP POP POP POP JUMP JUMPDEST PUSH0 SWAP1 JUMP JUMPDEST PUSH2 0x8CF PUSH2 0x8C3 JUMP JUMPDEST PUSH2 0x8DA DUP2 DUP5 DUP5 PUSH2 0x89E JUMP JUMPDEST POP POP POP JUMP JUMPDEST JUMPDEST DUP2 DUP2 LT ISZERO PUSH2 0x8FD JUMPI PUSH2 0x8F2 PUSH0 DUP3 PUSH2 0x8C7 JUMP JUMPDEST PUSH1 0x1 DUP2 ADD SWAP1 POP PUSH2 0x8E0 JUMP JUMPDEST POP POP JUMP JUMPDEST PUSH1 0x1F DUP3 GT ISZERO PUSH2 0x942 JUMPI PUSH2 0x913 DUP2 PUSH2 0x7ED JUMP JUMPDEST PUSH2 0x91C DUP5 PUSH2 0x7FF JUMP JUMPDEST DUP2 ADD PUSH1 0x20 DUP6 LT ISZERO PUSH2 0x92B JUMPI DUP2 SWAP1 POP JUMPDEST PUSH2 0x93F PUSH2 0x937 DUP6 PUSH2 0x7FF JUMP JUMPDEST DUP4 ADD DUP3 PUSH2 0x8DF JUMP JUMPDEST POP POP JUMPDEST POP POP POP JUMP JUMPDEST PUSH0 DUP3 DUP3 SHR SWAP1 POP SWAP3 SWAP2 POP POP JUMP JUMPDEST PUSH0 PUSH2 0x962 PUSH0 NOT DUP5 PUSH1 0x8 MUL PUSH2 0x947 JUMP JUMPDEST NOT DUP1 DUP4 AND SWAP2 POP POP SWAP3 SWAP2 POP POP JUMP JUMPDEST PUSH0 PUSH2 0x97A DUP4 DUP4 PUSH2 0x953 JUMP JUMPDEST SWAP2 POP DUP3 PUSH1 0x2 MUL DUP3 OR SWAP1 POP SWAP3 SWAP2 POP POP JUMP JUMPDEST PUSH2 0x993 DUP3 PUSH2 0x759 JUMP JUMPDEST PUSH8 0xFFFFFFFFFFFFFFFF DUP2 GT ISZERO PUSH2 0x9AC JUMPI PUSH2 0x9AB PUSH2 0x763 JUMP JUMPDEST JUMPDEST PUSH2 0x9B6 DUP3 SLOAD PUSH2 0x7BD JUMP JUMPDEST PUSH2 0x9C1 DUP3 DUP3 DUP6 PUSH2 0x901 JUMP JUMPDEST PUSH0 PUSH1 0x20 SWAP1 POP PUSH1 0x1F DUP4 GT PUSH1 0x1 DUP2 EQ PUSH2 0x9F2 JUMPI PUSH0 DUP5 ISZERO PUSH2 0x9E0 JUMPI DUP3 DUP8 ADD MLOAD SWAP1 POP JUMPDEST PUSH2 0x9EA DUP6 DUP3 PUSH2 0x96F JUMP JUMPDEST DUP7 SSTORE POP PUSH2 0xA51 JUMP JUMPDEST PUSH1 0x1F NOT DUP5 AND PUSH2 0xA00 DUP7 PUSH2 0x7ED JUMP JUMPDEST PUSH0 JUMPDEST DUP3 DUP2 LT ISZERO PUSH2 0xA27 JUMPI DUP5 DUP10 ADD MLOAD DUP3 SSTORE PUSH1 0x1 DUP3 ADD SWAP2 POP PUSH1 0x20 DUP6 ADD SWAP5 POP PUSH1 0x20 DUP2 ADD SWAP1 POP PUSH2 0xA02 JUMP JUMPDEST DUP7 DUP4 LT ISZERO PUSH2 0xA44 JUMPI DUP5 DUP10 ADD MLOAD PUSH2 0xA40 PUSH1 0x1F DUP10 AND DUP3 PUSH2 0x953 JUMP JUMPDEST DUP4 SSTORE POP JUMPDEST PUSH1 0x1 PUSH1 0x2 DUP9 MUL ADD DUP9 SSTORE POP POP POP JUMPDEST POP POP POP POP POP POP JUMP JUMPDEST PUSH32 0x4E487B7100000000000000000000000000000000000000000000000000000000 PUSH0 MSTORE PUSH1 0x11 PUSH1 0x4 MSTORE PUSH1 0x24 PUSH0 REVERT JUMPDEST PUSH0 DUP2 PUSH1 0x1 SHR SWAP1 POP SWAP2 SWAP1 POP JUMP JUMPDEST PUSH0 DUP1 DUP3 SWAP2 POP DUP4 SWAP1 POP JUMPDEST PUSH1 0x1 DUP6 GT ISZERO PUSH2 0xADB JUMPI DUP1 DUP7 DIV DUP2 GT ISZERO PUSH2 0xAB7 JUMPI PUSH2 0xAB6 PUSH2 0xA59 JUMP JUMPDEST JUMPDEST PUSH1 0x1 DUP6 AND ISZERO PUSH2 0xAC6 JUMPI DUP1 DUP3 MUL SWAP2 POP JUMPDEST DUP1 DUP2 MUL SWAP1 POP PUSH2 0xAD4 DUP6 PUSH2 0xA86 JUMP JUMPDEST SWAP5 POP PUSH2 0xA9B JUMP JUMPDEST SWAP5 POP SWAP5 SWAP3 POP POP POP JUMP JUMPDEST PUSH0 DUP3 PUSH2 0xAF3 JUMPI PUSH1 0x1 SWAP1 POP PUSH2 0xBAE JUMP JUMPDEST DUP2 PUSH2 0xB00 JUMPI PUSH0 SWAP1 POP PUSH2 0xBAE JUMP JUMPDEST DUP2 PUSH1 0x1 DUP2 EQ PUSH2 0xB16 JUMPI PUSH1 0x2 DUP2 EQ PUSH2 0xB20 JUMPI PUSH2 0xB4F JUMP JUMPDEST PUSH1 0x1 SWAP2 POP POP PUSH2 0xBAE JUMP JUMPDEST PUSH1 0xFF DUP5 GT ISZERO PUSH2 0xB32 JUMPI PUSH2 0xB31 PUSH2 0xA59 JUMP JUMPDEST JUMPDEST DUP4 PUSH1 0x2 EXP SWAP2 POP DUP5 DUP3 GT ISZERO PUSH2 0xB49 JUMPI PUSH2 0xB48 PUSH2 0xA59 JUMP JUMPDEST JUMPDEST POP PUSH2 0xBAE JUMP JUMPDEST POP PUSH1 0x20 DUP4 LT PUSH2 0x133 DUP4 LT AND PUSH1 0x4E DUP5 LT PUSH1 0xB DUP5 LT AND OR ISZERO PUSH2 0xB84 JUMPI DUP3 DUP3 EXP SWAP1 POP DUP4 DUP2 GT ISZERO PUSH2 0xB7F JUMPI PUSH2 0xB7E PUSH2 0xA59 JUMP JUMPDEST JUMPDEST PUSH2 0xBAE JUMP JUMPDEST PUSH2 0xB91 DUP5 DUP5 DUP5 PUSH1 0x1 PUSH2 0xA92 JUMP JUMPDEST SWAP3 POP SWAP1 POP DUP2 DUP5 DIV DUP2 GT ISZERO PUSH2 0xBA8 JUMPI PUSH2 0xBA7 PUSH2 0xA59 JUMP JUMPDEST JUMPDEST DUP2 DUP2 MUL SWAP1 POP JUMPDEST SWAP4 SWAP3 POP POP POP JUMP JUMPDEST PUSH0 PUSH1 0xFF DUP3 AND SWAP1 POP SWAP2 SWAP1 POP JUMP JUMPDEST PUSH0 PUSH2 0xBCB DUP3 PUSH2 0x6AF JUMP JUMPDEST SWAP2 POP PUSH2 0xBD6 DUP4 PUSH2 0xBB5 JUMP JUMPDEST SWAP3 POP PUSH2 0xC03 PUSH32 0xFFFFFFFFFFFFFFFFFFFFFFFFFFFFFFFFFFFFFFFFFFFFFFFFFFFFFFFFFFFFFFFF DUP5 DUP5 PUSH2 0xAE4 JUMP JUMPDEST SWAP1 POP SWAP3 SWAP2 POP POP JUMP JUMPDEST PUSH0 PUSH2 0xC15 DUP3 PUSH2 0x6AF JUMP JUMPDEST SWAP2 POP PUSH2 0xC20 DUP4 PUSH2 0x6AF JUMP JUMPDEST SWAP3 POP DUP3 DUP3 MUL PUSH2 0xC2E DUP2 PUSH2 0x6AF JUMP JUMPDEST SWAP2 POP DUP3 DUP3 DIV DUP5 EQ DUP4 ISZERO OR PUSH2 0xC45 JUMPI PUSH2 0xC44 PUSH2 0xA59 JUMP JUMPDEST JUMPDEST POP SWAP3 SWAP2 POP POP JUMP JUMPDEST PUSH2 0xC55 DUP2 PUSH2 0x674 JUMP JUMPDEST DUP3 MSTORE POP POP JUMP JUMPDEST PUSH0 PUSH1 0x20 DUP3 ADD SWAP1 POP PUSH2 0xC6E PUSH0 DUP4 ADD DUP5 PUSH2 0xC4C JUMP JUMPDEST SWAP3 SWAP2 POP POP JUMP JUMPDEST PUSH0 PUSH2 0xC7E DUP3 PUSH2 0x6AF JUMP JUMPDEST SWAP2 POP PUSH2 0xC89 DUP4 PUSH2 0x6AF JUMP JUMPDEST SWAP3 POP DUP3 DUP3 ADD SWAP1 POP DUP1 DUP3 GT ISZERO PUSH2 0xCA1 JUMPI PUSH2 0xCA0 PUSH2 0xA59 JUMP JUMPDEST JUMPDEST SWAP3 SWAP2 POP POP JUMP JUMPDEST PUSH2 0xCB0 DUP2 PUSH2 0x6AF JUMP JUMPDEST DUP3 MSTORE POP POP JUMP JUMPDEST PUSH0 PUSH1 0x60 DUP3 ADD SWAP1 POP PUSH2 0xCC9 PUSH0 DUP4 ADD DUP7 PUSH2 0xC4C JUMP JUMPDEST PUSH2 0xCD6 PUSH1 0x20 DUP4 ADD DUP6 PUSH2 0xCA7 JUMP JUMPDEST PUSH2 0xCE3 PUSH1 0x40 DUP4 ADD DUP5 PUSH2 0xCA7 JUMP JUMPDEST SWAP5 SWAP4 POP POP POP POP JUMP JUMPDEST PUSH0 PUSH1 0x20 DUP3 ADD SWAP1 POP PUSH2 0xCFE PUSH0 DUP4 ADD DUP5 PUSH2 0xCA7 JUMP JUMPDEST SWAP3 SWAP2 POP POP JUMP JUMPDEST PUSH1 0x80 MLOAD PUSH1 0xA0 MLOAD PUSH2 0x2D0F PUSH2 0xD48 PUSH0 CODECOPY PUSH0 DUP2 DUP2 PUSH2 0xFA9 ADD MSTORE PUSH2 0x1477 ADD MSTORE PUSH0 DUP2 DUP2 PUSH2 0x79A ADD MSTORE DUP2 DUP2 PUSH2 0xEBF ADD MSTORE DUP2 DUP2 PUSH2 0xF0C ADD MSTORE DUP2 DUP2 PUSH2 0x110A ADD MSTORE PUSH2 0x12BB ADD MSTORE PUSH2 0x2D0F PUSH0 RETURN INVALID PUSH1 0x80 PUSH1 0x40 MSTORE CALLVALUE DUP1 ISZERO PUSH2 0xF JUMPI PUSH0 DUP1 REVERT JUMPDEST POP PUSH1 0x4 CALLDATASIZE LT PUSH2 0x20F JUMPI PUSH0 CALLDATALOAD PUSH1 0xE0 SHR DUP1 PUSH4 0x8456CB59 GT PUSH2 0x123 JUMPI DUP1 PUSH4 0xACD17A99 GT PUSH2 0xAB JUMPI DUP1 PUSH4 0xD547741F GT PUSH2 0x7A JUMPI DUP1 PUSH4 0xD547741F EQ PUSH2 0x5C9 JUMPI DUP1 PUSH4 0xD59624B4 EQ PUSH2 0x5E5 JUMPI DUP1 PUSH4 0xDD62ED3E EQ PUSH2 0x603 JUMPI DUP1 PUSH4 0xE091A39B EQ PUSH2 0x633 JUMPI DUP1 PUSH4 0xF57D283E EQ PUSH2 0x651 JUMPI PUSH2 0x20F JUMP JUMPDEST DUP1 PUSH4 0xACD17A99 EQ PUSH2 0x567 JUMPI DUP1 PUSH4 0xCA19C11C EQ PUSH2 0x585 JUMPI DUP1 PUSH4 0xCE4120DA EQ PUSH2 0x5A1 JUMPI DUP1 PUSH4 0xCED0550F EQ PUSH2 0x5BF JUMPI PUSH2 0x20F JUMP JUMPDEST DUP1 PUSH4 0x94D7CC88 GT PUSH2 0xF2 JUMPI DUP1 PUSH4 0x94D7CC88 EQ PUSH2 0x4C1 JUMPI DUP1 PUSH4 0x95D89B41 EQ PUSH2 0x4DD JUMPI DUP1 PUSH4 0x992642E5 EQ PUSH2 0x4FB JUMPI DUP1 PUSH4 0xA217FDDF EQ PUSH2 0x519 JUMPI DUP1 PUSH4 0xA9059CBB EQ PUSH2 0x537 JUMPI PUSH2 0x20F JUMP JUMPDEST DUP1 PUSH4 0x8456CB59 EQ PUSH2 0x44D JUMPI DUP1 PUSH4 0x86D71654 EQ PUSH2 0x457 JUMPI DUP1 PUSH4 0x904835C4 EQ PUSH2 0x475 JUMPI DUP1 PUSH4 0x91D14854 EQ PUSH2 0x491 JUMPI PUSH2 0x20F JUMP JUMPDEST DUP1 PUSH4 0x2F2FF15D GT PUSH2 0x1A6 JUMPI DUP1 PUSH4 0x42966C68 GT PUSH2 0x175 JUMPI DUP1 PUSH4 0x42966C68 EQ PUSH2 0x3A9 JUMPI DUP1 PUSH4 0x5C975ABB EQ PUSH2 0x3C5 JUMPI DUP1 PUSH4 0x70A08231 EQ PUSH2 0x3E3 JUMPI DUP1 PUSH4 0x764B666C EQ PUSH2 0x413 JUMPI DUP1 PUSH4 0x79CC6790 EQ PUSH2 0x431 JUMPI PUSH2 0x20F JUMP JUMPDEST DUP1 PUSH4 0x2F2FF15D EQ PUSH2 0x349 JUMPI DUP1 PUSH4 0x313CE567 EQ PUSH2 0x365 JUMPI DUP1 PUSH4 0x36568ABE EQ PUSH2 0x383 JUMPI DUP1 PUSH4 0x3F4BA83A EQ PUSH2 0x39F JUMPI PUSH2 0x20F JUMP JUMPDEST DUP1 PUSH4 0x18160DDD GT PUSH2 0x1E2 JUMPI DUP1 PUSH4 0x18160DDD EQ PUSH2 0x2AD JUMPI DUP1 PUSH4 0x23B872DD EQ PUSH2 0x2CB JUMPI DUP1 PUSH4 0x248A9CA3 EQ PUSH2 0x2FB JUMPI DUP1 PUSH4 0x2A0ACC6A EQ PUSH2 0x32B JUMPI PUSH2 0x20F JUMP JUMPDEST DUP1 PUSH4 0x1FFC9A7 EQ PUSH2 0x213 JUMPI DUP1 PUSH4 0x6FDDE03 EQ PUSH2 0x243 JUMPI DUP1 PUSH4 0x95EA7B3 EQ PUSH2 0x261 JUMPI DUP1 PUSH4 0x10002DBD EQ PUSH2 0x291 JUMPI JUMPDEST PUSH0 DUP1 REVERT JUMPDEST PUSH2 0x22D PUSH1 0x4 DUP1 CALLDATASIZE SUB DUP2 ADD SWAP1 PUSH2 0x228 SWAP2 SWAP1 PUSH2 0x20E2 JUMP JUMPDEST PUSH2 0x66D JUMP JUMPDEST PUSH1 0x40 MLOAD PUSH2 0x23A SWAP2 SWAP1 PUSH2 0x2127 JUMP JUMPDEST PUSH1 0x40 MLOAD DUP1 SWAP2 SUB SWAP1 RETURN JUMPDEST PUSH2 0x24B PUSH2 0x6E6 JUMP JUMPDEST PUSH1 0x40 MLOAD PUSH2 0x258 SWAP2 SWAP1 PUSH2 0x21B0 JUMP JUMPDEST PUSH1 0x40 MLOAD DUP1 SWAP2 SUB SWAP1 RETURN JUMPDEST PUSH2 0x27B PUSH1 0x4 DUP1 CALLDATASIZE SUB DUP2 ADD SWAP1 PUSH2 0x276 SWAP2 SWAP1 PUSH2 0x225D JUMP JUMPDEST PUSH2 0x776 JUMP JUMPDEST PUSH1 0x40 MLOAD PUSH2 0x288 SWAP2 SWAP1 PUSH2 0x2127 JUMP JUMPDEST PUSH1 0x40 MLOAD DUP1 SWAP2 SUB SWAP1 RETURN JUMPDEST PUSH2 0x2AB PUSH1 0x4 DUP1 CALLDATASIZE SUB DUP2 ADD SWAP1 PUSH2 0x2A6 SWAP2 SWAP1 PUSH2 0x229B JUMP JUMPDEST PUSH2 0x798 JUMP JUMPDEST STOP JUMPDEST PUSH2 0x2B5 PUSH2 0x931 JUMP JUMPDEST PUSH1 0x40 MLOAD PUSH2 0x2C2 SWAP2 SWAP1 PUSH2 0x22D5 JUMP JUMPDEST PUSH1 0x40 MLOAD DUP1 SWAP2 SUB SWAP1 RETURN JUMPDEST PUSH2 0x2E5 PUSH1 0x4 DUP1 CALLDATASIZE SUB DUP2 ADD SWAP1 PUSH2 0x2E0 SWAP2 SWAP1 PUSH2 0x22EE JUMP JUMPDEST PUSH2 0x93A JUMP JUMPDEST PUSH1 0x40 MLOAD PUSH2 0x2F2 SWAP2 SWAP1 PUSH2 0x2127 JUMP JUMPDEST PUSH1 0x40 MLOAD DUP1 SWAP2 SUB SWAP1 RETURN JUMPDEST PUSH2 0x315 PUSH1 0x4 DUP1 CALLDATASIZE SUB DUP2 ADD SWAP1 PUSH2 0x310 SWAP2 SWAP1 PUSH2 0x2371 JUMP JUMPDEST PUSH2 0x968 JUMP JUMPDEST PUSH1 0x40 MLOAD PUSH2 0x322 SWAP2 SWAP1 PUSH2 0x23AB JUMP JUMPDEST PUSH1 0x40 MLOAD DUP1 SWAP2 SUB SWAP1 RETURN JUMPDEST PUSH2 0x333 PUSH2 0x985 JUMP JUMPDEST PUSH1 0x40 MLOAD PUSH2 0x340 SWAP2 SWAP1 PUSH2 0x23AB JUMP JUMPDEST PUSH1 0x40 MLOAD DUP1 SWAP2 SUB SWAP1 RETURN JUMPDEST PUSH2 0x363 PUSH1 0x4 DUP1 CALLDATASIZE SUB DUP2 ADD SWAP1 PUSH2 0x35E SWAP2 SWAP1 PUSH2 0x23C4 JUMP JUMPDEST PUSH2 0x9A9 JUMP JUMPDEST STOP JUMPDEST PUSH2 0x36D PUSH2 0x9CB JUMP JUMPDEST PUSH1 0x40 MLOAD PUSH2 0x37A SWAP2 SWAP1 PUSH2 0x241D JUMP JUMPDEST PUSH1 0x40 MLOAD DUP1 SWAP2 SUB SWAP1 RETURN JUMPDEST PUSH2 0x39D PUSH1 0x4 DUP1 CALLDATASIZE SUB DUP2 ADD SWAP1 PUSH2 0x398 SWAP2 SWAP1 PUSH2 0x23C4 JUMP JUMPDEST PUSH2 0x9D3 JUMP JUMPDEST STOP JUMPDEST PUSH2 0x3A7 PUSH2 0xA4E JUMP JUMPDEST STOP JUMPDEST PUSH2 0x3C3 PUSH1 0x4 DUP1 CALLDATASIZE SUB DUP2 ADD SWAP1 PUSH2 0x3BE SWAP2 SWAP1 PUSH2 0x229B JUMP JUMPDEST PUSH2 0xA83 JUMP JUMPDEST STOP JUMPDEST PUSH2 0x3CD PUSH2 0xA97 JUMP JUMPDEST PUSH1 0x40 MLOAD PUSH2 0x3DA SWAP2 SWAP1 PUSH2 0x2127 JUMP JUMPDEST PUSH1 0x40 MLOAD DUP1 SWAP2 SUB SWAP1 RETURN JUMPDEST PUSH2 0x3FD PUSH1 0x4 DUP1 CALLDATASIZE SUB DUP2 ADD SWAP1 PUSH2 0x3F8 SWAP2 SWAP1 PUSH2 0x2436 JUMP JUMPDEST PUSH2 0xAAC JUMP JUMPDEST PUSH1 0x40 MLOAD PUSH2 0x40A SWAP2 SWAP1 PUSH2 0x22D5 JUMP JUMPDEST PUSH1 0x40 MLOAD DUP1 SWAP2 SUB SWAP1 RETURN JUMPDEST PUSH2 0x41B PUSH2 0xAF1 JUMP JUMPDEST PUSH1 0x40 MLOAD PUSH2 0x428 SWAP2 SWAP1 PUSH2 0x2470 JUMP JUMPDEST PUSH1 0x40 MLOAD DUP1 SWAP2 SUB SWAP1 RETURN JUMPDEST PUSH2 0x44B PUSH1 0x4 DUP1 CALLDATASIZE SUB DUP2 ADD SWAP1 PUSH2 0x446 SWAP2 SWAP1 PUSH2 0x225D JUMP JUMPDEST PUSH2 0xB16 JUMP JUMPDEST STOP JUMPDEST PUSH2 0x455 PUSH2 0xB36 JUMP JUMPDEST STOP JUMPDEST PUSH2 0x45F PUSH2 0xB6B JUMP JUMPDEST PUSH1 0x40 MLOAD PUSH2 0x46C SWAP2 SWAP1 PUSH2 0x22D5 JUMP JUMPDEST PUSH1 0x40 MLOAD DUP1 SWAP2 SUB SWAP1 RETURN JUMPDEST PUSH2 0x48F PUSH1 0x4 DUP1 CALLDATASIZE SUB DUP2 ADD SWAP1 PUSH2 0x48A SWAP2 SWAP1 PUSH2 0x2689 JUMP JUMPDEST PUSH2 0xBE9 JUMP JUMPDEST STOP JUMPDEST PUSH2 0x4AB PUSH1 0x4 DUP1 CALLDATASIZE SUB DUP2 ADD SWAP1 PUSH2 0x4A6 SWAP2 SWAP1 PUSH2 0x23C4 JUMP JUMPDEST PUSH2 0xD86 JUMP JUMPDEST PUSH1 0x40 MLOAD PUSH2 0x4B8 SWAP2 SWAP1 PUSH2 0x2127 JUMP JUMPDEST PUSH1 0x40 MLOAD DUP1 SWAP2 SUB SWAP1 RETURN JUMPDEST PUSH2 0x4DB PUSH1 0x4 DUP1 CALLDATASIZE SUB DUP2 ADD SWAP1 PUSH2 0x4D6 SWAP2 SWAP1 PUSH2 0x2436 JUMP JUMPDEST PUSH2 0xDEA JUMP JUMPDEST STOP JUMPDEST PUSH2 0x4E5 PUSH2 0xE2D JUMP JUMPDEST PUSH1 0x40 MLOAD PUSH2 0x4F2 SWAP2 SWAP1 PUSH2 0x21B0 JUMP JUMPDEST PUSH1 0x40 MLOAD DUP1 SWAP2 SUB SWAP1 RETURN JUMPDEST PUSH2 0x503 PUSH2 0xEBD JUMP JUMPDEST PUSH1 0x40 MLOAD PUSH2 0x510 SWAP2 SWAP1 PUSH2 0x2470 JUMP JUMPDEST PUSH1 0x40 MLOAD DUP1 SWAP2 SUB SWAP1 RETURN JUMPDEST PUSH2 0x521 PUSH2 0xEE1 JUMP JUMPDEST PUSH1 0x40 MLOAD PUSH2 0x52E SWAP2 SWAP1 PUSH2 0x23AB JUMP JUMPDEST PUSH1 0x40 MLOAD DUP1 SWAP2 SUB SWAP1 RETURN JUMPDEST PUSH2 0x551 PUSH1 0x4 DUP1 CALLDATASIZE SUB DUP2 ADD SWAP1 PUSH2 0x54C SWAP2 SWAP1 PUSH2 0x225D JUMP JUMPDEST PUSH2 0xEE7 JUMP JUMPDEST PUSH1 0x40 MLOAD PUSH2 0x55E SWAP2 SWAP1 PUSH2 0x2127 JUMP JUMPDEST PUSH1 0x40 MLOAD DUP1 SWAP2 SUB SWAP1 RETURN JUMPDEST PUSH2 0x56F PUSH2 0xF09 JUMP JUMPDEST PUSH1 0x40 MLOAD PUSH2 0x57C SWAP2 SWAP1 PUSH2 0x22D5 JUMP JUMPDEST PUSH1 0x40 MLOAD DUP1 SWAP2 SUB SWAP1 RETURN JUMPDEST PUSH2 0x59F PUSH1 0x4 DUP1 CALLDATASIZE SUB DUP2 ADD SWAP1 PUSH2 0x59A SWAP2 SWAP1 PUSH2 0x229B JUMP JUMPDEST PUSH2 0xFA7 JUMP JUMPDEST STOP JUMPDEST PUSH2 0x5A9 PUSH2 0x11EF JUMP JUMPDEST PUSH1 0x40 MLOAD PUSH2 0x5B6 SWAP2 SWAP1 PUSH2 0x22D5 JUMP JUMPDEST PUSH1 0x40 MLOAD DUP1 SWAP2 SUB SWAP1 RETURN JUMPDEST PUSH2 0x5C7 PUSH2 0x128E JUMP JUMPDEST STOP JUMPDEST PUSH2 0x5E3 PUSH1 0x4 DUP1 CALLDATASIZE SUB DUP2 ADD SWAP1 PUSH2 0x5DE SWAP2 SWAP1 PUSH2 0x23C4 JUMP JUMPDEST PUSH2 0x1453 JUMP JUMPDEST STOP JUMPDEST PUSH2 0x5ED PUSH2 0x1475 JUMP JUMPDEST PUSH1 0x40 MLOAD PUSH2 0x5FA SWAP2 SWAP1 PUSH2 0x22D5 JUMP JUMPDEST PUSH1 0x40 MLOAD DUP1 SWAP2 SUB SWAP1 RETURN JUMPDEST PUSH2 0x61D PUSH1 0x4 DUP1 CALLDATASIZE SUB DUP2 ADD SWAP1 PUSH2 0x618 SWAP2 SWAP1 PUSH2 0x26FF JUMP JUMPDEST PUSH2 0x1499 JUMP JUMPDEST PUSH1 0x40 MLOAD PUSH2 0x62A SWAP2 SWAP1 PUSH2 0x22D5 JUMP JUMPDEST PUSH1 0x40 MLOAD DUP1 SWAP2 SUB SWAP1 RETURN JUMPDEST PUSH2 0x63B PUSH2 0x151B JUMP JUMPDEST PUSH1 0x40 MLOAD PUSH2 0x648 SWAP2 SWAP1 PUSH2 0x23AB JUMP JUMPDEST PUSH1 0x40 MLOAD DUP1 SWAP2 SUB SWAP1 RETURN JUMPDEST PUSH2 0x66B PUSH1 0x4 DUP1 CALLDATASIZE SUB DUP2 ADD SWAP1 PUSH2 0x666 SWAP2 SWAP1 PUSH2 0x225D JUMP JUMPDEST PUSH2 0x153F JUMP JUMPDEST STOP JUMPDEST PUSH0 PUSH32 0x7965DB0B00000000000000000000000000000000000000000000000000000000 PUSH28 0xFFFFFFFFFFFFFFFFFFFFFFFFFFFFFFFFFFFFFFFFFFFFFFFFFFFFFFFF NOT AND DUP3 PUSH28 0xFFFFFFFFFFFFFFFFFFFFFFFFFFFFFFFFFFFFFFFFFFFFFFFFFFFFFFFF NOT AND EQ DUP1 PUSH2 0x6DF JUMPI POP PUSH2 0x6DE DUP3 PUSH2 0x166C JUMP JUMPDEST JUMPDEST SWAP1 POP SWAP2 SWAP1 POP JUMP JUMPDEST PUSH1 0x60 PUSH1 0x3 DUP1 SLOAD PUSH2 0x6F5 SWAP1 PUSH2 0x276A JUMP JUMPDEST DUP1 PUSH1 0x1F ADD PUSH1 0x20 DUP1 SWAP2 DIV MUL PUSH1 0x20 ADD PUSH1 0x40 MLOAD SWAP1 DUP2 ADD PUSH1 0x40 MSTORE DUP1 SWAP3 SWAP2 SWAP1 DUP2 DUP2 MSTORE PUSH1 0x20 ADD DUP3 DUP1 SLOAD PUSH2 0x721 SWAP1 PUSH2 0x276A JUMP JUMPDEST DUP1 ISZERO PUSH2 0x76C JUMPI DUP1 PUSH1 0x1F LT PUSH2 0x743 JUMPI PUSH2 0x100 DUP1 DUP4 SLOAD DIV MUL DUP4 MSTORE SWAP2 PUSH1 0x20 ADD SWAP2 PUSH2 0x76C JUMP JUMPDEST DUP3 ADD SWAP2 SWAP1 PUSH0 MSTORE PUSH1 0x20 PUSH0 KECCAK256 SWAP1 JUMPDEST DUP2 SLOAD DUP2 MSTORE SWAP1 PUSH1 0x1 ADD SWAP1 PUSH1 0x20 ADD DUP1 DUP4 GT PUSH2 0x74F JUMPI DUP3 SWAP1 SUB PUSH1 0x1F AND DUP3 ADD SWAP2 JUMPDEST POP POP POP POP POP SWAP1 POP SWAP1 JUMP JUMPDEST PUSH0 DUP1 PUSH2 0x780 PUSH2 0x16D5 JUMP JUMPDEST SWAP1 POP PUSH2 0x78D DUP2 DUP6 DUP6 PUSH2 0x16DC JUMP JUMPDEST PUSH1 0x1 SWAP2 POP POP SWAP3 SWAP2 POP POP JUMP JUMPDEST PUSH32 0x0 PUSH20 0xFFFFFFFFFFFFFFFFFFFFFFFFFFFFFFFFFFFFFFFF AND PUSH4 0x23B872DD CALLER ADDRESS DUP5 PUSH1 0x40 MLOAD DUP5 PUSH4 0xFFFFFFFF AND PUSH1 0xE0 SHL DUP2 MSTORE PUSH1 0x4 ADD PUSH2 0x7F5 SWAP4 SWAP3 SWAP2 SWAP1 PUSH2 0x279A JUMP JUMPDEST PUSH1 0x20 PUSH1 0x40 MLOAD DUP1 DUP4 SUB DUP2 PUSH0 DUP8 GAS CALL ISZERO DUP1 ISZERO PUSH2 0x811 JUMPI RETURNDATASIZE PUSH0 DUP1 RETURNDATACOPY RETURNDATASIZE PUSH0 REVERT JUMPDEST POP POP POP POP PUSH1 0x40 MLOAD RETURNDATASIZE PUSH1 0x1F NOT PUSH1 0x1F DUP3 ADD AND DUP3 ADD DUP1 PUSH1 0x40 MSTORE POP DUP2 ADD SWAP1 PUSH2 0x835 SWAP2 SWAP1 PUSH2 0x27F9 JUMP JUMPDEST PUSH2 0x874 JUMPI PUSH1 0x40 MLOAD PUSH32 0x8C379A000000000000000000000000000000000000000000000000000000000 DUP2 MSTORE PUSH1 0x4 ADD PUSH2 0x86B SWAP1 PUSH2 0x286E JUMP JUMPDEST PUSH1 0x40 MLOAD DUP1 SWAP2 SUB SWAP1 REVERT JUMPDEST ADDRESS PUSH20 0xFFFFFFFFFFFFFFFFFFFFFFFFFFFFFFFFFFFFFFFF AND PUSH4 0xA9059CBB CALLER DUP4 PUSH1 0x40 MLOAD DUP4 PUSH4 0xFFFFFFFF AND PUSH1 0xE0 SHL DUP2 MSTORE PUSH1 0x4 ADD PUSH2 0x8AF SWAP3 SWAP2 SWAP1 PUSH2 0x288C JUMP JUMPDEST PUSH1 0x20 PUSH1 0x40 MLOAD DUP1 DUP4 SUB DUP2 PUSH0 DUP8 GAS CALL ISZERO DUP1 ISZERO PUSH2 0x8CB JUMPI RETURNDATASIZE PUSH0 DUP1 RETURNDATACOPY RETURNDATASIZE PUSH0 REVERT JUMPDEST POP POP POP POP PUSH1 0x40 MLOAD RETURNDATASIZE PUSH1 0x1F NOT PUSH1 0x1F DUP3 ADD AND DUP3 ADD DUP1 PUSH1 0x40 MSTORE POP DUP2 ADD SWAP1 PUSH2 0x8EF SWAP2 SWAP1 PUSH2 0x27F9 JUMP JUMPDEST PUSH2 0x92E JUMPI PUSH1 0x40 MLOAD PUSH32 0x8C379A000000000000000000000000000000000000000000000000000000000 DUP2 MSTORE PUSH1 0x4 ADD PUSH2 0x925 SWAP1 PUSH2 0x28FD JUMP JUMPDEST PUSH1 0x40 MLOAD DUP1 SWAP2 SUB SWAP1 REVERT JUMPDEST POP JUMP JUMPDEST PUSH0 PUSH1 0x2 SLOAD SWAP1 POP SWAP1 JUMP JUMPDEST PUSH0 DUP1 PUSH2 0x944 PUSH2 0x16D5 JUMP JUMPDEST SWAP1 POP PUSH2 0x951 DUP6 DUP3 DUP6 PUSH2 0x16EE JUMP JUMPDEST PUSH2 0x95C DUP6 DUP6 DUP6 PUSH2 0x1780 JUMP JUMPDEST PUSH1 0x1 SWAP2 POP POP SWAP4 SWAP3 POP POP POP JUMP JUMPDEST PUSH0 PUSH1 0x6 PUSH0 DUP4 DUP2 MSTORE PUSH1 0x20 ADD SWAP1 DUP2 MSTORE PUSH1 0x20 ADD PUSH0 KECCAK256 PUSH1 0x1 ADD SLOAD SWAP1 POP SWAP2 SWAP1 POP JUMP JUMPDEST PUSH32 0xDF8B4C520FFE197C5343C6F5AEC59570151EF9A492F2C624FD45DDDE6135EC42 DUP2 JUMP JUMPDEST PUSH2 0x9B2 DUP3 PUSH2 0x968 JUMP JUMPDEST PUSH2 0x9BB DUP2 PUSH2 0x1870 JUMP JUMPDEST PUSH2 0x9C5 DUP4 DUP4 PUSH2 0x1884 JUMP JUMPDEST POP POP POP POP JUMP JUMPDEST PUSH0 PUSH1 0x12 SWAP1 POP SWAP1 JUMP JUMPDEST PUSH2 0x9DB PUSH2 0x16D5 JUMP JUMPDEST PUSH20 0xFFFFFFFFFFFFFFFFFFFFFFFFFFFFFFFFFFFFFFFF AND DUP2 PUSH20 0xFFFFFFFFFFFFFFFFFFFFFFFFFFFFFFFFFFFFFFFF AND EQ PUSH2 0xA3F JUMPI PUSH1 0x40 MLOAD PUSH32 0x6697B23200000000000000000000000000000000000000000000000000000000 DUP2 MSTORE PUSH1 0x4 ADD PUSH1 0x40 MLOAD DUP1 SWAP2 SUB SWAP1 REVERT JUMPDEST PUSH2 0xA49 DUP3 DUP3 PUSH2 0x196E JUMP JUMPDEST POP POP POP JUMP JUMPDEST PUSH32 0xDF8B4C520FFE197C5343C6F5AEC59570151EF9A492F2C624FD45DDDE6135EC42 PUSH2 0xA78 DUP2 PUSH2 0x1870 JUMP JUMPDEST PUSH2 0xA80 PUSH2 0x1A58 JUMP JUMPDEST POP JUMP JUMPDEST PUSH2 0xA94 PUSH2 0xA8E PUSH2 0x16D5 JUMP JUMPDEST DUP3 PUSH2 0x1AB9 JUMP JUMPDEST POP JUMP JUMPDEST PUSH0 PUSH1 0x5 PUSH0 SWAP1 SLOAD SWAP1 PUSH2 0x100 EXP SWAP1 DIV PUSH1 0xFF AND SWAP1 POP SWAP1 JUMP JUMPDEST PUSH0 DUP1 PUSH0 DUP4 PUSH20 0xFFFFFFFFFFFFFFFFFFFFFFFFFFFFFFFFFFFFFFFF AND PUSH20 0xFFFFFFFFFFFFFFFFFFFFFFFFFFFFFFFFFFFFFFFF AND DUP2 MSTORE PUSH1 0x20 ADD SWAP1 DUP2 MSTORE PUSH1 0x20 ADD PUSH0 KECCAK256 SLOAD SWAP1 POP SWAP2 SWAP1 POP JUMP JUMPDEST PUSH1 0x7 PUSH0 SWAP1 SLOAD SWAP1 PUSH2 0x100 EXP SWAP1 DIV PUSH20 0xFFFFFFFFFFFFFFFFFFFFFFFFFFFFFFFFFFFFFFFF AND DUP2 JUMP JUMPDEST PUSH2 0xB28 DUP3 PUSH2 0xB22 PUSH2 0x16D5 JUMP JUMPDEST DUP4 PUSH2 0x16EE JUMP JUMPDEST PUSH2 0xB32 DUP3 DUP3 PUSH2 0x1AB9 JUMP JUMPDEST POP POP JUMP JUMPDEST PUSH32 0xDF8B4C520FFE197C5343C6F5AEC59570151EF9A492F2C624FD45DDDE6135EC42 PUSH2 0xB60 DUP2 PUSH2 0x1870 JUMP JUMPDEST PUSH2 0xB68 PUSH2 0x1B38 JUMP JUMPDEST POP JUMP JUMPDEST PUSH0 ADDRESS PUSH20 0xFFFFFFFFFFFFFFFFFFFFFFFFFFFFFFFFFFFFFFFF AND PUSH4 0x70A08231 ADDRESS PUSH1 0x40 MLOAD DUP3 PUSH4 0xFFFFFFFF AND PUSH1 0xE0 SHL DUP2 MSTORE PUSH1 0x4 ADD PUSH2 0xBA5 SWAP2 SWAP1 PUSH2 0x2470 JUMP JUMPDEST PUSH1 0x20 PUSH1 0x40 MLOAD DUP1 DUP4 SUB DUP2 DUP7 GAS STATICCALL ISZERO DUP1 ISZERO PUSH2 0xBC0 JUMPI RETURNDATASIZE PUSH0 DUP1 RETURNDATACOPY RETURNDATASIZE PUSH0 REVERT JUMPDEST POP POP POP POP PUSH1 0x40 MLOAD RETURNDATASIZE PUSH1 0x1F NOT PUSH1 0x1F DUP3 ADD AND DUP3 ADD DUP1 PUSH1 0x40 MSTORE POP DUP2 ADD SWAP1 PUSH2 0xBE4 SWAP2 SWAP1 PUSH2 0x292F JUMP JUMPDEST SWAP1 POP SWAP1 JUMP JUMPDEST PUSH32 0xDF8B4C520FFE197C5343C6F5AEC59570151EF9A492F2C624FD45DDDE6135EC42 PUSH2 0xC13 DUP2 PUSH2 0x1870 JUMP JUMPDEST DUP2 MLOAD DUP4 MLOAD EQ PUSH2 0xC57 JUMPI PUSH1 0x40 MLOAD PUSH32 0x8C379A000000000000000000000000000000000000000000000000000000000 DUP2 MSTORE PUSH1 0x4 ADD PUSH2 0xC4E SWAP1 PUSH2 0x29CA JUMP JUMPDEST PUSH1 0x40 MLOAD DUP1 SWAP2 SUB SWAP1 REVERT JUMPDEST PUSH0 JUMPDEST DUP4 MLOAD DUP2 LT ISZERO PUSH2 0xD80 JUMPI PUSH1 0x7 PUSH0 SWAP1 SLOAD SWAP1 PUSH2 0x100 EXP SWAP1 DIV PUSH20 0xFFFFFFFFFFFFFFFFFFFFFFFFFFFFFFFFFFFFFFFF AND PUSH20 0xFFFFFFFFFFFFFFFFFFFFFFFFFFFFFFFFFFFFFFFF AND PUSH4 0x23B872DD CALLER DUP7 DUP5 DUP2 MLOAD DUP2 LT PUSH2 0xCB3 JUMPI PUSH2 0xCB2 PUSH2 0x29E8 JUMP JUMPDEST JUMPDEST PUSH1 0x20 MUL PUSH1 0x20 ADD ADD MLOAD DUP7 DUP6 DUP2 MLOAD DUP2 LT PUSH2 0xCCE JUMPI PUSH2 0xCCD PUSH2 0x29E8 JUMP JUMPDEST JUMPDEST PUSH1 0x20 MUL PUSH1 0x20 ADD ADD MLOAD PUSH1 0x40 MLOAD DUP5 PUSH4 0xFFFFFFFF AND PUSH1 0xE0 SHL DUP2 MSTORE PUSH1 0x4 ADD PUSH2 0xCF4 SWAP4 SWAP3 SWAP2 SWAP1 PUSH2 0x279A JUMP JUMPDEST PUSH1 0x20 PUSH1 0x40 MLOAD DUP1 DUP4 SUB DUP2 PUSH0 DUP8 GAS CALL ISZERO DUP1 ISZERO PUSH2 0xD10 JUMPI RETURNDATASIZE PUSH0 DUP1 RETURNDATACOPY RETURNDATASIZE PUSH0 REVERT JUMPDEST POP POP POP POP PUSH1 0x40 MLOAD RETURNDATASIZE PUSH1 0x1F NOT PUSH1 0x1F DUP3 ADD AND DUP3 ADD DUP1 PUSH1 0x40 MSTORE POP DUP2 ADD SWAP1 PUSH2 0xD34 SWAP2 SWAP1 PUSH2 0x27F9 JUMP JUMPDEST PUSH2 0xD73 JUMPI PUSH1 0x40 MLOAD PUSH32 0x8C379A000000000000000000000000000000000000000000000000000000000 DUP2 MSTORE PUSH1 0x4 ADD PUSH2 0xD6A SWAP1 PUSH2 0x2A5F JUMP JUMPDEST PUSH1 0x40 MLOAD DUP1 SWAP2 SUB SWAP1 REVERT JUMPDEST DUP1 DUP1 PUSH1 0x1 ADD SWAP2 POP POP PUSH2 0xC59 JUMP JUMPDEST POP POP POP POP JUMP JUMPDEST PUSH0 PUSH1 0x6 PUSH0 DUP5 DUP2 MSTORE PUSH1 0x20 ADD SWAP1 DUP2 MSTORE PUSH1 0x20 ADD PUSH0 KECCAK256 PUSH0 ADD PUSH0 DUP4 PUSH20 0xFFFFFFFFFFFFFFFFFFFFFFFFFFFFFFFFFFFFFFFF AND PUSH20 0xFFFFFFFFFFFFFFFFFFFFFFFFFFFFFFFFFFFFFFFF AND DUP2 MSTORE PUSH1 0x20 ADD SWAP1 DUP2 MSTORE PUSH1 0x20 ADD PUSH0 KECCAK256 PUSH0 SWAP1 SLOAD SWAP1 PUSH2 0x100 EXP SWAP1 DIV PUSH1 0xFF AND SWAP1 POP SWAP3 SWAP2 POP POP JUMP JUMPDEST DUP1 PUSH1 0x7 PUSH0 PUSH2 0x100 EXP DUP2 SLOAD DUP2 PUSH20 0xFFFFFFFFFFFFFFFFFFFFFFFFFFFFFFFFFFFFFFFF MUL NOT AND SWAP1 DUP4 PUSH20 0xFFFFFFFFFFFFFFFFFFFFFFFFFFFFFFFFFFFFFFFF AND MUL OR SWAP1 SSTORE POP POP JUMP JUMPDEST PUSH1 0x60 PUSH1 0x4 DUP1 SLOAD PUSH2 0xE3C SWAP1 PUSH2 0x276A JUMP JUMPDEST DUP1 PUSH1 0x1F ADD PUSH1 0x20 DUP1 SWAP2 DIV MUL PUSH1 0x20 ADD PUSH1 0x40 MLOAD SWAP1 DUP2 ADD PUSH1 0x40 MSTORE DUP1 SWAP3 SWAP2 SWAP1 DUP2 DUP2 MSTORE PUSH1 0x20 ADD DUP3 DUP1 SLOAD PUSH2 0xE68 SWAP1 PUSH2 0x276A JUMP JUMPDEST DUP1 ISZERO PUSH2 0xEB3 JUMPI DUP1 PUSH1 0x1F LT PUSH2 0xE8A JUMPI PUSH2 0x100 DUP1 DUP4 SLOAD DIV MUL DUP4 MSTORE SWAP2 PUSH1 0x20 ADD SWAP2 PUSH2 0xEB3 JUMP JUMPDEST DUP3 ADD SWAP2 SWAP1 PUSH0 MSTORE PUSH1 0x20 PUSH0 KECCAK256 SWAP1 JUMPDEST DUP2 SLOAD DUP2 MSTORE SWAP1 PUSH1 0x1 ADD SWAP1 PUSH1 0x20 ADD DUP1 DUP4 GT PUSH2 0xE96 JUMPI DUP3 SWAP1 SUB PUSH1 0x1F AND DUP3 ADD SWAP2 JUMPDEST POP POP POP POP POP SWAP1 POP SWAP1 JUMP JUMPDEST PUSH32 0x0 DUP2 JUMP JUMPDEST PUSH0 DUP1 SHL DUP2 JUMP JUMPDEST PUSH0 DUP1 PUSH2 0xEF1 PUSH2 0x16D5 JUMP JUMPDEST SWAP1 POP PUSH2 0xEFE DUP2 DUP6 DUP6 PUSH2 0x1780 JUMP JUMPDEST PUSH1 0x1 SWAP2 POP POP SWAP3 SWAP2 POP POP JUMP JUMPDEST PUSH0 PUSH32 0x0 PUSH20 0xFFFFFFFFFFFFFFFFFFFFFFFFFFFFFFFFFFFFFFFF AND PUSH4 0x70A08231 CALLER PUSH1 0x40 MLOAD DUP3 PUSH4 0xFFFFFFFF AND PUSH1 0xE0 SHL DUP2 MSTORE PUSH1 0x4 ADD PUSH2 0xF63 SWAP2 SWAP1 PUSH2 0x2470 JUMP JUMPDEST PUSH1 0x20 PUSH1 0x40 MLOAD DUP1 DUP4 SUB DUP2 DUP7 GAS STATICCALL ISZERO DUP1 ISZERO PUSH2 0xF7E JUMPI RETURNDATASIZE PUSH0 DUP1 RETURNDATACOPY RETURNDATASIZE PUSH0 REVERT JUMPDEST POP POP POP POP PUSH1 0x40 MLOAD RETURNDATASIZE PUSH1 0x1F NOT PUSH1 0x1F DUP3 ADD AND DUP3 ADD DUP1 PUSH1 0x40 MSTORE POP DUP2 ADD SWAP1 PUSH2 0xFA2 SWAP2 SWAP1 PUSH2 0x292F JUMP JUMPDEST SWAP1 POP SWAP1 JUMP JUMPDEST PUSH32 0x0 TIMESTAMP LT ISZERO PUSH2 0x100A JUMPI PUSH1 0x40 MLOAD PUSH32 0x8C379A000000000000000000000000000000000000000000000000000000000 DUP2 MSTORE PUSH1 0x4 ADD PUSH2 0x1001 SWAP1 PUSH2 0x2AC7 JUMP JUMPDEST PUSH1 0x40 MLOAD DUP1 SWAP2 SUB SWAP1 REVERT JUMPDEST PUSH0 DUP2 GT PUSH2 0x104C JUMPI PUSH1 0x40 MLOAD PUSH32 0x8C379A000000000000000000000000000000000000000000000000000000000 DUP2 MSTORE PUSH1 0x4 ADD PUSH2 0x1043 SWAP1 PUSH2 0x2B2F JUMP JUMPDEST PUSH1 0x40 MLOAD DUP1 SWAP2 SUB SWAP1 REVERT JUMPDEST ADDRESS PUSH20 0xFFFFFFFFFFFFFFFFFFFFFFFFFFFFFFFFFFFFFFFF AND PUSH4 0x23B872DD CALLER ADDRESS DUP5 PUSH1 0x40 MLOAD DUP5 PUSH4 0xFFFFFFFF AND PUSH1 0xE0 SHL DUP2 MSTORE PUSH1 0x4 ADD PUSH2 0x1089 SWAP4 SWAP3 SWAP2 SWAP1 PUSH2 0x279A JUMP JUMPDEST PUSH1 0x20 PUSH1 0x40 MLOAD DUP1 DUP4 SUB DUP2 PUSH0 DUP8 GAS CALL ISZERO DUP1 ISZERO PUSH2 0x10A5 JUMPI RETURNDATASIZE PUSH0 DUP1 RETURNDATACOPY RETURNDATASIZE PUSH0 REVERT JUMPDEST POP POP POP POP PUSH1 0x40 MLOAD RETURNDATASIZE PUSH1 0x1F NOT PUSH1 0x1F DUP3 ADD AND DUP3 ADD DUP1 PUSH1 0x40 MSTORE POP DUP2 ADD SWAP1 PUSH2 0x10C9 SWAP2 SWAP1 PUSH2 0x27F9 JUMP JUMPDEST PUSH2 0x1108 JUMPI PUSH1 0x40 MLOAD PUSH32 0x8C379A000000000000000000000000000000000000000000000000000000000 DUP2 MSTORE PUSH1 0x4 ADD PUSH2 0x10FF SWAP1 PUSH2 0x28FD JUMP JUMPDEST PUSH1 0x40 MLOAD DUP1 SWAP2 SUB SWAP1 REVERT JUMPDEST PUSH32 0x0 PUSH20 0xFFFFFFFFFFFFFFFFFFFFFFFFFFFFFFFFFFFFFFFF AND PUSH4 0xA9059CBB CALLER DUP4 PUSH1 0x40 MLOAD DUP4 PUSH4 0xFFFFFFFF AND PUSH1 0xE0 SHL DUP2 MSTORE PUSH1 0x4 ADD PUSH2 0x1163 SWAP3 SWAP2 SWAP1 PUSH2 0x288C JUMP JUMPDEST PUSH1 0x20 PUSH1 0x40 MLOAD DUP1 DUP4 SUB DUP2 PUSH0 DUP8 GAS CALL ISZERO DUP1 ISZERO PUSH2 0x117F JUMPI RETURNDATASIZE PUSH0 DUP1 RETURNDATACOPY RETURNDATASIZE PUSH0 REVERT JUMPDEST POP POP POP POP PUSH1 0x40 MLOAD RETURNDATASIZE PUSH1 0x1F NOT PUSH1 0x1F DUP3 ADD AND DUP3 ADD DUP1 PUSH1 0x40 MSTORE POP DUP2 ADD SWAP1 PUSH2 0x11A3 SWAP2 SWAP1 PUSH2 0x27F9 JUMP JUMPDEST PUSH2 0x11E2 JUMPI PUSH1 0x40 MLOAD PUSH32 0x8C379A000000000000000000000000000000000000000000000000000000000 DUP2 MSTORE PUSH1 0x4 ADD PUSH2 0x11D9 SWAP1 PUSH2 0x286E JUMP JUMPDEST PUSH1 0x40 MLOAD DUP1 SWAP2 SUB SWAP1 REVERT JUMPDEST PUSH2 0x11EC ADDRESS DUP3 PUSH2 0x1AB9 JUMP JUMPDEST POP JUMP JUMPDEST PUSH0 PUSH1 0x7 PUSH0 SWAP1 SLOAD SWAP1 PUSH2 0x100 EXP SWAP1 DIV PUSH20 0xFFFFFFFFFFFFFFFFFFFFFFFFFFFFFFFFFFFFFFFF AND PUSH20 0xFFFFFFFFFFFFFFFFFFFFFFFFFFFFFFFFFFFFFFFF AND PUSH4 0x70A08231 CALLER PUSH1 0x40 MLOAD DUP3 PUSH4 0xFFFFFFFF AND PUSH1 0xE0 SHL DUP2 MSTORE PUSH1 0x4 ADD PUSH2 0x124A SWAP2 SWAP1 PUSH2 0x2470 JUMP JUMPDEST PUSH1 0x20 PUSH1 0x40 MLOAD DUP1 DUP4 SUB DUP2 DUP7 GAS STATICCALL ISZERO DUP1 ISZERO PUSH2 0x1265 JUMPI RETURNDATASIZE PUSH0 DUP1 RETURNDATACOPY RETURNDATASIZE PUSH0 REVERT JUMPDEST POP POP POP POP PUSH1 0x40 MLOAD RETURNDATASIZE PUSH1 0x1F NOT PUSH1 0x1F DUP3 ADD AND DUP3 ADD DUP1 PUSH1 0x40 MSTORE POP DUP2 ADD SWAP1 PUSH2 0x1289 SWAP2 SWAP1 PUSH2 0x292F JUMP JUMPDEST SWAP1 POP SWAP1 JUMP JUMPDEST PUSH32 0xF877234297EF562D54F0328F892ACFC1D6C1E44CA89F02E3A2C2A4736F6095B7 PUSH2 0x12B8 DUP2 PUSH2 0x1870 JUMP JUMPDEST PUSH0 PUSH32 0x0 PUSH20 0xFFFFFFFFFFFFFFFFFFFFFFFFFFFFFFFFFFFFFFFF AND PUSH4 0x70A08231 ADDRESS PUSH1 0x40 MLOAD DUP3 PUSH4 0xFFFFFFFF AND PUSH1 0xE0 SHL DUP2 MSTORE PUSH1 0x4 ADD PUSH2 0x1312 SWAP2 SWAP1 PUSH2 0x2470 JUMP JUMPDEST PUSH1 0x20 PUSH1 0x40 MLOAD DUP1 DUP4 SUB DUP2 DUP7 GAS STATICCALL ISZERO DUP1 ISZERO PUSH2 0x132D JUMPI RETURNDATASIZE PUSH0 DUP1 RETURNDATACOPY RETURNDATASIZE PUSH0 REVERT JUMPDEST POP POP POP POP PUSH1 0x40 MLOAD RETURNDATASIZE PUSH1 0x1F NOT PUSH1 0x1F DUP3 ADD AND DUP3 ADD DUP1 PUSH1 0x40 MSTORE POP DUP2 ADD SWAP1 PUSH2 0x1351 SWAP2 SWAP1 PUSH2 0x292F JUMP JUMPDEST SWAP1 POP PUSH0 DUP2 GT PUSH2 0x1395 JUMPI PUSH1 0x40 MLOAD PUSH32 0x8C379A000000000000000000000000000000000000000000000000000000000 DUP2 MSTORE PUSH1 0x4 ADD PUSH2 0x138C SWAP1 PUSH2 0x2B97 JUMP JUMPDEST PUSH1 0x40 MLOAD DUP1 SWAP2 SUB SWAP1 REVERT JUMPDEST ADDRESS PUSH20 0xFFFFFFFFFFFFFFFFFFFFFFFFFFFFFFFFFFFFFFFF AND PUSH4 0xA9059CBB CALLER DUP4 PUSH1 0x40 MLOAD DUP4 PUSH4 0xFFFFFFFF AND PUSH1 0xE0 SHL DUP2 MSTORE PUSH1 0x4 ADD PUSH2 0x13D0 SWAP3 SWAP2 SWAP1 PUSH2 0x288C JUMP JUMPDEST PUSH1 0x20 PUSH1 0x40 MLOAD DUP1 DUP4 SUB DUP2 PUSH0 DUP8 GAS CALL ISZERO DUP1 ISZERO PUSH2 0x13EC JUMPI RETURNDATASIZE PUSH0 DUP1 RETURNDATACOPY RETURNDATASIZE PUSH0 REVERT JUMPDEST POP POP POP POP PUSH1 0x40 MLOAD RETURNDATASIZE PUSH1 0x1F NOT PUSH1 0x1F DUP3 ADD AND DUP3 ADD DUP1 PUSH1 0x40 MSTORE POP DUP2 ADD SWAP1 PUSH2 0x1410 SWAP2 SWAP1 PUSH2 0x27F9 JUMP JUMPDEST PUSH2 0x144F JUMPI PUSH1 0x40 MLOAD PUSH32 0x8C379A000000000000000000000000000000000000000000000000000000000 DUP2 MSTORE PUSH1 0x4 ADD PUSH2 0x1446 SWAP1 PUSH2 0x2BFF JUMP JUMPDEST PUSH1 0x40 MLOAD DUP1 SWAP2 SUB SWAP1 REVERT JUMPDEST POP POP JUMP JUMPDEST PUSH2 0x145C DUP3 PUSH2 0x968 JUMP JUMPDEST PUSH2 0x1465 DUP2 PUSH2 0x1870 JUMP JUMPDEST PUSH2 0x146F DUP4 DUP4 PUSH2 0x196E JUMP JUMPDEST POP POP POP POP JUMP JUMPDEST PUSH32 0x0 DUP2 JUMP JUMPDEST PUSH0 PUSH1 0x1 PUSH0 DUP5 PUSH20 0xFFFFFFFFFFFFFFFFFFFFFFFFFFFFFFFFFFFFFFFF AND PUSH20 0xFFFFFFFFFFFFFFFFFFFFFFFFFFFFFFFFFFFFFFFF AND DUP2 MSTORE PUSH1 0x20 ADD SWAP1 DUP2 MSTORE PUSH1 0x20 ADD PUSH0 KECCAK256 PUSH0 DUP4 PUSH20 0xFFFFFFFFFFFFFFFFFFFFFFFFFFFFFFFFFFFFFFFF AND PUSH20 0xFFFFFFFFFFFFFFFFFFFFFFFFFFFFFFFFFFFFFFFF AND DUP2 MSTORE PUSH1 0x20 ADD SWAP1 DUP2 MSTORE PUSH1 0x20 ADD PUSH0 KECCAK256 SLOAD SWAP1 POP SWAP3 SWAP2 POP POP JUMP JUMPDEST PUSH32 0xF877234297EF562D54F0328F892ACFC1D6C1E44CA89F02E3A2C2A4736F6095B7 DUP2 JUMP JUMPDEST PUSH32 0xDF8B4C520FFE197C5343C6F5AEC59570151EF9A492F2C624FD45DDDE6135EC42 PUSH2 0x1569 DUP2 PUSH2 0x1870 JUMP JUMPDEST PUSH1 0x7 PUSH0 SWAP1 SLOAD SWAP1 PUSH2 0x100 EXP SWAP1 DIV PUSH20 0xFFFFFFFFFFFFFFFFFFFFFFFFFFFFFFFFFFFFFFFF AND PUSH20 0xFFFFFFFFFFFFFFFFFFFFFFFFFFFFFFFFFFFFFFFF AND PUSH4 0x23B872DD PUSH1 0x7 PUSH0 SWAP1 SLOAD SWAP1 PUSH2 0x100 EXP SWAP1 DIV PUSH20 0xFFFFFFFFFFFFFFFFFFFFFFFFFFFFFFFFFFFFFFFF AND DUP6 DUP6 PUSH1 0x40 MLOAD DUP5 PUSH4 0xFFFFFFFF AND PUSH1 0xE0 SHL DUP2 MSTORE PUSH1 0x4 ADD PUSH2 0x15E8 SWAP4 SWAP3 SWAP2 SWAP1 PUSH2 0x279A JUMP JUMPDEST PUSH1 0x20 PUSH1 0x40 MLOAD DUP1 DUP4 SUB DUP2 PUSH0 DUP8 GAS CALL ISZERO DUP1 ISZERO PUSH2 0x1604 JUMPI RETURNDATASIZE PUSH0 DUP1 RETURNDATACOPY RETURNDATASIZE PUSH0 REVERT JUMPDEST POP POP POP POP PUSH1 0x40 MLOAD RETURNDATASIZE PUSH1 0x1F NOT PUSH1 0x1F DUP3 ADD AND DUP3 ADD DUP1 PUSH1 0x40 MSTORE POP DUP2 ADD SWAP1 PUSH2 0x1628 SWAP2 SWAP1 PUSH2 0x27F9 JUMP JUMPDEST PUSH2 0x1667 JUMPI PUSH1 0x40 MLOAD PUSH32 0x8C379A000000000000000000000000000000000000000000000000000000000 DUP2 MSTORE PUSH1 0x4 ADD PUSH2 0x165E SWAP1 PUSH2 0x2A5F JUMP JUMPDEST PUSH1 0x40 MLOAD DUP1 SWAP2 SUB SWAP1 REVERT JUMPDEST POP POP POP JUMP JUMPDEST PUSH0 PUSH32 0x1FFC9A700000000000000000000000000000000000000000000000000000000 PUSH28 0xFFFFFFFFFFFFFFFFFFFFFFFFFFFFFFFFFFFFFFFFFFFFFFFFFFFFFFFF NOT AND DUP3 PUSH28 0xFFFFFFFFFFFFFFFFFFFFFFFFFFFFFFFFFFFFFFFFFFFFFFFFFFFFFFFF NOT AND EQ SWAP1 POP SWAP2 SWAP1 POP JUMP JUMPDEST PUSH0 CALLER SWAP1 POP SWAP1 JUMP JUMPDEST PUSH2 0x16E9 DUP4 DUP4 DUP4 PUSH1 0x1 PUSH2 0x1B9A JUMP JUMPDEST POP POP POP JUMP JUMPDEST PUSH0 PUSH2 0x16F9 DUP5 DUP5 PUSH2 0x1499 JUMP JUMPDEST SWAP1 POP PUSH32 0xFFFFFFFFFFFFFFFFFFFFFFFFFFFFFFFFFFFFFFFFFFFFFFFFFFFFFFFFFFFFFFFF DUP2 EQ PUSH2 0x177A JUMPI DUP2 DUP2 LT ISZERO PUSH2 0x176B JUMPI DUP3 DUP2 DUP4 PUSH1 0x40 MLOAD PUSH32 0xFB8F41B200000000000000000000000000000000000000000000000000000000 DUP2 MSTORE PUSH1 0x4 ADD PUSH2 0x1762 SWAP4 SWAP3 SWAP2 SWAP1 PUSH2 0x2C1D JUMP JUMPDEST PUSH1 0x40 MLOAD DUP1 SWAP2 SUB SWAP1 REVERT JUMPDEST PUSH2 0x1779 DUP5 DUP5 DUP5 DUP5 SUB PUSH0 PUSH2 0x1B9A JUMP JUMPDEST JUMPDEST POP POP POP POP JUMP JUMPDEST PUSH0 PUSH20 0xFFFFFFFFFFFFFFFFFFFFFFFFFFFFFFFFFFFFFFFF AND DUP4 PUSH20 0xFFFFFFFFFFFFFFFFFFFFFFFFFFFFFFFFFFFFFFFF AND SUB PUSH2 0x17F0 JUMPI PUSH0 PUSH1 0x40 MLOAD PUSH32 0x96C6FD1E00000000000000000000000000000000000000000000000000000000 DUP2 MSTORE PUSH1 0x4 ADD PUSH2 0x17E7 SWAP2 SWAP1 PUSH2 0x2470 JUMP JUMPDEST PUSH1 0x40 MLOAD DUP1 SWAP2 SUB SWAP1 REVERT JUMPDEST PUSH0 PUSH20 0xFFFFFFFFFFFFFFFFFFFFFFFFFFFFFFFFFFFFFFFF AND DUP3 PUSH20 0xFFFFFFFFFFFFFFFFFFFFFFFFFFFFFFFFFFFFFFFF AND SUB PUSH2 0x1860 JUMPI PUSH0 PUSH1 0x40 MLOAD PUSH32 0xEC442F0500000000000000000000000000000000000000000000000000000000 DUP2 MSTORE PUSH1 0x4 ADD PUSH2 0x1857 SWAP2 SWAP1 PUSH2 0x2470 JUMP JUMPDEST PUSH1 0x40 MLOAD DUP1 SWAP2 SUB SWAP1 REVERT JUMPDEST PUSH2 0x186B DUP4 DUP4 DUP4 PUSH2 0x1D69 JUMP JUMPDEST POP POP POP JUMP JUMPDEST PUSH2 0x1881 DUP2 PUSH2 0x187C PUSH2 0x16D5 JUMP JUMPDEST PUSH2 0x1D79 JUMP JUMPDEST POP JUMP JUMPDEST PUSH0 PUSH2 0x188F DUP4 DUP4 PUSH2 0xD86 JUMP JUMPDEST PUSH2 0x1964 JUMPI PUSH1 0x1 PUSH1 0x6 PUSH0 DUP6 DUP2 MSTORE PUSH1 0x20 ADD SWAP1 DUP2 MSTORE PUSH1 0x20 ADD PUSH0 KECCAK256 PUSH0 ADD PUSH0 DUP5 PUSH20 0xFFFFFFFFFFFFFFFFFFFFFFFFFFFFFFFFFFFFFFFF AND PUSH20 0xFFFFFFFFFFFFFFFFFFFFFFFFFFFFFFFFFFFFFFFF AND DUP2 MSTORE PUSH1 0x20 ADD SWAP1 DUP2 MSTORE PUSH1 0x20 ADD PUSH0 KECCAK256 PUSH0 PUSH2 0x100 EXP DUP2 SLOAD DUP2 PUSH1 0xFF MUL NOT AND SWAP1 DUP4 ISZERO ISZERO MUL OR SWAP1 SSTORE POP PUSH2 0x1901 PUSH2 0x16D5 JUMP JUMPDEST PUSH20 0xFFFFFFFFFFFFFFFFFFFFFFFFFFFFFFFFFFFFFFFF AND DUP3 PUSH20 0xFFFFFFFFFFFFFFFFFFFFFFFFFFFFFFFFFFFFFFFF AND DUP5 PUSH32 0x2F8788117E7EFF1D82E926EC794901D17C78024A50270940304540A733656F0D PUSH1 0x40 MLOAD PUSH1 0x40 MLOAD DUP1 SWAP2 SUB SWAP1 LOG4 PUSH1 0x1 SWAP1 POP PUSH2 0x1968 JUMP JUMPDEST PUSH0 SWAP1 POP JUMPDEST SWAP3 SWAP2 POP POP JUMP JUMPDEST PUSH0 PUSH2 0x1979 DUP4 DUP4 PUSH2 0xD86 JUMP JUMPDEST ISZERO PUSH2 0x1A4E JUMPI PUSH0 PUSH1 0x6 PUSH0 DUP6 DUP2 MSTORE PUSH1 0x20 ADD SWAP1 DUP2 MSTORE PUSH1 0x20 ADD PUSH0 KECCAK256 PUSH0 ADD PUSH0 DUP5 PUSH20 0xFFFFFFFFFFFFFFFFFFFFFFFFFFFFFFFFFFFFFFFF AND PUSH20 0xFFFFFFFFFFFFFFFFFFFFFFFFFFFFFFFFFFFFFFFF AND DUP2 MSTORE PUSH1 0x20 ADD SWAP1 DUP2 MSTORE PUSH1 0x20 ADD PUSH0 KECCAK256 PUSH0 PUSH2 0x100 EXP DUP2 SLOAD DUP2 PUSH1 0xFF MUL NOT AND SWAP1 DUP4 ISZERO ISZERO MUL OR SWAP1 SSTORE POP PUSH2 0x19EB PUSH2 0x16D5 JUMP JUMPDEST PUSH20 0xFFFFFFFFFFFFFFFFFFFFFFFFFFFFFFFFFFFFFFFF AND DUP3 PUSH20 0xFFFFFFFFFFFFFFFFFFFFFFFFFFFFFFFFFFFFFFFF AND DUP5 PUSH32 0xF6391F5C32D9C69D2A47EA670B442974B53935D1EDC7FD64EB21E047A839171B PUSH1 0x40 MLOAD PUSH1 0x40 MLOAD DUP1 SWAP2 SUB SWAP1 LOG4 PUSH1 0x1 SWAP1 POP PUSH2 0x1A52 JUMP JUMPDEST PUSH0 SWAP1 POP JUMPDEST SWAP3 SWAP2 POP POP JUMP JUMPDEST PUSH2 0x1A60 PUSH2 0x1DCA JUMP JUMPDEST PUSH0 PUSH1 0x5 PUSH0 PUSH2 0x100 EXP DUP2 SLOAD DUP2 PUSH1 0xFF MUL NOT AND SWAP1 DUP4 ISZERO ISZERO MUL OR SWAP1 SSTORE POP PUSH32 0x5DB9EE0A495BF2E6FF9C91A7834C1BA4FDD244A5E8AA4E537BD38AEAE4B073AA PUSH2 0x1AA2 PUSH2 0x16D5 JUMP JUMPDEST PUSH1 0x40 MLOAD PUSH2 0x1AAF SWAP2 SWAP1 PUSH2 0x2470 JUMP JUMPDEST PUSH1 0x40 MLOAD DUP1 SWAP2 SUB SWAP1 LOG1 JUMP JUMPDEST PUSH0 PUSH20 0xFFFFFFFFFFFFFFFFFFFFFFFFFFFFFFFFFFFFFFFF AND DUP3 PUSH20 0xFFFFFFFFFFFFFFFFFFFFFFFFFFFFFFFFFFFFFFFF AND SUB PUSH2 0x1B29 JUMPI PUSH0 PUSH1 0x40 MLOAD PUSH32 0x96C6FD1E00000000000000000000000000000000000000000000000000000000 DUP2 MSTORE PUSH1 0x4 ADD PUSH2 0x1B20 SWAP2 SWAP1 PUSH2 0x2470 JUMP JUMPDEST PUSH1 0x40 MLOAD DUP1 SWAP2 SUB SWAP1 REVERT JUMPDEST PUSH2 0x1B34 DUP3 PUSH0 DUP4 PUSH2 0x1D69 JUMP JUMPDEST POP POP JUMP JUMPDEST PUSH2 0x1B40 PUSH2 0x1E0A JUMP JUMPDEST PUSH1 0x1 PUSH1 0x5 PUSH0 PUSH2 0x100 EXP DUP2 SLOAD DUP2 PUSH1 0xFF MUL NOT AND SWAP1 DUP4 ISZERO ISZERO MUL OR SWAP1 SSTORE POP PUSH32 0x62E78CEA01BEE320CD4E420270B5EA74000D11B0C9F74754EBDBFC544B05A258 PUSH2 0x1B83 PUSH2 0x16D5 JUMP JUMPDEST PUSH1 0x40 MLOAD PUSH2 0x1B90 SWAP2 SWAP1 PUSH2 0x2470 JUMP JUMPDEST PUSH1 0x40 MLOAD DUP1 SWAP2 SUB SWAP1 LOG1 JUMP JUMPDEST PUSH0 PUSH20 0xFFFFFFFFFFFFFFFFFFFFFFFFFFFFFFFFFFFFFFFF AND DUP5 PUSH20 0xFFFFFFFFFFFFFFFFFFFFFFFFFFFFFFFFFFFFFFFF AND SUB PUSH2 0x1C0A JUMPI PUSH0 PUSH1 0x40 MLOAD PUSH32 0xE602DF0500000000000000000000000000000000000000000000000000000000 DUP2 MSTORE PUSH1 0x4 ADD PUSH2 0x1C01 SWAP2 SWAP1 PUSH2 0x2470 JUMP JUMPDEST PUSH1 0x40 MLOAD DUP1 SWAP2 SUB SWAP1 REVERT JUMPDEST PUSH0 PUSH20 0xFFFFFFFFFFFFFFFFFFFFFFFFFFFFFFFFFFFFFFFF AND DUP4 PUSH20 0xFFFFFFFFFFFFFFFFFFFFFFFFFFFFFFFFFFFFFFFF AND SUB PUSH2 0x1C7A JUMPI PUSH0 PUSH1 0x40 MLOAD PUSH32 0x94280D6200000000000000000000000000000000000000000000000000000000 DUP2 MSTORE PUSH1 0x4 ADD PUSH2 0x1C71 SWAP2 SWAP1 PUSH2 0x2470 JUMP JUMPDEST PUSH1 0x40 MLOAD DUP1 SWAP2 SUB SWAP1 REVERT JUMPDEST DUP2 PUSH1 0x1 PUSH0 DUP7 PUSH20 0xFFFFFFFFFFFFFFFFFFFFFFFFFFFFFFFFFFFFFFFF AND PUSH20 0xFFFFFFFFFFFFFFFFFFFFFFFFFFFFFFFFFFFFFFFF AND DUP2 MSTORE PUSH1 0x20 ADD SWAP1 DUP2 MSTORE PUSH1 0x20 ADD PUSH0 KECCAK256 PUSH0 DUP6 PUSH20 0xFFFFFFFFFFFFFFFFFFFFFFFFFFFFFFFFFFFFFFFF AND PUSH20 0xFFFFFFFFFFFFFFFFFFFFFFFFFFFFFFFFFFFFFFFF AND DUP2 MSTORE PUSH1 0x20 ADD SWAP1 DUP2 MSTORE PUSH1 0x20 ADD PUSH0 KECCAK256 DUP2 SWAP1 SSTORE POP DUP1 ISZERO PUSH2 0x1D63 JUMPI DUP3 PUSH20 0xFFFFFFFFFFFFFFFFFFFFFFFFFFFFFFFFFFFFFFFF AND DUP5 PUSH20 0xFFFFFFFFFFFFFFFFFFFFFFFFFFFFFFFFFFFFFFFF AND PUSH32 0x8C5BE1E5EBEC7D5BD14F71427D1E84F3DD0314C0F7B2291E5B200AC8C7C3B925 DUP5 PUSH1 0x40 MLOAD PUSH2 0x1D5A SWAP2 SWAP1 PUSH2 0x22D5 JUMP JUMPDEST PUSH1 0x40 MLOAD DUP1 SWAP2 SUB SWAP1 LOG3 JUMPDEST POP POP POP POP JUMP JUMPDEST PUSH2 0x1D74 DUP4 DUP4 DUP4 PUSH2 0x1E4B JUMP JUMPDEST POP POP POP JUMP JUMPDEST PUSH2 0x1D83 DUP3 DUP3 PUSH2 0xD86 JUMP JUMPDEST PUSH2 0x1DC6 JUMPI DUP1 DUP3 PUSH1 0x40 MLOAD PUSH32 0xE2517D3F00000000000000000000000000000000000000000000000000000000 DUP2 MSTORE PUSH1 0x4 ADD PUSH2 0x1DBD SWAP3 SWAP2 SWAP1 PUSH2 0x2C52 JUMP JUMPDEST PUSH1 0x40 MLOAD DUP1 SWAP2 SUB SWAP1 REVERT JUMPDEST POP POP JUMP JUMPDEST PUSH2 0x1DD2 PUSH2 0xA97 JUMP JUMPDEST PUSH2 0x1E08 JUMPI PUSH1 0x40 MLOAD PUSH32 0x8DFC202B00000000000000000000000000000000000000000000000000000000 DUP2 MSTORE PUSH1 0x4 ADD PUSH1 0x40 MLOAD DUP1 SWAP2 SUB SWAP1 REVERT JUMPDEST JUMP JUMPDEST PUSH2 0x1E12 PUSH2 0xA97 JUMP JUMPDEST ISZERO PUSH2 0x1E49 JUMPI PUSH1 0x40 MLOAD PUSH32 0xD93C066500000000000000000000000000000000000000000000000000000000 DUP2 MSTORE PUSH1 0x4 ADD PUSH1 0x40 MLOAD DUP1 SWAP2 SUB SWAP1 REVERT JUMPDEST JUMP JUMPDEST PUSH2 0x1E53 PUSH2 0x1E0A JUMP JUMPDEST PUSH2 0x1E5E DUP4 DUP4 DUP4 PUSH2 0x1E63 JUMP JUMPDEST POP POP POP JUMP JUMPDEST PUSH0 PUSH20 0xFFFFFFFFFFFFFFFFFFFFFFFFFFFFFFFFFFFFFFFF AND DUP4 PUSH20 0xFFFFFFFFFFFFFFFFFFFFFFFFFFFFFFFFFFFFFFFF AND SUB PUSH2 0x1EB3 JUMPI DUP1 PUSH1 0x2 PUSH0 DUP3 DUP3 SLOAD PUSH2 0x1EA7 SWAP2 SWAP1 PUSH2 0x2CA6 JUMP JUMPDEST SWAP3 POP POP DUP2 SWAP1 SSTORE POP PUSH2 0x1F81 JUMP JUMPDEST PUSH0 DUP1 PUSH0 DUP6 PUSH20 0xFFFFFFFFFFFFFFFFFFFFFFFFFFFFFFFFFFFFFFFF AND PUSH20 0xFFFFFFFFFFFFFFFFFFFFFFFFFFFFFFFFFFFFFFFF AND DUP2 MSTORE PUSH1 0x20 ADD SWAP1 DUP2 MSTORE PUSH1 0x20 ADD PUSH0 KECCAK256 SLOAD SWAP1 POP DUP2 DUP2 LT ISZERO PUSH2 0x1F3C JUMPI DUP4 DUP2 DUP4 PUSH1 0x40 MLOAD PUSH32 0xE450D38C00000000000000000000000000000000000000000000000000000000 DUP2 MSTORE PUSH1 0x4 ADD PUSH2 0x1F33 SWAP4 SWAP3 SWAP2 SWAP1 PUSH2 0x2C1D JUMP JUMPDEST PUSH1 0x40 MLOAD DUP1 SWAP2 SUB SWAP1 REVERT JUMPDEST DUP2 DUP2 SUB PUSH0 DUP1 DUP7 PUSH20 0xFFFFFFFFFFFFFFFFFFFFFFFFFFFFFFFFFFFFFFFF AND PUSH20 0xFFFFFFFFFFFFFFFFFFFFFFFFFFFFFFFFFFFFFFFF AND DUP2 MSTORE PUSH1 0x20 ADD SWAP1 DUP2 MSTORE PUSH1 0x20 ADD PUSH0 KECCAK256 DUP2 SWAP1 SSTORE POP POP JUMPDEST PUSH0 PUSH20 0xFFFFFFFFFFFFFFFFFFFFFFFFFFFFFFFFFFFFFFFF AND DUP3 PUSH20 0xFFFFFFFFFFFFFFFFFFFFFFFFFFFFFFFFFFFFFFFF AND SUB PUSH2 0x1FC8 JUMPI DUP1 PUSH1 0x2 PUSH0 DUP3 DUP3 SLOAD SUB SWAP3 POP POP DUP2 SWAP1 SSTORE POP PUSH2 0x2012 JUMP JUMPDEST DUP1 PUSH0 DUP1 DUP5 PUSH20 0xFFFFFFFFFFFFFFFFFFFFFFFFFFFFFFFFFFFFFFFF AND PUSH20 0xFFFFFFFFFFFFFFFFFFFFFFFFFFFFFFFFFFFFFFFF AND DUP2 MSTORE PUSH1 0x20 ADD SWAP1 DUP2 MSTORE PUSH1 0x20 ADD PUSH0 KECCAK256 PUSH0 DUP3 DUP3 SLOAD ADD SWAP3 POP POP DUP2 SWAP1 SSTORE POP JUMPDEST DUP2 PUSH20 0xFFFFFFFFFFFFFFFFFFFFFFFFFFFFFFFFFFFFFFFF AND DUP4 PUSH20 0xFFFFFFFFFFFFFFFFFFFFFFFFFFFFFFFFFFFFFFFF AND PUSH32 0xDDF252AD1BE2C89B69C2B068FC378DAA952BA7F163C4A11628F55A4DF523B3EF DUP4 PUSH1 0x40 MLOAD PUSH2 0x206F SWAP2 SWAP1 PUSH2 0x22D5 JUMP JUMPDEST PUSH1 0x40 MLOAD DUP1 SWAP2 SUB SWAP1 LOG3 POP POP POP JUMP JUMPDEST PUSH0 PUSH1 0x40 MLOAD SWAP1 POP SWAP1 JUMP JUMPDEST PUSH0 DUP1 REVERT JUMPDEST PUSH0 DUP1 REVERT JUMPDEST PUSH0 PUSH32 0xFFFFFFFF00000000000000000000000000000000000000000000000000000000 DUP3 AND SWAP1 POP SWAP2 SWAP1 POP JUMP JUMPDEST PUSH2 0x20C1 DUP2 PUSH2 0x208D JUMP JUMPDEST DUP2 EQ PUSH2 0x20CB JUMPI PUSH0 DUP1 REVERT JUMPDEST POP JUMP JUMPDEST PUSH0 DUP2 CALLDATALOAD SWAP1 POP PUSH2 0x20DC DUP2 PUSH2 0x20B8 JUMP JUMPDEST SWAP3 SWAP2 POP POP JUMP JUMPDEST PUSH0 PUSH1 0x20 DUP3 DUP5 SUB SLT ISZERO PUSH2 0x20F7 JUMPI PUSH2 0x20F6 PUSH2 0x2085 JUMP JUMPDEST JUMPDEST PUSH0 PUSH2 0x2104 DUP5 DUP3 DUP6 ADD PUSH2 0x20CE JUMP JUMPDEST SWAP2 POP POP SWAP3 SWAP2 POP POP JUMP JUMPDEST PUSH0 DUP2 ISZERO ISZERO SWAP1 POP SWAP2 SWAP1 POP JUMP JUMPDEST PUSH2 0x2121 DUP2 PUSH2 0x210D JUMP JUMPDEST DUP3 MSTORE POP POP JUMP JUMPDEST PUSH0 PUSH1 0x20 DUP3 ADD SWAP1 POP PUSH2 0x213A PUSH0 DUP4 ADD DUP5 PUSH2 0x2118 JUMP JUMPDEST SWAP3 SWAP2 POP POP JUMP JUMPDEST PUSH0 DUP2 MLOAD SWAP1 POP SWAP2 SWAP1 POP JUMP JUMPDEST PUSH0 DUP3 DUP3 MSTORE PUSH1 0x20 DUP3 ADD SWAP1 POP SWAP3 SWAP2 POP POP JUMP JUMPDEST DUP3 DUP2 DUP4 MCOPY PUSH0 DUP4 DUP4 ADD MSTORE POP POP POP JUMP JUMPDEST PUSH0 PUSH1 0x1F NOT PUSH1 0x1F DUP4 ADD AND SWAP1 POP SWAP2 SWAP1 POP JUMP JUMPDEST PUSH0 PUSH2 0x2182 DUP3 PUSH2 0x2140 JUMP JUMPDEST PUSH2 0x218C DUP2 DUP6 PUSH2 0x214A JUMP JUMPDEST SWAP4 POP PUSH2 0x219C DUP2 DUP6 PUSH1 0x20 DUP7 ADD PUSH2 0x215A JUMP JUMPDEST PUSH2 0x21A5 DUP2 PUSH2 0x2168 JUMP JUMPDEST DUP5 ADD SWAP2 POP POP SWAP3 SWAP2 POP POP JUMP JUMPDEST PUSH0 PUSH1 0x20 DUP3 ADD SWAP1 POP DUP2 DUP2 SUB PUSH0 DUP4 ADD MSTORE PUSH2 0x21C8 DUP2 DUP5 PUSH2 0x2178 JUMP JUMPDEST SWAP1 POP SWAP3 SWAP2 POP POP JUMP JUMPDEST PUSH0 PUSH20 0xFFFFFFFFFFFFFFFFFFFFFFFFFFFFFFFFFFFFFFFF DUP3 AND SWAP1 POP SWAP2 SWAP1 POP JUMP JUMPDEST PUSH0 PUSH2 0x21F9 DUP3 PUSH2 0x21D0 JUMP JUMPDEST SWAP1 POP SWAP2 SWAP1 POP JUMP JUMPDEST PUSH2 0x2209 DUP2 PUSH2 0x21EF JUMP JUMPDEST DUP2 EQ PUSH2 0x2213 JUMPI PUSH0 DUP1 REVERT JUMPDEST POP JUMP JUMPDEST PUSH0 DUP2 CALLDATALOAD SWAP1 POP PUSH2 0x2224 DUP2 PUSH2 0x2200 JUMP JUMPDEST SWAP3 SWAP2 POP POP JUMP JUMPDEST PUSH0 DUP2 SWAP1 POP SWAP2 SWAP1 POP JUMP JUMPDEST PUSH2 0x223C DUP2 PUSH2 0x222A JUMP JUMPDEST DUP2 EQ PUSH2 0x2246 JUMPI PUSH0 DUP1 REVERT JUMPDEST POP JUMP JUMPDEST PUSH0 DUP2 CALLDATALOAD SWAP1 POP PUSH2 0x2257 DUP2 PUSH2 0x2233 JUMP JUMPDEST SWAP3 SWAP2 POP POP JUMP JUMPDEST PUSH0 DUP1 PUSH1 0x40 DUP4 DUP6 SUB SLT ISZERO PUSH2 0x2273 JUMPI PUSH2 0x2272 PUSH2 0x2085 JUMP JUMPDEST JUMPDEST PUSH0 PUSH2 0x2280 DUP6 DUP3 DUP7 ADD PUSH2 0x2216 JUMP JUMPDEST SWAP3 POP POP PUSH1 0x20 PUSH2 0x2291 DUP6 DUP3 DUP7 ADD PUSH2 0x2249 JUMP JUMPDEST SWAP2 POP POP SWAP3 POP SWAP3 SWAP1 POP JUMP JUMPDEST PUSH0 PUSH1 0x20 DUP3 DUP5 SUB SLT ISZERO PUSH2 0x22B0 JUMPI PUSH2 0x22AF PUSH2 0x2085 JUMP JUMPDEST JUMPDEST PUSH0 PUSH2 0x22BD DUP5 DUP3 DUP6 ADD PUSH2 0x2249 JUMP JUMPDEST SWAP2 POP POP SWAP3 SWAP2 POP POP JUMP JUMPDEST PUSH2 0x22CF DUP2 PUSH2 0x222A JUMP JUMPDEST DUP3 MSTORE POP POP JUMP JUMPDEST PUSH0 PUSH1 0x20 DUP3 ADD SWAP1 POP PUSH2 0x22E8 PUSH0 DUP4 ADD DUP5 PUSH2 0x22C6 JUMP JUMPDEST SWAP3 SWAP2 POP POP JUMP JUMPDEST PUSH0 DUP1 PUSH0 PUSH1 0x60 DUP5 DUP7 SUB SLT ISZERO PUSH2 0x2305 JUMPI PUSH2 0x2304 PUSH2 0x2085 JUMP JUMPDEST JUMPDEST PUSH0 PUSH2 0x2312 DUP7 DUP3 DUP8 ADD PUSH2 0x2216 JUMP JUMPDEST SWAP4 POP POP PUSH1 0x20 PUSH2 0x2323 DUP7 DUP3 DUP8 ADD PUSH2 0x2216 JUMP JUMPDEST SWAP3 POP POP PUSH1 0x40 PUSH2 0x2334 DUP7 DUP3 DUP8 ADD PUSH2 0x2249 JUMP JUMPDEST SWAP2 POP POP SWAP3 POP SWAP3 POP SWAP3 JUMP JUMPDEST PUSH0 DUP2 SWAP1 POP SWAP2 SWAP1 POP JUMP JUMPDEST PUSH2 0x2350 DUP2 PUSH2 0x233E JUMP JUMPDEST DUP2 EQ PUSH2 0x235A JUMPI PUSH0 DUP1 REVERT JUMPDEST POP JUMP JUMPDEST PUSH0 DUP2 CALLDATALOAD SWAP1 POP PUSH2 0x236B DUP2 PUSH2 0x2347 JUMP JUMPDEST SWAP3 SWAP2 POP POP JUMP JUMPDEST PUSH0 PUSH1 0x20 DUP3 DUP5 SUB SLT ISZERO PUSH2 0x2386 JUMPI PUSH2 0x2385 PUSH2 0x2085 JUMP JUMPDEST JUMPDEST PUSH0 PUSH2 0x2393 DUP5 DUP3 DUP6 ADD PUSH2 0x235D JUMP JUMPDEST SWAP2 POP POP SWAP3 SWAP2 POP POP JUMP JUMPDEST PUSH2 0x23A5 DUP2 PUSH2 0x233E JUMP JUMPDEST DUP3 MSTORE POP POP JUMP JUMPDEST PUSH0 PUSH1 0x20 DUP3 ADD SWAP1 POP PUSH2 0x23BE PUSH0 DUP4 ADD DUP5 PUSH2 0x239C JUMP JUMPDEST SWAP3 SWAP2 POP POP JUMP JUMPDEST PUSH0 DUP1 PUSH1 0x40 DUP4 DUP6 SUB SLT ISZERO PUSH2 0x23DA JUMPI PUSH2 0x23D9 PUSH2 0x2085 JUMP JUMPDEST JUMPDEST PUSH0 PUSH2 0x23E7 DUP6 DUP3 DUP7 ADD PUSH2 0x235D JUMP JUMPDEST SWAP3 POP POP PUSH1 0x20 PUSH2 0x23F8 DUP6 DUP3 DUP7 ADD PUSH2 0x2216 JUMP JUMPDEST SWAP2 POP POP SWAP3 POP SWAP3 SWAP1 POP JUMP JUMPDEST PUSH0 PUSH1 0xFF DUP3 AND SWAP1 POP SWAP2 SWAP1 POP JUMP JUMPDEST PUSH2 0x2417 DUP2 PUSH2 0x2402 JUMP JUMPDEST DUP3 MSTORE POP POP JUMP JUMPDEST PUSH0 PUSH1 0x20 DUP3 ADD SWAP1 POP PUSH2 0x2430 PUSH0 DUP4 ADD DUP5 PUSH2 0x240E JUMP JUMPDEST SWAP3 SWAP2 POP POP JUMP JUMPDEST PUSH0 PUSH1 0x20 DUP3 DUP5 SUB SLT ISZERO PUSH2 0x244B JUMPI PUSH2 0x244A PUSH2 0x2085 JUMP JUMPDEST JUMPDEST PUSH0 PUSH2 0x2458 DUP5 DUP3 DUP6 ADD PUSH2 0x2216 JUMP JUMPDEST SWAP2 POP POP SWAP3 SWAP2 POP POP JUMP JUMPDEST PUSH2 0x246A DUP2 PUSH2 0x21EF JUMP JUMPDEST DUP3 MSTORE POP POP JUMP JUMPDEST PUSH0 PUSH1 0x20 DUP3 ADD SWAP1 POP PUSH2 0x2483 PUSH0 DUP4 ADD DUP5 PUSH2 0x2461 JUMP JUMPDEST SWAP3 SWAP2 POP POP JUMP JUMPDEST PUSH0 DUP1 REVERT JUMPDEST PUSH32 0x4E487B7100000000000000000000000000000000000000000000000000000000 PUSH0 MSTORE PUSH1 0x41 PUSH1 0x4 MSTORE PUSH1 0x24 PUSH0 REVERT JUMPDEST PUSH2 0x24C3 DUP3 PUSH2 0x2168 JUMP JUMPDEST DUP2 ADD DUP2 DUP2 LT PUSH8 0xFFFFFFFFFFFFFFFF DUP3 GT OR ISZERO PUSH2 0x24E2 JUMPI PUSH2 0x24E1 PUSH2 0x248D JUMP JUMPDEST JUMPDEST DUP1 PUSH1 0x40 MSTORE POP POP POP JUMP JUMPDEST PUSH0 PUSH2 0x24F4 PUSH2 0x207C JUMP JUMPDEST SWAP1 POP PUSH2 0x2500 DUP3 DUP3 PUSH2 0x24BA JUMP JUMPDEST SWAP2 SWAP1 POP JUMP JUMPDEST PUSH0 PUSH8 0xFFFFFFFFFFFFFFFF DUP3 GT ISZERO PUSH2 0x251F JUMPI PUSH2 0x251E PUSH2 0x248D JUMP JUMPDEST JUMPDEST PUSH1 0x20 DUP3 MUL SWAP1 POP PUSH1 0x20 DUP2 ADD SWAP1 POP SWAP2 SWAP1 POP JUMP JUMPDEST PUSH0 DUP1 REVERT JUMPDEST PUSH0 PUSH2 0x2546 PUSH2 0x2541 DUP5 PUSH2 0x2505 JUMP JUMPDEST PUSH2 0x24EB JUMP JUMPDEST SWAP1 POP DUP1 DUP4 DUP3 MSTORE PUSH1 0x20 DUP3 ADD SWAP1 POP PUSH1 0x20 DUP5 MUL DUP4 ADD DUP6 DUP2 GT ISZERO PUSH2 0x2569 JUMPI PUSH2 0x2568 PUSH2 0x2530 JUMP JUMPDEST JUMPDEST DUP4 JUMPDEST DUP2 DUP2 LT ISZERO PUSH2 0x2592 JUMPI DUP1 PUSH2 0x257E DUP9 DUP3 PUSH2 0x2216 JUMP JUMPDEST DUP5 MSTORE PUSH1 0x20 DUP5 ADD SWAP4 POP POP PUSH1 0x20 DUP2 ADD SWAP1 POP PUSH2 0x256B JUMP JUMPDEST POP POP POP SWAP4 SWAP3 POP POP POP JUMP JUMPDEST PUSH0 DUP3 PUSH1 0x1F DUP4 ADD SLT PUSH2 0x25B0 JUMPI PUSH2 0x25AF PUSH2 0x2489 JUMP JUMPDEST JUMPDEST DUP2 CALLDATALOAD PUSH2 0x25C0 DUP5 DUP3 PUSH1 0x20 DUP7 ADD PUSH2 0x2534 JUMP JUMPDEST SWAP2 POP POP SWAP3 SWAP2 POP POP JUMP JUMPDEST PUSH0 PUSH8 0xFFFFFFFFFFFFFFFF DUP3 GT ISZERO PUSH2 0x25E3 JUMPI PUSH2 0x25E2 PUSH2 0x248D JUMP JUMPDEST JUMPDEST PUSH1 0x20 DUP3 MUL SWAP1 POP PUSH1 0x20 DUP2 ADD SWAP1 POP SWAP2 SWAP1 POP JUMP JUMPDEST PUSH0 PUSH2 0x2606 PUSH2 0x2601 DUP5 PUSH2 0x25C9 JUMP JUMPDEST PUSH2 0x24EB JUMP JUMPDEST SWAP1 POP DUP1 DUP4 DUP3 MSTORE PUSH1 0x20 DUP3 ADD SWAP1 POP PUSH1 0x20 DUP5 MUL DUP4 ADD DUP6 DUP2 GT ISZERO PUSH2 0x2629 JUMPI PUSH2 0x2628 PUSH2 0x2530 JUMP JUMPDEST JUMPDEST DUP4 JUMPDEST DUP2 DUP2 LT ISZERO PUSH2 0x2652 JUMPI DUP1 PUSH2 0x263E DUP9 DUP3 PUSH2 0x2249 JUMP JUMPDEST DUP5 MSTORE PUSH1 0x20 DUP5 ADD SWAP4 POP POP PUSH1 0x20 DUP2 ADD SWAP1 POP PUSH2 0x262B JUMP JUMPDEST POP POP POP SWAP4 SWAP3 POP POP POP JUMP JUMPDEST PUSH0 DUP3 PUSH1 0x1F DUP4 ADD SLT PUSH2 0x2670 JUMPI PUSH2 0x266F PUSH2 0x2489 JUMP JUMPDEST JUMPDEST DUP2 CALLDATALOAD PUSH2 0x2680 DUP5 DUP3 PUSH1 0x20 DUP7 ADD PUSH2 0x25F4 JUMP JUMPDEST SWAP2 POP POP SWAP3 SWAP2 POP POP JUMP JUMPDEST PUSH0 DUP1 PUSH1 0x40 DUP4 DUP6 SUB SLT ISZERO PUSH2 0x269F JUMPI PUSH2 0x269E PUSH2 0x2085 JUMP JUMPDEST JUMPDEST PUSH0 DUP4 ADD CALLDATALOAD PUSH8 0xFFFFFFFFFFFFFFFF DUP2 GT ISZERO PUSH2 0x26BC JUMPI PUSH2 0x26BB PUSH2 0x2089 JUMP JUMPDEST JUMPDEST PUSH2 0x26C8 DUP6 DUP3 DUP7 ADD PUSH2 0x259C JUMP JUMPDEST SWAP3 POP POP PUSH1 0x20 DUP4 ADD CALLDATALOAD PUSH8 0xFFFFFFFFFFFFFFFF DUP2 GT ISZERO PUSH2 0x26E9 JUMPI PUSH2 0x26E8 PUSH2 0x2089 JUMP JUMPDEST JUMPDEST PUSH2 0x26F5 DUP6 DUP3 DUP7 ADD PUSH2 0x265C JUMP JUMPDEST SWAP2 POP POP SWAP3 POP SWAP3 SWAP1 POP JUMP JUMPDEST PUSH0 DUP1 PUSH1 0x40 DUP4 DUP6 SUB SLT ISZERO PUSH2 0x2715 JUMPI PUSH2 0x2714 PUSH2 0x2085 JUMP JUMPDEST JUMPDEST PUSH0 PUSH2 0x2722 DUP6 DUP3 DUP7 ADD PUSH2 0x2216 JUMP JUMPDEST SWAP3 POP POP PUSH1 0x20 PUSH2 0x2733 DUP6 DUP3 DUP7 ADD PUSH2 0x2216 JUMP JUMPDEST SWAP2 POP POP SWAP3 POP SWAP3 SWAP1 POP JUMP JUMPDEST PUSH32 0x4E487B7100000000000000000000000000000000000000000000000000000000 PUSH0 MSTORE PUSH1 0x22 PUSH1 0x4 MSTORE PUSH1 0x24 PUSH0 REVERT JUMPDEST PUSH0 PUSH1 0x2 DUP3 DIV SWAP1 POP PUSH1 0x1 DUP3 AND DUP1 PUSH2 0x2781 JUMPI PUSH1 0x7F DUP3 AND SWAP2 POP JUMPDEST PUSH1 0x20 DUP3 LT DUP2 SUB PUSH2 0x2794 JUMPI PUSH2 0x2793 PUSH2 0x273D JUMP JUMPDEST JUMPDEST POP SWAP2 SWAP1 POP JUMP JUMPDEST PUSH0 PUSH1 0x60 DUP3 ADD SWAP1 POP PUSH2 0x27AD PUSH0 DUP4 ADD DUP7 PUSH2 0x2461 JUMP JUMPDEST PUSH2 0x27BA PUSH1 0x20 DUP4 ADD DUP6 PUSH2 0x2461 JUMP JUMPDEST PUSH2 0x27C7 PUSH1 0x40 DUP4 ADD DUP5 PUSH2 0x22C6 JUMP JUMPDEST SWAP5 SWAP4 POP POP POP POP JUMP JUMPDEST PUSH2 0x27D8 DUP2 PUSH2 0x210D JUMP JUMPDEST DUP2 EQ PUSH2 0x27E2 JUMPI PUSH0 DUP1 REVERT JUMPDEST POP JUMP JUMPDEST PUSH0 DUP2 MLOAD SWAP1 POP PUSH2 0x27F3 DUP2 PUSH2 0x27CF JUMP JUMPDEST SWAP3 SWAP2 POP POP JUMP JUMPDEST PUSH0 PUSH1 0x20 DUP3 DUP5 SUB SLT ISZERO PUSH2 0x280E JUMPI PUSH2 0x280D PUSH2 0x2085 JUMP JUMPDEST JUMPDEST PUSH0 PUSH2 0x281B DUP5 DUP3 DUP6 ADD PUSH2 0x27E5 JUMP JUMPDEST SWAP2 POP POP SWAP3 SWAP2 POP POP JUMP JUMPDEST PUSH32 0x537461626C6520636F696E207472616E73666572206661696C65640000000000 PUSH0 DUP3 ADD MSTORE POP JUMP JUMPDEST PUSH0 PUSH2 0x2858 PUSH1 0x1B DUP4 PUSH2 0x214A JUMP JUMPDEST SWAP2 POP PUSH2 0x2863 DUP3 PUSH2 0x2824 JUMP JUMPDEST PUSH1 0x20 DUP3 ADD SWAP1 POP SWAP2 SWAP1 POP JUMP JUMPDEST PUSH0 PUSH1 0x20 DUP3 ADD SWAP1 POP DUP2 DUP2 SUB PUSH0 DUP4 ADD MSTORE PUSH2 0x2885 DUP2 PUSH2 0x284C JUMP JUMPDEST SWAP1 POP SWAP2 SWAP1 POP JUMP JUMPDEST PUSH0 PUSH1 0x40 DUP3 ADD SWAP1 POP PUSH2 0x289F PUSH0 DUP4 ADD DUP6 PUSH2 0x2461 JUMP JUMPDEST PUSH2 0x28AC PUSH1 0x20 DUP4 ADD DUP5 PUSH2 0x22C6 JUMP JUMPDEST SWAP4 SWAP3 POP POP POP JUMP JUMPDEST PUSH32 0x426F6E6420746F6B656E207472616E73666572206661696C6564000000000000 PUSH0 DUP3 ADD MSTORE POP JUMP JUMPDEST PUSH0 PUSH2 0x28E7 PUSH1 0x1A DUP4 PUSH2 0x214A JUMP JUMPDEST SWAP2 POP PUSH2 0x28F2 DUP3 PUSH2 0x28B3 JUMP JUMPDEST PUSH1 0x20 DUP3 ADD SWAP1 POP SWAP2 SWAP1 POP JUMP JUMPDEST PUSH0 PUSH1 0x20 DUP3 ADD SWAP1 POP DUP2 DUP2 SUB PUSH0 DUP4 ADD MSTORE PUSH2 0x2914 DUP2 PUSH2 0x28DB JUMP JUMPDEST SWAP1 POP SWAP2 SWAP1 POP JUMP JUMPDEST PUSH0 DUP2 MLOAD SWAP1 POP PUSH2 0x2929 DUP2 PUSH2 0x2233 JUMP JUMPDEST SWAP3 SWAP2 POP POP JUMP JUMPDEST PUSH0 PUSH1 0x20 DUP3 DUP5 SUB SLT ISZERO PUSH2 0x2944 JUMPI PUSH2 0x2943 PUSH2 0x2085 JUMP JUMPDEST JUMPDEST PUSH0 PUSH2 0x2951 DUP5 DUP3 DUP6 ADD PUSH2 0x291B JUMP JUMPDEST SWAP2 POP POP SWAP3 SWAP2 POP POP JUMP JUMPDEST PUSH32 0x546F6B656E20686F6C6465727320616E6420616D6F756E7473206C656E677468 PUSH0 DUP3 ADD MSTORE PUSH32 0x206D69736D617463680000000000000000000000000000000000000000000000 PUSH1 0x20 DUP3 ADD MSTORE POP JUMP JUMPDEST PUSH0 PUSH2 0x29B4 PUSH1 0x29 DUP4 PUSH2 0x214A JUMP JUMPDEST SWAP2 POP PUSH2 0x29BF DUP3 PUSH2 0x295A JUMP JUMPDEST PUSH1 0x40 DUP3 ADD SWAP1 POP SWAP2 SWAP1 POP JUMP JUMPDEST PUSH0 PUSH1 0x20 DUP3 ADD SWAP1 POP DUP2 DUP2 SUB PUSH0 DUP4 ADD MSTORE PUSH2 0x29E1 DUP2 PUSH2 0x29A8 JUMP JUMPDEST SWAP1 POP SWAP2 SWAP1 POP JUMP JUMPDEST PUSH32 0x4E487B7100000000000000000000000000000000000000000000000000000000 PUSH0 MSTORE PUSH1 0x32 PUSH1 0x4 MSTORE PUSH1 0x24 PUSH0 REVERT JUMPDEST PUSH32 0x5472616E73666572206661696C65640000000000000000000000000000000000 PUSH0 DUP3 ADD MSTORE POP JUMP JUMPDEST PUSH0 PUSH2 0x2A49 PUSH1 0xF DUP4 PUSH2 0x214A JUMP JUMPDEST SWAP2 POP PUSH2 0x2A54 DUP3 PUSH2 0x2A15 JUMP JUMPDEST PUSH1 0x20 DUP3 ADD SWAP1 POP SWAP2 SWAP1 POP JUMP JUMPDEST PUSH0 PUSH1 0x20 DUP3 ADD SWAP1 POP DUP2 DUP2 SUB PUSH0 DUP4 ADD MSTORE PUSH2 0x2A76 DUP2 PUSH2 0x2A3D JUMP JUMPDEST SWAP1 POP SWAP2 SWAP1 POP JUMP JUMPDEST PUSH32 0x4D61747572697479206E6F742079657420726561636865640000000000000000 PUSH0 DUP3 ADD MSTORE POP JUMP JUMPDEST PUSH0 PUSH2 0x2AB1 PUSH1 0x18 DUP4 PUSH2 0x214A JUMP JUMPDEST SWAP2 POP PUSH2 0x2ABC DUP3 PUSH2 0x2A7D JUMP JUMPDEST PUSH1 0x20 DUP3 ADD SWAP1 POP SWAP2 SWAP1 POP JUMP JUMPDEST PUSH0 PUSH1 0x20 DUP3 ADD SWAP1 POP DUP2 DUP2 SUB PUSH0 DUP4 ADD MSTORE PUSH2 0x2ADE DUP2 PUSH2 0x2AA5 JUMP JUMPDEST SWAP1 POP SWAP2 SWAP1 POP JUMP JUMPDEST PUSH32 0x43616E277420636C61696D207A65726F20636F696E7300000000000000000000 PUSH0 DUP3 ADD MSTORE POP JUMP JUMPDEST PUSH0 PUSH2 0x2B19 PUSH1 0x16 DUP4 PUSH2 0x214A JUMP JUMPDEST SWAP2 POP PUSH2 0x2B24 DUP3 PUSH2 0x2AE5 JUMP JUMPDEST PUSH1 0x20 DUP3 ADD SWAP1 POP SWAP2 SWAP1 POP JUMP JUMPDEST PUSH0 PUSH1 0x20 DUP3 ADD SWAP1 POP DUP2 DUP2 SUB PUSH0 DUP4 ADD MSTORE PUSH2 0x2B46 DUP2 PUSH2 0x2B0D JUMP JUMPDEST SWAP1 POP SWAP2 SWAP1 POP JUMP JUMPDEST PUSH32 0x4E6F20696E766573746F722066756E647320617661696C61626C652E00000000 PUSH0 DUP3 ADD MSTORE POP JUMP JUMPDEST PUSH0 PUSH2 0x2B81 PUSH1 0x1C DUP4 PUSH2 0x214A JUMP JUMPDEST SWAP2 POP PUSH2 0x2B8C DUP3 PUSH2 0x2B4D JUMP JUMPDEST PUSH1 0x20 DUP3 ADD SWAP1 POP SWAP2 SWAP1 POP JUMP JUMPDEST PUSH0 PUSH1 0x20 DUP3 ADD SWAP1 POP DUP2 DUP2 SUB PUSH0 DUP4 ADD MSTORE PUSH2 0x2BAE DUP2 PUSH2 0x2B75 JUMP JUMPDEST SWAP1 POP SWAP2 SWAP1 POP JUMP JUMPDEST PUSH32 0x4661696C656420746F207472616E7366657220737461626C6520636F696E7300 PUSH0 DUP3 ADD MSTORE POP JUMP JUMPDEST PUSH0 PUSH2 0x2BE9 PUSH1 0x1F DUP4 PUSH2 0x214A JUMP JUMPDEST SWAP2 POP PUSH2 0x2BF4 DUP3 PUSH2 0x2BB5 JUMP JUMPDEST PUSH1 0x20 DUP3 ADD SWAP1 POP SWAP2 SWAP1 POP JUMP JUMPDEST PUSH0 PUSH1 0x20 DUP3 ADD SWAP1 POP DUP2 DUP2 SUB PUSH0 DUP4 ADD MSTORE PUSH2 0x2C16 DUP2 PUSH2 0x2BDD JUMP JUMPDEST SWAP1 POP SWAP2 SWAP1 POP JUMP JUMPDEST PUSH0 PUSH1 0x60 DUP3 ADD SWAP1 POP PUSH2 0x2C30 PUSH0 DUP4 ADD DUP7 PUSH2 0x2461 JUMP JUMPDEST PUSH2 0x2C3D PUSH1 0x20 DUP4 ADD DUP6 PUSH2 0x22C6 JUMP JUMPDEST PUSH2 0x2C4A PUSH1 0x40 DUP4 ADD DUP5 PUSH2 0x22C6 JUMP JUMPDEST SWAP5 SWAP4 POP POP POP POP JUMP JUMPDEST PUSH0 PUSH1 0x40 DUP3 ADD SWAP1 POP PUSH2 0x2C65 PUSH0 DUP4 ADD DUP6 PUSH2 0x2461 JUMP JUMPDEST PUSH2 0x2C72 PUSH1 0x20 DUP4 ADD DUP5 PUSH2 0x239C JUMP JUMPDEST SWAP4 SWAP3 POP POP POP JUMP JUMPDEST PUSH32 0x4E487B7100000000000000000000000000000000000000000000000000000000 PUSH0 MSTORE PUSH1 0x11 PUSH1 0x4 MSTORE PUSH1 0x24 PUSH0 REVERT JUMPDEST PUSH0 PUSH2 0x2CB0 DUP3 PUSH2 0x222A JUMP JUMPDEST SWAP2 POP PUSH2 0x2CBB DUP4 PUSH2 0x222A JUMP JUMPDEST SWAP3 POP DUP3 DUP3 ADD SWAP1 POP DUP1 DUP3 GT ISZERO PUSH2 0x2CD3 JUMPI PUSH2 0x2CD2 PUSH2 0x2C79 JUMP JUMPDEST JUMPDEST SWAP3 SWAP2 POP POP JUMP INVALID LOG2 PUSH5 0x6970667358 0x22 SLT KECCAK256 0xF PUSH31 0x65F7206B52C18EAC87858610629E4D35D9AE5049CB7AACF3B4819923F75564 PUSH20 0x6F6C634300081A00330000000000000000000000 "
				},
				"gasEstimates": {
					"creation": {
						"codeDepositCost": "2307000",
						"executionCost": "infinite",
						"totalCost": "infinite"
					},
					"external": {
						"ADMIN()": "437",
						"BOND_ISSUER()": "435",
						"DEFAULT_ADMIN_ROLE()": "441",
						"allowance(address,address)": "infinite",
						"approve(address,uint256)": "infinite",
						"balanceOf(address)": "2918",
						"burn(uint256)": "infinite",
						"burnFrom(address,uint256)": "infinite",
						"buyBond(uint256)": "infinite",
						"claimFaceValue(uint256)": "infinite",
						"claimInvestorFunds()": "infinite",
						"decimals()": "406",
						"distributeInterest(address,uint256)": "infinite",
						"distributeInterestAll(address[],uint256[])": "infinite",
						"getRoleAdmin(bytes32)": "infinite",
						"grantRole(bytes32,address)": "infinite",
						"hasRole(bytes32,address)": "3234",
						"interestToken()": "2619",
						"maturityDate()": "infinite",
						"name()": "infinite",
						"pause()": "infinite",
						"paused()": "2540",
						"renounceRole(bytes32,address)": "infinite",
						"revokeRole(bytes32,address)": "infinite",
						"setInterestToken(address)": "24760",
						"showBondTokens()": "infinite",
						"showInterestTokens()": "infinite",
						"showStableCoins()": "infinite",
						"stableCoin()": "infinite",
						"supportsInterface(bytes4)": "764",
						"symbol()": "infinite",
						"totalSupply()": "2478",
						"transfer(address,uint256)": "infinite",
						"transferFrom(address,address,uint256)": "infinite",
						"unpause()": "infinite"
					},
					"internal": {
						"_update(address,address,uint256)": "infinite"
					}
				},
				"methodIdentifiers": {
					"ADMIN()": "2a0acc6a",
					"BOND_ISSUER()": "e091a39b",
					"DEFAULT_ADMIN_ROLE()": "a217fddf",
					"allowance(address,address)": "dd62ed3e",
					"approve(address,uint256)": "095ea7b3",
					"balanceOf(address)": "70a08231",
					"burn(uint256)": "42966c68",
					"burnFrom(address,uint256)": "79cc6790",
					"buyBond(uint256)": "10002dbd",
					"claimFaceValue(uint256)": "ca19c11c",
					"claimInvestorFunds()": "ced0550f",
					"decimals()": "313ce567",
					"distributeInterest(address,uint256)": "f57d283e",
					"distributeInterestAll(address[],uint256[])": "904835c4",
					"getRoleAdmin(bytes32)": "248a9ca3",
					"grantRole(bytes32,address)": "2f2ff15d",
					"hasRole(bytes32,address)": "91d14854",
					"interestToken()": "764b666c",
					"maturityDate()": "d59624b4",
					"name()": "06fdde03",
					"pause()": "8456cb59",
					"paused()": "5c975abb",
					"renounceRole(bytes32,address)": "36568abe",
					"revokeRole(bytes32,address)": "d547741f",
					"setInterestToken(address)": "94d7cc88",
					"showBondTokens()": "86d71654",
					"showInterestTokens()": "ce4120da",
					"showStableCoins()": "acd17a99",
					"stableCoin()": "992642e5",
					"supportsInterface(bytes4)": "01ffc9a7",
					"symbol()": "95d89b41",
					"totalSupply()": "18160ddd",
					"transfer(address,uint256)": "a9059cbb",
					"transferFrom(address,address,uint256)": "23b872dd",
					"unpause()": "3f4ba83a"
				}
			},
			"storageLayout": {
				"storage": [
					{
						"astId": 538,
						"contract": "contracts/BonDeFiToken.sol:BonDeFiToken",
						"label": "_balances",
						"offset": 0,
						"slot": "0",
						"type": "t_mapping(t_address,t_uint256)"
					},
					{
						"astId": 544,
						"contract": "contracts/BonDeFiToken.sol:BonDeFiToken",
						"label": "_allowances",
						"offset": 0,
						"slot": "1",
						"type": "t_mapping(t_address,t_mapping(t_address,t_uint256))"
					},
					{
						"astId": 546,
						"contract": "contracts/BonDeFiToken.sol:BonDeFiToken",
						"label": "_totalSupply",
						"offset": 0,
						"slot": "2",
						"type": "t_uint256"
					},
					{
						"astId": 548,
						"contract": "contracts/BonDeFiToken.sol:BonDeFiToken",
						"label": "_name",
						"offset": 0,
						"slot": "3",
						"type": "t_string_storage"
					},
					{
						"astId": 550,
						"contract": "contracts/BonDeFiToken.sol:BonDeFiToken",
						"label": "_symbol",
						"offset": 0,
						"slot": "4",
						"type": "t_string_storage"
					},
					{
						"astId": 1253,
						"contract": "contracts/BonDeFiToken.sol:BonDeFiToken",
						"label": "_paused",
						"offset": 0,
						"slot": "5",
						"type": "t_bool"
					},
					{
						"astId": 26,
						"contract": "contracts/BonDeFiToken.sol:BonDeFiToken",
						"label": "_roles",
						"offset": 0,
						"slot": "6",
						"type": "t_mapping(t_bytes32,t_struct(RoleData)21_storage)"
					},
					{
						"astId": 1427,
						"contract": "contracts/BonDeFiToken.sol:BonDeFiToken",
						"label": "interestToken",
						"offset": 0,
						"slot": "7",
						"type": "t_address"
					}
				],
				"types": {
					"t_address": {
						"encoding": "inplace",
						"label": "address",
						"numberOfBytes": "20"
					},
					"t_bool": {
						"encoding": "inplace",
						"label": "bool",
						"numberOfBytes": "1"
					},
					"t_bytes32": {
						"encoding": "inplace",
						"label": "bytes32",
						"numberOfBytes": "32"
					},
					"t_mapping(t_address,t_bool)": {
						"encoding": "mapping",
						"key": "t_address",
						"label": "mapping(address => bool)",
						"numberOfBytes": "32",
						"value": "t_bool"
					},
					"t_mapping(t_address,t_mapping(t_address,t_uint256))": {
						"encoding": "mapping",
						"key": "t_address",
						"label": "mapping(address => mapping(address => uint256))",
						"numberOfBytes": "32",
						"value": "t_mapping(t_address,t_uint256)"
					},
					"t_mapping(t_address,t_uint256)": {
						"encoding": "mapping",
						"key": "t_address",
						"label": "mapping(address => uint256)",
						"numberOfBytes": "32",
						"value": "t_uint256"
					},
					"t_mapping(t_bytes32,t_struct(RoleData)21_storage)": {
						"encoding": "mapping",
						"key": "t_bytes32",
						"label": "mapping(bytes32 => struct AccessControl.RoleData)",
						"numberOfBytes": "32",
						"value": "t_struct(RoleData)21_storage"
					},
					"t_string_storage": {
						"encoding": "bytes",
						"label": "string",
						"numberOfBytes": "32"
					},
					"t_struct(RoleData)21_storage": {
						"encoding": "inplace",
						"label": "struct AccessControl.RoleData",
						"members": [
							{
								"astId": 18,
								"contract": "contracts/BonDeFiToken.sol:BonDeFiToken",
								"label": "hasRole",
								"offset": 0,
								"slot": "0",
								"type": "t_mapping(t_address,t_bool)"
							},
							{
								"astId": 20,
								"contract": "contracts/BonDeFiToken.sol:BonDeFiToken",
								"label": "adminRole",
								"offset": 0,
								"slot": "1",
								"type": "t_bytes32"
							}
						],
						"numberOfBytes": "64"
					},
					"t_uint256": {
						"encoding": "inplace",
						"label": "uint256",
						"numberOfBytes": "32"
					}
				}
			},
			"userdoc": {
				"kind": "user",
				"methods": {},
				"version": 1
			}
		}
	}
}