{
	"contracts/MyToken.sol": {
		"BonDeFiTokenSiemens": {
			"abi": [
				{
					"inputs": [
						{
							"internalType": "address",
							"name": "administrator",
							"type": "address"
						},
						{
							"internalType": "address",
							"name": "bondIssuer",
							"type": "address"
						},
						{
							"internalType": "address",
							"name": "_stableCoin",
							"type": "address"
						},
						{
							"internalType": "address",
							"name": "_interestCoin",
							"type": "address"
						},
						{
							"internalType": "uint256",
							"name": "faceValue",
							"type": "uint256"
						},
						{
							"internalType": "uint256",
							"name": "totalInterest",
							"type": "uint256"
						},
						{
							"internalType": "uint256",
							"name": "interestFrequency",
							"type": "uint256"
						},
						{
							"internalType": "uint256",
							"name": "maturityDate",
							"type": "uint256"
						},
						{
							"internalType": "uint256",
							"name": "_unitSize",
							"type": "uint256"
						}
					],
					"stateMutability": "nonpayable",
					"type": "constructor"
				},
				{
					"inputs": [],
					"name": "AccessControlBadConfirmation",
					"type": "error"
				},
				{
					"inputs": [
						{
							"internalType": "address",
							"name": "account",
							"type": "address"
						},
						{
							"internalType": "bytes32",
							"name": "neededRole",
							"type": "bytes32"
						}
					],
					"name": "AccessControlUnauthorizedAccount",
					"type": "error"
				},
				{
					"inputs": [
						{
							"internalType": "address",
							"name": "spender",
							"type": "address"
						},
						{
							"internalType": "uint256",
							"name": "allowance",
							"type": "uint256"
						},
						{
							"internalType": "uint256",
							"name": "needed",
							"type": "uint256"
						}
					],
					"name": "ERC20InsufficientAllowance",
					"type": "error"
				},
				{
					"inputs": [
						{
							"internalType": "address",
							"name": "sender",
							"type": "address"
						},
						{
							"internalType": "uint256",
							"name": "balance",
							"type": "uint256"
						},
						{
							"internalType": "uint256",
							"name": "needed",
							"type": "uint256"
						}
					],
					"name": "ERC20InsufficientBalance",
					"type": "error"
				},
				{
					"inputs": [
						{
							"internalType": "address",
							"name": "approver",
							"type": "address"
						}
					],
					"name": "ERC20InvalidApprover",
					"type": "error"
				},
				{
					"inputs": [
						{
							"internalType": "address",
							"name": "receiver",
							"type": "address"
						}
					],
					"name": "ERC20InvalidReceiver",
					"type": "error"
				},
				{
					"inputs": [
						{
							"internalType": "address",
							"name": "sender",
							"type": "address"
						}
					],
					"name": "ERC20InvalidSender",
					"type": "error"
				},
				{
					"inputs": [
						{
							"internalType": "address",
							"name": "spender",
							"type": "address"
						}
					],
					"name": "ERC20InvalidSpender",
					"type": "error"
				},
				{
					"inputs": [],
					"name": "EnforcedPause",
					"type": "error"
				},
				{
					"inputs": [],
					"name": "ExpectedPause",
					"type": "error"
				},
				{
					"anonymous": false,
					"inputs": [
						{
							"indexed": true,
							"internalType": "address",
							"name": "owner",
							"type": "address"
						},
						{
							"indexed": true,
							"internalType": "address",
							"name": "spender",
							"type": "address"
						},
						{
							"indexed": false,
							"internalType": "uint256",
							"name": "value",
							"type": "uint256"
						}
					],
					"name": "Approval",
					"type": "event"
				},
				{
					"anonymous": false,
					"inputs": [
						{
							"indexed": false,
							"internalType": "address",
							"name": "account",
							"type": "address"
						}
					],
					"name": "Paused",
					"type": "event"
				},
				{
					"anonymous": false,
					"inputs": [
						{
							"indexed": true,
							"internalType": "bytes32",
							"name": "role",
							"type": "bytes32"
						},
						{
							"indexed": true,
							"internalType": "bytes32",
							"name": "previousAdminRole",
							"type": "bytes32"
						},
						{
							"indexed": true,
							"internalType": "bytes32",
							"name": "newAdminRole",
							"type": "bytes32"
						}
					],
					"name": "RoleAdminChanged",
					"type": "event"
				},
				{
					"anonymous": false,
					"inputs": [
						{
							"indexed": true,
							"internalType": "bytes32",
							"name": "role",
							"type": "bytes32"
						},
						{
							"indexed": true,
							"internalType": "address",
							"name": "account",
							"type": "address"
						},
						{
							"indexed": true,
							"internalType": "address",
							"name": "sender",
							"type": "address"
						}
					],
					"name": "RoleGranted",
					"type": "event"
				},
				{
					"anonymous": false,
					"inputs": [
						{
							"indexed": true,
							"internalType": "bytes32",
							"name": "role",
							"type": "bytes32"
						},
						{
							"indexed": true,
							"internalType": "address",
							"name": "account",
							"type": "address"
						},
						{
							"indexed": true,
							"internalType": "address",
							"name": "sender",
							"type": "address"
						}
					],
					"name": "RoleRevoked",
					"type": "event"
				},
				{
					"anonymous": false,
					"inputs": [
						{
							"indexed": true,
							"internalType": "address",
							"name": "from",
							"type": "address"
						},
						{
							"indexed": true,
							"internalType": "address",
							"name": "to",
							"type": "address"
						},
						{
							"indexed": false,
							"internalType": "uint256",
							"name": "value",
							"type": "uint256"
						}
					],
					"name": "Transfer",
					"type": "event"
				},
				{
					"anonymous": false,
					"inputs": [
						{
							"indexed": false,
							"internalType": "address",
							"name": "account",
							"type": "address"
						}
					],
					"name": "Unpaused",
					"type": "event"
				},
				{
					"inputs": [],
					"name": "ADMIN",
					"outputs": [
						{
							"internalType": "bytes32",
							"name": "",
							"type": "bytes32"
						}
					],
					"stateMutability": "view",
					"type": "function"
				},
				{
					"inputs": [],
					"name": "BOND_ISSUER",
					"outputs": [
						{
							"internalType": "bytes32",
							"name": "",
							"type": "bytes32"
						}
					],
					"stateMutability": "view",
					"type": "function"
				},
				{
					"inputs": [],
					"name": "DEFAULT_ADMIN_ROLE",
					"outputs": [
						{
							"internalType": "bytes32",
							"name": "",
							"type": "bytes32"
						}
					],
					"stateMutability": "view",
					"type": "function"
				},
				{
					"inputs": [
						{
							"internalType": "address",
							"name": "owner",
							"type": "address"
						},
						{
							"internalType": "address",
							"name": "spender",
							"type": "address"
						}
					],
					"name": "allowance",
					"outputs": [
						{
							"internalType": "uint256",
							"name": "",
							"type": "uint256"
						}
					],
					"stateMutability": "view",
					"type": "function"
				},
				{
					"inputs": [
						{
							"internalType": "address",
							"name": "spender",
							"type": "address"
						},
						{
							"internalType": "uint256",
							"name": "value",
							"type": "uint256"
						}
					],
					"name": "approve",
					"outputs": [
						{
							"internalType": "bool",
							"name": "",
							"type": "bool"
						}
					],
					"stateMutability": "nonpayable",
					"type": "function"
				},
				{
					"inputs": [
						{
							"internalType": "address",
							"name": "account",
							"type": "address"
						}
					],
					"name": "balanceOf",
					"outputs": [
						{
							"internalType": "uint256",
							"name": "",
							"type": "uint256"
						}
					],
					"stateMutability": "view",
					"type": "function"
				},
				{
					"inputs": [
						{
							"internalType": "uint256",
							"name": "value",
							"type": "uint256"
						}
					],
					"name": "burn",
					"outputs": [],
					"stateMutability": "nonpayable",
					"type": "function"
				},
				{
					"inputs": [
						{
							"internalType": "address",
							"name": "account",
							"type": "address"
						},
						{
							"internalType": "uint256",
							"name": "value",
							"type": "uint256"
						}
					],
					"name": "burnFrom",
					"outputs": [],
					"stateMutability": "nonpayable",
					"type": "function"
				},
				{
					"inputs": [
						{
							"internalType": "uint256",
							"name": "amountTokens",
							"type": "uint256"
						}
					],
					"name": "buyBond",
					"outputs": [],
					"stateMutability": "nonpayable",
					"type": "function"
				},
				{
					"inputs": [
						{
							"internalType": "uint256",
							"name": "amountTokens",
							"type": "uint256"
						}
					],
					"name": "claimFaceValue",
					"outputs": [],
					"stateMutability": "nonpayable",
					"type": "function"
				},
				{
					"inputs": [],
					"name": "claimInvestorFunds",
					"outputs": [],
					"stateMutability": "nonpayable",
					"type": "function"
				},
				{
					"inputs": [],
					"name": "decimals",
					"outputs": [
						{
							"internalType": "uint8",
							"name": "",
							"type": "uint8"
						}
					],
					"stateMutability": "view",
					"type": "function"
				},
				{
					"inputs": [
						{
							"internalType": "address",
							"name": "tokenHolder",
							"type": "address"
						},
						{
							"internalType": "uint256",
							"name": "amount",
							"type": "uint256"
						}
					],
					"name": "distributeInterest",
					"outputs": [],
					"stateMutability": "nonpayable",
					"type": "function"
				},
				{
					"inputs": [
						{
							"internalType": "address[]",
							"name": "tokenHolders",
							"type": "address[]"
						},
						{
							"internalType": "uint256[]",
							"name": "amounts",
							"type": "uint256[]"
						}
					],
					"name": "distributeInterestAll",
					"outputs": [],
					"stateMutability": "nonpayable",
					"type": "function"
				},
				{
					"inputs": [
						{
							"internalType": "bytes32",
							"name": "role",
							"type": "bytes32"
						}
					],
					"name": "getRoleAdmin",
					"outputs": [
						{
							"internalType": "bytes32",
							"name": "",
							"type": "bytes32"
						}
					],
					"stateMutability": "view",
					"type": "function"
				},
				{
					"inputs": [
						{
							"internalType": "bytes32",
							"name": "role",
							"type": "bytes32"
						},
						{
							"internalType": "address",
							"name": "account",
							"type": "address"
						}
					],
					"name": "grantRole",
					"outputs": [],
					"stateMutability": "nonpayable",
					"type": "function"
				},
				{
					"inputs": [
						{
							"internalType": "bytes32",
							"name": "role",
							"type": "bytes32"
						},
						{
							"internalType": "address",
							"name": "account",
							"type": "address"
						}
					],
					"name": "hasRole",
					"outputs": [
						{
							"internalType": "bool",
							"name": "",
							"type": "bool"
						}
					],
					"stateMutability": "view",
					"type": "function"
				},
				{
					"inputs": [],
					"name": "interestCoin",
					"outputs": [
						{
							"internalType": "address",
							"name": "",
							"type": "address"
						}
					],
					"stateMutability": "view",
					"type": "function"
				},
				{
					"inputs": [],
					"name": "name",
					"outputs": [
						{
							"internalType": "string",
							"name": "",
							"type": "string"
						}
					],
					"stateMutability": "view",
					"type": "function"
				},
				{
					"inputs": [],
					"name": "pause",
					"outputs": [],
					"stateMutability": "nonpayable",
					"type": "function"
				},
				{
					"inputs": [],
					"name": "paused",
					"outputs": [
						{
							"internalType": "bool",
							"name": "",
							"type": "bool"
						}
					],
					"stateMutability": "view",
					"type": "function"
				},
				{
					"inputs": [
						{
							"internalType": "bytes32",
							"name": "role",
							"type": "bytes32"
						},
						{
							"internalType": "address",
							"name": "callerConfirmation",
							"type": "address"
						}
					],
					"name": "renounceRole",
					"outputs": [],
					"stateMutability": "nonpayable",
					"type": "function"
				},
				{
					"inputs": [
						{
							"internalType": "bytes32",
							"name": "role",
							"type": "bytes32"
						},
						{
							"internalType": "address",
							"name": "account",
							"type": "address"
						}
					],
					"name": "revokeRole",
					"outputs": [],
					"stateMutability": "nonpayable",
					"type": "function"
				},
				{
					"inputs": [],
					"name": "stableCoin",
					"outputs": [
						{
							"internalType": "address",
							"name": "",
							"type": "address"
						}
					],
					"stateMutability": "view",
					"type": "function"
				},
				{
					"inputs": [
						{
							"internalType": "bytes4",
							"name": "interfaceId",
							"type": "bytes4"
						}
					],
					"name": "supportsInterface",
					"outputs": [
						{
							"internalType": "bool",
							"name": "",
							"type": "bool"
						}
					],
					"stateMutability": "view",
					"type": "function"
				},
				{
					"inputs": [],
					"name": "symbol",
					"outputs": [
						{
							"internalType": "string",
							"name": "",
							"type": "string"
						}
					],
					"stateMutability": "view",
					"type": "function"
				},
				{
					"inputs": [],
					"name": "totalSupply",
					"outputs": [
						{
							"internalType": "uint256",
							"name": "",
							"type": "uint256"
						}
					],
					"stateMutability": "view",
					"type": "function"
				},
				{
					"inputs": [
						{
							"internalType": "address",
							"name": "to",
							"type": "address"
						},
						{
							"internalType": "uint256",
							"name": "value",
							"type": "uint256"
						}
					],
					"name": "transfer",
					"outputs": [
						{
							"internalType": "bool",
							"name": "",
							"type": "bool"
						}
					],
					"stateMutability": "nonpayable",
					"type": "function"
				},
				{
					"inputs": [
						{
							"internalType": "address",
							"name": "from",
							"type": "address"
						},
						{
							"internalType": "address",
							"name": "to",
							"type": "address"
						},
						{
							"internalType": "uint256",
							"name": "value",
							"type": "uint256"
						}
					],
					"name": "transferFrom",
					"outputs": [
						{
							"internalType": "bool",
							"name": "",
							"type": "bool"
						}
					],
					"stateMutability": "nonpayable",
					"type": "function"
				},
				{
					"inputs": [],
					"name": "unitSize",
					"outputs": [
						{
							"internalType": "uint256",
							"name": "",
							"type": "uint256"
						}
					],
					"stateMutability": "view",
					"type": "function"
				},
				{
					"inputs": [],
					"name": "unpause",
					"outputs": [],
					"stateMutability": "nonpayable",
					"type": "function"
				}
			],
			"devdoc": {
				"errors": {
					"AccessControlBadConfirmation()": [
						{
							"details": "The caller of a function is not the expected one. NOTE: Don't confuse with {AccessControlUnauthorizedAccount}."
						}
					],
					"AccessControlUnauthorizedAccount(address,bytes32)": [
						{
							"details": "The `account` is missing a role."
						}
					],
					"ERC20InsufficientAllowance(address,uint256,uint256)": [
						{
							"details": "Indicates a failure with the `spender`’s `allowance`. Used in transfers.",
							"params": {
								"allowance": "Amount of tokens a `spender` is allowed to operate with.",
								"needed": "Minimum amount required to perform a transfer.",
								"spender": "Address that may be allowed to operate on tokens without being their owner."
							}
						}
					],
					"ERC20InsufficientBalance(address,uint256,uint256)": [
						{
							"details": "Indicates an error related to the current `balance` of a `sender`. Used in transfers.",
							"params": {
								"balance": "Current balance for the interacting account.",
								"needed": "Minimum amount required to perform a transfer.",
								"sender": "Address whose tokens are being transferred."
							}
						}
					],
					"ERC20InvalidApprover(address)": [
						{
							"details": "Indicates a failure with the `approver` of a token to be approved. Used in approvals.",
							"params": {
								"approver": "Address initiating an approval operation."
							}
						}
					],
					"ERC20InvalidReceiver(address)": [
						{
							"details": "Indicates a failure with the token `receiver`. Used in transfers.",
							"params": {
								"receiver": "Address to which tokens are being transferred."
							}
						}
					],
					"ERC20InvalidSender(address)": [
						{
							"details": "Indicates a failure with the token `sender`. Used in transfers.",
							"params": {
								"sender": "Address whose tokens are being transferred."
							}
						}
					],
					"ERC20InvalidSpender(address)": [
						{
							"details": "Indicates a failure with the `spender` to be approved. Used in approvals.",
							"params": {
								"spender": "Address that may be allowed to operate on tokens without being their owner."
							}
						}
					],
					"EnforcedPause()": [
						{
							"details": "The operation failed because the contract is paused."
						}
					],
					"ExpectedPause()": [
						{
							"details": "The operation failed because the contract is not paused."
						}
					]
				},
				"events": {
					"Approval(address,address,uint256)": {
						"details": "Emitted when the allowance of a `spender` for an `owner` is set by a call to {approve}. `value` is the new allowance."
					},
					"Paused(address)": {
						"details": "Emitted when the pause is triggered by `account`."
					},
					"RoleAdminChanged(bytes32,bytes32,bytes32)": {
						"details": "Emitted when `newAdminRole` is set as ``role``'s admin role, replacing `previousAdminRole` `DEFAULT_ADMIN_ROLE` is the starting admin for all roles, despite {RoleAdminChanged} not being emitted signaling this."
					},
					"RoleGranted(bytes32,address,address)": {
						"details": "Emitted when `account` is granted `role`. `sender` is the account that originated the contract call, an admin role bearer except when using {AccessControl-_setupRole}."
					},
					"RoleRevoked(bytes32,address,address)": {
						"details": "Emitted when `account` is revoked `role`. `sender` is the account that originated the contract call:   - if using `revokeRole`, it is the admin role bearer   - if using `renounceRole`, it is the role bearer (i.e. `account`)"
					},
					"Transfer(address,address,uint256)": {
						"details": "Emitted when `value` tokens are moved from one account (`from`) to another (`to`). Note that `value` may be zero."
					},
					"Unpaused(address)": {
						"details": "Emitted when the pause is lifted by `account`."
					}
				},
				"kind": "dev",
				"methods": {
					"allowance(address,address)": {
						"details": "See {IERC20-allowance}."
					},
					"approve(address,uint256)": {
						"details": "See {IERC20-approve}. NOTE: If `value` is the maximum `uint256`, the allowance is not updated on `transferFrom`. This is semantically equivalent to an infinite approval. Requirements: - `spender` cannot be the zero address."
					},
					"balanceOf(address)": {
						"details": "See {IERC20-balanceOf}."
					},
					"burn(uint256)": {
						"details": "Destroys a `value` amount of tokens from the caller. See {ERC20-_burn}."
					},
					"burnFrom(address,uint256)": {
						"details": "Destroys a `value` amount of tokens from `account`, deducting from the caller's allowance. See {ERC20-_burn} and {ERC20-allowance}. Requirements: - the caller must have allowance for ``accounts``'s tokens of at least `value`."
					},
					"decimals()": {
						"details": "Returns the number of decimals used to get its user representation. For example, if `decimals` equals `2`, a balance of `505` tokens should be displayed to a user as `5.05` (`505 / 10 ** 2`). Tokens usually opt for a value of 18, imitating the relationship between Ether and Wei. This is the default value returned by this function, unless it's overridden. NOTE: This information is only used for _display_ purposes: it in no way affects any of the arithmetic of the contract, including {IERC20-balanceOf} and {IERC20-transfer}."
					},
					"getRoleAdmin(bytes32)": {
						"details": "Returns the admin role that controls `role`. See {grantRole} and {revokeRole}. To change a role's admin, use {_setRoleAdmin}."
					},
					"grantRole(bytes32,address)": {
						"details": "Grants `role` to `account`. If `account` had not been already granted `role`, emits a {RoleGranted} event. Requirements: - the caller must have ``role``'s admin role. May emit a {RoleGranted} event."
					},
					"hasRole(bytes32,address)": {
						"details": "Returns `true` if `account` has been granted `role`."
					},
					"name()": {
						"details": "Returns the name of the token."
					},
					"paused()": {
						"details": "Returns true if the contract is paused, and false otherwise."
					},
					"renounceRole(bytes32,address)": {
						"details": "Revokes `role` from the calling account. Roles are often managed via {grantRole} and {revokeRole}: this function's purpose is to provide a mechanism for accounts to lose their privileges if they are compromised (such as when a trusted device is misplaced). If the calling account had been revoked `role`, emits a {RoleRevoked} event. Requirements: - the caller must be `callerConfirmation`. May emit a {RoleRevoked} event."
					},
					"revokeRole(bytes32,address)": {
						"details": "Revokes `role` from `account`. If `account` had been granted `role`, emits a {RoleRevoked} event. Requirements: - the caller must have ``role``'s admin role. May emit a {RoleRevoked} event."
					},
					"supportsInterface(bytes4)": {
						"details": "See {IERC165-supportsInterface}."
					},
					"symbol()": {
						"details": "Returns the symbol of the token, usually a shorter version of the name."
					},
					"totalSupply()": {
						"details": "See {IERC20-totalSupply}."
					},
					"transfer(address,uint256)": {
						"details": "See {IERC20-transfer}. Requirements: - `to` cannot be the zero address. - the caller must have a balance of at least `value`."
					},
					"transferFrom(address,address,uint256)": {
						"details": "See {IERC20-transferFrom}. Emits an {Approval} event indicating the updated allowance. This is not required by the EIP. See the note at the beginning of {ERC20}. NOTE: Does not update the allowance if the current allowance is the maximum `uint256`. Requirements: - `from` and `to` cannot be the zero address. - `from` must have a balance of at least `value`. - the caller must have allowance for ``from``'s tokens of at least `value`."
					}
				},
				"version": 1
			},
			"evm": {
				"assembly": "    /* \"contracts/MyToken.sol\":373:3232  contract BonDeFiTokenSiemens is ERC20, ERC20Burnable, ERC20Pausable, AccessControl {... */\n  mstore(0x40, 0xe0)\n    /* \"contracts/MyToken.sol\":709:1241  constructor(address administrator, address bondIssuer, address _stableCoin,address _interestCoin, uint256 faceValue,... */\n  callvalue\n  dup1\n  iszero\n  tag_1\n  jumpi\n  0x00\n  dup1\n  revert\ntag_1:\n  pop\n  mload(0x40)\n  sub(codesize, bytecodeSize)\n  dup1\n  bytecodeSize\n  dup4\n  codecopy\n  dup2\n  dup2\n  add\n  0x40\n  mstore\n  dup2\n  add\n  swap1\n  tag_2\n  swap2\n  swap1\n  tag_3\n  jump\t// in\ntag_2:\n    /* \"@openzeppelin/contracts/token/ERC20/ERC20.sol\":1896:2009  constructor(string memory name_, string memory symbol_) {... */\n  mload(0x40)\n  dup1\n  0x40\n  add\n  0x40\n  mstore\n  dup1\n  0x15\n  dup2\n  mstore\n  0x20\n  add\n  0x426f6e4465466920546f6b656e205369656d656e730000000000000000000000\n  dup2\n  mstore\n  pop\n  mload(0x40)\n  dup1\n  0x40\n  add\n  0x40\n  mstore\n  dup1\n  0x06\n  dup2\n  mstore\n  0x20\n  add\n  0x42445349454d0000000000000000000000000000000000000000000000000000\n  dup2\n  mstore\n  pop\n    /* \"@openzeppelin/contracts/token/ERC20/ERC20.sol\":1970:1975  name_ */\n  dup2\n    /* \"@openzeppelin/contracts/token/ERC20/ERC20.sol\":1962:1967  _name */\n  0x03\n    /* \"@openzeppelin/contracts/token/ERC20/ERC20.sol\":1962:1975  _name = name_ */\n  swap1\n  dup2\n  tag_8\n  swap2\n  swap1\n  tag_9\n  jump\t// in\ntag_8:\n  pop\n    /* \"@openzeppelin/contracts/token/ERC20/ERC20.sol\":1995:2002  symbol_ */\n  dup1\n    /* \"@openzeppelin/contracts/token/ERC20/ERC20.sol\":1985:1992  _symbol */\n  0x04\n    /* \"@openzeppelin/contracts/token/ERC20/ERC20.sol\":1985:2002  _symbol = symbol_ */\n  swap1\n  dup2\n  tag_10\n  swap2\n  swap1\n  tag_9\n  jump\t// in\ntag_10:\n  pop\n    /* \"@openzeppelin/contracts/token/ERC20/ERC20.sol\":1896:2009  constructor(string memory name_, string memory symbol_) {... */\n  pop\n  pop\n    /* \"@openzeppelin/contracts/utils/Pausable.sol\":1241:1246  false */\n  0x00\n    /* \"@openzeppelin/contracts/utils/Pausable.sol\":1231:1238  _paused */\n  0x05\n  0x00\n    /* \"@openzeppelin/contracts/utils/Pausable.sol\":1231:1246  _paused = false */\n  0x0100\n  exp\n  dup2\n  sload\n  dup2\n  0xff\n  mul\n  not\n  and\n  swap1\n  dup4\n  iszero\n  iszero\n  mul\n  or\n  swap1\n  sstore\n  pop\n    /* \"contracts/MyToken.sol\":984:1016  _grantRole(ADMIN, administrator) */\n  tag_13\n    /* \"contracts/MyToken.sol\":494:512  keccak256(\"ADMIN\") */\n  0xdf8b4c520ffe197c5343c6f5aec59570151ef9a492f2c624fd45ddde6135ec42\n    /* \"contracts/MyToken.sol\":1002:1015  administrator */\n  dup11\n    /* \"contracts/MyToken.sol\":984:994  _grantRole */\n  shl(0x20, tag_14)\n    /* \"contracts/MyToken.sol\":984:1016  _grantRole(ADMIN, administrator) */\n  0x20\n  shr\n  jump\t// in\ntag_13:\n  pop\n    /* \"contracts/MyToken.sol\":1026:1061  _grantRole(BOND_ISSUER, bondIssuer) */\n  tag_15\n    /* \"contracts/MyToken.sol\":556:580  keccak256(\"BOND_ISSUER\") */\n  0xf877234297ef562d54f0328f892acfc1d6c1e44ca89f02e3a2c2a4736f6095b7\n    /* \"contracts/MyToken.sol\":1050:1060  bondIssuer */\n  dup10\n    /* \"contracts/MyToken.sol\":1026:1036  _grantRole */\n  shl(0x20, tag_14)\n    /* \"contracts/MyToken.sol\":1026:1061  _grantRole(BOND_ISSUER, bondIssuer) */\n  0x20\n  shr\n  jump\t// in\ntag_15:\n  pop\n    /* \"contracts/MyToken.sol\":1084:1095  _stableCoin */\n  dup7\n    /* \"contracts/MyToken.sol\":1071:1095  stableCoin = _stableCoin */\n  0xffffffffffffffffffffffffffffffffffffffff\n  and\n  0x80\n  dup2\n  0xffffffffffffffffffffffffffffffffffffffff\n  and\n  dup2\n  mstore\n  pop\n  pop\n    /* \"contracts/MyToken.sol\":1120:1133  _interestCoin */\n  dup6\n    /* \"contracts/MyToken.sol\":1105:1133  interestCoin = _interestCoin */\n  0xffffffffffffffffffffffffffffffffffffffff\n  and\n  0xa0\n  dup2\n  0xffffffffffffffffffffffffffffffffffffffff\n  and\n  dup2\n  mstore\n  pop\n  pop\n    /* \"contracts/MyToken.sol\":1154:1163  _unitSize */\n  dup1\n    /* \"contracts/MyToken.sol\":1143:1163  unitSize = _unitSize */\n  0xc0\n  dup2\n  dup2\n  mstore\n  pop\n  pop\n    /* \"contracts/MyToken.sol\":1173:1234  _mint(msg.sender, (faceValue / _unitSize) * 10 ** decimals()) */\n  tag_16\n    /* \"contracts/MyToken.sol\":1179:1189  msg.sender */\n  caller\n    /* \"contracts/MyToken.sol\":1223:1233  decimals() */\n  tag_17\n    /* \"contracts/MyToken.sol\":1223:1231  decimals */\n  shl(0x20, tag_18)\n    /* \"contracts/MyToken.sol\":1223:1233  decimals() */\n  0x20\n  shr\n  jump\t// in\ntag_17:\n    /* \"contracts/MyToken.sol\":1217:1219  10 */\n  0x0a\n    /* \"contracts/MyToken.sol\":1217:1233  10 ** decimals() */\n  tag_19\n  swap2\n  swap1\n  tag_20\n  jump\t// in\ntag_19:\n    /* \"contracts/MyToken.sol\":1204:1213  _unitSize */\n  dup4\n    /* \"contracts/MyToken.sol\":1192:1201  faceValue */\n  dup9\n    /* \"contracts/MyToken.sol\":1192:1213  faceValue / _unitSize */\n  tag_21\n  swap2\n  swap1\n  tag_22\n  jump\t// in\ntag_21:\n    /* \"contracts/MyToken.sol\":1191:1233  (faceValue / _unitSize) * 10 ** decimals() */\n  tag_23\n  swap2\n  swap1\n  tag_24\n  jump\t// in\ntag_23:\n    /* \"contracts/MyToken.sol\":1173:1178  _mint */\n  shl(0x20, tag_25)\n    /* \"contracts/MyToken.sol\":1173:1234  _mint(msg.sender, (faceValue / _unitSize) * 10 ** decimals()) */\n  0x20\n  shr\n  jump\t// in\ntag_16:\n    /* \"contracts/MyToken.sol\":709:1241  constructor(address administrator, address bondIssuer, address _stableCoin,address _interestCoin, uint256 faceValue,... */\n  pop\n  pop\n  pop\n  pop\n  pop\n  pop\n  pop\n  pop\n  pop\n    /* \"contracts/MyToken.sol\":373:3232  contract BonDeFiTokenSiemens is ERC20, ERC20Burnable, ERC20Pausable, AccessControl {... */\n  jump(tag_26)\n    /* \"@openzeppelin/contracts/access/AccessControl.sol\":6179:6495  function _grantRole(bytes32 role, address account) internal virtual returns (bool) {... */\ntag_14:\n    /* \"@openzeppelin/contracts/access/AccessControl.sol\":6256:6260  bool */\n  0x00\n    /* \"@openzeppelin/contracts/access/AccessControl.sol\":6277:6299  hasRole(role, account) */\n  tag_28\n    /* \"@openzeppelin/contracts/access/AccessControl.sol\":6285:6289  role */\n  dup4\n    /* \"@openzeppelin/contracts/access/AccessControl.sol\":6291:6298  account */\n  dup4\n    /* \"@openzeppelin/contracts/access/AccessControl.sol\":6277:6284  hasRole */\n  shl(0x20, tag_29)\n    /* \"@openzeppelin/contracts/access/AccessControl.sol\":6277:6299  hasRole(role, account) */\n  0x20\n  shr\n  jump\t// in\ntag_28:\n    /* \"@openzeppelin/contracts/access/AccessControl.sol\":6272:6489  if (!hasRole(role, account)) {... */\n  tag_30\n  jumpi\n    /* \"@openzeppelin/contracts/access/AccessControl.sol\":6347:6351  true */\n  0x01\n    /* \"@openzeppelin/contracts/access/AccessControl.sol\":6315:6321  _roles */\n  0x06\n    /* \"@openzeppelin/contracts/access/AccessControl.sol\":6315:6327  _roles[role] */\n  0x00\n    /* \"@openzeppelin/contracts/access/AccessControl.sol\":6322:6326  role */\n  dup6\n    /* \"@openzeppelin/contracts/access/AccessControl.sol\":6315:6327  _roles[role] */\n  dup2\n  mstore\n  0x20\n  add\n  swap1\n  dup2\n  mstore\n  0x20\n  add\n  0x00\n  keccak256\n    /* \"@openzeppelin/contracts/access/AccessControl.sol\":6315:6335  _roles[role].hasRole */\n  0x00\n  add\n    /* \"@openzeppelin/contracts/access/AccessControl.sol\":6315:6344  _roles[role].hasRole[account] */\n  0x00\n    /* \"@openzeppelin/contracts/access/AccessControl.sol\":6336:6343  account */\n  dup5\n    /* \"@openzeppelin/contracts/access/AccessControl.sol\":6315:6344  _roles[role].hasRole[account] */\n  0xffffffffffffffffffffffffffffffffffffffff\n  and\n  0xffffffffffffffffffffffffffffffffffffffff\n  and\n  dup2\n  mstore\n  0x20\n  add\n  swap1\n  dup2\n  mstore\n  0x20\n  add\n  0x00\n  keccak256\n  0x00\n    /* \"@openzeppelin/contracts/access/AccessControl.sol\":6315:6351  _roles[role].hasRole[account] = true */\n  0x0100\n  exp\n  dup2\n  sload\n  dup2\n  0xff\n  mul\n  not\n  and\n  swap1\n  dup4\n  iszero\n  iszero\n  mul\n  or\n  swap1\n  sstore\n  pop\n    /* \"@openzeppelin/contracts/access/AccessControl.sol\":6397:6409  _msgSender() */\n  tag_31\n    /* \"@openzeppelin/contracts/access/AccessControl.sol\":6397:6407  _msgSender */\n  shl(0x20, tag_32)\n    /* \"@openzeppelin/contracts/access/AccessControl.sol\":6397:6409  _msgSender() */\n  0x20\n  shr\n  jump\t// in\ntag_31:\n    /* \"@openzeppelin/contracts/access/AccessControl.sol\":6370:6410  RoleGranted(role, account, _msgSender()) */\n  0xffffffffffffffffffffffffffffffffffffffff\n  and\n    /* \"@openzeppelin/contracts/access/AccessControl.sol\":6388:6395  account */\n  dup3\n    /* \"@openzeppelin/contracts/access/AccessControl.sol\":6370:6410  RoleGranted(role, account, _msgSender()) */\n  0xffffffffffffffffffffffffffffffffffffffff\n  and\n    /* \"@openzeppelin/contracts/access/AccessControl.sol\":6382:6386  role */\n  dup5\n    /* \"@openzeppelin/contracts/access/AccessControl.sol\":6370:6410  RoleGranted(role, account, _msgSender()) */\n  0x2f8788117e7eff1d82e926ec794901d17c78024a50270940304540a733656f0d\n  mload(0x40)\n  mload(0x40)\n  dup1\n  swap2\n  sub\n  swap1\n  log4\n    /* \"@openzeppelin/contracts/access/AccessControl.sol\":6431:6435  true */\n  0x01\n    /* \"@openzeppelin/contracts/access/AccessControl.sol\":6424:6435  return true */\n  swap1\n  pop\n  jump(tag_27)\n    /* \"@openzeppelin/contracts/access/AccessControl.sol\":6272:6489  if (!hasRole(role, account)) {... */\ntag_30:\n    /* \"@openzeppelin/contracts/access/AccessControl.sol\":6473:6478  false */\n  0x00\n    /* \"@openzeppelin/contracts/access/AccessControl.sol\":6466:6478  return false */\n  swap1\n  pop\n    /* \"@openzeppelin/contracts/access/AccessControl.sol\":6179:6495  function _grantRole(bytes32 role, address account) internal virtual returns (bool) {... */\ntag_27:\n  swap3\n  swap2\n  pop\n  pop\n  jump\t// out\n    /* \"@openzeppelin/contracts/token/ERC20/ERC20.sol\":3002:3084  function decimals() public view virtual returns (uint8) {... */\ntag_18:\n    /* \"@openzeppelin/contracts/token/ERC20/ERC20.sol\":3051:3056  uint8 */\n  0x00\n    /* \"@openzeppelin/contracts/token/ERC20/ERC20.sol\":3075:3077  18 */\n  0x12\n    /* \"@openzeppelin/contracts/token/ERC20/ERC20.sol\":3068:3077  return 18 */\n  swap1\n  pop\n    /* \"@openzeppelin/contracts/token/ERC20/ERC20.sol\":3002:3084  function decimals() public view virtual returns (uint8) {... */\n  swap1\n  jump\t// out\n    /* \"@openzeppelin/contracts/token/ERC20/ERC20.sol\":7721:7929  function _mint(address account, uint256 value) internal {... */\ntag_25:\n    /* \"@openzeppelin/contracts/token/ERC20/ERC20.sol\":7810:7811  0 */\n  0x00\n    /* \"@openzeppelin/contracts/token/ERC20/ERC20.sol\":7791:7812  account == address(0) */\n  0xffffffffffffffffffffffffffffffffffffffff\n  and\n    /* \"@openzeppelin/contracts/token/ERC20/ERC20.sol\":7791:7798  account */\n  dup3\n    /* \"@openzeppelin/contracts/token/ERC20/ERC20.sol\":7791:7812  account == address(0) */\n  0xffffffffffffffffffffffffffffffffffffffff\n  and\n  sub\n    /* \"@openzeppelin/contracts/token/ERC20/ERC20.sol\":7787:7878  if (account == address(0)) {... */\n  tag_36\n  jumpi\n    /* \"@openzeppelin/contracts/token/ERC20/ERC20.sol\":7864:7865  0 */\n  0x00\n    /* \"@openzeppelin/contracts/token/ERC20/ERC20.sol\":7835:7867  ERC20InvalidReceiver(address(0)) */\n  mload(0x40)\n  0xec442f0500000000000000000000000000000000000000000000000000000000\n  dup2\n  mstore\n  0x04\n  add\n  tag_37\n  swap2\n  swap1\n  tag_38\n  jump\t// in\ntag_37:\n  mload(0x40)\n  dup1\n  swap2\n  sub\n  swap1\n  revert\n    /* \"@openzeppelin/contracts/token/ERC20/ERC20.sol\":7787:7878  if (account == address(0)) {... */\ntag_36:\n    /* \"@openzeppelin/contracts/token/ERC20/ERC20.sol\":7887:7922  _update(address(0), account, value) */\n  tag_39\n    /* \"@openzeppelin/contracts/token/ERC20/ERC20.sol\":7903:7904  0 */\n  0x00\n    /* \"@openzeppelin/contracts/token/ERC20/ERC20.sol\":7907:7914  account */\n  dup4\n    /* \"@openzeppelin/contracts/token/ERC20/ERC20.sol\":7916:7921  value */\n  dup4\n    /* \"@openzeppelin/contracts/token/ERC20/ERC20.sol\":7887:7894  _update */\n  shl(0x20, tag_40)\n    /* \"@openzeppelin/contracts/token/ERC20/ERC20.sol\":7887:7922  _update(address(0), account, value) */\n  0x20\n  shr\n  jump\t// in\ntag_39:\n    /* \"@openzeppelin/contracts/token/ERC20/ERC20.sol\":7721:7929  function _mint(address account, uint256 value) internal {... */\n  pop\n  pop\n  jump\t// out\n    /* \"@openzeppelin/contracts/access/AccessControl.sol\":2854:2990  function hasRole(bytes32 role, address account) public view virtual returns (bool) {... */\ntag_29:\n    /* \"@openzeppelin/contracts/access/AccessControl.sol\":2931:2935  bool */\n  0x00\n    /* \"@openzeppelin/contracts/access/AccessControl.sol\":2954:2960  _roles */\n  0x06\n    /* \"@openzeppelin/contracts/access/AccessControl.sol\":2954:2966  _roles[role] */\n  0x00\n    /* \"@openzeppelin/contracts/access/AccessControl.sol\":2961:2965  role */\n  dup5\n    /* \"@openzeppelin/contracts/access/AccessControl.sol\":2954:2966  _roles[role] */\n  dup2\n  mstore\n  0x20\n  add\n  swap1\n  dup2\n  mstore\n  0x20\n  add\n  0x00\n  keccak256\n    /* \"@openzeppelin/contracts/access/AccessControl.sol\":2954:2974  _roles[role].hasRole */\n  0x00\n  add\n    /* \"@openzeppelin/contracts/access/AccessControl.sol\":2954:2983  _roles[role].hasRole[account] */\n  0x00\n    /* \"@openzeppelin/contracts/access/AccessControl.sol\":2975:2982  account */\n  dup4\n    /* \"@openzeppelin/contracts/access/AccessControl.sol\":2954:2983  _roles[role].hasRole[account] */\n  0xffffffffffffffffffffffffffffffffffffffff\n  and\n  0xffffffffffffffffffffffffffffffffffffffff\n  and\n  dup2\n  mstore\n  0x20\n  add\n  swap1\n  dup2\n  mstore\n  0x20\n  add\n  0x00\n  keccak256\n  0x00\n  swap1\n  sload\n  swap1\n  0x0100\n  exp\n  swap1\n  div\n  0xff\n  and\n    /* \"@openzeppelin/contracts/access/AccessControl.sol\":2947:2983  return _roles[role].hasRole[account] */\n  swap1\n  pop\n    /* \"@openzeppelin/contracts/access/AccessControl.sol\":2854:2990  function hasRole(bytes32 role, address account) public view virtual returns (bool) {... */\n  swap3\n  swap2\n  pop\n  pop\n  jump\t// out\n    /* \"@openzeppelin/contracts/utils/Context.sol\":656:752  function _msgSender() internal view virtual returns (address) {... */\ntag_32:\n    /* \"@openzeppelin/contracts/utils/Context.sol\":709:716  address */\n  0x00\n    /* \"@openzeppelin/contracts/utils/Context.sol\":735:745  msg.sender */\n  caller\n    /* \"@openzeppelin/contracts/utils/Context.sol\":728:745  return msg.sender */\n  swap1\n  pop\n    /* \"@openzeppelin/contracts/utils/Context.sol\":656:752  function _msgSender() internal view virtual returns (address) {... */\n  swap1\n  jump\t// out\n    /* \"contracts/MyToken.sol\":3065:3230  function _update(address from, address to, uint256 value)... */\ntag_40:\n    /* \"contracts/MyToken.sol\":3193:3223  super._update(from, to, value) */\n  tag_44\n    /* \"contracts/MyToken.sol\":3207:3211  from */\n  dup4\n    /* \"contracts/MyToken.sol\":3213:3215  to */\n  dup4\n    /* \"contracts/MyToken.sol\":3217:3222  value */\n  dup4\n    /* \"contracts/MyToken.sol\":3193:3206  super._update */\n  shl(0x20, tag_45)\n    /* \"contracts/MyToken.sol\":3193:3223  super._update(from, to, value) */\n  0x20\n  shr\n  jump\t// in\ntag_44:\n    /* \"contracts/MyToken.sol\":3065:3230  function _update(address from, address to, uint256 value)... */\n  pop\n  pop\n  pop\n  jump\t// out\n    /* \"@openzeppelin/contracts/token/ERC20/extensions/ERC20Pausable.sol\":1112:1257  function _update(address from, address to, uint256 value) internal virtual override whenNotPaused {... */\ntag_45:\n    /* \"@openzeppelin/contracts/utils/Pausable.sol\":1474:1493  _requireNotPaused() */\n  tag_47\n    /* \"@openzeppelin/contracts/utils/Pausable.sol\":1474:1491  _requireNotPaused */\n  shl(0x20, tag_48)\n    /* \"@openzeppelin/contracts/utils/Pausable.sol\":1474:1493  _requireNotPaused() */\n  0x20\n  shr\n  jump\t// in\ntag_47:\n    /* \"@openzeppelin/contracts/token/ERC20/extensions/ERC20Pausable.sol\":1220:1250  super._update(from, to, value) */\n  tag_50\n    /* \"@openzeppelin/contracts/token/ERC20/extensions/ERC20Pausable.sol\":1234:1238  from */\n  dup4\n    /* \"@openzeppelin/contracts/token/ERC20/extensions/ERC20Pausable.sol\":1240:1242  to */\n  dup4\n    /* \"@openzeppelin/contracts/token/ERC20/extensions/ERC20Pausable.sol\":1244:1249  value */\n  dup4\n    /* \"@openzeppelin/contracts/token/ERC20/extensions/ERC20Pausable.sol\":1220:1233  super._update */\n  shl(0x20, tag_51)\n    /* \"@openzeppelin/contracts/token/ERC20/extensions/ERC20Pausable.sol\":1220:1250  super._update(from, to, value) */\n  0x20\n  shr\n  jump\t// in\ntag_50:\n    /* \"@openzeppelin/contracts/token/ERC20/extensions/ERC20Pausable.sol\":1112:1257  function _update(address from, address to, uint256 value) internal virtual override whenNotPaused {... */\n  pop\n  pop\n  pop\n  jump\t// out\n    /* \"@openzeppelin/contracts/utils/Pausable.sol\":2002:2130  function _requireNotPaused() internal view virtual {... */\ntag_48:\n    /* \"@openzeppelin/contracts/utils/Pausable.sol\":2067:2075  paused() */\n  tag_53\n    /* \"@openzeppelin/contracts/utils/Pausable.sol\":2067:2073  paused */\n  shl(0x20, tag_54)\n    /* \"@openzeppelin/contracts/utils/Pausable.sol\":2067:2075  paused() */\n  0x20\n  shr\n  jump\t// in\ntag_53:\n    /* \"@openzeppelin/contracts/utils/Pausable.sol\":2063:2124  if (paused()) {... */\n  iszero\n  tag_55\n  jumpi\n    /* \"@openzeppelin/contracts/utils/Pausable.sol\":2098:2113  EnforcedPause() */\n  mload(0x40)\n  0xd93c066500000000000000000000000000000000000000000000000000000000\n  dup2\n  mstore\n  0x04\n  add\n  mload(0x40)\n  dup1\n  swap2\n  sub\n  swap1\n  revert\n    /* \"@openzeppelin/contracts/utils/Pausable.sol\":2063:2124  if (paused()) {... */\ntag_55:\n    /* \"@openzeppelin/contracts/utils/Pausable.sol\":2002:2130  function _requireNotPaused() internal view virtual {... */\n  jump\t// out\n    /* \"@openzeppelin/contracts/token/ERC20/ERC20.sol\":6271:7378  function _update(address from, address to, uint256 value) internal virtual {... */\ntag_51:\n    /* \"@openzeppelin/contracts/token/ERC20/ERC20.sol\":6376:6377  0 */\n  0x00\n    /* \"@openzeppelin/contracts/token/ERC20/ERC20.sol\":6360:6378  from == address(0) */\n  0xffffffffffffffffffffffffffffffffffffffff\n  and\n    /* \"@openzeppelin/contracts/token/ERC20/ERC20.sol\":6360:6364  from */\n  dup4\n    /* \"@openzeppelin/contracts/token/ERC20/ERC20.sol\":6360:6378  from == address(0) */\n  0xffffffffffffffffffffffffffffffffffffffff\n  and\n  sub\n    /* \"@openzeppelin/contracts/token/ERC20/ERC20.sol\":6356:6896  if (from == address(0)) {... */\n  tag_57\n  jumpi\n    /* \"@openzeppelin/contracts/token/ERC20/ERC20.sol\":6512:6517  value */\n  dup1\n    /* \"@openzeppelin/contracts/token/ERC20/ERC20.sol\":6496:6508  _totalSupply */\n  0x02\n  0x00\n    /* \"@openzeppelin/contracts/token/ERC20/ERC20.sol\":6496:6517  _totalSupply += value */\n  dup3\n  dup3\n  sload\n  tag_58\n  swap2\n  swap1\n  tag_59\n  jump\t// in\ntag_58:\n  swap3\n  pop\n  pop\n  dup2\n  swap1\n  sstore\n  pop\n    /* \"@openzeppelin/contracts/token/ERC20/ERC20.sol\":6356:6896  if (from == address(0)) {... */\n  jump(tag_60)\ntag_57:\n    /* \"@openzeppelin/contracts/token/ERC20/ERC20.sol\":6548:6567  uint256 fromBalance */\n  0x00\n    /* \"@openzeppelin/contracts/token/ERC20/ERC20.sol\":6570:6579  _balances */\n  dup1\n    /* \"@openzeppelin/contracts/token/ERC20/ERC20.sol\":6570:6585  _balances[from] */\n  0x00\n    /* \"@openzeppelin/contracts/token/ERC20/ERC20.sol\":6580:6584  from */\n  dup6\n    /* \"@openzeppelin/contracts/token/ERC20/ERC20.sol\":6570:6585  _balances[from] */\n  0xffffffffffffffffffffffffffffffffffffffff\n  and\n  0xffffffffffffffffffffffffffffffffffffffff\n  and\n  dup2\n  mstore\n  0x20\n  add\n  swap1\n  dup2\n  mstore\n  0x20\n  add\n  0x00\n  keccak256\n  sload\n    /* \"@openzeppelin/contracts/token/ERC20/ERC20.sol\":6548:6585  uint256 fromBalance = _balances[from] */\n  swap1\n  pop\n    /* \"@openzeppelin/contracts/token/ERC20/ERC20.sol\":6617:6622  value */\n  dup2\n    /* \"@openzeppelin/contracts/token/ERC20/ERC20.sol\":6603:6614  fromBalance */\n  dup2\n    /* \"@openzeppelin/contracts/token/ERC20/ERC20.sol\":6603:6622  fromBalance < value */\n  lt\n    /* \"@openzeppelin/contracts/token/ERC20/ERC20.sol\":6599:6714  if (fromBalance < value) {... */\n  iszero\n  tag_61\n  jumpi\n    /* \"@openzeppelin/contracts/token/ERC20/ERC20.sol\":6674:6678  from */\n  dup4\n    /* \"@openzeppelin/contracts/token/ERC20/ERC20.sol\":6680:6691  fromBalance */\n  dup2\n    /* \"@openzeppelin/contracts/token/ERC20/ERC20.sol\":6693:6698  value */\n  dup4\n    /* \"@openzeppelin/contracts/token/ERC20/ERC20.sol\":6649:6699  ERC20InsufficientBalance(from, fromBalance, value) */\n  mload(0x40)\n  0xe450d38c00000000000000000000000000000000000000000000000000000000\n  dup2\n  mstore\n  0x04\n  add\n  tag_62\n  swap4\n  swap3\n  swap2\n  swap1\n  tag_63\n  jump\t// in\ntag_62:\n  mload(0x40)\n  dup1\n  swap2\n  sub\n  swap1\n  revert\n    /* \"@openzeppelin/contracts/token/ERC20/ERC20.sol\":6599:6714  if (fromBalance < value) {... */\ntag_61:\n    /* \"@openzeppelin/contracts/token/ERC20/ERC20.sol\":6866:6871  value */\n  dup2\n    /* \"@openzeppelin/contracts/token/ERC20/ERC20.sol\":6852:6863  fromBalance */\n  dup2\n    /* \"@openzeppelin/contracts/token/ERC20/ERC20.sol\":6852:6871  fromBalance - value */\n  sub\n    /* \"@openzeppelin/contracts/token/ERC20/ERC20.sol\":6834:6843  _balances */\n  0x00\n    /* \"@openzeppelin/contracts/token/ERC20/ERC20.sol\":6834:6849  _balances[from] */\n  dup1\n    /* \"@openzeppelin/contracts/token/ERC20/ERC20.sol\":6844:6848  from */\n  dup7\n    /* \"@openzeppelin/contracts/token/ERC20/ERC20.sol\":6834:6849  _balances[from] */\n  0xffffffffffffffffffffffffffffffffffffffff\n  and\n  0xffffffffffffffffffffffffffffffffffffffff\n  and\n  dup2\n  mstore\n  0x20\n  add\n  swap1\n  dup2\n  mstore\n  0x20\n  add\n  0x00\n  keccak256\n    /* \"@openzeppelin/contracts/token/ERC20/ERC20.sol\":6834:6871  _balances[from] = fromBalance - value */\n  dup2\n  swap1\n  sstore\n  pop\n    /* \"@openzeppelin/contracts/token/ERC20/ERC20.sol\":6534:6896  {... */\n  pop\n    /* \"@openzeppelin/contracts/token/ERC20/ERC20.sol\":6356:6896  if (from == address(0)) {... */\ntag_60:\n    /* \"@openzeppelin/contracts/token/ERC20/ERC20.sol\":6924:6925  0 */\n  0x00\n    /* \"@openzeppelin/contracts/token/ERC20/ERC20.sol\":6910:6926  to == address(0) */\n  0xffffffffffffffffffffffffffffffffffffffff\n  and\n    /* \"@openzeppelin/contracts/token/ERC20/ERC20.sol\":6910:6912  to */\n  dup3\n    /* \"@openzeppelin/contracts/token/ERC20/ERC20.sol\":6910:6926  to == address(0) */\n  0xffffffffffffffffffffffffffffffffffffffff\n  and\n  sub\n    /* \"@openzeppelin/contracts/token/ERC20/ERC20.sol\":6906:7331  if (to == address(0)) {... */\n  tag_64\n  jumpi\n    /* \"@openzeppelin/contracts/token/ERC20/ERC20.sol\":7089:7094  value */\n  dup1\n    /* \"@openzeppelin/contracts/token/ERC20/ERC20.sol\":7073:7085  _totalSupply */\n  0x02\n  0x00\n    /* \"@openzeppelin/contracts/token/ERC20/ERC20.sol\":7073:7094  _totalSupply -= value */\n  dup3\n  dup3\n  sload\n  sub\n  swap3\n  pop\n  pop\n  dup2\n  swap1\n  sstore\n  pop\n    /* \"@openzeppelin/contracts/token/ERC20/ERC20.sol\":6906:7331  if (to == address(0)) {... */\n  jump(tag_65)\ntag_64:\n    /* \"@openzeppelin/contracts/token/ERC20/ERC20.sol\":7301:7306  value */\n  dup1\n    /* \"@openzeppelin/contracts/token/ERC20/ERC20.sol\":7284:7293  _balances */\n  0x00\n    /* \"@openzeppelin/contracts/token/ERC20/ERC20.sol\":7284:7297  _balances[to] */\n  dup1\n    /* \"@openzeppelin/contracts/token/ERC20/ERC20.sol\":7294:7296  to */\n  dup5\n    /* \"@openzeppelin/contracts/token/ERC20/ERC20.sol\":7284:7297  _balances[to] */\n  0xffffffffffffffffffffffffffffffffffffffff\n  and\n  0xffffffffffffffffffffffffffffffffffffffff\n  and\n  dup2\n  mstore\n  0x20\n  add\n  swap1\n  dup2\n  mstore\n  0x20\n  add\n  0x00\n  keccak256\n  0x00\n    /* \"@openzeppelin/contracts/token/ERC20/ERC20.sol\":7284:7306  _balances[to] += value */\n  dup3\n  dup3\n  sload\n  add\n  swap3\n  pop\n  pop\n  dup2\n  swap1\n  sstore\n  pop\n    /* \"@openzeppelin/contracts/token/ERC20/ERC20.sol\":6906:7331  if (to == address(0)) {... */\ntag_65:\n    /* \"@openzeppelin/contracts/token/ERC20/ERC20.sol\":7361:7363  to */\n  dup2\n    /* \"@openzeppelin/contracts/token/ERC20/ERC20.sol\":7346:7371  Transfer(from, to, value) */\n  0xffffffffffffffffffffffffffffffffffffffff\n  and\n    /* \"@openzeppelin/contracts/token/ERC20/ERC20.sol\":7355:7359  from */\n  dup4\n    /* \"@openzeppelin/contracts/token/ERC20/ERC20.sol\":7346:7371  Transfer(from, to, value) */\n  0xffffffffffffffffffffffffffffffffffffffff\n  and\n  0xddf252ad1be2c89b69c2b068fc378daa952ba7f163c4a11628f55a4df523b3ef\n    /* \"@openzeppelin/contracts/token/ERC20/ERC20.sol\":7365:7370  value */\n  dup4\n    /* \"@openzeppelin/contracts/token/ERC20/ERC20.sol\":7346:7371  Transfer(from, to, value) */\n  mload(0x40)\n  tag_66\n  swap2\n  swap1\n  tag_67\n  jump\t// in\ntag_66:\n  mload(0x40)\n  dup1\n  swap2\n  sub\n  swap1\n  log3\n    /* \"@openzeppelin/contracts/token/ERC20/ERC20.sol\":6271:7378  function _update(address from, address to, uint256 value) internal virtual {... */\n  pop\n  pop\n  pop\n  jump\t// out\n    /* \"@openzeppelin/contracts/utils/Pausable.sol\":1850:1934  function paused() public view virtual returns (bool) {... */\ntag_54:\n    /* \"@openzeppelin/contracts/utils/Pausable.sol\":1897:1901  bool */\n  0x00\n    /* \"@openzeppelin/contracts/utils/Pausable.sol\":1920:1927  _paused */\n  0x05\n  0x00\n  swap1\n  sload\n  swap1\n  0x0100\n  exp\n  swap1\n  div\n  0xff\n  and\n    /* \"@openzeppelin/contracts/utils/Pausable.sol\":1913:1927  return _paused */\n  swap1\n  pop\n    /* \"@openzeppelin/contracts/utils/Pausable.sol\":1850:1934  function paused() public view virtual returns (bool) {... */\n  swap1\n  jump\t// out\n    /* \"#utility.yul\":88:205   */\ntag_70:\n    /* \"#utility.yul\":197:198   */\n  0x00\n    /* \"#utility.yul\":194:195   */\n  dup1\n    /* \"#utility.yul\":187:199   */\n  revert\n    /* \"#utility.yul\":334:460   */\ntag_72:\n    /* \"#utility.yul\":371:378   */\n  0x00\n    /* \"#utility.yul\":411:453   */\n  0xffffffffffffffffffffffffffffffffffffffff\n    /* \"#utility.yul\":404:409   */\n  dup3\n    /* \"#utility.yul\":400:454   */\n  and\n    /* \"#utility.yul\":389:454   */\n  swap1\n  pop\n    /* \"#utility.yul\":334:460   */\n  swap2\n  swap1\n  pop\n  jump\t// out\n    /* \"#utility.yul\":466:562   */\ntag_73:\n    /* \"#utility.yul\":503:510   */\n  0x00\n    /* \"#utility.yul\":532:556   */\n  tag_112\n    /* \"#utility.yul\":550:555   */\n  dup3\n    /* \"#utility.yul\":532:556   */\n  tag_72\n  jump\t// in\ntag_112:\n    /* \"#utility.yul\":521:556   */\n  swap1\n  pop\n    /* \"#utility.yul\":466:562   */\n  swap2\n  swap1\n  pop\n  jump\t// out\n    /* \"#utility.yul\":568:690   */\ntag_74:\n    /* \"#utility.yul\":641:665   */\n  tag_114\n    /* \"#utility.yul\":659:664   */\n  dup2\n    /* \"#utility.yul\":641:665   */\n  tag_73\n  jump\t// in\ntag_114:\n    /* \"#utility.yul\":634:639   */\n  dup2\n    /* \"#utility.yul\":631:666   */\n  eq\n    /* \"#utility.yul\":621:684   */\n  tag_115\n  jumpi\n    /* \"#utility.yul\":680:681   */\n  0x00\n    /* \"#utility.yul\":677:678   */\n  dup1\n    /* \"#utility.yul\":670:682   */\n  revert\n    /* \"#utility.yul\":621:684   */\ntag_115:\n    /* \"#utility.yul\":568:690   */\n  pop\n  jump\t// out\n    /* \"#utility.yul\":696:839   */\ntag_75:\n    /* \"#utility.yul\":753:758   */\n  0x00\n    /* \"#utility.yul\":784:790   */\n  dup2\n    /* \"#utility.yul\":778:791   */\n  mload\n    /* \"#utility.yul\":769:791   */\n  swap1\n  pop\n    /* \"#utility.yul\":800:833   */\n  tag_117\n    /* \"#utility.yul\":827:832   */\n  dup2\n    /* \"#utility.yul\":800:833   */\n  tag_74\n  jump\t// in\ntag_117:\n    /* \"#utility.yul\":696:839   */\n  swap3\n  swap2\n  pop\n  pop\n  jump\t// out\n    /* \"#utility.yul\":845:922   */\ntag_76:\n    /* \"#utility.yul\":882:889   */\n  0x00\n    /* \"#utility.yul\":911:916   */\n  dup2\n    /* \"#utility.yul\":900:916   */\n  swap1\n  pop\n    /* \"#utility.yul\":845:922   */\n  swap2\n  swap1\n  pop\n  jump\t// out\n    /* \"#utility.yul\":928:1050   */\ntag_77:\n    /* \"#utility.yul\":1001:1025   */\n  tag_120\n    /* \"#utility.yul\":1019:1024   */\n  dup2\n    /* \"#utility.yul\":1001:1025   */\n  tag_76\n  jump\t// in\ntag_120:\n    /* \"#utility.yul\":994:999   */\n  dup2\n    /* \"#utility.yul\":991:1026   */\n  eq\n    /* \"#utility.yul\":981:1044   */\n  tag_121\n  jumpi\n    /* \"#utility.yul\":1040:1041   */\n  0x00\n    /* \"#utility.yul\":1037:1038   */\n  dup1\n    /* \"#utility.yul\":1030:1042   */\n  revert\n    /* \"#utility.yul\":981:1044   */\ntag_121:\n    /* \"#utility.yul\":928:1050   */\n  pop\n  jump\t// out\n    /* \"#utility.yul\":1056:1199   */\ntag_78:\n    /* \"#utility.yul\":1113:1118   */\n  0x00\n    /* \"#utility.yul\":1144:1150   */\n  dup2\n    /* \"#utility.yul\":1138:1151   */\n  mload\n    /* \"#utility.yul\":1129:1151   */\n  swap1\n  pop\n    /* \"#utility.yul\":1160:1193   */\n  tag_123\n    /* \"#utility.yul\":1187:1192   */\n  dup2\n    /* \"#utility.yul\":1160:1193   */\n  tag_77\n  jump\t// in\ntag_123:\n    /* \"#utility.yul\":1056:1199   */\n  swap3\n  swap2\n  pop\n  pop\n  jump\t// out\n    /* \"#utility.yul\":1205:2810   */\ntag_3:\n    /* \"#utility.yul\":1347:1353   */\n  0x00\n    /* \"#utility.yul\":1355:1361   */\n  dup1\n    /* \"#utility.yul\":1363:1369   */\n  0x00\n    /* \"#utility.yul\":1371:1377   */\n  dup1\n    /* \"#utility.yul\":1379:1385   */\n  0x00\n    /* \"#utility.yul\":1387:1393   */\n  dup1\n    /* \"#utility.yul\":1395:1401   */\n  0x00\n    /* \"#utility.yul\":1403:1409   */\n  dup1\n    /* \"#utility.yul\":1411:1417   */\n  0x00\n    /* \"#utility.yul\":1460:1463   */\n  0x0120\n    /* \"#utility.yul\":1448:1457   */\n  dup11\n    /* \"#utility.yul\":1439:1446   */\n  dup13\n    /* \"#utility.yul\":1435:1458   */\n  sub\n    /* \"#utility.yul\":1431:1464   */\n  slt\n    /* \"#utility.yul\":1428:1548   */\n  iszero\n  tag_125\n  jumpi\n    /* \"#utility.yul\":1467:1546   */\n  tag_126\n  tag_70\n  jump\t// in\ntag_126:\n    /* \"#utility.yul\":1428:1548   */\ntag_125:\n    /* \"#utility.yul\":1587:1588   */\n  0x00\n    /* \"#utility.yul\":1612:1676   */\n  tag_127\n    /* \"#utility.yul\":1668:1675   */\n  dup13\n    /* \"#utility.yul\":1659:1665   */\n  dup3\n    /* \"#utility.yul\":1648:1657   */\n  dup14\n    /* \"#utility.yul\":1644:1666   */\n  add\n    /* \"#utility.yul\":1612:1676   */\n  tag_75\n  jump\t// in\ntag_127:\n    /* \"#utility.yul\":1602:1676   */\n  swap10\n  pop\n    /* \"#utility.yul\":1558:1686   */\n  pop\n    /* \"#utility.yul\":1725:1727   */\n  0x20\n    /* \"#utility.yul\":1751:1815   */\n  tag_128\n    /* \"#utility.yul\":1807:1814   */\n  dup13\n    /* \"#utility.yul\":1798:1804   */\n  dup3\n    /* \"#utility.yul\":1787:1796   */\n  dup14\n    /* \"#utility.yul\":1783:1805   */\n  add\n    /* \"#utility.yul\":1751:1815   */\n  tag_75\n  jump\t// in\ntag_128:\n    /* \"#utility.yul\":1741:1815   */\n  swap9\n  pop\n    /* \"#utility.yul\":1696:1825   */\n  pop\n    /* \"#utility.yul\":1864:1866   */\n  0x40\n    /* \"#utility.yul\":1890:1954   */\n  tag_129\n    /* \"#utility.yul\":1946:1953   */\n  dup13\n    /* \"#utility.yul\":1937:1943   */\n  dup3\n    /* \"#utility.yul\":1926:1935   */\n  dup14\n    /* \"#utility.yul\":1922:1944   */\n  add\n    /* \"#utility.yul\":1890:1954   */\n  tag_75\n  jump\t// in\ntag_129:\n    /* \"#utility.yul\":1880:1954   */\n  swap8\n  pop\n    /* \"#utility.yul\":1835:1964   */\n  pop\n    /* \"#utility.yul\":2003:2005   */\n  0x60\n    /* \"#utility.yul\":2029:2093   */\n  tag_130\n    /* \"#utility.yul\":2085:2092   */\n  dup13\n    /* \"#utility.yul\":2076:2082   */\n  dup3\n    /* \"#utility.yul\":2065:2074   */\n  dup14\n    /* \"#utility.yul\":2061:2083   */\n  add\n    /* \"#utility.yul\":2029:2093   */\n  tag_75\n  jump\t// in\ntag_130:\n    /* \"#utility.yul\":2019:2093   */\n  swap7\n  pop\n    /* \"#utility.yul\":1974:2103   */\n  pop\n    /* \"#utility.yul\":2142:2145   */\n  0x80\n    /* \"#utility.yul\":2169:2233   */\n  tag_131\n    /* \"#utility.yul\":2225:2232   */\n  dup13\n    /* \"#utility.yul\":2216:2222   */\n  dup3\n    /* \"#utility.yul\":2205:2214   */\n  dup14\n    /* \"#utility.yul\":2201:2223   */\n  add\n    /* \"#utility.yul\":2169:2233   */\n  tag_78\n  jump\t// in\ntag_131:\n    /* \"#utility.yul\":2159:2233   */\n  swap6\n  pop\n    /* \"#utility.yul\":2113:2243   */\n  pop\n    /* \"#utility.yul\":2282:2285   */\n  0xa0\n    /* \"#utility.yul\":2309:2373   */\n  tag_132\n    /* \"#utility.yul\":2365:2372   */\n  dup13\n    /* \"#utility.yul\":2356:2362   */\n  dup3\n    /* \"#utility.yul\":2345:2354   */\n  dup14\n    /* \"#utility.yul\":2341:2363   */\n  add\n    /* \"#utility.yul\":2309:2373   */\n  tag_78\n  jump\t// in\ntag_132:\n    /* \"#utility.yul\":2299:2373   */\n  swap5\n  pop\n    /* \"#utility.yul\":2253:2383   */\n  pop\n    /* \"#utility.yul\":2422:2425   */\n  0xc0\n    /* \"#utility.yul\":2449:2513   */\n  tag_133\n    /* \"#utility.yul\":2505:2512   */\n  dup13\n    /* \"#utility.yul\":2496:2502   */\n  dup3\n    /* \"#utility.yul\":2485:2494   */\n  dup14\n    /* \"#utility.yul\":2481:2503   */\n  add\n    /* \"#utility.yul\":2449:2513   */\n  tag_78\n  jump\t// in\ntag_133:\n    /* \"#utility.yul\":2439:2513   */\n  swap4\n  pop\n    /* \"#utility.yul\":2393:2523   */\n  pop\n    /* \"#utility.yul\":2562:2565   */\n  0xe0\n    /* \"#utility.yul\":2589:2653   */\n  tag_134\n    /* \"#utility.yul\":2645:2652   */\n  dup13\n    /* \"#utility.yul\":2636:2642   */\n  dup3\n    /* \"#utility.yul\":2625:2634   */\n  dup14\n    /* \"#utility.yul\":2621:2643   */\n  add\n    /* \"#utility.yul\":2589:2653   */\n  tag_78\n  jump\t// in\ntag_134:\n    /* \"#utility.yul\":2579:2653   */\n  swap3\n  pop\n    /* \"#utility.yul\":2533:2663   */\n  pop\n    /* \"#utility.yul\":2702:2705   */\n  0x0100\n    /* \"#utility.yul\":2729:2793   */\n  tag_135\n    /* \"#utility.yul\":2785:2792   */\n  dup13\n    /* \"#utility.yul\":2776:2782   */\n  dup3\n    /* \"#utility.yul\":2765:2774   */\n  dup14\n    /* \"#utility.yul\":2761:2783   */\n  add\n    /* \"#utility.yul\":2729:2793   */\n  tag_78\n  jump\t// in\ntag_135:\n    /* \"#utility.yul\":2719:2793   */\n  swap2\n  pop\n    /* \"#utility.yul\":2673:2803   */\n  pop\n    /* \"#utility.yul\":1205:2810   */\n  swap3\n  swap6\n  swap9\n  pop\n  swap3\n  swap6\n  swap9\n  pop\n  swap3\n  swap6\n  swap9\n  jump\t// out\n    /* \"#utility.yul\":2816:2915   */\ntag_79:\n    /* \"#utility.yul\":2868:2874   */\n  0x00\n    /* \"#utility.yul\":2902:2907   */\n  dup2\n    /* \"#utility.yul\":2896:2908   */\n  mload\n    /* \"#utility.yul\":2886:2908   */\n  swap1\n  pop\n    /* \"#utility.yul\":2816:2915   */\n  swap2\n  swap1\n  pop\n  jump\t// out\n    /* \"#utility.yul\":2921:3101   */\ntag_80:\n    /* \"#utility.yul\":2969:3046   */\n  0x4e487b7100000000000000000000000000000000000000000000000000000000\n    /* \"#utility.yul\":2966:2967   */\n  0x00\n    /* \"#utility.yul\":2959:3047   */\n  mstore\n    /* \"#utility.yul\":3066:3070   */\n  0x41\n    /* \"#utility.yul\":3063:3064   */\n  0x04\n    /* \"#utility.yul\":3056:3071   */\n  mstore\n    /* \"#utility.yul\":3090:3094   */\n  0x24\n    /* \"#utility.yul\":3087:3088   */\n  0x00\n    /* \"#utility.yul\":3080:3095   */\n  revert\n    /* \"#utility.yul\":3107:3287   */\ntag_81:\n    /* \"#utility.yul\":3155:3232   */\n  0x4e487b7100000000000000000000000000000000000000000000000000000000\n    /* \"#utility.yul\":3152:3153   */\n  0x00\n    /* \"#utility.yul\":3145:3233   */\n  mstore\n    /* \"#utility.yul\":3252:3256   */\n  0x22\n    /* \"#utility.yul\":3249:3250   */\n  0x04\n    /* \"#utility.yul\":3242:3257   */\n  mstore\n    /* \"#utility.yul\":3276:3280   */\n  0x24\n    /* \"#utility.yul\":3273:3274   */\n  0x00\n    /* \"#utility.yul\":3266:3281   */\n  revert\n    /* \"#utility.yul\":3293:3613   */\ntag_82:\n    /* \"#utility.yul\":3337:3343   */\n  0x00\n    /* \"#utility.yul\":3374:3375   */\n  0x02\n    /* \"#utility.yul\":3368:3372   */\n  dup3\n    /* \"#utility.yul\":3364:3376   */\n  div\n    /* \"#utility.yul\":3354:3376   */\n  swap1\n  pop\n    /* \"#utility.yul\":3421:3422   */\n  0x01\n    /* \"#utility.yul\":3415:3419   */\n  dup3\n    /* \"#utility.yul\":3411:3423   */\n  and\n    /* \"#utility.yul\":3442:3460   */\n  dup1\n    /* \"#utility.yul\":3432:3513   */\n  tag_140\n  jumpi\n    /* \"#utility.yul\":3498:3502   */\n  0x7f\n    /* \"#utility.yul\":3490:3496   */\n  dup3\n    /* \"#utility.yul\":3486:3503   */\n  and\n    /* \"#utility.yul\":3476:3503   */\n  swap2\n  pop\n    /* \"#utility.yul\":3432:3513   */\ntag_140:\n    /* \"#utility.yul\":3560:3562   */\n  0x20\n    /* \"#utility.yul\":3552:3558   */\n  dup3\n    /* \"#utility.yul\":3549:3563   */\n  lt\n    /* \"#utility.yul\":3529:3547   */\n  dup2\n    /* \"#utility.yul\":3526:3564   */\n  sub\n    /* \"#utility.yul\":3523:3607   */\n  tag_141\n  jumpi\n    /* \"#utility.yul\":3579:3597   */\n  tag_142\n  tag_81\n  jump\t// in\ntag_142:\n    /* \"#utility.yul\":3523:3607   */\ntag_141:\n    /* \"#utility.yul\":3344:3613   */\n  pop\n    /* \"#utility.yul\":3293:3613   */\n  swap2\n  swap1\n  pop\n  jump\t// out\n    /* \"#utility.yul\":3619:3760   */\ntag_83:\n    /* \"#utility.yul\":3668:3672   */\n  0x00\n    /* \"#utility.yul\":3691:3694   */\n  dup2\n    /* \"#utility.yul\":3683:3694   */\n  swap1\n  pop\n    /* \"#utility.yul\":3714:3717   */\n  dup2\n    /* \"#utility.yul\":3711:3712   */\n  0x00\n    /* \"#utility.yul\":3704:3718   */\n  mstore\n    /* \"#utility.yul\":3748:3752   */\n  0x20\n    /* \"#utility.yul\":3745:3746   */\n  0x00\n    /* \"#utility.yul\":3735:3753   */\n  keccak256\n    /* \"#utility.yul\":3727:3753   */\n  swap1\n  pop\n    /* \"#utility.yul\":3619:3760   */\n  swap2\n  swap1\n  pop\n  jump\t// out\n    /* \"#utility.yul\":3766:3859   */\ntag_84:\n    /* \"#utility.yul\":3803:3809   */\n  0x00\n    /* \"#utility.yul\":3850:3852   */\n  0x20\n    /* \"#utility.yul\":3845:3847   */\n  0x1f\n    /* \"#utility.yul\":3838:3843   */\n  dup4\n    /* \"#utility.yul\":3834:3848   */\n  add\n    /* \"#utility.yul\":3830:3853   */\n  div\n    /* \"#utility.yul\":3820:3853   */\n  swap1\n  pop\n    /* \"#utility.yul\":3766:3859   */\n  swap2\n  swap1\n  pop\n  jump\t// out\n    /* \"#utility.yul\":3865:3972   */\ntag_85:\n    /* \"#utility.yul\":3909:3917   */\n  0x00\n    /* \"#utility.yul\":3959:3964   */\n  dup3\n    /* \"#utility.yul\":3953:3957   */\n  dup3\n    /* \"#utility.yul\":3949:3965   */\n  shl\n    /* \"#utility.yul\":3928:3965   */\n  swap1\n  pop\n    /* \"#utility.yul\":3865:3972   */\n  swap3\n  swap2\n  pop\n  pop\n  jump\t// out\n    /* \"#utility.yul\":3978:4371   */\ntag_86:\n    /* \"#utility.yul\":4047:4053   */\n  0x00\n    /* \"#utility.yul\":4097:4098   */\n  0x08\n    /* \"#utility.yul\":4085:4095   */\n  dup4\n    /* \"#utility.yul\":4081:4099   */\n  mul\n    /* \"#utility.yul\":4120:4217   */\n  tag_147\n    /* \"#utility.yul\":4150:4216   */\n  0xffffffffffffffffffffffffffffffffffffffffffffffffffffffffffffffff\n    /* \"#utility.yul\":4139:4148   */\n  dup3\n    /* \"#utility.yul\":4120:4217   */\n  tag_85\n  jump\t// in\ntag_147:\n    /* \"#utility.yul\":4238:4277   */\n  tag_148\n    /* \"#utility.yul\":4268:4276   */\n  dup7\n    /* \"#utility.yul\":4257:4266   */\n  dup4\n    /* \"#utility.yul\":4238:4277   */\n  tag_85\n  jump\t// in\ntag_148:\n    /* \"#utility.yul\":4226:4277   */\n  swap6\n  pop\n    /* \"#utility.yul\":4310:4314   */\n  dup1\n    /* \"#utility.yul\":4306:4315   */\n  not\n    /* \"#utility.yul\":4299:4304   */\n  dup5\n    /* \"#utility.yul\":4295:4316   */\n  and\n    /* \"#utility.yul\":4286:4316   */\n  swap4\n  pop\n    /* \"#utility.yul\":4359:4363   */\n  dup1\n    /* \"#utility.yul\":4349:4357   */\n  dup7\n    /* \"#utility.yul\":4345:4364   */\n  and\n    /* \"#utility.yul\":4338:4343   */\n  dup5\n    /* \"#utility.yul\":4335:4365   */\n  or\n    /* \"#utility.yul\":4325:4365   */\n  swap3\n  pop\n    /* \"#utility.yul\":4054:4371   */\n  pop\n  pop\n    /* \"#utility.yul\":3978:4371   */\n  swap4\n  swap3\n  pop\n  pop\n  pop\n  jump\t// out\n    /* \"#utility.yul\":4377:4437   */\ntag_87:\n    /* \"#utility.yul\":4405:4408   */\n  0x00\n    /* \"#utility.yul\":4426:4431   */\n  dup2\n    /* \"#utility.yul\":4419:4431   */\n  swap1\n  pop\n    /* \"#utility.yul\":4377:4437   */\n  swap2\n  swap1\n  pop\n  jump\t// out\n    /* \"#utility.yul\":4443:4585   */\ntag_88:\n    /* \"#utility.yul\":4493:4502   */\n  0x00\n    /* \"#utility.yul\":4526:4579   */\n  tag_151\n    /* \"#utility.yul\":4544:4578   */\n  tag_152\n    /* \"#utility.yul\":4553:4577   */\n  tag_153\n    /* \"#utility.yul\":4571:4576   */\n  dup5\n    /* \"#utility.yul\":4553:4577   */\n  tag_76\n  jump\t// in\ntag_153:\n    /* \"#utility.yul\":4544:4578   */\n  tag_87\n  jump\t// in\ntag_152:\n    /* \"#utility.yul\":4526:4579   */\n  tag_76\n  jump\t// in\ntag_151:\n    /* \"#utility.yul\":4513:4579   */\n  swap1\n  pop\n    /* \"#utility.yul\":4443:4585   */\n  swap2\n  swap1\n  pop\n  jump\t// out\n    /* \"#utility.yul\":4591:4666   */\ntag_89:\n    /* \"#utility.yul\":4634:4637   */\n  0x00\n    /* \"#utility.yul\":4655:4660   */\n  dup2\n    /* \"#utility.yul\":4648:4660   */\n  swap1\n  pop\n    /* \"#utility.yul\":4591:4666   */\n  swap2\n  swap1\n  pop\n  jump\t// out\n    /* \"#utility.yul\":4672:4941   */\ntag_90:\n    /* \"#utility.yul\":4782:4821   */\n  tag_156\n    /* \"#utility.yul\":4813:4820   */\n  dup4\n    /* \"#utility.yul\":4782:4821   */\n  tag_88\n  jump\t// in\ntag_156:\n    /* \"#utility.yul\":4843:4934   */\n  tag_157\n    /* \"#utility.yul\":4892:4933   */\n  tag_158\n    /* \"#utility.yul\":4916:4932   */\n  dup3\n    /* \"#utility.yul\":4892:4933   */\n  tag_89\n  jump\t// in\ntag_158:\n    /* \"#utility.yul\":4884:4890   */\n  dup5\n    /* \"#utility.yul\":4877:4881   */\n  dup5\n    /* \"#utility.yul\":4871:4882   */\n  sload\n    /* \"#utility.yul\":4843:4934   */\n  tag_86\n  jump\t// in\ntag_157:\n    /* \"#utility.yul\":4837:4841   */\n  dup3\n    /* \"#utility.yul\":4830:4935   */\n  sstore\n    /* \"#utility.yul\":4748:4941   */\n  pop\n    /* \"#utility.yul\":4672:4941   */\n  pop\n  pop\n  pop\n  jump\t// out\n    /* \"#utility.yul\":4947:5020   */\ntag_91:\n    /* \"#utility.yul\":4992:4995   */\n  0x00\n    /* \"#utility.yul\":4947:5020   */\n  swap1\n  jump\t// out\n    /* \"#utility.yul\":5026:5215   */\ntag_92:\n    /* \"#utility.yul\":5103:5135   */\n  tag_161\n  tag_91\n  jump\t// in\ntag_161:\n    /* \"#utility.yul\":5144:5209   */\n  tag_162\n    /* \"#utility.yul\":5202:5208   */\n  dup2\n    /* \"#utility.yul\":5194:5200   */\n  dup5\n    /* \"#utility.yul\":5188:5192   */\n  dup5\n    /* \"#utility.yul\":5144:5209   */\n  tag_90\n  jump\t// in\ntag_162:\n    /* \"#utility.yul\":5079:5215   */\n  pop\n    /* \"#utility.yul\":5026:5215   */\n  pop\n  pop\n  jump\t// out\n    /* \"#utility.yul\":5221:5407   */\ntag_93:\n    /* \"#utility.yul\":5281:5401   */\ntag_164:\n    /* \"#utility.yul\":5298:5301   */\n  dup2\n    /* \"#utility.yul\":5291:5296   */\n  dup2\n    /* \"#utility.yul\":5288:5302   */\n  lt\n    /* \"#utility.yul\":5281:5401   */\n  iszero\n  tag_166\n  jumpi\n    /* \"#utility.yul\":5352:5391   */\n  tag_167\n    /* \"#utility.yul\":5389:5390   */\n  0x00\n    /* \"#utility.yul\":5382:5387   */\n  dup3\n    /* \"#utility.yul\":5352:5391   */\n  tag_92\n  jump\t// in\ntag_167:\n    /* \"#utility.yul\":5325:5326   */\n  0x01\n    /* \"#utility.yul\":5318:5323   */\n  dup2\n    /* \"#utility.yul\":5314:5327   */\n  add\n    /* \"#utility.yul\":5305:5327   */\n  swap1\n  pop\n    /* \"#utility.yul\":5281:5401   */\n  jump(tag_164)\ntag_166:\n    /* \"#utility.yul\":5221:5407   */\n  pop\n  pop\n  jump\t// out\n    /* \"#utility.yul\":5413:5956   */\ntag_94:\n    /* \"#utility.yul\":5514:5516   */\n  0x1f\n    /* \"#utility.yul\":5509:5512   */\n  dup3\n    /* \"#utility.yul\":5506:5517   */\n  gt\n    /* \"#utility.yul\":5503:5949   */\n  iszero\n  tag_169\n  jumpi\n    /* \"#utility.yul\":5548:5586   */\n  tag_170\n    /* \"#utility.yul\":5580:5585   */\n  dup2\n    /* \"#utility.yul\":5548:5586   */\n  tag_83\n  jump\t// in\ntag_170:\n    /* \"#utility.yul\":5632:5661   */\n  tag_171\n    /* \"#utility.yul\":5650:5660   */\n  dup5\n    /* \"#utility.yul\":5632:5661   */\n  tag_84\n  jump\t// in\ntag_171:\n    /* \"#utility.yul\":5622:5630   */\n  dup2\n    /* \"#utility.yul\":5618:5662   */\n  add\n    /* \"#utility.yul\":5815:5817   */\n  0x20\n    /* \"#utility.yul\":5803:5813   */\n  dup6\n    /* \"#utility.yul\":5800:5818   */\n  lt\n    /* \"#utility.yul\":5797:5846   */\n  iszero\n  tag_172\n  jumpi\n    /* \"#utility.yul\":5836:5844   */\n  dup2\n    /* \"#utility.yul\":5821:5844   */\n  swap1\n  pop\n    /* \"#utility.yul\":5797:5846   */\ntag_172:\n    /* \"#utility.yul\":5859:5939   */\n  tag_173\n    /* \"#utility.yul\":5915:5937   */\n  tag_174\n    /* \"#utility.yul\":5933:5936   */\n  dup6\n    /* \"#utility.yul\":5915:5937   */\n  tag_84\n  jump\t// in\ntag_174:\n    /* \"#utility.yul\":5905:5913   */\n  dup4\n    /* \"#utility.yul\":5901:5938   */\n  add\n    /* \"#utility.yul\":5888:5899   */\n  dup3\n    /* \"#utility.yul\":5859:5939   */\n  tag_93\n  jump\t// in\ntag_173:\n    /* \"#utility.yul\":5518:5949   */\n  pop\n  pop\n    /* \"#utility.yul\":5503:5949   */\ntag_169:\n    /* \"#utility.yul\":5413:5956   */\n  pop\n  pop\n  pop\n  jump\t// out\n    /* \"#utility.yul\":5962:6079   */\ntag_95:\n    /* \"#utility.yul\":6016:6024   */\n  0x00\n    /* \"#utility.yul\":6066:6071   */\n  dup3\n    /* \"#utility.yul\":6060:6064   */\n  dup3\n    /* \"#utility.yul\":6056:6072   */\n  shr\n    /* \"#utility.yul\":6035:6072   */\n  swap1\n  pop\n    /* \"#utility.yul\":5962:6079   */\n  swap3\n  swap2\n  pop\n  pop\n  jump\t// out\n    /* \"#utility.yul\":6085:6254   */\ntag_96:\n    /* \"#utility.yul\":6129:6135   */\n  0x00\n    /* \"#utility.yul\":6162:6213   */\n  tag_177\n    /* \"#utility.yul\":6210:6211   */\n  0x00\n    /* \"#utility.yul\":6206:6212   */\n  not\n    /* \"#utility.yul\":6198:6203   */\n  dup5\n    /* \"#utility.yul\":6195:6196   */\n  0x08\n    /* \"#utility.yul\":6191:6204   */\n  mul\n    /* \"#utility.yul\":6162:6213   */\n  tag_95\n  jump\t// in\ntag_177:\n    /* \"#utility.yul\":6158:6214   */\n  not\n    /* \"#utility.yul\":6243:6247   */\n  dup1\n    /* \"#utility.yul\":6237:6241   */\n  dup4\n    /* \"#utility.yul\":6233:6248   */\n  and\n    /* \"#utility.yul\":6223:6248   */\n  swap2\n  pop\n    /* \"#utility.yul\":6136:6254   */\n  pop\n    /* \"#utility.yul\":6085:6254   */\n  swap3\n  swap2\n  pop\n  pop\n  jump\t// out\n    /* \"#utility.yul\":6259:6554   */\ntag_97:\n    /* \"#utility.yul\":6335:6339   */\n  0x00\n    /* \"#utility.yul\":6481:6510   */\n  tag_179\n    /* \"#utility.yul\":6506:6509   */\n  dup4\n    /* \"#utility.yul\":6500:6504   */\n  dup4\n    /* \"#utility.yul\":6481:6510   */\n  tag_96\n  jump\t// in\ntag_179:\n    /* \"#utility.yul\":6473:6510   */\n  swap2\n  pop\n    /* \"#utility.yul\":6543:6546   */\n  dup3\n    /* \"#utility.yul\":6540:6541   */\n  0x02\n    /* \"#utility.yul\":6536:6547   */\n  mul\n    /* \"#utility.yul\":6530:6534   */\n  dup3\n    /* \"#utility.yul\":6527:6548   */\n  or\n    /* \"#utility.yul\":6519:6548   */\n  swap1\n  pop\n    /* \"#utility.yul\":6259:6554   */\n  swap3\n  swap2\n  pop\n  pop\n  jump\t// out\n    /* \"#utility.yul\":6559:7954   */\ntag_9:\n    /* \"#utility.yul\":6676:6713   */\n  tag_181\n    /* \"#utility.yul\":6709:6712   */\n  dup3\n    /* \"#utility.yul\":6676:6713   */\n  tag_79\n  jump\t// in\ntag_181:\n    /* \"#utility.yul\":6778:6796   */\n  0xffffffffffffffff\n    /* \"#utility.yul\":6770:6776   */\n  dup2\n    /* \"#utility.yul\":6767:6797   */\n  gt\n    /* \"#utility.yul\":6764:6820   */\n  iszero\n  tag_182\n  jumpi\n    /* \"#utility.yul\":6800:6818   */\n  tag_183\n  tag_80\n  jump\t// in\ntag_183:\n    /* \"#utility.yul\":6764:6820   */\ntag_182:\n    /* \"#utility.yul\":6844:6882   */\n  tag_184\n    /* \"#utility.yul\":6876:6880   */\n  dup3\n    /* \"#utility.yul\":6870:6881   */\n  sload\n    /* \"#utility.yul\":6844:6882   */\n  tag_82\n  jump\t// in\ntag_184:\n    /* \"#utility.yul\":6929:6996   */\n  tag_185\n    /* \"#utility.yul\":6989:6995   */\n  dup3\n    /* \"#utility.yul\":6981:6987   */\n  dup3\n    /* \"#utility.yul\":6975:6979   */\n  dup6\n    /* \"#utility.yul\":6929:6996   */\n  tag_94\n  jump\t// in\ntag_185:\n    /* \"#utility.yul\":7023:7024   */\n  0x00\n    /* \"#utility.yul\":7047:7051   */\n  0x20\n    /* \"#utility.yul\":7034:7051   */\n  swap1\n  pop\n    /* \"#utility.yul\":7079:7081   */\n  0x1f\n    /* \"#utility.yul\":7071:7077   */\n  dup4\n    /* \"#utility.yul\":7068:7082   */\n  gt\n    /* \"#utility.yul\":7096:7097   */\n  0x01\n    /* \"#utility.yul\":7091:7709   */\n  dup2\n  eq\n  tag_187\n  jumpi\n    /* \"#utility.yul\":7753:7754   */\n  0x00\n    /* \"#utility.yul\":7770:7776   */\n  dup5\n    /* \"#utility.yul\":7767:7844   */\n  iszero\n  tag_188\n  jumpi\n    /* \"#utility.yul\":7819:7828   */\n  dup3\n    /* \"#utility.yul\":7814:7817   */\n  dup8\n    /* \"#utility.yul\":7810:7829   */\n  add\n    /* \"#utility.yul\":7804:7830   */\n  mload\n    /* \"#utility.yul\":7795:7830   */\n  swap1\n  pop\n    /* \"#utility.yul\":7767:7844   */\ntag_188:\n    /* \"#utility.yul\":7870:7937   */\n  tag_189\n    /* \"#utility.yul\":7930:7936   */\n  dup6\n    /* \"#utility.yul\":7923:7928   */\n  dup3\n    /* \"#utility.yul\":7870:7937   */\n  tag_97\n  jump\t// in\ntag_189:\n    /* \"#utility.yul\":7864:7868   */\n  dup7\n    /* \"#utility.yul\":7857:7938   */\n  sstore\n    /* \"#utility.yul\":7726:7948   */\n  pop\n    /* \"#utility.yul\":7061:7948   */\n  jump(tag_186)\n    /* \"#utility.yul\":7091:7709   */\ntag_187:\n    /* \"#utility.yul\":7143:7147   */\n  0x1f\n    /* \"#utility.yul\":7139:7148   */\n  not\n    /* \"#utility.yul\":7131:7137   */\n  dup5\n    /* \"#utility.yul\":7127:7149   */\n  and\n    /* \"#utility.yul\":7177:7214   */\n  tag_190\n    /* \"#utility.yul\":7209:7213   */\n  dup7\n    /* \"#utility.yul\":7177:7214   */\n  tag_83\n  jump\t// in\ntag_190:\n    /* \"#utility.yul\":7236:7237   */\n  0x00\n    /* \"#utility.yul\":7250:7458   */\ntag_191:\n    /* \"#utility.yul\":7264:7271   */\n  dup3\n    /* \"#utility.yul\":7261:7262   */\n  dup2\n    /* \"#utility.yul\":7258:7272   */\n  lt\n    /* \"#utility.yul\":7250:7458   */\n  iszero\n  tag_193\n  jumpi\n    /* \"#utility.yul\":7343:7352   */\n  dup5\n    /* \"#utility.yul\":7338:7341   */\n  dup10\n    /* \"#utility.yul\":7334:7353   */\n  add\n    /* \"#utility.yul\":7328:7354   */\n  mload\n    /* \"#utility.yul\":7320:7326   */\n  dup3\n    /* \"#utility.yul\":7313:7355   */\n  sstore\n    /* \"#utility.yul\":7394:7395   */\n  0x01\n    /* \"#utility.yul\":7386:7392   */\n  dup3\n    /* \"#utility.yul\":7382:7396   */\n  add\n    /* \"#utility.yul\":7372:7396   */\n  swap2\n  pop\n    /* \"#utility.yul\":7441:7443   */\n  0x20\n    /* \"#utility.yul\":7430:7439   */\n  dup6\n    /* \"#utility.yul\":7426:7444   */\n  add\n    /* \"#utility.yul\":7413:7444   */\n  swap5\n  pop\n    /* \"#utility.yul\":7287:7291   */\n  0x20\n    /* \"#utility.yul\":7284:7285   */\n  dup2\n    /* \"#utility.yul\":7280:7292   */\n  add\n    /* \"#utility.yul\":7275:7292   */\n  swap1\n  pop\n    /* \"#utility.yul\":7250:7458   */\n  jump(tag_191)\ntag_193:\n    /* \"#utility.yul\":7486:7492   */\n  dup7\n    /* \"#utility.yul\":7477:7484   */\n  dup4\n    /* \"#utility.yul\":7474:7493   */\n  lt\n    /* \"#utility.yul\":7471:7650   */\n  iszero\n  tag_194\n  jumpi\n    /* \"#utility.yul\":7544:7553   */\n  dup5\n    /* \"#utility.yul\":7539:7542   */\n  dup10\n    /* \"#utility.yul\":7535:7554   */\n  add\n    /* \"#utility.yul\":7529:7555   */\n  mload\n    /* \"#utility.yul\":7587:7635   */\n  tag_195\n    /* \"#utility.yul\":7629:7633   */\n  0x1f\n    /* \"#utility.yul\":7621:7627   */\n  dup10\n    /* \"#utility.yul\":7617:7634   */\n  and\n    /* \"#utility.yul\":7606:7615   */\n  dup3\n    /* \"#utility.yul\":7587:7635   */\n  tag_96\n  jump\t// in\ntag_195:\n    /* \"#utility.yul\":7579:7585   */\n  dup4\n    /* \"#utility.yul\":7572:7636   */\n  sstore\n    /* \"#utility.yul\":7494:7650   */\n  pop\n    /* \"#utility.yul\":7471:7650   */\ntag_194:\n    /* \"#utility.yul\":7696:7697   */\n  0x01\n    /* \"#utility.yul\":7692:7693   */\n  0x02\n    /* \"#utility.yul\":7684:7690   */\n  dup9\n    /* \"#utility.yul\":7680:7694   */\n  mul\n    /* \"#utility.yul\":7676:7698   */\n  add\n    /* \"#utility.yul\":7670:7674   */\n  dup9\n    /* \"#utility.yul\":7663:7699   */\n  sstore\n    /* \"#utility.yul\":7098:7709   */\n  pop\n  pop\n  pop\n    /* \"#utility.yul\":7061:7948   */\ntag_186:\n  pop\n    /* \"#utility.yul\":6651:7954   */\n  pop\n  pop\n  pop\n    /* \"#utility.yul\":6559:7954   */\n  pop\n  pop\n  jump\t// out\n    /* \"#utility.yul\":7960:8140   */\ntag_98:\n    /* \"#utility.yul\":8008:8085   */\n  0x4e487b7100000000000000000000000000000000000000000000000000000000\n    /* \"#utility.yul\":8005:8006   */\n  0x00\n    /* \"#utility.yul\":7998:8086   */\n  mstore\n    /* \"#utility.yul\":8105:8109   */\n  0x11\n    /* \"#utility.yul\":8102:8103   */\n  0x04\n    /* \"#utility.yul\":8095:8110   */\n  mstore\n    /* \"#utility.yul\":8129:8133   */\n  0x24\n    /* \"#utility.yul\":8126:8127   */\n  0x00\n    /* \"#utility.yul\":8119:8134   */\n  revert\n    /* \"#utility.yul\":8146:8248   */\ntag_99:\n    /* \"#utility.yul\":8188:8196   */\n  0x00\n    /* \"#utility.yul\":8235:8240   */\n  dup2\n    /* \"#utility.yul\":8232:8233   */\n  0x01\n    /* \"#utility.yul\":8228:8241   */\n  shr\n    /* \"#utility.yul\":8207:8241   */\n  swap1\n  pop\n    /* \"#utility.yul\":8146:8248   */\n  swap2\n  swap1\n  pop\n  jump\t// out\n    /* \"#utility.yul\":8254:9102   */\ntag_100:\n    /* \"#utility.yul\":8315:8320   */\n  0x00\n    /* \"#utility.yul\":8322:8326   */\n  dup1\n    /* \"#utility.yul\":8346:8352   */\n  dup3\n    /* \"#utility.yul\":8337:8352   */\n  swap2\n  pop\n    /* \"#utility.yul\":8370:8375   */\n  dup4\n    /* \"#utility.yul\":8361:8375   */\n  swap1\n  pop\n    /* \"#utility.yul\":8384:9096   */\ntag_199:\n    /* \"#utility.yul\":8405:8406   */\n  0x01\n    /* \"#utility.yul\":8395:8403   */\n  dup6\n    /* \"#utility.yul\":8392:8407   */\n  gt\n    /* \"#utility.yul\":8384:9096   */\n  iszero\n  tag_201\n  jumpi\n    /* \"#utility.yul\":8500:8504   */\n  dup1\n    /* \"#utility.yul\":8495:8498   */\n  dup7\n    /* \"#utility.yul\":8491:8505   */\n  div\n    /* \"#utility.yul\":8485:8489   */\n  dup2\n    /* \"#utility.yul\":8482:8506   */\n  gt\n    /* \"#utility.yul\":8479:8529   */\n  iszero\n  tag_202\n  jumpi\n    /* \"#utility.yul\":8509:8527   */\n  tag_203\n  tag_98\n  jump\t// in\ntag_203:\n    /* \"#utility.yul\":8479:8529   */\ntag_202:\n    /* \"#utility.yul\":8559:8560   */\n  0x01\n    /* \"#utility.yul\":8549:8557   */\n  dup6\n    /* \"#utility.yul\":8545:8561   */\n  and\n    /* \"#utility.yul\":8542:8993   */\n  iszero\n  tag_204\n  jumpi\n    /* \"#utility.yul\":8974:8978   */\n  dup1\n    /* \"#utility.yul\":8967:8972   */\n  dup3\n    /* \"#utility.yul\":8963:8979   */\n  mul\n    /* \"#utility.yul\":8954:8979   */\n  swap2\n  pop\n    /* \"#utility.yul\":8542:8993   */\ntag_204:\n    /* \"#utility.yul\":9024:9028   */\n  dup1\n    /* \"#utility.yul\":9018:9022   */\n  dup2\n    /* \"#utility.yul\":9014:9029   */\n  mul\n    /* \"#utility.yul\":9006:9029   */\n  swap1\n  pop\n    /* \"#utility.yul\":9054:9086   */\n  tag_205\n    /* \"#utility.yul\":9077:9085   */\n  dup6\n    /* \"#utility.yul\":9054:9086   */\n  tag_99\n  jump\t// in\ntag_205:\n    /* \"#utility.yul\":9042:9086   */\n  swap5\n  pop\n    /* \"#utility.yul\":8384:9096   */\n  jump(tag_199)\ntag_201:\n    /* \"#utility.yul\":8254:9102   */\n  swap5\n  pop\n  swap5\n  swap3\n  pop\n  pop\n  pop\n  jump\t// out\n    /* \"#utility.yul\":9108:10181   */\ntag_101:\n    /* \"#utility.yul\":9162:9167   */\n  0x00\n    /* \"#utility.yul\":9353:9361   */\n  dup3\n    /* \"#utility.yul\":9343:9383   */\n  tag_207\n  jumpi\n    /* \"#utility.yul\":9374:9375   */\n  0x01\n    /* \"#utility.yul\":9365:9375   */\n  swap1\n  pop\n    /* \"#utility.yul\":9376:9381   */\n  jump(tag_206)\n    /* \"#utility.yul\":9343:9383   */\ntag_207:\n    /* \"#utility.yul\":9402:9406   */\n  dup2\n    /* \"#utility.yul\":9392:9428   */\n  tag_208\n  jumpi\n    /* \"#utility.yul\":9419:9420   */\n  0x00\n    /* \"#utility.yul\":9410:9420   */\n  swap1\n  pop\n    /* \"#utility.yul\":9421:9426   */\n  jump(tag_206)\n    /* \"#utility.yul\":9392:9428   */\ntag_208:\n    /* \"#utility.yul\":9488:9492   */\n  dup2\n    /* \"#utility.yul\":9536:9537   */\n  0x01\n    /* \"#utility.yul\":9531:9558   */\n  dup2\n  eq\n  tag_210\n  jumpi\n    /* \"#utility.yul\":9572:9573   */\n  0x02\n    /* \"#utility.yul\":9567:9758   */\n  dup2\n  eq\n  tag_211\n  jumpi\n    /* \"#utility.yul\":9481:9758   */\n  jump(tag_209)\n    /* \"#utility.yul\":9531:9558   */\ntag_210:\n    /* \"#utility.yul\":9549:9550   */\n  0x01\n    /* \"#utility.yul\":9540:9550   */\n  swap2\n  pop\n    /* \"#utility.yul\":9551:9556   */\n  pop\n  jump(tag_206)\n    /* \"#utility.yul\":9567:9758   */\ntag_211:\n    /* \"#utility.yul\":9612:9615   */\n  0xff\n    /* \"#utility.yul\":9602:9610   */\n  dup5\n    /* \"#utility.yul\":9599:9616   */\n  gt\n    /* \"#utility.yul\":9596:9639   */\n  iszero\n  tag_212\n  jumpi\n    /* \"#utility.yul\":9619:9637   */\n  tag_213\n  tag_98\n  jump\t// in\ntag_213:\n    /* \"#utility.yul\":9596:9639   */\ntag_212:\n    /* \"#utility.yul\":9668:9676   */\n  dup4\n    /* \"#utility.yul\":9665:9666   */\n  0x02\n    /* \"#utility.yul\":9661:9677   */\n  exp\n    /* \"#utility.yul\":9652:9677   */\n  swap2\n  pop\n    /* \"#utility.yul\":9703:9706   */\n  dup5\n    /* \"#utility.yul\":9696:9701   */\n  dup3\n    /* \"#utility.yul\":9693:9707   */\n  gt\n    /* \"#utility.yul\":9690:9730   */\n  iszero\n  tag_214\n  jumpi\n    /* \"#utility.yul\":9710:9728   */\n  tag_215\n  tag_98\n  jump\t// in\ntag_215:\n    /* \"#utility.yul\":9690:9730   */\ntag_214:\n    /* \"#utility.yul\":9743:9748   */\n  pop\n  jump(tag_206)\n    /* \"#utility.yul\":9481:9758   */\ntag_209:\n  pop\n    /* \"#utility.yul\":9867:9869   */\n  0x20\n    /* \"#utility.yul\":9857:9865   */\n  dup4\n    /* \"#utility.yul\":9854:9870   */\n  lt\n    /* \"#utility.yul\":9848:9851   */\n  0x0133\n    /* \"#utility.yul\":9842:9846   */\n  dup4\n    /* \"#utility.yul\":9839:9852   */\n  lt\n    /* \"#utility.yul\":9835:9871   */\n  and\n    /* \"#utility.yul\":9817:9819   */\n  0x4e\n    /* \"#utility.yul\":9807:9815   */\n  dup5\n    /* \"#utility.yul\":9804:9820   */\n  lt\n    /* \"#utility.yul\":9799:9801   */\n  0x0b\n    /* \"#utility.yul\":9793:9797   */\n  dup5\n    /* \"#utility.yul\":9790:9802   */\n  lt\n    /* \"#utility.yul\":9786:9821   */\n  and\n    /* \"#utility.yul\":9770:9881   */\n  or\n    /* \"#utility.yul\":9767:10013   */\n  iszero\n  tag_216\n  jumpi\n    /* \"#utility.yul\":9923:9931   */\n  dup3\n    /* \"#utility.yul\":9917:9921   */\n  dup3\n    /* \"#utility.yul\":9913:9932   */\n  exp\n    /* \"#utility.yul\":9904:9932   */\n  swap1\n  pop\n    /* \"#utility.yul\":9958:9961   */\n  dup4\n    /* \"#utility.yul\":9951:9956   */\n  dup2\n    /* \"#utility.yul\":9948:9962   */\n  gt\n    /* \"#utility.yul\":9945:9985   */\n  iszero\n  tag_217\n  jumpi\n    /* \"#utility.yul\":9965:9983   */\n  tag_218\n  tag_98\n  jump\t// in\ntag_218:\n    /* \"#utility.yul\":9945:9985   */\ntag_217:\n    /* \"#utility.yul\":9998:10003   */\n  jump(tag_206)\n    /* \"#utility.yul\":9767:10013   */\ntag_216:\n    /* \"#utility.yul\":10038:10080   */\n  tag_219\n    /* \"#utility.yul\":10076:10079   */\n  dup5\n    /* \"#utility.yul\":10066:10074   */\n  dup5\n    /* \"#utility.yul\":10060:10064   */\n  dup5\n    /* \"#utility.yul\":10057:10058   */\n  0x01\n    /* \"#utility.yul\":10038:10080   */\n  tag_100\n  jump\t// in\ntag_219:\n    /* \"#utility.yul\":10023:10080   */\n  swap3\n  pop\n  swap1\n  pop\n    /* \"#utility.yul\":10112:10116   */\n  dup2\n    /* \"#utility.yul\":10107:10110   */\n  dup5\n    /* \"#utility.yul\":10103:10117   */\n  div\n    /* \"#utility.yul\":10096:10101   */\n  dup2\n    /* \"#utility.yul\":10093:10118   */\n  gt\n    /* \"#utility.yul\":10090:10141   */\n  iszero\n  tag_220\n  jumpi\n    /* \"#utility.yul\":10121:10139   */\n  tag_221\n  tag_98\n  jump\t// in\ntag_221:\n    /* \"#utility.yul\":10090:10141   */\ntag_220:\n    /* \"#utility.yul\":10170:10174   */\n  dup2\n    /* \"#utility.yul\":10163:10168   */\n  dup2\n    /* \"#utility.yul\":10159:10175   */\n  mul\n    /* \"#utility.yul\":10150:10175   */\n  swap1\n  pop\n    /* \"#utility.yul\":9108:10181   */\ntag_206:\n  swap4\n  swap3\n  pop\n  pop\n  pop\n  jump\t// out\n    /* \"#utility.yul\":10187:10273   */\ntag_102:\n    /* \"#utility.yul\":10222:10229   */\n  0x00\n    /* \"#utility.yul\":10262:10266   */\n  0xff\n    /* \"#utility.yul\":10255:10260   */\n  dup3\n    /* \"#utility.yul\":10251:10267   */\n  and\n    /* \"#utility.yul\":10240:10267   */\n  swap1\n  pop\n    /* \"#utility.yul\":10187:10273   */\n  swap2\n  swap1\n  pop\n  jump\t// out\n    /* \"#utility.yul\":10279:10560   */\ntag_20:\n    /* \"#utility.yul\":10337:10342   */\n  0x00\n    /* \"#utility.yul\":10361:10384   */\n  tag_224\n    /* \"#utility.yul\":10379:10383   */\n  dup3\n    /* \"#utility.yul\":10361:10384   */\n  tag_76\n  jump\t// in\ntag_224:\n    /* \"#utility.yul\":10353:10384   */\n  swap2\n  pop\n    /* \"#utility.yul\":10405:10430   */\n  tag_225\n    /* \"#utility.yul\":10421:10429   */\n  dup4\n    /* \"#utility.yul\":10405:10430   */\n  tag_102\n  jump\t// in\ntag_225:\n    /* \"#utility.yul\":10393:10430   */\n  swap3\n  pop\n    /* \"#utility.yul\":10449:10553   */\n  tag_226\n    /* \"#utility.yul\":10486:10552   */\n  0xffffffffffffffffffffffffffffffffffffffffffffffffffffffffffffffff\n    /* \"#utility.yul\":10476:10484   */\n  dup5\n    /* \"#utility.yul\":10470:10474   */\n  dup5\n    /* \"#utility.yul\":10449:10553   */\n  tag_101\n  jump\t// in\ntag_226:\n    /* \"#utility.yul\":10440:10553   */\n  swap1\n  pop\n    /* \"#utility.yul\":10279:10560   */\n  swap3\n  swap2\n  pop\n  pop\n  jump\t// out\n    /* \"#utility.yul\":10566:10746   */\ntag_103:\n    /* \"#utility.yul\":10614:10691   */\n  0x4e487b7100000000000000000000000000000000000000000000000000000000\n    /* \"#utility.yul\":10611:10612   */\n  0x00\n    /* \"#utility.yul\":10604:10692   */\n  mstore\n    /* \"#utility.yul\":10711:10715   */\n  0x12\n    /* \"#utility.yul\":10708:10709   */\n  0x04\n    /* \"#utility.yul\":10701:10716   */\n  mstore\n    /* \"#utility.yul\":10735:10739   */\n  0x24\n    /* \"#utility.yul\":10732:10733   */\n  0x00\n    /* \"#utility.yul\":10725:10740   */\n  revert\n    /* \"#utility.yul\":10752:10937   */\ntag_22:\n    /* \"#utility.yul\":10792:10793   */\n  0x00\n    /* \"#utility.yul\":10809:10829   */\n  tag_229\n    /* \"#utility.yul\":10827:10828   */\n  dup3\n    /* \"#utility.yul\":10809:10829   */\n  tag_76\n  jump\t// in\ntag_229:\n    /* \"#utility.yul\":10804:10829   */\n  swap2\n  pop\n    /* \"#utility.yul\":10843:10863   */\n  tag_230\n    /* \"#utility.yul\":10861:10862   */\n  dup4\n    /* \"#utility.yul\":10843:10863   */\n  tag_76\n  jump\t// in\ntag_230:\n    /* \"#utility.yul\":10838:10863   */\n  swap3\n  pop\n    /* \"#utility.yul\":10882:10883   */\n  dup3\n    /* \"#utility.yul\":10872:10907   */\n  tag_231\n  jumpi\n    /* \"#utility.yul\":10887:10905   */\n  tag_232\n  tag_103\n  jump\t// in\ntag_232:\n    /* \"#utility.yul\":10872:10907   */\ntag_231:\n    /* \"#utility.yul\":10929:10930   */\n  dup3\n    /* \"#utility.yul\":10926:10927   */\n  dup3\n    /* \"#utility.yul\":10922:10931   */\n  div\n    /* \"#utility.yul\":10917:10931   */\n  swap1\n  pop\n    /* \"#utility.yul\":10752:10937   */\n  swap3\n  swap2\n  pop\n  pop\n  jump\t// out\n    /* \"#utility.yul\":10943:11353   */\ntag_24:\n    /* \"#utility.yul\":10983:10990   */\n  0x00\n    /* \"#utility.yul\":11006:11026   */\n  tag_234\n    /* \"#utility.yul\":11024:11025   */\n  dup3\n    /* \"#utility.yul\":11006:11026   */\n  tag_76\n  jump\t// in\ntag_234:\n    /* \"#utility.yul\":11001:11026   */\n  swap2\n  pop\n    /* \"#utility.yul\":11040:11060   */\n  tag_235\n    /* \"#utility.yul\":11058:11059   */\n  dup4\n    /* \"#utility.yul\":11040:11060   */\n  tag_76\n  jump\t// in\ntag_235:\n    /* \"#utility.yul\":11035:11060   */\n  swap3\n  pop\n    /* \"#utility.yul\":11095:11096   */\n  dup3\n    /* \"#utility.yul\":11092:11093   */\n  dup3\n    /* \"#utility.yul\":11088:11097   */\n  mul\n    /* \"#utility.yul\":11117:11147   */\n  tag_236\n    /* \"#utility.yul\":11135:11146   */\n  dup2\n    /* \"#utility.yul\":11117:11147   */\n  tag_76\n  jump\t// in\ntag_236:\n    /* \"#utility.yul\":11106:11147   */\n  swap2\n  pop\n    /* \"#utility.yul\":11296:11297   */\n  dup3\n    /* \"#utility.yul\":11287:11294   */\n  dup3\n    /* \"#utility.yul\":11283:11298   */\n  div\n    /* \"#utility.yul\":11280:11281   */\n  dup5\n    /* \"#utility.yul\":11277:11299   */\n  eq\n    /* \"#utility.yul\":11257:11258   */\n  dup4\n    /* \"#utility.yul\":11250:11259   */\n  iszero\n    /* \"#utility.yul\":11230:11313   */\n  or\n    /* \"#utility.yul\":11207:11346   */\n  tag_237\n  jumpi\n    /* \"#utility.yul\":11326:11344   */\n  tag_238\n  tag_98\n  jump\t// in\ntag_238:\n    /* \"#utility.yul\":11207:11346   */\ntag_237:\n    /* \"#utility.yul\":10991:11353   */\n  pop\n    /* \"#utility.yul\":10943:11353   */\n  swap3\n  swap2\n  pop\n  pop\n  jump\t// out\n    /* \"#utility.yul\":11359:11477   */\ntag_104:\n    /* \"#utility.yul\":11446:11470   */\n  tag_240\n    /* \"#utility.yul\":11464:11469   */\n  dup2\n    /* \"#utility.yul\":11446:11470   */\n  tag_73\n  jump\t// in\ntag_240:\n    /* \"#utility.yul\":11441:11444   */\n  dup3\n    /* \"#utility.yul\":11434:11471   */\n  mstore\n    /* \"#utility.yul\":11359:11477   */\n  pop\n  pop\n  jump\t// out\n    /* \"#utility.yul\":11483:11705   */\ntag_38:\n    /* \"#utility.yul\":11576:11580   */\n  0x00\n    /* \"#utility.yul\":11614:11616   */\n  0x20\n    /* \"#utility.yul\":11603:11612   */\n  dup3\n    /* \"#utility.yul\":11599:11617   */\n  add\n    /* \"#utility.yul\":11591:11617   */\n  swap1\n  pop\n    /* \"#utility.yul\":11627:11698   */\n  tag_242\n    /* \"#utility.yul\":11695:11696   */\n  0x00\n    /* \"#utility.yul\":11684:11693   */\n  dup4\n    /* \"#utility.yul\":11680:11697   */\n  add\n    /* \"#utility.yul\":11671:11677   */\n  dup5\n    /* \"#utility.yul\":11627:11698   */\n  tag_104\n  jump\t// in\ntag_242:\n    /* \"#utility.yul\":11483:11705   */\n  swap3\n  swap2\n  pop\n  pop\n  jump\t// out\n    /* \"#utility.yul\":11711:11902   */\ntag_59:\n    /* \"#utility.yul\":11751:11754   */\n  0x00\n    /* \"#utility.yul\":11770:11790   */\n  tag_244\n    /* \"#utility.yul\":11788:11789   */\n  dup3\n    /* \"#utility.yul\":11770:11790   */\n  tag_76\n  jump\t// in\ntag_244:\n    /* \"#utility.yul\":11765:11790   */\n  swap2\n  pop\n    /* \"#utility.yul\":11804:11824   */\n  tag_245\n    /* \"#utility.yul\":11822:11823   */\n  dup4\n    /* \"#utility.yul\":11804:11824   */\n  tag_76\n  jump\t// in\ntag_245:\n    /* \"#utility.yul\":11799:11824   */\n  swap3\n  pop\n    /* \"#utility.yul\":11847:11848   */\n  dup3\n    /* \"#utility.yul\":11844:11845   */\n  dup3\n    /* \"#utility.yul\":11840:11849   */\n  add\n    /* \"#utility.yul\":11833:11849   */\n  swap1\n  pop\n    /* \"#utility.yul\":11868:11871   */\n  dup1\n    /* \"#utility.yul\":11865:11866   */\n  dup3\n    /* \"#utility.yul\":11862:11872   */\n  gt\n    /* \"#utility.yul\":11859:11895   */\n  iszero\n  tag_246\n  jumpi\n    /* \"#utility.yul\":11875:11893   */\n  tag_247\n  tag_98\n  jump\t// in\ntag_247:\n    /* \"#utility.yul\":11859:11895   */\ntag_246:\n    /* \"#utility.yul\":11711:11902   */\n  swap3\n  swap2\n  pop\n  pop\n  jump\t// out\n    /* \"#utility.yul\":11908:12026   */\ntag_105:\n    /* \"#utility.yul\":11995:12019   */\n  tag_249\n    /* \"#utility.yul\":12013:12018   */\n  dup2\n    /* \"#utility.yul\":11995:12019   */\n  tag_76\n  jump\t// in\ntag_249:\n    /* \"#utility.yul\":11990:11993   */\n  dup3\n    /* \"#utility.yul\":11983:12020   */\n  mstore\n    /* \"#utility.yul\":11908:12026   */\n  pop\n  pop\n  jump\t// out\n    /* \"#utility.yul\":12032:12474   */\ntag_63:\n    /* \"#utility.yul\":12181:12185   */\n  0x00\n    /* \"#utility.yul\":12219:12221   */\n  0x60\n    /* \"#utility.yul\":12208:12217   */\n  dup3\n    /* \"#utility.yul\":12204:12222   */\n  add\n    /* \"#utility.yul\":12196:12222   */\n  swap1\n  pop\n    /* \"#utility.yul\":12232:12303   */\n  tag_251\n    /* \"#utility.yul\":12300:12301   */\n  0x00\n    /* \"#utility.yul\":12289:12298   */\n  dup4\n    /* \"#utility.yul\":12285:12302   */\n  add\n    /* \"#utility.yul\":12276:12282   */\n  dup7\n    /* \"#utility.yul\":12232:12303   */\n  tag_104\n  jump\t// in\ntag_251:\n    /* \"#utility.yul\":12313:12385   */\n  tag_252\n    /* \"#utility.yul\":12381:12383   */\n  0x20\n    /* \"#utility.yul\":12370:12379   */\n  dup4\n    /* \"#utility.yul\":12366:12384   */\n  add\n    /* \"#utility.yul\":12357:12363   */\n  dup6\n    /* \"#utility.yul\":12313:12385   */\n  tag_105\n  jump\t// in\ntag_252:\n    /* \"#utility.yul\":12395:12467   */\n  tag_253\n    /* \"#utility.yul\":12463:12465   */\n  0x40\n    /* \"#utility.yul\":12452:12461   */\n  dup4\n    /* \"#utility.yul\":12448:12466   */\n  add\n    /* \"#utility.yul\":12439:12445   */\n  dup5\n    /* \"#utility.yul\":12395:12467   */\n  tag_105\n  jump\t// in\ntag_253:\n    /* \"#utility.yul\":12032:12474   */\n  swap5\n  swap4\n  pop\n  pop\n  pop\n  pop\n  jump\t// out\n    /* \"#utility.yul\":12480:12702   */\ntag_67:\n    /* \"#utility.yul\":12573:12577   */\n  0x00\n    /* \"#utility.yul\":12611:12613   */\n  0x20\n    /* \"#utility.yul\":12600:12609   */\n  dup3\n    /* \"#utility.yul\":12596:12614   */\n  add\n    /* \"#utility.yul\":12588:12614   */\n  swap1\n  pop\n    /* \"#utility.yul\":12624:12695   */\n  tag_255\n    /* \"#utility.yul\":12692:12693   */\n  0x00\n    /* \"#utility.yul\":12681:12690   */\n  dup4\n    /* \"#utility.yul\":12677:12694   */\n  add\n    /* \"#utility.yul\":12668:12674   */\n  dup5\n    /* \"#utility.yul\":12624:12695   */\n  tag_105\n  jump\t// in\ntag_255:\n    /* \"#utility.yul\":12480:12702   */\n  swap3\n  swap2\n  pop\n  pop\n  jump\t// out\n    /* \"contracts/MyToken.sol\":373:3232  contract BonDeFiTokenSiemens is ERC20, ERC20Burnable, ERC20Pausable, AccessControl {... */\ntag_26:\n  mload(0x80)\n  mload(0xa0)\n  mload(0xc0)\n  codecopy(0x00, dataOffset(sub_0), dataSize(sub_0))\n  0x00\n  assignImmutable(\"0xa92a119aeb5e5432887b46772e423cfac2594bfdf681094c34bd022e8c31d0\")\n  0x00\n  assignImmutable(\"0xc6fa869c00cca07fff5e26638bf9bc331de0994499fcf1ee63eb1a2437869a1b\")\n  0x00\n  assignImmutable(\"0x560f53f9e6643f63dace8b2695c9680c3b0d96473ff0914d6a3517970d490ef6\")\n  return(0x00, dataSize(sub_0))\nstop\n\nsub_0: assembly {\n        /* \"contracts/MyToken.sol\":373:3232  contract BonDeFiTokenSiemens is ERC20, ERC20Burnable, ERC20Pausable, AccessControl {... */\n      mstore(0x40, 0x80)\n      callvalue\n      dup1\n      iszero\n      tag_1\n      jumpi\n      0x00\n      dup1\n      revert\n    tag_1:\n      pop\n      jumpi(tag_2, lt(calldatasize, 0x04))\n      shr(0xe0, calldataload(0x00))\n      dup1\n      0x79cc6790\n      gt\n      tag_34\n      jumpi\n      dup1\n      0xa920260b\n      gt\n      tag_35\n      jumpi\n      dup1\n      0xdd62ed3e\n      gt\n      tag_36\n      jumpi\n      dup1\n      0xdd62ed3e\n      eq\n      tag_30\n      jumpi\n      dup1\n      0xe091a39b\n      eq\n      tag_31\n      jumpi\n      dup1\n      0xec8eba14\n      eq\n      tag_32\n      jumpi\n      dup1\n      0xf57d283e\n      eq\n      tag_33\n      jumpi\n      jump(tag_2)\n    tag_36:\n      dup1\n      0xa920260b\n      eq\n      tag_26\n      jumpi\n      dup1\n      0xca19c11c\n      eq\n      tag_27\n      jumpi\n      dup1\n      0xced0550f\n      eq\n      tag_28\n      jumpi\n      dup1\n      0xd547741f\n      eq\n      tag_29\n      jumpi\n      jump(tag_2)\n    tag_35:\n      dup1\n      0x95d89b41\n      gt\n      tag_37\n      jumpi\n      dup1\n      0x95d89b41\n      eq\n      tag_22\n      jumpi\n      dup1\n      0x992642e5\n      eq\n      tag_23\n      jumpi\n      dup1\n      0xa217fddf\n      eq\n      tag_24\n      jumpi\n      dup1\n      0xa9059cbb\n      eq\n      tag_25\n      jumpi\n      jump(tag_2)\n    tag_37:\n      dup1\n      0x79cc6790\n      eq\n      tag_18\n      jumpi\n      dup1\n      0x8456cb59\n      eq\n      tag_19\n      jumpi\n      dup1\n      0x904835c4\n      eq\n      tag_20\n      jumpi\n      dup1\n      0x91d14854\n      eq\n      tag_21\n      jumpi\n      jump(tag_2)\n    tag_34:\n      dup1\n      0x2a0acc6a\n      gt\n      tag_38\n      jumpi\n      dup1\n      0x3f4ba83a\n      gt\n      tag_39\n      jumpi\n      dup1\n      0x3f4ba83a\n      eq\n      tag_14\n      jumpi\n      dup1\n      0x42966c68\n      eq\n      tag_15\n      jumpi\n      dup1\n      0x5c975abb\n      eq\n      tag_16\n      jumpi\n      dup1\n      0x70a08231\n      eq\n      tag_17\n      jumpi\n      jump(tag_2)\n    tag_39:\n      dup1\n      0x2a0acc6a\n      eq\n      tag_10\n      jumpi\n      dup1\n      0x2f2ff15d\n      eq\n      tag_11\n      jumpi\n      dup1\n      0x313ce567\n      eq\n      tag_12\n      jumpi\n      dup1\n      0x36568abe\n      eq\n      tag_13\n      jumpi\n      jump(tag_2)\n    tag_38:\n      dup1\n      0x10002dbd\n      gt\n      tag_40\n      jumpi\n      dup1\n      0x10002dbd\n      eq\n      tag_6\n      jumpi\n      dup1\n      0x18160ddd\n      eq\n      tag_7\n      jumpi\n      dup1\n      0x23b872dd\n      eq\n      tag_8\n      jumpi\n      dup1\n      0x248a9ca3\n      eq\n      tag_9\n      jumpi\n      jump(tag_2)\n    tag_40:\n      dup1\n      0x01ffc9a7\n      eq\n      tag_3\n      jumpi\n      dup1\n      0x06fdde03\n      eq\n      tag_4\n      jumpi\n      dup1\n      0x095ea7b3\n      eq\n      tag_5\n      jumpi\n    tag_2:\n      0x00\n      dup1\n      revert\n        /* \"@openzeppelin/contracts/access/AccessControl.sol\":2565:2767  function supportsInterface(bytes4 interfaceId) public view virtual override returns (bool) {... */\n    tag_3:\n      tag_41\n      0x04\n      dup1\n      calldatasize\n      sub\n      dup2\n      add\n      swap1\n      tag_42\n      swap2\n      swap1\n      tag_43\n      jump\t// in\n    tag_42:\n      tag_44\n      jump\t// in\n    tag_41:\n      mload(0x40)\n      tag_45\n      swap2\n      swap1\n      tag_46\n      jump\t// in\n    tag_45:\n      mload(0x40)\n      dup1\n      swap2\n      sub\n      swap1\n      return\n        /* \"@openzeppelin/contracts/token/ERC20/ERC20.sol\":2074:2163  function name() public view virtual returns (string memory) {... */\n    tag_4:\n      tag_47\n      tag_48\n      jump\t// in\n    tag_47:\n      mload(0x40)\n      tag_49\n      swap2\n      swap1\n      tag_50\n      jump\t// in\n    tag_49:\n      mload(0x40)\n      dup1\n      swap2\n      sub\n      swap1\n      return\n        /* \"@openzeppelin/contracts/token/ERC20/ERC20.sol\":4293:4479  function approve(address spender, uint256 value) public virtual returns (bool) {... */\n    tag_5:\n      tag_51\n      0x04\n      dup1\n      calldatasize\n      sub\n      dup2\n      add\n      swap1\n      tag_52\n      swap2\n      swap1\n      tag_53\n      jump\t// in\n    tag_52:\n      tag_54\n      jump\t// in\n    tag_51:\n      mload(0x40)\n      tag_55\n      swap2\n      swap1\n      tag_46\n      jump\t// in\n    tag_55:\n      mload(0x40)\n      dup1\n      swap2\n      sub\n      swap1\n      return\n        /* \"contracts/MyToken.sol\":1392:1665  function buyBond(uint256 amountTokens) public{... */\n    tag_6:\n      tag_56\n      0x04\n      dup1\n      calldatasize\n      sub\n      dup2\n      add\n      swap1\n      tag_57\n      swap2\n      swap1\n      tag_58\n      jump\t// in\n    tag_57:\n      tag_59\n      jump\t// in\n    tag_56:\n      stop\n        /* \"@openzeppelin/contracts/token/ERC20/ERC20.sol\":3144:3241  function totalSupply() public view virtual returns (uint256) {... */\n    tag_7:\n      tag_60\n      tag_61\n      jump\t// in\n    tag_60:\n      mload(0x40)\n      tag_62\n      swap2\n      swap1\n      tag_63\n      jump\t// in\n    tag_62:\n      mload(0x40)\n      dup1\n      swap2\n      sub\n      swap1\n      return\n        /* \"@openzeppelin/contracts/token/ERC20/ERC20.sol\":5039:5283  function transferFrom(address from, address to, uint256 value) public virtual returns (bool) {... */\n    tag_8:\n      tag_64\n      0x04\n      dup1\n      calldatasize\n      sub\n      dup2\n      add\n      swap1\n      tag_65\n      swap2\n      swap1\n      tag_66\n      jump\t// in\n    tag_65:\n      tag_67\n      jump\t// in\n    tag_64:\n      mload(0x40)\n      tag_68\n      swap2\n      swap1\n      tag_46\n      jump\t// in\n    tag_68:\n      mload(0x40)\n      dup1\n      swap2\n      sub\n      swap1\n      return\n        /* \"@openzeppelin/contracts/access/AccessControl.sol\":3810:3930  function getRoleAdmin(bytes32 role) public view virtual returns (bytes32) {... */\n    tag_9:\n      tag_69\n      0x04\n      dup1\n      calldatasize\n      sub\n      dup2\n      add\n      swap1\n      tag_70\n      swap2\n      swap1\n      tag_71\n      jump\t// in\n    tag_70:\n      tag_72\n      jump\t// in\n    tag_69:\n      mload(0x40)\n      tag_73\n      swap2\n      swap1\n      tag_74\n      jump\t// in\n    tag_73:\n      mload(0x40)\n      dup1\n      swap2\n      sub\n      swap1\n      return\n        /* \"contracts/MyToken.sol\":462:512  bytes32 public constant ADMIN = keccak256(\"ADMIN\") */\n    tag_10:\n      tag_75\n      tag_76\n      jump\t// in\n    tag_75:\n      mload(0x40)\n      tag_77\n      swap2\n      swap1\n      tag_74\n      jump\t// in\n    tag_77:\n      mload(0x40)\n      dup1\n      swap2\n      sub\n      swap1\n      return\n        /* \"@openzeppelin/contracts/access/AccessControl.sol\":4226:4362  function grantRole(bytes32 role, address account) public virtual onlyRole(getRoleAdmin(role)) {... */\n    tag_11:\n      tag_78\n      0x04\n      dup1\n      calldatasize\n      sub\n      dup2\n      add\n      swap1\n      tag_79\n      swap2\n      swap1\n      tag_80\n      jump\t// in\n    tag_79:\n      tag_81\n      jump\t// in\n    tag_78:\n      stop\n        /* \"@openzeppelin/contracts/token/ERC20/ERC20.sol\":3002:3084  function decimals() public view virtual returns (uint8) {... */\n    tag_12:\n      tag_82\n      tag_83\n      jump\t// in\n    tag_82:\n      mload(0x40)\n      tag_84\n      swap2\n      swap1\n      tag_85\n      jump\t// in\n    tag_84:\n      mload(0x40)\n      dup1\n      swap2\n      sub\n      swap1\n      return\n        /* \"@openzeppelin/contracts/access/AccessControl.sol\":5328:5573  function renounceRole(bytes32 role, address callerConfirmation) public virtual {... */\n    tag_13:\n      tag_86\n      0x04\n      dup1\n      calldatasize\n      sub\n      dup2\n      add\n      swap1\n      tag_87\n      swap2\n      swap1\n      tag_80\n      jump\t// in\n    tag_87:\n      tag_88\n      jump\t// in\n    tag_86:\n      stop\n        /* \"contracts/MyToken.sol\":1318:1387  function unpause() public onlyRole(ADMIN) {... */\n    tag_14:\n      tag_89\n      tag_90\n      jump\t// in\n    tag_89:\n      stop\n        /* \"@openzeppelin/contracts/token/ERC20/extensions/ERC20Burnable.sol\":618:705  function burn(uint256 value) public virtual {... */\n    tag_15:\n      tag_91\n      0x04\n      dup1\n      calldatasize\n      sub\n      dup2\n      add\n      swap1\n      tag_92\n      swap2\n      swap1\n      tag_58\n      jump\t// in\n    tag_92:\n      tag_93\n      jump\t// in\n    tag_91:\n      stop\n        /* \"@openzeppelin/contracts/utils/Pausable.sol\":1850:1934  function paused() public view virtual returns (bool) {... */\n    tag_16:\n      tag_94\n      tag_95\n      jump\t// in\n    tag_94:\n      mload(0x40)\n      tag_96\n      swap2\n      swap1\n      tag_46\n      jump\t// in\n    tag_96:\n      mload(0x40)\n      dup1\n      swap2\n      sub\n      swap1\n      return\n        /* \"@openzeppelin/contracts/token/ERC20/ERC20.sol\":3299:3415  function balanceOf(address account) public view virtual returns (uint256) {... */\n    tag_17:\n      tag_97\n      0x04\n      dup1\n      calldatasize\n      sub\n      dup2\n      add\n      swap1\n      tag_98\n      swap2\n      swap1\n      tag_99\n      jump\t// in\n    tag_98:\n      tag_100\n      jump\t// in\n    tag_97:\n      mload(0x40)\n      tag_101\n      swap2\n      swap1\n      tag_63\n      jump\t// in\n    tag_101:\n      mload(0x40)\n      dup1\n      swap2\n      sub\n      swap1\n      return\n        /* \"@openzeppelin/contracts/token/ERC20/extensions/ERC20Burnable.sol\":1021:1179  function burnFrom(address account, uint256 value) public virtual {... */\n    tag_18:\n      tag_102\n      0x04\n      dup1\n      calldatasize\n      sub\n      dup2\n      add\n      swap1\n      tag_103\n      swap2\n      swap1\n      tag_53\n      jump\t// in\n    tag_103:\n      tag_104\n      jump\t// in\n    tag_102:\n      stop\n        /* \"contracts/MyToken.sol\":1247:1312  function pause() public onlyRole(ADMIN) {... */\n    tag_19:\n      tag_105\n      tag_106\n      jump\t// in\n    tag_105:\n      stop\n        /* \"contracts/MyToken.sol\":1872:2277  function distributeInterestAll(address[] memory tokenHolders, uint256[] memory amounts) public onlyRole(ADMIN) {... */\n    tag_20:\n      tag_107\n      0x04\n      dup1\n      calldatasize\n      sub\n      dup2\n      add\n      swap1\n      tag_108\n      swap2\n      swap1\n      tag_109\n      jump\t// in\n    tag_108:\n      tag_110\n      jump\t// in\n    tag_107:\n      stop\n        /* \"@openzeppelin/contracts/access/AccessControl.sol\":2854:2990  function hasRole(bytes32 role, address account) public view virtual returns (bool) {... */\n    tag_21:\n      tag_111\n      0x04\n      dup1\n      calldatasize\n      sub\n      dup2\n      add\n      swap1\n      tag_112\n      swap2\n      swap1\n      tag_80\n      jump\t// in\n    tag_112:\n      tag_113\n      jump\t// in\n    tag_111:\n      mload(0x40)\n      tag_114\n      swap2\n      swap1\n      tag_46\n      jump\t// in\n    tag_114:\n      mload(0x40)\n      dup1\n      swap2\n      sub\n      swap1\n      return\n        /* \"@openzeppelin/contracts/token/ERC20/ERC20.sol\":2276:2369  function symbol() public view virtual returns (string memory) {... */\n    tag_22:\n      tag_115\n      tag_116\n      jump\t// in\n    tag_115:\n      mload(0x40)\n      tag_117\n      swap2\n      swap1\n      tag_50\n      jump\t// in\n    tag_117:\n      mload(0x40)\n      dup1\n      swap2\n      sub\n      swap1\n      return\n        /* \"contracts/MyToken.sol\":586:621  address public immutable stableCoin */\n    tag_23:\n      tag_118\n      tag_119\n      jump\t// in\n    tag_118:\n      mload(0x40)\n      tag_120\n      swap2\n      swap1\n      tag_121\n      jump\t// in\n    tag_120:\n      mload(0x40)\n      dup1\n      swap2\n      sub\n      swap1\n      return\n        /* \"@openzeppelin/contracts/access/AccessControl.sol\":2187:2236  bytes32 public constant DEFAULT_ADMIN_ROLE = 0x00 */\n    tag_24:\n      tag_122\n      tag_123\n      jump\t// in\n    tag_122:\n      mload(0x40)\n      tag_124\n      swap2\n      swap1\n      tag_74\n      jump\t// in\n    tag_124:\n      mload(0x40)\n      dup1\n      swap2\n      sub\n      swap1\n      return\n        /* \"@openzeppelin/contracts/token/ERC20/ERC20.sol\":3610:3788  function transfer(address to, uint256 value) public virtual returns (bool) {... */\n    tag_25:\n      tag_125\n      0x04\n      dup1\n      calldatasize\n      sub\n      dup2\n      add\n      swap1\n      tag_126\n      swap2\n      swap1\n      tag_53\n      jump\t// in\n    tag_126:\n      tag_127\n      jump\t// in\n    tag_125:\n      mload(0x40)\n      tag_128\n      swap2\n      swap1\n      tag_46\n      jump\t// in\n    tag_128:\n      mload(0x40)\n      dup1\n      swap2\n      sub\n      swap1\n      return\n        /* \"contracts/MyToken.sol\":670:703  uint256 public immutable unitSize */\n    tag_26:\n      tag_129\n      tag_130\n      jump\t// in\n    tag_129:\n      mload(0x40)\n      tag_131\n      swap2\n      swap1\n      tag_63\n      jump\t// in\n    tag_131:\n      mload(0x40)\n      dup1\n      swap2\n      sub\n      swap1\n      return\n        /* \"contracts/MyToken.sol\":2614:2954  function claimFaceValue(uint256 amountTokens) public{... */\n    tag_27:\n      tag_132\n      0x04\n      dup1\n      calldatasize\n      sub\n      dup2\n      add\n      swap1\n      tag_133\n      swap2\n      swap1\n      tag_58\n      jump\t// in\n    tag_133:\n      tag_134\n      jump\t// in\n    tag_132:\n      stop\n        /* \"contracts/MyToken.sol\":2282:2608  function claimInvestorFunds() public onlyRole(BOND_ISSUER){... */\n    tag_28:\n      tag_135\n      tag_136\n      jump\t// in\n    tag_135:\n      stop\n        /* \"@openzeppelin/contracts/access/AccessControl.sol\":4642:4780  function revokeRole(bytes32 role, address account) public virtual onlyRole(getRoleAdmin(role)) {... */\n    tag_29:\n      tag_137\n      0x04\n      dup1\n      calldatasize\n      sub\n      dup2\n      add\n      swap1\n      tag_138\n      swap2\n      swap1\n      tag_80\n      jump\t// in\n    tag_138:\n      tag_139\n      jump\t// in\n    tag_137:\n      stop\n        /* \"@openzeppelin/contracts/token/ERC20/ERC20.sol\":3846:3986  function allowance(address owner, address spender) public view virtual returns (uint256) {... */\n    tag_30:\n      tag_140\n      0x04\n      dup1\n      calldatasize\n      sub\n      dup2\n      add\n      swap1\n      tag_141\n      swap2\n      swap1\n      tag_142\n      jump\t// in\n    tag_141:\n      tag_143\n      jump\t// in\n    tag_140:\n      mload(0x40)\n      tag_144\n      swap2\n      swap1\n      tag_63\n      jump\t// in\n    tag_144:\n      mload(0x40)\n      dup1\n      swap2\n      sub\n      swap1\n      return\n        /* \"contracts/MyToken.sol\":518:580  bytes32 public constant BOND_ISSUER = keccak256(\"BOND_ISSUER\") */\n    tag_31:\n      tag_145\n      tag_146\n      jump\t// in\n    tag_145:\n      mload(0x40)\n      tag_147\n      swap2\n      swap1\n      tag_74\n      jump\t// in\n    tag_147:\n      mload(0x40)\n      dup1\n      swap2\n      sub\n      swap1\n      return\n        /* \"contracts/MyToken.sol\":627:664  address public immutable interestCoin */\n    tag_32:\n      tag_148\n      tag_149\n      jump\t// in\n    tag_148:\n      mload(0x40)\n      tag_150\n      swap2\n      swap1\n      tag_121\n      jump\t// in\n    tag_150:\n      mload(0x40)\n      dup1\n      swap2\n      sub\n      swap1\n      return\n        /* \"contracts/MyToken.sol\":1671:1867  function distributeInterest(address tokenHolder,uint256 amount) public onlyRole(ADMIN){... */\n    tag_33:\n      tag_151\n      0x04\n      dup1\n      calldatasize\n      sub\n      dup2\n      add\n      swap1\n      tag_152\n      swap2\n      swap1\n      tag_53\n      jump\t// in\n    tag_152:\n      tag_153\n      jump\t// in\n    tag_151:\n      stop\n        /* \"@openzeppelin/contracts/access/AccessControl.sol\":2565:2767  function supportsInterface(bytes4 interfaceId) public view virtual override returns (bool) {... */\n    tag_44:\n        /* \"@openzeppelin/contracts/access/AccessControl.sol\":2650:2654  bool */\n      0x00\n        /* \"@openzeppelin/contracts/access/AccessControl.sol\":2688:2720  type(IAccessControl).interfaceId */\n      0x7965db0b00000000000000000000000000000000000000000000000000000000\n        /* \"@openzeppelin/contracts/access/AccessControl.sol\":2673:2720  interfaceId == type(IAccessControl).interfaceId */\n      not(0xffffffffffffffffffffffffffffffffffffffffffffffffffffffff)\n      and\n        /* \"@openzeppelin/contracts/access/AccessControl.sol\":2673:2684  interfaceId */\n      dup3\n        /* \"@openzeppelin/contracts/access/AccessControl.sol\":2673:2720  interfaceId == type(IAccessControl).interfaceId */\n      not(0xffffffffffffffffffffffffffffffffffffffffffffffffffffffff)\n      and\n      eq\n        /* \"@openzeppelin/contracts/access/AccessControl.sol\":2673:2760  interfaceId == type(IAccessControl).interfaceId || super.supportsInterface(interfaceId) */\n      dup1\n      tag_155\n      jumpi\n      pop\n        /* \"@openzeppelin/contracts/access/AccessControl.sol\":2724:2760  super.supportsInterface(interfaceId) */\n      tag_156\n        /* \"@openzeppelin/contracts/access/AccessControl.sol\":2748:2759  interfaceId */\n      dup3\n        /* \"@openzeppelin/contracts/access/AccessControl.sol\":2724:2747  super.supportsInterface */\n      tag_157\n        /* \"@openzeppelin/contracts/access/AccessControl.sol\":2724:2760  super.supportsInterface(interfaceId) */\n      jump\t// in\n    tag_156:\n        /* \"@openzeppelin/contracts/access/AccessControl.sol\":2673:2760  interfaceId == type(IAccessControl).interfaceId || super.supportsInterface(interfaceId) */\n    tag_155:\n        /* \"@openzeppelin/contracts/access/AccessControl.sol\":2666:2760  return interfaceId == type(IAccessControl).interfaceId || super.supportsInterface(interfaceId) */\n      swap1\n      pop\n        /* \"@openzeppelin/contracts/access/AccessControl.sol\":2565:2767  function supportsInterface(bytes4 interfaceId) public view virtual override returns (bool) {... */\n      swap2\n      swap1\n      pop\n      jump\t// out\n        /* \"@openzeppelin/contracts/token/ERC20/ERC20.sol\":2074:2163  function name() public view virtual returns (string memory) {... */\n    tag_48:\n        /* \"@openzeppelin/contracts/token/ERC20/ERC20.sol\":2119:2132  string memory */\n      0x60\n        /* \"@openzeppelin/contracts/token/ERC20/ERC20.sol\":2151:2156  _name */\n      0x03\n        /* \"@openzeppelin/contracts/token/ERC20/ERC20.sol\":2144:2156  return _name */\n      dup1\n      sload\n      tag_159\n      swap1\n      tag_160\n      jump\t// in\n    tag_159:\n      dup1\n      0x1f\n      add\n      0x20\n      dup1\n      swap2\n      div\n      mul\n      0x20\n      add\n      mload(0x40)\n      swap1\n      dup2\n      add\n      0x40\n      mstore\n      dup1\n      swap3\n      swap2\n      swap1\n      dup2\n      dup2\n      mstore\n      0x20\n      add\n      dup3\n      dup1\n      sload\n      tag_161\n      swap1\n      tag_160\n      jump\t// in\n    tag_161:\n      dup1\n      iszero\n      tag_162\n      jumpi\n      dup1\n      0x1f\n      lt\n      tag_163\n      jumpi\n      0x0100\n      dup1\n      dup4\n      sload\n      div\n      mul\n      dup4\n      mstore\n      swap2\n      0x20\n      add\n      swap2\n      jump(tag_162)\n    tag_163:\n      dup3\n      add\n      swap2\n      swap1\n      0x00\n      mstore\n      keccak256(0x00, 0x20)\n      swap1\n    tag_164:\n      dup2\n      sload\n      dup2\n      mstore\n      swap1\n      0x01\n      add\n      swap1\n      0x20\n      add\n      dup1\n      dup4\n      gt\n      tag_164\n      jumpi\n      dup3\n      swap1\n      sub\n      0x1f\n      and\n      dup3\n      add\n      swap2\n    tag_162:\n      pop\n      pop\n      pop\n      pop\n      pop\n      swap1\n      pop\n        /* \"@openzeppelin/contracts/token/ERC20/ERC20.sol\":2074:2163  function name() public view virtual returns (string memory) {... */\n      swap1\n      jump\t// out\n        /* \"@openzeppelin/contracts/token/ERC20/ERC20.sol\":4293:4479  function approve(address spender, uint256 value) public virtual returns (bool) {... */\n    tag_54:\n        /* \"@openzeppelin/contracts/token/ERC20/ERC20.sol\":4366:4370  bool */\n      0x00\n        /* \"@openzeppelin/contracts/token/ERC20/ERC20.sol\":4382:4395  address owner */\n      dup1\n        /* \"@openzeppelin/contracts/token/ERC20/ERC20.sol\":4398:4410  _msgSender() */\n      tag_166\n        /* \"@openzeppelin/contracts/token/ERC20/ERC20.sol\":4398:4408  _msgSender */\n      tag_167\n        /* \"@openzeppelin/contracts/token/ERC20/ERC20.sol\":4398:4410  _msgSender() */\n      jump\t// in\n    tag_166:\n        /* \"@openzeppelin/contracts/token/ERC20/ERC20.sol\":4382:4410  address owner = _msgSender() */\n      swap1\n      pop\n        /* \"@openzeppelin/contracts/token/ERC20/ERC20.sol\":4420:4451  _approve(owner, spender, value) */\n      tag_168\n        /* \"@openzeppelin/contracts/token/ERC20/ERC20.sol\":4429:4434  owner */\n      dup2\n        /* \"@openzeppelin/contracts/token/ERC20/ERC20.sol\":4436:4443  spender */\n      dup6\n        /* \"@openzeppelin/contracts/token/ERC20/ERC20.sol\":4445:4450  value */\n      dup6\n        /* \"@openzeppelin/contracts/token/ERC20/ERC20.sol\":4420:4428  _approve */\n      tag_169\n        /* \"@openzeppelin/contracts/token/ERC20/ERC20.sol\":4420:4451  _approve(owner, spender, value) */\n      jump\t// in\n    tag_168:\n        /* \"@openzeppelin/contracts/token/ERC20/ERC20.sol\":4468:4472  true */\n      0x01\n        /* \"@openzeppelin/contracts/token/ERC20/ERC20.sol\":4461:4472  return true */\n      swap2\n      pop\n      pop\n        /* \"@openzeppelin/contracts/token/ERC20/ERC20.sol\":4293:4479  function approve(address spender, uint256 value) public virtual returns (bool) {... */\n      swap3\n      swap2\n      pop\n      pop\n      jump\t// out\n        /* \"contracts/MyToken.sol\":1392:1665  function buyBond(uint256 amountTokens) public{... */\n    tag_59:\n        /* \"contracts/MyToken.sol\":1462:1472  stableCoin */\n      immutable(\"0x560f53f9e6643f63dace8b2695c9680c3b0d96473ff0914d6a3517970d490ef6\")\n        /* \"contracts/MyToken.sol\":1455:1486  IERC20(stableCoin).transferFrom */\n      0xffffffffffffffffffffffffffffffffffffffff\n      and\n      0x23b872dd\n        /* \"contracts/MyToken.sol\":1487:1497  msg.sender */\n      caller\n        /* \"contracts/MyToken.sol\":1506:1510  this */\n      address\n        /* \"contracts/MyToken.sol\":1525:1533  unitSize */\n      immutable(\"0xa92a119aeb5e5432887b46772e423cfac2594bfdf681094c34bd022e8c31d0\")\n        /* \"contracts/MyToken.sol\":1512:1524  amountTokens */\n      dup6\n        /* \"contracts/MyToken.sol\":1512:1533  amountTokens*unitSize */\n      tag_171\n      swap2\n      swap1\n      tag_172\n      jump\t// in\n    tag_171:\n        /* \"contracts/MyToken.sol\":1455:1534  IERC20(stableCoin).transferFrom(msg.sender,address(this),amountTokens*unitSize) */\n      mload(0x40)\n      dup5\n      0xffffffff\n      and\n      0xe0\n      shl\n      dup2\n      mstore\n      0x04\n      add\n      tag_173\n      swap4\n      swap3\n      swap2\n      swap1\n      tag_174\n      jump\t// in\n    tag_173:\n      0x20\n      mload(0x40)\n      dup1\n      dup4\n      sub\n      dup2\n      0x00\n      dup8\n      gas\n      call\n      iszero\n      dup1\n      iszero\n      tag_176\n      jumpi\n      returndatasize\n      0x00\n      dup1\n      returndatacopy\n      revert(0x00, returndatasize)\n    tag_176:\n      pop\n      pop\n      pop\n      pop\n      mload(0x40)\n      returndatasize\n      not(0x1f)\n      0x1f\n      dup3\n      add\n      and\n      dup3\n      add\n      dup1\n      0x40\n      mstore\n      pop\n      dup2\n      add\n      swap1\n      tag_177\n      swap2\n      swap1\n      tag_178\n      jump\t// in\n    tag_177:\n        /* \"contracts/MyToken.sol\":1447:1565  require(IERC20(stableCoin).transferFrom(msg.sender,address(this),amountTokens*unitSize),\"Stable coin transfer failed\") */\n      tag_179\n      jumpi\n      mload(0x40)\n      0x08c379a000000000000000000000000000000000000000000000000000000000\n      dup2\n      mstore\n      0x04\n      add\n      tag_180\n      swap1\n      tag_181\n      jump\t// in\n    tag_180:\n      mload(0x40)\n      dup1\n      swap2\n      sub\n      swap1\n      revert\n    tag_179:\n        /* \"contracts/MyToken.sol\":1589:1593  this */\n      address\n        /* \"contracts/MyToken.sol\":1583:1603  ERC20(this).transfer */\n      0xffffffffffffffffffffffffffffffffffffffff\n      and\n      0xa9059cbb\n        /* \"contracts/MyToken.sol\":1604:1614  msg.sender */\n      caller\n        /* \"contracts/MyToken.sol\":1615:1627  amountTokens */\n      dup4\n        /* \"contracts/MyToken.sol\":1583:1628  ERC20(this).transfer(msg.sender,amountTokens) */\n      mload(0x40)\n      dup4\n      0xffffffff\n      and\n      0xe0\n      shl\n      dup2\n      mstore\n      0x04\n      add\n      tag_182\n      swap3\n      swap2\n      swap1\n      tag_183\n      jump\t// in\n    tag_182:\n      0x20\n      mload(0x40)\n      dup1\n      dup4\n      sub\n      dup2\n      0x00\n      dup8\n      gas\n      call\n      iszero\n      dup1\n      iszero\n      tag_185\n      jumpi\n      returndatasize\n      0x00\n      dup1\n      returndatacopy\n      revert(0x00, returndatasize)\n    tag_185:\n      pop\n      pop\n      pop\n      pop\n      mload(0x40)\n      returndatasize\n      not(0x1f)\n      0x1f\n      dup3\n      add\n      and\n      dup3\n      add\n      dup1\n      0x40\n      mstore\n      pop\n      dup2\n      add\n      swap1\n      tag_186\n      swap2\n      swap1\n      tag_178\n      jump\t// in\n    tag_186:\n        /* \"contracts/MyToken.sol\":1575:1658  require(ERC20(this).transfer(msg.sender,amountTokens),\"Bond token transfer failed\") */\n      tag_187\n      jumpi\n      mload(0x40)\n      0x08c379a000000000000000000000000000000000000000000000000000000000\n      dup2\n      mstore\n      0x04\n      add\n      tag_188\n      swap1\n      tag_189\n      jump\t// in\n    tag_188:\n      mload(0x40)\n      dup1\n      swap2\n      sub\n      swap1\n      revert\n    tag_187:\n        /* \"contracts/MyToken.sol\":1392:1665  function buyBond(uint256 amountTokens) public{... */\n      pop\n      jump\t// out\n        /* \"@openzeppelin/contracts/token/ERC20/ERC20.sol\":3144:3241  function totalSupply() public view virtual returns (uint256) {... */\n    tag_61:\n        /* \"@openzeppelin/contracts/token/ERC20/ERC20.sol\":3196:3203  uint256 */\n      0x00\n        /* \"@openzeppelin/contracts/token/ERC20/ERC20.sol\":3222:3234  _totalSupply */\n      sload(0x02)\n        /* \"@openzeppelin/contracts/token/ERC20/ERC20.sol\":3215:3234  return _totalSupply */\n      swap1\n      pop\n        /* \"@openzeppelin/contracts/token/ERC20/ERC20.sol\":3144:3241  function totalSupply() public view virtual returns (uint256) {... */\n      swap1\n      jump\t// out\n        /* \"@openzeppelin/contracts/token/ERC20/ERC20.sol\":5039:5283  function transferFrom(address from, address to, uint256 value) public virtual returns (bool) {... */\n    tag_67:\n        /* \"@openzeppelin/contracts/token/ERC20/ERC20.sol\":5126:5130  bool */\n      0x00\n        /* \"@openzeppelin/contracts/token/ERC20/ERC20.sol\":5142:5157  address spender */\n      dup1\n        /* \"@openzeppelin/contracts/token/ERC20/ERC20.sol\":5160:5172  _msgSender() */\n      tag_192\n        /* \"@openzeppelin/contracts/token/ERC20/ERC20.sol\":5160:5170  _msgSender */\n      tag_167\n        /* \"@openzeppelin/contracts/token/ERC20/ERC20.sol\":5160:5172  _msgSender() */\n      jump\t// in\n    tag_192:\n        /* \"@openzeppelin/contracts/token/ERC20/ERC20.sol\":5142:5172  address spender = _msgSender() */\n      swap1\n      pop\n        /* \"@openzeppelin/contracts/token/ERC20/ERC20.sol\":5182:5219  _spendAllowance(from, spender, value) */\n      tag_193\n        /* \"@openzeppelin/contracts/token/ERC20/ERC20.sol\":5198:5202  from */\n      dup6\n        /* \"@openzeppelin/contracts/token/ERC20/ERC20.sol\":5204:5211  spender */\n      dup3\n        /* \"@openzeppelin/contracts/token/ERC20/ERC20.sol\":5213:5218  value */\n      dup6\n        /* \"@openzeppelin/contracts/token/ERC20/ERC20.sol\":5182:5197  _spendAllowance */\n      tag_194\n        /* \"@openzeppelin/contracts/token/ERC20/ERC20.sol\":5182:5219  _spendAllowance(from, spender, value) */\n      jump\t// in\n    tag_193:\n        /* \"@openzeppelin/contracts/token/ERC20/ERC20.sol\":5229:5255  _transfer(from, to, value) */\n      tag_195\n        /* \"@openzeppelin/contracts/token/ERC20/ERC20.sol\":5239:5243  from */\n      dup6\n        /* \"@openzeppelin/contracts/token/ERC20/ERC20.sol\":5245:5247  to */\n      dup6\n        /* \"@openzeppelin/contracts/token/ERC20/ERC20.sol\":5249:5254  value */\n      dup6\n        /* \"@openzeppelin/contracts/token/ERC20/ERC20.sol\":5229:5238  _transfer */\n      tag_196\n        /* \"@openzeppelin/contracts/token/ERC20/ERC20.sol\":5229:5255  _transfer(from, to, value) */\n      jump\t// in\n    tag_195:\n        /* \"@openzeppelin/contracts/token/ERC20/ERC20.sol\":5272:5276  true */\n      0x01\n        /* \"@openzeppelin/contracts/token/ERC20/ERC20.sol\":5265:5276  return true */\n      swap2\n      pop\n      pop\n        /* \"@openzeppelin/contracts/token/ERC20/ERC20.sol\":5039:5283  function transferFrom(address from, address to, uint256 value) public virtual returns (bool) {... */\n      swap4\n      swap3\n      pop\n      pop\n      pop\n      jump\t// out\n        /* \"@openzeppelin/contracts/access/AccessControl.sol\":3810:3930  function getRoleAdmin(bytes32 role) public view virtual returns (bytes32) {... */\n    tag_72:\n        /* \"@openzeppelin/contracts/access/AccessControl.sol\":3875:3882  bytes32 */\n      0x00\n        /* \"@openzeppelin/contracts/access/AccessControl.sol\":3901:3907  _roles */\n      0x06\n        /* \"@openzeppelin/contracts/access/AccessControl.sol\":3901:3913  _roles[role] */\n      0x00\n        /* \"@openzeppelin/contracts/access/AccessControl.sol\":3908:3912  role */\n      dup4\n        /* \"@openzeppelin/contracts/access/AccessControl.sol\":3901:3913  _roles[role] */\n      dup2\n      mstore\n      0x20\n      add\n      swap1\n      dup2\n      mstore\n      0x20\n      add\n      0x00\n      keccak256\n        /* \"@openzeppelin/contracts/access/AccessControl.sol\":3901:3923  _roles[role].adminRole */\n      0x01\n      add\n      sload\n        /* \"@openzeppelin/contracts/access/AccessControl.sol\":3894:3923  return _roles[role].adminRole */\n      swap1\n      pop\n        /* \"@openzeppelin/contracts/access/AccessControl.sol\":3810:3930  function getRoleAdmin(bytes32 role) public view virtual returns (bytes32) {... */\n      swap2\n      swap1\n      pop\n      jump\t// out\n        /* \"contracts/MyToken.sol\":462:512  bytes32 public constant ADMIN = keccak256(\"ADMIN\") */\n    tag_76:\n        /* \"contracts/MyToken.sol\":494:512  keccak256(\"ADMIN\") */\n      0xdf8b4c520ffe197c5343c6f5aec59570151ef9a492f2c624fd45ddde6135ec42\n        /* \"contracts/MyToken.sol\":462:512  bytes32 public constant ADMIN = keccak256(\"ADMIN\") */\n      dup2\n      jump\t// out\n        /* \"@openzeppelin/contracts/access/AccessControl.sol\":4226:4362  function grantRole(bytes32 role, address account) public virtual onlyRole(getRoleAdmin(role)) {... */\n    tag_81:\n        /* \"@openzeppelin/contracts/access/AccessControl.sol\":4300:4318  getRoleAdmin(role) */\n      tag_198\n        /* \"@openzeppelin/contracts/access/AccessControl.sol\":4313:4317  role */\n      dup3\n        /* \"@openzeppelin/contracts/access/AccessControl.sol\":4300:4312  getRoleAdmin */\n      tag_72\n        /* \"@openzeppelin/contracts/access/AccessControl.sol\":4300:4318  getRoleAdmin(role) */\n      jump\t// in\n    tag_198:\n        /* \"@openzeppelin/contracts/access/AccessControl.sol\":2464:2480  _checkRole(role) */\n      tag_200\n        /* \"@openzeppelin/contracts/access/AccessControl.sol\":2475:2479  role */\n      dup2\n        /* \"@openzeppelin/contracts/access/AccessControl.sol\":2464:2474  _checkRole */\n      tag_201\n        /* \"@openzeppelin/contracts/access/AccessControl.sol\":2464:2480  _checkRole(role) */\n      jump\t// in\n    tag_200:\n        /* \"@openzeppelin/contracts/access/AccessControl.sol\":4330:4355  _grantRole(role, account) */\n      tag_203\n        /* \"@openzeppelin/contracts/access/AccessControl.sol\":4341:4345  role */\n      dup4\n        /* \"@openzeppelin/contracts/access/AccessControl.sol\":4347:4354  account */\n      dup4\n        /* \"@openzeppelin/contracts/access/AccessControl.sol\":4330:4340  _grantRole */\n      tag_204\n        /* \"@openzeppelin/contracts/access/AccessControl.sol\":4330:4355  _grantRole(role, account) */\n      jump\t// in\n    tag_203:\n      pop\n        /* \"@openzeppelin/contracts/access/AccessControl.sol\":4226:4362  function grantRole(bytes32 role, address account) public virtual onlyRole(getRoleAdmin(role)) {... */\n      pop\n      pop\n      pop\n      jump\t// out\n        /* \"@openzeppelin/contracts/token/ERC20/ERC20.sol\":3002:3084  function decimals() public view virtual returns (uint8) {... */\n    tag_83:\n        /* \"@openzeppelin/contracts/token/ERC20/ERC20.sol\":3051:3056  uint8 */\n      0x00\n        /* \"@openzeppelin/contracts/token/ERC20/ERC20.sol\":3075:3077  18 */\n      0x12\n        /* \"@openzeppelin/contracts/token/ERC20/ERC20.sol\":3068:3077  return 18 */\n      swap1\n      pop\n        /* \"@openzeppelin/contracts/token/ERC20/ERC20.sol\":3002:3084  function decimals() public view virtual returns (uint8) {... */\n      swap1\n      jump\t// out\n        /* \"@openzeppelin/contracts/access/AccessControl.sol\":5328:5573  function renounceRole(bytes32 role, address callerConfirmation) public virtual {... */\n    tag_88:\n        /* \"@openzeppelin/contracts/access/AccessControl.sol\":5443:5455  _msgSender() */\n      tag_207\n        /* \"@openzeppelin/contracts/access/AccessControl.sol\":5443:5453  _msgSender */\n      tag_167\n        /* \"@openzeppelin/contracts/access/AccessControl.sol\":5443:5455  _msgSender() */\n      jump\t// in\n    tag_207:\n        /* \"@openzeppelin/contracts/access/AccessControl.sol\":5421:5455  callerConfirmation != _msgSender() */\n      0xffffffffffffffffffffffffffffffffffffffff\n      and\n        /* \"@openzeppelin/contracts/access/AccessControl.sol\":5421:5439  callerConfirmation */\n      dup2\n        /* \"@openzeppelin/contracts/access/AccessControl.sol\":5421:5455  callerConfirmation != _msgSender() */\n      0xffffffffffffffffffffffffffffffffffffffff\n      and\n      eq\n        /* \"@openzeppelin/contracts/access/AccessControl.sol\":5417:5519  if (callerConfirmation != _msgSender()) {... */\n      tag_208\n      jumpi\n        /* \"@openzeppelin/contracts/access/AccessControl.sol\":5478:5508  AccessControlBadConfirmation() */\n      mload(0x40)\n      0x6697b23200000000000000000000000000000000000000000000000000000000\n      dup2\n      mstore\n      0x04\n      add\n      mload(0x40)\n      dup1\n      swap2\n      sub\n      swap1\n      revert\n        /* \"@openzeppelin/contracts/access/AccessControl.sol\":5417:5519  if (callerConfirmation != _msgSender()) {... */\n    tag_208:\n        /* \"@openzeppelin/contracts/access/AccessControl.sol\":5529:5566  _revokeRole(role, callerConfirmation) */\n      tag_209\n        /* \"@openzeppelin/contracts/access/AccessControl.sol\":5541:5545  role */\n      dup3\n        /* \"@openzeppelin/contracts/access/AccessControl.sol\":5547:5565  callerConfirmation */\n      dup3\n        /* \"@openzeppelin/contracts/access/AccessControl.sol\":5529:5540  _revokeRole */\n      tag_210\n        /* \"@openzeppelin/contracts/access/AccessControl.sol\":5529:5566  _revokeRole(role, callerConfirmation) */\n      jump\t// in\n    tag_209:\n      pop\n        /* \"@openzeppelin/contracts/access/AccessControl.sol\":5328:5573  function renounceRole(bytes32 role, address callerConfirmation) public virtual {... */\n      pop\n      pop\n      jump\t// out\n        /* \"contracts/MyToken.sol\":1318:1387  function unpause() public onlyRole(ADMIN) {... */\n    tag_90:\n        /* \"contracts/MyToken.sol\":494:512  keccak256(\"ADMIN\") */\n      0xdf8b4c520ffe197c5343c6f5aec59570151ef9a492f2c624fd45ddde6135ec42\n        /* \"@openzeppelin/contracts/access/AccessControl.sol\":2464:2480  _checkRole(role) */\n      tag_212\n        /* \"@openzeppelin/contracts/access/AccessControl.sol\":2475:2479  role */\n      dup2\n        /* \"@openzeppelin/contracts/access/AccessControl.sol\":2464:2474  _checkRole */\n      tag_201\n        /* \"@openzeppelin/contracts/access/AccessControl.sol\":2464:2480  _checkRole(role) */\n      jump\t// in\n    tag_212:\n        /* \"contracts/MyToken.sol\":1370:1380  _unpause() */\n      tag_214\n        /* \"contracts/MyToken.sol\":1370:1378  _unpause */\n      tag_215\n        /* \"contracts/MyToken.sol\":1370:1380  _unpause() */\n      jump\t// in\n    tag_214:\n        /* \"contracts/MyToken.sol\":1318:1387  function unpause() public onlyRole(ADMIN) {... */\n      pop\n      jump\t// out\n        /* \"@openzeppelin/contracts/token/ERC20/extensions/ERC20Burnable.sol\":618:705  function burn(uint256 value) public virtual {... */\n    tag_93:\n        /* \"@openzeppelin/contracts/token/ERC20/extensions/ERC20Burnable.sol\":672:698  _burn(_msgSender(), value) */\n      tag_217\n        /* \"@openzeppelin/contracts/token/ERC20/extensions/ERC20Burnable.sol\":678:690  _msgSender() */\n      tag_218\n        /* \"@openzeppelin/contracts/token/ERC20/extensions/ERC20Burnable.sol\":678:688  _msgSender */\n      tag_167\n        /* \"@openzeppelin/contracts/token/ERC20/extensions/ERC20Burnable.sol\":678:690  _msgSender() */\n      jump\t// in\n    tag_218:\n        /* \"@openzeppelin/contracts/token/ERC20/extensions/ERC20Burnable.sol\":692:697  value */\n      dup3\n        /* \"@openzeppelin/contracts/token/ERC20/extensions/ERC20Burnable.sol\":672:677  _burn */\n      tag_219\n        /* \"@openzeppelin/contracts/token/ERC20/extensions/ERC20Burnable.sol\":672:698  _burn(_msgSender(), value) */\n      jump\t// in\n    tag_217:\n        /* \"@openzeppelin/contracts/token/ERC20/extensions/ERC20Burnable.sol\":618:705  function burn(uint256 value) public virtual {... */\n      pop\n      jump\t// out\n        /* \"@openzeppelin/contracts/utils/Pausable.sol\":1850:1934  function paused() public view virtual returns (bool) {... */\n    tag_95:\n        /* \"@openzeppelin/contracts/utils/Pausable.sol\":1897:1901  bool */\n      0x00\n        /* \"@openzeppelin/contracts/utils/Pausable.sol\":1920:1927  _paused */\n      0x05\n      0x00\n      swap1\n      sload\n      swap1\n      0x0100\n      exp\n      swap1\n      div\n      0xff\n      and\n        /* \"@openzeppelin/contracts/utils/Pausable.sol\":1913:1927  return _paused */\n      swap1\n      pop\n        /* \"@openzeppelin/contracts/utils/Pausable.sol\":1850:1934  function paused() public view virtual returns (bool) {... */\n      swap1\n      jump\t// out\n        /* \"@openzeppelin/contracts/token/ERC20/ERC20.sol\":3299:3415  function balanceOf(address account) public view virtual returns (uint256) {... */\n    tag_100:\n        /* \"@openzeppelin/contracts/token/ERC20/ERC20.sol\":3364:3371  uint256 */\n      0x00\n        /* \"@openzeppelin/contracts/token/ERC20/ERC20.sol\":3390:3399  _balances */\n      dup1\n        /* \"@openzeppelin/contracts/token/ERC20/ERC20.sol\":3390:3408  _balances[account] */\n      0x00\n        /* \"@openzeppelin/contracts/token/ERC20/ERC20.sol\":3400:3407  account */\n      dup4\n        /* \"@openzeppelin/contracts/token/ERC20/ERC20.sol\":3390:3408  _balances[account] */\n      0xffffffffffffffffffffffffffffffffffffffff\n      and\n      0xffffffffffffffffffffffffffffffffffffffff\n      and\n      dup2\n      mstore\n      0x20\n      add\n      swap1\n      dup2\n      mstore\n      0x20\n      add\n      0x00\n      keccak256\n      sload\n        /* \"@openzeppelin/contracts/token/ERC20/ERC20.sol\":3383:3408  return _balances[account] */\n      swap1\n      pop\n        /* \"@openzeppelin/contracts/token/ERC20/ERC20.sol\":3299:3415  function balanceOf(address account) public view virtual returns (uint256) {... */\n      swap2\n      swap1\n      pop\n      jump\t// out\n        /* \"@openzeppelin/contracts/token/ERC20/extensions/ERC20Burnable.sol\":1021:1179  function burnFrom(address account, uint256 value) public virtual {... */\n    tag_104:\n        /* \"@openzeppelin/contracts/token/ERC20/extensions/ERC20Burnable.sol\":1096:1141  _spendAllowance(account, _msgSender(), value) */\n      tag_223\n        /* \"@openzeppelin/contracts/token/ERC20/extensions/ERC20Burnable.sol\":1112:1119  account */\n      dup3\n        /* \"@openzeppelin/contracts/token/ERC20/extensions/ERC20Burnable.sol\":1121:1133  _msgSender() */\n      tag_224\n        /* \"@openzeppelin/contracts/token/ERC20/extensions/ERC20Burnable.sol\":1121:1131  _msgSender */\n      tag_167\n        /* \"@openzeppelin/contracts/token/ERC20/extensions/ERC20Burnable.sol\":1121:1133  _msgSender() */\n      jump\t// in\n    tag_224:\n        /* \"@openzeppelin/contracts/token/ERC20/extensions/ERC20Burnable.sol\":1135:1140  value */\n      dup4\n        /* \"@openzeppelin/contracts/token/ERC20/extensions/ERC20Burnable.sol\":1096:1111  _spendAllowance */\n      tag_194\n        /* \"@openzeppelin/contracts/token/ERC20/extensions/ERC20Burnable.sol\":1096:1141  _spendAllowance(account, _msgSender(), value) */\n      jump\t// in\n    tag_223:\n        /* \"@openzeppelin/contracts/token/ERC20/extensions/ERC20Burnable.sol\":1151:1172  _burn(account, value) */\n      tag_225\n        /* \"@openzeppelin/contracts/token/ERC20/extensions/ERC20Burnable.sol\":1157:1164  account */\n      dup3\n        /* \"@openzeppelin/contracts/token/ERC20/extensions/ERC20Burnable.sol\":1166:1171  value */\n      dup3\n        /* \"@openzeppelin/contracts/token/ERC20/extensions/ERC20Burnable.sol\":1151:1156  _burn */\n      tag_219\n        /* \"@openzeppelin/contracts/token/ERC20/extensions/ERC20Burnable.sol\":1151:1172  _burn(account, value) */\n      jump\t// in\n    tag_225:\n        /* \"@openzeppelin/contracts/token/ERC20/extensions/ERC20Burnable.sol\":1021:1179  function burnFrom(address account, uint256 value) public virtual {... */\n      pop\n      pop\n      jump\t// out\n        /* \"contracts/MyToken.sol\":1247:1312  function pause() public onlyRole(ADMIN) {... */\n    tag_106:\n        /* \"contracts/MyToken.sol\":494:512  keccak256(\"ADMIN\") */\n      0xdf8b4c520ffe197c5343c6f5aec59570151ef9a492f2c624fd45ddde6135ec42\n        /* \"@openzeppelin/contracts/access/AccessControl.sol\":2464:2480  _checkRole(role) */\n      tag_227\n        /* \"@openzeppelin/contracts/access/AccessControl.sol\":2475:2479  role */\n      dup2\n        /* \"@openzeppelin/contracts/access/AccessControl.sol\":2464:2474  _checkRole */\n      tag_201\n        /* \"@openzeppelin/contracts/access/AccessControl.sol\":2464:2480  _checkRole(role) */\n      jump\t// in\n    tag_227:\n        /* \"contracts/MyToken.sol\":1297:1305  _pause() */\n      tag_229\n        /* \"contracts/MyToken.sol\":1297:1303  _pause */\n      tag_230\n        /* \"contracts/MyToken.sol\":1297:1305  _pause() */\n      jump\t// in\n    tag_229:\n        /* \"contracts/MyToken.sol\":1247:1312  function pause() public onlyRole(ADMIN) {... */\n      pop\n      jump\t// out\n        /* \"contracts/MyToken.sol\":1872:2277  function distributeInterestAll(address[] memory tokenHolders, uint256[] memory amounts) public onlyRole(ADMIN) {... */\n    tag_110:\n        /* \"contracts/MyToken.sol\":494:512  keccak256(\"ADMIN\") */\n      0xdf8b4c520ffe197c5343c6f5aec59570151ef9a492f2c624fd45ddde6135ec42\n        /* \"@openzeppelin/contracts/access/AccessControl.sol\":2464:2480  _checkRole(role) */\n      tag_232\n        /* \"@openzeppelin/contracts/access/AccessControl.sol\":2475:2479  role */\n      dup2\n        /* \"@openzeppelin/contracts/access/AccessControl.sol\":2464:2474  _checkRole */\n      tag_201\n        /* \"@openzeppelin/contracts/access/AccessControl.sol\":2464:2480  _checkRole(role) */\n      jump\t// in\n    tag_232:\n        /* \"contracts/MyToken.sol\":2024:2031  amounts */\n      dup2\n        /* \"contracts/MyToken.sol\":2024:2038  amounts.length */\n      mload\n        /* \"contracts/MyToken.sol\":2001:2013  tokenHolders */\n      dup4\n        /* \"contracts/MyToken.sol\":2001:2020  tokenHolders.length */\n      mload\n        /* \"contracts/MyToken.sol\":2001:2038  tokenHolders.length == amounts.length */\n      eq\n        /* \"contracts/MyToken.sol\":1993:2084  require(tokenHolders.length == amounts.length, \"Token holders and amounts length mismatch\") */\n      tag_234\n      jumpi\n      mload(0x40)\n      0x08c379a000000000000000000000000000000000000000000000000000000000\n      dup2\n      mstore\n      0x04\n      add\n      tag_235\n      swap1\n      tag_236\n      jump\t// in\n    tag_235:\n      mload(0x40)\n      dup1\n      swap2\n      sub\n      swap1\n      revert\n    tag_234:\n        /* \"contracts/MyToken.sol\":2099:2108  uint256 i */\n      0x00\n        /* \"contracts/MyToken.sol\":2094:2271  for (uint256 i = 0; i < tokenHolders.length; i++) {... */\n    tag_237:\n        /* \"contracts/MyToken.sol\":2118:2130  tokenHolders */\n      dup4\n        /* \"contracts/MyToken.sol\":2118:2137  tokenHolders.length */\n      mload\n        /* \"contracts/MyToken.sol\":2114:2115  i */\n      dup2\n        /* \"contracts/MyToken.sol\":2114:2137  i < tokenHolders.length */\n      lt\n        /* \"contracts/MyToken.sol\":2094:2271  for (uint256 i = 0; i < tokenHolders.length; i++) {... */\n      iszero\n      tag_238\n      jumpi\n        /* \"contracts/MyToken.sol\":2173:2185  interestCoin */\n      immutable(\"0xc6fa869c00cca07fff5e26638bf9bc331de0994499fcf1ee63eb1a2437869a1b\")\n        /* \"contracts/MyToken.sol\":2166:2199  IERC20(interestCoin).transferFrom */\n      0xffffffffffffffffffffffffffffffffffffffff\n      and\n      0x23b872dd\n        /* \"contracts/MyToken.sol\":2200:2210  msg.sender */\n      caller\n        /* \"contracts/MyToken.sol\":2212:2224  tokenHolders */\n      dup7\n        /* \"contracts/MyToken.sol\":2225:2226  i */\n      dup5\n        /* \"contracts/MyToken.sol\":2212:2227  tokenHolders[i] */\n      dup2\n      mload\n      dup2\n      lt\n      tag_240\n      jumpi\n      tag_241\n      tag_242\n      jump\t// in\n    tag_241:\n    tag_240:\n      0x20\n      mul\n      0x20\n      add\n      add\n      mload\n        /* \"contracts/MyToken.sol\":2229:2236  amounts */\n      dup7\n        /* \"contracts/MyToken.sol\":2237:2238  i */\n      dup6\n        /* \"contracts/MyToken.sol\":2229:2239  amounts[i] */\n      dup2\n      mload\n      dup2\n      lt\n      tag_243\n      jumpi\n      tag_244\n      tag_242\n      jump\t// in\n    tag_244:\n    tag_243:\n      0x20\n      mul\n      0x20\n      add\n      add\n      mload\n        /* \"contracts/MyToken.sol\":2166:2240  IERC20(interestCoin).transferFrom(msg.sender, tokenHolders[i], amounts[i]) */\n      mload(0x40)\n      dup5\n      0xffffffff\n      and\n      0xe0\n      shl\n      dup2\n      mstore\n      0x04\n      add\n      tag_245\n      swap4\n      swap3\n      swap2\n      swap1\n      tag_174\n      jump\t// in\n    tag_245:\n      0x20\n      mload(0x40)\n      dup1\n      dup4\n      sub\n      dup2\n      0x00\n      dup8\n      gas\n      call\n      iszero\n      dup1\n      iszero\n      tag_247\n      jumpi\n      returndatasize\n      0x00\n      dup1\n      returndatacopy\n      revert(0x00, returndatasize)\n    tag_247:\n      pop\n      pop\n      pop\n      pop\n      mload(0x40)\n      returndatasize\n      not(0x1f)\n      0x1f\n      dup3\n      add\n      and\n      dup3\n      add\n      dup1\n      0x40\n      mstore\n      pop\n      dup2\n      add\n      swap1\n      tag_248\n      swap2\n      swap1\n      tag_178\n      jump\t// in\n    tag_248:\n        /* \"contracts/MyToken.sol\":2158:2260  require(IERC20(interestCoin).transferFrom(msg.sender, tokenHolders[i], amounts[i]), \"Transfer failed\") */\n      tag_249\n      jumpi\n      mload(0x40)\n      0x08c379a000000000000000000000000000000000000000000000000000000000\n      dup2\n      mstore\n      0x04\n      add\n      tag_250\n      swap1\n      tag_251\n      jump\t// in\n    tag_250:\n      mload(0x40)\n      dup1\n      swap2\n      sub\n      swap1\n      revert\n    tag_249:\n        /* \"contracts/MyToken.sol\":2139:2142  i++ */\n      dup1\n      dup1\n      0x01\n      add\n      swap2\n      pop\n      pop\n        /* \"contracts/MyToken.sol\":2094:2271  for (uint256 i = 0; i < tokenHolders.length; i++) {... */\n      jump(tag_237)\n    tag_238:\n      pop\n        /* \"contracts/MyToken.sol\":1872:2277  function distributeInterestAll(address[] memory tokenHolders, uint256[] memory amounts) public onlyRole(ADMIN) {... */\n      pop\n      pop\n      pop\n      jump\t// out\n        /* \"@openzeppelin/contracts/access/AccessControl.sol\":2854:2990  function hasRole(bytes32 role, address account) public view virtual returns (bool) {... */\n    tag_113:\n        /* \"@openzeppelin/contracts/access/AccessControl.sol\":2931:2935  bool */\n      0x00\n        /* \"@openzeppelin/contracts/access/AccessControl.sol\":2954:2960  _roles */\n      0x06\n        /* \"@openzeppelin/contracts/access/AccessControl.sol\":2954:2966  _roles[role] */\n      0x00\n        /* \"@openzeppelin/contracts/access/AccessControl.sol\":2961:2965  role */\n      dup5\n        /* \"@openzeppelin/contracts/access/AccessControl.sol\":2954:2966  _roles[role] */\n      dup2\n      mstore\n      0x20\n      add\n      swap1\n      dup2\n      mstore\n      0x20\n      add\n      0x00\n      keccak256\n        /* \"@openzeppelin/contracts/access/AccessControl.sol\":2954:2974  _roles[role].hasRole */\n      0x00\n      add\n        /* \"@openzeppelin/contracts/access/AccessControl.sol\":2954:2983  _roles[role].hasRole[account] */\n      0x00\n        /* \"@openzeppelin/contracts/access/AccessControl.sol\":2975:2982  account */\n      dup4\n        /* \"@openzeppelin/contracts/access/AccessControl.sol\":2954:2983  _roles[role].hasRole[account] */\n      0xffffffffffffffffffffffffffffffffffffffff\n      and\n      0xffffffffffffffffffffffffffffffffffffffff\n      and\n      dup2\n      mstore\n      0x20\n      add\n      swap1\n      dup2\n      mstore\n      0x20\n      add\n      0x00\n      keccak256\n      0x00\n      swap1\n      sload\n      swap1\n      0x0100\n      exp\n      swap1\n      div\n      0xff\n      and\n        /* \"@openzeppelin/contracts/access/AccessControl.sol\":2947:2983  return _roles[role].hasRole[account] */\n      swap1\n      pop\n        /* \"@openzeppelin/contracts/access/AccessControl.sol\":2854:2990  function hasRole(bytes32 role, address account) public view virtual returns (bool) {... */\n      swap3\n      swap2\n      pop\n      pop\n      jump\t// out\n        /* \"@openzeppelin/contracts/token/ERC20/ERC20.sol\":2276:2369  function symbol() public view virtual returns (string memory) {... */\n    tag_116:\n        /* \"@openzeppelin/contracts/token/ERC20/ERC20.sol\":2323:2336  string memory */\n      0x60\n        /* \"@openzeppelin/contracts/token/ERC20/ERC20.sol\":2355:2362  _symbol */\n      0x04\n        /* \"@openzeppelin/contracts/token/ERC20/ERC20.sol\":2348:2362  return _symbol */\n      dup1\n      sload\n      tag_254\n      swap1\n      tag_160\n      jump\t// in\n    tag_254:\n      dup1\n      0x1f\n      add\n      0x20\n      dup1\n      swap2\n      div\n      mul\n      0x20\n      add\n      mload(0x40)\n      swap1\n      dup2\n      add\n      0x40\n      mstore\n      dup1\n      swap3\n      swap2\n      swap1\n      dup2\n      dup2\n      mstore\n      0x20\n      add\n      dup3\n      dup1\n      sload\n      tag_255\n      swap1\n      tag_160\n      jump\t// in\n    tag_255:\n      dup1\n      iszero\n      tag_256\n      jumpi\n      dup1\n      0x1f\n      lt\n      tag_257\n      jumpi\n      0x0100\n      dup1\n      dup4\n      sload\n      div\n      mul\n      dup4\n      mstore\n      swap2\n      0x20\n      add\n      swap2\n      jump(tag_256)\n    tag_257:\n      dup3\n      add\n      swap2\n      swap1\n      0x00\n      mstore\n      keccak256(0x00, 0x20)\n      swap1\n    tag_258:\n      dup2\n      sload\n      dup2\n      mstore\n      swap1\n      0x01\n      add\n      swap1\n      0x20\n      add\n      dup1\n      dup4\n      gt\n      tag_258\n      jumpi\n      dup3\n      swap1\n      sub\n      0x1f\n      and\n      dup3\n      add\n      swap2\n    tag_256:\n      pop\n      pop\n      pop\n      pop\n      pop\n      swap1\n      pop\n        /* \"@openzeppelin/contracts/token/ERC20/ERC20.sol\":2276:2369  function symbol() public view virtual returns (string memory) {... */\n      swap1\n      jump\t// out\n        /* \"contracts/MyToken.sol\":586:621  address public immutable stableCoin */\n    tag_119:\n      immutable(\"0x560f53f9e6643f63dace8b2695c9680c3b0d96473ff0914d6a3517970d490ef6\")\n      dup2\n      jump\t// out\n        /* \"@openzeppelin/contracts/access/AccessControl.sol\":2187:2236  bytes32 public constant DEFAULT_ADMIN_ROLE = 0x00 */\n    tag_123:\n        /* \"@openzeppelin/contracts/access/AccessControl.sol\":2232:2236  0x00 */\n      0x00\n        /* \"@openzeppelin/contracts/access/AccessControl.sol\":2187:2236  bytes32 public constant DEFAULT_ADMIN_ROLE = 0x00 */\n      dup1\n      shl\n      dup2\n      jump\t// out\n        /* \"@openzeppelin/contracts/token/ERC20/ERC20.sol\":3610:3788  function transfer(address to, uint256 value) public virtual returns (bool) {... */\n    tag_127:\n        /* \"@openzeppelin/contracts/token/ERC20/ERC20.sol\":3679:3683  bool */\n      0x00\n        /* \"@openzeppelin/contracts/token/ERC20/ERC20.sol\":3695:3708  address owner */\n      dup1\n        /* \"@openzeppelin/contracts/token/ERC20/ERC20.sol\":3711:3723  _msgSender() */\n      tag_260\n        /* \"@openzeppelin/contracts/token/ERC20/ERC20.sol\":3711:3721  _msgSender */\n      tag_167\n        /* \"@openzeppelin/contracts/token/ERC20/ERC20.sol\":3711:3723  _msgSender() */\n      jump\t// in\n    tag_260:\n        /* \"@openzeppelin/contracts/token/ERC20/ERC20.sol\":3695:3723  address owner = _msgSender() */\n      swap1\n      pop\n        /* \"@openzeppelin/contracts/token/ERC20/ERC20.sol\":3733:3760  _transfer(owner, to, value) */\n      tag_261\n        /* \"@openzeppelin/contracts/token/ERC20/ERC20.sol\":3743:3748  owner */\n      dup2\n        /* \"@openzeppelin/contracts/token/ERC20/ERC20.sol\":3750:3752  to */\n      dup6\n        /* \"@openzeppelin/contracts/token/ERC20/ERC20.sol\":3754:3759  value */\n      dup6\n        /* \"@openzeppelin/contracts/token/ERC20/ERC20.sol\":3733:3742  _transfer */\n      tag_196\n        /* \"@openzeppelin/contracts/token/ERC20/ERC20.sol\":3733:3760  _transfer(owner, to, value) */\n      jump\t// in\n    tag_261:\n        /* \"@openzeppelin/contracts/token/ERC20/ERC20.sol\":3777:3781  true */\n      0x01\n        /* \"@openzeppelin/contracts/token/ERC20/ERC20.sol\":3770:3781  return true */\n      swap2\n      pop\n      pop\n        /* \"@openzeppelin/contracts/token/ERC20/ERC20.sol\":3610:3788  function transfer(address to, uint256 value) public virtual returns (bool) {... */\n      swap3\n      swap2\n      pop\n      pop\n      jump\t// out\n        /* \"contracts/MyToken.sol\":670:703  uint256 public immutable unitSize */\n    tag_130:\n      immutable(\"0xa92a119aeb5e5432887b46772e423cfac2594bfdf681094c34bd022e8c31d0\")\n      dup2\n      jump\t// out\n        /* \"contracts/MyToken.sol\":2614:2954  function claimFaceValue(uint256 amountTokens) public{... */\n    tag_134:\n        /* \"contracts/MyToken.sol\":2699:2700  0 */\n      0x00\n        /* \"contracts/MyToken.sol\":2684:2696  amountTokens */\n      dup2\n        /* \"contracts/MyToken.sol\":2684:2700  amountTokens > 0 */\n      gt\n        /* \"contracts/MyToken.sol\":2676:2726  require(amountTokens > 0,\"Can't claim zero coins\") */\n      tag_263\n      jumpi\n      mload(0x40)\n      0x08c379a000000000000000000000000000000000000000000000000000000000\n      dup2\n      mstore\n      0x04\n      add\n      tag_264\n      swap1\n      tag_265\n      jump\t// in\n    tag_264:\n      mload(0x40)\n      dup1\n      swap2\n      sub\n      swap1\n      revert\n    tag_263:\n        /* \"contracts/MyToken.sol\":2750:2754  this */\n      address\n        /* \"contracts/MyToken.sol\":2744:2768  ERC20(this).transferFrom */\n      0xffffffffffffffffffffffffffffffffffffffff\n      and\n      0x23b872dd\n        /* \"contracts/MyToken.sol\":2769:2779  msg.sender */\n      caller\n        /* \"contracts/MyToken.sol\":2788:2792  this */\n      address\n        /* \"contracts/MyToken.sol\":2794:2806  amountTokens */\n      dup5\n        /* \"contracts/MyToken.sol\":2744:2807  ERC20(this).transferFrom(msg.sender,address(this),amountTokens) */\n      mload(0x40)\n      dup5\n      0xffffffff\n      and\n      0xe0\n      shl\n      dup2\n      mstore\n      0x04\n      add\n      tag_266\n      swap4\n      swap3\n      swap2\n      swap1\n      tag_174\n      jump\t// in\n    tag_266:\n      0x20\n      mload(0x40)\n      dup1\n      dup4\n      sub\n      dup2\n      0x00\n      dup8\n      gas\n      call\n      iszero\n      dup1\n      iszero\n      tag_268\n      jumpi\n      returndatasize\n      0x00\n      dup1\n      returndatacopy\n      revert(0x00, returndatasize)\n    tag_268:\n      pop\n      pop\n      pop\n      pop\n      mload(0x40)\n      returndatasize\n      not(0x1f)\n      0x1f\n      dup3\n      add\n      and\n      dup3\n      add\n      dup1\n      0x40\n      mstore\n      pop\n      dup2\n      add\n      swap1\n      tag_269\n      swap2\n      swap1\n      tag_178\n      jump\t// in\n    tag_269:\n        /* \"contracts/MyToken.sol\":2736:2837  require(ERC20(this).transferFrom(msg.sender,address(this),amountTokens),\"Bond token transfer failed\") */\n      tag_270\n      jumpi\n      mload(0x40)\n      0x08c379a000000000000000000000000000000000000000000000000000000000\n      dup2\n      mstore\n      0x04\n      add\n      tag_271\n      swap1\n      tag_189\n      jump\t// in\n    tag_271:\n      mload(0x40)\n      dup1\n      swap2\n      sub\n      swap1\n      revert\n    tag_270:\n        /* \"contracts/MyToken.sol\":2862:2872  stableCoin */\n      immutable(\"0x560f53f9e6643f63dace8b2695c9680c3b0d96473ff0914d6a3517970d490ef6\")\n        /* \"contracts/MyToken.sol\":2855:2882  IERC20(stableCoin).transfer */\n      0xffffffffffffffffffffffffffffffffffffffff\n      and\n      0xa9059cbb\n        /* \"contracts/MyToken.sol\":2883:2893  msg.sender */\n      caller\n        /* \"contracts/MyToken.sol\":2907:2915  unitSize */\n      immutable(\"0xa92a119aeb5e5432887b46772e423cfac2594bfdf681094c34bd022e8c31d0\")\n        /* \"contracts/MyToken.sol\":2894:2906  amountTokens */\n      dup5\n        /* \"contracts/MyToken.sol\":2894:2915  amountTokens*unitSize */\n      tag_272\n      swap2\n      swap1\n      tag_172\n      jump\t// in\n    tag_272:\n        /* \"contracts/MyToken.sol\":2855:2916  IERC20(stableCoin).transfer(msg.sender,amountTokens*unitSize) */\n      mload(0x40)\n      dup4\n      0xffffffff\n      and\n      0xe0\n      shl\n      dup2\n      mstore\n      0x04\n      add\n      tag_273\n      swap3\n      swap2\n      swap1\n      tag_183\n      jump\t// in\n    tag_273:\n      0x20\n      mload(0x40)\n      dup1\n      dup4\n      sub\n      dup2\n      0x00\n      dup8\n      gas\n      call\n      iszero\n      dup1\n      iszero\n      tag_275\n      jumpi\n      returndatasize\n      0x00\n      dup1\n      returndatacopy\n      revert(0x00, returndatasize)\n    tag_275:\n      pop\n      pop\n      pop\n      pop\n      mload(0x40)\n      returndatasize\n      not(0x1f)\n      0x1f\n      dup3\n      add\n      and\n      dup3\n      add\n      dup1\n      0x40\n      mstore\n      pop\n      dup2\n      add\n      swap1\n      tag_276\n      swap2\n      swap1\n      tag_178\n      jump\t// in\n    tag_276:\n        /* \"contracts/MyToken.sol\":2847:2947  require(IERC20(stableCoin).transfer(msg.sender,amountTokens*unitSize),\"Stable coin transfer failed\") */\n      tag_277\n      jumpi\n      mload(0x40)\n      0x08c379a000000000000000000000000000000000000000000000000000000000\n      dup2\n      mstore\n      0x04\n      add\n      tag_278\n      swap1\n      tag_181\n      jump\t// in\n    tag_278:\n      mload(0x40)\n      dup1\n      swap2\n      sub\n      swap1\n      revert\n    tag_277:\n        /* \"contracts/MyToken.sol\":2614:2954  function claimFaceValue(uint256 amountTokens) public{... */\n      pop\n      jump\t// out\n        /* \"contracts/MyToken.sol\":2282:2608  function claimInvestorFunds() public onlyRole(BOND_ISSUER){... */\n    tag_136:\n        /* \"contracts/MyToken.sol\":556:580  keccak256(\"BOND_ISSUER\") */\n      0xf877234297ef562d54f0328f892acfc1d6c1e44ca89f02e3a2c2a4736f6095b7\n        /* \"@openzeppelin/contracts/access/AccessControl.sol\":2464:2480  _checkRole(role) */\n      tag_280\n        /* \"@openzeppelin/contracts/access/AccessControl.sol\":2475:2479  role */\n      dup2\n        /* \"@openzeppelin/contracts/access/AccessControl.sol\":2464:2474  _checkRole */\n      tag_201\n        /* \"@openzeppelin/contracts/access/AccessControl.sol\":2464:2480  _checkRole(role) */\n      jump\t// in\n    tag_280:\n        /* \"contracts/MyToken.sol\":2350:2377  uint256 amountInvestorCoins */\n      0x00\n        /* \"contracts/MyToken.sol\":2387:2397  stableCoin */\n      immutable(\"0x560f53f9e6643f63dace8b2695c9680c3b0d96473ff0914d6a3517970d490ef6\")\n        /* \"contracts/MyToken.sol\":2380:2408  IERC20(stableCoin).balanceOf */\n      0xffffffffffffffffffffffffffffffffffffffff\n      and\n      0x70a08231\n        /* \"contracts/MyToken.sol\":2417:2421  this */\n      address\n        /* \"contracts/MyToken.sol\":2380:2423  IERC20(stableCoin).balanceOf(address(this)) */\n      mload(0x40)\n      dup3\n      0xffffffff\n      and\n      0xe0\n      shl\n      dup2\n      mstore\n      0x04\n      add\n      tag_282\n      swap2\n      swap1\n      tag_121\n      jump\t// in\n    tag_282:\n      0x20\n      mload(0x40)\n      dup1\n      dup4\n      sub\n      dup2\n      dup7\n      gas\n      staticcall\n      iszero\n      dup1\n      iszero\n      tag_284\n      jumpi\n      returndatasize\n      0x00\n      dup1\n      returndatacopy\n      revert(0x00, returndatasize)\n    tag_284:\n      pop\n      pop\n      pop\n      pop\n      mload(0x40)\n      returndatasize\n      not(0x1f)\n      0x1f\n      dup3\n      add\n      and\n      dup3\n      add\n      dup1\n      0x40\n      mstore\n      pop\n      dup2\n      add\n      swap1\n      tag_285\n      swap2\n      swap1\n      tag_286\n      jump\t// in\n    tag_285:\n        /* \"contracts/MyToken.sol\":2350:2423  uint256 amountInvestorCoins = IERC20(stableCoin).balanceOf(address(this)) */\n      swap1\n      pop\n        /* \"contracts/MyToken.sol\":2463:2464  0 */\n      0x00\n        /* \"contracts/MyToken.sol\":2441:2460  amountInvestorCoins */\n      dup2\n        /* \"contracts/MyToken.sol\":2441:2464  amountInvestorCoins > 0 */\n      gt\n        /* \"contracts/MyToken.sol\":2433:2496  require(amountInvestorCoins > 0,\"No investor funds available.\") */\n      tag_287\n      jumpi\n      mload(0x40)\n      0x08c379a000000000000000000000000000000000000000000000000000000000\n      dup2\n      mstore\n      0x04\n      add\n      tag_288\n      swap1\n      tag_289\n      jump\t// in\n    tag_288:\n      mload(0x40)\n      dup1\n      swap2\n      sub\n      swap1\n      revert\n    tag_287:\n        /* \"contracts/MyToken.sol\":2520:2524  this */\n      address\n        /* \"contracts/MyToken.sol\":2514:2534  ERC20(this).transfer */\n      0xffffffffffffffffffffffffffffffffffffffff\n      and\n      0xa9059cbb\n        /* \"contracts/MyToken.sol\":2535:2545  msg.sender */\n      caller\n        /* \"contracts/MyToken.sol\":2546:2565  amountInvestorCoins */\n      dup4\n        /* \"contracts/MyToken.sol\":2514:2566  ERC20(this).transfer(msg.sender,amountInvestorCoins) */\n      mload(0x40)\n      dup4\n      0xffffffff\n      and\n      0xe0\n      shl\n      dup2\n      mstore\n      0x04\n      add\n      tag_290\n      swap3\n      swap2\n      swap1\n      tag_183\n      jump\t// in\n    tag_290:\n      0x20\n      mload(0x40)\n      dup1\n      dup4\n      sub\n      dup2\n      0x00\n      dup8\n      gas\n      call\n      iszero\n      dup1\n      iszero\n      tag_292\n      jumpi\n      returndatasize\n      0x00\n      dup1\n      returndatacopy\n      revert(0x00, returndatasize)\n    tag_292:\n      pop\n      pop\n      pop\n      pop\n      mload(0x40)\n      returndatasize\n      not(0x1f)\n      0x1f\n      dup3\n      add\n      and\n      dup3\n      add\n      dup1\n      0x40\n      mstore\n      pop\n      dup2\n      add\n      swap1\n      tag_293\n      swap2\n      swap1\n      tag_178\n      jump\t// in\n    tag_293:\n        /* \"contracts/MyToken.sol\":2506:2601  require(ERC20(this).transfer(msg.sender,amountInvestorCoins),\"Failed to transfer stable coins\") */\n      tag_294\n      jumpi\n      mload(0x40)\n      0x08c379a000000000000000000000000000000000000000000000000000000000\n      dup2\n      mstore\n      0x04\n      add\n      tag_295\n      swap1\n      tag_296\n      jump\t// in\n    tag_295:\n      mload(0x40)\n      dup1\n      swap2\n      sub\n      swap1\n      revert\n    tag_294:\n        /* \"contracts/MyToken.sol\":2340:2608  {... */\n      pop\n        /* \"contracts/MyToken.sol\":2282:2608  function claimInvestorFunds() public onlyRole(BOND_ISSUER){... */\n      pop\n      jump\t// out\n        /* \"@openzeppelin/contracts/access/AccessControl.sol\":4642:4780  function revokeRole(bytes32 role, address account) public virtual onlyRole(getRoleAdmin(role)) {... */\n    tag_139:\n        /* \"@openzeppelin/contracts/access/AccessControl.sol\":4717:4735  getRoleAdmin(role) */\n      tag_297\n        /* \"@openzeppelin/contracts/access/AccessControl.sol\":4730:4734  role */\n      dup3\n        /* \"@openzeppelin/contracts/access/AccessControl.sol\":4717:4729  getRoleAdmin */\n      tag_72\n        /* \"@openzeppelin/contracts/access/AccessControl.sol\":4717:4735  getRoleAdmin(role) */\n      jump\t// in\n    tag_297:\n        /* \"@openzeppelin/contracts/access/AccessControl.sol\":2464:2480  _checkRole(role) */\n      tag_299\n        /* \"@openzeppelin/contracts/access/AccessControl.sol\":2475:2479  role */\n      dup2\n        /* \"@openzeppelin/contracts/access/AccessControl.sol\":2464:2474  _checkRole */\n      tag_201\n        /* \"@openzeppelin/contracts/access/AccessControl.sol\":2464:2480  _checkRole(role) */\n      jump\t// in\n    tag_299:\n        /* \"@openzeppelin/contracts/access/AccessControl.sol\":4747:4773  _revokeRole(role, account) */\n      tag_301\n        /* \"@openzeppelin/contracts/access/AccessControl.sol\":4759:4763  role */\n      dup4\n        /* \"@openzeppelin/contracts/access/AccessControl.sol\":4765:4772  account */\n      dup4\n        /* \"@openzeppelin/contracts/access/AccessControl.sol\":4747:4758  _revokeRole */\n      tag_210\n        /* \"@openzeppelin/contracts/access/AccessControl.sol\":4747:4773  _revokeRole(role, account) */\n      jump\t// in\n    tag_301:\n      pop\n        /* \"@openzeppelin/contracts/access/AccessControl.sol\":4642:4780  function revokeRole(bytes32 role, address account) public virtual onlyRole(getRoleAdmin(role)) {... */\n      pop\n      pop\n      pop\n      jump\t// out\n        /* \"@openzeppelin/contracts/token/ERC20/ERC20.sol\":3846:3986  function allowance(address owner, address spender) public view virtual returns (uint256) {... */\n    tag_143:\n        /* \"@openzeppelin/contracts/token/ERC20/ERC20.sol\":3926:3933  uint256 */\n      0x00\n        /* \"@openzeppelin/contracts/token/ERC20/ERC20.sol\":3952:3963  _allowances */\n      0x01\n        /* \"@openzeppelin/contracts/token/ERC20/ERC20.sol\":3952:3970  _allowances[owner] */\n      0x00\n        /* \"@openzeppelin/contracts/token/ERC20/ERC20.sol\":3964:3969  owner */\n      dup5\n        /* \"@openzeppelin/contracts/token/ERC20/ERC20.sol\":3952:3970  _allowances[owner] */\n      0xffffffffffffffffffffffffffffffffffffffff\n      and\n      0xffffffffffffffffffffffffffffffffffffffff\n      and\n      dup2\n      mstore\n      0x20\n      add\n      swap1\n      dup2\n      mstore\n      0x20\n      add\n      0x00\n      keccak256\n        /* \"@openzeppelin/contracts/token/ERC20/ERC20.sol\":3952:3979  _allowances[owner][spender] */\n      0x00\n        /* \"@openzeppelin/contracts/token/ERC20/ERC20.sol\":3971:3978  spender */\n      dup4\n        /* \"@openzeppelin/contracts/token/ERC20/ERC20.sol\":3952:3979  _allowances[owner][spender] */\n      0xffffffffffffffffffffffffffffffffffffffff\n      and\n      0xffffffffffffffffffffffffffffffffffffffff\n      and\n      dup2\n      mstore\n      0x20\n      add\n      swap1\n      dup2\n      mstore\n      0x20\n      add\n      0x00\n      keccak256\n      sload\n        /* \"@openzeppelin/contracts/token/ERC20/ERC20.sol\":3945:3979  return _allowances[owner][spender] */\n      swap1\n      pop\n        /* \"@openzeppelin/contracts/token/ERC20/ERC20.sol\":3846:3986  function allowance(address owner, address spender) public view virtual returns (uint256) {... */\n      swap3\n      swap2\n      pop\n      pop\n      jump\t// out\n        /* \"contracts/MyToken.sol\":518:580  bytes32 public constant BOND_ISSUER = keccak256(\"BOND_ISSUER\") */\n    tag_146:\n        /* \"contracts/MyToken.sol\":556:580  keccak256(\"BOND_ISSUER\") */\n      0xf877234297ef562d54f0328f892acfc1d6c1e44ca89f02e3a2c2a4736f6095b7\n        /* \"contracts/MyToken.sol\":518:580  bytes32 public constant BOND_ISSUER = keccak256(\"BOND_ISSUER\") */\n      dup2\n      jump\t// out\n        /* \"contracts/MyToken.sol\":627:664  address public immutable interestCoin */\n    tag_149:\n      immutable(\"0xc6fa869c00cca07fff5e26638bf9bc331de0994499fcf1ee63eb1a2437869a1b\")\n      dup2\n      jump\t// out\n        /* \"contracts/MyToken.sol\":1671:1867  function distributeInterest(address tokenHolder,uint256 amount) public onlyRole(ADMIN){... */\n    tag_153:\n        /* \"contracts/MyToken.sol\":494:512  keccak256(\"ADMIN\") */\n      0xdf8b4c520ffe197c5343c6f5aec59570151ef9a492f2c624fd45ddde6135ec42\n        /* \"@openzeppelin/contracts/access/AccessControl.sol\":2464:2480  _checkRole(role) */\n      tag_304\n        /* \"@openzeppelin/contracts/access/AccessControl.sol\":2475:2479  role */\n      dup2\n        /* \"@openzeppelin/contracts/access/AccessControl.sol\":2464:2474  _checkRole */\n      tag_201\n        /* \"@openzeppelin/contracts/access/AccessControl.sol\":2464:2480  _checkRole(role) */\n      jump\t// in\n    tag_304:\n        /* \"contracts/MyToken.sol\":1782:1794  interestCoin */\n      immutable(\"0xc6fa869c00cca07fff5e26638bf9bc331de0994499fcf1ee63eb1a2437869a1b\")\n        /* \"contracts/MyToken.sol\":1775:1808  IERC20(interestCoin).transferFrom */\n      0xffffffffffffffffffffffffffffffffffffffff\n      and\n      0x23b872dd\n        /* \"contracts/MyToken.sol\":1809:1821  interestCoin */\n      immutable(\"0xc6fa869c00cca07fff5e26638bf9bc331de0994499fcf1ee63eb1a2437869a1b\")\n        /* \"contracts/MyToken.sol\":1822:1833  tokenHolder */\n      dup6\n        /* \"contracts/MyToken.sol\":1834:1840  amount */\n      dup6\n        /* \"contracts/MyToken.sol\":1775:1841  IERC20(interestCoin).transferFrom(interestCoin,tokenHolder,amount) */\n      mload(0x40)\n      dup5\n      0xffffffff\n      and\n      0xe0\n      shl\n      dup2\n      mstore\n      0x04\n      add\n      tag_306\n      swap4\n      swap3\n      swap2\n      swap1\n      tag_174\n      jump\t// in\n    tag_306:\n      0x20\n      mload(0x40)\n      dup1\n      dup4\n      sub\n      dup2\n      0x00\n      dup8\n      gas\n      call\n      iszero\n      dup1\n      iszero\n      tag_308\n      jumpi\n      returndatasize\n      0x00\n      dup1\n      returndatacopy\n      revert(0x00, returndatasize)\n    tag_308:\n      pop\n      pop\n      pop\n      pop\n      mload(0x40)\n      returndatasize\n      not(0x1f)\n      0x1f\n      dup3\n      add\n      and\n      dup3\n      add\n      dup1\n      0x40\n      mstore\n      pop\n      dup2\n      add\n      swap1\n      tag_309\n      swap2\n      swap1\n      tag_178\n      jump\t// in\n    tag_309:\n        /* \"contracts/MyToken.sol\":1767:1860  require(IERC20(interestCoin).transferFrom(interestCoin,tokenHolder,amount),\"Transfer failed\") */\n      tag_310\n      jumpi\n      mload(0x40)\n      0x08c379a000000000000000000000000000000000000000000000000000000000\n      dup2\n      mstore\n      0x04\n      add\n      tag_311\n      swap1\n      tag_251\n      jump\t// in\n    tag_311:\n      mload(0x40)\n      dup1\n      swap2\n      sub\n      swap1\n      revert\n    tag_310:\n        /* \"contracts/MyToken.sol\":1671:1867  function distributeInterest(address tokenHolder,uint256 amount) public onlyRole(ADMIN){... */\n      pop\n      pop\n      pop\n      jump\t// out\n        /* \"@openzeppelin/contracts/utils/introspection/ERC165.sol\":762:908  function supportsInterface(bytes4 interfaceId) public view virtual returns (bool) {... */\n    tag_157:\n        /* \"@openzeppelin/contracts/utils/introspection/ERC165.sol\":838:842  bool */\n      0x00\n        /* \"@openzeppelin/contracts/utils/introspection/ERC165.sol\":876:901  type(IERC165).interfaceId */\n      0x01ffc9a700000000000000000000000000000000000000000000000000000000\n        /* \"@openzeppelin/contracts/utils/introspection/ERC165.sol\":861:901  interfaceId == type(IERC165).interfaceId */\n      not(0xffffffffffffffffffffffffffffffffffffffffffffffffffffffff)\n      and\n        /* \"@openzeppelin/contracts/utils/introspection/ERC165.sol\":861:872  interfaceId */\n      dup3\n        /* \"@openzeppelin/contracts/utils/introspection/ERC165.sol\":861:901  interfaceId == type(IERC165).interfaceId */\n      not(0xffffffffffffffffffffffffffffffffffffffffffffffffffffffff)\n      and\n      eq\n        /* \"@openzeppelin/contracts/utils/introspection/ERC165.sol\":854:901  return interfaceId == type(IERC165).interfaceId */\n      swap1\n      pop\n        /* \"@openzeppelin/contracts/utils/introspection/ERC165.sol\":762:908  function supportsInterface(bytes4 interfaceId) public view virtual returns (bool) {... */\n      swap2\n      swap1\n      pop\n      jump\t// out\n        /* \"@openzeppelin/contracts/utils/Context.sol\":656:752  function _msgSender() internal view virtual returns (address) {... */\n    tag_167:\n        /* \"@openzeppelin/contracts/utils/Context.sol\":709:716  address */\n      0x00\n        /* \"@openzeppelin/contracts/utils/Context.sol\":735:745  msg.sender */\n      caller\n        /* \"@openzeppelin/contracts/utils/Context.sol\":728:745  return msg.sender */\n      swap1\n      pop\n        /* \"@openzeppelin/contracts/utils/Context.sol\":656:752  function _msgSender() internal view virtual returns (address) {... */\n      swap1\n      jump\t// out\n        /* \"@openzeppelin/contracts/token/ERC20/ERC20.sol\":8989:9117  function _approve(address owner, address spender, uint256 value) internal {... */\n    tag_169:\n        /* \"@openzeppelin/contracts/token/ERC20/ERC20.sol\":9073:9110  _approve(owner, spender, value, true) */\n      tag_315\n        /* \"@openzeppelin/contracts/token/ERC20/ERC20.sol\":9082:9087  owner */\n      dup4\n        /* \"@openzeppelin/contracts/token/ERC20/ERC20.sol\":9089:9096  spender */\n      dup4\n        /* \"@openzeppelin/contracts/token/ERC20/ERC20.sol\":9098:9103  value */\n      dup4\n        /* \"@openzeppelin/contracts/token/ERC20/ERC20.sol\":9105:9109  true */\n      0x01\n        /* \"@openzeppelin/contracts/token/ERC20/ERC20.sol\":9073:9081  _approve */\n      tag_316\n        /* \"@openzeppelin/contracts/token/ERC20/ERC20.sol\":9073:9110  _approve(owner, spender, value, true) */\n      jump\t// in\n    tag_315:\n        /* \"@openzeppelin/contracts/token/ERC20/ERC20.sol\":8989:9117  function _approve(address owner, address spender, uint256 value) internal {... */\n      pop\n      pop\n      pop\n      jump\t// out\n        /* \"@openzeppelin/contracts/token/ERC20/ERC20.sol\":10663:11140  function _spendAllowance(address owner, address spender, uint256 value) internal virtual {... */\n    tag_194:\n        /* \"@openzeppelin/contracts/token/ERC20/ERC20.sol\":10762:10786  uint256 currentAllowance */\n      0x00\n        /* \"@openzeppelin/contracts/token/ERC20/ERC20.sol\":10789:10814  allowance(owner, spender) */\n      tag_318\n        /* \"@openzeppelin/contracts/token/ERC20/ERC20.sol\":10799:10804  owner */\n      dup5\n        /* \"@openzeppelin/contracts/token/ERC20/ERC20.sol\":10806:10813  spender */\n      dup5\n        /* \"@openzeppelin/contracts/token/ERC20/ERC20.sol\":10789:10798  allowance */\n      tag_143\n        /* \"@openzeppelin/contracts/token/ERC20/ERC20.sol\":10789:10814  allowance(owner, spender) */\n      jump\t// in\n    tag_318:\n        /* \"@openzeppelin/contracts/token/ERC20/ERC20.sol\":10762:10814  uint256 currentAllowance = allowance(owner, spender) */\n      swap1\n      pop\n        /* \"@openzeppelin/contracts/token/ERC20/ERC20.sol\":10848:10865  type(uint256).max */\n      0xffffffffffffffffffffffffffffffffffffffffffffffffffffffffffffffff\n        /* \"@openzeppelin/contracts/token/ERC20/ERC20.sol\":10828:10844  currentAllowance */\n      dup2\n        /* \"@openzeppelin/contracts/token/ERC20/ERC20.sol\":10828:10865  currentAllowance != type(uint256).max */\n      eq\n        /* \"@openzeppelin/contracts/token/ERC20/ERC20.sol\":10824:11134  if (currentAllowance != type(uint256).max) {... */\n      tag_319\n      jumpi\n        /* \"@openzeppelin/contracts/token/ERC20/ERC20.sol\":10904:10909  value */\n      dup2\n        /* \"@openzeppelin/contracts/token/ERC20/ERC20.sol\":10885:10901  currentAllowance */\n      dup2\n        /* \"@openzeppelin/contracts/token/ERC20/ERC20.sol\":10885:10909  currentAllowance < value */\n      lt\n        /* \"@openzeppelin/contracts/token/ERC20/ERC20.sol\":10881:11011  if (currentAllowance < value) {... */\n      iszero\n      tag_320\n      jumpi\n        /* \"@openzeppelin/contracts/token/ERC20/ERC20.sol\":10963:10970  spender */\n      dup3\n        /* \"@openzeppelin/contracts/token/ERC20/ERC20.sol\":10972:10988  currentAllowance */\n      dup2\n        /* \"@openzeppelin/contracts/token/ERC20/ERC20.sol\":10990:10995  value */\n      dup4\n        /* \"@openzeppelin/contracts/token/ERC20/ERC20.sol\":10936:10996  ERC20InsufficientAllowance(spender, currentAllowance, value) */\n      mload(0x40)\n      0xfb8f41b200000000000000000000000000000000000000000000000000000000\n      dup2\n      mstore\n      0x04\n      add\n      tag_321\n      swap4\n      swap3\n      swap2\n      swap1\n      tag_322\n      jump\t// in\n    tag_321:\n      mload(0x40)\n      dup1\n      swap2\n      sub\n      swap1\n      revert\n        /* \"@openzeppelin/contracts/token/ERC20/ERC20.sol\":10881:11011  if (currentAllowance < value) {... */\n    tag_320:\n        /* \"@openzeppelin/contracts/token/ERC20/ERC20.sol\":11052:11109  _approve(owner, spender, currentAllowance - value, false) */\n      tag_323\n        /* \"@openzeppelin/contracts/token/ERC20/ERC20.sol\":11061:11066  owner */\n      dup5\n        /* \"@openzeppelin/contracts/token/ERC20/ERC20.sol\":11068:11075  spender */\n      dup5\n        /* \"@openzeppelin/contracts/token/ERC20/ERC20.sol\":11096:11101  value */\n      dup5\n        /* \"@openzeppelin/contracts/token/ERC20/ERC20.sol\":11077:11093  currentAllowance */\n      dup5\n        /* \"@openzeppelin/contracts/token/ERC20/ERC20.sol\":11077:11101  currentAllowance - value */\n      sub\n        /* \"@openzeppelin/contracts/token/ERC20/ERC20.sol\":11103:11108  false */\n      0x00\n        /* \"@openzeppelin/contracts/token/ERC20/ERC20.sol\":11052:11060  _approve */\n      tag_316\n        /* \"@openzeppelin/contracts/token/ERC20/ERC20.sol\":11052:11109  _approve(owner, spender, currentAllowance - value, false) */\n      jump\t// in\n    tag_323:\n        /* \"@openzeppelin/contracts/token/ERC20/ERC20.sol\":10824:11134  if (currentAllowance != type(uint256).max) {... */\n    tag_319:\n        /* \"@openzeppelin/contracts/token/ERC20/ERC20.sol\":10752:11140  {... */\n      pop\n        /* \"@openzeppelin/contracts/token/ERC20/ERC20.sol\":10663:11140  function _spendAllowance(address owner, address spender, uint256 value) internal virtual {... */\n      pop\n      pop\n      pop\n      jump\t// out\n        /* \"@openzeppelin/contracts/token/ERC20/ERC20.sol\":5656:5956  function _transfer(address from, address to, uint256 value) internal {... */\n    tag_196:\n        /* \"@openzeppelin/contracts/token/ERC20/ERC20.sol\":5755:5756  0 */\n      0x00\n        /* \"@openzeppelin/contracts/token/ERC20/ERC20.sol\":5739:5757  from == address(0) */\n      0xffffffffffffffffffffffffffffffffffffffff\n      and\n        /* \"@openzeppelin/contracts/token/ERC20/ERC20.sol\":5739:5743  from */\n      dup4\n        /* \"@openzeppelin/contracts/token/ERC20/ERC20.sol\":5739:5757  from == address(0) */\n      0xffffffffffffffffffffffffffffffffffffffff\n      and\n      sub\n        /* \"@openzeppelin/contracts/token/ERC20/ERC20.sol\":5735:5821  if (from == address(0)) {... */\n      tag_325\n      jumpi\n        /* \"@openzeppelin/contracts/token/ERC20/ERC20.sol\":5807:5808  0 */\n      0x00\n        /* \"@openzeppelin/contracts/token/ERC20/ERC20.sol\":5780:5810  ERC20InvalidSender(address(0)) */\n      mload(0x40)\n      0x96c6fd1e00000000000000000000000000000000000000000000000000000000\n      dup2\n      mstore\n      0x04\n      add\n      tag_326\n      swap2\n      swap1\n      tag_121\n      jump\t// in\n    tag_326:\n      mload(0x40)\n      dup1\n      swap2\n      sub\n      swap1\n      revert\n        /* \"@openzeppelin/contracts/token/ERC20/ERC20.sol\":5735:5821  if (from == address(0)) {... */\n    tag_325:\n        /* \"@openzeppelin/contracts/token/ERC20/ERC20.sol\":5848:5849  0 */\n      0x00\n        /* \"@openzeppelin/contracts/token/ERC20/ERC20.sol\":5834:5850  to == address(0) */\n      0xffffffffffffffffffffffffffffffffffffffff\n      and\n        /* \"@openzeppelin/contracts/token/ERC20/ERC20.sol\":5834:5836  to */\n      dup3\n        /* \"@openzeppelin/contracts/token/ERC20/ERC20.sol\":5834:5850  to == address(0) */\n      0xffffffffffffffffffffffffffffffffffffffff\n      and\n      sub\n        /* \"@openzeppelin/contracts/token/ERC20/ERC20.sol\":5830:5916  if (to == address(0)) {... */\n      tag_327\n      jumpi\n        /* \"@openzeppelin/contracts/token/ERC20/ERC20.sol\":5902:5903  0 */\n      0x00\n        /* \"@openzeppelin/contracts/token/ERC20/ERC20.sol\":5873:5905  ERC20InvalidReceiver(address(0)) */\n      mload(0x40)\n      0xec442f0500000000000000000000000000000000000000000000000000000000\n      dup2\n      mstore\n      0x04\n      add\n      tag_328\n      swap2\n      swap1\n      tag_121\n      jump\t// in\n    tag_328:\n      mload(0x40)\n      dup1\n      swap2\n      sub\n      swap1\n      revert\n        /* \"@openzeppelin/contracts/token/ERC20/ERC20.sol\":5830:5916  if (to == address(0)) {... */\n    tag_327:\n        /* \"@openzeppelin/contracts/token/ERC20/ERC20.sol\":5925:5949  _update(from, to, value) */\n      tag_329\n        /* \"@openzeppelin/contracts/token/ERC20/ERC20.sol\":5933:5937  from */\n      dup4\n        /* \"@openzeppelin/contracts/token/ERC20/ERC20.sol\":5939:5941  to */\n      dup4\n        /* \"@openzeppelin/contracts/token/ERC20/ERC20.sol\":5943:5948  value */\n      dup4\n        /* \"@openzeppelin/contracts/token/ERC20/ERC20.sol\":5925:5932  _update */\n      tag_330\n        /* \"@openzeppelin/contracts/token/ERC20/ERC20.sol\":5925:5949  _update(from, to, value) */\n      jump\t// in\n    tag_329:\n        /* \"@openzeppelin/contracts/token/ERC20/ERC20.sol\":5656:5956  function _transfer(address from, address to, uint256 value) internal {... */\n      pop\n      pop\n      pop\n      jump\t// out\n        /* \"@openzeppelin/contracts/access/AccessControl.sol\":3199:3302  function _checkRole(bytes32 role) internal view virtual {... */\n    tag_201:\n        /* \"@openzeppelin/contracts/access/AccessControl.sol\":3265:3295  _checkRole(role, _msgSender()) */\n      tag_332\n        /* \"@openzeppelin/contracts/access/AccessControl.sol\":3276:3280  role */\n      dup2\n        /* \"@openzeppelin/contracts/access/AccessControl.sol\":3282:3294  _msgSender() */\n      tag_333\n        /* \"@openzeppelin/contracts/access/AccessControl.sol\":3282:3292  _msgSender */\n      tag_167\n        /* \"@openzeppelin/contracts/access/AccessControl.sol\":3282:3294  _msgSender() */\n      jump\t// in\n    tag_333:\n        /* \"@openzeppelin/contracts/access/AccessControl.sol\":3265:3275  _checkRole */\n      tag_334\n        /* \"@openzeppelin/contracts/access/AccessControl.sol\":3265:3295  _checkRole(role, _msgSender()) */\n      jump\t// in\n    tag_332:\n        /* \"@openzeppelin/contracts/access/AccessControl.sol\":3199:3302  function _checkRole(bytes32 role) internal view virtual {... */\n      pop\n      jump\t// out\n        /* \"@openzeppelin/contracts/access/AccessControl.sol\":6179:6495  function _grantRole(bytes32 role, address account) internal virtual returns (bool) {... */\n    tag_204:\n        /* \"@openzeppelin/contracts/access/AccessControl.sol\":6256:6260  bool */\n      0x00\n        /* \"@openzeppelin/contracts/access/AccessControl.sol\":6277:6299  hasRole(role, account) */\n      tag_336\n        /* \"@openzeppelin/contracts/access/AccessControl.sol\":6285:6289  role */\n      dup4\n        /* \"@openzeppelin/contracts/access/AccessControl.sol\":6291:6298  account */\n      dup4\n        /* \"@openzeppelin/contracts/access/AccessControl.sol\":6277:6284  hasRole */\n      tag_113\n        /* \"@openzeppelin/contracts/access/AccessControl.sol\":6277:6299  hasRole(role, account) */\n      jump\t// in\n    tag_336:\n        /* \"@openzeppelin/contracts/access/AccessControl.sol\":6272:6489  if (!hasRole(role, account)) {... */\n      tag_337\n      jumpi\n        /* \"@openzeppelin/contracts/access/AccessControl.sol\":6347:6351  true */\n      0x01\n        /* \"@openzeppelin/contracts/access/AccessControl.sol\":6315:6321  _roles */\n      0x06\n        /* \"@openzeppelin/contracts/access/AccessControl.sol\":6315:6327  _roles[role] */\n      0x00\n        /* \"@openzeppelin/contracts/access/AccessControl.sol\":6322:6326  role */\n      dup6\n        /* \"@openzeppelin/contracts/access/AccessControl.sol\":6315:6327  _roles[role] */\n      dup2\n      mstore\n      0x20\n      add\n      swap1\n      dup2\n      mstore\n      0x20\n      add\n      0x00\n      keccak256\n        /* \"@openzeppelin/contracts/access/AccessControl.sol\":6315:6335  _roles[role].hasRole */\n      0x00\n      add\n        /* \"@openzeppelin/contracts/access/AccessControl.sol\":6315:6344  _roles[role].hasRole[account] */\n      0x00\n        /* \"@openzeppelin/contracts/access/AccessControl.sol\":6336:6343  account */\n      dup5\n        /* \"@openzeppelin/contracts/access/AccessControl.sol\":6315:6344  _roles[role].hasRole[account] */\n      0xffffffffffffffffffffffffffffffffffffffff\n      and\n      0xffffffffffffffffffffffffffffffffffffffff\n      and\n      dup2\n      mstore\n      0x20\n      add\n      swap1\n      dup2\n      mstore\n      0x20\n      add\n      0x00\n      keccak256\n      0x00\n        /* \"@openzeppelin/contracts/access/AccessControl.sol\":6315:6351  _roles[role].hasRole[account] = true */\n      0x0100\n      exp\n      dup2\n      sload\n      dup2\n      0xff\n      mul\n      not\n      and\n      swap1\n      dup4\n      iszero\n      iszero\n      mul\n      or\n      swap1\n      sstore\n      pop\n        /* \"@openzeppelin/contracts/access/AccessControl.sol\":6397:6409  _msgSender() */\n      tag_338\n        /* \"@openzeppelin/contracts/access/AccessControl.sol\":6397:6407  _msgSender */\n      tag_167\n        /* \"@openzeppelin/contracts/access/AccessControl.sol\":6397:6409  _msgSender() */\n      jump\t// in\n    tag_338:\n        /* \"@openzeppelin/contracts/access/AccessControl.sol\":6370:6410  RoleGranted(role, account, _msgSender()) */\n      0xffffffffffffffffffffffffffffffffffffffff\n      and\n        /* \"@openzeppelin/contracts/access/AccessControl.sol\":6388:6395  account */\n      dup3\n        /* \"@openzeppelin/contracts/access/AccessControl.sol\":6370:6410  RoleGranted(role, account, _msgSender()) */\n      0xffffffffffffffffffffffffffffffffffffffff\n      and\n        /* \"@openzeppelin/contracts/access/AccessControl.sol\":6382:6386  role */\n      dup5\n        /* \"@openzeppelin/contracts/access/AccessControl.sol\":6370:6410  RoleGranted(role, account, _msgSender()) */\n      0x2f8788117e7eff1d82e926ec794901d17c78024a50270940304540a733656f0d\n      mload(0x40)\n      mload(0x40)\n      dup1\n      swap2\n      sub\n      swap1\n      log4\n        /* \"@openzeppelin/contracts/access/AccessControl.sol\":6431:6435  true */\n      0x01\n        /* \"@openzeppelin/contracts/access/AccessControl.sol\":6424:6435  return true */\n      swap1\n      pop\n      jump(tag_335)\n        /* \"@openzeppelin/contracts/access/AccessControl.sol\":6272:6489  if (!hasRole(role, account)) {... */\n    tag_337:\n        /* \"@openzeppelin/contracts/access/AccessControl.sol\":6473:6478  false */\n      0x00\n        /* \"@openzeppelin/contracts/access/AccessControl.sol\":6466:6478  return false */\n      swap1\n      pop\n        /* \"@openzeppelin/contracts/access/AccessControl.sol\":6179:6495  function _grantRole(bytes32 role, address account) internal virtual returns (bool) {... */\n    tag_335:\n      swap3\n      swap2\n      pop\n      pop\n      jump\t// out\n        /* \"@openzeppelin/contracts/access/AccessControl.sol\":6730:7047  function _revokeRole(bytes32 role, address account) internal virtual returns (bool) {... */\n    tag_210:\n        /* \"@openzeppelin/contracts/access/AccessControl.sol\":6808:6812  bool */\n      0x00\n        /* \"@openzeppelin/contracts/access/AccessControl.sol\":6828:6850  hasRole(role, account) */\n      tag_341\n        /* \"@openzeppelin/contracts/access/AccessControl.sol\":6836:6840  role */\n      dup4\n        /* \"@openzeppelin/contracts/access/AccessControl.sol\":6842:6849  account */\n      dup4\n        /* \"@openzeppelin/contracts/access/AccessControl.sol\":6828:6835  hasRole */\n      tag_113\n        /* \"@openzeppelin/contracts/access/AccessControl.sol\":6828:6850  hasRole(role, account) */\n      jump\t// in\n    tag_341:\n        /* \"@openzeppelin/contracts/access/AccessControl.sol\":6824:7041  if (hasRole(role, account)) {... */\n      iszero\n      tag_342\n      jumpi\n        /* \"@openzeppelin/contracts/access/AccessControl.sol\":6898:6903  false */\n      0x00\n        /* \"@openzeppelin/contracts/access/AccessControl.sol\":6866:6872  _roles */\n      0x06\n        /* \"@openzeppelin/contracts/access/AccessControl.sol\":6866:6878  _roles[role] */\n      0x00\n        /* \"@openzeppelin/contracts/access/AccessControl.sol\":6873:6877  role */\n      dup6\n        /* \"@openzeppelin/contracts/access/AccessControl.sol\":6866:6878  _roles[role] */\n      dup2\n      mstore\n      0x20\n      add\n      swap1\n      dup2\n      mstore\n      0x20\n      add\n      0x00\n      keccak256\n        /* \"@openzeppelin/contracts/access/AccessControl.sol\":6866:6886  _roles[role].hasRole */\n      0x00\n      add\n        /* \"@openzeppelin/contracts/access/AccessControl.sol\":6866:6895  _roles[role].hasRole[account] */\n      0x00\n        /* \"@openzeppelin/contracts/access/AccessControl.sol\":6887:6894  account */\n      dup5\n        /* \"@openzeppelin/contracts/access/AccessControl.sol\":6866:6895  _roles[role].hasRole[account] */\n      0xffffffffffffffffffffffffffffffffffffffff\n      and\n      0xffffffffffffffffffffffffffffffffffffffff\n      and\n      dup2\n      mstore\n      0x20\n      add\n      swap1\n      dup2\n      mstore\n      0x20\n      add\n      0x00\n      keccak256\n      0x00\n        /* \"@openzeppelin/contracts/access/AccessControl.sol\":6866:6903  _roles[role].hasRole[account] = false */\n      0x0100\n      exp\n      dup2\n      sload\n      dup2\n      0xff\n      mul\n      not\n      and\n      swap1\n      dup4\n      iszero\n      iszero\n      mul\n      or\n      swap1\n      sstore\n      pop\n        /* \"@openzeppelin/contracts/access/AccessControl.sol\":6949:6961  _msgSender() */\n      tag_343\n        /* \"@openzeppelin/contracts/access/AccessControl.sol\":6949:6959  _msgSender */\n      tag_167\n        /* \"@openzeppelin/contracts/access/AccessControl.sol\":6949:6961  _msgSender() */\n      jump\t// in\n    tag_343:\n        /* \"@openzeppelin/contracts/access/AccessControl.sol\":6922:6962  RoleRevoked(role, account, _msgSender()) */\n      0xffffffffffffffffffffffffffffffffffffffff\n      and\n        /* \"@openzeppelin/contracts/access/AccessControl.sol\":6940:6947  account */\n      dup3\n        /* \"@openzeppelin/contracts/access/AccessControl.sol\":6922:6962  RoleRevoked(role, account, _msgSender()) */\n      0xffffffffffffffffffffffffffffffffffffffff\n      and\n        /* \"@openzeppelin/contracts/access/AccessControl.sol\":6934:6938  role */\n      dup5\n        /* \"@openzeppelin/contracts/access/AccessControl.sol\":6922:6962  RoleRevoked(role, account, _msgSender()) */\n      0xf6391f5c32d9c69d2a47ea670b442974b53935d1edc7fd64eb21e047a839171b\n      mload(0x40)\n      mload(0x40)\n      dup1\n      swap2\n      sub\n      swap1\n      log4\n        /* \"@openzeppelin/contracts/access/AccessControl.sol\":6983:6987  true */\n      0x01\n        /* \"@openzeppelin/contracts/access/AccessControl.sol\":6976:6987  return true */\n      swap1\n      pop\n      jump(tag_340)\n        /* \"@openzeppelin/contracts/access/AccessControl.sol\":6824:7041  if (hasRole(role, account)) {... */\n    tag_342:\n        /* \"@openzeppelin/contracts/access/AccessControl.sol\":7025:7030  false */\n      0x00\n        /* \"@openzeppelin/contracts/access/AccessControl.sol\":7018:7030  return false */\n      swap1\n      pop\n        /* \"@openzeppelin/contracts/access/AccessControl.sol\":6730:7047  function _revokeRole(bytes32 role, address account) internal virtual returns (bool) {... */\n    tag_340:\n      swap3\n      swap2\n      pop\n      pop\n      jump\t// out\n        /* \"@openzeppelin/contracts/utils/Pausable.sol\":2710:2827  function _unpause() internal virtual whenPaused {... */\n    tag_215:\n        /* \"@openzeppelin/contracts/utils/Pausable.sol\":1721:1737  _requirePaused() */\n      tag_346\n        /* \"@openzeppelin/contracts/utils/Pausable.sol\":1721:1735  _requirePaused */\n      tag_347\n        /* \"@openzeppelin/contracts/utils/Pausable.sol\":1721:1737  _requirePaused() */\n      jump\t// in\n    tag_346:\n        /* \"@openzeppelin/contracts/utils/Pausable.sol\":2778:2783  false */\n      0x00\n        /* \"@openzeppelin/contracts/utils/Pausable.sol\":2768:2775  _paused */\n      0x05\n      0x00\n        /* \"@openzeppelin/contracts/utils/Pausable.sol\":2768:2783  _paused = false */\n      0x0100\n      exp\n      dup2\n      sload\n      dup2\n      0xff\n      mul\n      not\n      and\n      swap1\n      dup4\n      iszero\n      iszero\n      mul\n      or\n      swap1\n      sstore\n      pop\n        /* \"@openzeppelin/contracts/utils/Pausable.sol\":2798:2820  Unpaused(_msgSender()) */\n      0x5db9ee0a495bf2e6ff9c91a7834c1ba4fdd244a5e8aa4e537bd38aeae4b073aa\n        /* \"@openzeppelin/contracts/utils/Pausable.sol\":2807:2819  _msgSender() */\n      tag_349\n        /* \"@openzeppelin/contracts/utils/Pausable.sol\":2807:2817  _msgSender */\n      tag_167\n        /* \"@openzeppelin/contracts/utils/Pausable.sol\":2807:2819  _msgSender() */\n      jump\t// in\n    tag_349:\n        /* \"@openzeppelin/contracts/utils/Pausable.sol\":2798:2820  Unpaused(_msgSender()) */\n      mload(0x40)\n      tag_350\n      swap2\n      swap1\n      tag_121\n      jump\t// in\n    tag_350:\n      mload(0x40)\n      dup1\n      swap2\n      sub\n      swap1\n      log1\n        /* \"@openzeppelin/contracts/utils/Pausable.sol\":2710:2827  function _unpause() internal virtual whenPaused {... */\n      jump\t// out\n        /* \"@openzeppelin/contracts/token/ERC20/ERC20.sol\":8247:8453  function _burn(address account, uint256 value) internal {... */\n    tag_219:\n        /* \"@openzeppelin/contracts/token/ERC20/ERC20.sol\":8336:8337  0 */\n      0x00\n        /* \"@openzeppelin/contracts/token/ERC20/ERC20.sol\":8317:8338  account == address(0) */\n      0xffffffffffffffffffffffffffffffffffffffff\n      and\n        /* \"@openzeppelin/contracts/token/ERC20/ERC20.sol\":8317:8324  account */\n      dup3\n        /* \"@openzeppelin/contracts/token/ERC20/ERC20.sol\":8317:8338  account == address(0) */\n      0xffffffffffffffffffffffffffffffffffffffff\n      and\n      sub\n        /* \"@openzeppelin/contracts/token/ERC20/ERC20.sol\":8313:8402  if (account == address(0)) {... */\n      tag_352\n      jumpi\n        /* \"@openzeppelin/contracts/token/ERC20/ERC20.sol\":8388:8389  0 */\n      0x00\n        /* \"@openzeppelin/contracts/token/ERC20/ERC20.sol\":8361:8391  ERC20InvalidSender(address(0)) */\n      mload(0x40)\n      0x96c6fd1e00000000000000000000000000000000000000000000000000000000\n      dup2\n      mstore\n      0x04\n      add\n      tag_353\n      swap2\n      swap1\n      tag_121\n      jump\t// in\n    tag_353:\n      mload(0x40)\n      dup1\n      swap2\n      sub\n      swap1\n      revert\n        /* \"@openzeppelin/contracts/token/ERC20/ERC20.sol\":8313:8402  if (account == address(0)) {... */\n    tag_352:\n        /* \"@openzeppelin/contracts/token/ERC20/ERC20.sol\":8411:8446  _update(account, address(0), value) */\n      tag_354\n        /* \"@openzeppelin/contracts/token/ERC20/ERC20.sol\":8419:8426  account */\n      dup3\n        /* \"@openzeppelin/contracts/token/ERC20/ERC20.sol\":8436:8437  0 */\n      0x00\n        /* \"@openzeppelin/contracts/token/ERC20/ERC20.sol\":8440:8445  value */\n      dup4\n        /* \"@openzeppelin/contracts/token/ERC20/ERC20.sol\":8411:8418  _update */\n      tag_330\n        /* \"@openzeppelin/contracts/token/ERC20/ERC20.sol\":8411:8446  _update(account, address(0), value) */\n      jump\t// in\n    tag_354:\n        /* \"@openzeppelin/contracts/token/ERC20/ERC20.sol\":8247:8453  function _burn(address account, uint256 value) internal {... */\n      pop\n      pop\n      jump\t// out\n        /* \"@openzeppelin/contracts/utils/Pausable.sol\":2463:2578  function _pause() internal virtual whenNotPaused {... */\n    tag_230:\n        /* \"@openzeppelin/contracts/utils/Pausable.sol\":1474:1493  _requireNotPaused() */\n      tag_356\n        /* \"@openzeppelin/contracts/utils/Pausable.sol\":1474:1491  _requireNotPaused */\n      tag_357\n        /* \"@openzeppelin/contracts/utils/Pausable.sol\":1474:1493  _requireNotPaused() */\n      jump\t// in\n    tag_356:\n        /* \"@openzeppelin/contracts/utils/Pausable.sol\":2532:2536  true */\n      0x01\n        /* \"@openzeppelin/contracts/utils/Pausable.sol\":2522:2529  _paused */\n      0x05\n      0x00\n        /* \"@openzeppelin/contracts/utils/Pausable.sol\":2522:2536  _paused = true */\n      0x0100\n      exp\n      dup2\n      sload\n      dup2\n      0xff\n      mul\n      not\n      and\n      swap1\n      dup4\n      iszero\n      iszero\n      mul\n      or\n      swap1\n      sstore\n      pop\n        /* \"@openzeppelin/contracts/utils/Pausable.sol\":2551:2571  Paused(_msgSender()) */\n      0x62e78cea01bee320cd4e420270b5ea74000d11b0c9f74754ebdbfc544b05a258\n        /* \"@openzeppelin/contracts/utils/Pausable.sol\":2558:2570  _msgSender() */\n      tag_359\n        /* \"@openzeppelin/contracts/utils/Pausable.sol\":2558:2568  _msgSender */\n      tag_167\n        /* \"@openzeppelin/contracts/utils/Pausable.sol\":2558:2570  _msgSender() */\n      jump\t// in\n    tag_359:\n        /* \"@openzeppelin/contracts/utils/Pausable.sol\":2551:2571  Paused(_msgSender()) */\n      mload(0x40)\n      tag_360\n      swap2\n      swap1\n      tag_121\n      jump\t// in\n    tag_360:\n      mload(0x40)\n      dup1\n      swap2\n      sub\n      swap1\n      log1\n        /* \"@openzeppelin/contracts/utils/Pausable.sol\":2463:2578  function _pause() internal virtual whenNotPaused {... */\n      jump\t// out\n        /* \"@openzeppelin/contracts/token/ERC20/ERC20.sol\":9949:10381  function _approve(address owner, address spender, uint256 value, bool emitEvent) internal virtual {... */\n    tag_316:\n        /* \"@openzeppelin/contracts/token/ERC20/ERC20.sol\":10078:10079  0 */\n      0x00\n        /* \"@openzeppelin/contracts/token/ERC20/ERC20.sol\":10061:10080  owner == address(0) */\n      0xffffffffffffffffffffffffffffffffffffffff\n      and\n        /* \"@openzeppelin/contracts/token/ERC20/ERC20.sol\":10061:10066  owner */\n      dup5\n        /* \"@openzeppelin/contracts/token/ERC20/ERC20.sol\":10061:10080  owner == address(0) */\n      0xffffffffffffffffffffffffffffffffffffffff\n      and\n      sub\n        /* \"@openzeppelin/contracts/token/ERC20/ERC20.sol\":10057:10146  if (owner == address(0)) {... */\n      tag_362\n      jumpi\n        /* \"@openzeppelin/contracts/token/ERC20/ERC20.sol\":10132:10133  0 */\n      0x00\n        /* \"@openzeppelin/contracts/token/ERC20/ERC20.sol\":10103:10135  ERC20InvalidApprover(address(0)) */\n      mload(0x40)\n      0xe602df0500000000000000000000000000000000000000000000000000000000\n      dup2\n      mstore\n      0x04\n      add\n      tag_363\n      swap2\n      swap1\n      tag_121\n      jump\t// in\n    tag_363:\n      mload(0x40)\n      dup1\n      swap2\n      sub\n      swap1\n      revert\n        /* \"@openzeppelin/contracts/token/ERC20/ERC20.sol\":10057:10146  if (owner == address(0)) {... */\n    tag_362:\n        /* \"@openzeppelin/contracts/token/ERC20/ERC20.sol\":10178:10179  0 */\n      0x00\n        /* \"@openzeppelin/contracts/token/ERC20/ERC20.sol\":10159:10180  spender == address(0) */\n      0xffffffffffffffffffffffffffffffffffffffff\n      and\n        /* \"@openzeppelin/contracts/token/ERC20/ERC20.sol\":10159:10166  spender */\n      dup4\n        /* \"@openzeppelin/contracts/token/ERC20/ERC20.sol\":10159:10180  spender == address(0) */\n      0xffffffffffffffffffffffffffffffffffffffff\n      and\n      sub\n        /* \"@openzeppelin/contracts/token/ERC20/ERC20.sol\":10155:10245  if (spender == address(0)) {... */\n      tag_364\n      jumpi\n        /* \"@openzeppelin/contracts/token/ERC20/ERC20.sol\":10231:10232  0 */\n      0x00\n        /* \"@openzeppelin/contracts/token/ERC20/ERC20.sol\":10203:10234  ERC20InvalidSpender(address(0)) */\n      mload(0x40)\n      0x94280d6200000000000000000000000000000000000000000000000000000000\n      dup2\n      mstore\n      0x04\n      add\n      tag_365\n      swap2\n      swap1\n      tag_121\n      jump\t// in\n    tag_365:\n      mload(0x40)\n      dup1\n      swap2\n      sub\n      swap1\n      revert\n        /* \"@openzeppelin/contracts/token/ERC20/ERC20.sol\":10155:10245  if (spender == address(0)) {... */\n    tag_364:\n        /* \"@openzeppelin/contracts/token/ERC20/ERC20.sol\":10284:10289  value */\n      dup2\n        /* \"@openzeppelin/contracts/token/ERC20/ERC20.sol\":10254:10265  _allowances */\n      0x01\n        /* \"@openzeppelin/contracts/token/ERC20/ERC20.sol\":10254:10272  _allowances[owner] */\n      0x00\n        /* \"@openzeppelin/contracts/token/ERC20/ERC20.sol\":10266:10271  owner */\n      dup7\n        /* \"@openzeppelin/contracts/token/ERC20/ERC20.sol\":10254:10272  _allowances[owner] */\n      0xffffffffffffffffffffffffffffffffffffffff\n      and\n      0xffffffffffffffffffffffffffffffffffffffff\n      and\n      dup2\n      mstore\n      0x20\n      add\n      swap1\n      dup2\n      mstore\n      0x20\n      add\n      0x00\n      keccak256\n        /* \"@openzeppelin/contracts/token/ERC20/ERC20.sol\":10254:10281  _allowances[owner][spender] */\n      0x00\n        /* \"@openzeppelin/contracts/token/ERC20/ERC20.sol\":10273:10280  spender */\n      dup6\n        /* \"@openzeppelin/contracts/token/ERC20/ERC20.sol\":10254:10281  _allowances[owner][spender] */\n      0xffffffffffffffffffffffffffffffffffffffff\n      and\n      0xffffffffffffffffffffffffffffffffffffffff\n      and\n      dup2\n      mstore\n      0x20\n      add\n      swap1\n      dup2\n      mstore\n      0x20\n      add\n      0x00\n      keccak256\n        /* \"@openzeppelin/contracts/token/ERC20/ERC20.sol\":10254:10289  _allowances[owner][spender] = value */\n      dup2\n      swap1\n      sstore\n      pop\n        /* \"@openzeppelin/contracts/token/ERC20/ERC20.sol\":10303:10312  emitEvent */\n      dup1\n        /* \"@openzeppelin/contracts/token/ERC20/ERC20.sol\":10299:10375  if (emitEvent) {... */\n      iszero\n      tag_366\n      jumpi\n        /* \"@openzeppelin/contracts/token/ERC20/ERC20.sol\":10349:10356  spender */\n      dup3\n        /* \"@openzeppelin/contracts/token/ERC20/ERC20.sol\":10333:10364  Approval(owner, spender, value) */\n      0xffffffffffffffffffffffffffffffffffffffff\n      and\n        /* \"@openzeppelin/contracts/token/ERC20/ERC20.sol\":10342:10347  owner */\n      dup5\n        /* \"@openzeppelin/contracts/token/ERC20/ERC20.sol\":10333:10364  Approval(owner, spender, value) */\n      0xffffffffffffffffffffffffffffffffffffffff\n      and\n      0x8c5be1e5ebec7d5bd14f71427d1e84f3dd0314c0f7b2291e5b200ac8c7c3b925\n        /* \"@openzeppelin/contracts/token/ERC20/ERC20.sol\":10358:10363  value */\n      dup5\n        /* \"@openzeppelin/contracts/token/ERC20/ERC20.sol\":10333:10364  Approval(owner, spender, value) */\n      mload(0x40)\n      tag_367\n      swap2\n      swap1\n      tag_63\n      jump\t// in\n    tag_367:\n      mload(0x40)\n      dup1\n      swap2\n      sub\n      swap1\n      log3\n        /* \"@openzeppelin/contracts/token/ERC20/ERC20.sol\":10299:10375  if (emitEvent) {... */\n    tag_366:\n        /* \"@openzeppelin/contracts/token/ERC20/ERC20.sol\":9949:10381  function _approve(address owner, address spender, uint256 value, bool emitEvent) internal virtual {... */\n      pop\n      pop\n      pop\n      pop\n      jump\t// out\n        /* \"contracts/MyToken.sol\":3065:3230  function _update(address from, address to, uint256 value)... */\n    tag_330:\n        /* \"contracts/MyToken.sol\":3193:3223  super._update(from, to, value) */\n      tag_369\n        /* \"contracts/MyToken.sol\":3207:3211  from */\n      dup4\n        /* \"contracts/MyToken.sol\":3213:3215  to */\n      dup4\n        /* \"contracts/MyToken.sol\":3217:3222  value */\n      dup4\n        /* \"contracts/MyToken.sol\":3193:3206  super._update */\n      tag_370\n        /* \"contracts/MyToken.sol\":3193:3223  super._update(from, to, value) */\n      jump\t// in\n    tag_369:\n        /* \"contracts/MyToken.sol\":3065:3230  function _update(address from, address to, uint256 value)... */\n      pop\n      pop\n      pop\n      jump\t// out\n        /* \"@openzeppelin/contracts/access/AccessControl.sol\":3432:3629  function _checkRole(bytes32 role, address account) internal view virtual {... */\n    tag_334:\n        /* \"@openzeppelin/contracts/access/AccessControl.sol\":3520:3542  hasRole(role, account) */\n      tag_372\n        /* \"@openzeppelin/contracts/access/AccessControl.sol\":3528:3532  role */\n      dup3\n        /* \"@openzeppelin/contracts/access/AccessControl.sol\":3534:3541  account */\n      dup3\n        /* \"@openzeppelin/contracts/access/AccessControl.sol\":3520:3527  hasRole */\n      tag_113\n        /* \"@openzeppelin/contracts/access/AccessControl.sol\":3520:3542  hasRole(role, account) */\n      jump\t// in\n    tag_372:\n        /* \"@openzeppelin/contracts/access/AccessControl.sol\":3515:3623  if (!hasRole(role, account)) {... */\n      tag_373\n      jumpi\n        /* \"@openzeppelin/contracts/access/AccessControl.sol\":3598:3605  account */\n      dup1\n        /* \"@openzeppelin/contracts/access/AccessControl.sol\":3607:3611  role */\n      dup3\n        /* \"@openzeppelin/contracts/access/AccessControl.sol\":3565:3612  AccessControlUnauthorizedAccount(account, role) */\n      mload(0x40)\n      0xe2517d3f00000000000000000000000000000000000000000000000000000000\n      dup2\n      mstore\n      0x04\n      add\n      tag_374\n      swap3\n      swap2\n      swap1\n      tag_375\n      jump\t// in\n    tag_374:\n      mload(0x40)\n      dup1\n      swap2\n      sub\n      swap1\n      revert\n        /* \"@openzeppelin/contracts/access/AccessControl.sol\":3515:3623  if (!hasRole(role, account)) {... */\n    tag_373:\n        /* \"@openzeppelin/contracts/access/AccessControl.sol\":3432:3629  function _checkRole(bytes32 role, address account) internal view virtual {... */\n      pop\n      pop\n      jump\t// out\n        /* \"@openzeppelin/contracts/utils/Pausable.sol\":2202:2328  function _requirePaused() internal view virtual {... */\n    tag_347:\n        /* \"@openzeppelin/contracts/utils/Pausable.sol\":2265:2273  paused() */\n      tag_377\n        /* \"@openzeppelin/contracts/utils/Pausable.sol\":2265:2271  paused */\n      tag_95\n        /* \"@openzeppelin/contracts/utils/Pausable.sol\":2265:2273  paused() */\n      jump\t// in\n    tag_377:\n        /* \"@openzeppelin/contracts/utils/Pausable.sol\":2260:2322  if (!paused()) {... */\n      tag_378\n      jumpi\n        /* \"@openzeppelin/contracts/utils/Pausable.sol\":2296:2311  ExpectedPause() */\n      mload(0x40)\n      0x8dfc202b00000000000000000000000000000000000000000000000000000000\n      dup2\n      mstore\n      0x04\n      add\n      mload(0x40)\n      dup1\n      swap2\n      sub\n      swap1\n      revert\n        /* \"@openzeppelin/contracts/utils/Pausable.sol\":2260:2322  if (!paused()) {... */\n    tag_378:\n        /* \"@openzeppelin/contracts/utils/Pausable.sol\":2202:2328  function _requirePaused() internal view virtual {... */\n      jump\t// out\n        /* \"@openzeppelin/contracts/utils/Pausable.sol\":2002:2130  function _requireNotPaused() internal view virtual {... */\n    tag_357:\n        /* \"@openzeppelin/contracts/utils/Pausable.sol\":2067:2075  paused() */\n      tag_380\n        /* \"@openzeppelin/contracts/utils/Pausable.sol\":2067:2073  paused */\n      tag_95\n        /* \"@openzeppelin/contracts/utils/Pausable.sol\":2067:2075  paused() */\n      jump\t// in\n    tag_380:\n        /* \"@openzeppelin/contracts/utils/Pausable.sol\":2063:2124  if (paused()) {... */\n      iszero\n      tag_381\n      jumpi\n        /* \"@openzeppelin/contracts/utils/Pausable.sol\":2098:2113  EnforcedPause() */\n      mload(0x40)\n      0xd93c066500000000000000000000000000000000000000000000000000000000\n      dup2\n      mstore\n      0x04\n      add\n      mload(0x40)\n      dup1\n      swap2\n      sub\n      swap1\n      revert\n        /* \"@openzeppelin/contracts/utils/Pausable.sol\":2063:2124  if (paused()) {... */\n    tag_381:\n        /* \"@openzeppelin/contracts/utils/Pausable.sol\":2002:2130  function _requireNotPaused() internal view virtual {... */\n      jump\t// out\n        /* \"@openzeppelin/contracts/token/ERC20/extensions/ERC20Pausable.sol\":1112:1257  function _update(address from, address to, uint256 value) internal virtual override whenNotPaused {... */\n    tag_370:\n        /* \"@openzeppelin/contracts/utils/Pausable.sol\":1474:1493  _requireNotPaused() */\n      tag_383\n        /* \"@openzeppelin/contracts/utils/Pausable.sol\":1474:1491  _requireNotPaused */\n      tag_357\n        /* \"@openzeppelin/contracts/utils/Pausable.sol\":1474:1493  _requireNotPaused() */\n      jump\t// in\n    tag_383:\n        /* \"@openzeppelin/contracts/token/ERC20/extensions/ERC20Pausable.sol\":1220:1250  super._update(from, to, value) */\n      tag_385\n        /* \"@openzeppelin/contracts/token/ERC20/extensions/ERC20Pausable.sol\":1234:1238  from */\n      dup4\n        /* \"@openzeppelin/contracts/token/ERC20/extensions/ERC20Pausable.sol\":1240:1242  to */\n      dup4\n        /* \"@openzeppelin/contracts/token/ERC20/extensions/ERC20Pausable.sol\":1244:1249  value */\n      dup4\n        /* \"@openzeppelin/contracts/token/ERC20/extensions/ERC20Pausable.sol\":1220:1233  super._update */\n      tag_386\n        /* \"@openzeppelin/contracts/token/ERC20/extensions/ERC20Pausable.sol\":1220:1250  super._update(from, to, value) */\n      jump\t// in\n    tag_385:\n        /* \"@openzeppelin/contracts/token/ERC20/extensions/ERC20Pausable.sol\":1112:1257  function _update(address from, address to, uint256 value) internal virtual override whenNotPaused {... */\n      pop\n      pop\n      pop\n      jump\t// out\n        /* \"@openzeppelin/contracts/token/ERC20/ERC20.sol\":6271:7378  function _update(address from, address to, uint256 value) internal virtual {... */\n    tag_386:\n        /* \"@openzeppelin/contracts/token/ERC20/ERC20.sol\":6376:6377  0 */\n      0x00\n        /* \"@openzeppelin/contracts/token/ERC20/ERC20.sol\":6360:6378  from == address(0) */\n      0xffffffffffffffffffffffffffffffffffffffff\n      and\n        /* \"@openzeppelin/contracts/token/ERC20/ERC20.sol\":6360:6364  from */\n      dup4\n        /* \"@openzeppelin/contracts/token/ERC20/ERC20.sol\":6360:6378  from == address(0) */\n      0xffffffffffffffffffffffffffffffffffffffff\n      and\n      sub\n        /* \"@openzeppelin/contracts/token/ERC20/ERC20.sol\":6356:6896  if (from == address(0)) {... */\n      tag_388\n      jumpi\n        /* \"@openzeppelin/contracts/token/ERC20/ERC20.sol\":6512:6517  value */\n      dup1\n        /* \"@openzeppelin/contracts/token/ERC20/ERC20.sol\":6496:6508  _totalSupply */\n      0x02\n      0x00\n        /* \"@openzeppelin/contracts/token/ERC20/ERC20.sol\":6496:6517  _totalSupply += value */\n      dup3\n      dup3\n      sload\n      tag_389\n      swap2\n      swap1\n      tag_390\n      jump\t// in\n    tag_389:\n      swap3\n      pop\n      pop\n      dup2\n      swap1\n      sstore\n      pop\n        /* \"@openzeppelin/contracts/token/ERC20/ERC20.sol\":6356:6896  if (from == address(0)) {... */\n      jump(tag_391)\n    tag_388:\n        /* \"@openzeppelin/contracts/token/ERC20/ERC20.sol\":6548:6567  uint256 fromBalance */\n      0x00\n        /* \"@openzeppelin/contracts/token/ERC20/ERC20.sol\":6570:6579  _balances */\n      dup1\n        /* \"@openzeppelin/contracts/token/ERC20/ERC20.sol\":6570:6585  _balances[from] */\n      0x00\n        /* \"@openzeppelin/contracts/token/ERC20/ERC20.sol\":6580:6584  from */\n      dup6\n        /* \"@openzeppelin/contracts/token/ERC20/ERC20.sol\":6570:6585  _balances[from] */\n      0xffffffffffffffffffffffffffffffffffffffff\n      and\n      0xffffffffffffffffffffffffffffffffffffffff\n      and\n      dup2\n      mstore\n      0x20\n      add\n      swap1\n      dup2\n      mstore\n      0x20\n      add\n      0x00\n      keccak256\n      sload\n        /* \"@openzeppelin/contracts/token/ERC20/ERC20.sol\":6548:6585  uint256 fromBalance = _balances[from] */\n      swap1\n      pop\n        /* \"@openzeppelin/contracts/token/ERC20/ERC20.sol\":6617:6622  value */\n      dup2\n        /* \"@openzeppelin/contracts/token/ERC20/ERC20.sol\":6603:6614  fromBalance */\n      dup2\n        /* \"@openzeppelin/contracts/token/ERC20/ERC20.sol\":6603:6622  fromBalance < value */\n      lt\n        /* \"@openzeppelin/contracts/token/ERC20/ERC20.sol\":6599:6714  if (fromBalance < value) {... */\n      iszero\n      tag_392\n      jumpi\n        /* \"@openzeppelin/contracts/token/ERC20/ERC20.sol\":6674:6678  from */\n      dup4\n        /* \"@openzeppelin/contracts/token/ERC20/ERC20.sol\":6680:6691  fromBalance */\n      dup2\n        /* \"@openzeppelin/contracts/token/ERC20/ERC20.sol\":6693:6698  value */\n      dup4\n        /* \"@openzeppelin/contracts/token/ERC20/ERC20.sol\":6649:6699  ERC20InsufficientBalance(from, fromBalance, value) */\n      mload(0x40)\n      0xe450d38c00000000000000000000000000000000000000000000000000000000\n      dup2\n      mstore\n      0x04\n      add\n      tag_393\n      swap4\n      swap3\n      swap2\n      swap1\n      tag_322\n      jump\t// in\n    tag_393:\n      mload(0x40)\n      dup1\n      swap2\n      sub\n      swap1\n      revert\n        /* \"@openzeppelin/contracts/token/ERC20/ERC20.sol\":6599:6714  if (fromBalance < value) {... */\n    tag_392:\n        /* \"@openzeppelin/contracts/token/ERC20/ERC20.sol\":6866:6871  value */\n      dup2\n        /* \"@openzeppelin/contracts/token/ERC20/ERC20.sol\":6852:6863  fromBalance */\n      dup2\n        /* \"@openzeppelin/contracts/token/ERC20/ERC20.sol\":6852:6871  fromBalance - value */\n      sub\n        /* \"@openzeppelin/contracts/token/ERC20/ERC20.sol\":6834:6843  _balances */\n      0x00\n        /* \"@openzeppelin/contracts/token/ERC20/ERC20.sol\":6834:6849  _balances[from] */\n      dup1\n        /* \"@openzeppelin/contracts/token/ERC20/ERC20.sol\":6844:6848  from */\n      dup7\n        /* \"@openzeppelin/contracts/token/ERC20/ERC20.sol\":6834:6849  _balances[from] */\n      0xffffffffffffffffffffffffffffffffffffffff\n      and\n      0xffffffffffffffffffffffffffffffffffffffff\n      and\n      dup2\n      mstore\n      0x20\n      add\n      swap1\n      dup2\n      mstore\n      0x20\n      add\n      0x00\n      keccak256\n        /* \"@openzeppelin/contracts/token/ERC20/ERC20.sol\":6834:6871  _balances[from] = fromBalance - value */\n      dup2\n      swap1\n      sstore\n      pop\n        /* \"@openzeppelin/contracts/token/ERC20/ERC20.sol\":6534:6896  {... */\n      pop\n        /* \"@openzeppelin/contracts/token/ERC20/ERC20.sol\":6356:6896  if (from == address(0)) {... */\n    tag_391:\n        /* \"@openzeppelin/contracts/token/ERC20/ERC20.sol\":6924:6925  0 */\n      0x00\n        /* \"@openzeppelin/contracts/token/ERC20/ERC20.sol\":6910:6926  to == address(0) */\n      0xffffffffffffffffffffffffffffffffffffffff\n      and\n        /* \"@openzeppelin/contracts/token/ERC20/ERC20.sol\":6910:6912  to */\n      dup3\n        /* \"@openzeppelin/contracts/token/ERC20/ERC20.sol\":6910:6926  to == address(0) */\n      0xffffffffffffffffffffffffffffffffffffffff\n      and\n      sub\n        /* \"@openzeppelin/contracts/token/ERC20/ERC20.sol\":6906:7331  if (to == address(0)) {... */\n      tag_394\n      jumpi\n        /* \"@openzeppelin/contracts/token/ERC20/ERC20.sol\":7089:7094  value */\n      dup1\n        /* \"@openzeppelin/contracts/token/ERC20/ERC20.sol\":7073:7085  _totalSupply */\n      0x02\n      0x00\n        /* \"@openzeppelin/contracts/token/ERC20/ERC20.sol\":7073:7094  _totalSupply -= value */\n      dup3\n      dup3\n      sload\n      sub\n      swap3\n      pop\n      pop\n      dup2\n      swap1\n      sstore\n      pop\n        /* \"@openzeppelin/contracts/token/ERC20/ERC20.sol\":6906:7331  if (to == address(0)) {... */\n      jump(tag_395)\n    tag_394:\n        /* \"@openzeppelin/contracts/token/ERC20/ERC20.sol\":7301:7306  value */\n      dup1\n        /* \"@openzeppelin/contracts/token/ERC20/ERC20.sol\":7284:7293  _balances */\n      0x00\n        /* \"@openzeppelin/contracts/token/ERC20/ERC20.sol\":7284:7297  _balances[to] */\n      dup1\n        /* \"@openzeppelin/contracts/token/ERC20/ERC20.sol\":7294:7296  to */\n      dup5\n        /* \"@openzeppelin/contracts/token/ERC20/ERC20.sol\":7284:7297  _balances[to] */\n      0xffffffffffffffffffffffffffffffffffffffff\n      and\n      0xffffffffffffffffffffffffffffffffffffffff\n      and\n      dup2\n      mstore\n      0x20\n      add\n      swap1\n      dup2\n      mstore\n      0x20\n      add\n      0x00\n      keccak256\n      0x00\n        /* \"@openzeppelin/contracts/token/ERC20/ERC20.sol\":7284:7306  _balances[to] += value */\n      dup3\n      dup3\n      sload\n      add\n      swap3\n      pop\n      pop\n      dup2\n      swap1\n      sstore\n      pop\n        /* \"@openzeppelin/contracts/token/ERC20/ERC20.sol\":6906:7331  if (to == address(0)) {... */\n    tag_395:\n        /* \"@openzeppelin/contracts/token/ERC20/ERC20.sol\":7361:7363  to */\n      dup2\n        /* \"@openzeppelin/contracts/token/ERC20/ERC20.sol\":7346:7371  Transfer(from, to, value) */\n      0xffffffffffffffffffffffffffffffffffffffff\n      and\n        /* \"@openzeppelin/contracts/token/ERC20/ERC20.sol\":7355:7359  from */\n      dup4\n        /* \"@openzeppelin/contracts/token/ERC20/ERC20.sol\":7346:7371  Transfer(from, to, value) */\n      0xffffffffffffffffffffffffffffffffffffffff\n      and\n      0xddf252ad1be2c89b69c2b068fc378daa952ba7f163c4a11628f55a4df523b3ef\n        /* \"@openzeppelin/contracts/token/ERC20/ERC20.sol\":7365:7370  value */\n      dup4\n        /* \"@openzeppelin/contracts/token/ERC20/ERC20.sol\":7346:7371  Transfer(from, to, value) */\n      mload(0x40)\n      tag_396\n      swap2\n      swap1\n      tag_63\n      jump\t// in\n    tag_396:\n      mload(0x40)\n      dup1\n      swap2\n      sub\n      swap1\n      log3\n        /* \"@openzeppelin/contracts/token/ERC20/ERC20.sol\":6271:7378  function _update(address from, address to, uint256 value) internal virtual {... */\n      pop\n      pop\n      pop\n      jump\t// out\n        /* \"#utility.yul\":7:82   */\n    tag_397:\n        /* \"#utility.yul\":40:46   */\n      0x00\n        /* \"#utility.yul\":73:75   */\n      0x40\n        /* \"#utility.yul\":67:76   */\n      mload\n        /* \"#utility.yul\":57:76   */\n      swap1\n      pop\n        /* \"#utility.yul\":7:82   */\n      swap1\n      jump\t// out\n        /* \"#utility.yul\":88:205   */\n    tag_398:\n        /* \"#utility.yul\":197:198   */\n      0x00\n        /* \"#utility.yul\":194:195   */\n      dup1\n        /* \"#utility.yul\":187:199   */\n      revert\n        /* \"#utility.yul\":211:328   */\n    tag_399:\n        /* \"#utility.yul\":320:321   */\n      0x00\n        /* \"#utility.yul\":317:318   */\n      dup1\n        /* \"#utility.yul\":310:322   */\n      revert\n        /* \"#utility.yul\":334:483   */\n    tag_400:\n        /* \"#utility.yul\":370:377   */\n      0x00\n        /* \"#utility.yul\":410:476   */\n      0xffffffff00000000000000000000000000000000000000000000000000000000\n        /* \"#utility.yul\":403:408   */\n      dup3\n        /* \"#utility.yul\":399:477   */\n      and\n        /* \"#utility.yul\":388:477   */\n      swap1\n      pop\n        /* \"#utility.yul\":334:483   */\n      swap2\n      swap1\n      pop\n      jump\t// out\n        /* \"#utility.yul\":489:609   */\n    tag_401:\n        /* \"#utility.yul\":561:584   */\n      tag_461\n        /* \"#utility.yul\":578:583   */\n      dup2\n        /* \"#utility.yul\":561:584   */\n      tag_400\n      jump\t// in\n    tag_461:\n        /* \"#utility.yul\":554:559   */\n      dup2\n        /* \"#utility.yul\":551:585   */\n      eq\n        /* \"#utility.yul\":541:603   */\n      tag_462\n      jumpi\n        /* \"#utility.yul\":599:600   */\n      0x00\n        /* \"#utility.yul\":596:597   */\n      dup1\n        /* \"#utility.yul\":589:601   */\n      revert\n        /* \"#utility.yul\":541:603   */\n    tag_462:\n        /* \"#utility.yul\":489:609   */\n      pop\n      jump\t// out\n        /* \"#utility.yul\":615:752   */\n    tag_402:\n        /* \"#utility.yul\":660:665   */\n      0x00\n        /* \"#utility.yul\":698:704   */\n      dup2\n        /* \"#utility.yul\":685:705   */\n      calldataload\n        /* \"#utility.yul\":676:705   */\n      swap1\n      pop\n        /* \"#utility.yul\":714:746   */\n      tag_464\n        /* \"#utility.yul\":740:745   */\n      dup2\n        /* \"#utility.yul\":714:746   */\n      tag_401\n      jump\t// in\n    tag_464:\n        /* \"#utility.yul\":615:752   */\n      swap3\n      swap2\n      pop\n      pop\n      jump\t// out\n        /* \"#utility.yul\":758:1085   */\n    tag_43:\n        /* \"#utility.yul\":816:822   */\n      0x00\n        /* \"#utility.yul\":865:867   */\n      0x20\n        /* \"#utility.yul\":853:862   */\n      dup3\n        /* \"#utility.yul\":844:851   */\n      dup5\n        /* \"#utility.yul\":840:863   */\n      sub\n        /* \"#utility.yul\":836:868   */\n      slt\n        /* \"#utility.yul\":833:952   */\n      iszero\n      tag_466\n      jumpi\n        /* \"#utility.yul\":871:950   */\n      tag_467\n      tag_398\n      jump\t// in\n    tag_467:\n        /* \"#utility.yul\":833:952   */\n    tag_466:\n        /* \"#utility.yul\":991:992   */\n      0x00\n        /* \"#utility.yul\":1016:1068   */\n      tag_468\n        /* \"#utility.yul\":1060:1067   */\n      dup5\n        /* \"#utility.yul\":1051:1057   */\n      dup3\n        /* \"#utility.yul\":1040:1049   */\n      dup6\n        /* \"#utility.yul\":1036:1058   */\n      add\n        /* \"#utility.yul\":1016:1068   */\n      tag_402\n      jump\t// in\n    tag_468:\n        /* \"#utility.yul\":1006:1068   */\n      swap2\n      pop\n        /* \"#utility.yul\":962:1078   */\n      pop\n        /* \"#utility.yul\":758:1085   */\n      swap3\n      swap2\n      pop\n      pop\n      jump\t// out\n        /* \"#utility.yul\":1091:1181   */\n    tag_403:\n        /* \"#utility.yul\":1125:1132   */\n      0x00\n        /* \"#utility.yul\":1168:1173   */\n      dup2\n        /* \"#utility.yul\":1161:1174   */\n      iszero\n        /* \"#utility.yul\":1154:1175   */\n      iszero\n        /* \"#utility.yul\":1143:1175   */\n      swap1\n      pop\n        /* \"#utility.yul\":1091:1181   */\n      swap2\n      swap1\n      pop\n      jump\t// out\n        /* \"#utility.yul\":1187:1296   */\n    tag_404:\n        /* \"#utility.yul\":1268:1289   */\n      tag_471\n        /* \"#utility.yul\":1283:1288   */\n      dup2\n        /* \"#utility.yul\":1268:1289   */\n      tag_403\n      jump\t// in\n    tag_471:\n        /* \"#utility.yul\":1263:1266   */\n      dup3\n        /* \"#utility.yul\":1256:1290   */\n      mstore\n        /* \"#utility.yul\":1187:1296   */\n      pop\n      pop\n      jump\t// out\n        /* \"#utility.yul\":1302:1512   */\n    tag_46:\n        /* \"#utility.yul\":1389:1393   */\n      0x00\n        /* \"#utility.yul\":1427:1429   */\n      0x20\n        /* \"#utility.yul\":1416:1425   */\n      dup3\n        /* \"#utility.yul\":1412:1430   */\n      add\n        /* \"#utility.yul\":1404:1430   */\n      swap1\n      pop\n        /* \"#utility.yul\":1440:1505   */\n      tag_473\n        /* \"#utility.yul\":1502:1503   */\n      0x00\n        /* \"#utility.yul\":1491:1500   */\n      dup4\n        /* \"#utility.yul\":1487:1504   */\n      add\n        /* \"#utility.yul\":1478:1484   */\n      dup5\n        /* \"#utility.yul\":1440:1505   */\n      tag_404\n      jump\t// in\n    tag_473:\n        /* \"#utility.yul\":1302:1512   */\n      swap3\n      swap2\n      pop\n      pop\n      jump\t// out\n        /* \"#utility.yul\":1518:1617   */\n    tag_405:\n        /* \"#utility.yul\":1570:1576   */\n      0x00\n        /* \"#utility.yul\":1604:1609   */\n      dup2\n        /* \"#utility.yul\":1598:1610   */\n      mload\n        /* \"#utility.yul\":1588:1610   */\n      swap1\n      pop\n        /* \"#utility.yul\":1518:1617   */\n      swap2\n      swap1\n      pop\n      jump\t// out\n        /* \"#utility.yul\":1623:1792   */\n    tag_406:\n        /* \"#utility.yul\":1707:1718   */\n      0x00\n        /* \"#utility.yul\":1741:1747   */\n      dup3\n        /* \"#utility.yul\":1736:1739   */\n      dup3\n        /* \"#utility.yul\":1729:1748   */\n      mstore\n        /* \"#utility.yul\":1781:1785   */\n      0x20\n        /* \"#utility.yul\":1776:1779   */\n      dup3\n        /* \"#utility.yul\":1772:1786   */\n      add\n        /* \"#utility.yul\":1757:1786   */\n      swap1\n      pop\n        /* \"#utility.yul\":1623:1792   */\n      swap3\n      swap2\n      pop\n      pop\n      jump\t// out\n        /* \"#utility.yul\":1798:1937   */\n    tag_407:\n        /* \"#utility.yul\":1887:1893   */\n      dup3\n        /* \"#utility.yul\":1882:1885   */\n      dup2\n        /* \"#utility.yul\":1877:1880   */\n      dup4\n        /* \"#utility.yul\":1871:1894   */\n      mcopy\n        /* \"#utility.yul\":1928:1929   */\n      0x00\n        /* \"#utility.yul\":1919:1925   */\n      dup4\n        /* \"#utility.yul\":1914:1917   */\n      dup4\n        /* \"#utility.yul\":1910:1926   */\n      add\n        /* \"#utility.yul\":1903:1930   */\n      mstore\n        /* \"#utility.yul\":1798:1937   */\n      pop\n      pop\n      pop\n      jump\t// out\n        /* \"#utility.yul\":1943:2045   */\n    tag_408:\n        /* \"#utility.yul\":1984:1990   */\n      0x00\n        /* \"#utility.yul\":2035:2037   */\n      0x1f\n        /* \"#utility.yul\":2031:2038   */\n      not\n        /* \"#utility.yul\":2026:2028   */\n      0x1f\n        /* \"#utility.yul\":2019:2024   */\n      dup4\n        /* \"#utility.yul\":2015:2029   */\n      add\n        /* \"#utility.yul\":2011:2039   */\n      and\n        /* \"#utility.yul\":2001:2039   */\n      swap1\n      pop\n        /* \"#utility.yul\":1943:2045   */\n      swap2\n      swap1\n      pop\n      jump\t// out\n        /* \"#utility.yul\":2051:2428   */\n    tag_409:\n        /* \"#utility.yul\":2139:2142   */\n      0x00\n        /* \"#utility.yul\":2167:2206   */\n      tag_479\n        /* \"#utility.yul\":2200:2205   */\n      dup3\n        /* \"#utility.yul\":2167:2206   */\n      tag_405\n      jump\t// in\n    tag_479:\n        /* \"#utility.yul\":2222:2293   */\n      tag_480\n        /* \"#utility.yul\":2286:2292   */\n      dup2\n        /* \"#utility.yul\":2281:2284   */\n      dup6\n        /* \"#utility.yul\":2222:2293   */\n      tag_406\n      jump\t// in\n    tag_480:\n        /* \"#utility.yul\":2215:2293   */\n      swap4\n      pop\n        /* \"#utility.yul\":2302:2367   */\n      tag_481\n        /* \"#utility.yul\":2360:2366   */\n      dup2\n        /* \"#utility.yul\":2355:2358   */\n      dup6\n        /* \"#utility.yul\":2348:2352   */\n      0x20\n        /* \"#utility.yul\":2341:2346   */\n      dup7\n        /* \"#utility.yul\":2337:2353   */\n      add\n        /* \"#utility.yul\":2302:2367   */\n      tag_407\n      jump\t// in\n    tag_481:\n        /* \"#utility.yul\":2392:2421   */\n      tag_482\n        /* \"#utility.yul\":2414:2420   */\n      dup2\n        /* \"#utility.yul\":2392:2421   */\n      tag_408\n      jump\t// in\n    tag_482:\n        /* \"#utility.yul\":2387:2390   */\n      dup5\n        /* \"#utility.yul\":2383:2422   */\n      add\n        /* \"#utility.yul\":2376:2422   */\n      swap2\n      pop\n        /* \"#utility.yul\":2143:2428   */\n      pop\n        /* \"#utility.yul\":2051:2428   */\n      swap3\n      swap2\n      pop\n      pop\n      jump\t// out\n        /* \"#utility.yul\":2434:2747   */\n    tag_50:\n        /* \"#utility.yul\":2547:2551   */\n      0x00\n        /* \"#utility.yul\":2585:2587   */\n      0x20\n        /* \"#utility.yul\":2574:2583   */\n      dup3\n        /* \"#utility.yul\":2570:2588   */\n      add\n        /* \"#utility.yul\":2562:2588   */\n      swap1\n      pop\n        /* \"#utility.yul\":2634:2643   */\n      dup2\n        /* \"#utility.yul\":2628:2632   */\n      dup2\n        /* \"#utility.yul\":2624:2644   */\n      sub\n        /* \"#utility.yul\":2620:2621   */\n      0x00\n        /* \"#utility.yul\":2609:2618   */\n      dup4\n        /* \"#utility.yul\":2605:2622   */\n      add\n        /* \"#utility.yul\":2598:2645   */\n      mstore\n        /* \"#utility.yul\":2662:2740   */\n      tag_484\n        /* \"#utility.yul\":2735:2739   */\n      dup2\n        /* \"#utility.yul\":2726:2732   */\n      dup5\n        /* \"#utility.yul\":2662:2740   */\n      tag_409\n      jump\t// in\n    tag_484:\n        /* \"#utility.yul\":2654:2740   */\n      swap1\n      pop\n        /* \"#utility.yul\":2434:2747   */\n      swap3\n      swap2\n      pop\n      pop\n      jump\t// out\n        /* \"#utility.yul\":2753:2879   */\n    tag_410:\n        /* \"#utility.yul\":2790:2797   */\n      0x00\n        /* \"#utility.yul\":2830:2872   */\n      0xffffffffffffffffffffffffffffffffffffffff\n        /* \"#utility.yul\":2823:2828   */\n      dup3\n        /* \"#utility.yul\":2819:2873   */\n      and\n        /* \"#utility.yul\":2808:2873   */\n      swap1\n      pop\n        /* \"#utility.yul\":2753:2879   */\n      swap2\n      swap1\n      pop\n      jump\t// out\n        /* \"#utility.yul\":2885:2981   */\n    tag_411:\n        /* \"#utility.yul\":2922:2929   */\n      0x00\n        /* \"#utility.yul\":2951:2975   */\n      tag_487\n        /* \"#utility.yul\":2969:2974   */\n      dup3\n        /* \"#utility.yul\":2951:2975   */\n      tag_410\n      jump\t// in\n    tag_487:\n        /* \"#utility.yul\":2940:2975   */\n      swap1\n      pop\n        /* \"#utility.yul\":2885:2981   */\n      swap2\n      swap1\n      pop\n      jump\t// out\n        /* \"#utility.yul\":2987:3109   */\n    tag_412:\n        /* \"#utility.yul\":3060:3084   */\n      tag_489\n        /* \"#utility.yul\":3078:3083   */\n      dup2\n        /* \"#utility.yul\":3060:3084   */\n      tag_411\n      jump\t// in\n    tag_489:\n        /* \"#utility.yul\":3053:3058   */\n      dup2\n        /* \"#utility.yul\":3050:3085   */\n      eq\n        /* \"#utility.yul\":3040:3103   */\n      tag_490\n      jumpi\n        /* \"#utility.yul\":3099:3100   */\n      0x00\n        /* \"#utility.yul\":3096:3097   */\n      dup1\n        /* \"#utility.yul\":3089:3101   */\n      revert\n        /* \"#utility.yul\":3040:3103   */\n    tag_490:\n        /* \"#utility.yul\":2987:3109   */\n      pop\n      jump\t// out\n        /* \"#utility.yul\":3115:3254   */\n    tag_413:\n        /* \"#utility.yul\":3161:3166   */\n      0x00\n        /* \"#utility.yul\":3199:3205   */\n      dup2\n        /* \"#utility.yul\":3186:3206   */\n      calldataload\n        /* \"#utility.yul\":3177:3206   */\n      swap1\n      pop\n        /* \"#utility.yul\":3215:3248   */\n      tag_492\n        /* \"#utility.yul\":3242:3247   */\n      dup2\n        /* \"#utility.yul\":3215:3248   */\n      tag_412\n      jump\t// in\n    tag_492:\n        /* \"#utility.yul\":3115:3254   */\n      swap3\n      swap2\n      pop\n      pop\n      jump\t// out\n        /* \"#utility.yul\":3260:3337   */\n    tag_414:\n        /* \"#utility.yul\":3297:3304   */\n      0x00\n        /* \"#utility.yul\":3326:3331   */\n      dup2\n        /* \"#utility.yul\":3315:3331   */\n      swap1\n      pop\n        /* \"#utility.yul\":3260:3337   */\n      swap2\n      swap1\n      pop\n      jump\t// out\n        /* \"#utility.yul\":3343:3465   */\n    tag_415:\n        /* \"#utility.yul\":3416:3440   */\n      tag_495\n        /* \"#utility.yul\":3434:3439   */\n      dup2\n        /* \"#utility.yul\":3416:3440   */\n      tag_414\n      jump\t// in\n    tag_495:\n        /* \"#utility.yul\":3409:3414   */\n      dup2\n        /* \"#utility.yul\":3406:3441   */\n      eq\n        /* \"#utility.yul\":3396:3459   */\n      tag_496\n      jumpi\n        /* \"#utility.yul\":3455:3456   */\n      0x00\n        /* \"#utility.yul\":3452:3453   */\n      dup1\n        /* \"#utility.yul\":3445:3457   */\n      revert\n        /* \"#utility.yul\":3396:3459   */\n    tag_496:\n        /* \"#utility.yul\":3343:3465   */\n      pop\n      jump\t// out\n        /* \"#utility.yul\":3471:3610   */\n    tag_416:\n        /* \"#utility.yul\":3517:3522   */\n      0x00\n        /* \"#utility.yul\":3555:3561   */\n      dup2\n        /* \"#utility.yul\":3542:3562   */\n      calldataload\n        /* \"#utility.yul\":3533:3562   */\n      swap1\n      pop\n        /* \"#utility.yul\":3571:3604   */\n      tag_498\n        /* \"#utility.yul\":3598:3603   */\n      dup2\n        /* \"#utility.yul\":3571:3604   */\n      tag_415\n      jump\t// in\n    tag_498:\n        /* \"#utility.yul\":3471:3610   */\n      swap3\n      swap2\n      pop\n      pop\n      jump\t// out\n        /* \"#utility.yul\":3616:4090   */\n    tag_53:\n        /* \"#utility.yul\":3684:3690   */\n      0x00\n        /* \"#utility.yul\":3692:3698   */\n      dup1\n        /* \"#utility.yul\":3741:3743   */\n      0x40\n        /* \"#utility.yul\":3729:3738   */\n      dup4\n        /* \"#utility.yul\":3720:3727   */\n      dup6\n        /* \"#utility.yul\":3716:3739   */\n      sub\n        /* \"#utility.yul\":3712:3744   */\n      slt\n        /* \"#utility.yul\":3709:3828   */\n      iszero\n      tag_500\n      jumpi\n        /* \"#utility.yul\":3747:3826   */\n      tag_501\n      tag_398\n      jump\t// in\n    tag_501:\n        /* \"#utility.yul\":3709:3828   */\n    tag_500:\n        /* \"#utility.yul\":3867:3868   */\n      0x00\n        /* \"#utility.yul\":3892:3945   */\n      tag_502\n        /* \"#utility.yul\":3937:3944   */\n      dup6\n        /* \"#utility.yul\":3928:3934   */\n      dup3\n        /* \"#utility.yul\":3917:3926   */\n      dup7\n        /* \"#utility.yul\":3913:3935   */\n      add\n        /* \"#utility.yul\":3892:3945   */\n      tag_413\n      jump\t// in\n    tag_502:\n        /* \"#utility.yul\":3882:3945   */\n      swap3\n      pop\n        /* \"#utility.yul\":3838:3955   */\n      pop\n        /* \"#utility.yul\":3994:3996   */\n      0x20\n        /* \"#utility.yul\":4020:4073   */\n      tag_503\n        /* \"#utility.yul\":4065:4072   */\n      dup6\n        /* \"#utility.yul\":4056:4062   */\n      dup3\n        /* \"#utility.yul\":4045:4054   */\n      dup7\n        /* \"#utility.yul\":4041:4063   */\n      add\n        /* \"#utility.yul\":4020:4073   */\n      tag_416\n      jump\t// in\n    tag_503:\n        /* \"#utility.yul\":4010:4073   */\n      swap2\n      pop\n        /* \"#utility.yul\":3965:4083   */\n      pop\n        /* \"#utility.yul\":3616:4090   */\n      swap3\n      pop\n      swap3\n      swap1\n      pop\n      jump\t// out\n        /* \"#utility.yul\":4096:4425   */\n    tag_58:\n        /* \"#utility.yul\":4155:4161   */\n      0x00\n        /* \"#utility.yul\":4204:4206   */\n      0x20\n        /* \"#utility.yul\":4192:4201   */\n      dup3\n        /* \"#utility.yul\":4183:4190   */\n      dup5\n        /* \"#utility.yul\":4179:4202   */\n      sub\n        /* \"#utility.yul\":4175:4207   */\n      slt\n        /* \"#utility.yul\":4172:4291   */\n      iszero\n      tag_505\n      jumpi\n        /* \"#utility.yul\":4210:4289   */\n      tag_506\n      tag_398\n      jump\t// in\n    tag_506:\n        /* \"#utility.yul\":4172:4291   */\n    tag_505:\n        /* \"#utility.yul\":4330:4331   */\n      0x00\n        /* \"#utility.yul\":4355:4408   */\n      tag_507\n        /* \"#utility.yul\":4400:4407   */\n      dup5\n        /* \"#utility.yul\":4391:4397   */\n      dup3\n        /* \"#utility.yul\":4380:4389   */\n      dup6\n        /* \"#utility.yul\":4376:4398   */\n      add\n        /* \"#utility.yul\":4355:4408   */\n      tag_416\n      jump\t// in\n    tag_507:\n        /* \"#utility.yul\":4345:4408   */\n      swap2\n      pop\n        /* \"#utility.yul\":4301:4418   */\n      pop\n        /* \"#utility.yul\":4096:4425   */\n      swap3\n      swap2\n      pop\n      pop\n      jump\t// out\n        /* \"#utility.yul\":4431:4549   */\n    tag_417:\n        /* \"#utility.yul\":4518:4542   */\n      tag_509\n        /* \"#utility.yul\":4536:4541   */\n      dup2\n        /* \"#utility.yul\":4518:4542   */\n      tag_414\n      jump\t// in\n    tag_509:\n        /* \"#utility.yul\":4513:4516   */\n      dup3\n        /* \"#utility.yul\":4506:4543   */\n      mstore\n        /* \"#utility.yul\":4431:4549   */\n      pop\n      pop\n      jump\t// out\n        /* \"#utility.yul\":4555:4777   */\n    tag_63:\n        /* \"#utility.yul\":4648:4652   */\n      0x00\n        /* \"#utility.yul\":4686:4688   */\n      0x20\n        /* \"#utility.yul\":4675:4684   */\n      dup3\n        /* \"#utility.yul\":4671:4689   */\n      add\n        /* \"#utility.yul\":4663:4689   */\n      swap1\n      pop\n        /* \"#utility.yul\":4699:4770   */\n      tag_511\n        /* \"#utility.yul\":4767:4768   */\n      0x00\n        /* \"#utility.yul\":4756:4765   */\n      dup4\n        /* \"#utility.yul\":4752:4769   */\n      add\n        /* \"#utility.yul\":4743:4749   */\n      dup5\n        /* \"#utility.yul\":4699:4770   */\n      tag_417\n      jump\t// in\n    tag_511:\n        /* \"#utility.yul\":4555:4777   */\n      swap3\n      swap2\n      pop\n      pop\n      jump\t// out\n        /* \"#utility.yul\":4783:5402   */\n    tag_66:\n        /* \"#utility.yul\":4860:4866   */\n      0x00\n        /* \"#utility.yul\":4868:4874   */\n      dup1\n        /* \"#utility.yul\":4876:4882   */\n      0x00\n        /* \"#utility.yul\":4925:4927   */\n      0x60\n        /* \"#utility.yul\":4913:4922   */\n      dup5\n        /* \"#utility.yul\":4904:4911   */\n      dup7\n        /* \"#utility.yul\":4900:4923   */\n      sub\n        /* \"#utility.yul\":4896:4928   */\n      slt\n        /* \"#utility.yul\":4893:5012   */\n      iszero\n      tag_513\n      jumpi\n        /* \"#utility.yul\":4931:5010   */\n      tag_514\n      tag_398\n      jump\t// in\n    tag_514:\n        /* \"#utility.yul\":4893:5012   */\n    tag_513:\n        /* \"#utility.yul\":5051:5052   */\n      0x00\n        /* \"#utility.yul\":5076:5129   */\n      tag_515\n        /* \"#utility.yul\":5121:5128   */\n      dup7\n        /* \"#utility.yul\":5112:5118   */\n      dup3\n        /* \"#utility.yul\":5101:5110   */\n      dup8\n        /* \"#utility.yul\":5097:5119   */\n      add\n        /* \"#utility.yul\":5076:5129   */\n      tag_413\n      jump\t// in\n    tag_515:\n        /* \"#utility.yul\":5066:5129   */\n      swap4\n      pop\n        /* \"#utility.yul\":5022:5139   */\n      pop\n        /* \"#utility.yul\":5178:5180   */\n      0x20\n        /* \"#utility.yul\":5204:5257   */\n      tag_516\n        /* \"#utility.yul\":5249:5256   */\n      dup7\n        /* \"#utility.yul\":5240:5246   */\n      dup3\n        /* \"#utility.yul\":5229:5238   */\n      dup8\n        /* \"#utility.yul\":5225:5247   */\n      add\n        /* \"#utility.yul\":5204:5257   */\n      tag_413\n      jump\t// in\n    tag_516:\n        /* \"#utility.yul\":5194:5257   */\n      swap3\n      pop\n        /* \"#utility.yul\":5149:5267   */\n      pop\n        /* \"#utility.yul\":5306:5308   */\n      0x40\n        /* \"#utility.yul\":5332:5385   */\n      tag_517\n        /* \"#utility.yul\":5377:5384   */\n      dup7\n        /* \"#utility.yul\":5368:5374   */\n      dup3\n        /* \"#utility.yul\":5357:5366   */\n      dup8\n        /* \"#utility.yul\":5353:5375   */\n      add\n        /* \"#utility.yul\":5332:5385   */\n      tag_416\n      jump\t// in\n    tag_517:\n        /* \"#utility.yul\":5322:5385   */\n      swap2\n      pop\n        /* \"#utility.yul\":5277:5395   */\n      pop\n        /* \"#utility.yul\":4783:5402   */\n      swap3\n      pop\n      swap3\n      pop\n      swap3\n      jump\t// out\n        /* \"#utility.yul\":5408:5485   */\n    tag_418:\n        /* \"#utility.yul\":5445:5452   */\n      0x00\n        /* \"#utility.yul\":5474:5479   */\n      dup2\n        /* \"#utility.yul\":5463:5479   */\n      swap1\n      pop\n        /* \"#utility.yul\":5408:5485   */\n      swap2\n      swap1\n      pop\n      jump\t// out\n        /* \"#utility.yul\":5491:5613   */\n    tag_419:\n        /* \"#utility.yul\":5564:5588   */\n      tag_520\n        /* \"#utility.yul\":5582:5587   */\n      dup2\n        /* \"#utility.yul\":5564:5588   */\n      tag_418\n      jump\t// in\n    tag_520:\n        /* \"#utility.yul\":5557:5562   */\n      dup2\n        /* \"#utility.yul\":5554:5589   */\n      eq\n        /* \"#utility.yul\":5544:5607   */\n      tag_521\n      jumpi\n        /* \"#utility.yul\":5603:5604   */\n      0x00\n        /* \"#utility.yul\":5600:5601   */\n      dup1\n        /* \"#utility.yul\":5593:5605   */\n      revert\n        /* \"#utility.yul\":5544:5607   */\n    tag_521:\n        /* \"#utility.yul\":5491:5613   */\n      pop\n      jump\t// out\n        /* \"#utility.yul\":5619:5758   */\n    tag_420:\n        /* \"#utility.yul\":5665:5670   */\n      0x00\n        /* \"#utility.yul\":5703:5709   */\n      dup2\n        /* \"#utility.yul\":5690:5710   */\n      calldataload\n        /* \"#utility.yul\":5681:5710   */\n      swap1\n      pop\n        /* \"#utility.yul\":5719:5752   */\n      tag_523\n        /* \"#utility.yul\":5746:5751   */\n      dup2\n        /* \"#utility.yul\":5719:5752   */\n      tag_419\n      jump\t// in\n    tag_523:\n        /* \"#utility.yul\":5619:5758   */\n      swap3\n      swap2\n      pop\n      pop\n      jump\t// out\n        /* \"#utility.yul\":5764:6093   */\n    tag_71:\n        /* \"#utility.yul\":5823:5829   */\n      0x00\n        /* \"#utility.yul\":5872:5874   */\n      0x20\n        /* \"#utility.yul\":5860:5869   */\n      dup3\n        /* \"#utility.yul\":5851:5858   */\n      dup5\n        /* \"#utility.yul\":5847:5870   */\n      sub\n        /* \"#utility.yul\":5843:5875   */\n      slt\n        /* \"#utility.yul\":5840:5959   */\n      iszero\n      tag_525\n      jumpi\n        /* \"#utility.yul\":5878:5957   */\n      tag_526\n      tag_398\n      jump\t// in\n    tag_526:\n        /* \"#utility.yul\":5840:5959   */\n    tag_525:\n        /* \"#utility.yul\":5998:5999   */\n      0x00\n        /* \"#utility.yul\":6023:6076   */\n      tag_527\n        /* \"#utility.yul\":6068:6075   */\n      dup5\n        /* \"#utility.yul\":6059:6065   */\n      dup3\n        /* \"#utility.yul\":6048:6057   */\n      dup6\n        /* \"#utility.yul\":6044:6066   */\n      add\n        /* \"#utility.yul\":6023:6076   */\n      tag_420\n      jump\t// in\n    tag_527:\n        /* \"#utility.yul\":6013:6076   */\n      swap2\n      pop\n        /* \"#utility.yul\":5969:6086   */\n      pop\n        /* \"#utility.yul\":5764:6093   */\n      swap3\n      swap2\n      pop\n      pop\n      jump\t// out\n        /* \"#utility.yul\":6099:6217   */\n    tag_421:\n        /* \"#utility.yul\":6186:6210   */\n      tag_529\n        /* \"#utility.yul\":6204:6209   */\n      dup2\n        /* \"#utility.yul\":6186:6210   */\n      tag_418\n      jump\t// in\n    tag_529:\n        /* \"#utility.yul\":6181:6184   */\n      dup3\n        /* \"#utility.yul\":6174:6211   */\n      mstore\n        /* \"#utility.yul\":6099:6217   */\n      pop\n      pop\n      jump\t// out\n        /* \"#utility.yul\":6223:6445   */\n    tag_74:\n        /* \"#utility.yul\":6316:6320   */\n      0x00\n        /* \"#utility.yul\":6354:6356   */\n      0x20\n        /* \"#utility.yul\":6343:6352   */\n      dup3\n        /* \"#utility.yul\":6339:6357   */\n      add\n        /* \"#utility.yul\":6331:6357   */\n      swap1\n      pop\n        /* \"#utility.yul\":6367:6438   */\n      tag_531\n        /* \"#utility.yul\":6435:6436   */\n      0x00\n        /* \"#utility.yul\":6424:6433   */\n      dup4\n        /* \"#utility.yul\":6420:6437   */\n      add\n        /* \"#utility.yul\":6411:6417   */\n      dup5\n        /* \"#utility.yul\":6367:6438   */\n      tag_421\n      jump\t// in\n    tag_531:\n        /* \"#utility.yul\":6223:6445   */\n      swap3\n      swap2\n      pop\n      pop\n      jump\t// out\n        /* \"#utility.yul\":6451:6925   */\n    tag_80:\n        /* \"#utility.yul\":6519:6525   */\n      0x00\n        /* \"#utility.yul\":6527:6533   */\n      dup1\n        /* \"#utility.yul\":6576:6578   */\n      0x40\n        /* \"#utility.yul\":6564:6573   */\n      dup4\n        /* \"#utility.yul\":6555:6562   */\n      dup6\n        /* \"#utility.yul\":6551:6574   */\n      sub\n        /* \"#utility.yul\":6547:6579   */\n      slt\n        /* \"#utility.yul\":6544:6663   */\n      iszero\n      tag_533\n      jumpi\n        /* \"#utility.yul\":6582:6661   */\n      tag_534\n      tag_398\n      jump\t// in\n    tag_534:\n        /* \"#utility.yul\":6544:6663   */\n    tag_533:\n        /* \"#utility.yul\":6702:6703   */\n      0x00\n        /* \"#utility.yul\":6727:6780   */\n      tag_535\n        /* \"#utility.yul\":6772:6779   */\n      dup6\n        /* \"#utility.yul\":6763:6769   */\n      dup3\n        /* \"#utility.yul\":6752:6761   */\n      dup7\n        /* \"#utility.yul\":6748:6770   */\n      add\n        /* \"#utility.yul\":6727:6780   */\n      tag_420\n      jump\t// in\n    tag_535:\n        /* \"#utility.yul\":6717:6780   */\n      swap3\n      pop\n        /* \"#utility.yul\":6673:6790   */\n      pop\n        /* \"#utility.yul\":6829:6831   */\n      0x20\n        /* \"#utility.yul\":6855:6908   */\n      tag_536\n        /* \"#utility.yul\":6900:6907   */\n      dup6\n        /* \"#utility.yul\":6891:6897   */\n      dup3\n        /* \"#utility.yul\":6880:6889   */\n      dup7\n        /* \"#utility.yul\":6876:6898   */\n      add\n        /* \"#utility.yul\":6855:6908   */\n      tag_413\n      jump\t// in\n    tag_536:\n        /* \"#utility.yul\":6845:6908   */\n      swap2\n      pop\n        /* \"#utility.yul\":6800:6918   */\n      pop\n        /* \"#utility.yul\":6451:6925   */\n      swap3\n      pop\n      swap3\n      swap1\n      pop\n      jump\t// out\n        /* \"#utility.yul\":6931:7017   */\n    tag_422:\n        /* \"#utility.yul\":6966:6973   */\n      0x00\n        /* \"#utility.yul\":7006:7010   */\n      0xff\n        /* \"#utility.yul\":6999:7004   */\n      dup3\n        /* \"#utility.yul\":6995:7011   */\n      and\n        /* \"#utility.yul\":6984:7011   */\n      swap1\n      pop\n        /* \"#utility.yul\":6931:7017   */\n      swap2\n      swap1\n      pop\n      jump\t// out\n        /* \"#utility.yul\":7023:7135   */\n    tag_423:\n        /* \"#utility.yul\":7106:7128   */\n      tag_539\n        /* \"#utility.yul\":7122:7127   */\n      dup2\n        /* \"#utility.yul\":7106:7128   */\n      tag_422\n      jump\t// in\n    tag_539:\n        /* \"#utility.yul\":7101:7104   */\n      dup3\n        /* \"#utility.yul\":7094:7129   */\n      mstore\n        /* \"#utility.yul\":7023:7135   */\n      pop\n      pop\n      jump\t// out\n        /* \"#utility.yul\":7141:7355   */\n    tag_85:\n        /* \"#utility.yul\":7230:7234   */\n      0x00\n        /* \"#utility.yul\":7268:7270   */\n      0x20\n        /* \"#utility.yul\":7257:7266   */\n      dup3\n        /* \"#utility.yul\":7253:7271   */\n      add\n        /* \"#utility.yul\":7245:7271   */\n      swap1\n      pop\n        /* \"#utility.yul\":7281:7348   */\n      tag_541\n        /* \"#utility.yul\":7345:7346   */\n      0x00\n        /* \"#utility.yul\":7334:7343   */\n      dup4\n        /* \"#utility.yul\":7330:7347   */\n      add\n        /* \"#utility.yul\":7321:7327   */\n      dup5\n        /* \"#utility.yul\":7281:7348   */\n      tag_423\n      jump\t// in\n    tag_541:\n        /* \"#utility.yul\":7141:7355   */\n      swap3\n      swap2\n      pop\n      pop\n      jump\t// out\n        /* \"#utility.yul\":7361:7690   */\n    tag_99:\n        /* \"#utility.yul\":7420:7426   */\n      0x00\n        /* \"#utility.yul\":7469:7471   */\n      0x20\n        /* \"#utility.yul\":7457:7466   */\n      dup3\n        /* \"#utility.yul\":7448:7455   */\n      dup5\n        /* \"#utility.yul\":7444:7467   */\n      sub\n        /* \"#utility.yul\":7440:7472   */\n      slt\n        /* \"#utility.yul\":7437:7556   */\n      iszero\n      tag_543\n      jumpi\n        /* \"#utility.yul\":7475:7554   */\n      tag_544\n      tag_398\n      jump\t// in\n    tag_544:\n        /* \"#utility.yul\":7437:7556   */\n    tag_543:\n        /* \"#utility.yul\":7595:7596   */\n      0x00\n        /* \"#utility.yul\":7620:7673   */\n      tag_545\n        /* \"#utility.yul\":7665:7672   */\n      dup5\n        /* \"#utility.yul\":7656:7662   */\n      dup3\n        /* \"#utility.yul\":7645:7654   */\n      dup6\n        /* \"#utility.yul\":7641:7663   */\n      add\n        /* \"#utility.yul\":7620:7673   */\n      tag_413\n      jump\t// in\n    tag_545:\n        /* \"#utility.yul\":7610:7673   */\n      swap2\n      pop\n        /* \"#utility.yul\":7566:7683   */\n      pop\n        /* \"#utility.yul\":7361:7690   */\n      swap3\n      swap2\n      pop\n      pop\n      jump\t// out\n        /* \"#utility.yul\":7696:7813   */\n    tag_424:\n        /* \"#utility.yul\":7805:7806   */\n      0x00\n        /* \"#utility.yul\":7802:7803   */\n      dup1\n        /* \"#utility.yul\":7795:7807   */\n      revert\n        /* \"#utility.yul\":7819:7999   */\n    tag_425:\n        /* \"#utility.yul\":7867:7944   */\n      0x4e487b7100000000000000000000000000000000000000000000000000000000\n        /* \"#utility.yul\":7864:7865   */\n      0x00\n        /* \"#utility.yul\":7857:7945   */\n      mstore\n        /* \"#utility.yul\":7964:7968   */\n      0x41\n        /* \"#utility.yul\":7961:7962   */\n      0x04\n        /* \"#utility.yul\":7954:7969   */\n      mstore\n        /* \"#utility.yul\":7988:7992   */\n      0x24\n        /* \"#utility.yul\":7985:7986   */\n      0x00\n        /* \"#utility.yul\":7978:7993   */\n      revert\n        /* \"#utility.yul\":8005:8286   */\n    tag_426:\n        /* \"#utility.yul\":8088:8115   */\n      tag_549\n        /* \"#utility.yul\":8110:8114   */\n      dup3\n        /* \"#utility.yul\":8088:8115   */\n      tag_408\n      jump\t// in\n    tag_549:\n        /* \"#utility.yul\":8080:8086   */\n      dup2\n        /* \"#utility.yul\":8076:8116   */\n      add\n        /* \"#utility.yul\":8218:8224   */\n      dup2\n        /* \"#utility.yul\":8206:8216   */\n      dup2\n        /* \"#utility.yul\":8203:8225   */\n      lt\n        /* \"#utility.yul\":8182:8200   */\n      0xffffffffffffffff\n        /* \"#utility.yul\":8170:8180   */\n      dup3\n        /* \"#utility.yul\":8167:8201   */\n      gt\n        /* \"#utility.yul\":8164:8226   */\n      or\n        /* \"#utility.yul\":8161:8249   */\n      iszero\n      tag_550\n      jumpi\n        /* \"#utility.yul\":8229:8247   */\n      tag_551\n      tag_425\n      jump\t// in\n    tag_551:\n        /* \"#utility.yul\":8161:8249   */\n    tag_550:\n        /* \"#utility.yul\":8269:8279   */\n      dup1\n        /* \"#utility.yul\":8265:8267   */\n      0x40\n        /* \"#utility.yul\":8258:8280   */\n      mstore\n        /* \"#utility.yul\":8048:8286   */\n      pop\n        /* \"#utility.yul\":8005:8286   */\n      pop\n      pop\n      jump\t// out\n        /* \"#utility.yul\":8292:8421   */\n    tag_427:\n        /* \"#utility.yul\":8326:8332   */\n      0x00\n        /* \"#utility.yul\":8353:8373   */\n      tag_553\n      tag_397\n      jump\t// in\n    tag_553:\n        /* \"#utility.yul\":8343:8373   */\n      swap1\n      pop\n        /* \"#utility.yul\":8382:8415   */\n      tag_554\n        /* \"#utility.yul\":8410:8414   */\n      dup3\n        /* \"#utility.yul\":8402:8408   */\n      dup3\n        /* \"#utility.yul\":8382:8415   */\n      tag_426\n      jump\t// in\n    tag_554:\n        /* \"#utility.yul\":8292:8421   */\n      swap2\n      swap1\n      pop\n      jump\t// out\n        /* \"#utility.yul\":8427:8738   */\n    tag_428:\n        /* \"#utility.yul\":8504:8508   */\n      0x00\n        /* \"#utility.yul\":8594:8612   */\n      0xffffffffffffffff\n        /* \"#utility.yul\":8586:8592   */\n      dup3\n        /* \"#utility.yul\":8583:8613   */\n      gt\n        /* \"#utility.yul\":8580:8636   */\n      iszero\n      tag_556\n      jumpi\n        /* \"#utility.yul\":8616:8634   */\n      tag_557\n      tag_425\n      jump\t// in\n    tag_557:\n        /* \"#utility.yul\":8580:8636   */\n    tag_556:\n        /* \"#utility.yul\":8666:8670   */\n      0x20\n        /* \"#utility.yul\":8658:8664   */\n      dup3\n        /* \"#utility.yul\":8654:8671   */\n      mul\n        /* \"#utility.yul\":8646:8671   */\n      swap1\n      pop\n        /* \"#utility.yul\":8726:8730   */\n      0x20\n        /* \"#utility.yul\":8720:8724   */\n      dup2\n        /* \"#utility.yul\":8716:8731   */\n      add\n        /* \"#utility.yul\":8708:8731   */\n      swap1\n      pop\n        /* \"#utility.yul\":8427:8738   */\n      swap2\n      swap1\n      pop\n      jump\t// out\n        /* \"#utility.yul\":8744:8861   */\n    tag_429:\n        /* \"#utility.yul\":8853:8854   */\n      0x00\n        /* \"#utility.yul\":8850:8851   */\n      dup1\n        /* \"#utility.yul\":8843:8855   */\n      revert\n        /* \"#utility.yul\":8884:9594   */\n    tag_430:\n        /* \"#utility.yul\":8980:8985   */\n      0x00\n        /* \"#utility.yul\":9005:9086   */\n      tag_560\n        /* \"#utility.yul\":9021:9085   */\n      tag_561\n        /* \"#utility.yul\":9078:9084   */\n      dup5\n        /* \"#utility.yul\":9021:9085   */\n      tag_428\n      jump\t// in\n    tag_561:\n        /* \"#utility.yul\":9005:9086   */\n      tag_427\n      jump\t// in\n    tag_560:\n        /* \"#utility.yul\":8996:9086   */\n      swap1\n      pop\n        /* \"#utility.yul\":9106:9111   */\n      dup1\n        /* \"#utility.yul\":9135:9141   */\n      dup4\n        /* \"#utility.yul\":9128:9133   */\n      dup3\n        /* \"#utility.yul\":9121:9142   */\n      mstore\n        /* \"#utility.yul\":9169:9173   */\n      0x20\n        /* \"#utility.yul\":9162:9167   */\n      dup3\n        /* \"#utility.yul\":9158:9174   */\n      add\n        /* \"#utility.yul\":9151:9174   */\n      swap1\n      pop\n        /* \"#utility.yul\":9222:9226   */\n      0x20\n        /* \"#utility.yul\":9214:9220   */\n      dup5\n        /* \"#utility.yul\":9210:9227   */\n      mul\n        /* \"#utility.yul\":9202:9208   */\n      dup4\n        /* \"#utility.yul\":9198:9228   */\n      add\n        /* \"#utility.yul\":9251:9254   */\n      dup6\n        /* \"#utility.yul\":9243:9249   */\n      dup2\n        /* \"#utility.yul\":9240:9255   */\n      gt\n        /* \"#utility.yul\":9237:9359   */\n      iszero\n      tag_562\n      jumpi\n        /* \"#utility.yul\":9270:9349   */\n      tag_563\n      tag_429\n      jump\t// in\n    tag_563:\n        /* \"#utility.yul\":9237:9359   */\n    tag_562:\n        /* \"#utility.yul\":9385:9391   */\n      dup4\n        /* \"#utility.yul\":9368:9588   */\n    tag_564:\n        /* \"#utility.yul\":9402:9408   */\n      dup2\n        /* \"#utility.yul\":9397:9400   */\n      dup2\n        /* \"#utility.yul\":9394:9409   */\n      lt\n        /* \"#utility.yul\":9368:9588   */\n      iszero\n      tag_566\n      jumpi\n        /* \"#utility.yul\":9477:9480   */\n      dup1\n        /* \"#utility.yul\":9506:9543   */\n      tag_567\n        /* \"#utility.yul\":9539:9542   */\n      dup9\n        /* \"#utility.yul\":9527:9537   */\n      dup3\n        /* \"#utility.yul\":9506:9543   */\n      tag_413\n      jump\t// in\n    tag_567:\n        /* \"#utility.yul\":9501:9504   */\n      dup5\n        /* \"#utility.yul\":9494:9544   */\n      mstore\n        /* \"#utility.yul\":9573:9577   */\n      0x20\n        /* \"#utility.yul\":9568:9571   */\n      dup5\n        /* \"#utility.yul\":9564:9578   */\n      add\n        /* \"#utility.yul\":9557:9578   */\n      swap4\n      pop\n        /* \"#utility.yul\":9444:9588   */\n      pop\n        /* \"#utility.yul\":9428:9432   */\n      0x20\n        /* \"#utility.yul\":9423:9426   */\n      dup2\n        /* \"#utility.yul\":9419:9433   */\n      add\n        /* \"#utility.yul\":9412:9433   */\n      swap1\n      pop\n        /* \"#utility.yul\":9368:9588   */\n      jump(tag_564)\n    tag_566:\n        /* \"#utility.yul\":9372:9393   */\n      pop\n        /* \"#utility.yul\":8986:9594   */\n      pop\n      pop\n        /* \"#utility.yul\":8884:9594   */\n      swap4\n      swap3\n      pop\n      pop\n      pop\n      jump\t// out\n        /* \"#utility.yul\":9617:9987   */\n    tag_431:\n        /* \"#utility.yul\":9688:9693   */\n      0x00\n        /* \"#utility.yul\":9737:9740   */\n      dup3\n        /* \"#utility.yul\":9730:9734   */\n      0x1f\n        /* \"#utility.yul\":9722:9728   */\n      dup4\n        /* \"#utility.yul\":9718:9735   */\n      add\n        /* \"#utility.yul\":9714:9741   */\n      slt\n        /* \"#utility.yul\":9704:9826   */\n      tag_569\n      jumpi\n        /* \"#utility.yul\":9745:9824   */\n      tag_570\n      tag_424\n      jump\t// in\n    tag_570:\n        /* \"#utility.yul\":9704:9826   */\n    tag_569:\n        /* \"#utility.yul\":9862:9868   */\n      dup2\n        /* \"#utility.yul\":9849:9869   */\n      calldataload\n        /* \"#utility.yul\":9887:9981   */\n      tag_571\n        /* \"#utility.yul\":9977:9980   */\n      dup5\n        /* \"#utility.yul\":9969:9975   */\n      dup3\n        /* \"#utility.yul\":9962:9966   */\n      0x20\n        /* \"#utility.yul\":9954:9960   */\n      dup7\n        /* \"#utility.yul\":9950:9967   */\n      add\n        /* \"#utility.yul\":9887:9981   */\n      tag_430\n      jump\t// in\n    tag_571:\n        /* \"#utility.yul\":9878:9981   */\n      swap2\n      pop\n        /* \"#utility.yul\":9694:9987   */\n      pop\n        /* \"#utility.yul\":9617:9987   */\n      swap3\n      swap2\n      pop\n      pop\n      jump\t// out\n        /* \"#utility.yul\":9993:10304   */\n    tag_432:\n        /* \"#utility.yul\":10070:10074   */\n      0x00\n        /* \"#utility.yul\":10160:10178   */\n      0xffffffffffffffff\n        /* \"#utility.yul\":10152:10158   */\n      dup3\n        /* \"#utility.yul\":10149:10179   */\n      gt\n        /* \"#utility.yul\":10146:10202   */\n      iszero\n      tag_573\n      jumpi\n        /* \"#utility.yul\":10182:10200   */\n      tag_574\n      tag_425\n      jump\t// in\n    tag_574:\n        /* \"#utility.yul\":10146:10202   */\n    tag_573:\n        /* \"#utility.yul\":10232:10236   */\n      0x20\n        /* \"#utility.yul\":10224:10230   */\n      dup3\n        /* \"#utility.yul\":10220:10237   */\n      mul\n        /* \"#utility.yul\":10212:10237   */\n      swap1\n      pop\n        /* \"#utility.yul\":10292:10296   */\n      0x20\n        /* \"#utility.yul\":10286:10290   */\n      dup2\n        /* \"#utility.yul\":10282:10297   */\n      add\n        /* \"#utility.yul\":10274:10297   */\n      swap1\n      pop\n        /* \"#utility.yul\":9993:10304   */\n      swap2\n      swap1\n      pop\n      jump\t// out\n        /* \"#utility.yul\":10327:11037   */\n    tag_433:\n        /* \"#utility.yul\":10423:10428   */\n      0x00\n        /* \"#utility.yul\":10448:10529   */\n      tag_576\n        /* \"#utility.yul\":10464:10528   */\n      tag_577\n        /* \"#utility.yul\":10521:10527   */\n      dup5\n        /* \"#utility.yul\":10464:10528   */\n      tag_432\n      jump\t// in\n    tag_577:\n        /* \"#utility.yul\":10448:10529   */\n      tag_427\n      jump\t// in\n    tag_576:\n        /* \"#utility.yul\":10439:10529   */\n      swap1\n      pop\n        /* \"#utility.yul\":10549:10554   */\n      dup1\n        /* \"#utility.yul\":10578:10584   */\n      dup4\n        /* \"#utility.yul\":10571:10576   */\n      dup3\n        /* \"#utility.yul\":10564:10585   */\n      mstore\n        /* \"#utility.yul\":10612:10616   */\n      0x20\n        /* \"#utility.yul\":10605:10610   */\n      dup3\n        /* \"#utility.yul\":10601:10617   */\n      add\n        /* \"#utility.yul\":10594:10617   */\n      swap1\n      pop\n        /* \"#utility.yul\":10665:10669   */\n      0x20\n        /* \"#utility.yul\":10657:10663   */\n      dup5\n        /* \"#utility.yul\":10653:10670   */\n      mul\n        /* \"#utility.yul\":10645:10651   */\n      dup4\n        /* \"#utility.yul\":10641:10671   */\n      add\n        /* \"#utility.yul\":10694:10697   */\n      dup6\n        /* \"#utility.yul\":10686:10692   */\n      dup2\n        /* \"#utility.yul\":10683:10698   */\n      gt\n        /* \"#utility.yul\":10680:10802   */\n      iszero\n      tag_578\n      jumpi\n        /* \"#utility.yul\":10713:10792   */\n      tag_579\n      tag_429\n      jump\t// in\n    tag_579:\n        /* \"#utility.yul\":10680:10802   */\n    tag_578:\n        /* \"#utility.yul\":10828:10834   */\n      dup4\n        /* \"#utility.yul\":10811:11031   */\n    tag_580:\n        /* \"#utility.yul\":10845:10851   */\n      dup2\n        /* \"#utility.yul\":10840:10843   */\n      dup2\n        /* \"#utility.yul\":10837:10852   */\n      lt\n        /* \"#utility.yul\":10811:11031   */\n      iszero\n      tag_582\n      jumpi\n        /* \"#utility.yul\":10920:10923   */\n      dup1\n        /* \"#utility.yul\":10949:10986   */\n      tag_583\n        /* \"#utility.yul\":10982:10985   */\n      dup9\n        /* \"#utility.yul\":10970:10980   */\n      dup3\n        /* \"#utility.yul\":10949:10986   */\n      tag_416\n      jump\t// in\n    tag_583:\n        /* \"#utility.yul\":10944:10947   */\n      dup5\n        /* \"#utility.yul\":10937:10987   */\n      mstore\n        /* \"#utility.yul\":11016:11020   */\n      0x20\n        /* \"#utility.yul\":11011:11014   */\n      dup5\n        /* \"#utility.yul\":11007:11021   */\n      add\n        /* \"#utility.yul\":11000:11021   */\n      swap4\n      pop\n        /* \"#utility.yul\":10887:11031   */\n      pop\n        /* \"#utility.yul\":10871:10875   */\n      0x20\n        /* \"#utility.yul\":10866:10869   */\n      dup2\n        /* \"#utility.yul\":10862:10876   */\n      add\n        /* \"#utility.yul\":10855:10876   */\n      swap1\n      pop\n        /* \"#utility.yul\":10811:11031   */\n      jump(tag_580)\n    tag_582:\n        /* \"#utility.yul\":10815:10836   */\n      pop\n        /* \"#utility.yul\":10429:11037   */\n      pop\n      pop\n        /* \"#utility.yul\":10327:11037   */\n      swap4\n      swap3\n      pop\n      pop\n      pop\n      jump\t// out\n        /* \"#utility.yul\":11060:11430   */\n    tag_434:\n        /* \"#utility.yul\":11131:11136   */\n      0x00\n        /* \"#utility.yul\":11180:11183   */\n      dup3\n        /* \"#utility.yul\":11173:11177   */\n      0x1f\n        /* \"#utility.yul\":11165:11171   */\n      dup4\n        /* \"#utility.yul\":11161:11178   */\n      add\n        /* \"#utility.yul\":11157:11184   */\n      slt\n        /* \"#utility.yul\":11147:11269   */\n      tag_585\n      jumpi\n        /* \"#utility.yul\":11188:11267   */\n      tag_586\n      tag_424\n      jump\t// in\n    tag_586:\n        /* \"#utility.yul\":11147:11269   */\n    tag_585:\n        /* \"#utility.yul\":11305:11311   */\n      dup2\n        /* \"#utility.yul\":11292:11312   */\n      calldataload\n        /* \"#utility.yul\":11330:11424   */\n      tag_587\n        /* \"#utility.yul\":11420:11423   */\n      dup5\n        /* \"#utility.yul\":11412:11418   */\n      dup3\n        /* \"#utility.yul\":11405:11409   */\n      0x20\n        /* \"#utility.yul\":11397:11403   */\n      dup7\n        /* \"#utility.yul\":11393:11410   */\n      add\n        /* \"#utility.yul\":11330:11424   */\n      tag_433\n      jump\t// in\n    tag_587:\n        /* \"#utility.yul\":11321:11424   */\n      swap2\n      pop\n        /* \"#utility.yul\":11137:11430   */\n      pop\n        /* \"#utility.yul\":11060:11430   */\n      swap3\n      swap2\n      pop\n      pop\n      jump\t// out\n        /* \"#utility.yul\":11436:12330   */\n    tag_109:\n        /* \"#utility.yul\":11554:11560   */\n      0x00\n        /* \"#utility.yul\":11562:11568   */\n      dup1\n        /* \"#utility.yul\":11611:11613   */\n      0x40\n        /* \"#utility.yul\":11599:11608   */\n      dup4\n        /* \"#utility.yul\":11590:11597   */\n      dup6\n        /* \"#utility.yul\":11586:11609   */\n      sub\n        /* \"#utility.yul\":11582:11614   */\n      slt\n        /* \"#utility.yul\":11579:11698   */\n      iszero\n      tag_589\n      jumpi\n        /* \"#utility.yul\":11617:11696   */\n      tag_590\n      tag_398\n      jump\t// in\n    tag_590:\n        /* \"#utility.yul\":11579:11698   */\n    tag_589:\n        /* \"#utility.yul\":11765:11766   */\n      0x00\n        /* \"#utility.yul\":11754:11763   */\n      dup4\n        /* \"#utility.yul\":11750:11767   */\n      add\n        /* \"#utility.yul\":11737:11768   */\n      calldataload\n        /* \"#utility.yul\":11795:11813   */\n      0xffffffffffffffff\n        /* \"#utility.yul\":11787:11793   */\n      dup2\n        /* \"#utility.yul\":11784:11814   */\n      gt\n        /* \"#utility.yul\":11781:11898   */\n      iszero\n      tag_591\n      jumpi\n        /* \"#utility.yul\":11817:11896   */\n      tag_592\n      tag_399\n      jump\t// in\n    tag_592:\n        /* \"#utility.yul\":11781:11898   */\n    tag_591:\n        /* \"#utility.yul\":11922:12000   */\n      tag_593\n        /* \"#utility.yul\":11992:11999   */\n      dup6\n        /* \"#utility.yul\":11983:11989   */\n      dup3\n        /* \"#utility.yul\":11972:11981   */\n      dup7\n        /* \"#utility.yul\":11968:11990   */\n      add\n        /* \"#utility.yul\":11922:12000   */\n      tag_431\n      jump\t// in\n    tag_593:\n        /* \"#utility.yul\":11912:12000   */\n      swap3\n      pop\n        /* \"#utility.yul\":11708:12010   */\n      pop\n        /* \"#utility.yul\":12077:12079   */\n      0x20\n        /* \"#utility.yul\":12066:12075   */\n      dup4\n        /* \"#utility.yul\":12062:12080   */\n      add\n        /* \"#utility.yul\":12049:12081   */\n      calldataload\n        /* \"#utility.yul\":12108:12126   */\n      0xffffffffffffffff\n        /* \"#utility.yul\":12100:12106   */\n      dup2\n        /* \"#utility.yul\":12097:12127   */\n      gt\n        /* \"#utility.yul\":12094:12211   */\n      iszero\n      tag_594\n      jumpi\n        /* \"#utility.yul\":12130:12209   */\n      tag_595\n      tag_399\n      jump\t// in\n    tag_595:\n        /* \"#utility.yul\":12094:12211   */\n    tag_594:\n        /* \"#utility.yul\":12235:12313   */\n      tag_596\n        /* \"#utility.yul\":12305:12312   */\n      dup6\n        /* \"#utility.yul\":12296:12302   */\n      dup3\n        /* \"#utility.yul\":12285:12294   */\n      dup7\n        /* \"#utility.yul\":12281:12303   */\n      add\n        /* \"#utility.yul\":12235:12313   */\n      tag_434\n      jump\t// in\n    tag_596:\n        /* \"#utility.yul\":12225:12313   */\n      swap2\n      pop\n        /* \"#utility.yul\":12020:12323   */\n      pop\n        /* \"#utility.yul\":11436:12330   */\n      swap3\n      pop\n      swap3\n      swap1\n      pop\n      jump\t// out\n        /* \"#utility.yul\":12336:12454   */\n    tag_435:\n        /* \"#utility.yul\":12423:12447   */\n      tag_598\n        /* \"#utility.yul\":12441:12446   */\n      dup2\n        /* \"#utility.yul\":12423:12447   */\n      tag_411\n      jump\t// in\n    tag_598:\n        /* \"#utility.yul\":12418:12421   */\n      dup3\n        /* \"#utility.yul\":12411:12448   */\n      mstore\n        /* \"#utility.yul\":12336:12454   */\n      pop\n      pop\n      jump\t// out\n        /* \"#utility.yul\":12460:12682   */\n    tag_121:\n        /* \"#utility.yul\":12553:12557   */\n      0x00\n        /* \"#utility.yul\":12591:12593   */\n      0x20\n        /* \"#utility.yul\":12580:12589   */\n      dup3\n        /* \"#utility.yul\":12576:12594   */\n      add\n        /* \"#utility.yul\":12568:12594   */\n      swap1\n      pop\n        /* \"#utility.yul\":12604:12675   */\n      tag_600\n        /* \"#utility.yul\":12672:12673   */\n      0x00\n        /* \"#utility.yul\":12661:12670   */\n      dup4\n        /* \"#utility.yul\":12657:12674   */\n      add\n        /* \"#utility.yul\":12648:12654   */\n      dup5\n        /* \"#utility.yul\":12604:12675   */\n      tag_435\n      jump\t// in\n    tag_600:\n        /* \"#utility.yul\":12460:12682   */\n      swap3\n      swap2\n      pop\n      pop\n      jump\t// out\n        /* \"#utility.yul\":12688:13162   */\n    tag_142:\n        /* \"#utility.yul\":12756:12762   */\n      0x00\n        /* \"#utility.yul\":12764:12770   */\n      dup1\n        /* \"#utility.yul\":12813:12815   */\n      0x40\n        /* \"#utility.yul\":12801:12810   */\n      dup4\n        /* \"#utility.yul\":12792:12799   */\n      dup6\n        /* \"#utility.yul\":12788:12811   */\n      sub\n        /* \"#utility.yul\":12784:12816   */\n      slt\n        /* \"#utility.yul\":12781:12900   */\n      iszero\n      tag_602\n      jumpi\n        /* \"#utility.yul\":12819:12898   */\n      tag_603\n      tag_398\n      jump\t// in\n    tag_603:\n        /* \"#utility.yul\":12781:12900   */\n    tag_602:\n        /* \"#utility.yul\":12939:12940   */\n      0x00\n        /* \"#utility.yul\":12964:13017   */\n      tag_604\n        /* \"#utility.yul\":13009:13016   */\n      dup6\n        /* \"#utility.yul\":13000:13006   */\n      dup3\n        /* \"#utility.yul\":12989:12998   */\n      dup7\n        /* \"#utility.yul\":12985:13007   */\n      add\n        /* \"#utility.yul\":12964:13017   */\n      tag_413\n      jump\t// in\n    tag_604:\n        /* \"#utility.yul\":12954:13017   */\n      swap3\n      pop\n        /* \"#utility.yul\":12910:13027   */\n      pop\n        /* \"#utility.yul\":13066:13068   */\n      0x20\n        /* \"#utility.yul\":13092:13145   */\n      tag_605\n        /* \"#utility.yul\":13137:13144   */\n      dup6\n        /* \"#utility.yul\":13128:13134   */\n      dup3\n        /* \"#utility.yul\":13117:13126   */\n      dup7\n        /* \"#utility.yul\":13113:13135   */\n      add\n        /* \"#utility.yul\":13092:13145   */\n      tag_413\n      jump\t// in\n    tag_605:\n        /* \"#utility.yul\":13082:13145   */\n      swap2\n      pop\n        /* \"#utility.yul\":13037:13155   */\n      pop\n        /* \"#utility.yul\":12688:13162   */\n      swap3\n      pop\n      swap3\n      swap1\n      pop\n      jump\t// out\n        /* \"#utility.yul\":13168:13348   */\n    tag_436:\n        /* \"#utility.yul\":13216:13293   */\n      0x4e487b7100000000000000000000000000000000000000000000000000000000\n        /* \"#utility.yul\":13213:13214   */\n      0x00\n        /* \"#utility.yul\":13206:13294   */\n      mstore\n        /* \"#utility.yul\":13313:13317   */\n      0x22\n        /* \"#utility.yul\":13310:13311   */\n      0x04\n        /* \"#utility.yul\":13303:13318   */\n      mstore\n        /* \"#utility.yul\":13337:13341   */\n      0x24\n        /* \"#utility.yul\":13334:13335   */\n      0x00\n        /* \"#utility.yul\":13327:13342   */\n      revert\n        /* \"#utility.yul\":13354:13674   */\n    tag_160:\n        /* \"#utility.yul\":13398:13404   */\n      0x00\n        /* \"#utility.yul\":13435:13436   */\n      0x02\n        /* \"#utility.yul\":13429:13433   */\n      dup3\n        /* \"#utility.yul\":13425:13437   */\n      div\n        /* \"#utility.yul\":13415:13437   */\n      swap1\n      pop\n        /* \"#utility.yul\":13482:13483   */\n      0x01\n        /* \"#utility.yul\":13476:13480   */\n      dup3\n        /* \"#utility.yul\":13472:13484   */\n      and\n        /* \"#utility.yul\":13503:13521   */\n      dup1\n        /* \"#utility.yul\":13493:13574   */\n      tag_608\n      jumpi\n        /* \"#utility.yul\":13559:13563   */\n      0x7f\n        /* \"#utility.yul\":13551:13557   */\n      dup3\n        /* \"#utility.yul\":13547:13564   */\n      and\n        /* \"#utility.yul\":13537:13564   */\n      swap2\n      pop\n        /* \"#utility.yul\":13493:13574   */\n    tag_608:\n        /* \"#utility.yul\":13621:13623   */\n      0x20\n        /* \"#utility.yul\":13613:13619   */\n      dup3\n        /* \"#utility.yul\":13610:13624   */\n      lt\n        /* \"#utility.yul\":13590:13608   */\n      dup2\n        /* \"#utility.yul\":13587:13625   */\n      sub\n        /* \"#utility.yul\":13584:13668   */\n      tag_609\n      jumpi\n        /* \"#utility.yul\":13640:13658   */\n      tag_610\n      tag_436\n      jump\t// in\n    tag_610:\n        /* \"#utility.yul\":13584:13668   */\n    tag_609:\n        /* \"#utility.yul\":13405:13674   */\n      pop\n        /* \"#utility.yul\":13354:13674   */\n      swap2\n      swap1\n      pop\n      jump\t// out\n        /* \"#utility.yul\":13680:13860   */\n    tag_437:\n        /* \"#utility.yul\":13728:13805   */\n      0x4e487b7100000000000000000000000000000000000000000000000000000000\n        /* \"#utility.yul\":13725:13726   */\n      0x00\n        /* \"#utility.yul\":13718:13806   */\n      mstore\n        /* \"#utility.yul\":13825:13829   */\n      0x11\n        /* \"#utility.yul\":13822:13823   */\n      0x04\n        /* \"#utility.yul\":13815:13830   */\n      mstore\n        /* \"#utility.yul\":13849:13853   */\n      0x24\n        /* \"#utility.yul\":13846:13847   */\n      0x00\n        /* \"#utility.yul\":13839:13854   */\n      revert\n        /* \"#utility.yul\":13866:14276   */\n    tag_172:\n        /* \"#utility.yul\":13906:13913   */\n      0x00\n        /* \"#utility.yul\":13929:13949   */\n      tag_613\n        /* \"#utility.yul\":13947:13948   */\n      dup3\n        /* \"#utility.yul\":13929:13949   */\n      tag_414\n      jump\t// in\n    tag_613:\n        /* \"#utility.yul\":13924:13949   */\n      swap2\n      pop\n        /* \"#utility.yul\":13963:13983   */\n      tag_614\n        /* \"#utility.yul\":13981:13982   */\n      dup4\n        /* \"#utility.yul\":13963:13983   */\n      tag_414\n      jump\t// in\n    tag_614:\n        /* \"#utility.yul\":13958:13983   */\n      swap3\n      pop\n        /* \"#utility.yul\":14018:14019   */\n      dup3\n        /* \"#utility.yul\":14015:14016   */\n      dup3\n        /* \"#utility.yul\":14011:14020   */\n      mul\n        /* \"#utility.yul\":14040:14070   */\n      tag_615\n        /* \"#utility.yul\":14058:14069   */\n      dup2\n        /* \"#utility.yul\":14040:14070   */\n      tag_414\n      jump\t// in\n    tag_615:\n        /* \"#utility.yul\":14029:14070   */\n      swap2\n      pop\n        /* \"#utility.yul\":14219:14220   */\n      dup3\n        /* \"#utility.yul\":14210:14217   */\n      dup3\n        /* \"#utility.yul\":14206:14221   */\n      div\n        /* \"#utility.yul\":14203:14204   */\n      dup5\n        /* \"#utility.yul\":14200:14222   */\n      eq\n        /* \"#utility.yul\":14180:14181   */\n      dup4\n        /* \"#utility.yul\":14173:14182   */\n      iszero\n        /* \"#utility.yul\":14153:14236   */\n      or\n        /* \"#utility.yul\":14130:14269   */\n      tag_616\n      jumpi\n        /* \"#utility.yul\":14249:14267   */\n      tag_617\n      tag_437\n      jump\t// in\n    tag_617:\n        /* \"#utility.yul\":14130:14269   */\n    tag_616:\n        /* \"#utility.yul\":13914:14276   */\n      pop\n        /* \"#utility.yul\":13866:14276   */\n      swap3\n      swap2\n      pop\n      pop\n      jump\t// out\n        /* \"#utility.yul\":14282:14724   */\n    tag_174:\n        /* \"#utility.yul\":14431:14435   */\n      0x00\n        /* \"#utility.yul\":14469:14471   */\n      0x60\n        /* \"#utility.yul\":14458:14467   */\n      dup3\n        /* \"#utility.yul\":14454:14472   */\n      add\n        /* \"#utility.yul\":14446:14472   */\n      swap1\n      pop\n        /* \"#utility.yul\":14482:14553   */\n      tag_619\n        /* \"#utility.yul\":14550:14551   */\n      0x00\n        /* \"#utility.yul\":14539:14548   */\n      dup4\n        /* \"#utility.yul\":14535:14552   */\n      add\n        /* \"#utility.yul\":14526:14532   */\n      dup7\n        /* \"#utility.yul\":14482:14553   */\n      tag_435\n      jump\t// in\n    tag_619:\n        /* \"#utility.yul\":14563:14635   */\n      tag_620\n        /* \"#utility.yul\":14631:14633   */\n      0x20\n        /* \"#utility.yul\":14620:14629   */\n      dup4\n        /* \"#utility.yul\":14616:14634   */\n      add\n        /* \"#utility.yul\":14607:14613   */\n      dup6\n        /* \"#utility.yul\":14563:14635   */\n      tag_435\n      jump\t// in\n    tag_620:\n        /* \"#utility.yul\":14645:14717   */\n      tag_621\n        /* \"#utility.yul\":14713:14715   */\n      0x40\n        /* \"#utility.yul\":14702:14711   */\n      dup4\n        /* \"#utility.yul\":14698:14716   */\n      add\n        /* \"#utility.yul\":14689:14695   */\n      dup5\n        /* \"#utility.yul\":14645:14717   */\n      tag_417\n      jump\t// in\n    tag_621:\n        /* \"#utility.yul\":14282:14724   */\n      swap5\n      swap4\n      pop\n      pop\n      pop\n      pop\n      jump\t// out\n        /* \"#utility.yul\":14730:14846   */\n    tag_438:\n        /* \"#utility.yul\":14800:14821   */\n      tag_623\n        /* \"#utility.yul\":14815:14820   */\n      dup2\n        /* \"#utility.yul\":14800:14821   */\n      tag_403\n      jump\t// in\n    tag_623:\n        /* \"#utility.yul\":14793:14798   */\n      dup2\n        /* \"#utility.yul\":14790:14822   */\n      eq\n        /* \"#utility.yul\":14780:14840   */\n      tag_624\n      jumpi\n        /* \"#utility.yul\":14836:14837   */\n      0x00\n        /* \"#utility.yul\":14833:14834   */\n      dup1\n        /* \"#utility.yul\":14826:14838   */\n      revert\n        /* \"#utility.yul\":14780:14840   */\n    tag_624:\n        /* \"#utility.yul\":14730:14846   */\n      pop\n      jump\t// out\n        /* \"#utility.yul\":14852:14989   */\n    tag_439:\n        /* \"#utility.yul\":14906:14911   */\n      0x00\n        /* \"#utility.yul\":14937:14943   */\n      dup2\n        /* \"#utility.yul\":14931:14944   */\n      mload\n        /* \"#utility.yul\":14922:14944   */\n      swap1\n      pop\n        /* \"#utility.yul\":14953:14983   */\n      tag_626\n        /* \"#utility.yul\":14977:14982   */\n      dup2\n        /* \"#utility.yul\":14953:14983   */\n      tag_438\n      jump\t// in\n    tag_626:\n        /* \"#utility.yul\":14852:14989   */\n      swap3\n      swap2\n      pop\n      pop\n      jump\t// out\n        /* \"#utility.yul\":14995:15340   */\n    tag_178:\n        /* \"#utility.yul\":15062:15068   */\n      0x00\n        /* \"#utility.yul\":15111:15113   */\n      0x20\n        /* \"#utility.yul\":15099:15108   */\n      dup3\n        /* \"#utility.yul\":15090:15097   */\n      dup5\n        /* \"#utility.yul\":15086:15109   */\n      sub\n        /* \"#utility.yul\":15082:15114   */\n      slt\n        /* \"#utility.yul\":15079:15198   */\n      iszero\n      tag_628\n      jumpi\n        /* \"#utility.yul\":15117:15196   */\n      tag_629\n      tag_398\n      jump\t// in\n    tag_629:\n        /* \"#utility.yul\":15079:15198   */\n    tag_628:\n        /* \"#utility.yul\":15237:15238   */\n      0x00\n        /* \"#utility.yul\":15262:15323   */\n      tag_630\n        /* \"#utility.yul\":15315:15322   */\n      dup5\n        /* \"#utility.yul\":15306:15312   */\n      dup3\n        /* \"#utility.yul\":15295:15304   */\n      dup6\n        /* \"#utility.yul\":15291:15313   */\n      add\n        /* \"#utility.yul\":15262:15323   */\n      tag_439\n      jump\t// in\n    tag_630:\n        /* \"#utility.yul\":15252:15323   */\n      swap2\n      pop\n        /* \"#utility.yul\":15208:15333   */\n      pop\n        /* \"#utility.yul\":14995:15340   */\n      swap3\n      swap2\n      pop\n      pop\n      jump\t// out\n        /* \"#utility.yul\":15346:15523   */\n    tag_440:\n        /* \"#utility.yul\":15486:15515   */\n      0x537461626c6520636f696e207472616e73666572206661696c65640000000000\n        /* \"#utility.yul\":15482:15483   */\n      0x00\n        /* \"#utility.yul\":15474:15480   */\n      dup3\n        /* \"#utility.yul\":15470:15484   */\n      add\n        /* \"#utility.yul\":15463:15516   */\n      mstore\n        /* \"#utility.yul\":15346:15523   */\n      pop\n      jump\t// out\n        /* \"#utility.yul\":15529:15895   */\n    tag_441:\n        /* \"#utility.yul\":15671:15674   */\n      0x00\n        /* \"#utility.yul\":15692:15759   */\n      tag_633\n        /* \"#utility.yul\":15756:15758   */\n      0x1b\n        /* \"#utility.yul\":15751:15754   */\n      dup4\n        /* \"#utility.yul\":15692:15759   */\n      tag_406\n      jump\t// in\n    tag_633:\n        /* \"#utility.yul\":15685:15759   */\n      swap2\n      pop\n        /* \"#utility.yul\":15768:15861   */\n      tag_634\n        /* \"#utility.yul\":15857:15860   */\n      dup3\n        /* \"#utility.yul\":15768:15861   */\n      tag_440\n      jump\t// in\n    tag_634:\n        /* \"#utility.yul\":15886:15888   */\n      0x20\n        /* \"#utility.yul\":15881:15884   */\n      dup3\n        /* \"#utility.yul\":15877:15889   */\n      add\n        /* \"#utility.yul\":15870:15889   */\n      swap1\n      pop\n        /* \"#utility.yul\":15529:15895   */\n      swap2\n      swap1\n      pop\n      jump\t// out\n        /* \"#utility.yul\":15901:16320   */\n    tag_181:\n        /* \"#utility.yul\":16067:16071   */\n      0x00\n        /* \"#utility.yul\":16105:16107   */\n      0x20\n        /* \"#utility.yul\":16094:16103   */\n      dup3\n        /* \"#utility.yul\":16090:16108   */\n      add\n        /* \"#utility.yul\":16082:16108   */\n      swap1\n      pop\n        /* \"#utility.yul\":16154:16163   */\n      dup2\n        /* \"#utility.yul\":16148:16152   */\n      dup2\n        /* \"#utility.yul\":16144:16164   */\n      sub\n        /* \"#utility.yul\":16140:16141   */\n      0x00\n        /* \"#utility.yul\":16129:16138   */\n      dup4\n        /* \"#utility.yul\":16125:16142   */\n      add\n        /* \"#utility.yul\":16118:16165   */\n      mstore\n        /* \"#utility.yul\":16182:16313   */\n      tag_636\n        /* \"#utility.yul\":16308:16312   */\n      dup2\n        /* \"#utility.yul\":16182:16313   */\n      tag_441\n      jump\t// in\n    tag_636:\n        /* \"#utility.yul\":16174:16313   */\n      swap1\n      pop\n        /* \"#utility.yul\":15901:16320   */\n      swap2\n      swap1\n      pop\n      jump\t// out\n        /* \"#utility.yul\":16326:16658   */\n    tag_183:\n        /* \"#utility.yul\":16447:16451   */\n      0x00\n        /* \"#utility.yul\":16485:16487   */\n      0x40\n        /* \"#utility.yul\":16474:16483   */\n      dup3\n        /* \"#utility.yul\":16470:16488   */\n      add\n        /* \"#utility.yul\":16462:16488   */\n      swap1\n      pop\n        /* \"#utility.yul\":16498:16569   */\n      tag_638\n        /* \"#utility.yul\":16566:16567   */\n      0x00\n        /* \"#utility.yul\":16555:16564   */\n      dup4\n        /* \"#utility.yul\":16551:16568   */\n      add\n        /* \"#utility.yul\":16542:16548   */\n      dup6\n        /* \"#utility.yul\":16498:16569   */\n      tag_435\n      jump\t// in\n    tag_638:\n        /* \"#utility.yul\":16579:16651   */\n      tag_639\n        /* \"#utility.yul\":16647:16649   */\n      0x20\n        /* \"#utility.yul\":16636:16645   */\n      dup4\n        /* \"#utility.yul\":16632:16650   */\n      add\n        /* \"#utility.yul\":16623:16629   */\n      dup5\n        /* \"#utility.yul\":16579:16651   */\n      tag_417\n      jump\t// in\n    tag_639:\n        /* \"#utility.yul\":16326:16658   */\n      swap4\n      swap3\n      pop\n      pop\n      pop\n      jump\t// out\n        /* \"#utility.yul\":16664:16840   */\n    tag_442:\n        /* \"#utility.yul\":16804:16832   */\n      0x426f6e6420746f6b656e207472616e73666572206661696c6564000000000000\n        /* \"#utility.yul\":16800:16801   */\n      0x00\n        /* \"#utility.yul\":16792:16798   */\n      dup3\n        /* \"#utility.yul\":16788:16802   */\n      add\n        /* \"#utility.yul\":16781:16833   */\n      mstore\n        /* \"#utility.yul\":16664:16840   */\n      pop\n      jump\t// out\n        /* \"#utility.yul\":16846:17212   */\n    tag_443:\n        /* \"#utility.yul\":16988:16991   */\n      0x00\n        /* \"#utility.yul\":17009:17076   */\n      tag_642\n        /* \"#utility.yul\":17073:17075   */\n      0x1a\n        /* \"#utility.yul\":17068:17071   */\n      dup4\n        /* \"#utility.yul\":17009:17076   */\n      tag_406\n      jump\t// in\n    tag_642:\n        /* \"#utility.yul\":17002:17076   */\n      swap2\n      pop\n        /* \"#utility.yul\":17085:17178   */\n      tag_643\n        /* \"#utility.yul\":17174:17177   */\n      dup3\n        /* \"#utility.yul\":17085:17178   */\n      tag_442\n      jump\t// in\n    tag_643:\n        /* \"#utility.yul\":17203:17205   */\n      0x20\n        /* \"#utility.yul\":17198:17201   */\n      dup3\n        /* \"#utility.yul\":17194:17206   */\n      add\n        /* \"#utility.yul\":17187:17206   */\n      swap1\n      pop\n        /* \"#utility.yul\":16846:17212   */\n      swap2\n      swap1\n      pop\n      jump\t// out\n        /* \"#utility.yul\":17218:17637   */\n    tag_189:\n        /* \"#utility.yul\":17384:17388   */\n      0x00\n        /* \"#utility.yul\":17422:17424   */\n      0x20\n        /* \"#utility.yul\":17411:17420   */\n      dup3\n        /* \"#utility.yul\":17407:17425   */\n      add\n        /* \"#utility.yul\":17399:17425   */\n      swap1\n      pop\n        /* \"#utility.yul\":17471:17480   */\n      dup2\n        /* \"#utility.yul\":17465:17469   */\n      dup2\n        /* \"#utility.yul\":17461:17481   */\n      sub\n        /* \"#utility.yul\":17457:17458   */\n      0x00\n        /* \"#utility.yul\":17446:17455   */\n      dup4\n        /* \"#utility.yul\":17442:17459   */\n      add\n        /* \"#utility.yul\":17435:17482   */\n      mstore\n        /* \"#utility.yul\":17499:17630   */\n      tag_645\n        /* \"#utility.yul\":17625:17629   */\n      dup2\n        /* \"#utility.yul\":17499:17630   */\n      tag_443\n      jump\t// in\n    tag_645:\n        /* \"#utility.yul\":17491:17630   */\n      swap1\n      pop\n        /* \"#utility.yul\":17218:17637   */\n      swap2\n      swap1\n      pop\n      jump\t// out\n        /* \"#utility.yul\":17643:17871   */\n    tag_444:\n        /* \"#utility.yul\":17783:17817   */\n      0x546f6b656e20686f6c6465727320616e6420616d6f756e7473206c656e677468\n        /* \"#utility.yul\":17779:17780   */\n      0x00\n        /* \"#utility.yul\":17771:17777   */\n      dup3\n        /* \"#utility.yul\":17767:17781   */\n      add\n        /* \"#utility.yul\":17760:17818   */\n      mstore\n        /* \"#utility.yul\":17852:17863   */\n      0x206d69736d617463680000000000000000000000000000000000000000000000\n        /* \"#utility.yul\":17847:17849   */\n      0x20\n        /* \"#utility.yul\":17839:17845   */\n      dup3\n        /* \"#utility.yul\":17835:17850   */\n      add\n        /* \"#utility.yul\":17828:17864   */\n      mstore\n        /* \"#utility.yul\":17643:17871   */\n      pop\n      jump\t// out\n        /* \"#utility.yul\":17877:18243   */\n    tag_445:\n        /* \"#utility.yul\":18019:18022   */\n      0x00\n        /* \"#utility.yul\":18040:18107   */\n      tag_648\n        /* \"#utility.yul\":18104:18106   */\n      0x29\n        /* \"#utility.yul\":18099:18102   */\n      dup4\n        /* \"#utility.yul\":18040:18107   */\n      tag_406\n      jump\t// in\n    tag_648:\n        /* \"#utility.yul\":18033:18107   */\n      swap2\n      pop\n        /* \"#utility.yul\":18116:18209   */\n      tag_649\n        /* \"#utility.yul\":18205:18208   */\n      dup3\n        /* \"#utility.yul\":18116:18209   */\n      tag_444\n      jump\t// in\n    tag_649:\n        /* \"#utility.yul\":18234:18236   */\n      0x40\n        /* \"#utility.yul\":18229:18232   */\n      dup3\n        /* \"#utility.yul\":18225:18237   */\n      add\n        /* \"#utility.yul\":18218:18237   */\n      swap1\n      pop\n        /* \"#utility.yul\":17877:18243   */\n      swap2\n      swap1\n      pop\n      jump\t// out\n        /* \"#utility.yul\":18249:18668   */\n    tag_236:\n        /* \"#utility.yul\":18415:18419   */\n      0x00\n        /* \"#utility.yul\":18453:18455   */\n      0x20\n        /* \"#utility.yul\":18442:18451   */\n      dup3\n        /* \"#utility.yul\":18438:18456   */\n      add\n        /* \"#utility.yul\":18430:18456   */\n      swap1\n      pop\n        /* \"#utility.yul\":18502:18511   */\n      dup2\n        /* \"#utility.yul\":18496:18500   */\n      dup2\n        /* \"#utility.yul\":18492:18512   */\n      sub\n        /* \"#utility.yul\":18488:18489   */\n      0x00\n        /* \"#utility.yul\":18477:18486   */\n      dup4\n        /* \"#utility.yul\":18473:18490   */\n      add\n        /* \"#utility.yul\":18466:18513   */\n      mstore\n        /* \"#utility.yul\":18530:18661   */\n      tag_651\n        /* \"#utility.yul\":18656:18660   */\n      dup2\n        /* \"#utility.yul\":18530:18661   */\n      tag_445\n      jump\t// in\n    tag_651:\n        /* \"#utility.yul\":18522:18661   */\n      swap1\n      pop\n        /* \"#utility.yul\":18249:18668   */\n      swap2\n      swap1\n      pop\n      jump\t// out\n        /* \"#utility.yul\":18674:18854   */\n    tag_242:\n        /* \"#utility.yul\":18722:18799   */\n      0x4e487b7100000000000000000000000000000000000000000000000000000000\n        /* \"#utility.yul\":18719:18720   */\n      0x00\n        /* \"#utility.yul\":18712:18800   */\n      mstore\n        /* \"#utility.yul\":18819:18823   */\n      0x32\n        /* \"#utility.yul\":18816:18817   */\n      0x04\n        /* \"#utility.yul\":18809:18824   */\n      mstore\n        /* \"#utility.yul\":18843:18847   */\n      0x24\n        /* \"#utility.yul\":18840:18841   */\n      0x00\n        /* \"#utility.yul\":18833:18848   */\n      revert\n        /* \"#utility.yul\":18860:19025   */\n    tag_446:\n        /* \"#utility.yul\":19000:19017   */\n      0x5472616e73666572206661696c65640000000000000000000000000000000000\n        /* \"#utility.yul\":18996:18997   */\n      0x00\n        /* \"#utility.yul\":18988:18994   */\n      dup3\n        /* \"#utility.yul\":18984:18998   */\n      add\n        /* \"#utility.yul\":18977:19018   */\n      mstore\n        /* \"#utility.yul\":18860:19025   */\n      pop\n      jump\t// out\n        /* \"#utility.yul\":19031:19397   */\n    tag_447:\n        /* \"#utility.yul\":19173:19176   */\n      0x00\n        /* \"#utility.yul\":19194:19261   */\n      tag_655\n        /* \"#utility.yul\":19258:19260   */\n      0x0f\n        /* \"#utility.yul\":19253:19256   */\n      dup4\n        /* \"#utility.yul\":19194:19261   */\n      tag_406\n      jump\t// in\n    tag_655:\n        /* \"#utility.yul\":19187:19261   */\n      swap2\n      pop\n        /* \"#utility.yul\":19270:19363   */\n      tag_656\n        /* \"#utility.yul\":19359:19362   */\n      dup3\n        /* \"#utility.yul\":19270:19363   */\n      tag_446\n      jump\t// in\n    tag_656:\n        /* \"#utility.yul\":19388:19390   */\n      0x20\n        /* \"#utility.yul\":19383:19386   */\n      dup3\n        /* \"#utility.yul\":19379:19391   */\n      add\n        /* \"#utility.yul\":19372:19391   */\n      swap1\n      pop\n        /* \"#utility.yul\":19031:19397   */\n      swap2\n      swap1\n      pop\n      jump\t// out\n        /* \"#utility.yul\":19403:19822   */\n    tag_251:\n        /* \"#utility.yul\":19569:19573   */\n      0x00\n        /* \"#utility.yul\":19607:19609   */\n      0x20\n        /* \"#utility.yul\":19596:19605   */\n      dup3\n        /* \"#utility.yul\":19592:19610   */\n      add\n        /* \"#utility.yul\":19584:19610   */\n      swap1\n      pop\n        /* \"#utility.yul\":19656:19665   */\n      dup2\n        /* \"#utility.yul\":19650:19654   */\n      dup2\n        /* \"#utility.yul\":19646:19666   */\n      sub\n        /* \"#utility.yul\":19642:19643   */\n      0x00\n        /* \"#utility.yul\":19631:19640   */\n      dup4\n        /* \"#utility.yul\":19627:19644   */\n      add\n        /* \"#utility.yul\":19620:19667   */\n      mstore\n        /* \"#utility.yul\":19684:19815   */\n      tag_658\n        /* \"#utility.yul\":19810:19814   */\n      dup2\n        /* \"#utility.yul\":19684:19815   */\n      tag_447\n      jump\t// in\n    tag_658:\n        /* \"#utility.yul\":19676:19815   */\n      swap1\n      pop\n        /* \"#utility.yul\":19403:19822   */\n      swap2\n      swap1\n      pop\n      jump\t// out\n        /* \"#utility.yul\":19828:20000   */\n    tag_448:\n        /* \"#utility.yul\":19968:19992   */\n      0x43616e277420636c61696d207a65726f20636f696e7300000000000000000000\n        /* \"#utility.yul\":19964:19965   */\n      0x00\n        /* \"#utility.yul\":19956:19962   */\n      dup3\n        /* \"#utility.yul\":19952:19966   */\n      add\n        /* \"#utility.yul\":19945:19993   */\n      mstore\n        /* \"#utility.yul\":19828:20000   */\n      pop\n      jump\t// out\n        /* \"#utility.yul\":20006:20372   */\n    tag_449:\n        /* \"#utility.yul\":20148:20151   */\n      0x00\n        /* \"#utility.yul\":20169:20236   */\n      tag_661\n        /* \"#utility.yul\":20233:20235   */\n      0x16\n        /* \"#utility.yul\":20228:20231   */\n      dup4\n        /* \"#utility.yul\":20169:20236   */\n      tag_406\n      jump\t// in\n    tag_661:\n        /* \"#utility.yul\":20162:20236   */\n      swap2\n      pop\n        /* \"#utility.yul\":20245:20338   */\n      tag_662\n        /* \"#utility.yul\":20334:20337   */\n      dup3\n        /* \"#utility.yul\":20245:20338   */\n      tag_448\n      jump\t// in\n    tag_662:\n        /* \"#utility.yul\":20363:20365   */\n      0x20\n        /* \"#utility.yul\":20358:20361   */\n      dup3\n        /* \"#utility.yul\":20354:20366   */\n      add\n        /* \"#utility.yul\":20347:20366   */\n      swap1\n      pop\n        /* \"#utility.yul\":20006:20372   */\n      swap2\n      swap1\n      pop\n      jump\t// out\n        /* \"#utility.yul\":20378:20797   */\n    tag_265:\n        /* \"#utility.yul\":20544:20548   */\n      0x00\n        /* \"#utility.yul\":20582:20584   */\n      0x20\n        /* \"#utility.yul\":20571:20580   */\n      dup3\n        /* \"#utility.yul\":20567:20585   */\n      add\n        /* \"#utility.yul\":20559:20585   */\n      swap1\n      pop\n        /* \"#utility.yul\":20631:20640   */\n      dup2\n        /* \"#utility.yul\":20625:20629   */\n      dup2\n        /* \"#utility.yul\":20621:20641   */\n      sub\n        /* \"#utility.yul\":20617:20618   */\n      0x00\n        /* \"#utility.yul\":20606:20615   */\n      dup4\n        /* \"#utility.yul\":20602:20619   */\n      add\n        /* \"#utility.yul\":20595:20642   */\n      mstore\n        /* \"#utility.yul\":20659:20790   */\n      tag_664\n        /* \"#utility.yul\":20785:20789   */\n      dup2\n        /* \"#utility.yul\":20659:20790   */\n      tag_449\n      jump\t// in\n    tag_664:\n        /* \"#utility.yul\":20651:20790   */\n      swap1\n      pop\n        /* \"#utility.yul\":20378:20797   */\n      swap2\n      swap1\n      pop\n      jump\t// out\n        /* \"#utility.yul\":20803:20946   */\n    tag_450:\n        /* \"#utility.yul\":20860:20865   */\n      0x00\n        /* \"#utility.yul\":20891:20897   */\n      dup2\n        /* \"#utility.yul\":20885:20898   */\n      mload\n        /* \"#utility.yul\":20876:20898   */\n      swap1\n      pop\n        /* \"#utility.yul\":20907:20940   */\n      tag_666\n        /* \"#utility.yul\":20934:20939   */\n      dup2\n        /* \"#utility.yul\":20907:20940   */\n      tag_415\n      jump\t// in\n    tag_666:\n        /* \"#utility.yul\":20803:20946   */\n      swap3\n      swap2\n      pop\n      pop\n      jump\t// out\n        /* \"#utility.yul\":20952:21303   */\n    tag_286:\n        /* \"#utility.yul\":21022:21028   */\n      0x00\n        /* \"#utility.yul\":21071:21073   */\n      0x20\n        /* \"#utility.yul\":21059:21068   */\n      dup3\n        /* \"#utility.yul\":21050:21057   */\n      dup5\n        /* \"#utility.yul\":21046:21069   */\n      sub\n        /* \"#utility.yul\":21042:21074   */\n      slt\n        /* \"#utility.yul\":21039:21158   */\n      iszero\n      tag_668\n      jumpi\n        /* \"#utility.yul\":21077:21156   */\n      tag_669\n      tag_398\n      jump\t// in\n    tag_669:\n        /* \"#utility.yul\":21039:21158   */\n    tag_668:\n        /* \"#utility.yul\":21197:21198   */\n      0x00\n        /* \"#utility.yul\":21222:21286   */\n      tag_670\n        /* \"#utility.yul\":21278:21285   */\n      dup5\n        /* \"#utility.yul\":21269:21275   */\n      dup3\n        /* \"#utility.yul\":21258:21267   */\n      dup6\n        /* \"#utility.yul\":21254:21276   */\n      add\n        /* \"#utility.yul\":21222:21286   */\n      tag_450\n      jump\t// in\n    tag_670:\n        /* \"#utility.yul\":21212:21286   */\n      swap2\n      pop\n        /* \"#utility.yul\":21168:21296   */\n      pop\n        /* \"#utility.yul\":20952:21303   */\n      swap3\n      swap2\n      pop\n      pop\n      jump\t// out\n        /* \"#utility.yul\":21309:21487   */\n    tag_451:\n        /* \"#utility.yul\":21449:21479   */\n      0x4e6f20696e766573746f722066756e647320617661696c61626c652e00000000\n        /* \"#utility.yul\":21445:21446   */\n      0x00\n        /* \"#utility.yul\":21437:21443   */\n      dup3\n        /* \"#utility.yul\":21433:21447   */\n      add\n        /* \"#utility.yul\":21426:21480   */\n      mstore\n        /* \"#utility.yul\":21309:21487   */\n      pop\n      jump\t// out\n        /* \"#utility.yul\":21493:21859   */\n    tag_452:\n        /* \"#utility.yul\":21635:21638   */\n      0x00\n        /* \"#utility.yul\":21656:21723   */\n      tag_673\n        /* \"#utility.yul\":21720:21722   */\n      0x1c\n        /* \"#utility.yul\":21715:21718   */\n      dup4\n        /* \"#utility.yul\":21656:21723   */\n      tag_406\n      jump\t// in\n    tag_673:\n        /* \"#utility.yul\":21649:21723   */\n      swap2\n      pop\n        /* \"#utility.yul\":21732:21825   */\n      tag_674\n        /* \"#utility.yul\":21821:21824   */\n      dup3\n        /* \"#utility.yul\":21732:21825   */\n      tag_451\n      jump\t// in\n    tag_674:\n        /* \"#utility.yul\":21850:21852   */\n      0x20\n        /* \"#utility.yul\":21845:21848   */\n      dup3\n        /* \"#utility.yul\":21841:21853   */\n      add\n        /* \"#utility.yul\":21834:21853   */\n      swap1\n      pop\n        /* \"#utility.yul\":21493:21859   */\n      swap2\n      swap1\n      pop\n      jump\t// out\n        /* \"#utility.yul\":21865:22284   */\n    tag_289:\n        /* \"#utility.yul\":22031:22035   */\n      0x00\n        /* \"#utility.yul\":22069:22071   */\n      0x20\n        /* \"#utility.yul\":22058:22067   */\n      dup3\n        /* \"#utility.yul\":22054:22072   */\n      add\n        /* \"#utility.yul\":22046:22072   */\n      swap1\n      pop\n        /* \"#utility.yul\":22118:22127   */\n      dup2\n        /* \"#utility.yul\":22112:22116   */\n      dup2\n        /* \"#utility.yul\":22108:22128   */\n      sub\n        /* \"#utility.yul\":22104:22105   */\n      0x00\n        /* \"#utility.yul\":22093:22102   */\n      dup4\n        /* \"#utility.yul\":22089:22106   */\n      add\n        /* \"#utility.yul\":22082:22129   */\n      mstore\n        /* \"#utility.yul\":22146:22277   */\n      tag_676\n        /* \"#utility.yul\":22272:22276   */\n      dup2\n        /* \"#utility.yul\":22146:22277   */\n      tag_452\n      jump\t// in\n    tag_676:\n        /* \"#utility.yul\":22138:22277   */\n      swap1\n      pop\n        /* \"#utility.yul\":21865:22284   */\n      swap2\n      swap1\n      pop\n      jump\t// out\n        /* \"#utility.yul\":22290:22471   */\n    tag_453:\n        /* \"#utility.yul\":22430:22463   */\n      0x4661696c656420746f207472616e7366657220737461626c6520636f696e7300\n        /* \"#utility.yul\":22426:22427   */\n      0x00\n        /* \"#utility.yul\":22418:22424   */\n      dup3\n        /* \"#utility.yul\":22414:22428   */\n      add\n        /* \"#utility.yul\":22407:22464   */\n      mstore\n        /* \"#utility.yul\":22290:22471   */\n      pop\n      jump\t// out\n        /* \"#utility.yul\":22477:22843   */\n    tag_454:\n        /* \"#utility.yul\":22619:22622   */\n      0x00\n        /* \"#utility.yul\":22640:22707   */\n      tag_679\n        /* \"#utility.yul\":22704:22706   */\n      0x1f\n        /* \"#utility.yul\":22699:22702   */\n      dup4\n        /* \"#utility.yul\":22640:22707   */\n      tag_406\n      jump\t// in\n    tag_679:\n        /* \"#utility.yul\":22633:22707   */\n      swap2\n      pop\n        /* \"#utility.yul\":22716:22809   */\n      tag_680\n        /* \"#utility.yul\":22805:22808   */\n      dup3\n        /* \"#utility.yul\":22716:22809   */\n      tag_453\n      jump\t// in\n    tag_680:\n        /* \"#utility.yul\":22834:22836   */\n      0x20\n        /* \"#utility.yul\":22829:22832   */\n      dup3\n        /* \"#utility.yul\":22825:22837   */\n      add\n        /* \"#utility.yul\":22818:22837   */\n      swap1\n      pop\n        /* \"#utility.yul\":22477:22843   */\n      swap2\n      swap1\n      pop\n      jump\t// out\n        /* \"#utility.yul\":22849:23268   */\n    tag_296:\n        /* \"#utility.yul\":23015:23019   */\n      0x00\n        /* \"#utility.yul\":23053:23055   */\n      0x20\n        /* \"#utility.yul\":23042:23051   */\n      dup3\n        /* \"#utility.yul\":23038:23056   */\n      add\n        /* \"#utility.yul\":23030:23056   */\n      swap1\n      pop\n        /* \"#utility.yul\":23102:23111   */\n      dup2\n        /* \"#utility.yul\":23096:23100   */\n      dup2\n        /* \"#utility.yul\":23092:23112   */\n      sub\n        /* \"#utility.yul\":23088:23089   */\n      0x00\n        /* \"#utility.yul\":23077:23086   */\n      dup4\n        /* \"#utility.yul\":23073:23090   */\n      add\n        /* \"#utility.yul\":23066:23113   */\n      mstore\n        /* \"#utility.yul\":23130:23261   */\n      tag_682\n        /* \"#utility.yul\":23256:23260   */\n      dup2\n        /* \"#utility.yul\":23130:23261   */\n      tag_454\n      jump\t// in\n    tag_682:\n        /* \"#utility.yul\":23122:23261   */\n      swap1\n      pop\n        /* \"#utility.yul\":22849:23268   */\n      swap2\n      swap1\n      pop\n      jump\t// out\n        /* \"#utility.yul\":23274:23716   */\n    tag_322:\n        /* \"#utility.yul\":23423:23427   */\n      0x00\n        /* \"#utility.yul\":23461:23463   */\n      0x60\n        /* \"#utility.yul\":23450:23459   */\n      dup3\n        /* \"#utility.yul\":23446:23464   */\n      add\n        /* \"#utility.yul\":23438:23464   */\n      swap1\n      pop\n        /* \"#utility.yul\":23474:23545   */\n      tag_684\n        /* \"#utility.yul\":23542:23543   */\n      0x00\n        /* \"#utility.yul\":23531:23540   */\n      dup4\n        /* \"#utility.yul\":23527:23544   */\n      add\n        /* \"#utility.yul\":23518:23524   */\n      dup7\n        /* \"#utility.yul\":23474:23545   */\n      tag_435\n      jump\t// in\n    tag_684:\n        /* \"#utility.yul\":23555:23627   */\n      tag_685\n        /* \"#utility.yul\":23623:23625   */\n      0x20\n        /* \"#utility.yul\":23612:23621   */\n      dup4\n        /* \"#utility.yul\":23608:23626   */\n      add\n        /* \"#utility.yul\":23599:23605   */\n      dup6\n        /* \"#utility.yul\":23555:23627   */\n      tag_417\n      jump\t// in\n    tag_685:\n        /* \"#utility.yul\":23637:23709   */\n      tag_686\n        /* \"#utility.yul\":23705:23707   */\n      0x40\n        /* \"#utility.yul\":23694:23703   */\n      dup4\n        /* \"#utility.yul\":23690:23708   */\n      add\n        /* \"#utility.yul\":23681:23687   */\n      dup5\n        /* \"#utility.yul\":23637:23709   */\n      tag_417\n      jump\t// in\n    tag_686:\n        /* \"#utility.yul\":23274:23716   */\n      swap5\n      swap4\n      pop\n      pop\n      pop\n      pop\n      jump\t// out\n        /* \"#utility.yul\":23722:24054   */\n    tag_375:\n        /* \"#utility.yul\":23843:23847   */\n      0x00\n        /* \"#utility.yul\":23881:23883   */\n      0x40\n        /* \"#utility.yul\":23870:23879   */\n      dup3\n        /* \"#utility.yul\":23866:23884   */\n      add\n        /* \"#utility.yul\":23858:23884   */\n      swap1\n      pop\n        /* \"#utility.yul\":23894:23965   */\n      tag_688\n        /* \"#utility.yul\":23962:23963   */\n      0x00\n        /* \"#utility.yul\":23951:23960   */\n      dup4\n        /* \"#utility.yul\":23947:23964   */\n      add\n        /* \"#utility.yul\":23938:23944   */\n      dup6\n        /* \"#utility.yul\":23894:23965   */\n      tag_435\n      jump\t// in\n    tag_688:\n        /* \"#utility.yul\":23975:24047   */\n      tag_689\n        /* \"#utility.yul\":24043:24045   */\n      0x20\n        /* \"#utility.yul\":24032:24041   */\n      dup4\n        /* \"#utility.yul\":24028:24046   */\n      add\n        /* \"#utility.yul\":24019:24025   */\n      dup5\n        /* \"#utility.yul\":23975:24047   */\n      tag_421\n      jump\t// in\n    tag_689:\n        /* \"#utility.yul\":23722:24054   */\n      swap4\n      swap3\n      pop\n      pop\n      pop\n      jump\t// out\n        /* \"#utility.yul\":24060:24251   */\n    tag_390:\n        /* \"#utility.yul\":24100:24103   */\n      0x00\n        /* \"#utility.yul\":24119:24139   */\n      tag_691\n        /* \"#utility.yul\":24137:24138   */\n      dup3\n        /* \"#utility.yul\":24119:24139   */\n      tag_414\n      jump\t// in\n    tag_691:\n        /* \"#utility.yul\":24114:24139   */\n      swap2\n      pop\n        /* \"#utility.yul\":24153:24173   */\n      tag_692\n        /* \"#utility.yul\":24171:24172   */\n      dup4\n        /* \"#utility.yul\":24153:24173   */\n      tag_414\n      jump\t// in\n    tag_692:\n        /* \"#utility.yul\":24148:24173   */\n      swap3\n      pop\n        /* \"#utility.yul\":24196:24197   */\n      dup3\n        /* \"#utility.yul\":24193:24194   */\n      dup3\n        /* \"#utility.yul\":24189:24198   */\n      add\n        /* \"#utility.yul\":24182:24198   */\n      swap1\n      pop\n        /* \"#utility.yul\":24217:24220   */\n      dup1\n        /* \"#utility.yul\":24214:24215   */\n      dup3\n        /* \"#utility.yul\":24211:24221   */\n      gt\n        /* \"#utility.yul\":24208:24244   */\n      iszero\n      tag_693\n      jumpi\n        /* \"#utility.yul\":24224:24242   */\n      tag_694\n      tag_437\n      jump\t// in\n    tag_694:\n        /* \"#utility.yul\":24208:24244   */\n    tag_693:\n        /* \"#utility.yul\":24060:24251   */\n      swap3\n      swap2\n      pop\n      pop\n      jump\t// out\n\n    auxdata: 0xa2646970667358221220e1d951ad24e5b242d59fbe09145cfe04ae4ea37f3a54f755a9e941cd3b583f7464736f6c634300081a0033\n}\n",
				"bytecode": {
					"linkReferences": {},
					"object": "60e060405234801561000f575f80fd5b5060405161388038038061388083398181016040528101906100319190610725565b6040518060400160405280601581526020017f426f6e4465466920546f6b656e205369656d656e7300000000000000000000008152506040518060400160405280600681526020017f42445349454d000000000000000000000000000000000000000000000000000081525081600390816100ac9190610a1a565b5080600490816100bc9190610a1a565b5050505f60055f6101000a81548160ff0219169083151502179055506101087fdf8b4c520ffe197c5343c6f5aec59570151ef9a492f2c624fd45ddde6135ec428a6101f760201b60201c565b506101397ff877234297ef562d54f0328f892acfc1d6c1e44ca89f02e3a2c2a4736f6095b7896101f760201b60201c565b508673ffffffffffffffffffffffffffffffffffffffff1660808173ffffffffffffffffffffffffffffffffffffffff16815250508573ffffffffffffffffffffffffffffffffffffffff1660a08173ffffffffffffffffffffffffffffffffffffffff16815250508060c081815250506101e9336101bc6102ed60201b60201c565b600a6101c89190610c51565b83886101d49190610cc8565b6101de9190610cf8565b6102f560201b60201c565b505050505050505050610df1565b5f610208838361037a60201b60201c565b6102e357600160065f8581526020019081526020015f205f015f8473ffffffffffffffffffffffffffffffffffffffff1673ffffffffffffffffffffffffffffffffffffffff1681526020019081526020015f205f6101000a81548160ff0219169083151502179055506102806103de60201b60201c565b73ffffffffffffffffffffffffffffffffffffffff168273ffffffffffffffffffffffffffffffffffffffff16847f2f8788117e7eff1d82e926ec794901d17c78024a50270940304540a733656f0d60405160405180910390a4600190506102e7565b5f90505b92915050565b5f6012905090565b5f73ffffffffffffffffffffffffffffffffffffffff168273ffffffffffffffffffffffffffffffffffffffff1603610365575f6040517fec442f0500000000000000000000000000000000000000000000000000000000815260040161035c9190610d48565b60405180910390fd5b6103765f83836103e560201b60201c565b5050565b5f60065f8481526020019081526020015f205f015f8373ffffffffffffffffffffffffffffffffffffffff1673ffffffffffffffffffffffffffffffffffffffff1681526020019081526020015f205f9054906101000a900460ff16905092915050565b5f33905090565b6103f68383836103fb60201b60201c565b505050565b61040961041f60201b60201c565b61041a83838361046660201b60201c565b505050565b61042d61067f60201b60201c565b15610464576040517fd93c066500000000000000000000000000000000000000000000000000000000815260040160405180910390fd5b565b5f73ffffffffffffffffffffffffffffffffffffffff168373ffffffffffffffffffffffffffffffffffffffff16036104b6578060025f8282546104aa9190610d61565b92505081905550610584565b5f805f8573ffffffffffffffffffffffffffffffffffffffff1673ffffffffffffffffffffffffffffffffffffffff1681526020019081526020015f205490508181101561053f578381836040517fe450d38c00000000000000000000000000000000000000000000000000000000815260040161053693929190610da3565b60405180910390fd5b8181035f808673ffffffffffffffffffffffffffffffffffffffff1673ffffffffffffffffffffffffffffffffffffffff1681526020019081526020015f2081905550505b5f73ffffffffffffffffffffffffffffffffffffffff168273ffffffffffffffffffffffffffffffffffffffff16036105cb578060025f8282540392505081905550610615565b805f808473ffffffffffffffffffffffffffffffffffffffff1673ffffffffffffffffffffffffffffffffffffffff1681526020019081526020015f205f82825401925050819055505b8173ffffffffffffffffffffffffffffffffffffffff168373ffffffffffffffffffffffffffffffffffffffff167fddf252ad1be2c89b69c2b068fc378daa952ba7f163c4a11628f55a4df523b3ef836040516106729190610dd8565b60405180910390a3505050565b5f60055f9054906101000a900460ff16905090565b5f80fd5b5f73ffffffffffffffffffffffffffffffffffffffff82169050919050565b5f6106c182610698565b9050919050565b6106d1816106b7565b81146106db575f80fd5b50565b5f815190506106ec816106c8565b92915050565b5f819050919050565b610704816106f2565b811461070e575f80fd5b50565b5f8151905061071f816106fb565b92915050565b5f805f805f805f805f6101208a8c03121561074357610742610694565b5b5f6107508c828d016106de565b99505060206107618c828d016106de565b98505060406107728c828d016106de565b97505060606107838c828d016106de565b96505060806107948c828d01610711565b95505060a06107a58c828d01610711565b94505060c06107b68c828d01610711565b93505060e06107c78c828d01610711565b9250506101006107d98c828d01610711565b9150509295985092959850929598565b5f81519050919050565b7f4e487b71000000000000000000000000000000000000000000000000000000005f52604160045260245ffd5b7f4e487b71000000000000000000000000000000000000000000000000000000005f52602260045260245ffd5b5f600282049050600182168061086457607f821691505b60208210810361087757610876610820565b5b50919050565b5f819050815f5260205f209050919050565b5f6020601f8301049050919050565b5f82821b905092915050565b5f600883026108d97fffffffffffffffffffffffffffffffffffffffffffffffffffffffffffffffff8261089e565b6108e3868361089e565b95508019841693508086168417925050509392505050565b5f819050919050565b5f61091e610919610914846106f2565b6108fb565b6106f2565b9050919050565b5f819050919050565b61093783610904565b61094b61094382610925565b8484546108aa565b825550505050565b5f90565b61095f610953565b61096a81848461092e565b505050565b5b8181101561098d576109825f82610957565b600181019050610970565b5050565b601f8211156109d2576109a38161087d565b6109ac8461088f565b810160208510156109bb578190505b6109cf6109c78561088f565b83018261096f565b50505b505050565b5f82821c905092915050565b5f6109f25f19846008026109d7565b1980831691505092915050565b5f610a0a83836109e3565b9150826002028217905092915050565b610a23826107e9565b67ffffffffffffffff811115610a3c57610a3b6107f3565b5b610a46825461084d565b610a51828285610991565b5f60209050601f831160018114610a82575f8415610a70578287015190505b610a7a85826109ff565b865550610ae1565b601f198416610a908661087d565b5f5b82811015610ab757848901518255600182019150602085019450602081019050610a92565b86831015610ad45784890151610ad0601f8916826109e3565b8355505b6001600288020188555050505b505050505050565b7f4e487b71000000000000000000000000000000000000000000000000000000005f52601160045260245ffd5b5f8160011c9050919050565b5f808291508390505b6001851115610b6b57808604811115610b4757610b46610ae9565b5b6001851615610b565780820291505b8081029050610b6485610b16565b9450610b2b565b94509492505050565b5f82610b835760019050610c3e565b81610b90575f9050610c3e565b8160018114610ba65760028114610bb057610bdf565b6001915050610c3e565b60ff841115610bc257610bc1610ae9565b5b8360020a915084821115610bd957610bd8610ae9565b5b50610c3e565b5060208310610133831016604e8410600b8410161715610c145782820a905083811115610c0f57610c0e610ae9565b5b610c3e565b610c218484846001610b22565b92509050818404811115610c3857610c37610ae9565b5b81810290505b9392505050565b5f60ff82169050919050565b5f610c5b826106f2565b9150610c6683610c45565b9250610c937fffffffffffffffffffffffffffffffffffffffffffffffffffffffffffffffff8484610b74565b905092915050565b7f4e487b71000000000000000000000000000000000000000000000000000000005f52601260045260245ffd5b5f610cd2826106f2565b9150610cdd836106f2565b925082610ced57610cec610c9b565b5b828204905092915050565b5f610d02826106f2565b9150610d0d836106f2565b9250828202610d1b816106f2565b91508282048414831517610d3257610d31610ae9565b5b5092915050565b610d42816106b7565b82525050565b5f602082019050610d5b5f830184610d39565b92915050565b5f610d6b826106f2565b9150610d76836106f2565b9250828201905080821115610d8e57610d8d610ae9565b5b92915050565b610d9d816106f2565b82525050565b5f606082019050610db65f830186610d39565b610dc36020830185610d94565b610dd06040830184610d94565b949350505050565b5f602082019050610deb5f830184610d94565b92915050565b60805160a05160c051612a2d610e535f395f818161073601528181610dad0152610f0c01525f8181610b4a01528181611264015281816112b201526112ee01525f81816106f801528181610d6101528181610ecf01526110020152612a2d5ff3fe608060405234801561000f575f80fd5b50600436106101e3575f3560e01c806379cc67901161010d578063a920260b116100a0578063dd62ed3e1161006f578063dd62ed3e14610543578063e091a39b14610573578063ec8eba1414610591578063f57d283e146105af576101e3565b8063a920260b146104e3578063ca19c11c14610501578063ced0550f1461051d578063d547741f14610527576101e3565b806395d89b41116100dc57806395d89b4114610459578063992642e514610477578063a217fddf14610495578063a9059cbb146104b3576101e3565b806379cc6790146103e75780638456cb5914610403578063904835c41461040d57806391d1485414610429576101e3565b80632a0acc6a116101855780633f4ba83a116101545780633f4ba83a1461037357806342966c681461037d5780635c975abb1461039957806370a08231146103b7576101e3565b80632a0acc6a146102ff5780632f2ff15d1461031d578063313ce5671461033957806336568abe14610357576101e3565b806310002dbd116101c157806310002dbd1461026557806318160ddd1461028157806323b872dd1461029f578063248a9ca3146102cf576101e3565b806301ffc9a7146101e757806306fdde0314610217578063095ea7b314610235575b5f80fd5b61020160048036038101906101fc9190611e27565b6105cb565b60405161020e9190611e6c565b60405180910390f35b61021f610644565b60405161022c9190611ef5565b60405180910390f35b61024f600480360381019061024a9190611fa2565b6106d4565b60405161025c9190611e6c565b60405180910390f35b61027f600480360381019061027a9190611fe0565b6106f6565b005b6102896108ba565b604051610296919061201a565b60405180910390f35b6102b960048036038101906102b49190612033565b6108c3565b6040516102c69190611e6c565b60405180910390f35b6102e960048036038101906102e491906120b6565b6108f1565b6040516102f691906120f0565b60405180910390f35b61030761090e565b60405161031491906120f0565b60405180910390f35b61033760048036038101906103329190612109565b610932565b005b610341610954565b60405161034e9190612162565b60405180910390f35b610371600480360381019061036c9190612109565b61095c565b005b61037b6109d7565b005b61039760048036038101906103929190611fe0565b610a0c565b005b6103a1610a20565b6040516103ae9190611e6c565b60405180910390f35b6103d160048036038101906103cc919061217b565b610a35565b6040516103de919061201a565b60405180910390f35b61040160048036038101906103fc9190611fa2565b610a7a565b005b61040b610a9a565b005b610427600480360381019061042291906123a6565b610acf565b005b610443600480360381019061043e9190612109565b610c6b565b6040516104509190611e6c565b60405180910390f35b610461610ccf565b60405161046e9190611ef5565b60405180910390f35b61047f610d5f565b60405161048c919061242b565b60405180910390f35b61049d610d83565b6040516104aa91906120f0565b60405180910390f35b6104cd60048036038101906104c89190611fa2565b610d89565b6040516104da9190611e6c565b60405180910390f35b6104eb610dab565b6040516104f8919061201a565b60405180910390f35b61051b60048036038101906105169190611fe0565b610dcf565b005b610525610fd5565b005b610541600480360381019061053c9190612109565b61119a565b005b61055d60048036038101906105589190612444565b6111bc565b60405161056a919061201a565b60405180910390f35b61057b61123e565b60405161058891906120f0565b60405180910390f35b610599611262565b6040516105a6919061242b565b60405180910390f35b6105c960048036038101906105c49190611fa2565b611286565b005b5f7f7965db0b000000000000000000000000000000000000000000000000000000007bffffffffffffffffffffffffffffffffffffffffffffffffffffffff1916827bffffffffffffffffffffffffffffffffffffffffffffffffffffffff1916148061063d575061063c826113b1565b5b9050919050565b606060038054610653906124af565b80601f016020809104026020016040519081016040528092919081815260200182805461067f906124af565b80156106ca5780601f106106a1576101008083540402835291602001916106ca565b820191905f5260205f20905b8154815290600101906020018083116106ad57829003601f168201915b5050505050905090565b5f806106de61141a565b90506106eb818585611421565b600191505092915050565b7f000000000000000000000000000000000000000000000000000000000000000073ffffffffffffffffffffffffffffffffffffffff166323b872dd33307f000000000000000000000000000000000000000000000000000000000000000085610760919061250c565b6040518463ffffffff1660e01b815260040161077e9392919061254d565b6020604051808303815f875af115801561079a573d5f803e3d5ffd5b505050506040513d601f19601f820116820180604052508101906107be91906125ac565b6107fd576040517f08c379a00000000000000000000000000000000000000000000000000000000081526004016107f490612621565b60405180910390fd5b3073ffffffffffffffffffffffffffffffffffffffff1663a9059cbb33836040518363ffffffff1660e01b815260040161083892919061263f565b6020604051808303815f875af1158015610854573d5f803e3d5ffd5b505050506040513d601f19601f8201168201806040525081019061087891906125ac565b6108b7576040517f08c379a00000000000000000000000000000000000000000000000000000000081526004016108ae906126b0565b60405180910390fd5b50565b5f600254905090565b5f806108cd61141a565b90506108da858285611433565b6108e58585856114c5565b60019150509392505050565b5f60065f8381526020019081526020015f20600101549050919050565b7fdf8b4c520ffe197c5343c6f5aec59570151ef9a492f2c624fd45ddde6135ec4281565b61093b826108f1565b610944816115b5565b61094e83836115c9565b50505050565b5f6012905090565b61096461141a565b73ffffffffffffffffffffffffffffffffffffffff168173ffffffffffffffffffffffffffffffffffffffff16146109c8576040517f6697b23200000000000000000000000000000000000000000000000000000000815260040160405180910390fd5b6109d282826116b3565b505050565b7fdf8b4c520ffe197c5343c6f5aec59570151ef9a492f2c624fd45ddde6135ec42610a01816115b5565b610a0961179d565b50565b610a1d610a1761141a565b826117fe565b50565b5f60055f9054906101000a900460ff16905090565b5f805f8373ffffffffffffffffffffffffffffffffffffffff1673ffffffffffffffffffffffffffffffffffffffff1681526020019081526020015f20549050919050565b610a8c82610a8661141a565b83611433565b610a9682826117fe565b5050565b7fdf8b4c520ffe197c5343c6f5aec59570151ef9a492f2c624fd45ddde6135ec42610ac4816115b5565b610acc61187d565b50565b7fdf8b4c520ffe197c5343c6f5aec59570151ef9a492f2c624fd45ddde6135ec42610af9816115b5565b8151835114610b3d576040517f08c379a0000000000000000000000000000000000000000000000000000000008152600401610b349061273e565b60405180910390fd5b5f5b8351811015610c65577f000000000000000000000000000000000000000000000000000000000000000073ffffffffffffffffffffffffffffffffffffffff166323b872dd33868481518110610b9857610b9761275c565b5b6020026020010151868581518110610bb357610bb261275c565b5b60200260200101516040518463ffffffff1660e01b8152600401610bd99392919061254d565b6020604051808303815f875af1158015610bf5573d5f803e3d5ffd5b505050506040513d601f19601f82011682018060405250810190610c1991906125ac565b610c58576040517f08c379a0000000000000000000000000000000000000000000000000000000008152600401610c4f906127d3565b60405180910390fd5b8080600101915050610b3f565b50505050565b5f60065f8481526020019081526020015f205f015f8373ffffffffffffffffffffffffffffffffffffffff1673ffffffffffffffffffffffffffffffffffffffff1681526020019081526020015f205f9054906101000a900460ff16905092915050565b606060048054610cde906124af565b80601f0160208091040260200160405190810160405280929190818152602001828054610d0a906124af565b8015610d555780601f10610d2c57610100808354040283529160200191610d55565b820191905f5260205f20905b815481529060010190602001808311610d3857829003601f168201915b5050505050905090565b7f000000000000000000000000000000000000000000000000000000000000000081565b5f801b81565b5f80610d9361141a565b9050610da08185856114c5565b600191505092915050565b7f000000000000000000000000000000000000000000000000000000000000000081565b5f8111610e11576040517f08c379a0000000000000000000000000000000000000000000000000000000008152600401610e089061283b565b60405180910390fd5b3073ffffffffffffffffffffffffffffffffffffffff166323b872dd3330846040518463ffffffff1660e01b8152600401610e4e9392919061254d565b6020604051808303815f875af1158015610e6a573d5f803e3d5ffd5b505050506040513d601f19601f82011682018060405250810190610e8e91906125ac565b610ecd576040517f08c379a0000000000000000000000000000000000000000000000000000000008152600401610ec4906126b0565b60405180910390fd5b7f000000000000000000000000000000000000000000000000000000000000000073ffffffffffffffffffffffffffffffffffffffff1663a9059cbb337f000000000000000000000000000000000000000000000000000000000000000084610f36919061250c565b6040518363ffffffff1660e01b8152600401610f5392919061263f565b6020604051808303815f875af1158015610f6f573d5f803e3d5ffd5b505050506040513d601f19601f82011682018060405250810190610f9391906125ac565b610fd2576040517f08c379a0000000000000000000000000000000000000000000000000000000008152600401610fc990612621565b60405180910390fd5b50565b7ff877234297ef562d54f0328f892acfc1d6c1e44ca89f02e3a2c2a4736f6095b7610fff816115b5565b5f7f000000000000000000000000000000000000000000000000000000000000000073ffffffffffffffffffffffffffffffffffffffff166370a08231306040518263ffffffff1660e01b8152600401611059919061242b565b602060405180830381865afa158015611074573d5f803e3d5ffd5b505050506040513d601f19601f82011682018060405250810190611098919061286d565b90505f81116110dc576040517f08c379a00000000000000000000000000000000000000000000000000000000081526004016110d3906128e2565b60405180910390fd5b3073ffffffffffffffffffffffffffffffffffffffff1663a9059cbb33836040518363ffffffff1660e01b815260040161111792919061263f565b6020604051808303815f875af1158015611133573d5f803e3d5ffd5b505050506040513d601f19601f8201168201806040525081019061115791906125ac565b611196576040517f08c379a000000000000000000000000000000000000000000000000000000000815260040161118d9061294a565b60405180910390fd5b5050565b6111a3826108f1565b6111ac816115b5565b6111b683836116b3565b50505050565b5f60015f8473ffffffffffffffffffffffffffffffffffffffff1673ffffffffffffffffffffffffffffffffffffffff1681526020019081526020015f205f8373ffffffffffffffffffffffffffffffffffffffff1673ffffffffffffffffffffffffffffffffffffffff1681526020019081526020015f2054905092915050565b7ff877234297ef562d54f0328f892acfc1d6c1e44ca89f02e3a2c2a4736f6095b781565b7f000000000000000000000000000000000000000000000000000000000000000081565b7fdf8b4c520ffe197c5343c6f5aec59570151ef9a492f2c624fd45ddde6135ec426112b0816115b5565b7f000000000000000000000000000000000000000000000000000000000000000073ffffffffffffffffffffffffffffffffffffffff166323b872dd7f000000000000000000000000000000000000000000000000000000000000000085856040518463ffffffff1660e01b815260040161132d9392919061254d565b6020604051808303815f875af1158015611349573d5f803e3d5ffd5b505050506040513d601f19601f8201168201806040525081019061136d91906125ac565b6113ac576040517f08c379a00000000000000000000000000000000000000000000000000000000081526004016113a3906127d3565b60405180910390fd5b505050565b5f7f01ffc9a7000000000000000000000000000000000000000000000000000000007bffffffffffffffffffffffffffffffffffffffffffffffffffffffff1916827bffffffffffffffffffffffffffffffffffffffffffffffffffffffff1916149050919050565b5f33905090565b61142e83838360016118df565b505050565b5f61143e84846111bc565b90507fffffffffffffffffffffffffffffffffffffffffffffffffffffffffffffffff81146114bf57818110156114b0578281836040517ffb8f41b20000000000000000000000000000000000000000000000000000000081526004016114a793929190612968565b60405180910390fd5b6114be84848484035f6118df565b5b50505050565b5f73ffffffffffffffffffffffffffffffffffffffff168373ffffffffffffffffffffffffffffffffffffffff1603611535575f6040517f96c6fd1e00000000000000000000000000000000000000000000000000000000815260040161152c919061242b565b60405180910390fd5b5f73ffffffffffffffffffffffffffffffffffffffff168273ffffffffffffffffffffffffffffffffffffffff16036115a5575f6040517fec442f0500000000000000000000000000000000000000000000000000000000815260040161159c919061242b565b60405180910390fd5b6115b0838383611aae565b505050565b6115c6816115c161141a565b611abe565b50565b5f6115d48383610c6b565b6116a957600160065f8581526020019081526020015f205f015f8473ffffffffffffffffffffffffffffffffffffffff1673ffffffffffffffffffffffffffffffffffffffff1681526020019081526020015f205f6101000a81548160ff02191690831515021790555061164661141a565b73ffffffffffffffffffffffffffffffffffffffff168273ffffffffffffffffffffffffffffffffffffffff16847f2f8788117e7eff1d82e926ec794901d17c78024a50270940304540a733656f0d60405160405180910390a4600190506116ad565b5f90505b92915050565b5f6116be8383610c6b565b15611793575f60065f8581526020019081526020015f205f015f8473ffffffffffffffffffffffffffffffffffffffff1673ffffffffffffffffffffffffffffffffffffffff1681526020019081526020015f205f6101000a81548160ff02191690831515021790555061173061141a565b73ffffffffffffffffffffffffffffffffffffffff168273ffffffffffffffffffffffffffffffffffffffff16847ff6391f5c32d9c69d2a47ea670b442974b53935d1edc7fd64eb21e047a839171b60405160405180910390a460019050611797565b5f90505b92915050565b6117a5611b0f565b5f60055f6101000a81548160ff0219169083151502179055507f5db9ee0a495bf2e6ff9c91a7834c1ba4fdd244a5e8aa4e537bd38aeae4b073aa6117e761141a565b6040516117f4919061242b565b60405180910390a1565b5f73ffffffffffffffffffffffffffffffffffffffff168273ffffffffffffffffffffffffffffffffffffffff160361186e575f6040517f96c6fd1e000000000000000000000000000000000000000000000000000000008152600401611865919061242b565b60405180910390fd5b611879825f83611aae565b5050565b611885611b4f565b600160055f6101000a81548160ff0219169083151502179055507f62e78cea01bee320cd4e420270b5ea74000d11b0c9f74754ebdbfc544b05a2586118c861141a565b6040516118d5919061242b565b60405180910390a1565b5f73ffffffffffffffffffffffffffffffffffffffff168473ffffffffffffffffffffffffffffffffffffffff160361194f575f6040517fe602df05000000000000000000000000000000000000000000000000000000008152600401611946919061242b565b60405180910390fd5b5f73ffffffffffffffffffffffffffffffffffffffff168373ffffffffffffffffffffffffffffffffffffffff16036119bf575f6040517f94280d620000000000000000000000000000000000000000000000000000000081526004016119b6919061242b565b60405180910390fd5b8160015f8673ffffffffffffffffffffffffffffffffffffffff1673ffffffffffffffffffffffffffffffffffffffff1681526020019081526020015f205f8573ffffffffffffffffffffffffffffffffffffffff1673ffffffffffffffffffffffffffffffffffffffff1681526020019081526020015f20819055508015611aa8578273ffffffffffffffffffffffffffffffffffffffff168473ffffffffffffffffffffffffffffffffffffffff167f8c5be1e5ebec7d5bd14f71427d1e84f3dd0314c0f7b2291e5b200ac8c7c3b92584604051611a9f919061201a565b60405180910390a35b50505050565b611ab9838383611b90565b505050565b611ac88282610c6b565b611b0b5780826040517fe2517d3f000000000000000000000000000000000000000000000000000000008152600401611b0292919061299d565b60405180910390fd5b5050565b611b17610a20565b611b4d576040517f8dfc202b00000000000000000000000000000000000000000000000000000000815260040160405180910390fd5b565b611b57610a20565b15611b8e576040517fd93c066500000000000000000000000000000000000000000000000000000000815260040160405180910390fd5b565b611b98611b4f565b611ba3838383611ba8565b505050565b5f73ffffffffffffffffffffffffffffffffffffffff168373ffffffffffffffffffffffffffffffffffffffff1603611bf8578060025f828254611bec91906129c4565b92505081905550611cc6565b5f805f8573ffffffffffffffffffffffffffffffffffffffff1673ffffffffffffffffffffffffffffffffffffffff1681526020019081526020015f2054905081811015611c81578381836040517fe450d38c000000000000000000000000000000000000000000000000000000008152600401611c7893929190612968565b60405180910390fd5b8181035f808673ffffffffffffffffffffffffffffffffffffffff1673ffffffffffffffffffffffffffffffffffffffff1681526020019081526020015f2081905550505b5f73ffffffffffffffffffffffffffffffffffffffff168273ffffffffffffffffffffffffffffffffffffffff1603611d0d578060025f8282540392505081905550611d57565b805f808473ffffffffffffffffffffffffffffffffffffffff1673ffffffffffffffffffffffffffffffffffffffff1681526020019081526020015f205f82825401925050819055505b8173ffffffffffffffffffffffffffffffffffffffff168373ffffffffffffffffffffffffffffffffffffffff167fddf252ad1be2c89b69c2b068fc378daa952ba7f163c4a11628f55a4df523b3ef83604051611db4919061201a565b60405180910390a3505050565b5f604051905090565b5f80fd5b5f80fd5b5f7fffffffff0000000000000000000000000000000000000000000000000000000082169050919050565b611e0681611dd2565b8114611e10575f80fd5b50565b5f81359050611e2181611dfd565b92915050565b5f60208284031215611e3c57611e3b611dca565b5b5f611e4984828501611e13565b91505092915050565b5f8115159050919050565b611e6681611e52565b82525050565b5f602082019050611e7f5f830184611e5d565b92915050565b5f81519050919050565b5f82825260208201905092915050565b8281835e5f83830152505050565b5f601f19601f8301169050919050565b5f611ec782611e85565b611ed18185611e8f565b9350611ee1818560208601611e9f565b611eea81611ead565b840191505092915050565b5f6020820190508181035f830152611f0d8184611ebd565b905092915050565b5f73ffffffffffffffffffffffffffffffffffffffff82169050919050565b5f611f3e82611f15565b9050919050565b611f4e81611f34565b8114611f58575f80fd5b50565b5f81359050611f6981611f45565b92915050565b5f819050919050565b611f8181611f6f565b8114611f8b575f80fd5b50565b5f81359050611f9c81611f78565b92915050565b5f8060408385031215611fb857611fb7611dca565b5b5f611fc585828601611f5b565b9250506020611fd685828601611f8e565b9150509250929050565b5f60208284031215611ff557611ff4611dca565b5b5f61200284828501611f8e565b91505092915050565b61201481611f6f565b82525050565b5f60208201905061202d5f83018461200b565b92915050565b5f805f6060848603121561204a57612049611dca565b5b5f61205786828701611f5b565b935050602061206886828701611f5b565b925050604061207986828701611f8e565b9150509250925092565b5f819050919050565b61209581612083565b811461209f575f80fd5b50565b5f813590506120b08161208c565b92915050565b5f602082840312156120cb576120ca611dca565b5b5f6120d8848285016120a2565b91505092915050565b6120ea81612083565b82525050565b5f6020820190506121035f8301846120e1565b92915050565b5f806040838503121561211f5761211e611dca565b5b5f61212c858286016120a2565b925050602061213d85828601611f5b565b9150509250929050565b5f60ff82169050919050565b61215c81612147565b82525050565b5f6020820190506121755f830184612153565b92915050565b5f602082840312156121905761218f611dca565b5b5f61219d84828501611f5b565b91505092915050565b5f80fd5b7f4e487b71000000000000000000000000000000000000000000000000000000005f52604160045260245ffd5b6121e082611ead565b810181811067ffffffffffffffff821117156121ff576121fe6121aa565b5b80604052505050565b5f612211611dc1565b905061221d82826121d7565b919050565b5f67ffffffffffffffff82111561223c5761223b6121aa565b5b602082029050602081019050919050565b5f80fd5b5f61226361225e84612222565b612208565b905080838252602082019050602084028301858111156122865761228561224d565b5b835b818110156122af578061229b8882611f5b565b845260208401935050602081019050612288565b5050509392505050565b5f82601f8301126122cd576122cc6121a6565b5b81356122dd848260208601612251565b91505092915050565b5f67ffffffffffffffff821115612300576122ff6121aa565b5b602082029050602081019050919050565b5f61232361231e846122e6565b612208565b905080838252602082019050602084028301858111156123465761234561224d565b5b835b8181101561236f578061235b8882611f8e565b845260208401935050602081019050612348565b5050509392505050565b5f82601f83011261238d5761238c6121a6565b5b813561239d848260208601612311565b91505092915050565b5f80604083850312156123bc576123bb611dca565b5b5f83013567ffffffffffffffff8111156123d9576123d8611dce565b5b6123e5858286016122b9565b925050602083013567ffffffffffffffff81111561240657612405611dce565b5b61241285828601612379565b9150509250929050565b61242581611f34565b82525050565b5f60208201905061243e5f83018461241c565b92915050565b5f806040838503121561245a57612459611dca565b5b5f61246785828601611f5b565b925050602061247885828601611f5b565b9150509250929050565b7f4e487b71000000000000000000000000000000000000000000000000000000005f52602260045260245ffd5b5f60028204905060018216806124c657607f821691505b6020821081036124d9576124d8612482565b5b50919050565b7f4e487b71000000000000000000000000000000000000000000000000000000005f52601160045260245ffd5b5f61251682611f6f565b915061252183611f6f565b925082820261252f81611f6f565b91508282048414831517612546576125456124df565b5b5092915050565b5f6060820190506125605f83018661241c565b61256d602083018561241c565b61257a604083018461200b565b949350505050565b61258b81611e52565b8114612595575f80fd5b50565b5f815190506125a681612582565b92915050565b5f602082840312156125c1576125c0611dca565b5b5f6125ce84828501612598565b91505092915050565b7f537461626c6520636f696e207472616e73666572206661696c656400000000005f82015250565b5f61260b601b83611e8f565b9150612616826125d7565b602082019050919050565b5f6020820190508181035f830152612638816125ff565b9050919050565b5f6040820190506126525f83018561241c565b61265f602083018461200b565b9392505050565b7f426f6e6420746f6b656e207472616e73666572206661696c65640000000000005f82015250565b5f61269a601a83611e8f565b91506126a582612666565b602082019050919050565b5f6020820190508181035f8301526126c78161268e565b9050919050565b7f546f6b656e20686f6c6465727320616e6420616d6f756e7473206c656e6774685f8201527f206d69736d617463680000000000000000000000000000000000000000000000602082015250565b5f612728602983611e8f565b9150612733826126ce565b604082019050919050565b5f6020820190508181035f8301526127558161271c565b9050919050565b7f4e487b71000000000000000000000000000000000000000000000000000000005f52603260045260245ffd5b7f5472616e73666572206661696c656400000000000000000000000000000000005f82015250565b5f6127bd600f83611e8f565b91506127c882612789565b602082019050919050565b5f6020820190508181035f8301526127ea816127b1565b9050919050565b7f43616e277420636c61696d207a65726f20636f696e73000000000000000000005f82015250565b5f612825601683611e8f565b9150612830826127f1565b602082019050919050565b5f6020820190508181035f83015261285281612819565b9050919050565b5f8151905061286781611f78565b92915050565b5f6020828403121561288257612881611dca565b5b5f61288f84828501612859565b91505092915050565b7f4e6f20696e766573746f722066756e647320617661696c61626c652e000000005f82015250565b5f6128cc601c83611e8f565b91506128d782612898565b602082019050919050565b5f6020820190508181035f8301526128f9816128c0565b9050919050565b7f4661696c656420746f207472616e7366657220737461626c6520636f696e73005f82015250565b5f612934601f83611e8f565b915061293f82612900565b602082019050919050565b5f6020820190508181035f83015261296181612928565b9050919050565b5f60608201905061297b5f83018661241c565b612988602083018561200b565b612995604083018461200b565b949350505050565b5f6040820190506129b05f83018561241c565b6129bd60208301846120e1565b9392505050565b5f6129ce82611f6f565b91506129d983611f6f565b92508282019050808211156129f1576129f06124df565b5b9291505056fea2646970667358221220e1d951ad24e5b242d59fbe09145cfe04ae4ea37f3a54f755a9e941cd3b583f7464736f6c634300081a0033",
					"opcodes": "PUSH1 0xE0 PUSH1 0x40 MSTORE CALLVALUE DUP1 ISZERO PUSH2 0xF JUMPI PUSH0 DUP1 REVERT JUMPDEST POP PUSH1 0x40 MLOAD PUSH2 0x3880 CODESIZE SUB DUP1 PUSH2 0x3880 DUP4 CODECOPY DUP2 DUP2 ADD PUSH1 0x40 MSTORE DUP2 ADD SWAP1 PUSH2 0x31 SWAP2 SWAP1 PUSH2 0x725 JUMP JUMPDEST PUSH1 0x40 MLOAD DUP1 PUSH1 0x40 ADD PUSH1 0x40 MSTORE DUP1 PUSH1 0x15 DUP2 MSTORE PUSH1 0x20 ADD PUSH32 0x426F6E4465466920546F6B656E205369656D656E730000000000000000000000 DUP2 MSTORE POP PUSH1 0x40 MLOAD DUP1 PUSH1 0x40 ADD PUSH1 0x40 MSTORE DUP1 PUSH1 0x6 DUP2 MSTORE PUSH1 0x20 ADD PUSH32 0x42445349454D0000000000000000000000000000000000000000000000000000 DUP2 MSTORE POP DUP2 PUSH1 0x3 SWAP1 DUP2 PUSH2 0xAC SWAP2 SWAP1 PUSH2 0xA1A JUMP JUMPDEST POP DUP1 PUSH1 0x4 SWAP1 DUP2 PUSH2 0xBC SWAP2 SWAP1 PUSH2 0xA1A JUMP JUMPDEST POP POP POP PUSH0 PUSH1 0x5 PUSH0 PUSH2 0x100 EXP DUP2 SLOAD DUP2 PUSH1 0xFF MUL NOT AND SWAP1 DUP4 ISZERO ISZERO MUL OR SWAP1 SSTORE POP PUSH2 0x108 PUSH32 0xDF8B4C520FFE197C5343C6F5AEC59570151EF9A492F2C624FD45DDDE6135EC42 DUP11 PUSH2 0x1F7 PUSH1 0x20 SHL PUSH1 0x20 SHR JUMP JUMPDEST POP PUSH2 0x139 PUSH32 0xF877234297EF562D54F0328F892ACFC1D6C1E44CA89F02E3A2C2A4736F6095B7 DUP10 PUSH2 0x1F7 PUSH1 0x20 SHL PUSH1 0x20 SHR JUMP JUMPDEST POP DUP7 PUSH20 0xFFFFFFFFFFFFFFFFFFFFFFFFFFFFFFFFFFFFFFFF AND PUSH1 0x80 DUP2 PUSH20 0xFFFFFFFFFFFFFFFFFFFFFFFFFFFFFFFFFFFFFFFF AND DUP2 MSTORE POP POP DUP6 PUSH20 0xFFFFFFFFFFFFFFFFFFFFFFFFFFFFFFFFFFFFFFFF AND PUSH1 0xA0 DUP2 PUSH20 0xFFFFFFFFFFFFFFFFFFFFFFFFFFFFFFFFFFFFFFFF AND DUP2 MSTORE POP POP DUP1 PUSH1 0xC0 DUP2 DUP2 MSTORE POP POP PUSH2 0x1E9 CALLER PUSH2 0x1BC PUSH2 0x2ED PUSH1 0x20 SHL PUSH1 0x20 SHR JUMP JUMPDEST PUSH1 0xA PUSH2 0x1C8 SWAP2 SWAP1 PUSH2 0xC51 JUMP JUMPDEST DUP4 DUP9 PUSH2 0x1D4 SWAP2 SWAP1 PUSH2 0xCC8 JUMP JUMPDEST PUSH2 0x1DE SWAP2 SWAP1 PUSH2 0xCF8 JUMP JUMPDEST PUSH2 0x2F5 PUSH1 0x20 SHL PUSH1 0x20 SHR JUMP JUMPDEST POP POP POP POP POP POP POP POP POP PUSH2 0xDF1 JUMP JUMPDEST PUSH0 PUSH2 0x208 DUP4 DUP4 PUSH2 0x37A PUSH1 0x20 SHL PUSH1 0x20 SHR JUMP JUMPDEST PUSH2 0x2E3 JUMPI PUSH1 0x1 PUSH1 0x6 PUSH0 DUP6 DUP2 MSTORE PUSH1 0x20 ADD SWAP1 DUP2 MSTORE PUSH1 0x20 ADD PUSH0 KECCAK256 PUSH0 ADD PUSH0 DUP5 PUSH20 0xFFFFFFFFFFFFFFFFFFFFFFFFFFFFFFFFFFFFFFFF AND PUSH20 0xFFFFFFFFFFFFFFFFFFFFFFFFFFFFFFFFFFFFFFFF AND DUP2 MSTORE PUSH1 0x20 ADD SWAP1 DUP2 MSTORE PUSH1 0x20 ADD PUSH0 KECCAK256 PUSH0 PUSH2 0x100 EXP DUP2 SLOAD DUP2 PUSH1 0xFF MUL NOT AND SWAP1 DUP4 ISZERO ISZERO MUL OR SWAP1 SSTORE POP PUSH2 0x280 PUSH2 0x3DE PUSH1 0x20 SHL PUSH1 0x20 SHR JUMP JUMPDEST PUSH20 0xFFFFFFFFFFFFFFFFFFFFFFFFFFFFFFFFFFFFFFFF AND DUP3 PUSH20 0xFFFFFFFFFFFFFFFFFFFFFFFFFFFFFFFFFFFFFFFF AND DUP5 PUSH32 0x2F8788117E7EFF1D82E926EC794901D17C78024A50270940304540A733656F0D PUSH1 0x40 MLOAD PUSH1 0x40 MLOAD DUP1 SWAP2 SUB SWAP1 LOG4 PUSH1 0x1 SWAP1 POP PUSH2 0x2E7 JUMP JUMPDEST PUSH0 SWAP1 POP JUMPDEST SWAP3 SWAP2 POP POP JUMP JUMPDEST PUSH0 PUSH1 0x12 SWAP1 POP SWAP1 JUMP JUMPDEST PUSH0 PUSH20 0xFFFFFFFFFFFFFFFFFFFFFFFFFFFFFFFFFFFFFFFF AND DUP3 PUSH20 0xFFFFFFFFFFFFFFFFFFFFFFFFFFFFFFFFFFFFFFFF AND SUB PUSH2 0x365 JUMPI PUSH0 PUSH1 0x40 MLOAD PUSH32 0xEC442F0500000000000000000000000000000000000000000000000000000000 DUP2 MSTORE PUSH1 0x4 ADD PUSH2 0x35C SWAP2 SWAP1 PUSH2 0xD48 JUMP JUMPDEST PUSH1 0x40 MLOAD DUP1 SWAP2 SUB SWAP1 REVERT JUMPDEST PUSH2 0x376 PUSH0 DUP4 DUP4 PUSH2 0x3E5 PUSH1 0x20 SHL PUSH1 0x20 SHR JUMP JUMPDEST POP POP JUMP JUMPDEST PUSH0 PUSH1 0x6 PUSH0 DUP5 DUP2 MSTORE PUSH1 0x20 ADD SWAP1 DUP2 MSTORE PUSH1 0x20 ADD PUSH0 KECCAK256 PUSH0 ADD PUSH0 DUP4 PUSH20 0xFFFFFFFFFFFFFFFFFFFFFFFFFFFFFFFFFFFFFFFF AND PUSH20 0xFFFFFFFFFFFFFFFFFFFFFFFFFFFFFFFFFFFFFFFF AND DUP2 MSTORE PUSH1 0x20 ADD SWAP1 DUP2 MSTORE PUSH1 0x20 ADD PUSH0 KECCAK256 PUSH0 SWAP1 SLOAD SWAP1 PUSH2 0x100 EXP SWAP1 DIV PUSH1 0xFF AND SWAP1 POP SWAP3 SWAP2 POP POP JUMP JUMPDEST PUSH0 CALLER SWAP1 POP SWAP1 JUMP JUMPDEST PUSH2 0x3F6 DUP4 DUP4 DUP4 PUSH2 0x3FB PUSH1 0x20 SHL PUSH1 0x20 SHR JUMP JUMPDEST POP POP POP JUMP JUMPDEST PUSH2 0x409 PUSH2 0x41F PUSH1 0x20 SHL PUSH1 0x20 SHR JUMP JUMPDEST PUSH2 0x41A DUP4 DUP4 DUP4 PUSH2 0x466 PUSH1 0x20 SHL PUSH1 0x20 SHR JUMP JUMPDEST POP POP POP JUMP JUMPDEST PUSH2 0x42D PUSH2 0x67F PUSH1 0x20 SHL PUSH1 0x20 SHR JUMP JUMPDEST ISZERO PUSH2 0x464 JUMPI PUSH1 0x40 MLOAD PUSH32 0xD93C066500000000000000000000000000000000000000000000000000000000 DUP2 MSTORE PUSH1 0x4 ADD PUSH1 0x40 MLOAD DUP1 SWAP2 SUB SWAP1 REVERT JUMPDEST JUMP JUMPDEST PUSH0 PUSH20 0xFFFFFFFFFFFFFFFFFFFFFFFFFFFFFFFFFFFFFFFF AND DUP4 PUSH20 0xFFFFFFFFFFFFFFFFFFFFFFFFFFFFFFFFFFFFFFFF AND SUB PUSH2 0x4B6 JUMPI DUP1 PUSH1 0x2 PUSH0 DUP3 DUP3 SLOAD PUSH2 0x4AA SWAP2 SWAP1 PUSH2 0xD61 JUMP JUMPDEST SWAP3 POP POP DUP2 SWAP1 SSTORE POP PUSH2 0x584 JUMP JUMPDEST PUSH0 DUP1 PUSH0 DUP6 PUSH20 0xFFFFFFFFFFFFFFFFFFFFFFFFFFFFFFFFFFFFFFFF AND PUSH20 0xFFFFFFFFFFFFFFFFFFFFFFFFFFFFFFFFFFFFFFFF AND DUP2 MSTORE PUSH1 0x20 ADD SWAP1 DUP2 MSTORE PUSH1 0x20 ADD PUSH0 KECCAK256 SLOAD SWAP1 POP DUP2 DUP2 LT ISZERO PUSH2 0x53F JUMPI DUP4 DUP2 DUP4 PUSH1 0x40 MLOAD PUSH32 0xE450D38C00000000000000000000000000000000000000000000000000000000 DUP2 MSTORE PUSH1 0x4 ADD PUSH2 0x536 SWAP4 SWAP3 SWAP2 SWAP1 PUSH2 0xDA3 JUMP JUMPDEST PUSH1 0x40 MLOAD DUP1 SWAP2 SUB SWAP1 REVERT JUMPDEST DUP2 DUP2 SUB PUSH0 DUP1 DUP7 PUSH20 0xFFFFFFFFFFFFFFFFFFFFFFFFFFFFFFFFFFFFFFFF AND PUSH20 0xFFFFFFFFFFFFFFFFFFFFFFFFFFFFFFFFFFFFFFFF AND DUP2 MSTORE PUSH1 0x20 ADD SWAP1 DUP2 MSTORE PUSH1 0x20 ADD PUSH0 KECCAK256 DUP2 SWAP1 SSTORE POP POP JUMPDEST PUSH0 PUSH20 0xFFFFFFFFFFFFFFFFFFFFFFFFFFFFFFFFFFFFFFFF AND DUP3 PUSH20 0xFFFFFFFFFFFFFFFFFFFFFFFFFFFFFFFFFFFFFFFF AND SUB PUSH2 0x5CB JUMPI DUP1 PUSH1 0x2 PUSH0 DUP3 DUP3 SLOAD SUB SWAP3 POP POP DUP2 SWAP1 SSTORE POP PUSH2 0x615 JUMP JUMPDEST DUP1 PUSH0 DUP1 DUP5 PUSH20 0xFFFFFFFFFFFFFFFFFFFFFFFFFFFFFFFFFFFFFFFF AND PUSH20 0xFFFFFFFFFFFFFFFFFFFFFFFFFFFFFFFFFFFFFFFF AND DUP2 MSTORE PUSH1 0x20 ADD SWAP1 DUP2 MSTORE PUSH1 0x20 ADD PUSH0 KECCAK256 PUSH0 DUP3 DUP3 SLOAD ADD SWAP3 POP POP DUP2 SWAP1 SSTORE POP JUMPDEST DUP2 PUSH20 0xFFFFFFFFFFFFFFFFFFFFFFFFFFFFFFFFFFFFFFFF AND DUP4 PUSH20 0xFFFFFFFFFFFFFFFFFFFFFFFFFFFFFFFFFFFFFFFF AND PUSH32 0xDDF252AD1BE2C89B69C2B068FC378DAA952BA7F163C4A11628F55A4DF523B3EF DUP4 PUSH1 0x40 MLOAD PUSH2 0x672 SWAP2 SWAP1 PUSH2 0xDD8 JUMP JUMPDEST PUSH1 0x40 MLOAD DUP1 SWAP2 SUB SWAP1 LOG3 POP POP POP JUMP JUMPDEST PUSH0 PUSH1 0x5 PUSH0 SWAP1 SLOAD SWAP1 PUSH2 0x100 EXP SWAP1 DIV PUSH1 0xFF AND SWAP1 POP SWAP1 JUMP JUMPDEST PUSH0 DUP1 REVERT JUMPDEST PUSH0 PUSH20 0xFFFFFFFFFFFFFFFFFFFFFFFFFFFFFFFFFFFFFFFF DUP3 AND SWAP1 POP SWAP2 SWAP1 POP JUMP JUMPDEST PUSH0 PUSH2 0x6C1 DUP3 PUSH2 0x698 JUMP JUMPDEST SWAP1 POP SWAP2 SWAP1 POP JUMP JUMPDEST PUSH2 0x6D1 DUP2 PUSH2 0x6B7 JUMP JUMPDEST DUP2 EQ PUSH2 0x6DB JUMPI PUSH0 DUP1 REVERT JUMPDEST POP JUMP JUMPDEST PUSH0 DUP2 MLOAD SWAP1 POP PUSH2 0x6EC DUP2 PUSH2 0x6C8 JUMP JUMPDEST SWAP3 SWAP2 POP POP JUMP JUMPDEST PUSH0 DUP2 SWAP1 POP SWAP2 SWAP1 POP JUMP JUMPDEST PUSH2 0x704 DUP2 PUSH2 0x6F2 JUMP JUMPDEST DUP2 EQ PUSH2 0x70E JUMPI PUSH0 DUP1 REVERT JUMPDEST POP JUMP JUMPDEST PUSH0 DUP2 MLOAD SWAP1 POP PUSH2 0x71F DUP2 PUSH2 0x6FB JUMP JUMPDEST SWAP3 SWAP2 POP POP JUMP JUMPDEST PUSH0 DUP1 PUSH0 DUP1 PUSH0 DUP1 PUSH0 DUP1 PUSH0 PUSH2 0x120 DUP11 DUP13 SUB SLT ISZERO PUSH2 0x743 JUMPI PUSH2 0x742 PUSH2 0x694 JUMP JUMPDEST JUMPDEST PUSH0 PUSH2 0x750 DUP13 DUP3 DUP14 ADD PUSH2 0x6DE JUMP JUMPDEST SWAP10 POP POP PUSH1 0x20 PUSH2 0x761 DUP13 DUP3 DUP14 ADD PUSH2 0x6DE JUMP JUMPDEST SWAP9 POP POP PUSH1 0x40 PUSH2 0x772 DUP13 DUP3 DUP14 ADD PUSH2 0x6DE JUMP JUMPDEST SWAP8 POP POP PUSH1 0x60 PUSH2 0x783 DUP13 DUP3 DUP14 ADD PUSH2 0x6DE JUMP JUMPDEST SWAP7 POP POP PUSH1 0x80 PUSH2 0x794 DUP13 DUP3 DUP14 ADD PUSH2 0x711 JUMP JUMPDEST SWAP6 POP POP PUSH1 0xA0 PUSH2 0x7A5 DUP13 DUP3 DUP14 ADD PUSH2 0x711 JUMP JUMPDEST SWAP5 POP POP PUSH1 0xC0 PUSH2 0x7B6 DUP13 DUP3 DUP14 ADD PUSH2 0x711 JUMP JUMPDEST SWAP4 POP POP PUSH1 0xE0 PUSH2 0x7C7 DUP13 DUP3 DUP14 ADD PUSH2 0x711 JUMP JUMPDEST SWAP3 POP POP PUSH2 0x100 PUSH2 0x7D9 DUP13 DUP3 DUP14 ADD PUSH2 0x711 JUMP JUMPDEST SWAP2 POP POP SWAP3 SWAP6 SWAP9 POP SWAP3 SWAP6 SWAP9 POP SWAP3 SWAP6 SWAP9 JUMP JUMPDEST PUSH0 DUP2 MLOAD SWAP1 POP SWAP2 SWAP1 POP JUMP JUMPDEST PUSH32 0x4E487B7100000000000000000000000000000000000000000000000000000000 PUSH0 MSTORE PUSH1 0x41 PUSH1 0x4 MSTORE PUSH1 0x24 PUSH0 REVERT JUMPDEST PUSH32 0x4E487B7100000000000000000000000000000000000000000000000000000000 PUSH0 MSTORE PUSH1 0x22 PUSH1 0x4 MSTORE PUSH1 0x24 PUSH0 REVERT JUMPDEST PUSH0 PUSH1 0x2 DUP3 DIV SWAP1 POP PUSH1 0x1 DUP3 AND DUP1 PUSH2 0x864 JUMPI PUSH1 0x7F DUP3 AND SWAP2 POP JUMPDEST PUSH1 0x20 DUP3 LT DUP2 SUB PUSH2 0x877 JUMPI PUSH2 0x876 PUSH2 0x820 JUMP JUMPDEST JUMPDEST POP SWAP2 SWAP1 POP JUMP JUMPDEST PUSH0 DUP2 SWAP1 POP DUP2 PUSH0 MSTORE PUSH1 0x20 PUSH0 KECCAK256 SWAP1 POP SWAP2 SWAP1 POP JUMP JUMPDEST PUSH0 PUSH1 0x20 PUSH1 0x1F DUP4 ADD DIV SWAP1 POP SWAP2 SWAP1 POP JUMP JUMPDEST PUSH0 DUP3 DUP3 SHL SWAP1 POP SWAP3 SWAP2 POP POP JUMP JUMPDEST PUSH0 PUSH1 0x8 DUP4 MUL PUSH2 0x8D9 PUSH32 0xFFFFFFFFFFFFFFFFFFFFFFFFFFFFFFFFFFFFFFFFFFFFFFFFFFFFFFFFFFFFFFFF DUP3 PUSH2 0x89E JUMP JUMPDEST PUSH2 0x8E3 DUP7 DUP4 PUSH2 0x89E JUMP JUMPDEST SWAP6 POP DUP1 NOT DUP5 AND SWAP4 POP DUP1 DUP7 AND DUP5 OR SWAP3 POP POP POP SWAP4 SWAP3 POP POP POP JUMP JUMPDEST PUSH0 DUP2 SWAP1 POP SWAP2 SWAP1 POP JUMP JUMPDEST PUSH0 PUSH2 0x91E PUSH2 0x919 PUSH2 0x914 DUP5 PUSH2 0x6F2 JUMP JUMPDEST PUSH2 0x8FB JUMP JUMPDEST PUSH2 0x6F2 JUMP JUMPDEST SWAP1 POP SWAP2 SWAP1 POP JUMP JUMPDEST PUSH0 DUP2 SWAP1 POP SWAP2 SWAP1 POP JUMP JUMPDEST PUSH2 0x937 DUP4 PUSH2 0x904 JUMP JUMPDEST PUSH2 0x94B PUSH2 0x943 DUP3 PUSH2 0x925 JUMP JUMPDEST DUP5 DUP5 SLOAD PUSH2 0x8AA JUMP JUMPDEST DUP3 SSTORE POP POP POP POP JUMP JUMPDEST PUSH0 SWAP1 JUMP JUMPDEST PUSH2 0x95F PUSH2 0x953 JUMP JUMPDEST PUSH2 0x96A DUP2 DUP5 DUP5 PUSH2 0x92E JUMP JUMPDEST POP POP POP JUMP JUMPDEST JUMPDEST DUP2 DUP2 LT ISZERO PUSH2 0x98D JUMPI PUSH2 0x982 PUSH0 DUP3 PUSH2 0x957 JUMP JUMPDEST PUSH1 0x1 DUP2 ADD SWAP1 POP PUSH2 0x970 JUMP JUMPDEST POP POP JUMP JUMPDEST PUSH1 0x1F DUP3 GT ISZERO PUSH2 0x9D2 JUMPI PUSH2 0x9A3 DUP2 PUSH2 0x87D JUMP JUMPDEST PUSH2 0x9AC DUP5 PUSH2 0x88F JUMP JUMPDEST DUP2 ADD PUSH1 0x20 DUP6 LT ISZERO PUSH2 0x9BB JUMPI DUP2 SWAP1 POP JUMPDEST PUSH2 0x9CF PUSH2 0x9C7 DUP6 PUSH2 0x88F JUMP JUMPDEST DUP4 ADD DUP3 PUSH2 0x96F JUMP JUMPDEST POP POP JUMPDEST POP POP POP JUMP JUMPDEST PUSH0 DUP3 DUP3 SHR SWAP1 POP SWAP3 SWAP2 POP POP JUMP JUMPDEST PUSH0 PUSH2 0x9F2 PUSH0 NOT DUP5 PUSH1 0x8 MUL PUSH2 0x9D7 JUMP JUMPDEST NOT DUP1 DUP4 AND SWAP2 POP POP SWAP3 SWAP2 POP POP JUMP JUMPDEST PUSH0 PUSH2 0xA0A DUP4 DUP4 PUSH2 0x9E3 JUMP JUMPDEST SWAP2 POP DUP3 PUSH1 0x2 MUL DUP3 OR SWAP1 POP SWAP3 SWAP2 POP POP JUMP JUMPDEST PUSH2 0xA23 DUP3 PUSH2 0x7E9 JUMP JUMPDEST PUSH8 0xFFFFFFFFFFFFFFFF DUP2 GT ISZERO PUSH2 0xA3C JUMPI PUSH2 0xA3B PUSH2 0x7F3 JUMP JUMPDEST JUMPDEST PUSH2 0xA46 DUP3 SLOAD PUSH2 0x84D JUMP JUMPDEST PUSH2 0xA51 DUP3 DUP3 DUP6 PUSH2 0x991 JUMP JUMPDEST PUSH0 PUSH1 0x20 SWAP1 POP PUSH1 0x1F DUP4 GT PUSH1 0x1 DUP2 EQ PUSH2 0xA82 JUMPI PUSH0 DUP5 ISZERO PUSH2 0xA70 JUMPI DUP3 DUP8 ADD MLOAD SWAP1 POP JUMPDEST PUSH2 0xA7A DUP6 DUP3 PUSH2 0x9FF JUMP JUMPDEST DUP7 SSTORE POP PUSH2 0xAE1 JUMP JUMPDEST PUSH1 0x1F NOT DUP5 AND PUSH2 0xA90 DUP7 PUSH2 0x87D JUMP JUMPDEST PUSH0 JUMPDEST DUP3 DUP2 LT ISZERO PUSH2 0xAB7 JUMPI DUP5 DUP10 ADD MLOAD DUP3 SSTORE PUSH1 0x1 DUP3 ADD SWAP2 POP PUSH1 0x20 DUP6 ADD SWAP5 POP PUSH1 0x20 DUP2 ADD SWAP1 POP PUSH2 0xA92 JUMP JUMPDEST DUP7 DUP4 LT ISZERO PUSH2 0xAD4 JUMPI DUP5 DUP10 ADD MLOAD PUSH2 0xAD0 PUSH1 0x1F DUP10 AND DUP3 PUSH2 0x9E3 JUMP JUMPDEST DUP4 SSTORE POP JUMPDEST PUSH1 0x1 PUSH1 0x2 DUP9 MUL ADD DUP9 SSTORE POP POP POP JUMPDEST POP POP POP POP POP POP JUMP JUMPDEST PUSH32 0x4E487B7100000000000000000000000000000000000000000000000000000000 PUSH0 MSTORE PUSH1 0x11 PUSH1 0x4 MSTORE PUSH1 0x24 PUSH0 REVERT JUMPDEST PUSH0 DUP2 PUSH1 0x1 SHR SWAP1 POP SWAP2 SWAP1 POP JUMP JUMPDEST PUSH0 DUP1 DUP3 SWAP2 POP DUP4 SWAP1 POP JUMPDEST PUSH1 0x1 DUP6 GT ISZERO PUSH2 0xB6B JUMPI DUP1 DUP7 DIV DUP2 GT ISZERO PUSH2 0xB47 JUMPI PUSH2 0xB46 PUSH2 0xAE9 JUMP JUMPDEST JUMPDEST PUSH1 0x1 DUP6 AND ISZERO PUSH2 0xB56 JUMPI DUP1 DUP3 MUL SWAP2 POP JUMPDEST DUP1 DUP2 MUL SWAP1 POP PUSH2 0xB64 DUP6 PUSH2 0xB16 JUMP JUMPDEST SWAP5 POP PUSH2 0xB2B JUMP JUMPDEST SWAP5 POP SWAP5 SWAP3 POP POP POP JUMP JUMPDEST PUSH0 DUP3 PUSH2 0xB83 JUMPI PUSH1 0x1 SWAP1 POP PUSH2 0xC3E JUMP JUMPDEST DUP2 PUSH2 0xB90 JUMPI PUSH0 SWAP1 POP PUSH2 0xC3E JUMP JUMPDEST DUP2 PUSH1 0x1 DUP2 EQ PUSH2 0xBA6 JUMPI PUSH1 0x2 DUP2 EQ PUSH2 0xBB0 JUMPI PUSH2 0xBDF JUMP JUMPDEST PUSH1 0x1 SWAP2 POP POP PUSH2 0xC3E JUMP JUMPDEST PUSH1 0xFF DUP5 GT ISZERO PUSH2 0xBC2 JUMPI PUSH2 0xBC1 PUSH2 0xAE9 JUMP JUMPDEST JUMPDEST DUP4 PUSH1 0x2 EXP SWAP2 POP DUP5 DUP3 GT ISZERO PUSH2 0xBD9 JUMPI PUSH2 0xBD8 PUSH2 0xAE9 JUMP JUMPDEST JUMPDEST POP PUSH2 0xC3E JUMP JUMPDEST POP PUSH1 0x20 DUP4 LT PUSH2 0x133 DUP4 LT AND PUSH1 0x4E DUP5 LT PUSH1 0xB DUP5 LT AND OR ISZERO PUSH2 0xC14 JUMPI DUP3 DUP3 EXP SWAP1 POP DUP4 DUP2 GT ISZERO PUSH2 0xC0F JUMPI PUSH2 0xC0E PUSH2 0xAE9 JUMP JUMPDEST JUMPDEST PUSH2 0xC3E JUMP JUMPDEST PUSH2 0xC21 DUP5 DUP5 DUP5 PUSH1 0x1 PUSH2 0xB22 JUMP JUMPDEST SWAP3 POP SWAP1 POP DUP2 DUP5 DIV DUP2 GT ISZERO PUSH2 0xC38 JUMPI PUSH2 0xC37 PUSH2 0xAE9 JUMP JUMPDEST JUMPDEST DUP2 DUP2 MUL SWAP1 POP JUMPDEST SWAP4 SWAP3 POP POP POP JUMP JUMPDEST PUSH0 PUSH1 0xFF DUP3 AND SWAP1 POP SWAP2 SWAP1 POP JUMP JUMPDEST PUSH0 PUSH2 0xC5B DUP3 PUSH2 0x6F2 JUMP JUMPDEST SWAP2 POP PUSH2 0xC66 DUP4 PUSH2 0xC45 JUMP JUMPDEST SWAP3 POP PUSH2 0xC93 PUSH32 0xFFFFFFFFFFFFFFFFFFFFFFFFFFFFFFFFFFFFFFFFFFFFFFFFFFFFFFFFFFFFFFFF DUP5 DUP5 PUSH2 0xB74 JUMP JUMPDEST SWAP1 POP SWAP3 SWAP2 POP POP JUMP JUMPDEST PUSH32 0x4E487B7100000000000000000000000000000000000000000000000000000000 PUSH0 MSTORE PUSH1 0x12 PUSH1 0x4 MSTORE PUSH1 0x24 PUSH0 REVERT JUMPDEST PUSH0 PUSH2 0xCD2 DUP3 PUSH2 0x6F2 JUMP JUMPDEST SWAP2 POP PUSH2 0xCDD DUP4 PUSH2 0x6F2 JUMP JUMPDEST SWAP3 POP DUP3 PUSH2 0xCED JUMPI PUSH2 0xCEC PUSH2 0xC9B JUMP JUMPDEST JUMPDEST DUP3 DUP3 DIV SWAP1 POP SWAP3 SWAP2 POP POP JUMP JUMPDEST PUSH0 PUSH2 0xD02 DUP3 PUSH2 0x6F2 JUMP JUMPDEST SWAP2 POP PUSH2 0xD0D DUP4 PUSH2 0x6F2 JUMP JUMPDEST SWAP3 POP DUP3 DUP3 MUL PUSH2 0xD1B DUP2 PUSH2 0x6F2 JUMP JUMPDEST SWAP2 POP DUP3 DUP3 DIV DUP5 EQ DUP4 ISZERO OR PUSH2 0xD32 JUMPI PUSH2 0xD31 PUSH2 0xAE9 JUMP JUMPDEST JUMPDEST POP SWAP3 SWAP2 POP POP JUMP JUMPDEST PUSH2 0xD42 DUP2 PUSH2 0x6B7 JUMP JUMPDEST DUP3 MSTORE POP POP JUMP JUMPDEST PUSH0 PUSH1 0x20 DUP3 ADD SWAP1 POP PUSH2 0xD5B PUSH0 DUP4 ADD DUP5 PUSH2 0xD39 JUMP JUMPDEST SWAP3 SWAP2 POP POP JUMP JUMPDEST PUSH0 PUSH2 0xD6B DUP3 PUSH2 0x6F2 JUMP JUMPDEST SWAP2 POP PUSH2 0xD76 DUP4 PUSH2 0x6F2 JUMP JUMPDEST SWAP3 POP DUP3 DUP3 ADD SWAP1 POP DUP1 DUP3 GT ISZERO PUSH2 0xD8E JUMPI PUSH2 0xD8D PUSH2 0xAE9 JUMP JUMPDEST JUMPDEST SWAP3 SWAP2 POP POP JUMP JUMPDEST PUSH2 0xD9D DUP2 PUSH2 0x6F2 JUMP JUMPDEST DUP3 MSTORE POP POP JUMP JUMPDEST PUSH0 PUSH1 0x60 DUP3 ADD SWAP1 POP PUSH2 0xDB6 PUSH0 DUP4 ADD DUP7 PUSH2 0xD39 JUMP JUMPDEST PUSH2 0xDC3 PUSH1 0x20 DUP4 ADD DUP6 PUSH2 0xD94 JUMP JUMPDEST PUSH2 0xDD0 PUSH1 0x40 DUP4 ADD DUP5 PUSH2 0xD94 JUMP JUMPDEST SWAP5 SWAP4 POP POP POP POP JUMP JUMPDEST PUSH0 PUSH1 0x20 DUP3 ADD SWAP1 POP PUSH2 0xDEB PUSH0 DUP4 ADD DUP5 PUSH2 0xD94 JUMP JUMPDEST SWAP3 SWAP2 POP POP JUMP JUMPDEST PUSH1 0x80 MLOAD PUSH1 0xA0 MLOAD PUSH1 0xC0 MLOAD PUSH2 0x2A2D PUSH2 0xE53 PUSH0 CODECOPY PUSH0 DUP2 DUP2 PUSH2 0x736 ADD MSTORE DUP2 DUP2 PUSH2 0xDAD ADD MSTORE PUSH2 0xF0C ADD MSTORE PUSH0 DUP2 DUP2 PUSH2 0xB4A ADD MSTORE DUP2 DUP2 PUSH2 0x1264 ADD MSTORE DUP2 DUP2 PUSH2 0x12B2 ADD MSTORE PUSH2 0x12EE ADD MSTORE PUSH0 DUP2 DUP2 PUSH2 0x6F8 ADD MSTORE DUP2 DUP2 PUSH2 0xD61 ADD MSTORE DUP2 DUP2 PUSH2 0xECF ADD MSTORE PUSH2 0x1002 ADD MSTORE PUSH2 0x2A2D PUSH0 RETURN INVALID PUSH1 0x80 PUSH1 0x40 MSTORE CALLVALUE DUP1 ISZERO PUSH2 0xF JUMPI PUSH0 DUP1 REVERT JUMPDEST POP PUSH1 0x4 CALLDATASIZE LT PUSH2 0x1E3 JUMPI PUSH0 CALLDATALOAD PUSH1 0xE0 SHR DUP1 PUSH4 0x79CC6790 GT PUSH2 0x10D JUMPI DUP1 PUSH4 0xA920260B GT PUSH2 0xA0 JUMPI DUP1 PUSH4 0xDD62ED3E GT PUSH2 0x6F JUMPI DUP1 PUSH4 0xDD62ED3E EQ PUSH2 0x543 JUMPI DUP1 PUSH4 0xE091A39B EQ PUSH2 0x573 JUMPI DUP1 PUSH4 0xEC8EBA14 EQ PUSH2 0x591 JUMPI DUP1 PUSH4 0xF57D283E EQ PUSH2 0x5AF JUMPI PUSH2 0x1E3 JUMP JUMPDEST DUP1 PUSH4 0xA920260B EQ PUSH2 0x4E3 JUMPI DUP1 PUSH4 0xCA19C11C EQ PUSH2 0x501 JUMPI DUP1 PUSH4 0xCED0550F EQ PUSH2 0x51D JUMPI DUP1 PUSH4 0xD547741F EQ PUSH2 0x527 JUMPI PUSH2 0x1E3 JUMP JUMPDEST DUP1 PUSH4 0x95D89B41 GT PUSH2 0xDC JUMPI DUP1 PUSH4 0x95D89B41 EQ PUSH2 0x459 JUMPI DUP1 PUSH4 0x992642E5 EQ PUSH2 0x477 JUMPI DUP1 PUSH4 0xA217FDDF EQ PUSH2 0x495 JUMPI DUP1 PUSH4 0xA9059CBB EQ PUSH2 0x4B3 JUMPI PUSH2 0x1E3 JUMP JUMPDEST DUP1 PUSH4 0x79CC6790 EQ PUSH2 0x3E7 JUMPI DUP1 PUSH4 0x8456CB59 EQ PUSH2 0x403 JUMPI DUP1 PUSH4 0x904835C4 EQ PUSH2 0x40D JUMPI DUP1 PUSH4 0x91D14854 EQ PUSH2 0x429 JUMPI PUSH2 0x1E3 JUMP JUMPDEST DUP1 PUSH4 0x2A0ACC6A GT PUSH2 0x185 JUMPI DUP1 PUSH4 0x3F4BA83A GT PUSH2 0x154 JUMPI DUP1 PUSH4 0x3F4BA83A EQ PUSH2 0x373 JUMPI DUP1 PUSH4 0x42966C68 EQ PUSH2 0x37D JUMPI DUP1 PUSH4 0x5C975ABB EQ PUSH2 0x399 JUMPI DUP1 PUSH4 0x70A08231 EQ PUSH2 0x3B7 JUMPI PUSH2 0x1E3 JUMP JUMPDEST DUP1 PUSH4 0x2A0ACC6A EQ PUSH2 0x2FF JUMPI DUP1 PUSH4 0x2F2FF15D EQ PUSH2 0x31D JUMPI DUP1 PUSH4 0x313CE567 EQ PUSH2 0x339 JUMPI DUP1 PUSH4 0x36568ABE EQ PUSH2 0x357 JUMPI PUSH2 0x1E3 JUMP JUMPDEST DUP1 PUSH4 0x10002DBD GT PUSH2 0x1C1 JUMPI DUP1 PUSH4 0x10002DBD EQ PUSH2 0x265 JUMPI DUP1 PUSH4 0x18160DDD EQ PUSH2 0x281 JUMPI DUP1 PUSH4 0x23B872DD EQ PUSH2 0x29F JUMPI DUP1 PUSH4 0x248A9CA3 EQ PUSH2 0x2CF JUMPI PUSH2 0x1E3 JUMP JUMPDEST DUP1 PUSH4 0x1FFC9A7 EQ PUSH2 0x1E7 JUMPI DUP1 PUSH4 0x6FDDE03 EQ PUSH2 0x217 JUMPI DUP1 PUSH4 0x95EA7B3 EQ PUSH2 0x235 JUMPI JUMPDEST PUSH0 DUP1 REVERT JUMPDEST PUSH2 0x201 PUSH1 0x4 DUP1 CALLDATASIZE SUB DUP2 ADD SWAP1 PUSH2 0x1FC SWAP2 SWAP1 PUSH2 0x1E27 JUMP JUMPDEST PUSH2 0x5CB JUMP JUMPDEST PUSH1 0x40 MLOAD PUSH2 0x20E SWAP2 SWAP1 PUSH2 0x1E6C JUMP JUMPDEST PUSH1 0x40 MLOAD DUP1 SWAP2 SUB SWAP1 RETURN JUMPDEST PUSH2 0x21F PUSH2 0x644 JUMP JUMPDEST PUSH1 0x40 MLOAD PUSH2 0x22C SWAP2 SWAP1 PUSH2 0x1EF5 JUMP JUMPDEST PUSH1 0x40 MLOAD DUP1 SWAP2 SUB SWAP1 RETURN JUMPDEST PUSH2 0x24F PUSH1 0x4 DUP1 CALLDATASIZE SUB DUP2 ADD SWAP1 PUSH2 0x24A SWAP2 SWAP1 PUSH2 0x1FA2 JUMP JUMPDEST PUSH2 0x6D4 JUMP JUMPDEST PUSH1 0x40 MLOAD PUSH2 0x25C SWAP2 SWAP1 PUSH2 0x1E6C JUMP JUMPDEST PUSH1 0x40 MLOAD DUP1 SWAP2 SUB SWAP1 RETURN JUMPDEST PUSH2 0x27F PUSH1 0x4 DUP1 CALLDATASIZE SUB DUP2 ADD SWAP1 PUSH2 0x27A SWAP2 SWAP1 PUSH2 0x1FE0 JUMP JUMPDEST PUSH2 0x6F6 JUMP JUMPDEST STOP JUMPDEST PUSH2 0x289 PUSH2 0x8BA JUMP JUMPDEST PUSH1 0x40 MLOAD PUSH2 0x296 SWAP2 SWAP1 PUSH2 0x201A JUMP JUMPDEST PUSH1 0x40 MLOAD DUP1 SWAP2 SUB SWAP1 RETURN JUMPDEST PUSH2 0x2B9 PUSH1 0x4 DUP1 CALLDATASIZE SUB DUP2 ADD SWAP1 PUSH2 0x2B4 SWAP2 SWAP1 PUSH2 0x2033 JUMP JUMPDEST PUSH2 0x8C3 JUMP JUMPDEST PUSH1 0x40 MLOAD PUSH2 0x2C6 SWAP2 SWAP1 PUSH2 0x1E6C JUMP JUMPDEST PUSH1 0x40 MLOAD DUP1 SWAP2 SUB SWAP1 RETURN JUMPDEST PUSH2 0x2E9 PUSH1 0x4 DUP1 CALLDATASIZE SUB DUP2 ADD SWAP1 PUSH2 0x2E4 SWAP2 SWAP1 PUSH2 0x20B6 JUMP JUMPDEST PUSH2 0x8F1 JUMP JUMPDEST PUSH1 0x40 MLOAD PUSH2 0x2F6 SWAP2 SWAP1 PUSH2 0x20F0 JUMP JUMPDEST PUSH1 0x40 MLOAD DUP1 SWAP2 SUB SWAP1 RETURN JUMPDEST PUSH2 0x307 PUSH2 0x90E JUMP JUMPDEST PUSH1 0x40 MLOAD PUSH2 0x314 SWAP2 SWAP1 PUSH2 0x20F0 JUMP JUMPDEST PUSH1 0x40 MLOAD DUP1 SWAP2 SUB SWAP1 RETURN JUMPDEST PUSH2 0x337 PUSH1 0x4 DUP1 CALLDATASIZE SUB DUP2 ADD SWAP1 PUSH2 0x332 SWAP2 SWAP1 PUSH2 0x2109 JUMP JUMPDEST PUSH2 0x932 JUMP JUMPDEST STOP JUMPDEST PUSH2 0x341 PUSH2 0x954 JUMP JUMPDEST PUSH1 0x40 MLOAD PUSH2 0x34E SWAP2 SWAP1 PUSH2 0x2162 JUMP JUMPDEST PUSH1 0x40 MLOAD DUP1 SWAP2 SUB SWAP1 RETURN JUMPDEST PUSH2 0x371 PUSH1 0x4 DUP1 CALLDATASIZE SUB DUP2 ADD SWAP1 PUSH2 0x36C SWAP2 SWAP1 PUSH2 0x2109 JUMP JUMPDEST PUSH2 0x95C JUMP JUMPDEST STOP JUMPDEST PUSH2 0x37B PUSH2 0x9D7 JUMP JUMPDEST STOP JUMPDEST PUSH2 0x397 PUSH1 0x4 DUP1 CALLDATASIZE SUB DUP2 ADD SWAP1 PUSH2 0x392 SWAP2 SWAP1 PUSH2 0x1FE0 JUMP JUMPDEST PUSH2 0xA0C JUMP JUMPDEST STOP JUMPDEST PUSH2 0x3A1 PUSH2 0xA20 JUMP JUMPDEST PUSH1 0x40 MLOAD PUSH2 0x3AE SWAP2 SWAP1 PUSH2 0x1E6C JUMP JUMPDEST PUSH1 0x40 MLOAD DUP1 SWAP2 SUB SWAP1 RETURN JUMPDEST PUSH2 0x3D1 PUSH1 0x4 DUP1 CALLDATASIZE SUB DUP2 ADD SWAP1 PUSH2 0x3CC SWAP2 SWAP1 PUSH2 0x217B JUMP JUMPDEST PUSH2 0xA35 JUMP JUMPDEST PUSH1 0x40 MLOAD PUSH2 0x3DE SWAP2 SWAP1 PUSH2 0x201A JUMP JUMPDEST PUSH1 0x40 MLOAD DUP1 SWAP2 SUB SWAP1 RETURN JUMPDEST PUSH2 0x401 PUSH1 0x4 DUP1 CALLDATASIZE SUB DUP2 ADD SWAP1 PUSH2 0x3FC SWAP2 SWAP1 PUSH2 0x1FA2 JUMP JUMPDEST PUSH2 0xA7A JUMP JUMPDEST STOP JUMPDEST PUSH2 0x40B PUSH2 0xA9A JUMP JUMPDEST STOP JUMPDEST PUSH2 0x427 PUSH1 0x4 DUP1 CALLDATASIZE SUB DUP2 ADD SWAP1 PUSH2 0x422 SWAP2 SWAP1 PUSH2 0x23A6 JUMP JUMPDEST PUSH2 0xACF JUMP JUMPDEST STOP JUMPDEST PUSH2 0x443 PUSH1 0x4 DUP1 CALLDATASIZE SUB DUP2 ADD SWAP1 PUSH2 0x43E SWAP2 SWAP1 PUSH2 0x2109 JUMP JUMPDEST PUSH2 0xC6B JUMP JUMPDEST PUSH1 0x40 MLOAD PUSH2 0x450 SWAP2 SWAP1 PUSH2 0x1E6C JUMP JUMPDEST PUSH1 0x40 MLOAD DUP1 SWAP2 SUB SWAP1 RETURN JUMPDEST PUSH2 0x461 PUSH2 0xCCF JUMP JUMPDEST PUSH1 0x40 MLOAD PUSH2 0x46E SWAP2 SWAP1 PUSH2 0x1EF5 JUMP JUMPDEST PUSH1 0x40 MLOAD DUP1 SWAP2 SUB SWAP1 RETURN JUMPDEST PUSH2 0x47F PUSH2 0xD5F JUMP JUMPDEST PUSH1 0x40 MLOAD PUSH2 0x48C SWAP2 SWAP1 PUSH2 0x242B JUMP JUMPDEST PUSH1 0x40 MLOAD DUP1 SWAP2 SUB SWAP1 RETURN JUMPDEST PUSH2 0x49D PUSH2 0xD83 JUMP JUMPDEST PUSH1 0x40 MLOAD PUSH2 0x4AA SWAP2 SWAP1 PUSH2 0x20F0 JUMP JUMPDEST PUSH1 0x40 MLOAD DUP1 SWAP2 SUB SWAP1 RETURN JUMPDEST PUSH2 0x4CD PUSH1 0x4 DUP1 CALLDATASIZE SUB DUP2 ADD SWAP1 PUSH2 0x4C8 SWAP2 SWAP1 PUSH2 0x1FA2 JUMP JUMPDEST PUSH2 0xD89 JUMP JUMPDEST PUSH1 0x40 MLOAD PUSH2 0x4DA SWAP2 SWAP1 PUSH2 0x1E6C JUMP JUMPDEST PUSH1 0x40 MLOAD DUP1 SWAP2 SUB SWAP1 RETURN JUMPDEST PUSH2 0x4EB PUSH2 0xDAB JUMP JUMPDEST PUSH1 0x40 MLOAD PUSH2 0x4F8 SWAP2 SWAP1 PUSH2 0x201A JUMP JUMPDEST PUSH1 0x40 MLOAD DUP1 SWAP2 SUB SWAP1 RETURN JUMPDEST PUSH2 0x51B PUSH1 0x4 DUP1 CALLDATASIZE SUB DUP2 ADD SWAP1 PUSH2 0x516 SWAP2 SWAP1 PUSH2 0x1FE0 JUMP JUMPDEST PUSH2 0xDCF JUMP JUMPDEST STOP JUMPDEST PUSH2 0x525 PUSH2 0xFD5 JUMP JUMPDEST STOP JUMPDEST PUSH2 0x541 PUSH1 0x4 DUP1 CALLDATASIZE SUB DUP2 ADD SWAP1 PUSH2 0x53C SWAP2 SWAP1 PUSH2 0x2109 JUMP JUMPDEST PUSH2 0x119A JUMP JUMPDEST STOP JUMPDEST PUSH2 0x55D PUSH1 0x4 DUP1 CALLDATASIZE SUB DUP2 ADD SWAP1 PUSH2 0x558 SWAP2 SWAP1 PUSH2 0x2444 JUMP JUMPDEST PUSH2 0x11BC JUMP JUMPDEST PUSH1 0x40 MLOAD PUSH2 0x56A SWAP2 SWAP1 PUSH2 0x201A JUMP JUMPDEST PUSH1 0x40 MLOAD DUP1 SWAP2 SUB SWAP1 RETURN JUMPDEST PUSH2 0x57B PUSH2 0x123E JUMP JUMPDEST PUSH1 0x40 MLOAD PUSH2 0x588 SWAP2 SWAP1 PUSH2 0x20F0 JUMP JUMPDEST PUSH1 0x40 MLOAD DUP1 SWAP2 SUB SWAP1 RETURN JUMPDEST PUSH2 0x599 PUSH2 0x1262 JUMP JUMPDEST PUSH1 0x40 MLOAD PUSH2 0x5A6 SWAP2 SWAP1 PUSH2 0x242B JUMP JUMPDEST PUSH1 0x40 MLOAD DUP1 SWAP2 SUB SWAP1 RETURN JUMPDEST PUSH2 0x5C9 PUSH1 0x4 DUP1 CALLDATASIZE SUB DUP2 ADD SWAP1 PUSH2 0x5C4 SWAP2 SWAP1 PUSH2 0x1FA2 JUMP JUMPDEST PUSH2 0x1286 JUMP JUMPDEST STOP JUMPDEST PUSH0 PUSH32 0x7965DB0B00000000000000000000000000000000000000000000000000000000 PUSH28 0xFFFFFFFFFFFFFFFFFFFFFFFFFFFFFFFFFFFFFFFFFFFFFFFFFFFFFFFF NOT AND DUP3 PUSH28 0xFFFFFFFFFFFFFFFFFFFFFFFFFFFFFFFFFFFFFFFFFFFFFFFFFFFFFFFF NOT AND EQ DUP1 PUSH2 0x63D JUMPI POP PUSH2 0x63C DUP3 PUSH2 0x13B1 JUMP JUMPDEST JUMPDEST SWAP1 POP SWAP2 SWAP1 POP JUMP JUMPDEST PUSH1 0x60 PUSH1 0x3 DUP1 SLOAD PUSH2 0x653 SWAP1 PUSH2 0x24AF JUMP JUMPDEST DUP1 PUSH1 0x1F ADD PUSH1 0x20 DUP1 SWAP2 DIV MUL PUSH1 0x20 ADD PUSH1 0x40 MLOAD SWAP1 DUP2 ADD PUSH1 0x40 MSTORE DUP1 SWAP3 SWAP2 SWAP1 DUP2 DUP2 MSTORE PUSH1 0x20 ADD DUP3 DUP1 SLOAD PUSH2 0x67F SWAP1 PUSH2 0x24AF JUMP JUMPDEST DUP1 ISZERO PUSH2 0x6CA JUMPI DUP1 PUSH1 0x1F LT PUSH2 0x6A1 JUMPI PUSH2 0x100 DUP1 DUP4 SLOAD DIV MUL DUP4 MSTORE SWAP2 PUSH1 0x20 ADD SWAP2 PUSH2 0x6CA JUMP JUMPDEST DUP3 ADD SWAP2 SWAP1 PUSH0 MSTORE PUSH1 0x20 PUSH0 KECCAK256 SWAP1 JUMPDEST DUP2 SLOAD DUP2 MSTORE SWAP1 PUSH1 0x1 ADD SWAP1 PUSH1 0x20 ADD DUP1 DUP4 GT PUSH2 0x6AD JUMPI DUP3 SWAP1 SUB PUSH1 0x1F AND DUP3 ADD SWAP2 JUMPDEST POP POP POP POP POP SWAP1 POP SWAP1 JUMP JUMPDEST PUSH0 DUP1 PUSH2 0x6DE PUSH2 0x141A JUMP JUMPDEST SWAP1 POP PUSH2 0x6EB DUP2 DUP6 DUP6 PUSH2 0x1421 JUMP JUMPDEST PUSH1 0x1 SWAP2 POP POP SWAP3 SWAP2 POP POP JUMP JUMPDEST PUSH32 0x0 PUSH20 0xFFFFFFFFFFFFFFFFFFFFFFFFFFFFFFFFFFFFFFFF AND PUSH4 0x23B872DD CALLER ADDRESS PUSH32 0x0 DUP6 PUSH2 0x760 SWAP2 SWAP1 PUSH2 0x250C JUMP JUMPDEST PUSH1 0x40 MLOAD DUP5 PUSH4 0xFFFFFFFF AND PUSH1 0xE0 SHL DUP2 MSTORE PUSH1 0x4 ADD PUSH2 0x77E SWAP4 SWAP3 SWAP2 SWAP1 PUSH2 0x254D JUMP JUMPDEST PUSH1 0x20 PUSH1 0x40 MLOAD DUP1 DUP4 SUB DUP2 PUSH0 DUP8 GAS CALL ISZERO DUP1 ISZERO PUSH2 0x79A JUMPI RETURNDATASIZE PUSH0 DUP1 RETURNDATACOPY RETURNDATASIZE PUSH0 REVERT JUMPDEST POP POP POP POP PUSH1 0x40 MLOAD RETURNDATASIZE PUSH1 0x1F NOT PUSH1 0x1F DUP3 ADD AND DUP3 ADD DUP1 PUSH1 0x40 MSTORE POP DUP2 ADD SWAP1 PUSH2 0x7BE SWAP2 SWAP1 PUSH2 0x25AC JUMP JUMPDEST PUSH2 0x7FD JUMPI PUSH1 0x40 MLOAD PUSH32 0x8C379A000000000000000000000000000000000000000000000000000000000 DUP2 MSTORE PUSH1 0x4 ADD PUSH2 0x7F4 SWAP1 PUSH2 0x2621 JUMP JUMPDEST PUSH1 0x40 MLOAD DUP1 SWAP2 SUB SWAP1 REVERT JUMPDEST ADDRESS PUSH20 0xFFFFFFFFFFFFFFFFFFFFFFFFFFFFFFFFFFFFFFFF AND PUSH4 0xA9059CBB CALLER DUP4 PUSH1 0x40 MLOAD DUP4 PUSH4 0xFFFFFFFF AND PUSH1 0xE0 SHL DUP2 MSTORE PUSH1 0x4 ADD PUSH2 0x838 SWAP3 SWAP2 SWAP1 PUSH2 0x263F JUMP JUMPDEST PUSH1 0x20 PUSH1 0x40 MLOAD DUP1 DUP4 SUB DUP2 PUSH0 DUP8 GAS CALL ISZERO DUP1 ISZERO PUSH2 0x854 JUMPI RETURNDATASIZE PUSH0 DUP1 RETURNDATACOPY RETURNDATASIZE PUSH0 REVERT JUMPDEST POP POP POP POP PUSH1 0x40 MLOAD RETURNDATASIZE PUSH1 0x1F NOT PUSH1 0x1F DUP3 ADD AND DUP3 ADD DUP1 PUSH1 0x40 MSTORE POP DUP2 ADD SWAP1 PUSH2 0x878 SWAP2 SWAP1 PUSH2 0x25AC JUMP JUMPDEST PUSH2 0x8B7 JUMPI PUSH1 0x40 MLOAD PUSH32 0x8C379A000000000000000000000000000000000000000000000000000000000 DUP2 MSTORE PUSH1 0x4 ADD PUSH2 0x8AE SWAP1 PUSH2 0x26B0 JUMP JUMPDEST PUSH1 0x40 MLOAD DUP1 SWAP2 SUB SWAP1 REVERT JUMPDEST POP JUMP JUMPDEST PUSH0 PUSH1 0x2 SLOAD SWAP1 POP SWAP1 JUMP JUMPDEST PUSH0 DUP1 PUSH2 0x8CD PUSH2 0x141A JUMP JUMPDEST SWAP1 POP PUSH2 0x8DA DUP6 DUP3 DUP6 PUSH2 0x1433 JUMP JUMPDEST PUSH2 0x8E5 DUP6 DUP6 DUP6 PUSH2 0x14C5 JUMP JUMPDEST PUSH1 0x1 SWAP2 POP POP SWAP4 SWAP3 POP POP POP JUMP JUMPDEST PUSH0 PUSH1 0x6 PUSH0 DUP4 DUP2 MSTORE PUSH1 0x20 ADD SWAP1 DUP2 MSTORE PUSH1 0x20 ADD PUSH0 KECCAK256 PUSH1 0x1 ADD SLOAD SWAP1 POP SWAP2 SWAP1 POP JUMP JUMPDEST PUSH32 0xDF8B4C520FFE197C5343C6F5AEC59570151EF9A492F2C624FD45DDDE6135EC42 DUP2 JUMP JUMPDEST PUSH2 0x93B DUP3 PUSH2 0x8F1 JUMP JUMPDEST PUSH2 0x944 DUP2 PUSH2 0x15B5 JUMP JUMPDEST PUSH2 0x94E DUP4 DUP4 PUSH2 0x15C9 JUMP JUMPDEST POP POP POP POP JUMP JUMPDEST PUSH0 PUSH1 0x12 SWAP1 POP SWAP1 JUMP JUMPDEST PUSH2 0x964 PUSH2 0x141A JUMP JUMPDEST PUSH20 0xFFFFFFFFFFFFFFFFFFFFFFFFFFFFFFFFFFFFFFFF AND DUP2 PUSH20 0xFFFFFFFFFFFFFFFFFFFFFFFFFFFFFFFFFFFFFFFF AND EQ PUSH2 0x9C8 JUMPI PUSH1 0x40 MLOAD PUSH32 0x6697B23200000000000000000000000000000000000000000000000000000000 DUP2 MSTORE PUSH1 0x4 ADD PUSH1 0x40 MLOAD DUP1 SWAP2 SUB SWAP1 REVERT JUMPDEST PUSH2 0x9D2 DUP3 DUP3 PUSH2 0x16B3 JUMP JUMPDEST POP POP POP JUMP JUMPDEST PUSH32 0xDF8B4C520FFE197C5343C6F5AEC59570151EF9A492F2C624FD45DDDE6135EC42 PUSH2 0xA01 DUP2 PUSH2 0x15B5 JUMP JUMPDEST PUSH2 0xA09 PUSH2 0x179D JUMP JUMPDEST POP JUMP JUMPDEST PUSH2 0xA1D PUSH2 0xA17 PUSH2 0x141A JUMP JUMPDEST DUP3 PUSH2 0x17FE JUMP JUMPDEST POP JUMP JUMPDEST PUSH0 PUSH1 0x5 PUSH0 SWAP1 SLOAD SWAP1 PUSH2 0x100 EXP SWAP1 DIV PUSH1 0xFF AND SWAP1 POP SWAP1 JUMP JUMPDEST PUSH0 DUP1 PUSH0 DUP4 PUSH20 0xFFFFFFFFFFFFFFFFFFFFFFFFFFFFFFFFFFFFFFFF AND PUSH20 0xFFFFFFFFFFFFFFFFFFFFFFFFFFFFFFFFFFFFFFFF AND DUP2 MSTORE PUSH1 0x20 ADD SWAP1 DUP2 MSTORE PUSH1 0x20 ADD PUSH0 KECCAK256 SLOAD SWAP1 POP SWAP2 SWAP1 POP JUMP JUMPDEST PUSH2 0xA8C DUP3 PUSH2 0xA86 PUSH2 0x141A JUMP JUMPDEST DUP4 PUSH2 0x1433 JUMP JUMPDEST PUSH2 0xA96 DUP3 DUP3 PUSH2 0x17FE JUMP JUMPDEST POP POP JUMP JUMPDEST PUSH32 0xDF8B4C520FFE197C5343C6F5AEC59570151EF9A492F2C624FD45DDDE6135EC42 PUSH2 0xAC4 DUP2 PUSH2 0x15B5 JUMP JUMPDEST PUSH2 0xACC PUSH2 0x187D JUMP JUMPDEST POP JUMP JUMPDEST PUSH32 0xDF8B4C520FFE197C5343C6F5AEC59570151EF9A492F2C624FD45DDDE6135EC42 PUSH2 0xAF9 DUP2 PUSH2 0x15B5 JUMP JUMPDEST DUP2 MLOAD DUP4 MLOAD EQ PUSH2 0xB3D JUMPI PUSH1 0x40 MLOAD PUSH32 0x8C379A000000000000000000000000000000000000000000000000000000000 DUP2 MSTORE PUSH1 0x4 ADD PUSH2 0xB34 SWAP1 PUSH2 0x273E JUMP JUMPDEST PUSH1 0x40 MLOAD DUP1 SWAP2 SUB SWAP1 REVERT JUMPDEST PUSH0 JUMPDEST DUP4 MLOAD DUP2 LT ISZERO PUSH2 0xC65 JUMPI PUSH32 0x0 PUSH20 0xFFFFFFFFFFFFFFFFFFFFFFFFFFFFFFFFFFFFFFFF AND PUSH4 0x23B872DD CALLER DUP7 DUP5 DUP2 MLOAD DUP2 LT PUSH2 0xB98 JUMPI PUSH2 0xB97 PUSH2 0x275C JUMP JUMPDEST JUMPDEST PUSH1 0x20 MUL PUSH1 0x20 ADD ADD MLOAD DUP7 DUP6 DUP2 MLOAD DUP2 LT PUSH2 0xBB3 JUMPI PUSH2 0xBB2 PUSH2 0x275C JUMP JUMPDEST JUMPDEST PUSH1 0x20 MUL PUSH1 0x20 ADD ADD MLOAD PUSH1 0x40 MLOAD DUP5 PUSH4 0xFFFFFFFF AND PUSH1 0xE0 SHL DUP2 MSTORE PUSH1 0x4 ADD PUSH2 0xBD9 SWAP4 SWAP3 SWAP2 SWAP1 PUSH2 0x254D JUMP JUMPDEST PUSH1 0x20 PUSH1 0x40 MLOAD DUP1 DUP4 SUB DUP2 PUSH0 DUP8 GAS CALL ISZERO DUP1 ISZERO PUSH2 0xBF5 JUMPI RETURNDATASIZE PUSH0 DUP1 RETURNDATACOPY RETURNDATASIZE PUSH0 REVERT JUMPDEST POP POP POP POP PUSH1 0x40 MLOAD RETURNDATASIZE PUSH1 0x1F NOT PUSH1 0x1F DUP3 ADD AND DUP3 ADD DUP1 PUSH1 0x40 MSTORE POP DUP2 ADD SWAP1 PUSH2 0xC19 SWAP2 SWAP1 PUSH2 0x25AC JUMP JUMPDEST PUSH2 0xC58 JUMPI PUSH1 0x40 MLOAD PUSH32 0x8C379A000000000000000000000000000000000000000000000000000000000 DUP2 MSTORE PUSH1 0x4 ADD PUSH2 0xC4F SWAP1 PUSH2 0x27D3 JUMP JUMPDEST PUSH1 0x40 MLOAD DUP1 SWAP2 SUB SWAP1 REVERT JUMPDEST DUP1 DUP1 PUSH1 0x1 ADD SWAP2 POP POP PUSH2 0xB3F JUMP JUMPDEST POP POP POP POP JUMP JUMPDEST PUSH0 PUSH1 0x6 PUSH0 DUP5 DUP2 MSTORE PUSH1 0x20 ADD SWAP1 DUP2 MSTORE PUSH1 0x20 ADD PUSH0 KECCAK256 PUSH0 ADD PUSH0 DUP4 PUSH20 0xFFFFFFFFFFFFFFFFFFFFFFFFFFFFFFFFFFFFFFFF AND PUSH20 0xFFFFFFFFFFFFFFFFFFFFFFFFFFFFFFFFFFFFFFFF AND DUP2 MSTORE PUSH1 0x20 ADD SWAP1 DUP2 MSTORE PUSH1 0x20 ADD PUSH0 KECCAK256 PUSH0 SWAP1 SLOAD SWAP1 PUSH2 0x100 EXP SWAP1 DIV PUSH1 0xFF AND SWAP1 POP SWAP3 SWAP2 POP POP JUMP JUMPDEST PUSH1 0x60 PUSH1 0x4 DUP1 SLOAD PUSH2 0xCDE SWAP1 PUSH2 0x24AF JUMP JUMPDEST DUP1 PUSH1 0x1F ADD PUSH1 0x20 DUP1 SWAP2 DIV MUL PUSH1 0x20 ADD PUSH1 0x40 MLOAD SWAP1 DUP2 ADD PUSH1 0x40 MSTORE DUP1 SWAP3 SWAP2 SWAP1 DUP2 DUP2 MSTORE PUSH1 0x20 ADD DUP3 DUP1 SLOAD PUSH2 0xD0A SWAP1 PUSH2 0x24AF JUMP JUMPDEST DUP1 ISZERO PUSH2 0xD55 JUMPI DUP1 PUSH1 0x1F LT PUSH2 0xD2C JUMPI PUSH2 0x100 DUP1 DUP4 SLOAD DIV MUL DUP4 MSTORE SWAP2 PUSH1 0x20 ADD SWAP2 PUSH2 0xD55 JUMP JUMPDEST DUP3 ADD SWAP2 SWAP1 PUSH0 MSTORE PUSH1 0x20 PUSH0 KECCAK256 SWAP1 JUMPDEST DUP2 SLOAD DUP2 MSTORE SWAP1 PUSH1 0x1 ADD SWAP1 PUSH1 0x20 ADD DUP1 DUP4 GT PUSH2 0xD38 JUMPI DUP3 SWAP1 SUB PUSH1 0x1F AND DUP3 ADD SWAP2 JUMPDEST POP POP POP POP POP SWAP1 POP SWAP1 JUMP JUMPDEST PUSH32 0x0 DUP2 JUMP JUMPDEST PUSH0 DUP1 SHL DUP2 JUMP JUMPDEST PUSH0 DUP1 PUSH2 0xD93 PUSH2 0x141A JUMP JUMPDEST SWAP1 POP PUSH2 0xDA0 DUP2 DUP6 DUP6 PUSH2 0x14C5 JUMP JUMPDEST PUSH1 0x1 SWAP2 POP POP SWAP3 SWAP2 POP POP JUMP JUMPDEST PUSH32 0x0 DUP2 JUMP JUMPDEST PUSH0 DUP2 GT PUSH2 0xE11 JUMPI PUSH1 0x40 MLOAD PUSH32 0x8C379A000000000000000000000000000000000000000000000000000000000 DUP2 MSTORE PUSH1 0x4 ADD PUSH2 0xE08 SWAP1 PUSH2 0x283B JUMP JUMPDEST PUSH1 0x40 MLOAD DUP1 SWAP2 SUB SWAP1 REVERT JUMPDEST ADDRESS PUSH20 0xFFFFFFFFFFFFFFFFFFFFFFFFFFFFFFFFFFFFFFFF AND PUSH4 0x23B872DD CALLER ADDRESS DUP5 PUSH1 0x40 MLOAD DUP5 PUSH4 0xFFFFFFFF AND PUSH1 0xE0 SHL DUP2 MSTORE PUSH1 0x4 ADD PUSH2 0xE4E SWAP4 SWAP3 SWAP2 SWAP1 PUSH2 0x254D JUMP JUMPDEST PUSH1 0x20 PUSH1 0x40 MLOAD DUP1 DUP4 SUB DUP2 PUSH0 DUP8 GAS CALL ISZERO DUP1 ISZERO PUSH2 0xE6A JUMPI RETURNDATASIZE PUSH0 DUP1 RETURNDATACOPY RETURNDATASIZE PUSH0 REVERT JUMPDEST POP POP POP POP PUSH1 0x40 MLOAD RETURNDATASIZE PUSH1 0x1F NOT PUSH1 0x1F DUP3 ADD AND DUP3 ADD DUP1 PUSH1 0x40 MSTORE POP DUP2 ADD SWAP1 PUSH2 0xE8E SWAP2 SWAP1 PUSH2 0x25AC JUMP JUMPDEST PUSH2 0xECD JUMPI PUSH1 0x40 MLOAD PUSH32 0x8C379A000000000000000000000000000000000000000000000000000000000 DUP2 MSTORE PUSH1 0x4 ADD PUSH2 0xEC4 SWAP1 PUSH2 0x26B0 JUMP JUMPDEST PUSH1 0x40 MLOAD DUP1 SWAP2 SUB SWAP1 REVERT JUMPDEST PUSH32 0x0 PUSH20 0xFFFFFFFFFFFFFFFFFFFFFFFFFFFFFFFFFFFFFFFF AND PUSH4 0xA9059CBB CALLER PUSH32 0x0 DUP5 PUSH2 0xF36 SWAP2 SWAP1 PUSH2 0x250C JUMP JUMPDEST PUSH1 0x40 MLOAD DUP4 PUSH4 0xFFFFFFFF AND PUSH1 0xE0 SHL DUP2 MSTORE PUSH1 0x4 ADD PUSH2 0xF53 SWAP3 SWAP2 SWAP1 PUSH2 0x263F JUMP JUMPDEST PUSH1 0x20 PUSH1 0x40 MLOAD DUP1 DUP4 SUB DUP2 PUSH0 DUP8 GAS CALL ISZERO DUP1 ISZERO PUSH2 0xF6F JUMPI RETURNDATASIZE PUSH0 DUP1 RETURNDATACOPY RETURNDATASIZE PUSH0 REVERT JUMPDEST POP POP POP POP PUSH1 0x40 MLOAD RETURNDATASIZE PUSH1 0x1F NOT PUSH1 0x1F DUP3 ADD AND DUP3 ADD DUP1 PUSH1 0x40 MSTORE POP DUP2 ADD SWAP1 PUSH2 0xF93 SWAP2 SWAP1 PUSH2 0x25AC JUMP JUMPDEST PUSH2 0xFD2 JUMPI PUSH1 0x40 MLOAD PUSH32 0x8C379A000000000000000000000000000000000000000000000000000000000 DUP2 MSTORE PUSH1 0x4 ADD PUSH2 0xFC9 SWAP1 PUSH2 0x2621 JUMP JUMPDEST PUSH1 0x40 MLOAD DUP1 SWAP2 SUB SWAP1 REVERT JUMPDEST POP JUMP JUMPDEST PUSH32 0xF877234297EF562D54F0328F892ACFC1D6C1E44CA89F02E3A2C2A4736F6095B7 PUSH2 0xFFF DUP2 PUSH2 0x15B5 JUMP JUMPDEST PUSH0 PUSH32 0x0 PUSH20 0xFFFFFFFFFFFFFFFFFFFFFFFFFFFFFFFFFFFFFFFF AND PUSH4 0x70A08231 ADDRESS PUSH1 0x40 MLOAD DUP3 PUSH4 0xFFFFFFFF AND PUSH1 0xE0 SHL DUP2 MSTORE PUSH1 0x4 ADD PUSH2 0x1059 SWAP2 SWAP1 PUSH2 0x242B JUMP JUMPDEST PUSH1 0x20 PUSH1 0x40 MLOAD DUP1 DUP4 SUB DUP2 DUP7 GAS STATICCALL ISZERO DUP1 ISZERO PUSH2 0x1074 JUMPI RETURNDATASIZE PUSH0 DUP1 RETURNDATACOPY RETURNDATASIZE PUSH0 REVERT JUMPDEST POP POP POP POP PUSH1 0x40 MLOAD RETURNDATASIZE PUSH1 0x1F NOT PUSH1 0x1F DUP3 ADD AND DUP3 ADD DUP1 PUSH1 0x40 MSTORE POP DUP2 ADD SWAP1 PUSH2 0x1098 SWAP2 SWAP1 PUSH2 0x286D JUMP JUMPDEST SWAP1 POP PUSH0 DUP2 GT PUSH2 0x10DC JUMPI PUSH1 0x40 MLOAD PUSH32 0x8C379A000000000000000000000000000000000000000000000000000000000 DUP2 MSTORE PUSH1 0x4 ADD PUSH2 0x10D3 SWAP1 PUSH2 0x28E2 JUMP JUMPDEST PUSH1 0x40 MLOAD DUP1 SWAP2 SUB SWAP1 REVERT JUMPDEST ADDRESS PUSH20 0xFFFFFFFFFFFFFFFFFFFFFFFFFFFFFFFFFFFFFFFF AND PUSH4 0xA9059CBB CALLER DUP4 PUSH1 0x40 MLOAD DUP4 PUSH4 0xFFFFFFFF AND PUSH1 0xE0 SHL DUP2 MSTORE PUSH1 0x4 ADD PUSH2 0x1117 SWAP3 SWAP2 SWAP1 PUSH2 0x263F JUMP JUMPDEST PUSH1 0x20 PUSH1 0x40 MLOAD DUP1 DUP4 SUB DUP2 PUSH0 DUP8 GAS CALL ISZERO DUP1 ISZERO PUSH2 0x1133 JUMPI RETURNDATASIZE PUSH0 DUP1 RETURNDATACOPY RETURNDATASIZE PUSH0 REVERT JUMPDEST POP POP POP POP PUSH1 0x40 MLOAD RETURNDATASIZE PUSH1 0x1F NOT PUSH1 0x1F DUP3 ADD AND DUP3 ADD DUP1 PUSH1 0x40 MSTORE POP DUP2 ADD SWAP1 PUSH2 0x1157 SWAP2 SWAP1 PUSH2 0x25AC JUMP JUMPDEST PUSH2 0x1196 JUMPI PUSH1 0x40 MLOAD PUSH32 0x8C379A000000000000000000000000000000000000000000000000000000000 DUP2 MSTORE PUSH1 0x4 ADD PUSH2 0x118D SWAP1 PUSH2 0x294A JUMP JUMPDEST PUSH1 0x40 MLOAD DUP1 SWAP2 SUB SWAP1 REVERT JUMPDEST POP POP JUMP JUMPDEST PUSH2 0x11A3 DUP3 PUSH2 0x8F1 JUMP JUMPDEST PUSH2 0x11AC DUP2 PUSH2 0x15B5 JUMP JUMPDEST PUSH2 0x11B6 DUP4 DUP4 PUSH2 0x16B3 JUMP JUMPDEST POP POP POP POP JUMP JUMPDEST PUSH0 PUSH1 0x1 PUSH0 DUP5 PUSH20 0xFFFFFFFFFFFFFFFFFFFFFFFFFFFFFFFFFFFFFFFF AND PUSH20 0xFFFFFFFFFFFFFFFFFFFFFFFFFFFFFFFFFFFFFFFF AND DUP2 MSTORE PUSH1 0x20 ADD SWAP1 DUP2 MSTORE PUSH1 0x20 ADD PUSH0 KECCAK256 PUSH0 DUP4 PUSH20 0xFFFFFFFFFFFFFFFFFFFFFFFFFFFFFFFFFFFFFFFF AND PUSH20 0xFFFFFFFFFFFFFFFFFFFFFFFFFFFFFFFFFFFFFFFF AND DUP2 MSTORE PUSH1 0x20 ADD SWAP1 DUP2 MSTORE PUSH1 0x20 ADD PUSH0 KECCAK256 SLOAD SWAP1 POP SWAP3 SWAP2 POP POP JUMP JUMPDEST PUSH32 0xF877234297EF562D54F0328F892ACFC1D6C1E44CA89F02E3A2C2A4736F6095B7 DUP2 JUMP JUMPDEST PUSH32 0x0 DUP2 JUMP JUMPDEST PUSH32 0xDF8B4C520FFE197C5343C6F5AEC59570151EF9A492F2C624FD45DDDE6135EC42 PUSH2 0x12B0 DUP2 PUSH2 0x15B5 JUMP JUMPDEST PUSH32 0x0 PUSH20 0xFFFFFFFFFFFFFFFFFFFFFFFFFFFFFFFFFFFFFFFF AND PUSH4 0x23B872DD PUSH32 0x0 DUP6 DUP6 PUSH1 0x40 MLOAD DUP5 PUSH4 0xFFFFFFFF AND PUSH1 0xE0 SHL DUP2 MSTORE PUSH1 0x4 ADD PUSH2 0x132D SWAP4 SWAP3 SWAP2 SWAP1 PUSH2 0x254D JUMP JUMPDEST PUSH1 0x20 PUSH1 0x40 MLOAD DUP1 DUP4 SUB DUP2 PUSH0 DUP8 GAS CALL ISZERO DUP1 ISZERO PUSH2 0x1349 JUMPI RETURNDATASIZE PUSH0 DUP1 RETURNDATACOPY RETURNDATASIZE PUSH0 REVERT JUMPDEST POP POP POP POP PUSH1 0x40 MLOAD RETURNDATASIZE PUSH1 0x1F NOT PUSH1 0x1F DUP3 ADD AND DUP3 ADD DUP1 PUSH1 0x40 MSTORE POP DUP2 ADD SWAP1 PUSH2 0x136D SWAP2 SWAP1 PUSH2 0x25AC JUMP JUMPDEST PUSH2 0x13AC JUMPI PUSH1 0x40 MLOAD PUSH32 0x8C379A000000000000000000000000000000000000000000000000000000000 DUP2 MSTORE PUSH1 0x4 ADD PUSH2 0x13A3 SWAP1 PUSH2 0x27D3 JUMP JUMPDEST PUSH1 0x40 MLOAD DUP1 SWAP2 SUB SWAP1 REVERT JUMPDEST POP POP POP JUMP JUMPDEST PUSH0 PUSH32 0x1FFC9A700000000000000000000000000000000000000000000000000000000 PUSH28 0xFFFFFFFFFFFFFFFFFFFFFFFFFFFFFFFFFFFFFFFFFFFFFFFFFFFFFFFF NOT AND DUP3 PUSH28 0xFFFFFFFFFFFFFFFFFFFFFFFFFFFFFFFFFFFFFFFFFFFFFFFFFFFFFFFF NOT AND EQ SWAP1 POP SWAP2 SWAP1 POP JUMP JUMPDEST PUSH0 CALLER SWAP1 POP SWAP1 JUMP JUMPDEST PUSH2 0x142E DUP4 DUP4 DUP4 PUSH1 0x1 PUSH2 0x18DF JUMP JUMPDEST POP POP POP JUMP JUMPDEST PUSH0 PUSH2 0x143E DUP5 DUP5 PUSH2 0x11BC JUMP JUMPDEST SWAP1 POP PUSH32 0xFFFFFFFFFFFFFFFFFFFFFFFFFFFFFFFFFFFFFFFFFFFFFFFFFFFFFFFFFFFFFFFF DUP2 EQ PUSH2 0x14BF JUMPI DUP2 DUP2 LT ISZERO PUSH2 0x14B0 JUMPI DUP3 DUP2 DUP4 PUSH1 0x40 MLOAD PUSH32 0xFB8F41B200000000000000000000000000000000000000000000000000000000 DUP2 MSTORE PUSH1 0x4 ADD PUSH2 0x14A7 SWAP4 SWAP3 SWAP2 SWAP1 PUSH2 0x2968 JUMP JUMPDEST PUSH1 0x40 MLOAD DUP1 SWAP2 SUB SWAP1 REVERT JUMPDEST PUSH2 0x14BE DUP5 DUP5 DUP5 DUP5 SUB PUSH0 PUSH2 0x18DF JUMP JUMPDEST JUMPDEST POP POP POP POP JUMP JUMPDEST PUSH0 PUSH20 0xFFFFFFFFFFFFFFFFFFFFFFFFFFFFFFFFFFFFFFFF AND DUP4 PUSH20 0xFFFFFFFFFFFFFFFFFFFFFFFFFFFFFFFFFFFFFFFF AND SUB PUSH2 0x1535 JUMPI PUSH0 PUSH1 0x40 MLOAD PUSH32 0x96C6FD1E00000000000000000000000000000000000000000000000000000000 DUP2 MSTORE PUSH1 0x4 ADD PUSH2 0x152C SWAP2 SWAP1 PUSH2 0x242B JUMP JUMPDEST PUSH1 0x40 MLOAD DUP1 SWAP2 SUB SWAP1 REVERT JUMPDEST PUSH0 PUSH20 0xFFFFFFFFFFFFFFFFFFFFFFFFFFFFFFFFFFFFFFFF AND DUP3 PUSH20 0xFFFFFFFFFFFFFFFFFFFFFFFFFFFFFFFFFFFFFFFF AND SUB PUSH2 0x15A5 JUMPI PUSH0 PUSH1 0x40 MLOAD PUSH32 0xEC442F0500000000000000000000000000000000000000000000000000000000 DUP2 MSTORE PUSH1 0x4 ADD PUSH2 0x159C SWAP2 SWAP1 PUSH2 0x242B JUMP JUMPDEST PUSH1 0x40 MLOAD DUP1 SWAP2 SUB SWAP1 REVERT JUMPDEST PUSH2 0x15B0 DUP4 DUP4 DUP4 PUSH2 0x1AAE JUMP JUMPDEST POP POP POP JUMP JUMPDEST PUSH2 0x15C6 DUP2 PUSH2 0x15C1 PUSH2 0x141A JUMP JUMPDEST PUSH2 0x1ABE JUMP JUMPDEST POP JUMP JUMPDEST PUSH0 PUSH2 0x15D4 DUP4 DUP4 PUSH2 0xC6B JUMP JUMPDEST PUSH2 0x16A9 JUMPI PUSH1 0x1 PUSH1 0x6 PUSH0 DUP6 DUP2 MSTORE PUSH1 0x20 ADD SWAP1 DUP2 MSTORE PUSH1 0x20 ADD PUSH0 KECCAK256 PUSH0 ADD PUSH0 DUP5 PUSH20 0xFFFFFFFFFFFFFFFFFFFFFFFFFFFFFFFFFFFFFFFF AND PUSH20 0xFFFFFFFFFFFFFFFFFFFFFFFFFFFFFFFFFFFFFFFF AND DUP2 MSTORE PUSH1 0x20 ADD SWAP1 DUP2 MSTORE PUSH1 0x20 ADD PUSH0 KECCAK256 PUSH0 PUSH2 0x100 EXP DUP2 SLOAD DUP2 PUSH1 0xFF MUL NOT AND SWAP1 DUP4 ISZERO ISZERO MUL OR SWAP1 SSTORE POP PUSH2 0x1646 PUSH2 0x141A JUMP JUMPDEST PUSH20 0xFFFFFFFFFFFFFFFFFFFFFFFFFFFFFFFFFFFFFFFF AND DUP3 PUSH20 0xFFFFFFFFFFFFFFFFFFFFFFFFFFFFFFFFFFFFFFFF AND DUP5 PUSH32 0x2F8788117E7EFF1D82E926EC794901D17C78024A50270940304540A733656F0D PUSH1 0x40 MLOAD PUSH1 0x40 MLOAD DUP1 SWAP2 SUB SWAP1 LOG4 PUSH1 0x1 SWAP1 POP PUSH2 0x16AD JUMP JUMPDEST PUSH0 SWAP1 POP JUMPDEST SWAP3 SWAP2 POP POP JUMP JUMPDEST PUSH0 PUSH2 0x16BE DUP4 DUP4 PUSH2 0xC6B JUMP JUMPDEST ISZERO PUSH2 0x1793 JUMPI PUSH0 PUSH1 0x6 PUSH0 DUP6 DUP2 MSTORE PUSH1 0x20 ADD SWAP1 DUP2 MSTORE PUSH1 0x20 ADD PUSH0 KECCAK256 PUSH0 ADD PUSH0 DUP5 PUSH20 0xFFFFFFFFFFFFFFFFFFFFFFFFFFFFFFFFFFFFFFFF AND PUSH20 0xFFFFFFFFFFFFFFFFFFFFFFFFFFFFFFFFFFFFFFFF AND DUP2 MSTORE PUSH1 0x20 ADD SWAP1 DUP2 MSTORE PUSH1 0x20 ADD PUSH0 KECCAK256 PUSH0 PUSH2 0x100 EXP DUP2 SLOAD DUP2 PUSH1 0xFF MUL NOT AND SWAP1 DUP4 ISZERO ISZERO MUL OR SWAP1 SSTORE POP PUSH2 0x1730 PUSH2 0x141A JUMP JUMPDEST PUSH20 0xFFFFFFFFFFFFFFFFFFFFFFFFFFFFFFFFFFFFFFFF AND DUP3 PUSH20 0xFFFFFFFFFFFFFFFFFFFFFFFFFFFFFFFFFFFFFFFF AND DUP5 PUSH32 0xF6391F5C32D9C69D2A47EA670B442974B53935D1EDC7FD64EB21E047A839171B PUSH1 0x40 MLOAD PUSH1 0x40 MLOAD DUP1 SWAP2 SUB SWAP1 LOG4 PUSH1 0x1 SWAP1 POP PUSH2 0x1797 JUMP JUMPDEST PUSH0 SWAP1 POP JUMPDEST SWAP3 SWAP2 POP POP JUMP JUMPDEST PUSH2 0x17A5 PUSH2 0x1B0F JUMP JUMPDEST PUSH0 PUSH1 0x5 PUSH0 PUSH2 0x100 EXP DUP2 SLOAD DUP2 PUSH1 0xFF MUL NOT AND SWAP1 DUP4 ISZERO ISZERO MUL OR SWAP1 SSTORE POP PUSH32 0x5DB9EE0A495BF2E6FF9C91A7834C1BA4FDD244A5E8AA4E537BD38AEAE4B073AA PUSH2 0x17E7 PUSH2 0x141A JUMP JUMPDEST PUSH1 0x40 MLOAD PUSH2 0x17F4 SWAP2 SWAP1 PUSH2 0x242B JUMP JUMPDEST PUSH1 0x40 MLOAD DUP1 SWAP2 SUB SWAP1 LOG1 JUMP JUMPDEST PUSH0 PUSH20 0xFFFFFFFFFFFFFFFFFFFFFFFFFFFFFFFFFFFFFFFF AND DUP3 PUSH20 0xFFFFFFFFFFFFFFFFFFFFFFFFFFFFFFFFFFFFFFFF AND SUB PUSH2 0x186E JUMPI PUSH0 PUSH1 0x40 MLOAD PUSH32 0x96C6FD1E00000000000000000000000000000000000000000000000000000000 DUP2 MSTORE PUSH1 0x4 ADD PUSH2 0x1865 SWAP2 SWAP1 PUSH2 0x242B JUMP JUMPDEST PUSH1 0x40 MLOAD DUP1 SWAP2 SUB SWAP1 REVERT JUMPDEST PUSH2 0x1879 DUP3 PUSH0 DUP4 PUSH2 0x1AAE JUMP JUMPDEST POP POP JUMP JUMPDEST PUSH2 0x1885 PUSH2 0x1B4F JUMP JUMPDEST PUSH1 0x1 PUSH1 0x5 PUSH0 PUSH2 0x100 EXP DUP2 SLOAD DUP2 PUSH1 0xFF MUL NOT AND SWAP1 DUP4 ISZERO ISZERO MUL OR SWAP1 SSTORE POP PUSH32 0x62E78CEA01BEE320CD4E420270B5EA74000D11B0C9F74754EBDBFC544B05A258 PUSH2 0x18C8 PUSH2 0x141A JUMP JUMPDEST PUSH1 0x40 MLOAD PUSH2 0x18D5 SWAP2 SWAP1 PUSH2 0x242B JUMP JUMPDEST PUSH1 0x40 MLOAD DUP1 SWAP2 SUB SWAP1 LOG1 JUMP JUMPDEST PUSH0 PUSH20 0xFFFFFFFFFFFFFFFFFFFFFFFFFFFFFFFFFFFFFFFF AND DUP5 PUSH20 0xFFFFFFFFFFFFFFFFFFFFFFFFFFFFFFFFFFFFFFFF AND SUB PUSH2 0x194F JUMPI PUSH0 PUSH1 0x40 MLOAD PUSH32 0xE602DF0500000000000000000000000000000000000000000000000000000000 DUP2 MSTORE PUSH1 0x4 ADD PUSH2 0x1946 SWAP2 SWAP1 PUSH2 0x242B JUMP JUMPDEST PUSH1 0x40 MLOAD DUP1 SWAP2 SUB SWAP1 REVERT JUMPDEST PUSH0 PUSH20 0xFFFFFFFFFFFFFFFFFFFFFFFFFFFFFFFFFFFFFFFF AND DUP4 PUSH20 0xFFFFFFFFFFFFFFFFFFFFFFFFFFFFFFFFFFFFFFFF AND SUB PUSH2 0x19BF JUMPI PUSH0 PUSH1 0x40 MLOAD PUSH32 0x94280D6200000000000000000000000000000000000000000000000000000000 DUP2 MSTORE PUSH1 0x4 ADD PUSH2 0x19B6 SWAP2 SWAP1 PUSH2 0x242B JUMP JUMPDEST PUSH1 0x40 MLOAD DUP1 SWAP2 SUB SWAP1 REVERT JUMPDEST DUP2 PUSH1 0x1 PUSH0 DUP7 PUSH20 0xFFFFFFFFFFFFFFFFFFFFFFFFFFFFFFFFFFFFFFFF AND PUSH20 0xFFFFFFFFFFFFFFFFFFFFFFFFFFFFFFFFFFFFFFFF AND DUP2 MSTORE PUSH1 0x20 ADD SWAP1 DUP2 MSTORE PUSH1 0x20 ADD PUSH0 KECCAK256 PUSH0 DUP6 PUSH20 0xFFFFFFFFFFFFFFFFFFFFFFFFFFFFFFFFFFFFFFFF AND PUSH20 0xFFFFFFFFFFFFFFFFFFFFFFFFFFFFFFFFFFFFFFFF AND DUP2 MSTORE PUSH1 0x20 ADD SWAP1 DUP2 MSTORE PUSH1 0x20 ADD PUSH0 KECCAK256 DUP2 SWAP1 SSTORE POP DUP1 ISZERO PUSH2 0x1AA8 JUMPI DUP3 PUSH20 0xFFFFFFFFFFFFFFFFFFFFFFFFFFFFFFFFFFFFFFFF AND DUP5 PUSH20 0xFFFFFFFFFFFFFFFFFFFFFFFFFFFFFFFFFFFFFFFF AND PUSH32 0x8C5BE1E5EBEC7D5BD14F71427D1E84F3DD0314C0F7B2291E5B200AC8C7C3B925 DUP5 PUSH1 0x40 MLOAD PUSH2 0x1A9F SWAP2 SWAP1 PUSH2 0x201A JUMP JUMPDEST PUSH1 0x40 MLOAD DUP1 SWAP2 SUB SWAP1 LOG3 JUMPDEST POP POP POP POP JUMP JUMPDEST PUSH2 0x1AB9 DUP4 DUP4 DUP4 PUSH2 0x1B90 JUMP JUMPDEST POP POP POP JUMP JUMPDEST PUSH2 0x1AC8 DUP3 DUP3 PUSH2 0xC6B JUMP JUMPDEST PUSH2 0x1B0B JUMPI DUP1 DUP3 PUSH1 0x40 MLOAD PUSH32 0xE2517D3F00000000000000000000000000000000000000000000000000000000 DUP2 MSTORE PUSH1 0x4 ADD PUSH2 0x1B02 SWAP3 SWAP2 SWAP1 PUSH2 0x299D JUMP JUMPDEST PUSH1 0x40 MLOAD DUP1 SWAP2 SUB SWAP1 REVERT JUMPDEST POP POP JUMP JUMPDEST PUSH2 0x1B17 PUSH2 0xA20 JUMP JUMPDEST PUSH2 0x1B4D JUMPI PUSH1 0x40 MLOAD PUSH32 0x8DFC202B00000000000000000000000000000000000000000000000000000000 DUP2 MSTORE PUSH1 0x4 ADD PUSH1 0x40 MLOAD DUP1 SWAP2 SUB SWAP1 REVERT JUMPDEST JUMP JUMPDEST PUSH2 0x1B57 PUSH2 0xA20 JUMP JUMPDEST ISZERO PUSH2 0x1B8E JUMPI PUSH1 0x40 MLOAD PUSH32 0xD93C066500000000000000000000000000000000000000000000000000000000 DUP2 MSTORE PUSH1 0x4 ADD PUSH1 0x40 MLOAD DUP1 SWAP2 SUB SWAP1 REVERT JUMPDEST JUMP JUMPDEST PUSH2 0x1B98 PUSH2 0x1B4F JUMP JUMPDEST PUSH2 0x1BA3 DUP4 DUP4 DUP4 PUSH2 0x1BA8 JUMP JUMPDEST POP POP POP JUMP JUMPDEST PUSH0 PUSH20 0xFFFFFFFFFFFFFFFFFFFFFFFFFFFFFFFFFFFFFFFF AND DUP4 PUSH20 0xFFFFFFFFFFFFFFFFFFFFFFFFFFFFFFFFFFFFFFFF AND SUB PUSH2 0x1BF8 JUMPI DUP1 PUSH1 0x2 PUSH0 DUP3 DUP3 SLOAD PUSH2 0x1BEC SWAP2 SWAP1 PUSH2 0x29C4 JUMP JUMPDEST SWAP3 POP POP DUP2 SWAP1 SSTORE POP PUSH2 0x1CC6 JUMP JUMPDEST PUSH0 DUP1 PUSH0 DUP6 PUSH20 0xFFFFFFFFFFFFFFFFFFFFFFFFFFFFFFFFFFFFFFFF AND PUSH20 0xFFFFFFFFFFFFFFFFFFFFFFFFFFFFFFFFFFFFFFFF AND DUP2 MSTORE PUSH1 0x20 ADD SWAP1 DUP2 MSTORE PUSH1 0x20 ADD PUSH0 KECCAK256 SLOAD SWAP1 POP DUP2 DUP2 LT ISZERO PUSH2 0x1C81 JUMPI DUP4 DUP2 DUP4 PUSH1 0x40 MLOAD PUSH32 0xE450D38C00000000000000000000000000000000000000000000000000000000 DUP2 MSTORE PUSH1 0x4 ADD PUSH2 0x1C78 SWAP4 SWAP3 SWAP2 SWAP1 PUSH2 0x2968 JUMP JUMPDEST PUSH1 0x40 MLOAD DUP1 SWAP2 SUB SWAP1 REVERT JUMPDEST DUP2 DUP2 SUB PUSH0 DUP1 DUP7 PUSH20 0xFFFFFFFFFFFFFFFFFFFFFFFFFFFFFFFFFFFFFFFF AND PUSH20 0xFFFFFFFFFFFFFFFFFFFFFFFFFFFFFFFFFFFFFFFF AND DUP2 MSTORE PUSH1 0x20 ADD SWAP1 DUP2 MSTORE PUSH1 0x20 ADD PUSH0 KECCAK256 DUP2 SWAP1 SSTORE POP POP JUMPDEST PUSH0 PUSH20 0xFFFFFFFFFFFFFFFFFFFFFFFFFFFFFFFFFFFFFFFF AND DUP3 PUSH20 0xFFFFFFFFFFFFFFFFFFFFFFFFFFFFFFFFFFFFFFFF AND SUB PUSH2 0x1D0D JUMPI DUP1 PUSH1 0x2 PUSH0 DUP3 DUP3 SLOAD SUB SWAP3 POP POP DUP2 SWAP1 SSTORE POP PUSH2 0x1D57 JUMP JUMPDEST DUP1 PUSH0 DUP1 DUP5 PUSH20 0xFFFFFFFFFFFFFFFFFFFFFFFFFFFFFFFFFFFFFFFF AND PUSH20 0xFFFFFFFFFFFFFFFFFFFFFFFFFFFFFFFFFFFFFFFF AND DUP2 MSTORE PUSH1 0x20 ADD SWAP1 DUP2 MSTORE PUSH1 0x20 ADD PUSH0 KECCAK256 PUSH0 DUP3 DUP3 SLOAD ADD SWAP3 POP POP DUP2 SWAP1 SSTORE POP JUMPDEST DUP2 PUSH20 0xFFFFFFFFFFFFFFFFFFFFFFFFFFFFFFFFFFFFFFFF AND DUP4 PUSH20 0xFFFFFFFFFFFFFFFFFFFFFFFFFFFFFFFFFFFFFFFF AND PUSH32 0xDDF252AD1BE2C89B69C2B068FC378DAA952BA7F163C4A11628F55A4DF523B3EF DUP4 PUSH1 0x40 MLOAD PUSH2 0x1DB4 SWAP2 SWAP1 PUSH2 0x201A JUMP JUMPDEST PUSH1 0x40 MLOAD DUP1 SWAP2 SUB SWAP1 LOG3 POP POP POP JUMP JUMPDEST PUSH0 PUSH1 0x40 MLOAD SWAP1 POP SWAP1 JUMP JUMPDEST PUSH0 DUP1 REVERT JUMPDEST PUSH0 DUP1 REVERT JUMPDEST PUSH0 PUSH32 0xFFFFFFFF00000000000000000000000000000000000000000000000000000000 DUP3 AND SWAP1 POP SWAP2 SWAP1 POP JUMP JUMPDEST PUSH2 0x1E06 DUP2 PUSH2 0x1DD2 JUMP JUMPDEST DUP2 EQ PUSH2 0x1E10 JUMPI PUSH0 DUP1 REVERT JUMPDEST POP JUMP JUMPDEST PUSH0 DUP2 CALLDATALOAD SWAP1 POP PUSH2 0x1E21 DUP2 PUSH2 0x1DFD JUMP JUMPDEST SWAP3 SWAP2 POP POP JUMP JUMPDEST PUSH0 PUSH1 0x20 DUP3 DUP5 SUB SLT ISZERO PUSH2 0x1E3C JUMPI PUSH2 0x1E3B PUSH2 0x1DCA JUMP JUMPDEST JUMPDEST PUSH0 PUSH2 0x1E49 DUP5 DUP3 DUP6 ADD PUSH2 0x1E13 JUMP JUMPDEST SWAP2 POP POP SWAP3 SWAP2 POP POP JUMP JUMPDEST PUSH0 DUP2 ISZERO ISZERO SWAP1 POP SWAP2 SWAP1 POP JUMP JUMPDEST PUSH2 0x1E66 DUP2 PUSH2 0x1E52 JUMP JUMPDEST DUP3 MSTORE POP POP JUMP JUMPDEST PUSH0 PUSH1 0x20 DUP3 ADD SWAP1 POP PUSH2 0x1E7F PUSH0 DUP4 ADD DUP5 PUSH2 0x1E5D JUMP JUMPDEST SWAP3 SWAP2 POP POP JUMP JUMPDEST PUSH0 DUP2 MLOAD SWAP1 POP SWAP2 SWAP1 POP JUMP JUMPDEST PUSH0 DUP3 DUP3 MSTORE PUSH1 0x20 DUP3 ADD SWAP1 POP SWAP3 SWAP2 POP POP JUMP JUMPDEST DUP3 DUP2 DUP4 MCOPY PUSH0 DUP4 DUP4 ADD MSTORE POP POP POP JUMP JUMPDEST PUSH0 PUSH1 0x1F NOT PUSH1 0x1F DUP4 ADD AND SWAP1 POP SWAP2 SWAP1 POP JUMP JUMPDEST PUSH0 PUSH2 0x1EC7 DUP3 PUSH2 0x1E85 JUMP JUMPDEST PUSH2 0x1ED1 DUP2 DUP6 PUSH2 0x1E8F JUMP JUMPDEST SWAP4 POP PUSH2 0x1EE1 DUP2 DUP6 PUSH1 0x20 DUP7 ADD PUSH2 0x1E9F JUMP JUMPDEST PUSH2 0x1EEA DUP2 PUSH2 0x1EAD JUMP JUMPDEST DUP5 ADD SWAP2 POP POP SWAP3 SWAP2 POP POP JUMP JUMPDEST PUSH0 PUSH1 0x20 DUP3 ADD SWAP1 POP DUP2 DUP2 SUB PUSH0 DUP4 ADD MSTORE PUSH2 0x1F0D DUP2 DUP5 PUSH2 0x1EBD JUMP JUMPDEST SWAP1 POP SWAP3 SWAP2 POP POP JUMP JUMPDEST PUSH0 PUSH20 0xFFFFFFFFFFFFFFFFFFFFFFFFFFFFFFFFFFFFFFFF DUP3 AND SWAP1 POP SWAP2 SWAP1 POP JUMP JUMPDEST PUSH0 PUSH2 0x1F3E DUP3 PUSH2 0x1F15 JUMP JUMPDEST SWAP1 POP SWAP2 SWAP1 POP JUMP JUMPDEST PUSH2 0x1F4E DUP2 PUSH2 0x1F34 JUMP JUMPDEST DUP2 EQ PUSH2 0x1F58 JUMPI PUSH0 DUP1 REVERT JUMPDEST POP JUMP JUMPDEST PUSH0 DUP2 CALLDATALOAD SWAP1 POP PUSH2 0x1F69 DUP2 PUSH2 0x1F45 JUMP JUMPDEST SWAP3 SWAP2 POP POP JUMP JUMPDEST PUSH0 DUP2 SWAP1 POP SWAP2 SWAP1 POP JUMP JUMPDEST PUSH2 0x1F81 DUP2 PUSH2 0x1F6F JUMP JUMPDEST DUP2 EQ PUSH2 0x1F8B JUMPI PUSH0 DUP1 REVERT JUMPDEST POP JUMP JUMPDEST PUSH0 DUP2 CALLDATALOAD SWAP1 POP PUSH2 0x1F9C DUP2 PUSH2 0x1F78 JUMP JUMPDEST SWAP3 SWAP2 POP POP JUMP JUMPDEST PUSH0 DUP1 PUSH1 0x40 DUP4 DUP6 SUB SLT ISZERO PUSH2 0x1FB8 JUMPI PUSH2 0x1FB7 PUSH2 0x1DCA JUMP JUMPDEST JUMPDEST PUSH0 PUSH2 0x1FC5 DUP6 DUP3 DUP7 ADD PUSH2 0x1F5B JUMP JUMPDEST SWAP3 POP POP PUSH1 0x20 PUSH2 0x1FD6 DUP6 DUP3 DUP7 ADD PUSH2 0x1F8E JUMP JUMPDEST SWAP2 POP POP SWAP3 POP SWAP3 SWAP1 POP JUMP JUMPDEST PUSH0 PUSH1 0x20 DUP3 DUP5 SUB SLT ISZERO PUSH2 0x1FF5 JUMPI PUSH2 0x1FF4 PUSH2 0x1DCA JUMP JUMPDEST JUMPDEST PUSH0 PUSH2 0x2002 DUP5 DUP3 DUP6 ADD PUSH2 0x1F8E JUMP JUMPDEST SWAP2 POP POP SWAP3 SWAP2 POP POP JUMP JUMPDEST PUSH2 0x2014 DUP2 PUSH2 0x1F6F JUMP JUMPDEST DUP3 MSTORE POP POP JUMP JUMPDEST PUSH0 PUSH1 0x20 DUP3 ADD SWAP1 POP PUSH2 0x202D PUSH0 DUP4 ADD DUP5 PUSH2 0x200B JUMP JUMPDEST SWAP3 SWAP2 POP POP JUMP JUMPDEST PUSH0 DUP1 PUSH0 PUSH1 0x60 DUP5 DUP7 SUB SLT ISZERO PUSH2 0x204A JUMPI PUSH2 0x2049 PUSH2 0x1DCA JUMP JUMPDEST JUMPDEST PUSH0 PUSH2 0x2057 DUP7 DUP3 DUP8 ADD PUSH2 0x1F5B JUMP JUMPDEST SWAP4 POP POP PUSH1 0x20 PUSH2 0x2068 DUP7 DUP3 DUP8 ADD PUSH2 0x1F5B JUMP JUMPDEST SWAP3 POP POP PUSH1 0x40 PUSH2 0x2079 DUP7 DUP3 DUP8 ADD PUSH2 0x1F8E JUMP JUMPDEST SWAP2 POP POP SWAP3 POP SWAP3 POP SWAP3 JUMP JUMPDEST PUSH0 DUP2 SWAP1 POP SWAP2 SWAP1 POP JUMP JUMPDEST PUSH2 0x2095 DUP2 PUSH2 0x2083 JUMP JUMPDEST DUP2 EQ PUSH2 0x209F JUMPI PUSH0 DUP1 REVERT JUMPDEST POP JUMP JUMPDEST PUSH0 DUP2 CALLDATALOAD SWAP1 POP PUSH2 0x20B0 DUP2 PUSH2 0x208C JUMP JUMPDEST SWAP3 SWAP2 POP POP JUMP JUMPDEST PUSH0 PUSH1 0x20 DUP3 DUP5 SUB SLT ISZERO PUSH2 0x20CB JUMPI PUSH2 0x20CA PUSH2 0x1DCA JUMP JUMPDEST JUMPDEST PUSH0 PUSH2 0x20D8 DUP5 DUP3 DUP6 ADD PUSH2 0x20A2 JUMP JUMPDEST SWAP2 POP POP SWAP3 SWAP2 POP POP JUMP JUMPDEST PUSH2 0x20EA DUP2 PUSH2 0x2083 JUMP JUMPDEST DUP3 MSTORE POP POP JUMP JUMPDEST PUSH0 PUSH1 0x20 DUP3 ADD SWAP1 POP PUSH2 0x2103 PUSH0 DUP4 ADD DUP5 PUSH2 0x20E1 JUMP JUMPDEST SWAP3 SWAP2 POP POP JUMP JUMPDEST PUSH0 DUP1 PUSH1 0x40 DUP4 DUP6 SUB SLT ISZERO PUSH2 0x211F JUMPI PUSH2 0x211E PUSH2 0x1DCA JUMP JUMPDEST JUMPDEST PUSH0 PUSH2 0x212C DUP6 DUP3 DUP7 ADD PUSH2 0x20A2 JUMP JUMPDEST SWAP3 POP POP PUSH1 0x20 PUSH2 0x213D DUP6 DUP3 DUP7 ADD PUSH2 0x1F5B JUMP JUMPDEST SWAP2 POP POP SWAP3 POP SWAP3 SWAP1 POP JUMP JUMPDEST PUSH0 PUSH1 0xFF DUP3 AND SWAP1 POP SWAP2 SWAP1 POP JUMP JUMPDEST PUSH2 0x215C DUP2 PUSH2 0x2147 JUMP JUMPDEST DUP3 MSTORE POP POP JUMP JUMPDEST PUSH0 PUSH1 0x20 DUP3 ADD SWAP1 POP PUSH2 0x2175 PUSH0 DUP4 ADD DUP5 PUSH2 0x2153 JUMP JUMPDEST SWAP3 SWAP2 POP POP JUMP JUMPDEST PUSH0 PUSH1 0x20 DUP3 DUP5 SUB SLT ISZERO PUSH2 0x2190 JUMPI PUSH2 0x218F PUSH2 0x1DCA JUMP JUMPDEST JUMPDEST PUSH0 PUSH2 0x219D DUP5 DUP3 DUP6 ADD PUSH2 0x1F5B JUMP JUMPDEST SWAP2 POP POP SWAP3 SWAP2 POP POP JUMP JUMPDEST PUSH0 DUP1 REVERT JUMPDEST PUSH32 0x4E487B7100000000000000000000000000000000000000000000000000000000 PUSH0 MSTORE PUSH1 0x41 PUSH1 0x4 MSTORE PUSH1 0x24 PUSH0 REVERT JUMPDEST PUSH2 0x21E0 DUP3 PUSH2 0x1EAD JUMP JUMPDEST DUP2 ADD DUP2 DUP2 LT PUSH8 0xFFFFFFFFFFFFFFFF DUP3 GT OR ISZERO PUSH2 0x21FF JUMPI PUSH2 0x21FE PUSH2 0x21AA JUMP JUMPDEST JUMPDEST DUP1 PUSH1 0x40 MSTORE POP POP POP JUMP JUMPDEST PUSH0 PUSH2 0x2211 PUSH2 0x1DC1 JUMP JUMPDEST SWAP1 POP PUSH2 0x221D DUP3 DUP3 PUSH2 0x21D7 JUMP JUMPDEST SWAP2 SWAP1 POP JUMP JUMPDEST PUSH0 PUSH8 0xFFFFFFFFFFFFFFFF DUP3 GT ISZERO PUSH2 0x223C JUMPI PUSH2 0x223B PUSH2 0x21AA JUMP JUMPDEST JUMPDEST PUSH1 0x20 DUP3 MUL SWAP1 POP PUSH1 0x20 DUP2 ADD SWAP1 POP SWAP2 SWAP1 POP JUMP JUMPDEST PUSH0 DUP1 REVERT JUMPDEST PUSH0 PUSH2 0x2263 PUSH2 0x225E DUP5 PUSH2 0x2222 JUMP JUMPDEST PUSH2 0x2208 JUMP JUMPDEST SWAP1 POP DUP1 DUP4 DUP3 MSTORE PUSH1 0x20 DUP3 ADD SWAP1 POP PUSH1 0x20 DUP5 MUL DUP4 ADD DUP6 DUP2 GT ISZERO PUSH2 0x2286 JUMPI PUSH2 0x2285 PUSH2 0x224D JUMP JUMPDEST JUMPDEST DUP4 JUMPDEST DUP2 DUP2 LT ISZERO PUSH2 0x22AF JUMPI DUP1 PUSH2 0x229B DUP9 DUP3 PUSH2 0x1F5B JUMP JUMPDEST DUP5 MSTORE PUSH1 0x20 DUP5 ADD SWAP4 POP POP PUSH1 0x20 DUP2 ADD SWAP1 POP PUSH2 0x2288 JUMP JUMPDEST POP POP POP SWAP4 SWAP3 POP POP POP JUMP JUMPDEST PUSH0 DUP3 PUSH1 0x1F DUP4 ADD SLT PUSH2 0x22CD JUMPI PUSH2 0x22CC PUSH2 0x21A6 JUMP JUMPDEST JUMPDEST DUP2 CALLDATALOAD PUSH2 0x22DD DUP5 DUP3 PUSH1 0x20 DUP7 ADD PUSH2 0x2251 JUMP JUMPDEST SWAP2 POP POP SWAP3 SWAP2 POP POP JUMP JUMPDEST PUSH0 PUSH8 0xFFFFFFFFFFFFFFFF DUP3 GT ISZERO PUSH2 0x2300 JUMPI PUSH2 0x22FF PUSH2 0x21AA JUMP JUMPDEST JUMPDEST PUSH1 0x20 DUP3 MUL SWAP1 POP PUSH1 0x20 DUP2 ADD SWAP1 POP SWAP2 SWAP1 POP JUMP JUMPDEST PUSH0 PUSH2 0x2323 PUSH2 0x231E DUP5 PUSH2 0x22E6 JUMP JUMPDEST PUSH2 0x2208 JUMP JUMPDEST SWAP1 POP DUP1 DUP4 DUP3 MSTORE PUSH1 0x20 DUP3 ADD SWAP1 POP PUSH1 0x20 DUP5 MUL DUP4 ADD DUP6 DUP2 GT ISZERO PUSH2 0x2346 JUMPI PUSH2 0x2345 PUSH2 0x224D JUMP JUMPDEST JUMPDEST DUP4 JUMPDEST DUP2 DUP2 LT ISZERO PUSH2 0x236F JUMPI DUP1 PUSH2 0x235B DUP9 DUP3 PUSH2 0x1F8E JUMP JUMPDEST DUP5 MSTORE PUSH1 0x20 DUP5 ADD SWAP4 POP POP PUSH1 0x20 DUP2 ADD SWAP1 POP PUSH2 0x2348 JUMP JUMPDEST POP POP POP SWAP4 SWAP3 POP POP POP JUMP JUMPDEST PUSH0 DUP3 PUSH1 0x1F DUP4 ADD SLT PUSH2 0x238D JUMPI PUSH2 0x238C PUSH2 0x21A6 JUMP JUMPDEST JUMPDEST DUP2 CALLDATALOAD PUSH2 0x239D DUP5 DUP3 PUSH1 0x20 DUP7 ADD PUSH2 0x2311 JUMP JUMPDEST SWAP2 POP POP SWAP3 SWAP2 POP POP JUMP JUMPDEST PUSH0 DUP1 PUSH1 0x40 DUP4 DUP6 SUB SLT ISZERO PUSH2 0x23BC JUMPI PUSH2 0x23BB PUSH2 0x1DCA JUMP JUMPDEST JUMPDEST PUSH0 DUP4 ADD CALLDATALOAD PUSH8 0xFFFFFFFFFFFFFFFF DUP2 GT ISZERO PUSH2 0x23D9 JUMPI PUSH2 0x23D8 PUSH2 0x1DCE JUMP JUMPDEST JUMPDEST PUSH2 0x23E5 DUP6 DUP3 DUP7 ADD PUSH2 0x22B9 JUMP JUMPDEST SWAP3 POP POP PUSH1 0x20 DUP4 ADD CALLDATALOAD PUSH8 0xFFFFFFFFFFFFFFFF DUP2 GT ISZERO PUSH2 0x2406 JUMPI PUSH2 0x2405 PUSH2 0x1DCE JUMP JUMPDEST JUMPDEST PUSH2 0x2412 DUP6 DUP3 DUP7 ADD PUSH2 0x2379 JUMP JUMPDEST SWAP2 POP POP SWAP3 POP SWAP3 SWAP1 POP JUMP JUMPDEST PUSH2 0x2425 DUP2 PUSH2 0x1F34 JUMP JUMPDEST DUP3 MSTORE POP POP JUMP JUMPDEST PUSH0 PUSH1 0x20 DUP3 ADD SWAP1 POP PUSH2 0x243E PUSH0 DUP4 ADD DUP5 PUSH2 0x241C JUMP JUMPDEST SWAP3 SWAP2 POP POP JUMP JUMPDEST PUSH0 DUP1 PUSH1 0x40 DUP4 DUP6 SUB SLT ISZERO PUSH2 0x245A JUMPI PUSH2 0x2459 PUSH2 0x1DCA JUMP JUMPDEST JUMPDEST PUSH0 PUSH2 0x2467 DUP6 DUP3 DUP7 ADD PUSH2 0x1F5B JUMP JUMPDEST SWAP3 POP POP PUSH1 0x20 PUSH2 0x2478 DUP6 DUP3 DUP7 ADD PUSH2 0x1F5B JUMP JUMPDEST SWAP2 POP POP SWAP3 POP SWAP3 SWAP1 POP JUMP JUMPDEST PUSH32 0x4E487B7100000000000000000000000000000000000000000000000000000000 PUSH0 MSTORE PUSH1 0x22 PUSH1 0x4 MSTORE PUSH1 0x24 PUSH0 REVERT JUMPDEST PUSH0 PUSH1 0x2 DUP3 DIV SWAP1 POP PUSH1 0x1 DUP3 AND DUP1 PUSH2 0x24C6 JUMPI PUSH1 0x7F DUP3 AND SWAP2 POP JUMPDEST PUSH1 0x20 DUP3 LT DUP2 SUB PUSH2 0x24D9 JUMPI PUSH2 0x24D8 PUSH2 0x2482 JUMP JUMPDEST JUMPDEST POP SWAP2 SWAP1 POP JUMP JUMPDEST PUSH32 0x4E487B7100000000000000000000000000000000000000000000000000000000 PUSH0 MSTORE PUSH1 0x11 PUSH1 0x4 MSTORE PUSH1 0x24 PUSH0 REVERT JUMPDEST PUSH0 PUSH2 0x2516 DUP3 PUSH2 0x1F6F JUMP JUMPDEST SWAP2 POP PUSH2 0x2521 DUP4 PUSH2 0x1F6F JUMP JUMPDEST SWAP3 POP DUP3 DUP3 MUL PUSH2 0x252F DUP2 PUSH2 0x1F6F JUMP JUMPDEST SWAP2 POP DUP3 DUP3 DIV DUP5 EQ DUP4 ISZERO OR PUSH2 0x2546 JUMPI PUSH2 0x2545 PUSH2 0x24DF JUMP JUMPDEST JUMPDEST POP SWAP3 SWAP2 POP POP JUMP JUMPDEST PUSH0 PUSH1 0x60 DUP3 ADD SWAP1 POP PUSH2 0x2560 PUSH0 DUP4 ADD DUP7 PUSH2 0x241C JUMP JUMPDEST PUSH2 0x256D PUSH1 0x20 DUP4 ADD DUP6 PUSH2 0x241C JUMP JUMPDEST PUSH2 0x257A PUSH1 0x40 DUP4 ADD DUP5 PUSH2 0x200B JUMP JUMPDEST SWAP5 SWAP4 POP POP POP POP JUMP JUMPDEST PUSH2 0x258B DUP2 PUSH2 0x1E52 JUMP JUMPDEST DUP2 EQ PUSH2 0x2595 JUMPI PUSH0 DUP1 REVERT JUMPDEST POP JUMP JUMPDEST PUSH0 DUP2 MLOAD SWAP1 POP PUSH2 0x25A6 DUP2 PUSH2 0x2582 JUMP JUMPDEST SWAP3 SWAP2 POP POP JUMP JUMPDEST PUSH0 PUSH1 0x20 DUP3 DUP5 SUB SLT ISZERO PUSH2 0x25C1 JUMPI PUSH2 0x25C0 PUSH2 0x1DCA JUMP JUMPDEST JUMPDEST PUSH0 PUSH2 0x25CE DUP5 DUP3 DUP6 ADD PUSH2 0x2598 JUMP JUMPDEST SWAP2 POP POP SWAP3 SWAP2 POP POP JUMP JUMPDEST PUSH32 0x537461626C6520636F696E207472616E73666572206661696C65640000000000 PUSH0 DUP3 ADD MSTORE POP JUMP JUMPDEST PUSH0 PUSH2 0x260B PUSH1 0x1B DUP4 PUSH2 0x1E8F JUMP JUMPDEST SWAP2 POP PUSH2 0x2616 DUP3 PUSH2 0x25D7 JUMP JUMPDEST PUSH1 0x20 DUP3 ADD SWAP1 POP SWAP2 SWAP1 POP JUMP JUMPDEST PUSH0 PUSH1 0x20 DUP3 ADD SWAP1 POP DUP2 DUP2 SUB PUSH0 DUP4 ADD MSTORE PUSH2 0x2638 DUP2 PUSH2 0x25FF JUMP JUMPDEST SWAP1 POP SWAP2 SWAP1 POP JUMP JUMPDEST PUSH0 PUSH1 0x40 DUP3 ADD SWAP1 POP PUSH2 0x2652 PUSH0 DUP4 ADD DUP6 PUSH2 0x241C JUMP JUMPDEST PUSH2 0x265F PUSH1 0x20 DUP4 ADD DUP5 PUSH2 0x200B JUMP JUMPDEST SWAP4 SWAP3 POP POP POP JUMP JUMPDEST PUSH32 0x426F6E6420746F6B656E207472616E73666572206661696C6564000000000000 PUSH0 DUP3 ADD MSTORE POP JUMP JUMPDEST PUSH0 PUSH2 0x269A PUSH1 0x1A DUP4 PUSH2 0x1E8F JUMP JUMPDEST SWAP2 POP PUSH2 0x26A5 DUP3 PUSH2 0x2666 JUMP JUMPDEST PUSH1 0x20 DUP3 ADD SWAP1 POP SWAP2 SWAP1 POP JUMP JUMPDEST PUSH0 PUSH1 0x20 DUP3 ADD SWAP1 POP DUP2 DUP2 SUB PUSH0 DUP4 ADD MSTORE PUSH2 0x26C7 DUP2 PUSH2 0x268E JUMP JUMPDEST SWAP1 POP SWAP2 SWAP1 POP JUMP JUMPDEST PUSH32 0x546F6B656E20686F6C6465727320616E6420616D6F756E7473206C656E677468 PUSH0 DUP3 ADD MSTORE PUSH32 0x206D69736D617463680000000000000000000000000000000000000000000000 PUSH1 0x20 DUP3 ADD MSTORE POP JUMP JUMPDEST PUSH0 PUSH2 0x2728 PUSH1 0x29 DUP4 PUSH2 0x1E8F JUMP JUMPDEST SWAP2 POP PUSH2 0x2733 DUP3 PUSH2 0x26CE JUMP JUMPDEST PUSH1 0x40 DUP3 ADD SWAP1 POP SWAP2 SWAP1 POP JUMP JUMPDEST PUSH0 PUSH1 0x20 DUP3 ADD SWAP1 POP DUP2 DUP2 SUB PUSH0 DUP4 ADD MSTORE PUSH2 0x2755 DUP2 PUSH2 0x271C JUMP JUMPDEST SWAP1 POP SWAP2 SWAP1 POP JUMP JUMPDEST PUSH32 0x4E487B7100000000000000000000000000000000000000000000000000000000 PUSH0 MSTORE PUSH1 0x32 PUSH1 0x4 MSTORE PUSH1 0x24 PUSH0 REVERT JUMPDEST PUSH32 0x5472616E73666572206661696C65640000000000000000000000000000000000 PUSH0 DUP3 ADD MSTORE POP JUMP JUMPDEST PUSH0 PUSH2 0x27BD PUSH1 0xF DUP4 PUSH2 0x1E8F JUMP JUMPDEST SWAP2 POP PUSH2 0x27C8 DUP3 PUSH2 0x2789 JUMP JUMPDEST PUSH1 0x20 DUP3 ADD SWAP1 POP SWAP2 SWAP1 POP JUMP JUMPDEST PUSH0 PUSH1 0x20 DUP3 ADD SWAP1 POP DUP2 DUP2 SUB PUSH0 DUP4 ADD MSTORE PUSH2 0x27EA DUP2 PUSH2 0x27B1 JUMP JUMPDEST SWAP1 POP SWAP2 SWAP1 POP JUMP JUMPDEST PUSH32 0x43616E277420636C61696D207A65726F20636F696E7300000000000000000000 PUSH0 DUP3 ADD MSTORE POP JUMP JUMPDEST PUSH0 PUSH2 0x2825 PUSH1 0x16 DUP4 PUSH2 0x1E8F JUMP JUMPDEST SWAP2 POP PUSH2 0x2830 DUP3 PUSH2 0x27F1 JUMP JUMPDEST PUSH1 0x20 DUP3 ADD SWAP1 POP SWAP2 SWAP1 POP JUMP JUMPDEST PUSH0 PUSH1 0x20 DUP3 ADD SWAP1 POP DUP2 DUP2 SUB PUSH0 DUP4 ADD MSTORE PUSH2 0x2852 DUP2 PUSH2 0x2819 JUMP JUMPDEST SWAP1 POP SWAP2 SWAP1 POP JUMP JUMPDEST PUSH0 DUP2 MLOAD SWAP1 POP PUSH2 0x2867 DUP2 PUSH2 0x1F78 JUMP JUMPDEST SWAP3 SWAP2 POP POP JUMP JUMPDEST PUSH0 PUSH1 0x20 DUP3 DUP5 SUB SLT ISZERO PUSH2 0x2882 JUMPI PUSH2 0x2881 PUSH2 0x1DCA JUMP JUMPDEST JUMPDEST PUSH0 PUSH2 0x288F DUP5 DUP3 DUP6 ADD PUSH2 0x2859 JUMP JUMPDEST SWAP2 POP POP SWAP3 SWAP2 POP POP JUMP JUMPDEST PUSH32 0x4E6F20696E766573746F722066756E647320617661696C61626C652E00000000 PUSH0 DUP3 ADD MSTORE POP JUMP JUMPDEST PUSH0 PUSH2 0x28CC PUSH1 0x1C DUP4 PUSH2 0x1E8F JUMP JUMPDEST SWAP2 POP PUSH2 0x28D7 DUP3 PUSH2 0x2898 JUMP JUMPDEST PUSH1 0x20 DUP3 ADD SWAP1 POP SWAP2 SWAP1 POP JUMP JUMPDEST PUSH0 PUSH1 0x20 DUP3 ADD SWAP1 POP DUP2 DUP2 SUB PUSH0 DUP4 ADD MSTORE PUSH2 0x28F9 DUP2 PUSH2 0x28C0 JUMP JUMPDEST SWAP1 POP SWAP2 SWAP1 POP JUMP JUMPDEST PUSH32 0x4661696C656420746F207472616E7366657220737461626C6520636F696E7300 PUSH0 DUP3 ADD MSTORE POP JUMP JUMPDEST PUSH0 PUSH2 0x2934 PUSH1 0x1F DUP4 PUSH2 0x1E8F JUMP JUMPDEST SWAP2 POP PUSH2 0x293F DUP3 PUSH2 0x2900 JUMP JUMPDEST PUSH1 0x20 DUP3 ADD SWAP1 POP SWAP2 SWAP1 POP JUMP JUMPDEST PUSH0 PUSH1 0x20 DUP3 ADD SWAP1 POP DUP2 DUP2 SUB PUSH0 DUP4 ADD MSTORE PUSH2 0x2961 DUP2 PUSH2 0x2928 JUMP JUMPDEST SWAP1 POP SWAP2 SWAP1 POP JUMP JUMPDEST PUSH0 PUSH1 0x60 DUP3 ADD SWAP1 POP PUSH2 0x297B PUSH0 DUP4 ADD DUP7 PUSH2 0x241C JUMP JUMPDEST PUSH2 0x2988 PUSH1 0x20 DUP4 ADD DUP6 PUSH2 0x200B JUMP JUMPDEST PUSH2 0x2995 PUSH1 0x40 DUP4 ADD DUP5 PUSH2 0x200B JUMP JUMPDEST SWAP5 SWAP4 POP POP POP POP JUMP JUMPDEST PUSH0 PUSH1 0x40 DUP3 ADD SWAP1 POP PUSH2 0x29B0 PUSH0 DUP4 ADD DUP6 PUSH2 0x241C JUMP JUMPDEST PUSH2 0x29BD PUSH1 0x20 DUP4 ADD DUP5 PUSH2 0x20E1 JUMP JUMPDEST SWAP4 SWAP3 POP POP POP JUMP JUMPDEST PUSH0 PUSH2 0x29CE DUP3 PUSH2 0x1F6F JUMP JUMPDEST SWAP2 POP PUSH2 0x29D9 DUP4 PUSH2 0x1F6F JUMP JUMPDEST SWAP3 POP DUP3 DUP3 ADD SWAP1 POP DUP1 DUP3 GT ISZERO PUSH2 0x29F1 JUMPI PUSH2 0x29F0 PUSH2 0x24DF JUMP JUMPDEST JUMPDEST SWAP3 SWAP2 POP POP JUMP INVALID LOG2 PUSH5 0x6970667358 0x22 SLT KECCAK256 0xE1 0xD9 MLOAD 0xAD 0x24 0xE5 0xB2 TIMESTAMP 0xD5 SWAP16 0xBE MULMOD EQ TLOAD INVALID DIV 0xAE 0x4E LOG3 PUSH32 0x3A54F755A9E941CD3B583F7464736F6C634300081A0033000000000000000000 "
				},
				"gasEstimates": {
					"creation": {
						"codeDepositCost": "2159400",
						"executionCost": "infinite",
						"totalCost": "infinite"
					},
					"external": {
						"ADMIN()": "371",
						"BOND_ISSUER()": "391",
						"DEFAULT_ADMIN_ROLE()": "419",
						"allowance(address,address)": "infinite",
						"approve(address,uint256)": "infinite",
						"balanceOf(address)": "2940",
						"burn(uint256)": "infinite",
						"burnFrom(address,uint256)": "infinite",
						"buyBond(uint256)": "infinite",
						"claimFaceValue(uint256)": "infinite",
						"claimInvestorFunds()": "infinite",
						"decimals()": "428",
						"distributeInterest(address,uint256)": "infinite",
						"distributeInterestAll(address[],uint256[])": "infinite",
						"getRoleAdmin(bytes32)": "infinite",
						"grantRole(bytes32,address)": "infinite",
						"hasRole(bytes32,address)": "3234",
						"interestCoin()": "infinite",
						"name()": "infinite",
						"pause()": "infinite",
						"paused()": "2562",
						"renounceRole(bytes32,address)": "infinite",
						"revokeRole(bytes32,address)": "infinite",
						"stableCoin()": "infinite",
						"supportsInterface(bytes4)": "764",
						"symbol()": "infinite",
						"totalSupply()": "2500",
						"transfer(address,uint256)": "infinite",
						"transferFrom(address,address,uint256)": "infinite",
						"unitSize()": "infinite",
						"unpause()": "infinite"
					},
					"internal": {
						"_update(address,address,uint256)": "infinite"
					}
				},
				"methodIdentifiers": {
					"ADMIN()": "2a0acc6a",
					"BOND_ISSUER()": "e091a39b",
					"DEFAULT_ADMIN_ROLE()": "a217fddf",
					"allowance(address,address)": "dd62ed3e",
					"approve(address,uint256)": "095ea7b3",
					"balanceOf(address)": "70a08231",
					"burn(uint256)": "42966c68",
					"burnFrom(address,uint256)": "79cc6790",
					"buyBond(uint256)": "10002dbd",
					"claimFaceValue(uint256)": "ca19c11c",
					"claimInvestorFunds()": "ced0550f",
					"decimals()": "313ce567",
					"distributeInterest(address,uint256)": "f57d283e",
					"distributeInterestAll(address[],uint256[])": "904835c4",
					"getRoleAdmin(bytes32)": "248a9ca3",
					"grantRole(bytes32,address)": "2f2ff15d",
					"hasRole(bytes32,address)": "91d14854",
					"interestCoin()": "ec8eba14",
					"name()": "06fdde03",
					"pause()": "8456cb59",
					"paused()": "5c975abb",
					"renounceRole(bytes32,address)": "36568abe",
					"revokeRole(bytes32,address)": "d547741f",
					"stableCoin()": "992642e5",
					"supportsInterface(bytes4)": "01ffc9a7",
					"symbol()": "95d89b41",
					"totalSupply()": "18160ddd",
					"transfer(address,uint256)": "a9059cbb",
					"transferFrom(address,address,uint256)": "23b872dd",
					"unitSize()": "a920260b",
					"unpause()": "3f4ba83a"
				}
			},
			"storageLayout": {
				"storage": [
					{
						"astId": 538,
						"contract": "contracts/MyToken.sol:BonDeFiTokenSiemens",
						"label": "_balances",
						"offset": 0,
						"slot": "0",
						"type": "t_mapping(t_address,t_uint256)"
					},
					{
						"astId": 544,
						"contract": "contracts/MyToken.sol:BonDeFiTokenSiemens",
						"label": "_allowances",
						"offset": 0,
						"slot": "1",
						"type": "t_mapping(t_address,t_mapping(t_address,t_uint256))"
					},
					{
						"astId": 546,
						"contract": "contracts/MyToken.sol:BonDeFiTokenSiemens",
						"label": "_totalSupply",
						"offset": 0,
						"slot": "2",
						"type": "t_uint256"
					},
					{
						"astId": 548,
						"contract": "contracts/MyToken.sol:BonDeFiTokenSiemens",
						"label": "_name",
						"offset": 0,
						"slot": "3",
						"type": "t_string_storage"
					},
					{
						"astId": 550,
						"contract": "contracts/MyToken.sol:BonDeFiTokenSiemens",
						"label": "_symbol",
						"offset": 0,
						"slot": "4",
						"type": "t_string_storage"
					},
					{
						"astId": 1253,
						"contract": "contracts/MyToken.sol:BonDeFiTokenSiemens",
						"label": "_paused",
						"offset": 0,
						"slot": "5",
						"type": "t_bool"
					},
					{
						"astId": 26,
						"contract": "contracts/MyToken.sol:BonDeFiTokenSiemens",
						"label": "_roles",
						"offset": 0,
						"slot": "6",
						"type": "t_mapping(t_bytes32,t_struct(RoleData)21_storage)"
					}
				],
				"types": {
					"t_address": {
						"encoding": "inplace",
						"label": "address",
						"numberOfBytes": "20"
					},
					"t_bool": {
						"encoding": "inplace",
						"label": "bool",
						"numberOfBytes": "1"
					},
					"t_bytes32": {
						"encoding": "inplace",
						"label": "bytes32",
						"numberOfBytes": "32"
					},
					"t_mapping(t_address,t_bool)": {
						"encoding": "mapping",
						"key": "t_address",
						"label": "mapping(address => bool)",
						"numberOfBytes": "32",
						"value": "t_bool"
					},
					"t_mapping(t_address,t_mapping(t_address,t_uint256))": {
						"encoding": "mapping",
						"key": "t_address",
						"label": "mapping(address => mapping(address => uint256))",
						"numberOfBytes": "32",
						"value": "t_mapping(t_address,t_uint256)"
					},
					"t_mapping(t_address,t_uint256)": {
						"encoding": "mapping",
						"key": "t_address",
						"label": "mapping(address => uint256)",
						"numberOfBytes": "32",
						"value": "t_uint256"
					},
					"t_mapping(t_bytes32,t_struct(RoleData)21_storage)": {
						"encoding": "mapping",
						"key": "t_bytes32",
						"label": "mapping(bytes32 => struct AccessControl.RoleData)",
						"numberOfBytes": "32",
						"value": "t_struct(RoleData)21_storage"
					},
					"t_string_storage": {
						"encoding": "bytes",
						"label": "string",
						"numberOfBytes": "32"
					},
					"t_struct(RoleData)21_storage": {
						"encoding": "inplace",
						"label": "struct AccessControl.RoleData",
						"members": [
							{
								"astId": 18,
								"contract": "contracts/MyToken.sol:BonDeFiTokenSiemens",
								"label": "hasRole",
								"offset": 0,
								"slot": "0",
								"type": "t_mapping(t_address,t_bool)"
							},
							{
								"astId": 20,
								"contract": "contracts/MyToken.sol:BonDeFiTokenSiemens",
								"label": "adminRole",
								"offset": 0,
								"slot": "1",
								"type": "t_bytes32"
							}
						],
						"numberOfBytes": "64"
					},
					"t_uint256": {
						"encoding": "inplace",
						"label": "uint256",
						"numberOfBytes": "32"
					}
				}
			},
			"userdoc": {
				"kind": "user",
				"methods": {},
				"version": 1
			}
		}
	}
}