{
	"contracts/BonDeFiToken.sol": {
		"BonDeFiToken": {
			"abi": [
				{
					"inputs": [
						{
							"internalType": "address",
							"name": "administrator",
							"type": "address"
						},
						{
							"internalType": "address",
							"name": "bondIssuer",
							"type": "address"
						},
						{
							"internalType": "address",
							"name": "_stableCoin",
							"type": "address"
						},
						{
							"internalType": "address",
							"name": "_interestCoin",
							"type": "address"
						},
						{
							"internalType": "uint256",
							"name": "faceValue",
							"type": "uint256"
						},
						{
							"internalType": "uint256",
							"name": "_maturityDate",
							"type": "uint256"
						},
						{
							"internalType": "uint256",
							"name": "_unitSize",
							"type": "uint256"
						}
					],
					"stateMutability": "nonpayable",
					"type": "constructor"
				},
				{
					"inputs": [],
					"name": "AccessControlBadConfirmation",
					"type": "error"
				},
				{
					"inputs": [
						{
							"internalType": "address",
							"name": "account",
							"type": "address"
						},
						{
							"internalType": "bytes32",
							"name": "neededRole",
							"type": "bytes32"
						}
					],
					"name": "AccessControlUnauthorizedAccount",
					"type": "error"
				},
				{
					"inputs": [
						{
							"internalType": "address",
							"name": "spender",
							"type": "address"
						},
						{
							"internalType": "uint256",
							"name": "allowance",
							"type": "uint256"
						},
						{
							"internalType": "uint256",
							"name": "needed",
							"type": "uint256"
						}
					],
					"name": "ERC20InsufficientAllowance",
					"type": "error"
				},
				{
					"inputs": [
						{
							"internalType": "address",
							"name": "sender",
							"type": "address"
						},
						{
							"internalType": "uint256",
							"name": "balance",
							"type": "uint256"
						},
						{
							"internalType": "uint256",
							"name": "needed",
							"type": "uint256"
						}
					],
					"name": "ERC20InsufficientBalance",
					"type": "error"
				},
				{
					"inputs": [
						{
							"internalType": "address",
							"name": "approver",
							"type": "address"
						}
					],
					"name": "ERC20InvalidApprover",
					"type": "error"
				},
				{
					"inputs": [
						{
							"internalType": "address",
							"name": "receiver",
							"type": "address"
						}
					],
					"name": "ERC20InvalidReceiver",
					"type": "error"
				},
				{
					"inputs": [
						{
							"internalType": "address",
							"name": "sender",
							"type": "address"
						}
					],
					"name": "ERC20InvalidSender",
					"type": "error"
				},
				{
					"inputs": [
						{
							"internalType": "address",
							"name": "spender",
							"type": "address"
						}
					],
					"name": "ERC20InvalidSpender",
					"type": "error"
				},
				{
					"inputs": [],
					"name": "EnforcedPause",
					"type": "error"
				},
				{
					"inputs": [],
					"name": "ExpectedPause",
					"type": "error"
				},
				{
					"anonymous": false,
					"inputs": [
						{
							"indexed": true,
							"internalType": "address",
							"name": "owner",
							"type": "address"
						},
						{
							"indexed": true,
							"internalType": "address",
							"name": "spender",
							"type": "address"
						},
						{
							"indexed": false,
							"internalType": "uint256",
							"name": "value",
							"type": "uint256"
						}
					],
					"name": "Approval",
					"type": "event"
				},
				{
					"anonymous": false,
					"inputs": [
						{
							"indexed": false,
							"internalType": "address",
							"name": "account",
							"type": "address"
						}
					],
					"name": "Paused",
					"type": "event"
				},
				{
					"anonymous": false,
					"inputs": [
						{
							"indexed": true,
							"internalType": "bytes32",
							"name": "role",
							"type": "bytes32"
						},
						{
							"indexed": true,
							"internalType": "bytes32",
							"name": "previousAdminRole",
							"type": "bytes32"
						},
						{
							"indexed": true,
							"internalType": "bytes32",
							"name": "newAdminRole",
							"type": "bytes32"
						}
					],
					"name": "RoleAdminChanged",
					"type": "event"
				},
				{
					"anonymous": false,
					"inputs": [
						{
							"indexed": true,
							"internalType": "bytes32",
							"name": "role",
							"type": "bytes32"
						},
						{
							"indexed": true,
							"internalType": "address",
							"name": "account",
							"type": "address"
						},
						{
							"indexed": true,
							"internalType": "address",
							"name": "sender",
							"type": "address"
						}
					],
					"name": "RoleGranted",
					"type": "event"
				},
				{
					"anonymous": false,
					"inputs": [
						{
							"indexed": true,
							"internalType": "bytes32",
							"name": "role",
							"type": "bytes32"
						},
						{
							"indexed": true,
							"internalType": "address",
							"name": "account",
							"type": "address"
						},
						{
							"indexed": true,
							"internalType": "address",
							"name": "sender",
							"type": "address"
						}
					],
					"name": "RoleRevoked",
					"type": "event"
				},
				{
					"anonymous": false,
					"inputs": [
						{
							"indexed": true,
							"internalType": "address",
							"name": "from",
							"type": "address"
						},
						{
							"indexed": true,
							"internalType": "address",
							"name": "to",
							"type": "address"
						},
						{
							"indexed": false,
							"internalType": "uint256",
							"name": "value",
							"type": "uint256"
						}
					],
					"name": "Transfer",
					"type": "event"
				},
				{
					"anonymous": false,
					"inputs": [
						{
							"indexed": false,
							"internalType": "address",
							"name": "account",
							"type": "address"
						}
					],
					"name": "Unpaused",
					"type": "event"
				},
				{
					"inputs": [],
					"name": "ADMIN",
					"outputs": [
						{
							"internalType": "bytes32",
							"name": "",
							"type": "bytes32"
						}
					],
					"stateMutability": "view",
					"type": "function"
				},
				{
					"inputs": [],
					"name": "BOND_ISSUER",
					"outputs": [
						{
							"internalType": "bytes32",
							"name": "",
							"type": "bytes32"
						}
					],
					"stateMutability": "view",
					"type": "function"
				},
				{
					"inputs": [],
					"name": "DEFAULT_ADMIN_ROLE",
					"outputs": [
						{
							"internalType": "bytes32",
							"name": "",
							"type": "bytes32"
						}
					],
					"stateMutability": "view",
					"type": "function"
				},
				{
					"inputs": [
						{
							"internalType": "address",
							"name": "owner",
							"type": "address"
						},
						{
							"internalType": "address",
							"name": "spender",
							"type": "address"
						}
					],
					"name": "allowance",
					"outputs": [
						{
							"internalType": "uint256",
							"name": "",
							"type": "uint256"
						}
					],
					"stateMutability": "view",
					"type": "function"
				},
				{
					"inputs": [
						{
							"internalType": "address",
							"name": "spender",
							"type": "address"
						},
						{
							"internalType": "uint256",
							"name": "value",
							"type": "uint256"
						}
					],
					"name": "approve",
					"outputs": [
						{
							"internalType": "bool",
							"name": "",
							"type": "bool"
						}
					],
					"stateMutability": "nonpayable",
					"type": "function"
				},
				{
					"inputs": [
						{
							"internalType": "address",
							"name": "account",
							"type": "address"
						}
					],
					"name": "balanceOf",
					"outputs": [
						{
							"internalType": "uint256",
							"name": "",
							"type": "uint256"
						}
					],
					"stateMutability": "view",
					"type": "function"
				},
				{
					"inputs": [
						{
							"internalType": "uint256",
							"name": "value",
							"type": "uint256"
						}
					],
					"name": "burn",
					"outputs": [],
					"stateMutability": "nonpayable",
					"type": "function"
				},
				{
					"inputs": [
						{
							"internalType": "address",
							"name": "account",
							"type": "address"
						},
						{
							"internalType": "uint256",
							"name": "value",
							"type": "uint256"
						}
					],
					"name": "burnFrom",
					"outputs": [],
					"stateMutability": "nonpayable",
					"type": "function"
				},
				{
					"inputs": [
						{
							"internalType": "uint256",
							"name": "amountTokens",
							"type": "uint256"
						}
					],
					"name": "buyBond",
					"outputs": [],
					"stateMutability": "nonpayable",
					"type": "function"
				},
				{
					"inputs": [
						{
							"internalType": "uint256",
							"name": "amountTokens",
							"type": "uint256"
						}
					],
					"name": "claimFaceValue",
					"outputs": [],
					"stateMutability": "nonpayable",
					"type": "function"
				},
				{
					"inputs": [],
					"name": "claimInvestorFunds",
					"outputs": [],
					"stateMutability": "nonpayable",
					"type": "function"
				},
				{
					"inputs": [],
					"name": "decimals",
					"outputs": [
						{
							"internalType": "uint8",
							"name": "",
							"type": "uint8"
						}
					],
					"stateMutability": "view",
					"type": "function"
				},
				{
					"inputs": [
						{
							"internalType": "address",
							"name": "tokenHolder",
							"type": "address"
						},
						{
							"internalType": "uint256",
							"name": "amount",
							"type": "uint256"
						}
					],
					"name": "distributeInterest",
					"outputs": [],
					"stateMutability": "nonpayable",
					"type": "function"
				},
				{
					"inputs": [
						{
							"internalType": "address[]",
							"name": "tokenHolders",
							"type": "address[]"
						},
						{
							"internalType": "uint256[]",
							"name": "amounts",
							"type": "uint256[]"
						}
					],
					"name": "distributeInterestAll",
					"outputs": [],
					"stateMutability": "nonpayable",
					"type": "function"
				},
				{
					"inputs": [
						{
							"internalType": "bytes32",
							"name": "role",
							"type": "bytes32"
						}
					],
					"name": "getRoleAdmin",
					"outputs": [
						{
							"internalType": "bytes32",
							"name": "",
							"type": "bytes32"
						}
					],
					"stateMutability": "view",
					"type": "function"
				},
				{
					"inputs": [
						{
							"internalType": "bytes32",
							"name": "role",
							"type": "bytes32"
						},
						{
							"internalType": "address",
							"name": "account",
							"type": "address"
						}
					],
					"name": "grantRole",
					"outputs": [],
					"stateMutability": "nonpayable",
					"type": "function"
				},
				{
					"inputs": [
						{
							"internalType": "bytes32",
							"name": "role",
							"type": "bytes32"
						},
						{
							"internalType": "address",
							"name": "account",
							"type": "address"
						}
					],
					"name": "hasRole",
					"outputs": [
						{
							"internalType": "bool",
							"name": "",
							"type": "bool"
						}
					],
					"stateMutability": "view",
					"type": "function"
				},
				{
					"inputs": [],
					"name": "interestCoin",
					"outputs": [
						{
							"internalType": "address",
							"name": "",
							"type": "address"
						}
					],
					"stateMutability": "view",
					"type": "function"
				},
				{
					"inputs": [],
					"name": "maturityDate",
					"outputs": [
						{
							"internalType": "uint256",
							"name": "",
							"type": "uint256"
						}
					],
					"stateMutability": "view",
					"type": "function"
				},
				{
					"inputs": [],
					"name": "name",
					"outputs": [
						{
							"internalType": "string",
							"name": "",
							"type": "string"
						}
					],
					"stateMutability": "view",
					"type": "function"
				},
				{
					"inputs": [],
					"name": "pause",
					"outputs": [],
					"stateMutability": "nonpayable",
					"type": "function"
				},
				{
					"inputs": [],
					"name": "paused",
					"outputs": [
						{
							"internalType": "bool",
							"name": "",
							"type": "bool"
						}
					],
					"stateMutability": "view",
					"type": "function"
				},
				{
					"inputs": [
						{
							"internalType": "bytes32",
							"name": "role",
							"type": "bytes32"
						},
						{
							"internalType": "address",
							"name": "callerConfirmation",
							"type": "address"
						}
					],
					"name": "renounceRole",
					"outputs": [],
					"stateMutability": "nonpayable",
					"type": "function"
				},
				{
					"inputs": [
						{
							"internalType": "bytes32",
							"name": "role",
							"type": "bytes32"
						},
						{
							"internalType": "address",
							"name": "account",
							"type": "address"
						}
					],
					"name": "revokeRole",
					"outputs": [],
					"stateMutability": "nonpayable",
					"type": "function"
				},
				{
					"inputs": [],
					"name": "stableCoin",
					"outputs": [
						{
							"internalType": "address",
							"name": "",
							"type": "address"
						}
					],
					"stateMutability": "view",
					"type": "function"
				},
				{
					"inputs": [
						{
							"internalType": "bytes4",
							"name": "interfaceId",
							"type": "bytes4"
						}
					],
					"name": "supportsInterface",
					"outputs": [
						{
							"internalType": "bool",
							"name": "",
							"type": "bool"
						}
					],
					"stateMutability": "view",
					"type": "function"
				},
				{
					"inputs": [],
					"name": "symbol",
					"outputs": [
						{
							"internalType": "string",
							"name": "",
							"type": "string"
						}
					],
					"stateMutability": "view",
					"type": "function"
				},
				{
					"inputs": [],
					"name": "totalSupply",
					"outputs": [
						{
							"internalType": "uint256",
							"name": "",
							"type": "uint256"
						}
					],
					"stateMutability": "view",
					"type": "function"
				},
				{
					"inputs": [
						{
							"internalType": "address",
							"name": "to",
							"type": "address"
						},
						{
							"internalType": "uint256",
							"name": "value",
							"type": "uint256"
						}
					],
					"name": "transfer",
					"outputs": [
						{
							"internalType": "bool",
							"name": "",
							"type": "bool"
						}
					],
					"stateMutability": "nonpayable",
					"type": "function"
				},
				{
					"inputs": [
						{
							"internalType": "address",
							"name": "from",
							"type": "address"
						},
						{
							"internalType": "address",
							"name": "to",
							"type": "address"
						},
						{
							"internalType": "uint256",
							"name": "value",
							"type": "uint256"
						}
					],
					"name": "transferFrom",
					"outputs": [
						{
							"internalType": "bool",
							"name": "",
							"type": "bool"
						}
					],
					"stateMutability": "nonpayable",
					"type": "function"
				},
				{
					"inputs": [],
					"name": "unitSize",
					"outputs": [
						{
							"internalType": "uint256",
							"name": "",
							"type": "uint256"
						}
					],
					"stateMutability": "view",
					"type": "function"
				},
				{
					"inputs": [],
					"name": "unpause",
					"outputs": [],
					"stateMutability": "nonpayable",
					"type": "function"
				}
			],
			"devdoc": {
				"errors": {
					"AccessControlBadConfirmation()": [
						{
							"details": "The caller of a function is not the expected one. NOTE: Don't confuse with {AccessControlUnauthorizedAccount}."
						}
					],
					"AccessControlUnauthorizedAccount(address,bytes32)": [
						{
							"details": "The `account` is missing a role."
						}
					],
					"ERC20InsufficientAllowance(address,uint256,uint256)": [
						{
							"details": "Indicates a failure with the `spender`’s `allowance`. Used in transfers.",
							"params": {
								"allowance": "Amount of tokens a `spender` is allowed to operate with.",
								"needed": "Minimum amount required to perform a transfer.",
								"spender": "Address that may be allowed to operate on tokens without being their owner."
							}
						}
					],
					"ERC20InsufficientBalance(address,uint256,uint256)": [
						{
							"details": "Indicates an error related to the current `balance` of a `sender`. Used in transfers.",
							"params": {
								"balance": "Current balance for the interacting account.",
								"needed": "Minimum amount required to perform a transfer.",
								"sender": "Address whose tokens are being transferred."
							}
						}
					],
					"ERC20InvalidApprover(address)": [
						{
							"details": "Indicates a failure with the `approver` of a token to be approved. Used in approvals.",
							"params": {
								"approver": "Address initiating an approval operation."
							}
						}
					],
					"ERC20InvalidReceiver(address)": [
						{
							"details": "Indicates a failure with the token `receiver`. Used in transfers.",
							"params": {
								"receiver": "Address to which tokens are being transferred."
							}
						}
					],
					"ERC20InvalidSender(address)": [
						{
							"details": "Indicates a failure with the token `sender`. Used in transfers.",
							"params": {
								"sender": "Address whose tokens are being transferred."
							}
						}
					],
					"ERC20InvalidSpender(address)": [
						{
							"details": "Indicates a failure with the `spender` to be approved. Used in approvals.",
							"params": {
								"spender": "Address that may be allowed to operate on tokens without being their owner."
							}
						}
					],
					"EnforcedPause()": [
						{
							"details": "The operation failed because the contract is paused."
						}
					],
					"ExpectedPause()": [
						{
							"details": "The operation failed because the contract is not paused."
						}
					]
				},
				"events": {
					"Approval(address,address,uint256)": {
						"details": "Emitted when the allowance of a `spender` for an `owner` is set by a call to {approve}. `value` is the new allowance."
					},
					"Paused(address)": {
						"details": "Emitted when the pause is triggered by `account`."
					},
					"RoleAdminChanged(bytes32,bytes32,bytes32)": {
						"details": "Emitted when `newAdminRole` is set as ``role``'s admin role, replacing `previousAdminRole` `DEFAULT_ADMIN_ROLE` is the starting admin for all roles, despite {RoleAdminChanged} not being emitted signaling this."
					},
					"RoleGranted(bytes32,address,address)": {
						"details": "Emitted when `account` is granted `role`. `sender` is the account that originated the contract call, an admin role bearer except when using {AccessControl-_setupRole}."
					},
					"RoleRevoked(bytes32,address,address)": {
						"details": "Emitted when `account` is revoked `role`. `sender` is the account that originated the contract call:   - if using `revokeRole`, it is the admin role bearer   - if using `renounceRole`, it is the role bearer (i.e. `account`)"
					},
					"Transfer(address,address,uint256)": {
						"details": "Emitted when `value` tokens are moved from one account (`from`) to another (`to`). Note that `value` may be zero."
					},
					"Unpaused(address)": {
						"details": "Emitted when the pause is lifted by `account`."
					}
				},
				"kind": "dev",
				"methods": {
					"allowance(address,address)": {
						"details": "See {IERC20-allowance}."
					},
					"approve(address,uint256)": {
						"details": "See {IERC20-approve}. NOTE: If `value` is the maximum `uint256`, the allowance is not updated on `transferFrom`. This is semantically equivalent to an infinite approval. Requirements: - `spender` cannot be the zero address."
					},
					"balanceOf(address)": {
						"details": "See {IERC20-balanceOf}."
					},
					"burn(uint256)": {
						"details": "Destroys a `value` amount of tokens from the caller. See {ERC20-_burn}."
					},
					"burnFrom(address,uint256)": {
						"details": "Destroys a `value` amount of tokens from `account`, deducting from the caller's allowance. See {ERC20-_burn} and {ERC20-allowance}. Requirements: - the caller must have allowance for ``accounts``'s tokens of at least `value`."
					},
					"decimals()": {
						"details": "Returns the number of decimals used to get its user representation. For example, if `decimals` equals `2`, a balance of `505` tokens should be displayed to a user as `5.05` (`505 / 10 ** 2`). Tokens usually opt for a value of 18, imitating the relationship between Ether and Wei. This is the default value returned by this function, unless it's overridden. NOTE: This information is only used for _display_ purposes: it in no way affects any of the arithmetic of the contract, including {IERC20-balanceOf} and {IERC20-transfer}."
					},
					"getRoleAdmin(bytes32)": {
						"details": "Returns the admin role that controls `role`. See {grantRole} and {revokeRole}. To change a role's admin, use {_setRoleAdmin}."
					},
					"grantRole(bytes32,address)": {
						"details": "Grants `role` to `account`. If `account` had not been already granted `role`, emits a {RoleGranted} event. Requirements: - the caller must have ``role``'s admin role. May emit a {RoleGranted} event."
					},
					"hasRole(bytes32,address)": {
						"details": "Returns `true` if `account` has been granted `role`."
					},
					"name()": {
						"details": "Returns the name of the token."
					},
					"paused()": {
						"details": "Returns true if the contract is paused, and false otherwise."
					},
					"renounceRole(bytes32,address)": {
						"details": "Revokes `role` from the calling account. Roles are often managed via {grantRole} and {revokeRole}: this function's purpose is to provide a mechanism for accounts to lose their privileges if they are compromised (such as when a trusted device is misplaced). If the calling account had been revoked `role`, emits a {RoleRevoked} event. Requirements: - the caller must be `callerConfirmation`. May emit a {RoleRevoked} event."
					},
					"revokeRole(bytes32,address)": {
						"details": "Revokes `role` from `account`. If `account` had been granted `role`, emits a {RoleRevoked} event. Requirements: - the caller must have ``role``'s admin role. May emit a {RoleRevoked} event."
					},
					"supportsInterface(bytes4)": {
						"details": "See {IERC165-supportsInterface}."
					},
					"symbol()": {
						"details": "Returns the symbol of the token, usually a shorter version of the name."
					},
					"totalSupply()": {
						"details": "See {IERC20-totalSupply}."
					},
					"transfer(address,uint256)": {
						"details": "See {IERC20-transfer}. Requirements: - `to` cannot be the zero address. - the caller must have a balance of at least `value`."
					},
					"transferFrom(address,address,uint256)": {
						"details": "See {IERC20-transferFrom}. Emits an {Approval} event indicating the updated allowance. This is not required by the EIP. See the note at the beginning of {ERC20}. NOTE: Does not update the allowance if the current allowance is the maximum `uint256`. Requirements: - `from` and `to` cannot be the zero address. - `from` must have a balance of at least `value`. - the caller must have allowance for ``from``'s tokens of at least `value`."
					}
				},
				"version": 1
			},
			"evm": {
				"assembly": "    /* \"contracts/BonDeFiToken.sol\":373:3445  contract BonDeFiToken is ERC20, ERC20Burnable, ERC20Pausable, AccessControl {... */\n  mstore(0x40, 0x0100)\n    /* \"contracts/BonDeFiToken.sol\":745:1255  constructor(address administrator, address bondIssuer, address _stableCoin,address _interestCoin,... */\n  callvalue\n  dup1\n  iszero\n  tag_1\n  jumpi\n  0x00\n  dup1\n  revert\ntag_1:\n  pop\n  mload(0x40)\n  sub(codesize, bytecodeSize)\n  dup1\n  bytecodeSize\n  dup4\n  codecopy\n  dup2\n  dup2\n  add\n  0x40\n  mstore\n  dup2\n  add\n  swap1\n  tag_2\n  swap2\n  swap1\n  tag_3\n  jump\t// in\ntag_2:\n    /* \"@openzeppelin/contracts/token/ERC20/ERC20.sol\":1896:2009  constructor(string memory name_, string memory symbol_) {... */\n  mload(0x40)\n  dup1\n  0x40\n  add\n  0x40\n  mstore\n  dup1\n  0x0c\n  dup2\n  mstore\n  0x20\n  add\n  0x426f6e44654669546f6b656e0000000000000000000000000000000000000000\n  dup2\n  mstore\n  pop\n  mload(0x40)\n  dup1\n  0x40\n  add\n  0x40\n  mstore\n  dup1\n  0x03\n  dup2\n  mstore\n  0x20\n  add\n  0x4244460000000000000000000000000000000000000000000000000000000000\n  dup2\n  mstore\n  pop\n    /* \"@openzeppelin/contracts/token/ERC20/ERC20.sol\":1970:1975  name_ */\n  dup2\n    /* \"@openzeppelin/contracts/token/ERC20/ERC20.sol\":1962:1967  _name */\n  0x03\n    /* \"@openzeppelin/contracts/token/ERC20/ERC20.sol\":1962:1975  _name = name_ */\n  swap1\n  dup2\n  tag_8\n  swap2\n  swap1\n  tag_9\n  jump\t// in\ntag_8:\n  pop\n    /* \"@openzeppelin/contracts/token/ERC20/ERC20.sol\":1995:2002  symbol_ */\n  dup1\n    /* \"@openzeppelin/contracts/token/ERC20/ERC20.sol\":1985:1992  _symbol */\n  0x04\n    /* \"@openzeppelin/contracts/token/ERC20/ERC20.sol\":1985:2002  _symbol = symbol_ */\n  swap1\n  dup2\n  tag_10\n  swap2\n  swap1\n  tag_9\n  jump\t// in\ntag_10:\n  pop\n    /* \"@openzeppelin/contracts/token/ERC20/ERC20.sol\":1896:2009  constructor(string memory name_, string memory symbol_) {... */\n  pop\n  pop\n    /* \"@openzeppelin/contracts/utils/Pausable.sol\":1241:1246  false */\n  0x00\n    /* \"@openzeppelin/contracts/utils/Pausable.sol\":1231:1238  _paused */\n  0x05\n  0x00\n    /* \"@openzeppelin/contracts/utils/Pausable.sol\":1231:1246  _paused = false */\n  0x0100\n  exp\n  dup2\n  sload\n  dup2\n  0xff\n  mul\n  not\n  and\n  swap1\n  dup4\n  iszero\n  iszero\n  mul\n  or\n  swap1\n  sstore\n  pop\n    /* \"contracts/BonDeFiToken.sol\":960:992  _grantRole(ADMIN, administrator) */\n  tag_13\n    /* \"contracts/BonDeFiToken.sol\":487:505  keccak256(\"ADMIN\") */\n  0xdf8b4c520ffe197c5343c6f5aec59570151ef9a492f2c624fd45ddde6135ec42\n    /* \"contracts/BonDeFiToken.sol\":978:991  administrator */\n  dup9\n    /* \"contracts/BonDeFiToken.sol\":960:970  _grantRole */\n  shl(0x20, tag_14)\n    /* \"contracts/BonDeFiToken.sol\":960:992  _grantRole(ADMIN, administrator) */\n  0x20\n  shr\n  jump\t// in\ntag_13:\n  pop\n    /* \"contracts/BonDeFiToken.sol\":1002:1037  _grantRole(BOND_ISSUER, bondIssuer) */\n  tag_15\n    /* \"contracts/BonDeFiToken.sol\":549:573  keccak256(\"BOND_ISSUER\") */\n  0xf877234297ef562d54f0328f892acfc1d6c1e44ca89f02e3a2c2a4736f6095b7\n    /* \"contracts/BonDeFiToken.sol\":1026:1036  bondIssuer */\n  dup8\n    /* \"contracts/BonDeFiToken.sol\":1002:1012  _grantRole */\n  shl(0x20, tag_14)\n    /* \"contracts/BonDeFiToken.sol\":1002:1037  _grantRole(BOND_ISSUER, bondIssuer) */\n  0x20\n  shr\n  jump\t// in\ntag_15:\n  pop\n    /* \"contracts/BonDeFiToken.sol\":1060:1071  _stableCoin */\n  dup5\n    /* \"contracts/BonDeFiToken.sol\":1047:1071  stableCoin = _stableCoin */\n  0xffffffffffffffffffffffffffffffffffffffff\n  and\n  0x80\n  dup2\n  0xffffffffffffffffffffffffffffffffffffffff\n  and\n  dup2\n  mstore\n  pop\n  pop\n    /* \"contracts/BonDeFiToken.sol\":1096:1109  _interestCoin */\n  dup4\n    /* \"contracts/BonDeFiToken.sol\":1081:1109  interestCoin = _interestCoin */\n  0xffffffffffffffffffffffffffffffffffffffff\n  and\n  0xa0\n  dup2\n  0xffffffffffffffffffffffffffffffffffffffff\n  and\n  dup2\n  mstore\n  pop\n  pop\n    /* \"contracts/BonDeFiToken.sol\":1130:1139  _unitSize */\n  dup1\n    /* \"contracts/BonDeFiToken.sol\":1119:1139  unitSize = _unitSize */\n  0xc0\n  dup2\n  dup2\n  mstore\n  pop\n  pop\n    /* \"contracts/BonDeFiToken.sol\":1164:1177  _maturityDate */\n  dup2\n    /* \"contracts/BonDeFiToken.sol\":1149:1177  maturityDate = _maturityDate */\n  0xe0\n  dup2\n  dup2\n  mstore\n  pop\n  pop\n    /* \"contracts/BonDeFiToken.sol\":1187:1248  _mint(msg.sender, (faceValue / _unitSize) * 10 ** decimals()) */\n  tag_16\n    /* \"contracts/BonDeFiToken.sol\":1193:1203  msg.sender */\n  caller\n    /* \"contracts/BonDeFiToken.sol\":1237:1247  decimals() */\n  tag_17\n    /* \"contracts/BonDeFiToken.sol\":1237:1245  decimals */\n  shl(0x20, tag_18)\n    /* \"contracts/BonDeFiToken.sol\":1237:1247  decimals() */\n  0x20\n  shr\n  jump\t// in\ntag_17:\n    /* \"contracts/BonDeFiToken.sol\":1231:1233  10 */\n  0x0a\n    /* \"contracts/BonDeFiToken.sol\":1231:1247  10 ** decimals() */\n  tag_19\n  swap2\n  swap1\n  tag_20\n  jump\t// in\ntag_19:\n    /* \"contracts/BonDeFiToken.sol\":1218:1227  _unitSize */\n  dup4\n    /* \"contracts/BonDeFiToken.sol\":1206:1215  faceValue */\n  dup7\n    /* \"contracts/BonDeFiToken.sol\":1206:1227  faceValue / _unitSize */\n  tag_21\n  swap2\n  swap1\n  tag_22\n  jump\t// in\ntag_21:\n    /* \"contracts/BonDeFiToken.sol\":1205:1247  (faceValue / _unitSize) * 10 ** decimals() */\n  tag_23\n  swap2\n  swap1\n  tag_24\n  jump\t// in\ntag_23:\n    /* \"contracts/BonDeFiToken.sol\":1187:1192  _mint */\n  shl(0x20, tag_25)\n    /* \"contracts/BonDeFiToken.sol\":1187:1248  _mint(msg.sender, (faceValue / _unitSize) * 10 ** decimals()) */\n  0x20\n  shr\n  jump\t// in\ntag_16:\n    /* \"contracts/BonDeFiToken.sol\":745:1255  constructor(address administrator, address bondIssuer, address _stableCoin,address _interestCoin,... */\n  pop\n  pop\n  pop\n  pop\n  pop\n  pop\n  pop\n    /* \"contracts/BonDeFiToken.sol\":373:3445  contract BonDeFiToken is ERC20, ERC20Burnable, ERC20Pausable, AccessControl {... */\n  jump(tag_26)\n    /* \"@openzeppelin/contracts/access/AccessControl.sol\":6179:6495  function _grantRole(bytes32 role, address account) internal virtual returns (bool) {... */\ntag_14:\n    /* \"@openzeppelin/contracts/access/AccessControl.sol\":6256:6260  bool */\n  0x00\n    /* \"@openzeppelin/contracts/access/AccessControl.sol\":6277:6299  hasRole(role, account) */\n  tag_28\n    /* \"@openzeppelin/contracts/access/AccessControl.sol\":6285:6289  role */\n  dup4\n    /* \"@openzeppelin/contracts/access/AccessControl.sol\":6291:6298  account */\n  dup4\n    /* \"@openzeppelin/contracts/access/AccessControl.sol\":6277:6284  hasRole */\n  shl(0x20, tag_29)\n    /* \"@openzeppelin/contracts/access/AccessControl.sol\":6277:6299  hasRole(role, account) */\n  0x20\n  shr\n  jump\t// in\ntag_28:\n    /* \"@openzeppelin/contracts/access/AccessControl.sol\":6272:6489  if (!hasRole(role, account)) {... */\n  tag_30\n  jumpi\n    /* \"@openzeppelin/contracts/access/AccessControl.sol\":6347:6351  true */\n  0x01\n    /* \"@openzeppelin/contracts/access/AccessControl.sol\":6315:6321  _roles */\n  0x06\n    /* \"@openzeppelin/contracts/access/AccessControl.sol\":6315:6327  _roles[role] */\n  0x00\n    /* \"@openzeppelin/contracts/access/AccessControl.sol\":6322:6326  role */\n  dup6\n    /* \"@openzeppelin/contracts/access/AccessControl.sol\":6315:6327  _roles[role] */\n  dup2\n  mstore\n  0x20\n  add\n  swap1\n  dup2\n  mstore\n  0x20\n  add\n  0x00\n  keccak256\n    /* \"@openzeppelin/contracts/access/AccessControl.sol\":6315:6335  _roles[role].hasRole */\n  0x00\n  add\n    /* \"@openzeppelin/contracts/access/AccessControl.sol\":6315:6344  _roles[role].hasRole[account] */\n  0x00\n    /* \"@openzeppelin/contracts/access/AccessControl.sol\":6336:6343  account */\n  dup5\n    /* \"@openzeppelin/contracts/access/AccessControl.sol\":6315:6344  _roles[role].hasRole[account] */\n  0xffffffffffffffffffffffffffffffffffffffff\n  and\n  0xffffffffffffffffffffffffffffffffffffffff\n  and\n  dup2\n  mstore\n  0x20\n  add\n  swap1\n  dup2\n  mstore\n  0x20\n  add\n  0x00\n  keccak256\n  0x00\n    /* \"@openzeppelin/contracts/access/AccessControl.sol\":6315:6351  _roles[role].hasRole[account] = true */\n  0x0100\n  exp\n  dup2\n  sload\n  dup2\n  0xff\n  mul\n  not\n  and\n  swap1\n  dup4\n  iszero\n  iszero\n  mul\n  or\n  swap1\n  sstore\n  pop\n    /* \"@openzeppelin/contracts/access/AccessControl.sol\":6397:6409  _msgSender() */\n  tag_31\n    /* \"@openzeppelin/contracts/access/AccessControl.sol\":6397:6407  _msgSender */\n  shl(0x20, tag_32)\n    /* \"@openzeppelin/contracts/access/AccessControl.sol\":6397:6409  _msgSender() */\n  0x20\n  shr\n  jump\t// in\ntag_31:\n    /* \"@openzeppelin/contracts/access/AccessControl.sol\":6370:6410  RoleGranted(role, account, _msgSender()) */\n  0xffffffffffffffffffffffffffffffffffffffff\n  and\n    /* \"@openzeppelin/contracts/access/AccessControl.sol\":6388:6395  account */\n  dup3\n    /* \"@openzeppelin/contracts/access/AccessControl.sol\":6370:6410  RoleGranted(role, account, _msgSender()) */\n  0xffffffffffffffffffffffffffffffffffffffff\n  and\n    /* \"@openzeppelin/contracts/access/AccessControl.sol\":6382:6386  role */\n  dup5\n    /* \"@openzeppelin/contracts/access/AccessControl.sol\":6370:6410  RoleGranted(role, account, _msgSender()) */\n  0x2f8788117e7eff1d82e926ec794901d17c78024a50270940304540a733656f0d\n  mload(0x40)\n  mload(0x40)\n  dup1\n  swap2\n  sub\n  swap1\n  log4\n    /* \"@openzeppelin/contracts/access/AccessControl.sol\":6431:6435  true */\n  0x01\n    /* \"@openzeppelin/contracts/access/AccessControl.sol\":6424:6435  return true */\n  swap1\n  pop\n  jump(tag_27)\n    /* \"@openzeppelin/contracts/access/AccessControl.sol\":6272:6489  if (!hasRole(role, account)) {... */\ntag_30:\n    /* \"@openzeppelin/contracts/access/AccessControl.sol\":6473:6478  false */\n  0x00\n    /* \"@openzeppelin/contracts/access/AccessControl.sol\":6466:6478  return false */\n  swap1\n  pop\n    /* \"@openzeppelin/contracts/access/AccessControl.sol\":6179:6495  function _grantRole(bytes32 role, address account) internal virtual returns (bool) {... */\ntag_27:\n  swap3\n  swap2\n  pop\n  pop\n  jump\t// out\n    /* \"@openzeppelin/contracts/token/ERC20/ERC20.sol\":3002:3084  function decimals() public view virtual returns (uint8) {... */\ntag_18:\n    /* \"@openzeppelin/contracts/token/ERC20/ERC20.sol\":3051:3056  uint8 */\n  0x00\n    /* \"@openzeppelin/contracts/token/ERC20/ERC20.sol\":3075:3077  18 */\n  0x12\n    /* \"@openzeppelin/contracts/token/ERC20/ERC20.sol\":3068:3077  return 18 */\n  swap1\n  pop\n    /* \"@openzeppelin/contracts/token/ERC20/ERC20.sol\":3002:3084  function decimals() public view virtual returns (uint8) {... */\n  swap1\n  jump\t// out\n    /* \"@openzeppelin/contracts/token/ERC20/ERC20.sol\":7721:7929  function _mint(address account, uint256 value) internal {... */\ntag_25:\n    /* \"@openzeppelin/contracts/token/ERC20/ERC20.sol\":7810:7811  0 */\n  0x00\n    /* \"@openzeppelin/contracts/token/ERC20/ERC20.sol\":7791:7812  account == address(0) */\n  0xffffffffffffffffffffffffffffffffffffffff\n  and\n    /* \"@openzeppelin/contracts/token/ERC20/ERC20.sol\":7791:7798  account */\n  dup3\n    /* \"@openzeppelin/contracts/token/ERC20/ERC20.sol\":7791:7812  account == address(0) */\n  0xffffffffffffffffffffffffffffffffffffffff\n  and\n  sub\n    /* \"@openzeppelin/contracts/token/ERC20/ERC20.sol\":7787:7878  if (account == address(0)) {... */\n  tag_36\n  jumpi\n    /* \"@openzeppelin/contracts/token/ERC20/ERC20.sol\":7864:7865  0 */\n  0x00\n    /* \"@openzeppelin/contracts/token/ERC20/ERC20.sol\":7835:7867  ERC20InvalidReceiver(address(0)) */\n  mload(0x40)\n  0xec442f0500000000000000000000000000000000000000000000000000000000\n  dup2\n  mstore\n  0x04\n  add\n  tag_37\n  swap2\n  swap1\n  tag_38\n  jump\t// in\ntag_37:\n  mload(0x40)\n  dup1\n  swap2\n  sub\n  swap1\n  revert\n    /* \"@openzeppelin/contracts/token/ERC20/ERC20.sol\":7787:7878  if (account == address(0)) {... */\ntag_36:\n    /* \"@openzeppelin/contracts/token/ERC20/ERC20.sol\":7887:7922  _update(address(0), account, value) */\n  tag_39\n    /* \"@openzeppelin/contracts/token/ERC20/ERC20.sol\":7903:7904  0 */\n  0x00\n    /* \"@openzeppelin/contracts/token/ERC20/ERC20.sol\":7907:7914  account */\n  dup4\n    /* \"@openzeppelin/contracts/token/ERC20/ERC20.sol\":7916:7921  value */\n  dup4\n    /* \"@openzeppelin/contracts/token/ERC20/ERC20.sol\":7887:7894  _update */\n  shl(0x20, tag_40)\n    /* \"@openzeppelin/contracts/token/ERC20/ERC20.sol\":7887:7922  _update(address(0), account, value) */\n  0x20\n  shr\n  jump\t// in\ntag_39:\n    /* \"@openzeppelin/contracts/token/ERC20/ERC20.sol\":7721:7929  function _mint(address account, uint256 value) internal {... */\n  pop\n  pop\n  jump\t// out\n    /* \"@openzeppelin/contracts/access/AccessControl.sol\":2854:2990  function hasRole(bytes32 role, address account) public view virtual returns (bool) {... */\ntag_29:\n    /* \"@openzeppelin/contracts/access/AccessControl.sol\":2931:2935  bool */\n  0x00\n    /* \"@openzeppelin/contracts/access/AccessControl.sol\":2954:2960  _roles */\n  0x06\n    /* \"@openzeppelin/contracts/access/AccessControl.sol\":2954:2966  _roles[role] */\n  0x00\n    /* \"@openzeppelin/contracts/access/AccessControl.sol\":2961:2965  role */\n  dup5\n    /* \"@openzeppelin/contracts/access/AccessControl.sol\":2954:2966  _roles[role] */\n  dup2\n  mstore\n  0x20\n  add\n  swap1\n  dup2\n  mstore\n  0x20\n  add\n  0x00\n  keccak256\n    /* \"@openzeppelin/contracts/access/AccessControl.sol\":2954:2974  _roles[role].hasRole */\n  0x00\n  add\n    /* \"@openzeppelin/contracts/access/AccessControl.sol\":2954:2983  _roles[role].hasRole[account] */\n  0x00\n    /* \"@openzeppelin/contracts/access/AccessControl.sol\":2975:2982  account */\n  dup4\n    /* \"@openzeppelin/contracts/access/AccessControl.sol\":2954:2983  _roles[role].hasRole[account] */\n  0xffffffffffffffffffffffffffffffffffffffff\n  and\n  0xffffffffffffffffffffffffffffffffffffffff\n  and\n  dup2\n  mstore\n  0x20\n  add\n  swap1\n  dup2\n  mstore\n  0x20\n  add\n  0x00\n  keccak256\n  0x00\n  swap1\n  sload\n  swap1\n  0x0100\n  exp\n  swap1\n  div\n  0xff\n  and\n    /* \"@openzeppelin/contracts/access/AccessControl.sol\":2947:2983  return _roles[role].hasRole[account] */\n  swap1\n  pop\n    /* \"@openzeppelin/contracts/access/AccessControl.sol\":2854:2990  function hasRole(bytes32 role, address account) public view virtual returns (bool) {... */\n  swap3\n  swap2\n  pop\n  pop\n  jump\t// out\n    /* \"@openzeppelin/contracts/utils/Context.sol\":656:752  function _msgSender() internal view virtual returns (address) {... */\ntag_32:\n    /* \"@openzeppelin/contracts/utils/Context.sol\":709:716  address */\n  0x00\n    /* \"@openzeppelin/contracts/utils/Context.sol\":735:745  msg.sender */\n  caller\n    /* \"@openzeppelin/contracts/utils/Context.sol\":728:745  return msg.sender */\n  swap1\n  pop\n    /* \"@openzeppelin/contracts/utils/Context.sol\":656:752  function _msgSender() internal view virtual returns (address) {... */\n  swap1\n  jump\t// out\n    /* \"contracts/BonDeFiToken.sol\":3129:3294  function _update(address from, address to, uint256 value)... */\ntag_40:\n    /* \"contracts/BonDeFiToken.sol\":3257:3287  super._update(from, to, value) */\n  tag_44\n    /* \"contracts/BonDeFiToken.sol\":3271:3275  from */\n  dup4\n    /* \"contracts/BonDeFiToken.sol\":3277:3279  to */\n  dup4\n    /* \"contracts/BonDeFiToken.sol\":3281:3286  value */\n  dup4\n    /* \"contracts/BonDeFiToken.sol\":3257:3270  super._update */\n  shl(0x20, tag_45)\n    /* \"contracts/BonDeFiToken.sol\":3257:3287  super._update(from, to, value) */\n  0x20\n  shr\n  jump\t// in\ntag_44:\n    /* \"contracts/BonDeFiToken.sol\":3129:3294  function _update(address from, address to, uint256 value)... */\n  pop\n  pop\n  pop\n  jump\t// out\n    /* \"@openzeppelin/contracts/token/ERC20/extensions/ERC20Pausable.sol\":1112:1257  function _update(address from, address to, uint256 value) internal virtual override whenNotPaused {... */\ntag_45:\n    /* \"@openzeppelin/contracts/utils/Pausable.sol\":1474:1493  _requireNotPaused() */\n  tag_47\n    /* \"@openzeppelin/contracts/utils/Pausable.sol\":1474:1491  _requireNotPaused */\n  shl(0x20, tag_48)\n    /* \"@openzeppelin/contracts/utils/Pausable.sol\":1474:1493  _requireNotPaused() */\n  0x20\n  shr\n  jump\t// in\ntag_47:\n    /* \"@openzeppelin/contracts/token/ERC20/extensions/ERC20Pausable.sol\":1220:1250  super._update(from, to, value) */\n  tag_50\n    /* \"@openzeppelin/contracts/token/ERC20/extensions/ERC20Pausable.sol\":1234:1238  from */\n  dup4\n    /* \"@openzeppelin/contracts/token/ERC20/extensions/ERC20Pausable.sol\":1240:1242  to */\n  dup4\n    /* \"@openzeppelin/contracts/token/ERC20/extensions/ERC20Pausable.sol\":1244:1249  value */\n  dup4\n    /* \"@openzeppelin/contracts/token/ERC20/extensions/ERC20Pausable.sol\":1220:1233  super._update */\n  shl(0x20, tag_51)\n    /* \"@openzeppelin/contracts/token/ERC20/extensions/ERC20Pausable.sol\":1220:1250  super._update(from, to, value) */\n  0x20\n  shr\n  jump\t// in\ntag_50:\n    /* \"@openzeppelin/contracts/token/ERC20/extensions/ERC20Pausable.sol\":1112:1257  function _update(address from, address to, uint256 value) internal virtual override whenNotPaused {... */\n  pop\n  pop\n  pop\n  jump\t// out\n    /* \"@openzeppelin/contracts/utils/Pausable.sol\":2002:2130  function _requireNotPaused() internal view virtual {... */\ntag_48:\n    /* \"@openzeppelin/contracts/utils/Pausable.sol\":2067:2075  paused() */\n  tag_53\n    /* \"@openzeppelin/contracts/utils/Pausable.sol\":2067:2073  paused */\n  shl(0x20, tag_54)\n    /* \"@openzeppelin/contracts/utils/Pausable.sol\":2067:2075  paused() */\n  0x20\n  shr\n  jump\t// in\ntag_53:\n    /* \"@openzeppelin/contracts/utils/Pausable.sol\":2063:2124  if (paused()) {... */\n  iszero\n  tag_55\n  jumpi\n    /* \"@openzeppelin/contracts/utils/Pausable.sol\":2098:2113  EnforcedPause() */\n  mload(0x40)\n  0xd93c066500000000000000000000000000000000000000000000000000000000\n  dup2\n  mstore\n  0x04\n  add\n  mload(0x40)\n  dup1\n  swap2\n  sub\n  swap1\n  revert\n    /* \"@openzeppelin/contracts/utils/Pausable.sol\":2063:2124  if (paused()) {... */\ntag_55:\n    /* \"@openzeppelin/contracts/utils/Pausable.sol\":2002:2130  function _requireNotPaused() internal view virtual {... */\n  jump\t// out\n    /* \"@openzeppelin/contracts/token/ERC20/ERC20.sol\":6271:7378  function _update(address from, address to, uint256 value) internal virtual {... */\ntag_51:\n    /* \"@openzeppelin/contracts/token/ERC20/ERC20.sol\":6376:6377  0 */\n  0x00\n    /* \"@openzeppelin/contracts/token/ERC20/ERC20.sol\":6360:6378  from == address(0) */\n  0xffffffffffffffffffffffffffffffffffffffff\n  and\n    /* \"@openzeppelin/contracts/token/ERC20/ERC20.sol\":6360:6364  from */\n  dup4\n    /* \"@openzeppelin/contracts/token/ERC20/ERC20.sol\":6360:6378  from == address(0) */\n  0xffffffffffffffffffffffffffffffffffffffff\n  and\n  sub\n    /* \"@openzeppelin/contracts/token/ERC20/ERC20.sol\":6356:6896  if (from == address(0)) {... */\n  tag_57\n  jumpi\n    /* \"@openzeppelin/contracts/token/ERC20/ERC20.sol\":6512:6517  value */\n  dup1\n    /* \"@openzeppelin/contracts/token/ERC20/ERC20.sol\":6496:6508  _totalSupply */\n  0x02\n  0x00\n    /* \"@openzeppelin/contracts/token/ERC20/ERC20.sol\":6496:6517  _totalSupply += value */\n  dup3\n  dup3\n  sload\n  tag_58\n  swap2\n  swap1\n  tag_59\n  jump\t// in\ntag_58:\n  swap3\n  pop\n  pop\n  dup2\n  swap1\n  sstore\n  pop\n    /* \"@openzeppelin/contracts/token/ERC20/ERC20.sol\":6356:6896  if (from == address(0)) {... */\n  jump(tag_60)\ntag_57:\n    /* \"@openzeppelin/contracts/token/ERC20/ERC20.sol\":6548:6567  uint256 fromBalance */\n  0x00\n    /* \"@openzeppelin/contracts/token/ERC20/ERC20.sol\":6570:6579  _balances */\n  dup1\n    /* \"@openzeppelin/contracts/token/ERC20/ERC20.sol\":6570:6585  _balances[from] */\n  0x00\n    /* \"@openzeppelin/contracts/token/ERC20/ERC20.sol\":6580:6584  from */\n  dup6\n    /* \"@openzeppelin/contracts/token/ERC20/ERC20.sol\":6570:6585  _balances[from] */\n  0xffffffffffffffffffffffffffffffffffffffff\n  and\n  0xffffffffffffffffffffffffffffffffffffffff\n  and\n  dup2\n  mstore\n  0x20\n  add\n  swap1\n  dup2\n  mstore\n  0x20\n  add\n  0x00\n  keccak256\n  sload\n    /* \"@openzeppelin/contracts/token/ERC20/ERC20.sol\":6548:6585  uint256 fromBalance = _balances[from] */\n  swap1\n  pop\n    /* \"@openzeppelin/contracts/token/ERC20/ERC20.sol\":6617:6622  value */\n  dup2\n    /* \"@openzeppelin/contracts/token/ERC20/ERC20.sol\":6603:6614  fromBalance */\n  dup2\n    /* \"@openzeppelin/contracts/token/ERC20/ERC20.sol\":6603:6622  fromBalance < value */\n  lt\n    /* \"@openzeppelin/contracts/token/ERC20/ERC20.sol\":6599:6714  if (fromBalance < value) {... */\n  iszero\n  tag_61\n  jumpi\n    /* \"@openzeppelin/contracts/token/ERC20/ERC20.sol\":6674:6678  from */\n  dup4\n    /* \"@openzeppelin/contracts/token/ERC20/ERC20.sol\":6680:6691  fromBalance */\n  dup2\n    /* \"@openzeppelin/contracts/token/ERC20/ERC20.sol\":6693:6698  value */\n  dup4\n    /* \"@openzeppelin/contracts/token/ERC20/ERC20.sol\":6649:6699  ERC20InsufficientBalance(from, fromBalance, value) */\n  mload(0x40)\n  0xe450d38c00000000000000000000000000000000000000000000000000000000\n  dup2\n  mstore\n  0x04\n  add\n  tag_62\n  swap4\n  swap3\n  swap2\n  swap1\n  tag_63\n  jump\t// in\ntag_62:\n  mload(0x40)\n  dup1\n  swap2\n  sub\n  swap1\n  revert\n    /* \"@openzeppelin/contracts/token/ERC20/ERC20.sol\":6599:6714  if (fromBalance < value) {... */\ntag_61:\n    /* \"@openzeppelin/contracts/token/ERC20/ERC20.sol\":6866:6871  value */\n  dup2\n    /* \"@openzeppelin/contracts/token/ERC20/ERC20.sol\":6852:6863  fromBalance */\n  dup2\n    /* \"@openzeppelin/contracts/token/ERC20/ERC20.sol\":6852:6871  fromBalance - value */\n  sub\n    /* \"@openzeppelin/contracts/token/ERC20/ERC20.sol\":6834:6843  _balances */\n  0x00\n    /* \"@openzeppelin/contracts/token/ERC20/ERC20.sol\":6834:6849  _balances[from] */\n  dup1\n    /* \"@openzeppelin/contracts/token/ERC20/ERC20.sol\":6844:6848  from */\n  dup7\n    /* \"@openzeppelin/contracts/token/ERC20/ERC20.sol\":6834:6849  _balances[from] */\n  0xffffffffffffffffffffffffffffffffffffffff\n  and\n  0xffffffffffffffffffffffffffffffffffffffff\n  and\n  dup2\n  mstore\n  0x20\n  add\n  swap1\n  dup2\n  mstore\n  0x20\n  add\n  0x00\n  keccak256\n    /* \"@openzeppelin/contracts/token/ERC20/ERC20.sol\":6834:6871  _balances[from] = fromBalance - value */\n  dup2\n  swap1\n  sstore\n  pop\n    /* \"@openzeppelin/contracts/token/ERC20/ERC20.sol\":6534:6896  {... */\n  pop\n    /* \"@openzeppelin/contracts/token/ERC20/ERC20.sol\":6356:6896  if (from == address(0)) {... */\ntag_60:\n    /* \"@openzeppelin/contracts/token/ERC20/ERC20.sol\":6924:6925  0 */\n  0x00\n    /* \"@openzeppelin/contracts/token/ERC20/ERC20.sol\":6910:6926  to == address(0) */\n  0xffffffffffffffffffffffffffffffffffffffff\n  and\n    /* \"@openzeppelin/contracts/token/ERC20/ERC20.sol\":6910:6912  to */\n  dup3\n    /* \"@openzeppelin/contracts/token/ERC20/ERC20.sol\":6910:6926  to == address(0) */\n  0xffffffffffffffffffffffffffffffffffffffff\n  and\n  sub\n    /* \"@openzeppelin/contracts/token/ERC20/ERC20.sol\":6906:7331  if (to == address(0)) {... */\n  tag_64\n  jumpi\n    /* \"@openzeppelin/contracts/token/ERC20/ERC20.sol\":7089:7094  value */\n  dup1\n    /* \"@openzeppelin/contracts/token/ERC20/ERC20.sol\":7073:7085  _totalSupply */\n  0x02\n  0x00\n    /* \"@openzeppelin/contracts/token/ERC20/ERC20.sol\":7073:7094  _totalSupply -= value */\n  dup3\n  dup3\n  sload\n  sub\n  swap3\n  pop\n  pop\n  dup2\n  swap1\n  sstore\n  pop\n    /* \"@openzeppelin/contracts/token/ERC20/ERC20.sol\":6906:7331  if (to == address(0)) {... */\n  jump(tag_65)\ntag_64:\n    /* \"@openzeppelin/contracts/token/ERC20/ERC20.sol\":7301:7306  value */\n  dup1\n    /* \"@openzeppelin/contracts/token/ERC20/ERC20.sol\":7284:7293  _balances */\n  0x00\n    /* \"@openzeppelin/contracts/token/ERC20/ERC20.sol\":7284:7297  _balances[to] */\n  dup1\n    /* \"@openzeppelin/contracts/token/ERC20/ERC20.sol\":7294:7296  to */\n  dup5\n    /* \"@openzeppelin/contracts/token/ERC20/ERC20.sol\":7284:7297  _balances[to] */\n  0xffffffffffffffffffffffffffffffffffffffff\n  and\n  0xffffffffffffffffffffffffffffffffffffffff\n  and\n  dup2\n  mstore\n  0x20\n  add\n  swap1\n  dup2\n  mstore\n  0x20\n  add\n  0x00\n  keccak256\n  0x00\n    /* \"@openzeppelin/contracts/token/ERC20/ERC20.sol\":7284:7306  _balances[to] += value */\n  dup3\n  dup3\n  sload\n  add\n  swap3\n  pop\n  pop\n  dup2\n  swap1\n  sstore\n  pop\n    /* \"@openzeppelin/contracts/token/ERC20/ERC20.sol\":6906:7331  if (to == address(0)) {... */\ntag_65:\n    /* \"@openzeppelin/contracts/token/ERC20/ERC20.sol\":7361:7363  to */\n  dup2\n    /* \"@openzeppelin/contracts/token/ERC20/ERC20.sol\":7346:7371  Transfer(from, to, value) */\n  0xffffffffffffffffffffffffffffffffffffffff\n  and\n    /* \"@openzeppelin/contracts/token/ERC20/ERC20.sol\":7355:7359  from */\n  dup4\n    /* \"@openzeppelin/contracts/token/ERC20/ERC20.sol\":7346:7371  Transfer(from, to, value) */\n  0xffffffffffffffffffffffffffffffffffffffff\n  and\n  0xddf252ad1be2c89b69c2b068fc378daa952ba7f163c4a11628f55a4df523b3ef\n    /* \"@openzeppelin/contracts/token/ERC20/ERC20.sol\":7365:7370  value */\n  dup4\n    /* \"@openzeppelin/contracts/token/ERC20/ERC20.sol\":7346:7371  Transfer(from, to, value) */\n  mload(0x40)\n  tag_66\n  swap2\n  swap1\n  tag_67\n  jump\t// in\ntag_66:\n  mload(0x40)\n  dup1\n  swap2\n  sub\n  swap1\n  log3\n    /* \"@openzeppelin/contracts/token/ERC20/ERC20.sol\":6271:7378  function _update(address from, address to, uint256 value) internal virtual {... */\n  pop\n  pop\n  pop\n  jump\t// out\n    /* \"@openzeppelin/contracts/utils/Pausable.sol\":1850:1934  function paused() public view virtual returns (bool) {... */\ntag_54:\n    /* \"@openzeppelin/contracts/utils/Pausable.sol\":1897:1901  bool */\n  0x00\n    /* \"@openzeppelin/contracts/utils/Pausable.sol\":1920:1927  _paused */\n  0x05\n  0x00\n  swap1\n  sload\n  swap1\n  0x0100\n  exp\n  swap1\n  div\n  0xff\n  and\n    /* \"@openzeppelin/contracts/utils/Pausable.sol\":1913:1927  return _paused */\n  swap1\n  pop\n    /* \"@openzeppelin/contracts/utils/Pausable.sol\":1850:1934  function paused() public view virtual returns (bool) {... */\n  swap1\n  jump\t// out\n    /* \"#utility.yul\":88:205   */\ntag_70:\n    /* \"#utility.yul\":197:198   */\n  0x00\n    /* \"#utility.yul\":194:195   */\n  dup1\n    /* \"#utility.yul\":187:199   */\n  revert\n    /* \"#utility.yul\":334:460   */\ntag_72:\n    /* \"#utility.yul\":371:378   */\n  0x00\n    /* \"#utility.yul\":411:453   */\n  0xffffffffffffffffffffffffffffffffffffffff\n    /* \"#utility.yul\":404:409   */\n  dup3\n    /* \"#utility.yul\":400:454   */\n  and\n    /* \"#utility.yul\":389:454   */\n  swap1\n  pop\n    /* \"#utility.yul\":334:460   */\n  swap2\n  swap1\n  pop\n  jump\t// out\n    /* \"#utility.yul\":466:562   */\ntag_73:\n    /* \"#utility.yul\":503:510   */\n  0x00\n    /* \"#utility.yul\":532:556   */\n  tag_112\n    /* \"#utility.yul\":550:555   */\n  dup3\n    /* \"#utility.yul\":532:556   */\n  tag_72\n  jump\t// in\ntag_112:\n    /* \"#utility.yul\":521:556   */\n  swap1\n  pop\n    /* \"#utility.yul\":466:562   */\n  swap2\n  swap1\n  pop\n  jump\t// out\n    /* \"#utility.yul\":568:690   */\ntag_74:\n    /* \"#utility.yul\":641:665   */\n  tag_114\n    /* \"#utility.yul\":659:664   */\n  dup2\n    /* \"#utility.yul\":641:665   */\n  tag_73\n  jump\t// in\ntag_114:\n    /* \"#utility.yul\":634:639   */\n  dup2\n    /* \"#utility.yul\":631:666   */\n  eq\n    /* \"#utility.yul\":621:684   */\n  tag_115\n  jumpi\n    /* \"#utility.yul\":680:681   */\n  0x00\n    /* \"#utility.yul\":677:678   */\n  dup1\n    /* \"#utility.yul\":670:682   */\n  revert\n    /* \"#utility.yul\":621:684   */\ntag_115:\n    /* \"#utility.yul\":568:690   */\n  pop\n  jump\t// out\n    /* \"#utility.yul\":696:839   */\ntag_75:\n    /* \"#utility.yul\":753:758   */\n  0x00\n    /* \"#utility.yul\":784:790   */\n  dup2\n    /* \"#utility.yul\":778:791   */\n  mload\n    /* \"#utility.yul\":769:791   */\n  swap1\n  pop\n    /* \"#utility.yul\":800:833   */\n  tag_117\n    /* \"#utility.yul\":827:832   */\n  dup2\n    /* \"#utility.yul\":800:833   */\n  tag_74\n  jump\t// in\ntag_117:\n    /* \"#utility.yul\":696:839   */\n  swap3\n  swap2\n  pop\n  pop\n  jump\t// out\n    /* \"#utility.yul\":845:922   */\ntag_76:\n    /* \"#utility.yul\":882:889   */\n  0x00\n    /* \"#utility.yul\":911:916   */\n  dup2\n    /* \"#utility.yul\":900:916   */\n  swap1\n  pop\n    /* \"#utility.yul\":845:922   */\n  swap2\n  swap1\n  pop\n  jump\t// out\n    /* \"#utility.yul\":928:1050   */\ntag_77:\n    /* \"#utility.yul\":1001:1025   */\n  tag_120\n    /* \"#utility.yul\":1019:1024   */\n  dup2\n    /* \"#utility.yul\":1001:1025   */\n  tag_76\n  jump\t// in\ntag_120:\n    /* \"#utility.yul\":994:999   */\n  dup2\n    /* \"#utility.yul\":991:1026   */\n  eq\n    /* \"#utility.yul\":981:1044   */\n  tag_121\n  jumpi\n    /* \"#utility.yul\":1040:1041   */\n  0x00\n    /* \"#utility.yul\":1037:1038   */\n  dup1\n    /* \"#utility.yul\":1030:1042   */\n  revert\n    /* \"#utility.yul\":981:1044   */\ntag_121:\n    /* \"#utility.yul\":928:1050   */\n  pop\n  jump\t// out\n    /* \"#utility.yul\":1056:1199   */\ntag_78:\n    /* \"#utility.yul\":1113:1118   */\n  0x00\n    /* \"#utility.yul\":1144:1150   */\n  dup2\n    /* \"#utility.yul\":1138:1151   */\n  mload\n    /* \"#utility.yul\":1129:1151   */\n  swap1\n  pop\n    /* \"#utility.yul\":1160:1193   */\n  tag_123\n    /* \"#utility.yul\":1187:1192   */\n  dup2\n    /* \"#utility.yul\":1160:1193   */\n  tag_77\n  jump\t// in\ntag_123:\n    /* \"#utility.yul\":1056:1199   */\n  swap3\n  swap2\n  pop\n  pop\n  jump\t// out\n    /* \"#utility.yul\":1205:2496   */\ntag_3:\n    /* \"#utility.yul\":1329:1335   */\n  0x00\n    /* \"#utility.yul\":1337:1343   */\n  dup1\n    /* \"#utility.yul\":1345:1351   */\n  0x00\n    /* \"#utility.yul\":1353:1359   */\n  dup1\n    /* \"#utility.yul\":1361:1367   */\n  0x00\n    /* \"#utility.yul\":1369:1375   */\n  dup1\n    /* \"#utility.yul\":1377:1383   */\n  0x00\n    /* \"#utility.yul\":1426:1429   */\n  0xe0\n    /* \"#utility.yul\":1414:1423   */\n  dup9\n    /* \"#utility.yul\":1405:1412   */\n  dup11\n    /* \"#utility.yul\":1401:1424   */\n  sub\n    /* \"#utility.yul\":1397:1430   */\n  slt\n    /* \"#utility.yul\":1394:1514   */\n  iszero\n  tag_125\n  jumpi\n    /* \"#utility.yul\":1433:1512   */\n  tag_126\n  tag_70\n  jump\t// in\ntag_126:\n    /* \"#utility.yul\":1394:1514   */\ntag_125:\n    /* \"#utility.yul\":1553:1554   */\n  0x00\n    /* \"#utility.yul\":1578:1642   */\n  tag_127\n    /* \"#utility.yul\":1634:1641   */\n  dup11\n    /* \"#utility.yul\":1625:1631   */\n  dup3\n    /* \"#utility.yul\":1614:1623   */\n  dup12\n    /* \"#utility.yul\":1610:1632   */\n  add\n    /* \"#utility.yul\":1578:1642   */\n  tag_75\n  jump\t// in\ntag_127:\n    /* \"#utility.yul\":1568:1642   */\n  swap8\n  pop\n    /* \"#utility.yul\":1524:1652   */\n  pop\n    /* \"#utility.yul\":1691:1693   */\n  0x20\n    /* \"#utility.yul\":1717:1781   */\n  tag_128\n    /* \"#utility.yul\":1773:1780   */\n  dup11\n    /* \"#utility.yul\":1764:1770   */\n  dup3\n    /* \"#utility.yul\":1753:1762   */\n  dup12\n    /* \"#utility.yul\":1749:1771   */\n  add\n    /* \"#utility.yul\":1717:1781   */\n  tag_75\n  jump\t// in\ntag_128:\n    /* \"#utility.yul\":1707:1781   */\n  swap7\n  pop\n    /* \"#utility.yul\":1662:1791   */\n  pop\n    /* \"#utility.yul\":1830:1832   */\n  0x40\n    /* \"#utility.yul\":1856:1920   */\n  tag_129\n    /* \"#utility.yul\":1912:1919   */\n  dup11\n    /* \"#utility.yul\":1903:1909   */\n  dup3\n    /* \"#utility.yul\":1892:1901   */\n  dup12\n    /* \"#utility.yul\":1888:1910   */\n  add\n    /* \"#utility.yul\":1856:1920   */\n  tag_75\n  jump\t// in\ntag_129:\n    /* \"#utility.yul\":1846:1920   */\n  swap6\n  pop\n    /* \"#utility.yul\":1801:1930   */\n  pop\n    /* \"#utility.yul\":1969:1971   */\n  0x60\n    /* \"#utility.yul\":1995:2059   */\n  tag_130\n    /* \"#utility.yul\":2051:2058   */\n  dup11\n    /* \"#utility.yul\":2042:2048   */\n  dup3\n    /* \"#utility.yul\":2031:2040   */\n  dup12\n    /* \"#utility.yul\":2027:2049   */\n  add\n    /* \"#utility.yul\":1995:2059   */\n  tag_75\n  jump\t// in\ntag_130:\n    /* \"#utility.yul\":1985:2059   */\n  swap5\n  pop\n    /* \"#utility.yul\":1940:2069   */\n  pop\n    /* \"#utility.yul\":2108:2111   */\n  0x80\n    /* \"#utility.yul\":2135:2199   */\n  tag_131\n    /* \"#utility.yul\":2191:2198   */\n  dup11\n    /* \"#utility.yul\":2182:2188   */\n  dup3\n    /* \"#utility.yul\":2171:2180   */\n  dup12\n    /* \"#utility.yul\":2167:2189   */\n  add\n    /* \"#utility.yul\":2135:2199   */\n  tag_78\n  jump\t// in\ntag_131:\n    /* \"#utility.yul\":2125:2199   */\n  swap4\n  pop\n    /* \"#utility.yul\":2079:2209   */\n  pop\n    /* \"#utility.yul\":2248:2251   */\n  0xa0\n    /* \"#utility.yul\":2275:2339   */\n  tag_132\n    /* \"#utility.yul\":2331:2338   */\n  dup11\n    /* \"#utility.yul\":2322:2328   */\n  dup3\n    /* \"#utility.yul\":2311:2320   */\n  dup12\n    /* \"#utility.yul\":2307:2329   */\n  add\n    /* \"#utility.yul\":2275:2339   */\n  tag_78\n  jump\t// in\ntag_132:\n    /* \"#utility.yul\":2265:2339   */\n  swap3\n  pop\n    /* \"#utility.yul\":2219:2349   */\n  pop\n    /* \"#utility.yul\":2388:2391   */\n  0xc0\n    /* \"#utility.yul\":2415:2479   */\n  tag_133\n    /* \"#utility.yul\":2471:2478   */\n  dup11\n    /* \"#utility.yul\":2462:2468   */\n  dup3\n    /* \"#utility.yul\":2451:2460   */\n  dup12\n    /* \"#utility.yul\":2447:2469   */\n  add\n    /* \"#utility.yul\":2415:2479   */\n  tag_78\n  jump\t// in\ntag_133:\n    /* \"#utility.yul\":2405:2479   */\n  swap2\n  pop\n    /* \"#utility.yul\":2359:2489   */\n  pop\n    /* \"#utility.yul\":1205:2496   */\n  swap3\n  swap6\n  swap9\n  swap2\n  swap5\n  swap8\n  pop\n  swap3\n  swap6\n  pop\n  jump\t// out\n    /* \"#utility.yul\":2502:2601   */\ntag_79:\n    /* \"#utility.yul\":2554:2560   */\n  0x00\n    /* \"#utility.yul\":2588:2593   */\n  dup2\n    /* \"#utility.yul\":2582:2594   */\n  mload\n    /* \"#utility.yul\":2572:2594   */\n  swap1\n  pop\n    /* \"#utility.yul\":2502:2601   */\n  swap2\n  swap1\n  pop\n  jump\t// out\n    /* \"#utility.yul\":2607:2787   */\ntag_80:\n    /* \"#utility.yul\":2655:2732   */\n  0x4e487b7100000000000000000000000000000000000000000000000000000000\n    /* \"#utility.yul\":2652:2653   */\n  0x00\n    /* \"#utility.yul\":2645:2733   */\n  mstore\n    /* \"#utility.yul\":2752:2756   */\n  0x41\n    /* \"#utility.yul\":2749:2750   */\n  0x04\n    /* \"#utility.yul\":2742:2757   */\n  mstore\n    /* \"#utility.yul\":2776:2780   */\n  0x24\n    /* \"#utility.yul\":2773:2774   */\n  0x00\n    /* \"#utility.yul\":2766:2781   */\n  revert\n    /* \"#utility.yul\":2793:2973   */\ntag_81:\n    /* \"#utility.yul\":2841:2918   */\n  0x4e487b7100000000000000000000000000000000000000000000000000000000\n    /* \"#utility.yul\":2838:2839   */\n  0x00\n    /* \"#utility.yul\":2831:2919   */\n  mstore\n    /* \"#utility.yul\":2938:2942   */\n  0x22\n    /* \"#utility.yul\":2935:2936   */\n  0x04\n    /* \"#utility.yul\":2928:2943   */\n  mstore\n    /* \"#utility.yul\":2962:2966   */\n  0x24\n    /* \"#utility.yul\":2959:2960   */\n  0x00\n    /* \"#utility.yul\":2952:2967   */\n  revert\n    /* \"#utility.yul\":2979:3299   */\ntag_82:\n    /* \"#utility.yul\":3023:3029   */\n  0x00\n    /* \"#utility.yul\":3060:3061   */\n  0x02\n    /* \"#utility.yul\":3054:3058   */\n  dup3\n    /* \"#utility.yul\":3050:3062   */\n  div\n    /* \"#utility.yul\":3040:3062   */\n  swap1\n  pop\n    /* \"#utility.yul\":3107:3108   */\n  0x01\n    /* \"#utility.yul\":3101:3105   */\n  dup3\n    /* \"#utility.yul\":3097:3109   */\n  and\n    /* \"#utility.yul\":3128:3146   */\n  dup1\n    /* \"#utility.yul\":3118:3199   */\n  tag_138\n  jumpi\n    /* \"#utility.yul\":3184:3188   */\n  0x7f\n    /* \"#utility.yul\":3176:3182   */\n  dup3\n    /* \"#utility.yul\":3172:3189   */\n  and\n    /* \"#utility.yul\":3162:3189   */\n  swap2\n  pop\n    /* \"#utility.yul\":3118:3199   */\ntag_138:\n    /* \"#utility.yul\":3246:3248   */\n  0x20\n    /* \"#utility.yul\":3238:3244   */\n  dup3\n    /* \"#utility.yul\":3235:3249   */\n  lt\n    /* \"#utility.yul\":3215:3233   */\n  dup2\n    /* \"#utility.yul\":3212:3250   */\n  sub\n    /* \"#utility.yul\":3209:3293   */\n  tag_139\n  jumpi\n    /* \"#utility.yul\":3265:3283   */\n  tag_140\n  tag_81\n  jump\t// in\ntag_140:\n    /* \"#utility.yul\":3209:3293   */\ntag_139:\n    /* \"#utility.yul\":3030:3299   */\n  pop\n    /* \"#utility.yul\":2979:3299   */\n  swap2\n  swap1\n  pop\n  jump\t// out\n    /* \"#utility.yul\":3305:3446   */\ntag_83:\n    /* \"#utility.yul\":3354:3358   */\n  0x00\n    /* \"#utility.yul\":3377:3380   */\n  dup2\n    /* \"#utility.yul\":3369:3380   */\n  swap1\n  pop\n    /* \"#utility.yul\":3400:3403   */\n  dup2\n    /* \"#utility.yul\":3397:3398   */\n  0x00\n    /* \"#utility.yul\":3390:3404   */\n  mstore\n    /* \"#utility.yul\":3434:3438   */\n  0x20\n    /* \"#utility.yul\":3431:3432   */\n  0x00\n    /* \"#utility.yul\":3421:3439   */\n  keccak256\n    /* \"#utility.yul\":3413:3439   */\n  swap1\n  pop\n    /* \"#utility.yul\":3305:3446   */\n  swap2\n  swap1\n  pop\n  jump\t// out\n    /* \"#utility.yul\":3452:3545   */\ntag_84:\n    /* \"#utility.yul\":3489:3495   */\n  0x00\n    /* \"#utility.yul\":3536:3538   */\n  0x20\n    /* \"#utility.yul\":3531:3533   */\n  0x1f\n    /* \"#utility.yul\":3524:3529   */\n  dup4\n    /* \"#utility.yul\":3520:3534   */\n  add\n    /* \"#utility.yul\":3516:3539   */\n  div\n    /* \"#utility.yul\":3506:3539   */\n  swap1\n  pop\n    /* \"#utility.yul\":3452:3545   */\n  swap2\n  swap1\n  pop\n  jump\t// out\n    /* \"#utility.yul\":3551:3658   */\ntag_85:\n    /* \"#utility.yul\":3595:3603   */\n  0x00\n    /* \"#utility.yul\":3645:3650   */\n  dup3\n    /* \"#utility.yul\":3639:3643   */\n  dup3\n    /* \"#utility.yul\":3635:3651   */\n  shl\n    /* \"#utility.yul\":3614:3651   */\n  swap1\n  pop\n    /* \"#utility.yul\":3551:3658   */\n  swap3\n  swap2\n  pop\n  pop\n  jump\t// out\n    /* \"#utility.yul\":3664:4057   */\ntag_86:\n    /* \"#utility.yul\":3733:3739   */\n  0x00\n    /* \"#utility.yul\":3783:3784   */\n  0x08\n    /* \"#utility.yul\":3771:3781   */\n  dup4\n    /* \"#utility.yul\":3767:3785   */\n  mul\n    /* \"#utility.yul\":3806:3903   */\n  tag_145\n    /* \"#utility.yul\":3836:3902   */\n  0xffffffffffffffffffffffffffffffffffffffffffffffffffffffffffffffff\n    /* \"#utility.yul\":3825:3834   */\n  dup3\n    /* \"#utility.yul\":3806:3903   */\n  tag_85\n  jump\t// in\ntag_145:\n    /* \"#utility.yul\":3924:3963   */\n  tag_146\n    /* \"#utility.yul\":3954:3962   */\n  dup7\n    /* \"#utility.yul\":3943:3952   */\n  dup4\n    /* \"#utility.yul\":3924:3963   */\n  tag_85\n  jump\t// in\ntag_146:\n    /* \"#utility.yul\":3912:3963   */\n  swap6\n  pop\n    /* \"#utility.yul\":3996:4000   */\n  dup1\n    /* \"#utility.yul\":3992:4001   */\n  not\n    /* \"#utility.yul\":3985:3990   */\n  dup5\n    /* \"#utility.yul\":3981:4002   */\n  and\n    /* \"#utility.yul\":3972:4002   */\n  swap4\n  pop\n    /* \"#utility.yul\":4045:4049   */\n  dup1\n    /* \"#utility.yul\":4035:4043   */\n  dup7\n    /* \"#utility.yul\":4031:4050   */\n  and\n    /* \"#utility.yul\":4024:4029   */\n  dup5\n    /* \"#utility.yul\":4021:4051   */\n  or\n    /* \"#utility.yul\":4011:4051   */\n  swap3\n  pop\n    /* \"#utility.yul\":3740:4057   */\n  pop\n  pop\n    /* \"#utility.yul\":3664:4057   */\n  swap4\n  swap3\n  pop\n  pop\n  pop\n  jump\t// out\n    /* \"#utility.yul\":4063:4123   */\ntag_87:\n    /* \"#utility.yul\":4091:4094   */\n  0x00\n    /* \"#utility.yul\":4112:4117   */\n  dup2\n    /* \"#utility.yul\":4105:4117   */\n  swap1\n  pop\n    /* \"#utility.yul\":4063:4123   */\n  swap2\n  swap1\n  pop\n  jump\t// out\n    /* \"#utility.yul\":4129:4271   */\ntag_88:\n    /* \"#utility.yul\":4179:4188   */\n  0x00\n    /* \"#utility.yul\":4212:4265   */\n  tag_149\n    /* \"#utility.yul\":4230:4264   */\n  tag_150\n    /* \"#utility.yul\":4239:4263   */\n  tag_151\n    /* \"#utility.yul\":4257:4262   */\n  dup5\n    /* \"#utility.yul\":4239:4263   */\n  tag_76\n  jump\t// in\ntag_151:\n    /* \"#utility.yul\":4230:4264   */\n  tag_87\n  jump\t// in\ntag_150:\n    /* \"#utility.yul\":4212:4265   */\n  tag_76\n  jump\t// in\ntag_149:\n    /* \"#utility.yul\":4199:4265   */\n  swap1\n  pop\n    /* \"#utility.yul\":4129:4271   */\n  swap2\n  swap1\n  pop\n  jump\t// out\n    /* \"#utility.yul\":4277:4352   */\ntag_89:\n    /* \"#utility.yul\":4320:4323   */\n  0x00\n    /* \"#utility.yul\":4341:4346   */\n  dup2\n    /* \"#utility.yul\":4334:4346   */\n  swap1\n  pop\n    /* \"#utility.yul\":4277:4352   */\n  swap2\n  swap1\n  pop\n  jump\t// out\n    /* \"#utility.yul\":4358:4627   */\ntag_90:\n    /* \"#utility.yul\":4468:4507   */\n  tag_154\n    /* \"#utility.yul\":4499:4506   */\n  dup4\n    /* \"#utility.yul\":4468:4507   */\n  tag_88\n  jump\t// in\ntag_154:\n    /* \"#utility.yul\":4529:4620   */\n  tag_155\n    /* \"#utility.yul\":4578:4619   */\n  tag_156\n    /* \"#utility.yul\":4602:4618   */\n  dup3\n    /* \"#utility.yul\":4578:4619   */\n  tag_89\n  jump\t// in\ntag_156:\n    /* \"#utility.yul\":4570:4576   */\n  dup5\n    /* \"#utility.yul\":4563:4567   */\n  dup5\n    /* \"#utility.yul\":4557:4568   */\n  sload\n    /* \"#utility.yul\":4529:4620   */\n  tag_86\n  jump\t// in\ntag_155:\n    /* \"#utility.yul\":4523:4527   */\n  dup3\n    /* \"#utility.yul\":4516:4621   */\n  sstore\n    /* \"#utility.yul\":4434:4627   */\n  pop\n    /* \"#utility.yul\":4358:4627   */\n  pop\n  pop\n  pop\n  jump\t// out\n    /* \"#utility.yul\":4633:4706   */\ntag_91:\n    /* \"#utility.yul\":4678:4681   */\n  0x00\n    /* \"#utility.yul\":4633:4706   */\n  swap1\n  jump\t// out\n    /* \"#utility.yul\":4712:4901   */\ntag_92:\n    /* \"#utility.yul\":4789:4821   */\n  tag_159\n  tag_91\n  jump\t// in\ntag_159:\n    /* \"#utility.yul\":4830:4895   */\n  tag_160\n    /* \"#utility.yul\":4888:4894   */\n  dup2\n    /* \"#utility.yul\":4880:4886   */\n  dup5\n    /* \"#utility.yul\":4874:4878   */\n  dup5\n    /* \"#utility.yul\":4830:4895   */\n  tag_90\n  jump\t// in\ntag_160:\n    /* \"#utility.yul\":4765:4901   */\n  pop\n    /* \"#utility.yul\":4712:4901   */\n  pop\n  pop\n  jump\t// out\n    /* \"#utility.yul\":4907:5093   */\ntag_93:\n    /* \"#utility.yul\":4967:5087   */\ntag_162:\n    /* \"#utility.yul\":4984:4987   */\n  dup2\n    /* \"#utility.yul\":4977:4982   */\n  dup2\n    /* \"#utility.yul\":4974:4988   */\n  lt\n    /* \"#utility.yul\":4967:5087   */\n  iszero\n  tag_164\n  jumpi\n    /* \"#utility.yul\":5038:5077   */\n  tag_165\n    /* \"#utility.yul\":5075:5076   */\n  0x00\n    /* \"#utility.yul\":5068:5073   */\n  dup3\n    /* \"#utility.yul\":5038:5077   */\n  tag_92\n  jump\t// in\ntag_165:\n    /* \"#utility.yul\":5011:5012   */\n  0x01\n    /* \"#utility.yul\":5004:5009   */\n  dup2\n    /* \"#utility.yul\":5000:5013   */\n  add\n    /* \"#utility.yul\":4991:5013   */\n  swap1\n  pop\n    /* \"#utility.yul\":4967:5087   */\n  jump(tag_162)\ntag_164:\n    /* \"#utility.yul\":4907:5093   */\n  pop\n  pop\n  jump\t// out\n    /* \"#utility.yul\":5099:5642   */\ntag_94:\n    /* \"#utility.yul\":5200:5202   */\n  0x1f\n    /* \"#utility.yul\":5195:5198   */\n  dup3\n    /* \"#utility.yul\":5192:5203   */\n  gt\n    /* \"#utility.yul\":5189:5635   */\n  iszero\n  tag_167\n  jumpi\n    /* \"#utility.yul\":5234:5272   */\n  tag_168\n    /* \"#utility.yul\":5266:5271   */\n  dup2\n    /* \"#utility.yul\":5234:5272   */\n  tag_83\n  jump\t// in\ntag_168:\n    /* \"#utility.yul\":5318:5347   */\n  tag_169\n    /* \"#utility.yul\":5336:5346   */\n  dup5\n    /* \"#utility.yul\":5318:5347   */\n  tag_84\n  jump\t// in\ntag_169:\n    /* \"#utility.yul\":5308:5316   */\n  dup2\n    /* \"#utility.yul\":5304:5348   */\n  add\n    /* \"#utility.yul\":5501:5503   */\n  0x20\n    /* \"#utility.yul\":5489:5499   */\n  dup6\n    /* \"#utility.yul\":5486:5504   */\n  lt\n    /* \"#utility.yul\":5483:5532   */\n  iszero\n  tag_170\n  jumpi\n    /* \"#utility.yul\":5522:5530   */\n  dup2\n    /* \"#utility.yul\":5507:5530   */\n  swap1\n  pop\n    /* \"#utility.yul\":5483:5532   */\ntag_170:\n    /* \"#utility.yul\":5545:5625   */\n  tag_171\n    /* \"#utility.yul\":5601:5623   */\n  tag_172\n    /* \"#utility.yul\":5619:5622   */\n  dup6\n    /* \"#utility.yul\":5601:5623   */\n  tag_84\n  jump\t// in\ntag_172:\n    /* \"#utility.yul\":5591:5599   */\n  dup4\n    /* \"#utility.yul\":5587:5624   */\n  add\n    /* \"#utility.yul\":5574:5585   */\n  dup3\n    /* \"#utility.yul\":5545:5625   */\n  tag_93\n  jump\t// in\ntag_171:\n    /* \"#utility.yul\":5204:5635   */\n  pop\n  pop\n    /* \"#utility.yul\":5189:5635   */\ntag_167:\n    /* \"#utility.yul\":5099:5642   */\n  pop\n  pop\n  pop\n  jump\t// out\n    /* \"#utility.yul\":5648:5765   */\ntag_95:\n    /* \"#utility.yul\":5702:5710   */\n  0x00\n    /* \"#utility.yul\":5752:5757   */\n  dup3\n    /* \"#utility.yul\":5746:5750   */\n  dup3\n    /* \"#utility.yul\":5742:5758   */\n  shr\n    /* \"#utility.yul\":5721:5758   */\n  swap1\n  pop\n    /* \"#utility.yul\":5648:5765   */\n  swap3\n  swap2\n  pop\n  pop\n  jump\t// out\n    /* \"#utility.yul\":5771:5940   */\ntag_96:\n    /* \"#utility.yul\":5815:5821   */\n  0x00\n    /* \"#utility.yul\":5848:5899   */\n  tag_175\n    /* \"#utility.yul\":5896:5897   */\n  0x00\n    /* \"#utility.yul\":5892:5898   */\n  not\n    /* \"#utility.yul\":5884:5889   */\n  dup5\n    /* \"#utility.yul\":5881:5882   */\n  0x08\n    /* \"#utility.yul\":5877:5890   */\n  mul\n    /* \"#utility.yul\":5848:5899   */\n  tag_95\n  jump\t// in\ntag_175:\n    /* \"#utility.yul\":5844:5900   */\n  not\n    /* \"#utility.yul\":5929:5933   */\n  dup1\n    /* \"#utility.yul\":5923:5927   */\n  dup4\n    /* \"#utility.yul\":5919:5934   */\n  and\n    /* \"#utility.yul\":5909:5934   */\n  swap2\n  pop\n    /* \"#utility.yul\":5822:5940   */\n  pop\n    /* \"#utility.yul\":5771:5940   */\n  swap3\n  swap2\n  pop\n  pop\n  jump\t// out\n    /* \"#utility.yul\":5945:6240   */\ntag_97:\n    /* \"#utility.yul\":6021:6025   */\n  0x00\n    /* \"#utility.yul\":6167:6196   */\n  tag_177\n    /* \"#utility.yul\":6192:6195   */\n  dup4\n    /* \"#utility.yul\":6186:6190   */\n  dup4\n    /* \"#utility.yul\":6167:6196   */\n  tag_96\n  jump\t// in\ntag_177:\n    /* \"#utility.yul\":6159:6196   */\n  swap2\n  pop\n    /* \"#utility.yul\":6229:6232   */\n  dup3\n    /* \"#utility.yul\":6226:6227   */\n  0x02\n    /* \"#utility.yul\":6222:6233   */\n  mul\n    /* \"#utility.yul\":6216:6220   */\n  dup3\n    /* \"#utility.yul\":6213:6234   */\n  or\n    /* \"#utility.yul\":6205:6234   */\n  swap1\n  pop\n    /* \"#utility.yul\":5945:6240   */\n  swap3\n  swap2\n  pop\n  pop\n  jump\t// out\n    /* \"#utility.yul\":6245:7640   */\ntag_9:\n    /* \"#utility.yul\":6362:6399   */\n  tag_179\n    /* \"#utility.yul\":6395:6398   */\n  dup3\n    /* \"#utility.yul\":6362:6399   */\n  tag_79\n  jump\t// in\ntag_179:\n    /* \"#utility.yul\":6464:6482   */\n  0xffffffffffffffff\n    /* \"#utility.yul\":6456:6462   */\n  dup2\n    /* \"#utility.yul\":6453:6483   */\n  gt\n    /* \"#utility.yul\":6450:6506   */\n  iszero\n  tag_180\n  jumpi\n    /* \"#utility.yul\":6486:6504   */\n  tag_181\n  tag_80\n  jump\t// in\ntag_181:\n    /* \"#utility.yul\":6450:6506   */\ntag_180:\n    /* \"#utility.yul\":6530:6568   */\n  tag_182\n    /* \"#utility.yul\":6562:6566   */\n  dup3\n    /* \"#utility.yul\":6556:6567   */\n  sload\n    /* \"#utility.yul\":6530:6568   */\n  tag_82\n  jump\t// in\ntag_182:\n    /* \"#utility.yul\":6615:6682   */\n  tag_183\n    /* \"#utility.yul\":6675:6681   */\n  dup3\n    /* \"#utility.yul\":6667:6673   */\n  dup3\n    /* \"#utility.yul\":6661:6665   */\n  dup6\n    /* \"#utility.yul\":6615:6682   */\n  tag_94\n  jump\t// in\ntag_183:\n    /* \"#utility.yul\":6709:6710   */\n  0x00\n    /* \"#utility.yul\":6733:6737   */\n  0x20\n    /* \"#utility.yul\":6720:6737   */\n  swap1\n  pop\n    /* \"#utility.yul\":6765:6767   */\n  0x1f\n    /* \"#utility.yul\":6757:6763   */\n  dup4\n    /* \"#utility.yul\":6754:6768   */\n  gt\n    /* \"#utility.yul\":6782:6783   */\n  0x01\n    /* \"#utility.yul\":6777:7395   */\n  dup2\n  eq\n  tag_185\n  jumpi\n    /* \"#utility.yul\":7439:7440   */\n  0x00\n    /* \"#utility.yul\":7456:7462   */\n  dup5\n    /* \"#utility.yul\":7453:7530   */\n  iszero\n  tag_186\n  jumpi\n    /* \"#utility.yul\":7505:7514   */\n  dup3\n    /* \"#utility.yul\":7500:7503   */\n  dup8\n    /* \"#utility.yul\":7496:7515   */\n  add\n    /* \"#utility.yul\":7490:7516   */\n  mload\n    /* \"#utility.yul\":7481:7516   */\n  swap1\n  pop\n    /* \"#utility.yul\":7453:7530   */\ntag_186:\n    /* \"#utility.yul\":7556:7623   */\n  tag_187\n    /* \"#utility.yul\":7616:7622   */\n  dup6\n    /* \"#utility.yul\":7609:7614   */\n  dup3\n    /* \"#utility.yul\":7556:7623   */\n  tag_97\n  jump\t// in\ntag_187:\n    /* \"#utility.yul\":7550:7554   */\n  dup7\n    /* \"#utility.yul\":7543:7624   */\n  sstore\n    /* \"#utility.yul\":7412:7634   */\n  pop\n    /* \"#utility.yul\":6747:7634   */\n  jump(tag_184)\n    /* \"#utility.yul\":6777:7395   */\ntag_185:\n    /* \"#utility.yul\":6829:6833   */\n  0x1f\n    /* \"#utility.yul\":6825:6834   */\n  not\n    /* \"#utility.yul\":6817:6823   */\n  dup5\n    /* \"#utility.yul\":6813:6835   */\n  and\n    /* \"#utility.yul\":6863:6900   */\n  tag_188\n    /* \"#utility.yul\":6895:6899   */\n  dup7\n    /* \"#utility.yul\":6863:6900   */\n  tag_83\n  jump\t// in\ntag_188:\n    /* \"#utility.yul\":6922:6923   */\n  0x00\n    /* \"#utility.yul\":6936:7144   */\ntag_189:\n    /* \"#utility.yul\":6950:6957   */\n  dup3\n    /* \"#utility.yul\":6947:6948   */\n  dup2\n    /* \"#utility.yul\":6944:6958   */\n  lt\n    /* \"#utility.yul\":6936:7144   */\n  iszero\n  tag_191\n  jumpi\n    /* \"#utility.yul\":7029:7038   */\n  dup5\n    /* \"#utility.yul\":7024:7027   */\n  dup10\n    /* \"#utility.yul\":7020:7039   */\n  add\n    /* \"#utility.yul\":7014:7040   */\n  mload\n    /* \"#utility.yul\":7006:7012   */\n  dup3\n    /* \"#utility.yul\":6999:7041   */\n  sstore\n    /* \"#utility.yul\":7080:7081   */\n  0x01\n    /* \"#utility.yul\":7072:7078   */\n  dup3\n    /* \"#utility.yul\":7068:7082   */\n  add\n    /* \"#utility.yul\":7058:7082   */\n  swap2\n  pop\n    /* \"#utility.yul\":7127:7129   */\n  0x20\n    /* \"#utility.yul\":7116:7125   */\n  dup6\n    /* \"#utility.yul\":7112:7130   */\n  add\n    /* \"#utility.yul\":7099:7130   */\n  swap5\n  pop\n    /* \"#utility.yul\":6973:6977   */\n  0x20\n    /* \"#utility.yul\":6970:6971   */\n  dup2\n    /* \"#utility.yul\":6966:6978   */\n  add\n    /* \"#utility.yul\":6961:6978   */\n  swap1\n  pop\n    /* \"#utility.yul\":6936:7144   */\n  jump(tag_189)\ntag_191:\n    /* \"#utility.yul\":7172:7178   */\n  dup7\n    /* \"#utility.yul\":7163:7170   */\n  dup4\n    /* \"#utility.yul\":7160:7179   */\n  lt\n    /* \"#utility.yul\":7157:7336   */\n  iszero\n  tag_192\n  jumpi\n    /* \"#utility.yul\":7230:7239   */\n  dup5\n    /* \"#utility.yul\":7225:7228   */\n  dup10\n    /* \"#utility.yul\":7221:7240   */\n  add\n    /* \"#utility.yul\":7215:7241   */\n  mload\n    /* \"#utility.yul\":7273:7321   */\n  tag_193\n    /* \"#utility.yul\":7315:7319   */\n  0x1f\n    /* \"#utility.yul\":7307:7313   */\n  dup10\n    /* \"#utility.yul\":7303:7320   */\n  and\n    /* \"#utility.yul\":7292:7301   */\n  dup3\n    /* \"#utility.yul\":7273:7321   */\n  tag_96\n  jump\t// in\ntag_193:\n    /* \"#utility.yul\":7265:7271   */\n  dup4\n    /* \"#utility.yul\":7258:7322   */\n  sstore\n    /* \"#utility.yul\":7180:7336   */\n  pop\n    /* \"#utility.yul\":7157:7336   */\ntag_192:\n    /* \"#utility.yul\":7382:7383   */\n  0x01\n    /* \"#utility.yul\":7378:7379   */\n  0x02\n    /* \"#utility.yul\":7370:7376   */\n  dup9\n    /* \"#utility.yul\":7366:7380   */\n  mul\n    /* \"#utility.yul\":7362:7384   */\n  add\n    /* \"#utility.yul\":7356:7360   */\n  dup9\n    /* \"#utility.yul\":7349:7385   */\n  sstore\n    /* \"#utility.yul\":6784:7395   */\n  pop\n  pop\n  pop\n    /* \"#utility.yul\":6747:7634   */\ntag_184:\n  pop\n    /* \"#utility.yul\":6337:7640   */\n  pop\n  pop\n  pop\n    /* \"#utility.yul\":6245:7640   */\n  pop\n  pop\n  jump\t// out\n    /* \"#utility.yul\":7646:7826   */\ntag_98:\n    /* \"#utility.yul\":7694:7771   */\n  0x4e487b7100000000000000000000000000000000000000000000000000000000\n    /* \"#utility.yul\":7691:7692   */\n  0x00\n    /* \"#utility.yul\":7684:7772   */\n  mstore\n    /* \"#utility.yul\":7791:7795   */\n  0x11\n    /* \"#utility.yul\":7788:7789   */\n  0x04\n    /* \"#utility.yul\":7781:7796   */\n  mstore\n    /* \"#utility.yul\":7815:7819   */\n  0x24\n    /* \"#utility.yul\":7812:7813   */\n  0x00\n    /* \"#utility.yul\":7805:7820   */\n  revert\n    /* \"#utility.yul\":7832:7934   */\ntag_99:\n    /* \"#utility.yul\":7874:7882   */\n  0x00\n    /* \"#utility.yul\":7921:7926   */\n  dup2\n    /* \"#utility.yul\":7918:7919   */\n  0x01\n    /* \"#utility.yul\":7914:7927   */\n  shr\n    /* \"#utility.yul\":7893:7927   */\n  swap1\n  pop\n    /* \"#utility.yul\":7832:7934   */\n  swap2\n  swap1\n  pop\n  jump\t// out\n    /* \"#utility.yul\":7940:8788   */\ntag_100:\n    /* \"#utility.yul\":8001:8006   */\n  0x00\n    /* \"#utility.yul\":8008:8012   */\n  dup1\n    /* \"#utility.yul\":8032:8038   */\n  dup3\n    /* \"#utility.yul\":8023:8038   */\n  swap2\n  pop\n    /* \"#utility.yul\":8056:8061   */\n  dup4\n    /* \"#utility.yul\":8047:8061   */\n  swap1\n  pop\n    /* \"#utility.yul\":8070:8782   */\ntag_197:\n    /* \"#utility.yul\":8091:8092   */\n  0x01\n    /* \"#utility.yul\":8081:8089   */\n  dup6\n    /* \"#utility.yul\":8078:8093   */\n  gt\n    /* \"#utility.yul\":8070:8782   */\n  iszero\n  tag_199\n  jumpi\n    /* \"#utility.yul\":8186:8190   */\n  dup1\n    /* \"#utility.yul\":8181:8184   */\n  dup7\n    /* \"#utility.yul\":8177:8191   */\n  div\n    /* \"#utility.yul\":8171:8175   */\n  dup2\n    /* \"#utility.yul\":8168:8192   */\n  gt\n    /* \"#utility.yul\":8165:8215   */\n  iszero\n  tag_200\n  jumpi\n    /* \"#utility.yul\":8195:8213   */\n  tag_201\n  tag_98\n  jump\t// in\ntag_201:\n    /* \"#utility.yul\":8165:8215   */\ntag_200:\n    /* \"#utility.yul\":8245:8246   */\n  0x01\n    /* \"#utility.yul\":8235:8243   */\n  dup6\n    /* \"#utility.yul\":8231:8247   */\n  and\n    /* \"#utility.yul\":8228:8679   */\n  iszero\n  tag_202\n  jumpi\n    /* \"#utility.yul\":8660:8664   */\n  dup1\n    /* \"#utility.yul\":8653:8658   */\n  dup3\n    /* \"#utility.yul\":8649:8665   */\n  mul\n    /* \"#utility.yul\":8640:8665   */\n  swap2\n  pop\n    /* \"#utility.yul\":8228:8679   */\ntag_202:\n    /* \"#utility.yul\":8710:8714   */\n  dup1\n    /* \"#utility.yul\":8704:8708   */\n  dup2\n    /* \"#utility.yul\":8700:8715   */\n  mul\n    /* \"#utility.yul\":8692:8715   */\n  swap1\n  pop\n    /* \"#utility.yul\":8740:8772   */\n  tag_203\n    /* \"#utility.yul\":8763:8771   */\n  dup6\n    /* \"#utility.yul\":8740:8772   */\n  tag_99\n  jump\t// in\ntag_203:\n    /* \"#utility.yul\":8728:8772   */\n  swap5\n  pop\n    /* \"#utility.yul\":8070:8782   */\n  jump(tag_197)\ntag_199:\n    /* \"#utility.yul\":7940:8788   */\n  swap5\n  pop\n  swap5\n  swap3\n  pop\n  pop\n  pop\n  jump\t// out\n    /* \"#utility.yul\":8794:9867   */\ntag_101:\n    /* \"#utility.yul\":8848:8853   */\n  0x00\n    /* \"#utility.yul\":9039:9047   */\n  dup3\n    /* \"#utility.yul\":9029:9069   */\n  tag_205\n  jumpi\n    /* \"#utility.yul\":9060:9061   */\n  0x01\n    /* \"#utility.yul\":9051:9061   */\n  swap1\n  pop\n    /* \"#utility.yul\":9062:9067   */\n  jump(tag_204)\n    /* \"#utility.yul\":9029:9069   */\ntag_205:\n    /* \"#utility.yul\":9088:9092   */\n  dup2\n    /* \"#utility.yul\":9078:9114   */\n  tag_206\n  jumpi\n    /* \"#utility.yul\":9105:9106   */\n  0x00\n    /* \"#utility.yul\":9096:9106   */\n  swap1\n  pop\n    /* \"#utility.yul\":9107:9112   */\n  jump(tag_204)\n    /* \"#utility.yul\":9078:9114   */\ntag_206:\n    /* \"#utility.yul\":9174:9178   */\n  dup2\n    /* \"#utility.yul\":9222:9223   */\n  0x01\n    /* \"#utility.yul\":9217:9244   */\n  dup2\n  eq\n  tag_208\n  jumpi\n    /* \"#utility.yul\":9258:9259   */\n  0x02\n    /* \"#utility.yul\":9253:9444   */\n  dup2\n  eq\n  tag_209\n  jumpi\n    /* \"#utility.yul\":9167:9444   */\n  jump(tag_207)\n    /* \"#utility.yul\":9217:9244   */\ntag_208:\n    /* \"#utility.yul\":9235:9236   */\n  0x01\n    /* \"#utility.yul\":9226:9236   */\n  swap2\n  pop\n    /* \"#utility.yul\":9237:9242   */\n  pop\n  jump(tag_204)\n    /* \"#utility.yul\":9253:9444   */\ntag_209:\n    /* \"#utility.yul\":9298:9301   */\n  0xff\n    /* \"#utility.yul\":9288:9296   */\n  dup5\n    /* \"#utility.yul\":9285:9302   */\n  gt\n    /* \"#utility.yul\":9282:9325   */\n  iszero\n  tag_210\n  jumpi\n    /* \"#utility.yul\":9305:9323   */\n  tag_211\n  tag_98\n  jump\t// in\ntag_211:\n    /* \"#utility.yul\":9282:9325   */\ntag_210:\n    /* \"#utility.yul\":9354:9362   */\n  dup4\n    /* \"#utility.yul\":9351:9352   */\n  0x02\n    /* \"#utility.yul\":9347:9363   */\n  exp\n    /* \"#utility.yul\":9338:9363   */\n  swap2\n  pop\n    /* \"#utility.yul\":9389:9392   */\n  dup5\n    /* \"#utility.yul\":9382:9387   */\n  dup3\n    /* \"#utility.yul\":9379:9393   */\n  gt\n    /* \"#utility.yul\":9376:9416   */\n  iszero\n  tag_212\n  jumpi\n    /* \"#utility.yul\":9396:9414   */\n  tag_213\n  tag_98\n  jump\t// in\ntag_213:\n    /* \"#utility.yul\":9376:9416   */\ntag_212:\n    /* \"#utility.yul\":9429:9434   */\n  pop\n  jump(tag_204)\n    /* \"#utility.yul\":9167:9444   */\ntag_207:\n  pop\n    /* \"#utility.yul\":9553:9555   */\n  0x20\n    /* \"#utility.yul\":9543:9551   */\n  dup4\n    /* \"#utility.yul\":9540:9556   */\n  lt\n    /* \"#utility.yul\":9534:9537   */\n  0x0133\n    /* \"#utility.yul\":9528:9532   */\n  dup4\n    /* \"#utility.yul\":9525:9538   */\n  lt\n    /* \"#utility.yul\":9521:9557   */\n  and\n    /* \"#utility.yul\":9503:9505   */\n  0x4e\n    /* \"#utility.yul\":9493:9501   */\n  dup5\n    /* \"#utility.yul\":9490:9506   */\n  lt\n    /* \"#utility.yul\":9485:9487   */\n  0x0b\n    /* \"#utility.yul\":9479:9483   */\n  dup5\n    /* \"#utility.yul\":9476:9488   */\n  lt\n    /* \"#utility.yul\":9472:9507   */\n  and\n    /* \"#utility.yul\":9456:9567   */\n  or\n    /* \"#utility.yul\":9453:9699   */\n  iszero\n  tag_214\n  jumpi\n    /* \"#utility.yul\":9609:9617   */\n  dup3\n    /* \"#utility.yul\":9603:9607   */\n  dup3\n    /* \"#utility.yul\":9599:9618   */\n  exp\n    /* \"#utility.yul\":9590:9618   */\n  swap1\n  pop\n    /* \"#utility.yul\":9644:9647   */\n  dup4\n    /* \"#utility.yul\":9637:9642   */\n  dup2\n    /* \"#utility.yul\":9634:9648   */\n  gt\n    /* \"#utility.yul\":9631:9671   */\n  iszero\n  tag_215\n  jumpi\n    /* \"#utility.yul\":9651:9669   */\n  tag_216\n  tag_98\n  jump\t// in\ntag_216:\n    /* \"#utility.yul\":9631:9671   */\ntag_215:\n    /* \"#utility.yul\":9684:9689   */\n  jump(tag_204)\n    /* \"#utility.yul\":9453:9699   */\ntag_214:\n    /* \"#utility.yul\":9724:9766   */\n  tag_217\n    /* \"#utility.yul\":9762:9765   */\n  dup5\n    /* \"#utility.yul\":9752:9760   */\n  dup5\n    /* \"#utility.yul\":9746:9750   */\n  dup5\n    /* \"#utility.yul\":9743:9744   */\n  0x01\n    /* \"#utility.yul\":9724:9766   */\n  tag_100\n  jump\t// in\ntag_217:\n    /* \"#utility.yul\":9709:9766   */\n  swap3\n  pop\n  swap1\n  pop\n    /* \"#utility.yul\":9798:9802   */\n  dup2\n    /* \"#utility.yul\":9793:9796   */\n  dup5\n    /* \"#utility.yul\":9789:9803   */\n  div\n    /* \"#utility.yul\":9782:9787   */\n  dup2\n    /* \"#utility.yul\":9779:9804   */\n  gt\n    /* \"#utility.yul\":9776:9827   */\n  iszero\n  tag_218\n  jumpi\n    /* \"#utility.yul\":9807:9825   */\n  tag_219\n  tag_98\n  jump\t// in\ntag_219:\n    /* \"#utility.yul\":9776:9827   */\ntag_218:\n    /* \"#utility.yul\":9856:9860   */\n  dup2\n    /* \"#utility.yul\":9849:9854   */\n  dup2\n    /* \"#utility.yul\":9845:9861   */\n  mul\n    /* \"#utility.yul\":9836:9861   */\n  swap1\n  pop\n    /* \"#utility.yul\":8794:9867   */\ntag_204:\n  swap4\n  swap3\n  pop\n  pop\n  pop\n  jump\t// out\n    /* \"#utility.yul\":9873:9959   */\ntag_102:\n    /* \"#utility.yul\":9908:9915   */\n  0x00\n    /* \"#utility.yul\":9948:9952   */\n  0xff\n    /* \"#utility.yul\":9941:9946   */\n  dup3\n    /* \"#utility.yul\":9937:9953   */\n  and\n    /* \"#utility.yul\":9926:9953   */\n  swap1\n  pop\n    /* \"#utility.yul\":9873:9959   */\n  swap2\n  swap1\n  pop\n  jump\t// out\n    /* \"#utility.yul\":9965:10246   */\ntag_20:\n    /* \"#utility.yul\":10023:10028   */\n  0x00\n    /* \"#utility.yul\":10047:10070   */\n  tag_222\n    /* \"#utility.yul\":10065:10069   */\n  dup3\n    /* \"#utility.yul\":10047:10070   */\n  tag_76\n  jump\t// in\ntag_222:\n    /* \"#utility.yul\":10039:10070   */\n  swap2\n  pop\n    /* \"#utility.yul\":10091:10116   */\n  tag_223\n    /* \"#utility.yul\":10107:10115   */\n  dup4\n    /* \"#utility.yul\":10091:10116   */\n  tag_102\n  jump\t// in\ntag_223:\n    /* \"#utility.yul\":10079:10116   */\n  swap3\n  pop\n    /* \"#utility.yul\":10135:10239   */\n  tag_224\n    /* \"#utility.yul\":10172:10238   */\n  0xffffffffffffffffffffffffffffffffffffffffffffffffffffffffffffffff\n    /* \"#utility.yul\":10162:10170   */\n  dup5\n    /* \"#utility.yul\":10156:10160   */\n  dup5\n    /* \"#utility.yul\":10135:10239   */\n  tag_101\n  jump\t// in\ntag_224:\n    /* \"#utility.yul\":10126:10239   */\n  swap1\n  pop\n    /* \"#utility.yul\":9965:10246   */\n  swap3\n  swap2\n  pop\n  pop\n  jump\t// out\n    /* \"#utility.yul\":10252:10432   */\ntag_103:\n    /* \"#utility.yul\":10300:10377   */\n  0x4e487b7100000000000000000000000000000000000000000000000000000000\n    /* \"#utility.yul\":10297:10298   */\n  0x00\n    /* \"#utility.yul\":10290:10378   */\n  mstore\n    /* \"#utility.yul\":10397:10401   */\n  0x12\n    /* \"#utility.yul\":10394:10395   */\n  0x04\n    /* \"#utility.yul\":10387:10402   */\n  mstore\n    /* \"#utility.yul\":10421:10425   */\n  0x24\n    /* \"#utility.yul\":10418:10419   */\n  0x00\n    /* \"#utility.yul\":10411:10426   */\n  revert\n    /* \"#utility.yul\":10438:10623   */\ntag_22:\n    /* \"#utility.yul\":10478:10479   */\n  0x00\n    /* \"#utility.yul\":10495:10515   */\n  tag_227\n    /* \"#utility.yul\":10513:10514   */\n  dup3\n    /* \"#utility.yul\":10495:10515   */\n  tag_76\n  jump\t// in\ntag_227:\n    /* \"#utility.yul\":10490:10515   */\n  swap2\n  pop\n    /* \"#utility.yul\":10529:10549   */\n  tag_228\n    /* \"#utility.yul\":10547:10548   */\n  dup4\n    /* \"#utility.yul\":10529:10549   */\n  tag_76\n  jump\t// in\ntag_228:\n    /* \"#utility.yul\":10524:10549   */\n  swap3\n  pop\n    /* \"#utility.yul\":10568:10569   */\n  dup3\n    /* \"#utility.yul\":10558:10593   */\n  tag_229\n  jumpi\n    /* \"#utility.yul\":10573:10591   */\n  tag_230\n  tag_103\n  jump\t// in\ntag_230:\n    /* \"#utility.yul\":10558:10593   */\ntag_229:\n    /* \"#utility.yul\":10615:10616   */\n  dup3\n    /* \"#utility.yul\":10612:10613   */\n  dup3\n    /* \"#utility.yul\":10608:10617   */\n  div\n    /* \"#utility.yul\":10603:10617   */\n  swap1\n  pop\n    /* \"#utility.yul\":10438:10623   */\n  swap3\n  swap2\n  pop\n  pop\n  jump\t// out\n    /* \"#utility.yul\":10629:11039   */\ntag_24:\n    /* \"#utility.yul\":10669:10676   */\n  0x00\n    /* \"#utility.yul\":10692:10712   */\n  tag_232\n    /* \"#utility.yul\":10710:10711   */\n  dup3\n    /* \"#utility.yul\":10692:10712   */\n  tag_76\n  jump\t// in\ntag_232:\n    /* \"#utility.yul\":10687:10712   */\n  swap2\n  pop\n    /* \"#utility.yul\":10726:10746   */\n  tag_233\n    /* \"#utility.yul\":10744:10745   */\n  dup4\n    /* \"#utility.yul\":10726:10746   */\n  tag_76\n  jump\t// in\ntag_233:\n    /* \"#utility.yul\":10721:10746   */\n  swap3\n  pop\n    /* \"#utility.yul\":10781:10782   */\n  dup3\n    /* \"#utility.yul\":10778:10779   */\n  dup3\n    /* \"#utility.yul\":10774:10783   */\n  mul\n    /* \"#utility.yul\":10803:10833   */\n  tag_234\n    /* \"#utility.yul\":10821:10832   */\n  dup2\n    /* \"#utility.yul\":10803:10833   */\n  tag_76\n  jump\t// in\ntag_234:\n    /* \"#utility.yul\":10792:10833   */\n  swap2\n  pop\n    /* \"#utility.yul\":10982:10983   */\n  dup3\n    /* \"#utility.yul\":10973:10980   */\n  dup3\n    /* \"#utility.yul\":10969:10984   */\n  div\n    /* \"#utility.yul\":10966:10967   */\n  dup5\n    /* \"#utility.yul\":10963:10985   */\n  eq\n    /* \"#utility.yul\":10943:10944   */\n  dup4\n    /* \"#utility.yul\":10936:10945   */\n  iszero\n    /* \"#utility.yul\":10916:10999   */\n  or\n    /* \"#utility.yul\":10893:11032   */\n  tag_235\n  jumpi\n    /* \"#utility.yul\":11012:11030   */\n  tag_236\n  tag_98\n  jump\t// in\ntag_236:\n    /* \"#utility.yul\":10893:11032   */\ntag_235:\n    /* \"#utility.yul\":10677:11039   */\n  pop\n    /* \"#utility.yul\":10629:11039   */\n  swap3\n  swap2\n  pop\n  pop\n  jump\t// out\n    /* \"#utility.yul\":11045:11163   */\ntag_104:\n    /* \"#utility.yul\":11132:11156   */\n  tag_238\n    /* \"#utility.yul\":11150:11155   */\n  dup2\n    /* \"#utility.yul\":11132:11156   */\n  tag_73\n  jump\t// in\ntag_238:\n    /* \"#utility.yul\":11127:11130   */\n  dup3\n    /* \"#utility.yul\":11120:11157   */\n  mstore\n    /* \"#utility.yul\":11045:11163   */\n  pop\n  pop\n  jump\t// out\n    /* \"#utility.yul\":11169:11391   */\ntag_38:\n    /* \"#utility.yul\":11262:11266   */\n  0x00\n    /* \"#utility.yul\":11300:11302   */\n  0x20\n    /* \"#utility.yul\":11289:11298   */\n  dup3\n    /* \"#utility.yul\":11285:11303   */\n  add\n    /* \"#utility.yul\":11277:11303   */\n  swap1\n  pop\n    /* \"#utility.yul\":11313:11384   */\n  tag_240\n    /* \"#utility.yul\":11381:11382   */\n  0x00\n    /* \"#utility.yul\":11370:11379   */\n  dup4\n    /* \"#utility.yul\":11366:11383   */\n  add\n    /* \"#utility.yul\":11357:11363   */\n  dup5\n    /* \"#utility.yul\":11313:11384   */\n  tag_104\n  jump\t// in\ntag_240:\n    /* \"#utility.yul\":11169:11391   */\n  swap3\n  swap2\n  pop\n  pop\n  jump\t// out\n    /* \"#utility.yul\":11397:11588   */\ntag_59:\n    /* \"#utility.yul\":11437:11440   */\n  0x00\n    /* \"#utility.yul\":11456:11476   */\n  tag_242\n    /* \"#utility.yul\":11474:11475   */\n  dup3\n    /* \"#utility.yul\":11456:11476   */\n  tag_76\n  jump\t// in\ntag_242:\n    /* \"#utility.yul\":11451:11476   */\n  swap2\n  pop\n    /* \"#utility.yul\":11490:11510   */\n  tag_243\n    /* \"#utility.yul\":11508:11509   */\n  dup4\n    /* \"#utility.yul\":11490:11510   */\n  tag_76\n  jump\t// in\ntag_243:\n    /* \"#utility.yul\":11485:11510   */\n  swap3\n  pop\n    /* \"#utility.yul\":11533:11534   */\n  dup3\n    /* \"#utility.yul\":11530:11531   */\n  dup3\n    /* \"#utility.yul\":11526:11535   */\n  add\n    /* \"#utility.yul\":11519:11535   */\n  swap1\n  pop\n    /* \"#utility.yul\":11554:11557   */\n  dup1\n    /* \"#utility.yul\":11551:11552   */\n  dup3\n    /* \"#utility.yul\":11548:11558   */\n  gt\n    /* \"#utility.yul\":11545:11581   */\n  iszero\n  tag_244\n  jumpi\n    /* \"#utility.yul\":11561:11579   */\n  tag_245\n  tag_98\n  jump\t// in\ntag_245:\n    /* \"#utility.yul\":11545:11581   */\ntag_244:\n    /* \"#utility.yul\":11397:11588   */\n  swap3\n  swap2\n  pop\n  pop\n  jump\t// out\n    /* \"#utility.yul\":11594:11712   */\ntag_105:\n    /* \"#utility.yul\":11681:11705   */\n  tag_247\n    /* \"#utility.yul\":11699:11704   */\n  dup2\n    /* \"#utility.yul\":11681:11705   */\n  tag_76\n  jump\t// in\ntag_247:\n    /* \"#utility.yul\":11676:11679   */\n  dup3\n    /* \"#utility.yul\":11669:11706   */\n  mstore\n    /* \"#utility.yul\":11594:11712   */\n  pop\n  pop\n  jump\t// out\n    /* \"#utility.yul\":11718:12160   */\ntag_63:\n    /* \"#utility.yul\":11867:11871   */\n  0x00\n    /* \"#utility.yul\":11905:11907   */\n  0x60\n    /* \"#utility.yul\":11894:11903   */\n  dup3\n    /* \"#utility.yul\":11890:11908   */\n  add\n    /* \"#utility.yul\":11882:11908   */\n  swap1\n  pop\n    /* \"#utility.yul\":11918:11989   */\n  tag_249\n    /* \"#utility.yul\":11986:11987   */\n  0x00\n    /* \"#utility.yul\":11975:11984   */\n  dup4\n    /* \"#utility.yul\":11971:11988   */\n  add\n    /* \"#utility.yul\":11962:11968   */\n  dup7\n    /* \"#utility.yul\":11918:11989   */\n  tag_104\n  jump\t// in\ntag_249:\n    /* \"#utility.yul\":11999:12071   */\n  tag_250\n    /* \"#utility.yul\":12067:12069   */\n  0x20\n    /* \"#utility.yul\":12056:12065   */\n  dup4\n    /* \"#utility.yul\":12052:12070   */\n  add\n    /* \"#utility.yul\":12043:12049   */\n  dup6\n    /* \"#utility.yul\":11999:12071   */\n  tag_105\n  jump\t// in\ntag_250:\n    /* \"#utility.yul\":12081:12153   */\n  tag_251\n    /* \"#utility.yul\":12149:12151   */\n  0x40\n    /* \"#utility.yul\":12138:12147   */\n  dup4\n    /* \"#utility.yul\":12134:12152   */\n  add\n    /* \"#utility.yul\":12125:12131   */\n  dup5\n    /* \"#utility.yul\":12081:12153   */\n  tag_105\n  jump\t// in\ntag_251:\n    /* \"#utility.yul\":11718:12160   */\n  swap5\n  swap4\n  pop\n  pop\n  pop\n  pop\n  jump\t// out\n    /* \"#utility.yul\":12166:12388   */\ntag_67:\n    /* \"#utility.yul\":12259:12263   */\n  0x00\n    /* \"#utility.yul\":12297:12299   */\n  0x20\n    /* \"#utility.yul\":12286:12295   */\n  dup3\n    /* \"#utility.yul\":12282:12300   */\n  add\n    /* \"#utility.yul\":12274:12300   */\n  swap1\n  pop\n    /* \"#utility.yul\":12310:12381   */\n  tag_253\n    /* \"#utility.yul\":12378:12379   */\n  0x00\n    /* \"#utility.yul\":12367:12376   */\n  dup4\n    /* \"#utility.yul\":12363:12380   */\n  add\n    /* \"#utility.yul\":12354:12360   */\n  dup5\n    /* \"#utility.yul\":12310:12381   */\n  tag_105\n  jump\t// in\ntag_253:\n    /* \"#utility.yul\":12166:12388   */\n  swap3\n  swap2\n  pop\n  pop\n  jump\t// out\n    /* \"contracts/BonDeFiToken.sol\":373:3445  contract BonDeFiToken is ERC20, ERC20Burnable, ERC20Pausable, AccessControl {... */\ntag_26:\n  mload(0x80)\n  mload(0xa0)\n  mload(0xc0)\n  mload(0xe0)\n  codecopy(0x00, dataOffset(sub_0), dataSize(sub_0))\n  0x00\n  assignImmutable(\"0x55749baaca540012815eedf8aea70b0787b33390f36b1cc139ea0fe0d5fa1ba2\")\n  0x00\n  assignImmutable(\"0xa92a119aeb5e5432887b46772e423cfac2594bfdf681094c34bd022e8c31d0\")\n  0x00\n  assignImmutable(\"0xc6fa869c00cca07fff5e26638bf9bc331de0994499fcf1ee63eb1a2437869a1b\")\n  0x00\n  assignImmutable(\"0x560f53f9e6643f63dace8b2695c9680c3b0d96473ff0914d6a3517970d490ef6\")\n  return(0x00, dataSize(sub_0))\nstop\n\nsub_0: assembly {\n        /* \"contracts/BonDeFiToken.sol\":373:3445  contract BonDeFiToken is ERC20, ERC20Burnable, ERC20Pausable, AccessControl {... */\n      mstore(0x40, 0x80)\n      callvalue\n      dup1\n      iszero\n      tag_1\n      jumpi\n      0x00\n      dup1\n      revert\n    tag_1:\n      pop\n      jumpi(tag_2, lt(calldatasize, 0x04))\n      shr(0xe0, calldataload(0x00))\n      dup1\n      0x8456cb59\n      gt\n      tag_35\n      jumpi\n      dup1\n      0xca19c11c\n      gt\n      tag_36\n      jumpi\n      dup1\n      0xdd62ed3e\n      gt\n      tag_37\n      jumpi\n      dup1\n      0xdd62ed3e\n      eq\n      tag_31\n      jumpi\n      dup1\n      0xe091a39b\n      eq\n      tag_32\n      jumpi\n      dup1\n      0xec8eba14\n      eq\n      tag_33\n      jumpi\n      dup1\n      0xf57d283e\n      eq\n      tag_34\n      jumpi\n      jump(tag_2)\n    tag_37:\n      dup1\n      0xca19c11c\n      eq\n      tag_27\n      jumpi\n      dup1\n      0xced0550f\n      eq\n      tag_28\n      jumpi\n      dup1\n      0xd547741f\n      eq\n      tag_29\n      jumpi\n      dup1\n      0xd59624b4\n      eq\n      tag_30\n      jumpi\n      jump(tag_2)\n    tag_36:\n      dup1\n      0x992642e5\n      gt\n      tag_38\n      jumpi\n      dup1\n      0x992642e5\n      eq\n      tag_23\n      jumpi\n      dup1\n      0xa217fddf\n      eq\n      tag_24\n      jumpi\n      dup1\n      0xa9059cbb\n      eq\n      tag_25\n      jumpi\n      dup1\n      0xa920260b\n      eq\n      tag_26\n      jumpi\n      jump(tag_2)\n    tag_38:\n      dup1\n      0x8456cb59\n      eq\n      tag_19\n      jumpi\n      dup1\n      0x904835c4\n      eq\n      tag_20\n      jumpi\n      dup1\n      0x91d14854\n      eq\n      tag_21\n      jumpi\n      dup1\n      0x95d89b41\n      eq\n      tag_22\n      jumpi\n      jump(tag_2)\n    tag_35:\n      dup1\n      0x2f2ff15d\n      gt\n      tag_39\n      jumpi\n      dup1\n      0x42966c68\n      gt\n      tag_40\n      jumpi\n      dup1\n      0x42966c68\n      eq\n      tag_15\n      jumpi\n      dup1\n      0x5c975abb\n      eq\n      tag_16\n      jumpi\n      dup1\n      0x70a08231\n      eq\n      tag_17\n      jumpi\n      dup1\n      0x79cc6790\n      eq\n      tag_18\n      jumpi\n      jump(tag_2)\n    tag_40:\n      dup1\n      0x2f2ff15d\n      eq\n      tag_11\n      jumpi\n      dup1\n      0x313ce567\n      eq\n      tag_12\n      jumpi\n      dup1\n      0x36568abe\n      eq\n      tag_13\n      jumpi\n      dup1\n      0x3f4ba83a\n      eq\n      tag_14\n      jumpi\n      jump(tag_2)\n    tag_39:\n      dup1\n      0x18160ddd\n      gt\n      tag_41\n      jumpi\n      dup1\n      0x18160ddd\n      eq\n      tag_7\n      jumpi\n      dup1\n      0x23b872dd\n      eq\n      tag_8\n      jumpi\n      dup1\n      0x248a9ca3\n      eq\n      tag_9\n      jumpi\n      dup1\n      0x2a0acc6a\n      eq\n      tag_10\n      jumpi\n      jump(tag_2)\n    tag_41:\n      dup1\n      0x01ffc9a7\n      eq\n      tag_3\n      jumpi\n      dup1\n      0x06fdde03\n      eq\n      tag_4\n      jumpi\n      dup1\n      0x095ea7b3\n      eq\n      tag_5\n      jumpi\n      dup1\n      0x10002dbd\n      eq\n      tag_6\n      jumpi\n    tag_2:\n      0x00\n      dup1\n      revert\n        /* \"@openzeppelin/contracts/access/AccessControl.sol\":2565:2767  function supportsInterface(bytes4 interfaceId) public view virtual override returns (bool) {... */\n    tag_3:\n      tag_42\n      0x04\n      dup1\n      calldatasize\n      sub\n      dup2\n      add\n      swap1\n      tag_43\n      swap2\n      swap1\n      tag_44\n      jump\t// in\n    tag_43:\n      tag_45\n      jump\t// in\n    tag_42:\n      mload(0x40)\n      tag_46\n      swap2\n      swap1\n      tag_47\n      jump\t// in\n    tag_46:\n      mload(0x40)\n      dup1\n      swap2\n      sub\n      swap1\n      return\n        /* \"@openzeppelin/contracts/token/ERC20/ERC20.sol\":2074:2163  function name() public view virtual returns (string memory) {... */\n    tag_4:\n      tag_48\n      tag_49\n      jump\t// in\n    tag_48:\n      mload(0x40)\n      tag_50\n      swap2\n      swap1\n      tag_51\n      jump\t// in\n    tag_50:\n      mload(0x40)\n      dup1\n      swap2\n      sub\n      swap1\n      return\n        /* \"@openzeppelin/contracts/token/ERC20/ERC20.sol\":4293:4479  function approve(address spender, uint256 value) public virtual returns (bool) {... */\n    tag_5:\n      tag_52\n      0x04\n      dup1\n      calldatasize\n      sub\n      dup2\n      add\n      swap1\n      tag_53\n      swap2\n      swap1\n      tag_54\n      jump\t// in\n    tag_53:\n      tag_55\n      jump\t// in\n    tag_52:\n      mload(0x40)\n      tag_56\n      swap2\n      swap1\n      tag_47\n      jump\t// in\n    tag_56:\n      mload(0x40)\n      dup1\n      swap2\n      sub\n      swap1\n      return\n        /* \"contracts/BonDeFiToken.sol\":1261:1534  function buyBond(uint256 amountTokens) public{... */\n    tag_6:\n      tag_57\n      0x04\n      dup1\n      calldatasize\n      sub\n      dup2\n      add\n      swap1\n      tag_58\n      swap2\n      swap1\n      tag_59\n      jump\t// in\n    tag_58:\n      tag_60\n      jump\t// in\n    tag_57:\n      stop\n        /* \"@openzeppelin/contracts/token/ERC20/ERC20.sol\":3144:3241  function totalSupply() public view virtual returns (uint256) {... */\n    tag_7:\n      tag_61\n      tag_62\n      jump\t// in\n    tag_61:\n      mload(0x40)\n      tag_63\n      swap2\n      swap1\n      tag_64\n      jump\t// in\n    tag_63:\n      mload(0x40)\n      dup1\n      swap2\n      sub\n      swap1\n      return\n        /* \"@openzeppelin/contracts/token/ERC20/ERC20.sol\":5039:5283  function transferFrom(address from, address to, uint256 value) public virtual returns (bool) {... */\n    tag_8:\n      tag_65\n      0x04\n      dup1\n      calldatasize\n      sub\n      dup2\n      add\n      swap1\n      tag_66\n      swap2\n      swap1\n      tag_67\n      jump\t// in\n    tag_66:\n      tag_68\n      jump\t// in\n    tag_65:\n      mload(0x40)\n      tag_69\n      swap2\n      swap1\n      tag_47\n      jump\t// in\n    tag_69:\n      mload(0x40)\n      dup1\n      swap2\n      sub\n      swap1\n      return\n        /* \"@openzeppelin/contracts/access/AccessControl.sol\":3810:3930  function getRoleAdmin(bytes32 role) public view virtual returns (bytes32) {... */\n    tag_9:\n      tag_70\n      0x04\n      dup1\n      calldatasize\n      sub\n      dup2\n      add\n      swap1\n      tag_71\n      swap2\n      swap1\n      tag_72\n      jump\t// in\n    tag_71:\n      tag_73\n      jump\t// in\n    tag_70:\n      mload(0x40)\n      tag_74\n      swap2\n      swap1\n      tag_75\n      jump\t// in\n    tag_74:\n      mload(0x40)\n      dup1\n      swap2\n      sub\n      swap1\n      return\n        /* \"contracts/BonDeFiToken.sol\":455:505  bytes32 public constant ADMIN = keccak256(\"ADMIN\") */\n    tag_10:\n      tag_76\n      tag_77\n      jump\t// in\n    tag_76:\n      mload(0x40)\n      tag_78\n      swap2\n      swap1\n      tag_75\n      jump\t// in\n    tag_78:\n      mload(0x40)\n      dup1\n      swap2\n      sub\n      swap1\n      return\n        /* \"@openzeppelin/contracts/access/AccessControl.sol\":4226:4362  function grantRole(bytes32 role, address account) public virtual onlyRole(getRoleAdmin(role)) {... */\n    tag_11:\n      tag_79\n      0x04\n      dup1\n      calldatasize\n      sub\n      dup2\n      add\n      swap1\n      tag_80\n      swap2\n      swap1\n      tag_81\n      jump\t// in\n    tag_80:\n      tag_82\n      jump\t// in\n    tag_79:\n      stop\n        /* \"@openzeppelin/contracts/token/ERC20/ERC20.sol\":3002:3084  function decimals() public view virtual returns (uint8) {... */\n    tag_12:\n      tag_83\n      tag_84\n      jump\t// in\n    tag_83:\n      mload(0x40)\n      tag_85\n      swap2\n      swap1\n      tag_86\n      jump\t// in\n    tag_85:\n      mload(0x40)\n      dup1\n      swap2\n      sub\n      swap1\n      return\n        /* \"@openzeppelin/contracts/access/AccessControl.sol\":5328:5573  function renounceRole(bytes32 role, address callerConfirmation) public virtual {... */\n    tag_13:\n      tag_87\n      0x04\n      dup1\n      calldatasize\n      sub\n      dup2\n      add\n      swap1\n      tag_88\n      swap2\n      swap1\n      tag_81\n      jump\t// in\n    tag_88:\n      tag_89\n      jump\t// in\n    tag_87:\n      stop\n        /* \"contracts/BonDeFiToken.sol\":3374:3443  function unpause() public onlyRole(ADMIN) {... */\n    tag_14:\n      tag_90\n      tag_91\n      jump\t// in\n    tag_90:\n      stop\n        /* \"@openzeppelin/contracts/token/ERC20/extensions/ERC20Burnable.sol\":618:705  function burn(uint256 value) public virtual {... */\n    tag_15:\n      tag_92\n      0x04\n      dup1\n      calldatasize\n      sub\n      dup2\n      add\n      swap1\n      tag_93\n      swap2\n      swap1\n      tag_59\n      jump\t// in\n    tag_93:\n      tag_94\n      jump\t// in\n    tag_92:\n      stop\n        /* \"@openzeppelin/contracts/utils/Pausable.sol\":1850:1934  function paused() public view virtual returns (bool) {... */\n    tag_16:\n      tag_95\n      tag_96\n      jump\t// in\n    tag_95:\n      mload(0x40)\n      tag_97\n      swap2\n      swap1\n      tag_47\n      jump\t// in\n    tag_97:\n      mload(0x40)\n      dup1\n      swap2\n      sub\n      swap1\n      return\n        /* \"@openzeppelin/contracts/token/ERC20/ERC20.sol\":3299:3415  function balanceOf(address account) public view virtual returns (uint256) {... */\n    tag_17:\n      tag_98\n      0x04\n      dup1\n      calldatasize\n      sub\n      dup2\n      add\n      swap1\n      tag_99\n      swap2\n      swap1\n      tag_100\n      jump\t// in\n    tag_99:\n      tag_101\n      jump\t// in\n    tag_98:\n      mload(0x40)\n      tag_102\n      swap2\n      swap1\n      tag_64\n      jump\t// in\n    tag_102:\n      mload(0x40)\n      dup1\n      swap2\n      sub\n      swap1\n      return\n        /* \"@openzeppelin/contracts/token/ERC20/extensions/ERC20Burnable.sol\":1021:1179  function burnFrom(address account, uint256 value) public virtual {... */\n    tag_18:\n      tag_103\n      0x04\n      dup1\n      calldatasize\n      sub\n      dup2\n      add\n      swap1\n      tag_104\n      swap2\n      swap1\n      tag_54\n      jump\t// in\n    tag_104:\n      tag_105\n      jump\t// in\n    tag_103:\n      stop\n        /* \"contracts/BonDeFiToken.sol\":3303:3368  function pause() public onlyRole(ADMIN) {... */\n    tag_19:\n      tag_106\n      tag_107\n      jump\t// in\n    tag_106:\n      stop\n        /* \"contracts/BonDeFiToken.sol\":1742:2147  function distributeInterestAll(address[] memory tokenHolders, uint256[] memory amounts) public onlyRole(ADMIN) {... */\n    tag_20:\n      tag_108\n      0x04\n      dup1\n      calldatasize\n      sub\n      dup2\n      add\n      swap1\n      tag_109\n      swap2\n      swap1\n      tag_110\n      jump\t// in\n    tag_109:\n      tag_111\n      jump\t// in\n    tag_108:\n      stop\n        /* \"@openzeppelin/contracts/access/AccessControl.sol\":2854:2990  function hasRole(bytes32 role, address account) public view virtual returns (bool) {... */\n    tag_21:\n      tag_112\n      0x04\n      dup1\n      calldatasize\n      sub\n      dup2\n      add\n      swap1\n      tag_113\n      swap2\n      swap1\n      tag_81\n      jump\t// in\n    tag_113:\n      tag_114\n      jump\t// in\n    tag_112:\n      mload(0x40)\n      tag_115\n      swap2\n      swap1\n      tag_47\n      jump\t// in\n    tag_115:\n      mload(0x40)\n      dup1\n      swap2\n      sub\n      swap1\n      return\n        /* \"@openzeppelin/contracts/token/ERC20/ERC20.sol\":2276:2369  function symbol() public view virtual returns (string memory) {... */\n    tag_22:\n      tag_116\n      tag_117\n      jump\t// in\n    tag_116:\n      mload(0x40)\n      tag_118\n      swap2\n      swap1\n      tag_51\n      jump\t// in\n    tag_118:\n      mload(0x40)\n      dup1\n      swap2\n      sub\n      swap1\n      return\n        /* \"contracts/BonDeFiToken.sol\":579:614  address public immutable stableCoin */\n    tag_23:\n      tag_119\n      tag_120\n      jump\t// in\n    tag_119:\n      mload(0x40)\n      tag_121\n      swap2\n      swap1\n      tag_122\n      jump\t// in\n    tag_121:\n      mload(0x40)\n      dup1\n      swap2\n      sub\n      swap1\n      return\n        /* \"@openzeppelin/contracts/access/AccessControl.sol\":2187:2236  bytes32 public constant DEFAULT_ADMIN_ROLE = 0x00 */\n    tag_24:\n      tag_123\n      tag_124\n      jump\t// in\n    tag_123:\n      mload(0x40)\n      tag_125\n      swap2\n      swap1\n      tag_75\n      jump\t// in\n    tag_125:\n      mload(0x40)\n      dup1\n      swap2\n      sub\n      swap1\n      return\n        /* \"@openzeppelin/contracts/token/ERC20/ERC20.sol\":3610:3788  function transfer(address to, uint256 value) public virtual returns (bool) {... */\n    tag_25:\n      tag_126\n      0x04\n      dup1\n      calldatasize\n      sub\n      dup2\n      add\n      swap1\n      tag_127\n      swap2\n      swap1\n      tag_54\n      jump\t// in\n    tag_127:\n      tag_128\n      jump\t// in\n    tag_126:\n      mload(0x40)\n      tag_129\n      swap2\n      swap1\n      tag_47\n      jump\t// in\n    tag_129:\n      mload(0x40)\n      dup1\n      swap2\n      sub\n      swap1\n      return\n        /* \"contracts/BonDeFiToken.sol\":663:696  uint256 public immutable unitSize */\n    tag_26:\n      tag_130\n      tag_131\n      jump\t// in\n    tag_130:\n      mload(0x40)\n      tag_132\n      swap2\n      swap1\n      tag_64\n      jump\t// in\n    tag_132:\n      mload(0x40)\n      dup1\n      swap2\n      sub\n      swap1\n      return\n        /* \"contracts/BonDeFiToken.sol\":2485:3018  function claimFaceValue(uint256 amountTokens) public{... */\n    tag_27:\n      tag_133\n      0x04\n      dup1\n      calldatasize\n      sub\n      dup2\n      add\n      swap1\n      tag_134\n      swap2\n      swap1\n      tag_59\n      jump\t// in\n    tag_134:\n      tag_135\n      jump\t// in\n    tag_133:\n      stop\n        /* \"contracts/BonDeFiToken.sol\":2153:2479  function claimInvestorFunds() public onlyRole(BOND_ISSUER){... */\n    tag_28:\n      tag_136\n      tag_137\n      jump\t// in\n    tag_136:\n      stop\n        /* \"@openzeppelin/contracts/access/AccessControl.sol\":4642:4780  function revokeRole(bytes32 role, address account) public virtual onlyRole(getRoleAdmin(role)) {... */\n    tag_29:\n      tag_138\n      0x04\n      dup1\n      calldatasize\n      sub\n      dup2\n      add\n      swap1\n      tag_139\n      swap2\n      swap1\n      tag_81\n      jump\t// in\n    tag_139:\n      tag_140\n      jump\t// in\n    tag_138:\n      stop\n        /* \"contracts/BonDeFiToken.sol\":702:739  uint256 public immutable maturityDate */\n    tag_30:\n      tag_141\n      tag_142\n      jump\t// in\n    tag_141:\n      mload(0x40)\n      tag_143\n      swap2\n      swap1\n      tag_64\n      jump\t// in\n    tag_143:\n      mload(0x40)\n      dup1\n      swap2\n      sub\n      swap1\n      return\n        /* \"@openzeppelin/contracts/token/ERC20/ERC20.sol\":3846:3986  function allowance(address owner, address spender) public view virtual returns (uint256) {... */\n    tag_31:\n      tag_144\n      0x04\n      dup1\n      calldatasize\n      sub\n      dup2\n      add\n      swap1\n      tag_145\n      swap2\n      swap1\n      tag_146\n      jump\t// in\n    tag_145:\n      tag_147\n      jump\t// in\n    tag_144:\n      mload(0x40)\n      tag_148\n      swap2\n      swap1\n      tag_64\n      jump\t// in\n    tag_148:\n      mload(0x40)\n      dup1\n      swap2\n      sub\n      swap1\n      return\n        /* \"contracts/BonDeFiToken.sol\":511:573  bytes32 public constant BOND_ISSUER = keccak256(\"BOND_ISSUER\") */\n    tag_32:\n      tag_149\n      tag_150\n      jump\t// in\n    tag_149:\n      mload(0x40)\n      tag_151\n      swap2\n      swap1\n      tag_75\n      jump\t// in\n    tag_151:\n      mload(0x40)\n      dup1\n      swap2\n      sub\n      swap1\n      return\n        /* \"contracts/BonDeFiToken.sol\":620:657  address public immutable interestCoin */\n    tag_33:\n      tag_152\n      tag_153\n      jump\t// in\n    tag_152:\n      mload(0x40)\n      tag_154\n      swap2\n      swap1\n      tag_122\n      jump\t// in\n    tag_154:\n      mload(0x40)\n      dup1\n      swap2\n      sub\n      swap1\n      return\n        /* \"contracts/BonDeFiToken.sol\":1540:1736  function distributeInterest(address tokenHolder,uint256 amount) public onlyRole(ADMIN){... */\n    tag_34:\n      tag_155\n      0x04\n      dup1\n      calldatasize\n      sub\n      dup2\n      add\n      swap1\n      tag_156\n      swap2\n      swap1\n      tag_54\n      jump\t// in\n    tag_156:\n      tag_157\n      jump\t// in\n    tag_155:\n      stop\n        /* \"@openzeppelin/contracts/access/AccessControl.sol\":2565:2767  function supportsInterface(bytes4 interfaceId) public view virtual override returns (bool) {... */\n    tag_45:\n        /* \"@openzeppelin/contracts/access/AccessControl.sol\":2650:2654  bool */\n      0x00\n        /* \"@openzeppelin/contracts/access/AccessControl.sol\":2688:2720  type(IAccessControl).interfaceId */\n      0x7965db0b00000000000000000000000000000000000000000000000000000000\n        /* \"@openzeppelin/contracts/access/AccessControl.sol\":2673:2720  interfaceId == type(IAccessControl).interfaceId */\n      not(0xffffffffffffffffffffffffffffffffffffffffffffffffffffffff)\n      and\n        /* \"@openzeppelin/contracts/access/AccessControl.sol\":2673:2684  interfaceId */\n      dup3\n        /* \"@openzeppelin/contracts/access/AccessControl.sol\":2673:2720  interfaceId == type(IAccessControl).interfaceId */\n      not(0xffffffffffffffffffffffffffffffffffffffffffffffffffffffff)\n      and\n      eq\n        /* \"@openzeppelin/contracts/access/AccessControl.sol\":2673:2760  interfaceId == type(IAccessControl).interfaceId || super.supportsInterface(interfaceId) */\n      dup1\n      tag_159\n      jumpi\n      pop\n        /* \"@openzeppelin/contracts/access/AccessControl.sol\":2724:2760  super.supportsInterface(interfaceId) */\n      tag_160\n        /* \"@openzeppelin/contracts/access/AccessControl.sol\":2748:2759  interfaceId */\n      dup3\n        /* \"@openzeppelin/contracts/access/AccessControl.sol\":2724:2747  super.supportsInterface */\n      tag_161\n        /* \"@openzeppelin/contracts/access/AccessControl.sol\":2724:2760  super.supportsInterface(interfaceId) */\n      jump\t// in\n    tag_160:\n        /* \"@openzeppelin/contracts/access/AccessControl.sol\":2673:2760  interfaceId == type(IAccessControl).interfaceId || super.supportsInterface(interfaceId) */\n    tag_159:\n        /* \"@openzeppelin/contracts/access/AccessControl.sol\":2666:2760  return interfaceId == type(IAccessControl).interfaceId || super.supportsInterface(interfaceId) */\n      swap1\n      pop\n        /* \"@openzeppelin/contracts/access/AccessControl.sol\":2565:2767  function supportsInterface(bytes4 interfaceId) public view virtual override returns (bool) {... */\n      swap2\n      swap1\n      pop\n      jump\t// out\n        /* \"@openzeppelin/contracts/token/ERC20/ERC20.sol\":2074:2163  function name() public view virtual returns (string memory) {... */\n    tag_49:\n        /* \"@openzeppelin/contracts/token/ERC20/ERC20.sol\":2119:2132  string memory */\n      0x60\n        /* \"@openzeppelin/contracts/token/ERC20/ERC20.sol\":2151:2156  _name */\n      0x03\n        /* \"@openzeppelin/contracts/token/ERC20/ERC20.sol\":2144:2156  return _name */\n      dup1\n      sload\n      tag_163\n      swap1\n      tag_164\n      jump\t// in\n    tag_163:\n      dup1\n      0x1f\n      add\n      0x20\n      dup1\n      swap2\n      div\n      mul\n      0x20\n      add\n      mload(0x40)\n      swap1\n      dup2\n      add\n      0x40\n      mstore\n      dup1\n      swap3\n      swap2\n      swap1\n      dup2\n      dup2\n      mstore\n      0x20\n      add\n      dup3\n      dup1\n      sload\n      tag_165\n      swap1\n      tag_164\n      jump\t// in\n    tag_165:\n      dup1\n      iszero\n      tag_166\n      jumpi\n      dup1\n      0x1f\n      lt\n      tag_167\n      jumpi\n      0x0100\n      dup1\n      dup4\n      sload\n      div\n      mul\n      dup4\n      mstore\n      swap2\n      0x20\n      add\n      swap2\n      jump(tag_166)\n    tag_167:\n      dup3\n      add\n      swap2\n      swap1\n      0x00\n      mstore\n      keccak256(0x00, 0x20)\n      swap1\n    tag_168:\n      dup2\n      sload\n      dup2\n      mstore\n      swap1\n      0x01\n      add\n      swap1\n      0x20\n      add\n      dup1\n      dup4\n      gt\n      tag_168\n      jumpi\n      dup3\n      swap1\n      sub\n      0x1f\n      and\n      dup3\n      add\n      swap2\n    tag_166:\n      pop\n      pop\n      pop\n      pop\n      pop\n      swap1\n      pop\n        /* \"@openzeppelin/contracts/token/ERC20/ERC20.sol\":2074:2163  function name() public view virtual returns (string memory) {... */\n      swap1\n      jump\t// out\n        /* \"@openzeppelin/contracts/token/ERC20/ERC20.sol\":4293:4479  function approve(address spender, uint256 value) public virtual returns (bool) {... */\n    tag_55:\n        /* \"@openzeppelin/contracts/token/ERC20/ERC20.sol\":4366:4370  bool */\n      0x00\n        /* \"@openzeppelin/contracts/token/ERC20/ERC20.sol\":4382:4395  address owner */\n      dup1\n        /* \"@openzeppelin/contracts/token/ERC20/ERC20.sol\":4398:4410  _msgSender() */\n      tag_170\n        /* \"@openzeppelin/contracts/token/ERC20/ERC20.sol\":4398:4408  _msgSender */\n      tag_171\n        /* \"@openzeppelin/contracts/token/ERC20/ERC20.sol\":4398:4410  _msgSender() */\n      jump\t// in\n    tag_170:\n        /* \"@openzeppelin/contracts/token/ERC20/ERC20.sol\":4382:4410  address owner = _msgSender() */\n      swap1\n      pop\n        /* \"@openzeppelin/contracts/token/ERC20/ERC20.sol\":4420:4451  _approve(owner, spender, value) */\n      tag_172\n        /* \"@openzeppelin/contracts/token/ERC20/ERC20.sol\":4429:4434  owner */\n      dup2\n        /* \"@openzeppelin/contracts/token/ERC20/ERC20.sol\":4436:4443  spender */\n      dup6\n        /* \"@openzeppelin/contracts/token/ERC20/ERC20.sol\":4445:4450  value */\n      dup6\n        /* \"@openzeppelin/contracts/token/ERC20/ERC20.sol\":4420:4428  _approve */\n      tag_173\n        /* \"@openzeppelin/contracts/token/ERC20/ERC20.sol\":4420:4451  _approve(owner, spender, value) */\n      jump\t// in\n    tag_172:\n        /* \"@openzeppelin/contracts/token/ERC20/ERC20.sol\":4468:4472  true */\n      0x01\n        /* \"@openzeppelin/contracts/token/ERC20/ERC20.sol\":4461:4472  return true */\n      swap2\n      pop\n      pop\n        /* \"@openzeppelin/contracts/token/ERC20/ERC20.sol\":4293:4479  function approve(address spender, uint256 value) public virtual returns (bool) {... */\n      swap3\n      swap2\n      pop\n      pop\n      jump\t// out\n        /* \"contracts/BonDeFiToken.sol\":1261:1534  function buyBond(uint256 amountTokens) public{... */\n    tag_60:\n        /* \"contracts/BonDeFiToken.sol\":1331:1341  stableCoin */\n      immutable(\"0x560f53f9e6643f63dace8b2695c9680c3b0d96473ff0914d6a3517970d490ef6\")\n        /* \"contracts/BonDeFiToken.sol\":1324:1355  IERC20(stableCoin).transferFrom */\n      0xffffffffffffffffffffffffffffffffffffffff\n      and\n      0x23b872dd\n        /* \"contracts/BonDeFiToken.sol\":1356:1366  msg.sender */\n      caller\n        /* \"contracts/BonDeFiToken.sol\":1375:1379  this */\n      address\n        /* \"contracts/BonDeFiToken.sol\":1394:1402  unitSize */\n      immutable(\"0xa92a119aeb5e5432887b46772e423cfac2594bfdf681094c34bd022e8c31d0\")\n        /* \"contracts/BonDeFiToken.sol\":1381:1393  amountTokens */\n      dup6\n        /* \"contracts/BonDeFiToken.sol\":1381:1402  amountTokens*unitSize */\n      tag_175\n      swap2\n      swap1\n      tag_176\n      jump\t// in\n    tag_175:\n        /* \"contracts/BonDeFiToken.sol\":1324:1403  IERC20(stableCoin).transferFrom(msg.sender,address(this),amountTokens*unitSize) */\n      mload(0x40)\n      dup5\n      0xffffffff\n      and\n      0xe0\n      shl\n      dup2\n      mstore\n      0x04\n      add\n      tag_177\n      swap4\n      swap3\n      swap2\n      swap1\n      tag_178\n      jump\t// in\n    tag_177:\n      0x20\n      mload(0x40)\n      dup1\n      dup4\n      sub\n      dup2\n      0x00\n      dup8\n      gas\n      call\n      iszero\n      dup1\n      iszero\n      tag_180\n      jumpi\n      returndatasize\n      0x00\n      dup1\n      returndatacopy\n      revert(0x00, returndatasize)\n    tag_180:\n      pop\n      pop\n      pop\n      pop\n      mload(0x40)\n      returndatasize\n      not(0x1f)\n      0x1f\n      dup3\n      add\n      and\n      dup3\n      add\n      dup1\n      0x40\n      mstore\n      pop\n      dup2\n      add\n      swap1\n      tag_181\n      swap2\n      swap1\n      tag_182\n      jump\t// in\n    tag_181:\n        /* \"contracts/BonDeFiToken.sol\":1316:1434  require(IERC20(stableCoin).transferFrom(msg.sender,address(this),amountTokens*unitSize),\"Stable coin transfer failed\") */\n      tag_183\n      jumpi\n      mload(0x40)\n      0x08c379a000000000000000000000000000000000000000000000000000000000\n      dup2\n      mstore\n      0x04\n      add\n      tag_184\n      swap1\n      tag_185\n      jump\t// in\n    tag_184:\n      mload(0x40)\n      dup1\n      swap2\n      sub\n      swap1\n      revert\n    tag_183:\n        /* \"contracts/BonDeFiToken.sol\":1458:1462  this */\n      address\n        /* \"contracts/BonDeFiToken.sol\":1452:1472  ERC20(this).transfer */\n      0xffffffffffffffffffffffffffffffffffffffff\n      and\n      0xa9059cbb\n        /* \"contracts/BonDeFiToken.sol\":1473:1483  msg.sender */\n      caller\n        /* \"contracts/BonDeFiToken.sol\":1484:1496  amountTokens */\n      dup4\n        /* \"contracts/BonDeFiToken.sol\":1452:1497  ERC20(this).transfer(msg.sender,amountTokens) */\n      mload(0x40)\n      dup4\n      0xffffffff\n      and\n      0xe0\n      shl\n      dup2\n      mstore\n      0x04\n      add\n      tag_186\n      swap3\n      swap2\n      swap1\n      tag_187\n      jump\t// in\n    tag_186:\n      0x20\n      mload(0x40)\n      dup1\n      dup4\n      sub\n      dup2\n      0x00\n      dup8\n      gas\n      call\n      iszero\n      dup1\n      iszero\n      tag_189\n      jumpi\n      returndatasize\n      0x00\n      dup1\n      returndatacopy\n      revert(0x00, returndatasize)\n    tag_189:\n      pop\n      pop\n      pop\n      pop\n      mload(0x40)\n      returndatasize\n      not(0x1f)\n      0x1f\n      dup3\n      add\n      and\n      dup3\n      add\n      dup1\n      0x40\n      mstore\n      pop\n      dup2\n      add\n      swap1\n      tag_190\n      swap2\n      swap1\n      tag_182\n      jump\t// in\n    tag_190:\n        /* \"contracts/BonDeFiToken.sol\":1444:1527  require(ERC20(this).transfer(msg.sender,amountTokens),\"Bond token transfer failed\") */\n      tag_191\n      jumpi\n      mload(0x40)\n      0x08c379a000000000000000000000000000000000000000000000000000000000\n      dup2\n      mstore\n      0x04\n      add\n      tag_192\n      swap1\n      tag_193\n      jump\t// in\n    tag_192:\n      mload(0x40)\n      dup1\n      swap2\n      sub\n      swap1\n      revert\n    tag_191:\n        /* \"contracts/BonDeFiToken.sol\":1261:1534  function buyBond(uint256 amountTokens) public{... */\n      pop\n      jump\t// out\n        /* \"@openzeppelin/contracts/token/ERC20/ERC20.sol\":3144:3241  function totalSupply() public view virtual returns (uint256) {... */\n    tag_62:\n        /* \"@openzeppelin/contracts/token/ERC20/ERC20.sol\":3196:3203  uint256 */\n      0x00\n        /* \"@openzeppelin/contracts/token/ERC20/ERC20.sol\":3222:3234  _totalSupply */\n      sload(0x02)\n        /* \"@openzeppelin/contracts/token/ERC20/ERC20.sol\":3215:3234  return _totalSupply */\n      swap1\n      pop\n        /* \"@openzeppelin/contracts/token/ERC20/ERC20.sol\":3144:3241  function totalSupply() public view virtual returns (uint256) {... */\n      swap1\n      jump\t// out\n        /* \"@openzeppelin/contracts/token/ERC20/ERC20.sol\":5039:5283  function transferFrom(address from, address to, uint256 value) public virtual returns (bool) {... */\n    tag_68:\n        /* \"@openzeppelin/contracts/token/ERC20/ERC20.sol\":5126:5130  bool */\n      0x00\n        /* \"@openzeppelin/contracts/token/ERC20/ERC20.sol\":5142:5157  address spender */\n      dup1\n        /* \"@openzeppelin/contracts/token/ERC20/ERC20.sol\":5160:5172  _msgSender() */\n      tag_196\n        /* \"@openzeppelin/contracts/token/ERC20/ERC20.sol\":5160:5170  _msgSender */\n      tag_171\n        /* \"@openzeppelin/contracts/token/ERC20/ERC20.sol\":5160:5172  _msgSender() */\n      jump\t// in\n    tag_196:\n        /* \"@openzeppelin/contracts/token/ERC20/ERC20.sol\":5142:5172  address spender = _msgSender() */\n      swap1\n      pop\n        /* \"@openzeppelin/contracts/token/ERC20/ERC20.sol\":5182:5219  _spendAllowance(from, spender, value) */\n      tag_197\n        /* \"@openzeppelin/contracts/token/ERC20/ERC20.sol\":5198:5202  from */\n      dup6\n        /* \"@openzeppelin/contracts/token/ERC20/ERC20.sol\":5204:5211  spender */\n      dup3\n        /* \"@openzeppelin/contracts/token/ERC20/ERC20.sol\":5213:5218  value */\n      dup6\n        /* \"@openzeppelin/contracts/token/ERC20/ERC20.sol\":5182:5197  _spendAllowance */\n      tag_198\n        /* \"@openzeppelin/contracts/token/ERC20/ERC20.sol\":5182:5219  _spendAllowance(from, spender, value) */\n      jump\t// in\n    tag_197:\n        /* \"@openzeppelin/contracts/token/ERC20/ERC20.sol\":5229:5255  _transfer(from, to, value) */\n      tag_199\n        /* \"@openzeppelin/contracts/token/ERC20/ERC20.sol\":5239:5243  from */\n      dup6\n        /* \"@openzeppelin/contracts/token/ERC20/ERC20.sol\":5245:5247  to */\n      dup6\n        /* \"@openzeppelin/contracts/token/ERC20/ERC20.sol\":5249:5254  value */\n      dup6\n        /* \"@openzeppelin/contracts/token/ERC20/ERC20.sol\":5229:5238  _transfer */\n      tag_200\n        /* \"@openzeppelin/contracts/token/ERC20/ERC20.sol\":5229:5255  _transfer(from, to, value) */\n      jump\t// in\n    tag_199:\n        /* \"@openzeppelin/contracts/token/ERC20/ERC20.sol\":5272:5276  true */\n      0x01\n        /* \"@openzeppelin/contracts/token/ERC20/ERC20.sol\":5265:5276  return true */\n      swap2\n      pop\n      pop\n        /* \"@openzeppelin/contracts/token/ERC20/ERC20.sol\":5039:5283  function transferFrom(address from, address to, uint256 value) public virtual returns (bool) {... */\n      swap4\n      swap3\n      pop\n      pop\n      pop\n      jump\t// out\n        /* \"@openzeppelin/contracts/access/AccessControl.sol\":3810:3930  function getRoleAdmin(bytes32 role) public view virtual returns (bytes32) {... */\n    tag_73:\n        /* \"@openzeppelin/contracts/access/AccessControl.sol\":3875:3882  bytes32 */\n      0x00\n        /* \"@openzeppelin/contracts/access/AccessControl.sol\":3901:3907  _roles */\n      0x06\n        /* \"@openzeppelin/contracts/access/AccessControl.sol\":3901:3913  _roles[role] */\n      0x00\n        /* \"@openzeppelin/contracts/access/AccessControl.sol\":3908:3912  role */\n      dup4\n        /* \"@openzeppelin/contracts/access/AccessControl.sol\":3901:3913  _roles[role] */\n      dup2\n      mstore\n      0x20\n      add\n      swap1\n      dup2\n      mstore\n      0x20\n      add\n      0x00\n      keccak256\n        /* \"@openzeppelin/contracts/access/AccessControl.sol\":3901:3923  _roles[role].adminRole */\n      0x01\n      add\n      sload\n        /* \"@openzeppelin/contracts/access/AccessControl.sol\":3894:3923  return _roles[role].adminRole */\n      swap1\n      pop\n        /* \"@openzeppelin/contracts/access/AccessControl.sol\":3810:3930  function getRoleAdmin(bytes32 role) public view virtual returns (bytes32) {... */\n      swap2\n      swap1\n      pop\n      jump\t// out\n        /* \"contracts/BonDeFiToken.sol\":455:505  bytes32 public constant ADMIN = keccak256(\"ADMIN\") */\n    tag_77:\n        /* \"contracts/BonDeFiToken.sol\":487:505  keccak256(\"ADMIN\") */\n      0xdf8b4c520ffe197c5343c6f5aec59570151ef9a492f2c624fd45ddde6135ec42\n        /* \"contracts/BonDeFiToken.sol\":455:505  bytes32 public constant ADMIN = keccak256(\"ADMIN\") */\n      dup2\n      jump\t// out\n        /* \"@openzeppelin/contracts/access/AccessControl.sol\":4226:4362  function grantRole(bytes32 role, address account) public virtual onlyRole(getRoleAdmin(role)) {... */\n    tag_82:\n        /* \"@openzeppelin/contracts/access/AccessControl.sol\":4300:4318  getRoleAdmin(role) */\n      tag_202\n        /* \"@openzeppelin/contracts/access/AccessControl.sol\":4313:4317  role */\n      dup3\n        /* \"@openzeppelin/contracts/access/AccessControl.sol\":4300:4312  getRoleAdmin */\n      tag_73\n        /* \"@openzeppelin/contracts/access/AccessControl.sol\":4300:4318  getRoleAdmin(role) */\n      jump\t// in\n    tag_202:\n        /* \"@openzeppelin/contracts/access/AccessControl.sol\":2464:2480  _checkRole(role) */\n      tag_204\n        /* \"@openzeppelin/contracts/access/AccessControl.sol\":2475:2479  role */\n      dup2\n        /* \"@openzeppelin/contracts/access/AccessControl.sol\":2464:2474  _checkRole */\n      tag_205\n        /* \"@openzeppelin/contracts/access/AccessControl.sol\":2464:2480  _checkRole(role) */\n      jump\t// in\n    tag_204:\n        /* \"@openzeppelin/contracts/access/AccessControl.sol\":4330:4355  _grantRole(role, account) */\n      tag_207\n        /* \"@openzeppelin/contracts/access/AccessControl.sol\":4341:4345  role */\n      dup4\n        /* \"@openzeppelin/contracts/access/AccessControl.sol\":4347:4354  account */\n      dup4\n        /* \"@openzeppelin/contracts/access/AccessControl.sol\":4330:4340  _grantRole */\n      tag_208\n        /* \"@openzeppelin/contracts/access/AccessControl.sol\":4330:4355  _grantRole(role, account) */\n      jump\t// in\n    tag_207:\n      pop\n        /* \"@openzeppelin/contracts/access/AccessControl.sol\":4226:4362  function grantRole(bytes32 role, address account) public virtual onlyRole(getRoleAdmin(role)) {... */\n      pop\n      pop\n      pop\n      jump\t// out\n        /* \"@openzeppelin/contracts/token/ERC20/ERC20.sol\":3002:3084  function decimals() public view virtual returns (uint8) {... */\n    tag_84:\n        /* \"@openzeppelin/contracts/token/ERC20/ERC20.sol\":3051:3056  uint8 */\n      0x00\n        /* \"@openzeppelin/contracts/token/ERC20/ERC20.sol\":3075:3077  18 */\n      0x12\n        /* \"@openzeppelin/contracts/token/ERC20/ERC20.sol\":3068:3077  return 18 */\n      swap1\n      pop\n        /* \"@openzeppelin/contracts/token/ERC20/ERC20.sol\":3002:3084  function decimals() public view virtual returns (uint8) {... */\n      swap1\n      jump\t// out\n        /* \"@openzeppelin/contracts/access/AccessControl.sol\":5328:5573  function renounceRole(bytes32 role, address callerConfirmation) public virtual {... */\n    tag_89:\n        /* \"@openzeppelin/contracts/access/AccessControl.sol\":5443:5455  _msgSender() */\n      tag_211\n        /* \"@openzeppelin/contracts/access/AccessControl.sol\":5443:5453  _msgSender */\n      tag_171\n        /* \"@openzeppelin/contracts/access/AccessControl.sol\":5443:5455  _msgSender() */\n      jump\t// in\n    tag_211:\n        /* \"@openzeppelin/contracts/access/AccessControl.sol\":5421:5455  callerConfirmation != _msgSender() */\n      0xffffffffffffffffffffffffffffffffffffffff\n      and\n        /* \"@openzeppelin/contracts/access/AccessControl.sol\":5421:5439  callerConfirmation */\n      dup2\n        /* \"@openzeppelin/contracts/access/AccessControl.sol\":5421:5455  callerConfirmation != _msgSender() */\n      0xffffffffffffffffffffffffffffffffffffffff\n      and\n      eq\n        /* \"@openzeppelin/contracts/access/AccessControl.sol\":5417:5519  if (callerConfirmation != _msgSender()) {... */\n      tag_212\n      jumpi\n        /* \"@openzeppelin/contracts/access/AccessControl.sol\":5478:5508  AccessControlBadConfirmation() */\n      mload(0x40)\n      0x6697b23200000000000000000000000000000000000000000000000000000000\n      dup2\n      mstore\n      0x04\n      add\n      mload(0x40)\n      dup1\n      swap2\n      sub\n      swap1\n      revert\n        /* \"@openzeppelin/contracts/access/AccessControl.sol\":5417:5519  if (callerConfirmation != _msgSender()) {... */\n    tag_212:\n        /* \"@openzeppelin/contracts/access/AccessControl.sol\":5529:5566  _revokeRole(role, callerConfirmation) */\n      tag_213\n        /* \"@openzeppelin/contracts/access/AccessControl.sol\":5541:5545  role */\n      dup3\n        /* \"@openzeppelin/contracts/access/AccessControl.sol\":5547:5565  callerConfirmation */\n      dup3\n        /* \"@openzeppelin/contracts/access/AccessControl.sol\":5529:5540  _revokeRole */\n      tag_214\n        /* \"@openzeppelin/contracts/access/AccessControl.sol\":5529:5566  _revokeRole(role, callerConfirmation) */\n      jump\t// in\n    tag_213:\n      pop\n        /* \"@openzeppelin/contracts/access/AccessControl.sol\":5328:5573  function renounceRole(bytes32 role, address callerConfirmation) public virtual {... */\n      pop\n      pop\n      jump\t// out\n        /* \"contracts/BonDeFiToken.sol\":3374:3443  function unpause() public onlyRole(ADMIN) {... */\n    tag_91:\n        /* \"contracts/BonDeFiToken.sol\":487:505  keccak256(\"ADMIN\") */\n      0xdf8b4c520ffe197c5343c6f5aec59570151ef9a492f2c624fd45ddde6135ec42\n        /* \"@openzeppelin/contracts/access/AccessControl.sol\":2464:2480  _checkRole(role) */\n      tag_216\n        /* \"@openzeppelin/contracts/access/AccessControl.sol\":2475:2479  role */\n      dup2\n        /* \"@openzeppelin/contracts/access/AccessControl.sol\":2464:2474  _checkRole */\n      tag_205\n        /* \"@openzeppelin/contracts/access/AccessControl.sol\":2464:2480  _checkRole(role) */\n      jump\t// in\n    tag_216:\n        /* \"contracts/BonDeFiToken.sol\":3426:3436  _unpause() */\n      tag_218\n        /* \"contracts/BonDeFiToken.sol\":3426:3434  _unpause */\n      tag_219\n        /* \"contracts/BonDeFiToken.sol\":3426:3436  _unpause() */\n      jump\t// in\n    tag_218:\n        /* \"contracts/BonDeFiToken.sol\":3374:3443  function unpause() public onlyRole(ADMIN) {... */\n      pop\n      jump\t// out\n        /* \"@openzeppelin/contracts/token/ERC20/extensions/ERC20Burnable.sol\":618:705  function burn(uint256 value) public virtual {... */\n    tag_94:\n        /* \"@openzeppelin/contracts/token/ERC20/extensions/ERC20Burnable.sol\":672:698  _burn(_msgSender(), value) */\n      tag_221\n        /* \"@openzeppelin/contracts/token/ERC20/extensions/ERC20Burnable.sol\":678:690  _msgSender() */\n      tag_222\n        /* \"@openzeppelin/contracts/token/ERC20/extensions/ERC20Burnable.sol\":678:688  _msgSender */\n      tag_171\n        /* \"@openzeppelin/contracts/token/ERC20/extensions/ERC20Burnable.sol\":678:690  _msgSender() */\n      jump\t// in\n    tag_222:\n        /* \"@openzeppelin/contracts/token/ERC20/extensions/ERC20Burnable.sol\":692:697  value */\n      dup3\n        /* \"@openzeppelin/contracts/token/ERC20/extensions/ERC20Burnable.sol\":672:677  _burn */\n      tag_223\n        /* \"@openzeppelin/contracts/token/ERC20/extensions/ERC20Burnable.sol\":672:698  _burn(_msgSender(), value) */\n      jump\t// in\n    tag_221:\n        /* \"@openzeppelin/contracts/token/ERC20/extensions/ERC20Burnable.sol\":618:705  function burn(uint256 value) public virtual {... */\n      pop\n      jump\t// out\n        /* \"@openzeppelin/contracts/utils/Pausable.sol\":1850:1934  function paused() public view virtual returns (bool) {... */\n    tag_96:\n        /* \"@openzeppelin/contracts/utils/Pausable.sol\":1897:1901  bool */\n      0x00\n        /* \"@openzeppelin/contracts/utils/Pausable.sol\":1920:1927  _paused */\n      0x05\n      0x00\n      swap1\n      sload\n      swap1\n      0x0100\n      exp\n      swap1\n      div\n      0xff\n      and\n        /* \"@openzeppelin/contracts/utils/Pausable.sol\":1913:1927  return _paused */\n      swap1\n      pop\n        /* \"@openzeppelin/contracts/utils/Pausable.sol\":1850:1934  function paused() public view virtual returns (bool) {... */\n      swap1\n      jump\t// out\n        /* \"@openzeppelin/contracts/token/ERC20/ERC20.sol\":3299:3415  function balanceOf(address account) public view virtual returns (uint256) {... */\n    tag_101:\n        /* \"@openzeppelin/contracts/token/ERC20/ERC20.sol\":3364:3371  uint256 */\n      0x00\n        /* \"@openzeppelin/contracts/token/ERC20/ERC20.sol\":3390:3399  _balances */\n      dup1\n        /* \"@openzeppelin/contracts/token/ERC20/ERC20.sol\":3390:3408  _balances[account] */\n      0x00\n        /* \"@openzeppelin/contracts/token/ERC20/ERC20.sol\":3400:3407  account */\n      dup4\n        /* \"@openzeppelin/contracts/token/ERC20/ERC20.sol\":3390:3408  _balances[account] */\n      0xffffffffffffffffffffffffffffffffffffffff\n      and\n      0xffffffffffffffffffffffffffffffffffffffff\n      and\n      dup2\n      mstore\n      0x20\n      add\n      swap1\n      dup2\n      mstore\n      0x20\n      add\n      0x00\n      keccak256\n      sload\n        /* \"@openzeppelin/contracts/token/ERC20/ERC20.sol\":3383:3408  return _balances[account] */\n      swap1\n      pop\n        /* \"@openzeppelin/contracts/token/ERC20/ERC20.sol\":3299:3415  function balanceOf(address account) public view virtual returns (uint256) {... */\n      swap2\n      swap1\n      pop\n      jump\t// out\n        /* \"@openzeppelin/contracts/token/ERC20/extensions/ERC20Burnable.sol\":1021:1179  function burnFrom(address account, uint256 value) public virtual {... */\n    tag_105:\n        /* \"@openzeppelin/contracts/token/ERC20/extensions/ERC20Burnable.sol\":1096:1141  _spendAllowance(account, _msgSender(), value) */\n      tag_227\n        /* \"@openzeppelin/contracts/token/ERC20/extensions/ERC20Burnable.sol\":1112:1119  account */\n      dup3\n        /* \"@openzeppelin/contracts/token/ERC20/extensions/ERC20Burnable.sol\":1121:1133  _msgSender() */\n      tag_228\n        /* \"@openzeppelin/contracts/token/ERC20/extensions/ERC20Burnable.sol\":1121:1131  _msgSender */\n      tag_171\n        /* \"@openzeppelin/contracts/token/ERC20/extensions/ERC20Burnable.sol\":1121:1133  _msgSender() */\n      jump\t// in\n    tag_228:\n        /* \"@openzeppelin/contracts/token/ERC20/extensions/ERC20Burnable.sol\":1135:1140  value */\n      dup4\n        /* \"@openzeppelin/contracts/token/ERC20/extensions/ERC20Burnable.sol\":1096:1111  _spendAllowance */\n      tag_198\n        /* \"@openzeppelin/contracts/token/ERC20/extensions/ERC20Burnable.sol\":1096:1141  _spendAllowance(account, _msgSender(), value) */\n      jump\t// in\n    tag_227:\n        /* \"@openzeppelin/contracts/token/ERC20/extensions/ERC20Burnable.sol\":1151:1172  _burn(account, value) */\n      tag_229\n        /* \"@openzeppelin/contracts/token/ERC20/extensions/ERC20Burnable.sol\":1157:1164  account */\n      dup3\n        /* \"@openzeppelin/contracts/token/ERC20/extensions/ERC20Burnable.sol\":1166:1171  value */\n      dup3\n        /* \"@openzeppelin/contracts/token/ERC20/extensions/ERC20Burnable.sol\":1151:1156  _burn */\n      tag_223\n        /* \"@openzeppelin/contracts/token/ERC20/extensions/ERC20Burnable.sol\":1151:1172  _burn(account, value) */\n      jump\t// in\n    tag_229:\n        /* \"@openzeppelin/contracts/token/ERC20/extensions/ERC20Burnable.sol\":1021:1179  function burnFrom(address account, uint256 value) public virtual {... */\n      pop\n      pop\n      jump\t// out\n        /* \"contracts/BonDeFiToken.sol\":3303:3368  function pause() public onlyRole(ADMIN) {... */\n    tag_107:\n        /* \"contracts/BonDeFiToken.sol\":487:505  keccak256(\"ADMIN\") */\n      0xdf8b4c520ffe197c5343c6f5aec59570151ef9a492f2c624fd45ddde6135ec42\n        /* \"@openzeppelin/contracts/access/AccessControl.sol\":2464:2480  _checkRole(role) */\n      tag_231\n        /* \"@openzeppelin/contracts/access/AccessControl.sol\":2475:2479  role */\n      dup2\n        /* \"@openzeppelin/contracts/access/AccessControl.sol\":2464:2474  _checkRole */\n      tag_205\n        /* \"@openzeppelin/contracts/access/AccessControl.sol\":2464:2480  _checkRole(role) */\n      jump\t// in\n    tag_231:\n        /* \"contracts/BonDeFiToken.sol\":3353:3361  _pause() */\n      tag_233\n        /* \"contracts/BonDeFiToken.sol\":3353:3359  _pause */\n      tag_234\n        /* \"contracts/BonDeFiToken.sol\":3353:3361  _pause() */\n      jump\t// in\n    tag_233:\n        /* \"contracts/BonDeFiToken.sol\":3303:3368  function pause() public onlyRole(ADMIN) {... */\n      pop\n      jump\t// out\n        /* \"contracts/BonDeFiToken.sol\":1742:2147  function distributeInterestAll(address[] memory tokenHolders, uint256[] memory amounts) public onlyRole(ADMIN) {... */\n    tag_111:\n        /* \"contracts/BonDeFiToken.sol\":487:505  keccak256(\"ADMIN\") */\n      0xdf8b4c520ffe197c5343c6f5aec59570151ef9a492f2c624fd45ddde6135ec42\n        /* \"@openzeppelin/contracts/access/AccessControl.sol\":2464:2480  _checkRole(role) */\n      tag_236\n        /* \"@openzeppelin/contracts/access/AccessControl.sol\":2475:2479  role */\n      dup2\n        /* \"@openzeppelin/contracts/access/AccessControl.sol\":2464:2474  _checkRole */\n      tag_205\n        /* \"@openzeppelin/contracts/access/AccessControl.sol\":2464:2480  _checkRole(role) */\n      jump\t// in\n    tag_236:\n        /* \"contracts/BonDeFiToken.sol\":1894:1901  amounts */\n      dup2\n        /* \"contracts/BonDeFiToken.sol\":1894:1908  amounts.length */\n      mload\n        /* \"contracts/BonDeFiToken.sol\":1871:1883  tokenHolders */\n      dup4\n        /* \"contracts/BonDeFiToken.sol\":1871:1890  tokenHolders.length */\n      mload\n        /* \"contracts/BonDeFiToken.sol\":1871:1908  tokenHolders.length == amounts.length */\n      eq\n        /* \"contracts/BonDeFiToken.sol\":1863:1954  require(tokenHolders.length == amounts.length, \"Token holders and amounts length mismatch\") */\n      tag_238\n      jumpi\n      mload(0x40)\n      0x08c379a000000000000000000000000000000000000000000000000000000000\n      dup2\n      mstore\n      0x04\n      add\n      tag_239\n      swap1\n      tag_240\n      jump\t// in\n    tag_239:\n      mload(0x40)\n      dup1\n      swap2\n      sub\n      swap1\n      revert\n    tag_238:\n        /* \"contracts/BonDeFiToken.sol\":1969:1978  uint256 i */\n      0x00\n        /* \"contracts/BonDeFiToken.sol\":1964:2141  for (uint256 i = 0; i < tokenHolders.length; i++) {... */\n    tag_241:\n        /* \"contracts/BonDeFiToken.sol\":1988:2000  tokenHolders */\n      dup4\n        /* \"contracts/BonDeFiToken.sol\":1988:2007  tokenHolders.length */\n      mload\n        /* \"contracts/BonDeFiToken.sol\":1984:1985  i */\n      dup2\n        /* \"contracts/BonDeFiToken.sol\":1984:2007  i < tokenHolders.length */\n      lt\n        /* \"contracts/BonDeFiToken.sol\":1964:2141  for (uint256 i = 0; i < tokenHolders.length; i++) {... */\n      iszero\n      tag_242\n      jumpi\n        /* \"contracts/BonDeFiToken.sol\":2043:2055  interestCoin */\n      immutable(\"0xc6fa869c00cca07fff5e26638bf9bc331de0994499fcf1ee63eb1a2437869a1b\")\n        /* \"contracts/BonDeFiToken.sol\":2036:2069  IERC20(interestCoin).transferFrom */\n      0xffffffffffffffffffffffffffffffffffffffff\n      and\n      0x23b872dd\n        /* \"contracts/BonDeFiToken.sol\":2070:2080  msg.sender */\n      caller\n        /* \"contracts/BonDeFiToken.sol\":2082:2094  tokenHolders */\n      dup7\n        /* \"contracts/BonDeFiToken.sol\":2095:2096  i */\n      dup5\n        /* \"contracts/BonDeFiToken.sol\":2082:2097  tokenHolders[i] */\n      dup2\n      mload\n      dup2\n      lt\n      tag_244\n      jumpi\n      tag_245\n      tag_246\n      jump\t// in\n    tag_245:\n    tag_244:\n      0x20\n      mul\n      0x20\n      add\n      add\n      mload\n        /* \"contracts/BonDeFiToken.sol\":2099:2106  amounts */\n      dup7\n        /* \"contracts/BonDeFiToken.sol\":2107:2108  i */\n      dup6\n        /* \"contracts/BonDeFiToken.sol\":2099:2109  amounts[i] */\n      dup2\n      mload\n      dup2\n      lt\n      tag_247\n      jumpi\n      tag_248\n      tag_246\n      jump\t// in\n    tag_248:\n    tag_247:\n      0x20\n      mul\n      0x20\n      add\n      add\n      mload\n        /* \"contracts/BonDeFiToken.sol\":2036:2110  IERC20(interestCoin).transferFrom(msg.sender, tokenHolders[i], amounts[i]) */\n      mload(0x40)\n      dup5\n      0xffffffff\n      and\n      0xe0\n      shl\n      dup2\n      mstore\n      0x04\n      add\n      tag_249\n      swap4\n      swap3\n      swap2\n      swap1\n      tag_178\n      jump\t// in\n    tag_249:\n      0x20\n      mload(0x40)\n      dup1\n      dup4\n      sub\n      dup2\n      0x00\n      dup8\n      gas\n      call\n      iszero\n      dup1\n      iszero\n      tag_251\n      jumpi\n      returndatasize\n      0x00\n      dup1\n      returndatacopy\n      revert(0x00, returndatasize)\n    tag_251:\n      pop\n      pop\n      pop\n      pop\n      mload(0x40)\n      returndatasize\n      not(0x1f)\n      0x1f\n      dup3\n      add\n      and\n      dup3\n      add\n      dup1\n      0x40\n      mstore\n      pop\n      dup2\n      add\n      swap1\n      tag_252\n      swap2\n      swap1\n      tag_182\n      jump\t// in\n    tag_252:\n        /* \"contracts/BonDeFiToken.sol\":2028:2130  require(IERC20(interestCoin).transferFrom(msg.sender, tokenHolders[i], amounts[i]), \"Transfer failed\") */\n      tag_253\n      jumpi\n      mload(0x40)\n      0x08c379a000000000000000000000000000000000000000000000000000000000\n      dup2\n      mstore\n      0x04\n      add\n      tag_254\n      swap1\n      tag_255\n      jump\t// in\n    tag_254:\n      mload(0x40)\n      dup1\n      swap2\n      sub\n      swap1\n      revert\n    tag_253:\n        /* \"contracts/BonDeFiToken.sol\":2009:2012  i++ */\n      dup1\n      dup1\n      0x01\n      add\n      swap2\n      pop\n      pop\n        /* \"contracts/BonDeFiToken.sol\":1964:2141  for (uint256 i = 0; i < tokenHolders.length; i++) {... */\n      jump(tag_241)\n    tag_242:\n      pop\n        /* \"contracts/BonDeFiToken.sol\":1742:2147  function distributeInterestAll(address[] memory tokenHolders, uint256[] memory amounts) public onlyRole(ADMIN) {... */\n      pop\n      pop\n      pop\n      jump\t// out\n        /* \"@openzeppelin/contracts/access/AccessControl.sol\":2854:2990  function hasRole(bytes32 role, address account) public view virtual returns (bool) {... */\n    tag_114:\n        /* \"@openzeppelin/contracts/access/AccessControl.sol\":2931:2935  bool */\n      0x00\n        /* \"@openzeppelin/contracts/access/AccessControl.sol\":2954:2960  _roles */\n      0x06\n        /* \"@openzeppelin/contracts/access/AccessControl.sol\":2954:2966  _roles[role] */\n      0x00\n        /* \"@openzeppelin/contracts/access/AccessControl.sol\":2961:2965  role */\n      dup5\n        /* \"@openzeppelin/contracts/access/AccessControl.sol\":2954:2966  _roles[role] */\n      dup2\n      mstore\n      0x20\n      add\n      swap1\n      dup2\n      mstore\n      0x20\n      add\n      0x00\n      keccak256\n        /* \"@openzeppelin/contracts/access/AccessControl.sol\":2954:2974  _roles[role].hasRole */\n      0x00\n      add\n        /* \"@openzeppelin/contracts/access/AccessControl.sol\":2954:2983  _roles[role].hasRole[account] */\n      0x00\n        /* \"@openzeppelin/contracts/access/AccessControl.sol\":2975:2982  account */\n      dup4\n        /* \"@openzeppelin/contracts/access/AccessControl.sol\":2954:2983  _roles[role].hasRole[account] */\n      0xffffffffffffffffffffffffffffffffffffffff\n      and\n      0xffffffffffffffffffffffffffffffffffffffff\n      and\n      dup2\n      mstore\n      0x20\n      add\n      swap1\n      dup2\n      mstore\n      0x20\n      add\n      0x00\n      keccak256\n      0x00\n      swap1\n      sload\n      swap1\n      0x0100\n      exp\n      swap1\n      div\n      0xff\n      and\n        /* \"@openzeppelin/contracts/access/AccessControl.sol\":2947:2983  return _roles[role].hasRole[account] */\n      swap1\n      pop\n        /* \"@openzeppelin/contracts/access/AccessControl.sol\":2854:2990  function hasRole(bytes32 role, address account) public view virtual returns (bool) {... */\n      swap3\n      swap2\n      pop\n      pop\n      jump\t// out\n        /* \"@openzeppelin/contracts/token/ERC20/ERC20.sol\":2276:2369  function symbol() public view virtual returns (string memory) {... */\n    tag_117:\n        /* \"@openzeppelin/contracts/token/ERC20/ERC20.sol\":2323:2336  string memory */\n      0x60\n        /* \"@openzeppelin/contracts/token/ERC20/ERC20.sol\":2355:2362  _symbol */\n      0x04\n        /* \"@openzeppelin/contracts/token/ERC20/ERC20.sol\":2348:2362  return _symbol */\n      dup1\n      sload\n      tag_258\n      swap1\n      tag_164\n      jump\t// in\n    tag_258:\n      dup1\n      0x1f\n      add\n      0x20\n      dup1\n      swap2\n      div\n      mul\n      0x20\n      add\n      mload(0x40)\n      swap1\n      dup2\n      add\n      0x40\n      mstore\n      dup1\n      swap3\n      swap2\n      swap1\n      dup2\n      dup2\n      mstore\n      0x20\n      add\n      dup3\n      dup1\n      sload\n      tag_259\n      swap1\n      tag_164\n      jump\t// in\n    tag_259:\n      dup1\n      iszero\n      tag_260\n      jumpi\n      dup1\n      0x1f\n      lt\n      tag_261\n      jumpi\n      0x0100\n      dup1\n      dup4\n      sload\n      div\n      mul\n      dup4\n      mstore\n      swap2\n      0x20\n      add\n      swap2\n      jump(tag_260)\n    tag_261:\n      dup3\n      add\n      swap2\n      swap1\n      0x00\n      mstore\n      keccak256(0x00, 0x20)\n      swap1\n    tag_262:\n      dup2\n      sload\n      dup2\n      mstore\n      swap1\n      0x01\n      add\n      swap1\n      0x20\n      add\n      dup1\n      dup4\n      gt\n      tag_262\n      jumpi\n      dup3\n      swap1\n      sub\n      0x1f\n      and\n      dup3\n      add\n      swap2\n    tag_260:\n      pop\n      pop\n      pop\n      pop\n      pop\n      swap1\n      pop\n        /* \"@openzeppelin/contracts/token/ERC20/ERC20.sol\":2276:2369  function symbol() public view virtual returns (string memory) {... */\n      swap1\n      jump\t// out\n        /* \"contracts/BonDeFiToken.sol\":579:614  address public immutable stableCoin */\n    tag_120:\n      immutable(\"0x560f53f9e6643f63dace8b2695c9680c3b0d96473ff0914d6a3517970d490ef6\")\n      dup2\n      jump\t// out\n        /* \"@openzeppelin/contracts/access/AccessControl.sol\":2187:2236  bytes32 public constant DEFAULT_ADMIN_ROLE = 0x00 */\n    tag_124:\n        /* \"@openzeppelin/contracts/access/AccessControl.sol\":2232:2236  0x00 */\n      0x00\n        /* \"@openzeppelin/contracts/access/AccessControl.sol\":2187:2236  bytes32 public constant DEFAULT_ADMIN_ROLE = 0x00 */\n      dup1\n      shl\n      dup2\n      jump\t// out\n        /* \"@openzeppelin/contracts/token/ERC20/ERC20.sol\":3610:3788  function transfer(address to, uint256 value) public virtual returns (bool) {... */\n    tag_128:\n        /* \"@openzeppelin/contracts/token/ERC20/ERC20.sol\":3679:3683  bool */\n      0x00\n        /* \"@openzeppelin/contracts/token/ERC20/ERC20.sol\":3695:3708  address owner */\n      dup1\n        /* \"@openzeppelin/contracts/token/ERC20/ERC20.sol\":3711:3723  _msgSender() */\n      tag_264\n        /* \"@openzeppelin/contracts/token/ERC20/ERC20.sol\":3711:3721  _msgSender */\n      tag_171\n        /* \"@openzeppelin/contracts/token/ERC20/ERC20.sol\":3711:3723  _msgSender() */\n      jump\t// in\n    tag_264:\n        /* \"@openzeppelin/contracts/token/ERC20/ERC20.sol\":3695:3723  address owner = _msgSender() */\n      swap1\n      pop\n        /* \"@openzeppelin/contracts/token/ERC20/ERC20.sol\":3733:3760  _transfer(owner, to, value) */\n      tag_265\n        /* \"@openzeppelin/contracts/token/ERC20/ERC20.sol\":3743:3748  owner */\n      dup2\n        /* \"@openzeppelin/contracts/token/ERC20/ERC20.sol\":3750:3752  to */\n      dup6\n        /* \"@openzeppelin/contracts/token/ERC20/ERC20.sol\":3754:3759  value */\n      dup6\n        /* \"@openzeppelin/contracts/token/ERC20/ERC20.sol\":3733:3742  _transfer */\n      tag_200\n        /* \"@openzeppelin/contracts/token/ERC20/ERC20.sol\":3733:3760  _transfer(owner, to, value) */\n      jump\t// in\n    tag_265:\n        /* \"@openzeppelin/contracts/token/ERC20/ERC20.sol\":3777:3781  true */\n      0x01\n        /* \"@openzeppelin/contracts/token/ERC20/ERC20.sol\":3770:3781  return true */\n      swap2\n      pop\n      pop\n        /* \"@openzeppelin/contracts/token/ERC20/ERC20.sol\":3610:3788  function transfer(address to, uint256 value) public virtual returns (bool) {... */\n      swap3\n      swap2\n      pop\n      pop\n      jump\t// out\n        /* \"contracts/BonDeFiToken.sol\":663:696  uint256 public immutable unitSize */\n    tag_131:\n      immutable(\"0xa92a119aeb5e5432887b46772e423cfac2594bfdf681094c34bd022e8c31d0\")\n      dup2\n      jump\t// out\n        /* \"contracts/BonDeFiToken.sol\":2485:3018  function claimFaceValue(uint256 amountTokens) public{... */\n    tag_135:\n        /* \"contracts/BonDeFiToken.sol\":2599:2611  maturityDate */\n      immutable(\"0x55749baaca540012815eedf8aea70b0787b33390f36b1cc139ea0fe0d5fa1ba2\")\n        /* \"contracts/BonDeFiToken.sol\":2580:2595  block.timestamp */\n      timestamp\n        /* \"contracts/BonDeFiToken.sol\":2580:2611  block.timestamp >= maturityDate */\n      lt\n      iszero\n        /* \"contracts/BonDeFiToken.sol\":2572:2639  require(block.timestamp >= maturityDate,\"Maturity not yet reached\") */\n      tag_267\n      jumpi\n      mload(0x40)\n      0x08c379a000000000000000000000000000000000000000000000000000000000\n      dup2\n      mstore\n      0x04\n      add\n      tag_268\n      swap1\n      tag_269\n      jump\t// in\n    tag_268:\n      mload(0x40)\n      dup1\n      swap2\n      sub\n      swap1\n      revert\n    tag_267:\n        /* \"contracts/BonDeFiToken.sol\":2699:2700  0 */\n      0x00\n        /* \"contracts/BonDeFiToken.sol\":2684:2696  amountTokens */\n      dup2\n        /* \"contracts/BonDeFiToken.sol\":2684:2700  amountTokens > 0 */\n      gt\n        /* \"contracts/BonDeFiToken.sol\":2676:2726  require(amountTokens > 0,\"Can't claim zero coins\") */\n      tag_270\n      jumpi\n      mload(0x40)\n      0x08c379a000000000000000000000000000000000000000000000000000000000\n      dup2\n      mstore\n      0x04\n      add\n      tag_271\n      swap1\n      tag_272\n      jump\t// in\n    tag_271:\n      mload(0x40)\n      dup1\n      swap2\n      sub\n      swap1\n      revert\n    tag_270:\n        /* \"contracts/BonDeFiToken.sol\":2750:2754  this */\n      address\n        /* \"contracts/BonDeFiToken.sol\":2744:2768  ERC20(this).transferFrom */\n      0xffffffffffffffffffffffffffffffffffffffff\n      and\n      0x23b872dd\n        /* \"contracts/BonDeFiToken.sol\":2769:2779  msg.sender */\n      caller\n        /* \"contracts/BonDeFiToken.sol\":2788:2792  this */\n      address\n        /* \"contracts/BonDeFiToken.sol\":2794:2806  amountTokens */\n      dup5\n        /* \"contracts/BonDeFiToken.sol\":2744:2807  ERC20(this).transferFrom(msg.sender,address(this),amountTokens) */\n      mload(0x40)\n      dup5\n      0xffffffff\n      and\n      0xe0\n      shl\n      dup2\n      mstore\n      0x04\n      add\n      tag_273\n      swap4\n      swap3\n      swap2\n      swap1\n      tag_178\n      jump\t// in\n    tag_273:\n      0x20\n      mload(0x40)\n      dup1\n      dup4\n      sub\n      dup2\n      0x00\n      dup8\n      gas\n      call\n      iszero\n      dup1\n      iszero\n      tag_275\n      jumpi\n      returndatasize\n      0x00\n      dup1\n      returndatacopy\n      revert(0x00, returndatasize)\n    tag_275:\n      pop\n      pop\n      pop\n      pop\n      mload(0x40)\n      returndatasize\n      not(0x1f)\n      0x1f\n      dup3\n      add\n      and\n      dup3\n      add\n      dup1\n      0x40\n      mstore\n      pop\n      dup2\n      add\n      swap1\n      tag_276\n      swap2\n      swap1\n      tag_182\n      jump\t// in\n    tag_276:\n        /* \"contracts/BonDeFiToken.sol\":2736:2837  require(ERC20(this).transferFrom(msg.sender,address(this),amountTokens),\"Bond token transfer failed\") */\n      tag_277\n      jumpi\n      mload(0x40)\n      0x08c379a000000000000000000000000000000000000000000000000000000000\n      dup2\n      mstore\n      0x04\n      add\n      tag_278\n      swap1\n      tag_193\n      jump\t// in\n    tag_278:\n      mload(0x40)\n      dup1\n      swap2\n      sub\n      swap1\n      revert\n    tag_277:\n        /* \"contracts/BonDeFiToken.sol\":2862:2872  stableCoin */\n      immutable(\"0x560f53f9e6643f63dace8b2695c9680c3b0d96473ff0914d6a3517970d490ef6\")\n        /* \"contracts/BonDeFiToken.sol\":2855:2882  IERC20(stableCoin).transfer */\n      0xffffffffffffffffffffffffffffffffffffffff\n      and\n      0xa9059cbb\n        /* \"contracts/BonDeFiToken.sol\":2883:2893  msg.sender */\n      caller\n        /* \"contracts/BonDeFiToken.sol\":2907:2915  unitSize */\n      immutable(\"0xa92a119aeb5e5432887b46772e423cfac2594bfdf681094c34bd022e8c31d0\")\n        /* \"contracts/BonDeFiToken.sol\":2894:2906  amountTokens */\n      dup5\n        /* \"contracts/BonDeFiToken.sol\":2894:2915  amountTokens*unitSize */\n      tag_279\n      swap2\n      swap1\n      tag_176\n      jump\t// in\n    tag_279:\n        /* \"contracts/BonDeFiToken.sol\":2855:2916  IERC20(stableCoin).transfer(msg.sender,amountTokens*unitSize) */\n      mload(0x40)\n      dup4\n      0xffffffff\n      and\n      0xe0\n      shl\n      dup2\n      mstore\n      0x04\n      add\n      tag_280\n      swap3\n      swap2\n      swap1\n      tag_187\n      jump\t// in\n    tag_280:\n      0x20\n      mload(0x40)\n      dup1\n      dup4\n      sub\n      dup2\n      0x00\n      dup8\n      gas\n      call\n      iszero\n      dup1\n      iszero\n      tag_282\n      jumpi\n      returndatasize\n      0x00\n      dup1\n      returndatacopy\n      revert(0x00, returndatasize)\n    tag_282:\n      pop\n      pop\n      pop\n      pop\n      mload(0x40)\n      returndatasize\n      not(0x1f)\n      0x1f\n      dup3\n      add\n      and\n      dup3\n      add\n      dup1\n      0x40\n      mstore\n      pop\n      dup2\n      add\n      swap1\n      tag_283\n      swap2\n      swap1\n      tag_182\n      jump\t// in\n    tag_283:\n        /* \"contracts/BonDeFiToken.sol\":2847:2947  require(IERC20(stableCoin).transfer(msg.sender,amountTokens*unitSize),\"Stable coin transfer failed\") */\n      tag_284\n      jumpi\n      mload(0x40)\n      0x08c379a000000000000000000000000000000000000000000000000000000000\n      dup2\n      mstore\n      0x04\n      add\n      tag_285\n      swap1\n      tag_185\n      jump\t// in\n    tag_285:\n      mload(0x40)\n      dup1\n      swap2\n      sub\n      swap1\n      revert\n    tag_284:\n        /* \"contracts/BonDeFiToken.sol\":2978:3011  _burn(address(this),amountTokens) */\n      tag_286\n        /* \"contracts/BonDeFiToken.sol\":2992:2996  this */\n      address\n        /* \"contracts/BonDeFiToken.sol\":2998:3010  amountTokens */\n      dup3\n        /* \"contracts/BonDeFiToken.sol\":2978:2983  _burn */\n      tag_223\n        /* \"contracts/BonDeFiToken.sol\":2978:3011  _burn(address(this),amountTokens) */\n      jump\t// in\n    tag_286:\n        /* \"contracts/BonDeFiToken.sol\":2485:3018  function claimFaceValue(uint256 amountTokens) public{... */\n      pop\n      jump\t// out\n        /* \"contracts/BonDeFiToken.sol\":2153:2479  function claimInvestorFunds() public onlyRole(BOND_ISSUER){... */\n    tag_137:\n        /* \"contracts/BonDeFiToken.sol\":549:573  keccak256(\"BOND_ISSUER\") */\n      0xf877234297ef562d54f0328f892acfc1d6c1e44ca89f02e3a2c2a4736f6095b7\n        /* \"@openzeppelin/contracts/access/AccessControl.sol\":2464:2480  _checkRole(role) */\n      tag_288\n        /* \"@openzeppelin/contracts/access/AccessControl.sol\":2475:2479  role */\n      dup2\n        /* \"@openzeppelin/contracts/access/AccessControl.sol\":2464:2474  _checkRole */\n      tag_205\n        /* \"@openzeppelin/contracts/access/AccessControl.sol\":2464:2480  _checkRole(role) */\n      jump\t// in\n    tag_288:\n        /* \"contracts/BonDeFiToken.sol\":2221:2248  uint256 amountInvestorCoins */\n      0x00\n        /* \"contracts/BonDeFiToken.sol\":2258:2268  stableCoin */\n      immutable(\"0x560f53f9e6643f63dace8b2695c9680c3b0d96473ff0914d6a3517970d490ef6\")\n        /* \"contracts/BonDeFiToken.sol\":2251:2279  IERC20(stableCoin).balanceOf */\n      0xffffffffffffffffffffffffffffffffffffffff\n      and\n      0x70a08231\n        /* \"contracts/BonDeFiToken.sol\":2288:2292  this */\n      address\n        /* \"contracts/BonDeFiToken.sol\":2251:2294  IERC20(stableCoin).balanceOf(address(this)) */\n      mload(0x40)\n      dup3\n      0xffffffff\n      and\n      0xe0\n      shl\n      dup2\n      mstore\n      0x04\n      add\n      tag_290\n      swap2\n      swap1\n      tag_122\n      jump\t// in\n    tag_290:\n      0x20\n      mload(0x40)\n      dup1\n      dup4\n      sub\n      dup2\n      dup7\n      gas\n      staticcall\n      iszero\n      dup1\n      iszero\n      tag_292\n      jumpi\n      returndatasize\n      0x00\n      dup1\n      returndatacopy\n      revert(0x00, returndatasize)\n    tag_292:\n      pop\n      pop\n      pop\n      pop\n      mload(0x40)\n      returndatasize\n      not(0x1f)\n      0x1f\n      dup3\n      add\n      and\n      dup3\n      add\n      dup1\n      0x40\n      mstore\n      pop\n      dup2\n      add\n      swap1\n      tag_293\n      swap2\n      swap1\n      tag_294\n      jump\t// in\n    tag_293:\n        /* \"contracts/BonDeFiToken.sol\":2221:2294  uint256 amountInvestorCoins = IERC20(stableCoin).balanceOf(address(this)) */\n      swap1\n      pop\n        /* \"contracts/BonDeFiToken.sol\":2334:2335  0 */\n      0x00\n        /* \"contracts/BonDeFiToken.sol\":2312:2331  amountInvestorCoins */\n      dup2\n        /* \"contracts/BonDeFiToken.sol\":2312:2335  amountInvestorCoins > 0 */\n      gt\n        /* \"contracts/BonDeFiToken.sol\":2304:2367  require(amountInvestorCoins > 0,\"No investor funds available.\") */\n      tag_295\n      jumpi\n      mload(0x40)\n      0x08c379a000000000000000000000000000000000000000000000000000000000\n      dup2\n      mstore\n      0x04\n      add\n      tag_296\n      swap1\n      tag_297\n      jump\t// in\n    tag_296:\n      mload(0x40)\n      dup1\n      swap2\n      sub\n      swap1\n      revert\n    tag_295:\n        /* \"contracts/BonDeFiToken.sol\":2391:2395  this */\n      address\n        /* \"contracts/BonDeFiToken.sol\":2385:2405  ERC20(this).transfer */\n      0xffffffffffffffffffffffffffffffffffffffff\n      and\n      0xa9059cbb\n        /* \"contracts/BonDeFiToken.sol\":2406:2416  msg.sender */\n      caller\n        /* \"contracts/BonDeFiToken.sol\":2417:2436  amountInvestorCoins */\n      dup4\n        /* \"contracts/BonDeFiToken.sol\":2385:2437  ERC20(this).transfer(msg.sender,amountInvestorCoins) */\n      mload(0x40)\n      dup4\n      0xffffffff\n      and\n      0xe0\n      shl\n      dup2\n      mstore\n      0x04\n      add\n      tag_298\n      swap3\n      swap2\n      swap1\n      tag_187\n      jump\t// in\n    tag_298:\n      0x20\n      mload(0x40)\n      dup1\n      dup4\n      sub\n      dup2\n      0x00\n      dup8\n      gas\n      call\n      iszero\n      dup1\n      iszero\n      tag_300\n      jumpi\n      returndatasize\n      0x00\n      dup1\n      returndatacopy\n      revert(0x00, returndatasize)\n    tag_300:\n      pop\n      pop\n      pop\n      pop\n      mload(0x40)\n      returndatasize\n      not(0x1f)\n      0x1f\n      dup3\n      add\n      and\n      dup3\n      add\n      dup1\n      0x40\n      mstore\n      pop\n      dup2\n      add\n      swap1\n      tag_301\n      swap2\n      swap1\n      tag_182\n      jump\t// in\n    tag_301:\n        /* \"contracts/BonDeFiToken.sol\":2377:2472  require(ERC20(this).transfer(msg.sender,amountInvestorCoins),\"Failed to transfer stable coins\") */\n      tag_302\n      jumpi\n      mload(0x40)\n      0x08c379a000000000000000000000000000000000000000000000000000000000\n      dup2\n      mstore\n      0x04\n      add\n      tag_303\n      swap1\n      tag_304\n      jump\t// in\n    tag_303:\n      mload(0x40)\n      dup1\n      swap2\n      sub\n      swap1\n      revert\n    tag_302:\n        /* \"contracts/BonDeFiToken.sol\":2211:2479  {... */\n      pop\n        /* \"contracts/BonDeFiToken.sol\":2153:2479  function claimInvestorFunds() public onlyRole(BOND_ISSUER){... */\n      pop\n      jump\t// out\n        /* \"@openzeppelin/contracts/access/AccessControl.sol\":4642:4780  function revokeRole(bytes32 role, address account) public virtual onlyRole(getRoleAdmin(role)) {... */\n    tag_140:\n        /* \"@openzeppelin/contracts/access/AccessControl.sol\":4717:4735  getRoleAdmin(role) */\n      tag_305\n        /* \"@openzeppelin/contracts/access/AccessControl.sol\":4730:4734  role */\n      dup3\n        /* \"@openzeppelin/contracts/access/AccessControl.sol\":4717:4729  getRoleAdmin */\n      tag_73\n        /* \"@openzeppelin/contracts/access/AccessControl.sol\":4717:4735  getRoleAdmin(role) */\n      jump\t// in\n    tag_305:\n        /* \"@openzeppelin/contracts/access/AccessControl.sol\":2464:2480  _checkRole(role) */\n      tag_307\n        /* \"@openzeppelin/contracts/access/AccessControl.sol\":2475:2479  role */\n      dup2\n        /* \"@openzeppelin/contracts/access/AccessControl.sol\":2464:2474  _checkRole */\n      tag_205\n        /* \"@openzeppelin/contracts/access/AccessControl.sol\":2464:2480  _checkRole(role) */\n      jump\t// in\n    tag_307:\n        /* \"@openzeppelin/contracts/access/AccessControl.sol\":4747:4773  _revokeRole(role, account) */\n      tag_309\n        /* \"@openzeppelin/contracts/access/AccessControl.sol\":4759:4763  role */\n      dup4\n        /* \"@openzeppelin/contracts/access/AccessControl.sol\":4765:4772  account */\n      dup4\n        /* \"@openzeppelin/contracts/access/AccessControl.sol\":4747:4758  _revokeRole */\n      tag_214\n        /* \"@openzeppelin/contracts/access/AccessControl.sol\":4747:4773  _revokeRole(role, account) */\n      jump\t// in\n    tag_309:\n      pop\n        /* \"@openzeppelin/contracts/access/AccessControl.sol\":4642:4780  function revokeRole(bytes32 role, address account) public virtual onlyRole(getRoleAdmin(role)) {... */\n      pop\n      pop\n      pop\n      jump\t// out\n        /* \"contracts/BonDeFiToken.sol\":702:739  uint256 public immutable maturityDate */\n    tag_142:\n      immutable(\"0x55749baaca540012815eedf8aea70b0787b33390f36b1cc139ea0fe0d5fa1ba2\")\n      dup2\n      jump\t// out\n        /* \"@openzeppelin/contracts/token/ERC20/ERC20.sol\":3846:3986  function allowance(address owner, address spender) public view virtual returns (uint256) {... */\n    tag_147:\n        /* \"@openzeppelin/contracts/token/ERC20/ERC20.sol\":3926:3933  uint256 */\n      0x00\n        /* \"@openzeppelin/contracts/token/ERC20/ERC20.sol\":3952:3963  _allowances */\n      0x01\n        /* \"@openzeppelin/contracts/token/ERC20/ERC20.sol\":3952:3970  _allowances[owner] */\n      0x00\n        /* \"@openzeppelin/contracts/token/ERC20/ERC20.sol\":3964:3969  owner */\n      dup5\n        /* \"@openzeppelin/contracts/token/ERC20/ERC20.sol\":3952:3970  _allowances[owner] */\n      0xffffffffffffffffffffffffffffffffffffffff\n      and\n      0xffffffffffffffffffffffffffffffffffffffff\n      and\n      dup2\n      mstore\n      0x20\n      add\n      swap1\n      dup2\n      mstore\n      0x20\n      add\n      0x00\n      keccak256\n        /* \"@openzeppelin/contracts/token/ERC20/ERC20.sol\":3952:3979  _allowances[owner][spender] */\n      0x00\n        /* \"@openzeppelin/contracts/token/ERC20/ERC20.sol\":3971:3978  spender */\n      dup4\n        /* \"@openzeppelin/contracts/token/ERC20/ERC20.sol\":3952:3979  _allowances[owner][spender] */\n      0xffffffffffffffffffffffffffffffffffffffff\n      and\n      0xffffffffffffffffffffffffffffffffffffffff\n      and\n      dup2\n      mstore\n      0x20\n      add\n      swap1\n      dup2\n      mstore\n      0x20\n      add\n      0x00\n      keccak256\n      sload\n        /* \"@openzeppelin/contracts/token/ERC20/ERC20.sol\":3945:3979  return _allowances[owner][spender] */\n      swap1\n      pop\n        /* \"@openzeppelin/contracts/token/ERC20/ERC20.sol\":3846:3986  function allowance(address owner, address spender) public view virtual returns (uint256) {... */\n      swap3\n      swap2\n      pop\n      pop\n      jump\t// out\n        /* \"contracts/BonDeFiToken.sol\":511:573  bytes32 public constant BOND_ISSUER = keccak256(\"BOND_ISSUER\") */\n    tag_150:\n        /* \"contracts/BonDeFiToken.sol\":549:573  keccak256(\"BOND_ISSUER\") */\n      0xf877234297ef562d54f0328f892acfc1d6c1e44ca89f02e3a2c2a4736f6095b7\n        /* \"contracts/BonDeFiToken.sol\":511:573  bytes32 public constant BOND_ISSUER = keccak256(\"BOND_ISSUER\") */\n      dup2\n      jump\t// out\n        /* \"contracts/BonDeFiToken.sol\":620:657  address public immutable interestCoin */\n    tag_153:\n      immutable(\"0xc6fa869c00cca07fff5e26638bf9bc331de0994499fcf1ee63eb1a2437869a1b\")\n      dup2\n      jump\t// out\n        /* \"contracts/BonDeFiToken.sol\":1540:1736  function distributeInterest(address tokenHolder,uint256 amount) public onlyRole(ADMIN){... */\n    tag_157:\n        /* \"contracts/BonDeFiToken.sol\":487:505  keccak256(\"ADMIN\") */\n      0xdf8b4c520ffe197c5343c6f5aec59570151ef9a492f2c624fd45ddde6135ec42\n        /* \"@openzeppelin/contracts/access/AccessControl.sol\":2464:2480  _checkRole(role) */\n      tag_312\n        /* \"@openzeppelin/contracts/access/AccessControl.sol\":2475:2479  role */\n      dup2\n        /* \"@openzeppelin/contracts/access/AccessControl.sol\":2464:2474  _checkRole */\n      tag_205\n        /* \"@openzeppelin/contracts/access/AccessControl.sol\":2464:2480  _checkRole(role) */\n      jump\t// in\n    tag_312:\n        /* \"contracts/BonDeFiToken.sol\":1651:1663  interestCoin */\n      immutable(\"0xc6fa869c00cca07fff5e26638bf9bc331de0994499fcf1ee63eb1a2437869a1b\")\n        /* \"contracts/BonDeFiToken.sol\":1644:1677  IERC20(interestCoin).transferFrom */\n      0xffffffffffffffffffffffffffffffffffffffff\n      and\n      0x23b872dd\n        /* \"contracts/BonDeFiToken.sol\":1678:1690  interestCoin */\n      immutable(\"0xc6fa869c00cca07fff5e26638bf9bc331de0994499fcf1ee63eb1a2437869a1b\")\n        /* \"contracts/BonDeFiToken.sol\":1691:1702  tokenHolder */\n      dup6\n        /* \"contracts/BonDeFiToken.sol\":1703:1709  amount */\n      dup6\n        /* \"contracts/BonDeFiToken.sol\":1644:1710  IERC20(interestCoin).transferFrom(interestCoin,tokenHolder,amount) */\n      mload(0x40)\n      dup5\n      0xffffffff\n      and\n      0xe0\n      shl\n      dup2\n      mstore\n      0x04\n      add\n      tag_314\n      swap4\n      swap3\n      swap2\n      swap1\n      tag_178\n      jump\t// in\n    tag_314:\n      0x20\n      mload(0x40)\n      dup1\n      dup4\n      sub\n      dup2\n      0x00\n      dup8\n      gas\n      call\n      iszero\n      dup1\n      iszero\n      tag_316\n      jumpi\n      returndatasize\n      0x00\n      dup1\n      returndatacopy\n      revert(0x00, returndatasize)\n    tag_316:\n      pop\n      pop\n      pop\n      pop\n      mload(0x40)\n      returndatasize\n      not(0x1f)\n      0x1f\n      dup3\n      add\n      and\n      dup3\n      add\n      dup1\n      0x40\n      mstore\n      pop\n      dup2\n      add\n      swap1\n      tag_317\n      swap2\n      swap1\n      tag_182\n      jump\t// in\n    tag_317:\n        /* \"contracts/BonDeFiToken.sol\":1636:1729  require(IERC20(interestCoin).transferFrom(interestCoin,tokenHolder,amount),\"Transfer failed\") */\n      tag_318\n      jumpi\n      mload(0x40)\n      0x08c379a000000000000000000000000000000000000000000000000000000000\n      dup2\n      mstore\n      0x04\n      add\n      tag_319\n      swap1\n      tag_255\n      jump\t// in\n    tag_319:\n      mload(0x40)\n      dup1\n      swap2\n      sub\n      swap1\n      revert\n    tag_318:\n        /* \"contracts/BonDeFiToken.sol\":1540:1736  function distributeInterest(address tokenHolder,uint256 amount) public onlyRole(ADMIN){... */\n      pop\n      pop\n      pop\n      jump\t// out\n        /* \"@openzeppelin/contracts/utils/introspection/ERC165.sol\":762:908  function supportsInterface(bytes4 interfaceId) public view virtual returns (bool) {... */\n    tag_161:\n        /* \"@openzeppelin/contracts/utils/introspection/ERC165.sol\":838:842  bool */\n      0x00\n        /* \"@openzeppelin/contracts/utils/introspection/ERC165.sol\":876:901  type(IERC165).interfaceId */\n      0x01ffc9a700000000000000000000000000000000000000000000000000000000\n        /* \"@openzeppelin/contracts/utils/introspection/ERC165.sol\":861:901  interfaceId == type(IERC165).interfaceId */\n      not(0xffffffffffffffffffffffffffffffffffffffffffffffffffffffff)\n      and\n        /* \"@openzeppelin/contracts/utils/introspection/ERC165.sol\":861:872  interfaceId */\n      dup3\n        /* \"@openzeppelin/contracts/utils/introspection/ERC165.sol\":861:901  interfaceId == type(IERC165).interfaceId */\n      not(0xffffffffffffffffffffffffffffffffffffffffffffffffffffffff)\n      and\n      eq\n        /* \"@openzeppelin/contracts/utils/introspection/ERC165.sol\":854:901  return interfaceId == type(IERC165).interfaceId */\n      swap1\n      pop\n        /* \"@openzeppelin/contracts/utils/introspection/ERC165.sol\":762:908  function supportsInterface(bytes4 interfaceId) public view virtual returns (bool) {... */\n      swap2\n      swap1\n      pop\n      jump\t// out\n        /* \"@openzeppelin/contracts/utils/Context.sol\":656:752  function _msgSender() internal view virtual returns (address) {... */\n    tag_171:\n        /* \"@openzeppelin/contracts/utils/Context.sol\":709:716  address */\n      0x00\n        /* \"@openzeppelin/contracts/utils/Context.sol\":735:745  msg.sender */\n      caller\n        /* \"@openzeppelin/contracts/utils/Context.sol\":728:745  return msg.sender */\n      swap1\n      pop\n        /* \"@openzeppelin/contracts/utils/Context.sol\":656:752  function _msgSender() internal view virtual returns (address) {... */\n      swap1\n      jump\t// out\n        /* \"@openzeppelin/contracts/token/ERC20/ERC20.sol\":8989:9117  function _approve(address owner, address spender, uint256 value) internal {... */\n    tag_173:\n        /* \"@openzeppelin/contracts/token/ERC20/ERC20.sol\":9073:9110  _approve(owner, spender, value, true) */\n      tag_323\n        /* \"@openzeppelin/contracts/token/ERC20/ERC20.sol\":9082:9087  owner */\n      dup4\n        /* \"@openzeppelin/contracts/token/ERC20/ERC20.sol\":9089:9096  spender */\n      dup4\n        /* \"@openzeppelin/contracts/token/ERC20/ERC20.sol\":9098:9103  value */\n      dup4\n        /* \"@openzeppelin/contracts/token/ERC20/ERC20.sol\":9105:9109  true */\n      0x01\n        /* \"@openzeppelin/contracts/token/ERC20/ERC20.sol\":9073:9081  _approve */\n      tag_324\n        /* \"@openzeppelin/contracts/token/ERC20/ERC20.sol\":9073:9110  _approve(owner, spender, value, true) */\n      jump\t// in\n    tag_323:\n        /* \"@openzeppelin/contracts/token/ERC20/ERC20.sol\":8989:9117  function _approve(address owner, address spender, uint256 value) internal {... */\n      pop\n      pop\n      pop\n      jump\t// out\n        /* \"@openzeppelin/contracts/token/ERC20/ERC20.sol\":10663:11140  function _spendAllowance(address owner, address spender, uint256 value) internal virtual {... */\n    tag_198:\n        /* \"@openzeppelin/contracts/token/ERC20/ERC20.sol\":10762:10786  uint256 currentAllowance */\n      0x00\n        /* \"@openzeppelin/contracts/token/ERC20/ERC20.sol\":10789:10814  allowance(owner, spender) */\n      tag_326\n        /* \"@openzeppelin/contracts/token/ERC20/ERC20.sol\":10799:10804  owner */\n      dup5\n        /* \"@openzeppelin/contracts/token/ERC20/ERC20.sol\":10806:10813  spender */\n      dup5\n        /* \"@openzeppelin/contracts/token/ERC20/ERC20.sol\":10789:10798  allowance */\n      tag_147\n        /* \"@openzeppelin/contracts/token/ERC20/ERC20.sol\":10789:10814  allowance(owner, spender) */\n      jump\t// in\n    tag_326:\n        /* \"@openzeppelin/contracts/token/ERC20/ERC20.sol\":10762:10814  uint256 currentAllowance = allowance(owner, spender) */\n      swap1\n      pop\n        /* \"@openzeppelin/contracts/token/ERC20/ERC20.sol\":10848:10865  type(uint256).max */\n      0xffffffffffffffffffffffffffffffffffffffffffffffffffffffffffffffff\n        /* \"@openzeppelin/contracts/token/ERC20/ERC20.sol\":10828:10844  currentAllowance */\n      dup2\n        /* \"@openzeppelin/contracts/token/ERC20/ERC20.sol\":10828:10865  currentAllowance != type(uint256).max */\n      eq\n        /* \"@openzeppelin/contracts/token/ERC20/ERC20.sol\":10824:11134  if (currentAllowance != type(uint256).max) {... */\n      tag_327\n      jumpi\n        /* \"@openzeppelin/contracts/token/ERC20/ERC20.sol\":10904:10909  value */\n      dup2\n        /* \"@openzeppelin/contracts/token/ERC20/ERC20.sol\":10885:10901  currentAllowance */\n      dup2\n        /* \"@openzeppelin/contracts/token/ERC20/ERC20.sol\":10885:10909  currentAllowance < value */\n      lt\n        /* \"@openzeppelin/contracts/token/ERC20/ERC20.sol\":10881:11011  if (currentAllowance < value) {... */\n      iszero\n      tag_328\n      jumpi\n        /* \"@openzeppelin/contracts/token/ERC20/ERC20.sol\":10963:10970  spender */\n      dup3\n        /* \"@openzeppelin/contracts/token/ERC20/ERC20.sol\":10972:10988  currentAllowance */\n      dup2\n        /* \"@openzeppelin/contracts/token/ERC20/ERC20.sol\":10990:10995  value */\n      dup4\n        /* \"@openzeppelin/contracts/token/ERC20/ERC20.sol\":10936:10996  ERC20InsufficientAllowance(spender, currentAllowance, value) */\n      mload(0x40)\n      0xfb8f41b200000000000000000000000000000000000000000000000000000000\n      dup2\n      mstore\n      0x04\n      add\n      tag_329\n      swap4\n      swap3\n      swap2\n      swap1\n      tag_330\n      jump\t// in\n    tag_329:\n      mload(0x40)\n      dup1\n      swap2\n      sub\n      swap1\n      revert\n        /* \"@openzeppelin/contracts/token/ERC20/ERC20.sol\":10881:11011  if (currentAllowance < value) {... */\n    tag_328:\n        /* \"@openzeppelin/contracts/token/ERC20/ERC20.sol\":11052:11109  _approve(owner, spender, currentAllowance - value, false) */\n      tag_331\n        /* \"@openzeppelin/contracts/token/ERC20/ERC20.sol\":11061:11066  owner */\n      dup5\n        /* \"@openzeppelin/contracts/token/ERC20/ERC20.sol\":11068:11075  spender */\n      dup5\n        /* \"@openzeppelin/contracts/token/ERC20/ERC20.sol\":11096:11101  value */\n      dup5\n        /* \"@openzeppelin/contracts/token/ERC20/ERC20.sol\":11077:11093  currentAllowance */\n      dup5\n        /* \"@openzeppelin/contracts/token/ERC20/ERC20.sol\":11077:11101  currentAllowance - value */\n      sub\n        /* \"@openzeppelin/contracts/token/ERC20/ERC20.sol\":11103:11108  false */\n      0x00\n        /* \"@openzeppelin/contracts/token/ERC20/ERC20.sol\":11052:11060  _approve */\n      tag_324\n        /* \"@openzeppelin/contracts/token/ERC20/ERC20.sol\":11052:11109  _approve(owner, spender, currentAllowance - value, false) */\n      jump\t// in\n    tag_331:\n        /* \"@openzeppelin/contracts/token/ERC20/ERC20.sol\":10824:11134  if (currentAllowance != type(uint256).max) {... */\n    tag_327:\n        /* \"@openzeppelin/contracts/token/ERC20/ERC20.sol\":10752:11140  {... */\n      pop\n        /* \"@openzeppelin/contracts/token/ERC20/ERC20.sol\":10663:11140  function _spendAllowance(address owner, address spender, uint256 value) internal virtual {... */\n      pop\n      pop\n      pop\n      jump\t// out\n        /* \"@openzeppelin/contracts/token/ERC20/ERC20.sol\":5656:5956  function _transfer(address from, address to, uint256 value) internal {... */\n    tag_200:\n        /* \"@openzeppelin/contracts/token/ERC20/ERC20.sol\":5755:5756  0 */\n      0x00\n        /* \"@openzeppelin/contracts/token/ERC20/ERC20.sol\":5739:5757  from == address(0) */\n      0xffffffffffffffffffffffffffffffffffffffff\n      and\n        /* \"@openzeppelin/contracts/token/ERC20/ERC20.sol\":5739:5743  from */\n      dup4\n        /* \"@openzeppelin/contracts/token/ERC20/ERC20.sol\":5739:5757  from == address(0) */\n      0xffffffffffffffffffffffffffffffffffffffff\n      and\n      sub\n        /* \"@openzeppelin/contracts/token/ERC20/ERC20.sol\":5735:5821  if (from == address(0)) {... */\n      tag_333\n      jumpi\n        /* \"@openzeppelin/contracts/token/ERC20/ERC20.sol\":5807:5808  0 */\n      0x00\n        /* \"@openzeppelin/contracts/token/ERC20/ERC20.sol\":5780:5810  ERC20InvalidSender(address(0)) */\n      mload(0x40)\n      0x96c6fd1e00000000000000000000000000000000000000000000000000000000\n      dup2\n      mstore\n      0x04\n      add\n      tag_334\n      swap2\n      swap1\n      tag_122\n      jump\t// in\n    tag_334:\n      mload(0x40)\n      dup1\n      swap2\n      sub\n      swap1\n      revert\n        /* \"@openzeppelin/contracts/token/ERC20/ERC20.sol\":5735:5821  if (from == address(0)) {... */\n    tag_333:\n        /* \"@openzeppelin/contracts/token/ERC20/ERC20.sol\":5848:5849  0 */\n      0x00\n        /* \"@openzeppelin/contracts/token/ERC20/ERC20.sol\":5834:5850  to == address(0) */\n      0xffffffffffffffffffffffffffffffffffffffff\n      and\n        /* \"@openzeppelin/contracts/token/ERC20/ERC20.sol\":5834:5836  to */\n      dup3\n        /* \"@openzeppelin/contracts/token/ERC20/ERC20.sol\":5834:5850  to == address(0) */\n      0xffffffffffffffffffffffffffffffffffffffff\n      and\n      sub\n        /* \"@openzeppelin/contracts/token/ERC20/ERC20.sol\":5830:5916  if (to == address(0)) {... */\n      tag_335\n      jumpi\n        /* \"@openzeppelin/contracts/token/ERC20/ERC20.sol\":5902:5903  0 */\n      0x00\n        /* \"@openzeppelin/contracts/token/ERC20/ERC20.sol\":5873:5905  ERC20InvalidReceiver(address(0)) */\n      mload(0x40)\n      0xec442f0500000000000000000000000000000000000000000000000000000000\n      dup2\n      mstore\n      0x04\n      add\n      tag_336\n      swap2\n      swap1\n      tag_122\n      jump\t// in\n    tag_336:\n      mload(0x40)\n      dup1\n      swap2\n      sub\n      swap1\n      revert\n        /* \"@openzeppelin/contracts/token/ERC20/ERC20.sol\":5830:5916  if (to == address(0)) {... */\n    tag_335:\n        /* \"@openzeppelin/contracts/token/ERC20/ERC20.sol\":5925:5949  _update(from, to, value) */\n      tag_337\n        /* \"@openzeppelin/contracts/token/ERC20/ERC20.sol\":5933:5937  from */\n      dup4\n        /* \"@openzeppelin/contracts/token/ERC20/ERC20.sol\":5939:5941  to */\n      dup4\n        /* \"@openzeppelin/contracts/token/ERC20/ERC20.sol\":5943:5948  value */\n      dup4\n        /* \"@openzeppelin/contracts/token/ERC20/ERC20.sol\":5925:5932  _update */\n      tag_338\n        /* \"@openzeppelin/contracts/token/ERC20/ERC20.sol\":5925:5949  _update(from, to, value) */\n      jump\t// in\n    tag_337:\n        /* \"@openzeppelin/contracts/token/ERC20/ERC20.sol\":5656:5956  function _transfer(address from, address to, uint256 value) internal {... */\n      pop\n      pop\n      pop\n      jump\t// out\n        /* \"@openzeppelin/contracts/access/AccessControl.sol\":3199:3302  function _checkRole(bytes32 role) internal view virtual {... */\n    tag_205:\n        /* \"@openzeppelin/contracts/access/AccessControl.sol\":3265:3295  _checkRole(role, _msgSender()) */\n      tag_340\n        /* \"@openzeppelin/contracts/access/AccessControl.sol\":3276:3280  role */\n      dup2\n        /* \"@openzeppelin/contracts/access/AccessControl.sol\":3282:3294  _msgSender() */\n      tag_341\n        /* \"@openzeppelin/contracts/access/AccessControl.sol\":3282:3292  _msgSender */\n      tag_171\n        /* \"@openzeppelin/contracts/access/AccessControl.sol\":3282:3294  _msgSender() */\n      jump\t// in\n    tag_341:\n        /* \"@openzeppelin/contracts/access/AccessControl.sol\":3265:3275  _checkRole */\n      tag_342\n        /* \"@openzeppelin/contracts/access/AccessControl.sol\":3265:3295  _checkRole(role, _msgSender()) */\n      jump\t// in\n    tag_340:\n        /* \"@openzeppelin/contracts/access/AccessControl.sol\":3199:3302  function _checkRole(bytes32 role) internal view virtual {... */\n      pop\n      jump\t// out\n        /* \"@openzeppelin/contracts/access/AccessControl.sol\":6179:6495  function _grantRole(bytes32 role, address account) internal virtual returns (bool) {... */\n    tag_208:\n        /* \"@openzeppelin/contracts/access/AccessControl.sol\":6256:6260  bool */\n      0x00\n        /* \"@openzeppelin/contracts/access/AccessControl.sol\":6277:6299  hasRole(role, account) */\n      tag_344\n        /* \"@openzeppelin/contracts/access/AccessControl.sol\":6285:6289  role */\n      dup4\n        /* \"@openzeppelin/contracts/access/AccessControl.sol\":6291:6298  account */\n      dup4\n        /* \"@openzeppelin/contracts/access/AccessControl.sol\":6277:6284  hasRole */\n      tag_114\n        /* \"@openzeppelin/contracts/access/AccessControl.sol\":6277:6299  hasRole(role, account) */\n      jump\t// in\n    tag_344:\n        /* \"@openzeppelin/contracts/access/AccessControl.sol\":6272:6489  if (!hasRole(role, account)) {... */\n      tag_345\n      jumpi\n        /* \"@openzeppelin/contracts/access/AccessControl.sol\":6347:6351  true */\n      0x01\n        /* \"@openzeppelin/contracts/access/AccessControl.sol\":6315:6321  _roles */\n      0x06\n        /* \"@openzeppelin/contracts/access/AccessControl.sol\":6315:6327  _roles[role] */\n      0x00\n        /* \"@openzeppelin/contracts/access/AccessControl.sol\":6322:6326  role */\n      dup6\n        /* \"@openzeppelin/contracts/access/AccessControl.sol\":6315:6327  _roles[role] */\n      dup2\n      mstore\n      0x20\n      add\n      swap1\n      dup2\n      mstore\n      0x20\n      add\n      0x00\n      keccak256\n        /* \"@openzeppelin/contracts/access/AccessControl.sol\":6315:6335  _roles[role].hasRole */\n      0x00\n      add\n        /* \"@openzeppelin/contracts/access/AccessControl.sol\":6315:6344  _roles[role].hasRole[account] */\n      0x00\n        /* \"@openzeppelin/contracts/access/AccessControl.sol\":6336:6343  account */\n      dup5\n        /* \"@openzeppelin/contracts/access/AccessControl.sol\":6315:6344  _roles[role].hasRole[account] */\n      0xffffffffffffffffffffffffffffffffffffffff\n      and\n      0xffffffffffffffffffffffffffffffffffffffff\n      and\n      dup2\n      mstore\n      0x20\n      add\n      swap1\n      dup2\n      mstore\n      0x20\n      add\n      0x00\n      keccak256\n      0x00\n        /* \"@openzeppelin/contracts/access/AccessControl.sol\":6315:6351  _roles[role].hasRole[account] = true */\n      0x0100\n      exp\n      dup2\n      sload\n      dup2\n      0xff\n      mul\n      not\n      and\n      swap1\n      dup4\n      iszero\n      iszero\n      mul\n      or\n      swap1\n      sstore\n      pop\n        /* \"@openzeppelin/contracts/access/AccessControl.sol\":6397:6409  _msgSender() */\n      tag_346\n        /* \"@openzeppelin/contracts/access/AccessControl.sol\":6397:6407  _msgSender */\n      tag_171\n        /* \"@openzeppelin/contracts/access/AccessControl.sol\":6397:6409  _msgSender() */\n      jump\t// in\n    tag_346:\n        /* \"@openzeppelin/contracts/access/AccessControl.sol\":6370:6410  RoleGranted(role, account, _msgSender()) */\n      0xffffffffffffffffffffffffffffffffffffffff\n      and\n        /* \"@openzeppelin/contracts/access/AccessControl.sol\":6388:6395  account */\n      dup3\n        /* \"@openzeppelin/contracts/access/AccessControl.sol\":6370:6410  RoleGranted(role, account, _msgSender()) */\n      0xffffffffffffffffffffffffffffffffffffffff\n      and\n        /* \"@openzeppelin/contracts/access/AccessControl.sol\":6382:6386  role */\n      dup5\n        /* \"@openzeppelin/contracts/access/AccessControl.sol\":6370:6410  RoleGranted(role, account, _msgSender()) */\n      0x2f8788117e7eff1d82e926ec794901d17c78024a50270940304540a733656f0d\n      mload(0x40)\n      mload(0x40)\n      dup1\n      swap2\n      sub\n      swap1\n      log4\n        /* \"@openzeppelin/contracts/access/AccessControl.sol\":6431:6435  true */\n      0x01\n        /* \"@openzeppelin/contracts/access/AccessControl.sol\":6424:6435  return true */\n      swap1\n      pop\n      jump(tag_343)\n        /* \"@openzeppelin/contracts/access/AccessControl.sol\":6272:6489  if (!hasRole(role, account)) {... */\n    tag_345:\n        /* \"@openzeppelin/contracts/access/AccessControl.sol\":6473:6478  false */\n      0x00\n        /* \"@openzeppelin/contracts/access/AccessControl.sol\":6466:6478  return false */\n      swap1\n      pop\n        /* \"@openzeppelin/contracts/access/AccessControl.sol\":6179:6495  function _grantRole(bytes32 role, address account) internal virtual returns (bool) {... */\n    tag_343:\n      swap3\n      swap2\n      pop\n      pop\n      jump\t// out\n        /* \"@openzeppelin/contracts/access/AccessControl.sol\":6730:7047  function _revokeRole(bytes32 role, address account) internal virtual returns (bool) {... */\n    tag_214:\n        /* \"@openzeppelin/contracts/access/AccessControl.sol\":6808:6812  bool */\n      0x00\n        /* \"@openzeppelin/contracts/access/AccessControl.sol\":6828:6850  hasRole(role, account) */\n      tag_349\n        /* \"@openzeppelin/contracts/access/AccessControl.sol\":6836:6840  role */\n      dup4\n        /* \"@openzeppelin/contracts/access/AccessControl.sol\":6842:6849  account */\n      dup4\n        /* \"@openzeppelin/contracts/access/AccessControl.sol\":6828:6835  hasRole */\n      tag_114\n        /* \"@openzeppelin/contracts/access/AccessControl.sol\":6828:6850  hasRole(role, account) */\n      jump\t// in\n    tag_349:\n        /* \"@openzeppelin/contracts/access/AccessControl.sol\":6824:7041  if (hasRole(role, account)) {... */\n      iszero\n      tag_350\n      jumpi\n        /* \"@openzeppelin/contracts/access/AccessControl.sol\":6898:6903  false */\n      0x00\n        /* \"@openzeppelin/contracts/access/AccessControl.sol\":6866:6872  _roles */\n      0x06\n        /* \"@openzeppelin/contracts/access/AccessControl.sol\":6866:6878  _roles[role] */\n      0x00\n        /* \"@openzeppelin/contracts/access/AccessControl.sol\":6873:6877  role */\n      dup6\n        /* \"@openzeppelin/contracts/access/AccessControl.sol\":6866:6878  _roles[role] */\n      dup2\n      mstore\n      0x20\n      add\n      swap1\n      dup2\n      mstore\n      0x20\n      add\n      0x00\n      keccak256\n        /* \"@openzeppelin/contracts/access/AccessControl.sol\":6866:6886  _roles[role].hasRole */\n      0x00\n      add\n        /* \"@openzeppelin/contracts/access/AccessControl.sol\":6866:6895  _roles[role].hasRole[account] */\n      0x00\n        /* \"@openzeppelin/contracts/access/AccessControl.sol\":6887:6894  account */\n      dup5\n        /* \"@openzeppelin/contracts/access/AccessControl.sol\":6866:6895  _roles[role].hasRole[account] */\n      0xffffffffffffffffffffffffffffffffffffffff\n      and\n      0xffffffffffffffffffffffffffffffffffffffff\n      and\n      dup2\n      mstore\n      0x20\n      add\n      swap1\n      dup2\n      mstore\n      0x20\n      add\n      0x00\n      keccak256\n      0x00\n        /* \"@openzeppelin/contracts/access/AccessControl.sol\":6866:6903  _roles[role].hasRole[account] = false */\n      0x0100\n      exp\n      dup2\n      sload\n      dup2\n      0xff\n      mul\n      not\n      and\n      swap1\n      dup4\n      iszero\n      iszero\n      mul\n      or\n      swap1\n      sstore\n      pop\n        /* \"@openzeppelin/contracts/access/AccessControl.sol\":6949:6961  _msgSender() */\n      tag_351\n        /* \"@openzeppelin/contracts/access/AccessControl.sol\":6949:6959  _msgSender */\n      tag_171\n        /* \"@openzeppelin/contracts/access/AccessControl.sol\":6949:6961  _msgSender() */\n      jump\t// in\n    tag_351:\n        /* \"@openzeppelin/contracts/access/AccessControl.sol\":6922:6962  RoleRevoked(role, account, _msgSender()) */\n      0xffffffffffffffffffffffffffffffffffffffff\n      and\n        /* \"@openzeppelin/contracts/access/AccessControl.sol\":6940:6947  account */\n      dup3\n        /* \"@openzeppelin/contracts/access/AccessControl.sol\":6922:6962  RoleRevoked(role, account, _msgSender()) */\n      0xffffffffffffffffffffffffffffffffffffffff\n      and\n        /* \"@openzeppelin/contracts/access/AccessControl.sol\":6934:6938  role */\n      dup5\n        /* \"@openzeppelin/contracts/access/AccessControl.sol\":6922:6962  RoleRevoked(role, account, _msgSender()) */\n      0xf6391f5c32d9c69d2a47ea670b442974b53935d1edc7fd64eb21e047a839171b\n      mload(0x40)\n      mload(0x40)\n      dup1\n      swap2\n      sub\n      swap1\n      log4\n        /* \"@openzeppelin/contracts/access/AccessControl.sol\":6983:6987  true */\n      0x01\n        /* \"@openzeppelin/contracts/access/AccessControl.sol\":6976:6987  return true */\n      swap1\n      pop\n      jump(tag_348)\n        /* \"@openzeppelin/contracts/access/AccessControl.sol\":6824:7041  if (hasRole(role, account)) {... */\n    tag_350:\n        /* \"@openzeppelin/contracts/access/AccessControl.sol\":7025:7030  false */\n      0x00\n        /* \"@openzeppelin/contracts/access/AccessControl.sol\":7018:7030  return false */\n      swap1\n      pop\n        /* \"@openzeppelin/contracts/access/AccessControl.sol\":6730:7047  function _revokeRole(bytes32 role, address account) internal virtual returns (bool) {... */\n    tag_348:\n      swap3\n      swap2\n      pop\n      pop\n      jump\t// out\n        /* \"@openzeppelin/contracts/utils/Pausable.sol\":2710:2827  function _unpause() internal virtual whenPaused {... */\n    tag_219:\n        /* \"@openzeppelin/contracts/utils/Pausable.sol\":1721:1737  _requirePaused() */\n      tag_354\n        /* \"@openzeppelin/contracts/utils/Pausable.sol\":1721:1735  _requirePaused */\n      tag_355\n        /* \"@openzeppelin/contracts/utils/Pausable.sol\":1721:1737  _requirePaused() */\n      jump\t// in\n    tag_354:\n        /* \"@openzeppelin/contracts/utils/Pausable.sol\":2778:2783  false */\n      0x00\n        /* \"@openzeppelin/contracts/utils/Pausable.sol\":2768:2775  _paused */\n      0x05\n      0x00\n        /* \"@openzeppelin/contracts/utils/Pausable.sol\":2768:2783  _paused = false */\n      0x0100\n      exp\n      dup2\n      sload\n      dup2\n      0xff\n      mul\n      not\n      and\n      swap1\n      dup4\n      iszero\n      iszero\n      mul\n      or\n      swap1\n      sstore\n      pop\n        /* \"@openzeppelin/contracts/utils/Pausable.sol\":2798:2820  Unpaused(_msgSender()) */\n      0x5db9ee0a495bf2e6ff9c91a7834c1ba4fdd244a5e8aa4e537bd38aeae4b073aa\n        /* \"@openzeppelin/contracts/utils/Pausable.sol\":2807:2819  _msgSender() */\n      tag_357\n        /* \"@openzeppelin/contracts/utils/Pausable.sol\":2807:2817  _msgSender */\n      tag_171\n        /* \"@openzeppelin/contracts/utils/Pausable.sol\":2807:2819  _msgSender() */\n      jump\t// in\n    tag_357:\n        /* \"@openzeppelin/contracts/utils/Pausable.sol\":2798:2820  Unpaused(_msgSender()) */\n      mload(0x40)\n      tag_358\n      swap2\n      swap1\n      tag_122\n      jump\t// in\n    tag_358:\n      mload(0x40)\n      dup1\n      swap2\n      sub\n      swap1\n      log1\n        /* \"@openzeppelin/contracts/utils/Pausable.sol\":2710:2827  function _unpause() internal virtual whenPaused {... */\n      jump\t// out\n        /* \"@openzeppelin/contracts/token/ERC20/ERC20.sol\":8247:8453  function _burn(address account, uint256 value) internal {... */\n    tag_223:\n        /* \"@openzeppelin/contracts/token/ERC20/ERC20.sol\":8336:8337  0 */\n      0x00\n        /* \"@openzeppelin/contracts/token/ERC20/ERC20.sol\":8317:8338  account == address(0) */\n      0xffffffffffffffffffffffffffffffffffffffff\n      and\n        /* \"@openzeppelin/contracts/token/ERC20/ERC20.sol\":8317:8324  account */\n      dup3\n        /* \"@openzeppelin/contracts/token/ERC20/ERC20.sol\":8317:8338  account == address(0) */\n      0xffffffffffffffffffffffffffffffffffffffff\n      and\n      sub\n        /* \"@openzeppelin/contracts/token/ERC20/ERC20.sol\":8313:8402  if (account == address(0)) {... */\n      tag_360\n      jumpi\n        /* \"@openzeppelin/contracts/token/ERC20/ERC20.sol\":8388:8389  0 */\n      0x00\n        /* \"@openzeppelin/contracts/token/ERC20/ERC20.sol\":8361:8391  ERC20InvalidSender(address(0)) */\n      mload(0x40)\n      0x96c6fd1e00000000000000000000000000000000000000000000000000000000\n      dup2\n      mstore\n      0x04\n      add\n      tag_361\n      swap2\n      swap1\n      tag_122\n      jump\t// in\n    tag_361:\n      mload(0x40)\n      dup1\n      swap2\n      sub\n      swap1\n      revert\n        /* \"@openzeppelin/contracts/token/ERC20/ERC20.sol\":8313:8402  if (account == address(0)) {... */\n    tag_360:\n        /* \"@openzeppelin/contracts/token/ERC20/ERC20.sol\":8411:8446  _update(account, address(0), value) */\n      tag_362\n        /* \"@openzeppelin/contracts/token/ERC20/ERC20.sol\":8419:8426  account */\n      dup3\n        /* \"@openzeppelin/contracts/token/ERC20/ERC20.sol\":8436:8437  0 */\n      0x00\n        /* \"@openzeppelin/contracts/token/ERC20/ERC20.sol\":8440:8445  value */\n      dup4\n        /* \"@openzeppelin/contracts/token/ERC20/ERC20.sol\":8411:8418  _update */\n      tag_338\n        /* \"@openzeppelin/contracts/token/ERC20/ERC20.sol\":8411:8446  _update(account, address(0), value) */\n      jump\t// in\n    tag_362:\n        /* \"@openzeppelin/contracts/token/ERC20/ERC20.sol\":8247:8453  function _burn(address account, uint256 value) internal {... */\n      pop\n      pop\n      jump\t// out\n        /* \"@openzeppelin/contracts/utils/Pausable.sol\":2463:2578  function _pause() internal virtual whenNotPaused {... */\n    tag_234:\n        /* \"@openzeppelin/contracts/utils/Pausable.sol\":1474:1493  _requireNotPaused() */\n      tag_364\n        /* \"@openzeppelin/contracts/utils/Pausable.sol\":1474:1491  _requireNotPaused */\n      tag_365\n        /* \"@openzeppelin/contracts/utils/Pausable.sol\":1474:1493  _requireNotPaused() */\n      jump\t// in\n    tag_364:\n        /* \"@openzeppelin/contracts/utils/Pausable.sol\":2532:2536  true */\n      0x01\n        /* \"@openzeppelin/contracts/utils/Pausable.sol\":2522:2529  _paused */\n      0x05\n      0x00\n        /* \"@openzeppelin/contracts/utils/Pausable.sol\":2522:2536  _paused = true */\n      0x0100\n      exp\n      dup2\n      sload\n      dup2\n      0xff\n      mul\n      not\n      and\n      swap1\n      dup4\n      iszero\n      iszero\n      mul\n      or\n      swap1\n      sstore\n      pop\n        /* \"@openzeppelin/contracts/utils/Pausable.sol\":2551:2571  Paused(_msgSender()) */\n      0x62e78cea01bee320cd4e420270b5ea74000d11b0c9f74754ebdbfc544b05a258\n        /* \"@openzeppelin/contracts/utils/Pausable.sol\":2558:2570  _msgSender() */\n      tag_367\n        /* \"@openzeppelin/contracts/utils/Pausable.sol\":2558:2568  _msgSender */\n      tag_171\n        /* \"@openzeppelin/contracts/utils/Pausable.sol\":2558:2570  _msgSender() */\n      jump\t// in\n    tag_367:\n        /* \"@openzeppelin/contracts/utils/Pausable.sol\":2551:2571  Paused(_msgSender()) */\n      mload(0x40)\n      tag_368\n      swap2\n      swap1\n      tag_122\n      jump\t// in\n    tag_368:\n      mload(0x40)\n      dup1\n      swap2\n      sub\n      swap1\n      log1\n        /* \"@openzeppelin/contracts/utils/Pausable.sol\":2463:2578  function _pause() internal virtual whenNotPaused {... */\n      jump\t// out\n        /* \"@openzeppelin/contracts/token/ERC20/ERC20.sol\":9949:10381  function _approve(address owner, address spender, uint256 value, bool emitEvent) internal virtual {... */\n    tag_324:\n        /* \"@openzeppelin/contracts/token/ERC20/ERC20.sol\":10078:10079  0 */\n      0x00\n        /* \"@openzeppelin/contracts/token/ERC20/ERC20.sol\":10061:10080  owner == address(0) */\n      0xffffffffffffffffffffffffffffffffffffffff\n      and\n        /* \"@openzeppelin/contracts/token/ERC20/ERC20.sol\":10061:10066  owner */\n      dup5\n        /* \"@openzeppelin/contracts/token/ERC20/ERC20.sol\":10061:10080  owner == address(0) */\n      0xffffffffffffffffffffffffffffffffffffffff\n      and\n      sub\n        /* \"@openzeppelin/contracts/token/ERC20/ERC20.sol\":10057:10146  if (owner == address(0)) {... */\n      tag_370\n      jumpi\n        /* \"@openzeppelin/contracts/token/ERC20/ERC20.sol\":10132:10133  0 */\n      0x00\n        /* \"@openzeppelin/contracts/token/ERC20/ERC20.sol\":10103:10135  ERC20InvalidApprover(address(0)) */\n      mload(0x40)\n      0xe602df0500000000000000000000000000000000000000000000000000000000\n      dup2\n      mstore\n      0x04\n      add\n      tag_371\n      swap2\n      swap1\n      tag_122\n      jump\t// in\n    tag_371:\n      mload(0x40)\n      dup1\n      swap2\n      sub\n      swap1\n      revert\n        /* \"@openzeppelin/contracts/token/ERC20/ERC20.sol\":10057:10146  if (owner == address(0)) {... */\n    tag_370:\n        /* \"@openzeppelin/contracts/token/ERC20/ERC20.sol\":10178:10179  0 */\n      0x00\n        /* \"@openzeppelin/contracts/token/ERC20/ERC20.sol\":10159:10180  spender == address(0) */\n      0xffffffffffffffffffffffffffffffffffffffff\n      and\n        /* \"@openzeppelin/contracts/token/ERC20/ERC20.sol\":10159:10166  spender */\n      dup4\n        /* \"@openzeppelin/contracts/token/ERC20/ERC20.sol\":10159:10180  spender == address(0) */\n      0xffffffffffffffffffffffffffffffffffffffff\n      and\n      sub\n        /* \"@openzeppelin/contracts/token/ERC20/ERC20.sol\":10155:10245  if (spender == address(0)) {... */\n      tag_372\n      jumpi\n        /* \"@openzeppelin/contracts/token/ERC20/ERC20.sol\":10231:10232  0 */\n      0x00\n        /* \"@openzeppelin/contracts/token/ERC20/ERC20.sol\":10203:10234  ERC20InvalidSpender(address(0)) */\n      mload(0x40)\n      0x94280d6200000000000000000000000000000000000000000000000000000000\n      dup2\n      mstore\n      0x04\n      add\n      tag_373\n      swap2\n      swap1\n      tag_122\n      jump\t// in\n    tag_373:\n      mload(0x40)\n      dup1\n      swap2\n      sub\n      swap1\n      revert\n        /* \"@openzeppelin/contracts/token/ERC20/ERC20.sol\":10155:10245  if (spender == address(0)) {... */\n    tag_372:\n        /* \"@openzeppelin/contracts/token/ERC20/ERC20.sol\":10284:10289  value */\n      dup2\n        /* \"@openzeppelin/contracts/token/ERC20/ERC20.sol\":10254:10265  _allowances */\n      0x01\n        /* \"@openzeppelin/contracts/token/ERC20/ERC20.sol\":10254:10272  _allowances[owner] */\n      0x00\n        /* \"@openzeppelin/contracts/token/ERC20/ERC20.sol\":10266:10271  owner */\n      dup7\n        /* \"@openzeppelin/contracts/token/ERC20/ERC20.sol\":10254:10272  _allowances[owner] */\n      0xffffffffffffffffffffffffffffffffffffffff\n      and\n      0xffffffffffffffffffffffffffffffffffffffff\n      and\n      dup2\n      mstore\n      0x20\n      add\n      swap1\n      dup2\n      mstore\n      0x20\n      add\n      0x00\n      keccak256\n        /* \"@openzeppelin/contracts/token/ERC20/ERC20.sol\":10254:10281  _allowances[owner][spender] */\n      0x00\n        /* \"@openzeppelin/contracts/token/ERC20/ERC20.sol\":10273:10280  spender */\n      dup6\n        /* \"@openzeppelin/contracts/token/ERC20/ERC20.sol\":10254:10281  _allowances[owner][spender] */\n      0xffffffffffffffffffffffffffffffffffffffff\n      and\n      0xffffffffffffffffffffffffffffffffffffffff\n      and\n      dup2\n      mstore\n      0x20\n      add\n      swap1\n      dup2\n      mstore\n      0x20\n      add\n      0x00\n      keccak256\n        /* \"@openzeppelin/contracts/token/ERC20/ERC20.sol\":10254:10289  _allowances[owner][spender] = value */\n      dup2\n      swap1\n      sstore\n      pop\n        /* \"@openzeppelin/contracts/token/ERC20/ERC20.sol\":10303:10312  emitEvent */\n      dup1\n        /* \"@openzeppelin/contracts/token/ERC20/ERC20.sol\":10299:10375  if (emitEvent) {... */\n      iszero\n      tag_374\n      jumpi\n        /* \"@openzeppelin/contracts/token/ERC20/ERC20.sol\":10349:10356  spender */\n      dup3\n        /* \"@openzeppelin/contracts/token/ERC20/ERC20.sol\":10333:10364  Approval(owner, spender, value) */\n      0xffffffffffffffffffffffffffffffffffffffff\n      and\n        /* \"@openzeppelin/contracts/token/ERC20/ERC20.sol\":10342:10347  owner */\n      dup5\n        /* \"@openzeppelin/contracts/token/ERC20/ERC20.sol\":10333:10364  Approval(owner, spender, value) */\n      0xffffffffffffffffffffffffffffffffffffffff\n      and\n      0x8c5be1e5ebec7d5bd14f71427d1e84f3dd0314c0f7b2291e5b200ac8c7c3b925\n        /* \"@openzeppelin/contracts/token/ERC20/ERC20.sol\":10358:10363  value */\n      dup5\n        /* \"@openzeppelin/contracts/token/ERC20/ERC20.sol\":10333:10364  Approval(owner, spender, value) */\n      mload(0x40)\n      tag_375\n      swap2\n      swap1\n      tag_64\n      jump\t// in\n    tag_375:\n      mload(0x40)\n      dup1\n      swap2\n      sub\n      swap1\n      log3\n        /* \"@openzeppelin/contracts/token/ERC20/ERC20.sol\":10299:10375  if (emitEvent) {... */\n    tag_374:\n        /* \"@openzeppelin/contracts/token/ERC20/ERC20.sol\":9949:10381  function _approve(address owner, address spender, uint256 value, bool emitEvent) internal virtual {... */\n      pop\n      pop\n      pop\n      pop\n      jump\t// out\n        /* \"contracts/BonDeFiToken.sol\":3129:3294  function _update(address from, address to, uint256 value)... */\n    tag_338:\n        /* \"contracts/BonDeFiToken.sol\":3257:3287  super._update(from, to, value) */\n      tag_377\n        /* \"contracts/BonDeFiToken.sol\":3271:3275  from */\n      dup4\n        /* \"contracts/BonDeFiToken.sol\":3277:3279  to */\n      dup4\n        /* \"contracts/BonDeFiToken.sol\":3281:3286  value */\n      dup4\n        /* \"contracts/BonDeFiToken.sol\":3257:3270  super._update */\n      tag_378\n        /* \"contracts/BonDeFiToken.sol\":3257:3287  super._update(from, to, value) */\n      jump\t// in\n    tag_377:\n        /* \"contracts/BonDeFiToken.sol\":3129:3294  function _update(address from, address to, uint256 value)... */\n      pop\n      pop\n      pop\n      jump\t// out\n        /* \"@openzeppelin/contracts/access/AccessControl.sol\":3432:3629  function _checkRole(bytes32 role, address account) internal view virtual {... */\n    tag_342:\n        /* \"@openzeppelin/contracts/access/AccessControl.sol\":3520:3542  hasRole(role, account) */\n      tag_380\n        /* \"@openzeppelin/contracts/access/AccessControl.sol\":3528:3532  role */\n      dup3\n        /* \"@openzeppelin/contracts/access/AccessControl.sol\":3534:3541  account */\n      dup3\n        /* \"@openzeppelin/contracts/access/AccessControl.sol\":3520:3527  hasRole */\n      tag_114\n        /* \"@openzeppelin/contracts/access/AccessControl.sol\":3520:3542  hasRole(role, account) */\n      jump\t// in\n    tag_380:\n        /* \"@openzeppelin/contracts/access/AccessControl.sol\":3515:3623  if (!hasRole(role, account)) {... */\n      tag_381\n      jumpi\n        /* \"@openzeppelin/contracts/access/AccessControl.sol\":3598:3605  account */\n      dup1\n        /* \"@openzeppelin/contracts/access/AccessControl.sol\":3607:3611  role */\n      dup3\n        /* \"@openzeppelin/contracts/access/AccessControl.sol\":3565:3612  AccessControlUnauthorizedAccount(account, role) */\n      mload(0x40)\n      0xe2517d3f00000000000000000000000000000000000000000000000000000000\n      dup2\n      mstore\n      0x04\n      add\n      tag_382\n      swap3\n      swap2\n      swap1\n      tag_383\n      jump\t// in\n    tag_382:\n      mload(0x40)\n      dup1\n      swap2\n      sub\n      swap1\n      revert\n        /* \"@openzeppelin/contracts/access/AccessControl.sol\":3515:3623  if (!hasRole(role, account)) {... */\n    tag_381:\n        /* \"@openzeppelin/contracts/access/AccessControl.sol\":3432:3629  function _checkRole(bytes32 role, address account) internal view virtual {... */\n      pop\n      pop\n      jump\t// out\n        /* \"@openzeppelin/contracts/utils/Pausable.sol\":2202:2328  function _requirePaused() internal view virtual {... */\n    tag_355:\n        /* \"@openzeppelin/contracts/utils/Pausable.sol\":2265:2273  paused() */\n      tag_385\n        /* \"@openzeppelin/contracts/utils/Pausable.sol\":2265:2271  paused */\n      tag_96\n        /* \"@openzeppelin/contracts/utils/Pausable.sol\":2265:2273  paused() */\n      jump\t// in\n    tag_385:\n        /* \"@openzeppelin/contracts/utils/Pausable.sol\":2260:2322  if (!paused()) {... */\n      tag_386\n      jumpi\n        /* \"@openzeppelin/contracts/utils/Pausable.sol\":2296:2311  ExpectedPause() */\n      mload(0x40)\n      0x8dfc202b00000000000000000000000000000000000000000000000000000000\n      dup2\n      mstore\n      0x04\n      add\n      mload(0x40)\n      dup1\n      swap2\n      sub\n      swap1\n      revert\n        /* \"@openzeppelin/contracts/utils/Pausable.sol\":2260:2322  if (!paused()) {... */\n    tag_386:\n        /* \"@openzeppelin/contracts/utils/Pausable.sol\":2202:2328  function _requirePaused() internal view virtual {... */\n      jump\t// out\n        /* \"@openzeppelin/contracts/utils/Pausable.sol\":2002:2130  function _requireNotPaused() internal view virtual {... */\n    tag_365:\n        /* \"@openzeppelin/contracts/utils/Pausable.sol\":2067:2075  paused() */\n      tag_388\n        /* \"@openzeppelin/contracts/utils/Pausable.sol\":2067:2073  paused */\n      tag_96\n        /* \"@openzeppelin/contracts/utils/Pausable.sol\":2067:2075  paused() */\n      jump\t// in\n    tag_388:\n        /* \"@openzeppelin/contracts/utils/Pausable.sol\":2063:2124  if (paused()) {... */\n      iszero\n      tag_389\n      jumpi\n        /* \"@openzeppelin/contracts/utils/Pausable.sol\":2098:2113  EnforcedPause() */\n      mload(0x40)\n      0xd93c066500000000000000000000000000000000000000000000000000000000\n      dup2\n      mstore\n      0x04\n      add\n      mload(0x40)\n      dup1\n      swap2\n      sub\n      swap1\n      revert\n        /* \"@openzeppelin/contracts/utils/Pausable.sol\":2063:2124  if (paused()) {... */\n    tag_389:\n        /* \"@openzeppelin/contracts/utils/Pausable.sol\":2002:2130  function _requireNotPaused() internal view virtual {... */\n      jump\t// out\n        /* \"@openzeppelin/contracts/token/ERC20/extensions/ERC20Pausable.sol\":1112:1257  function _update(address from, address to, uint256 value) internal virtual override whenNotPaused {... */\n    tag_378:\n        /* \"@openzeppelin/contracts/utils/Pausable.sol\":1474:1493  _requireNotPaused() */\n      tag_391\n        /* \"@openzeppelin/contracts/utils/Pausable.sol\":1474:1491  _requireNotPaused */\n      tag_365\n        /* \"@openzeppelin/contracts/utils/Pausable.sol\":1474:1493  _requireNotPaused() */\n      jump\t// in\n    tag_391:\n        /* \"@openzeppelin/contracts/token/ERC20/extensions/ERC20Pausable.sol\":1220:1250  super._update(from, to, value) */\n      tag_393\n        /* \"@openzeppelin/contracts/token/ERC20/extensions/ERC20Pausable.sol\":1234:1238  from */\n      dup4\n        /* \"@openzeppelin/contracts/token/ERC20/extensions/ERC20Pausable.sol\":1240:1242  to */\n      dup4\n        /* \"@openzeppelin/contracts/token/ERC20/extensions/ERC20Pausable.sol\":1244:1249  value */\n      dup4\n        /* \"@openzeppelin/contracts/token/ERC20/extensions/ERC20Pausable.sol\":1220:1233  super._update */\n      tag_394\n        /* \"@openzeppelin/contracts/token/ERC20/extensions/ERC20Pausable.sol\":1220:1250  super._update(from, to, value) */\n      jump\t// in\n    tag_393:\n        /* \"@openzeppelin/contracts/token/ERC20/extensions/ERC20Pausable.sol\":1112:1257  function _update(address from, address to, uint256 value) internal virtual override whenNotPaused {... */\n      pop\n      pop\n      pop\n      jump\t// out\n        /* \"@openzeppelin/contracts/token/ERC20/ERC20.sol\":6271:7378  function _update(address from, address to, uint256 value) internal virtual {... */\n    tag_394:\n        /* \"@openzeppelin/contracts/token/ERC20/ERC20.sol\":6376:6377  0 */\n      0x00\n        /* \"@openzeppelin/contracts/token/ERC20/ERC20.sol\":6360:6378  from == address(0) */\n      0xffffffffffffffffffffffffffffffffffffffff\n      and\n        /* \"@openzeppelin/contracts/token/ERC20/ERC20.sol\":6360:6364  from */\n      dup4\n        /* \"@openzeppelin/contracts/token/ERC20/ERC20.sol\":6360:6378  from == address(0) */\n      0xffffffffffffffffffffffffffffffffffffffff\n      and\n      sub\n        /* \"@openzeppelin/contracts/token/ERC20/ERC20.sol\":6356:6896  if (from == address(0)) {... */\n      tag_396\n      jumpi\n        /* \"@openzeppelin/contracts/token/ERC20/ERC20.sol\":6512:6517  value */\n      dup1\n        /* \"@openzeppelin/contracts/token/ERC20/ERC20.sol\":6496:6508  _totalSupply */\n      0x02\n      0x00\n        /* \"@openzeppelin/contracts/token/ERC20/ERC20.sol\":6496:6517  _totalSupply += value */\n      dup3\n      dup3\n      sload\n      tag_397\n      swap2\n      swap1\n      tag_398\n      jump\t// in\n    tag_397:\n      swap3\n      pop\n      pop\n      dup2\n      swap1\n      sstore\n      pop\n        /* \"@openzeppelin/contracts/token/ERC20/ERC20.sol\":6356:6896  if (from == address(0)) {... */\n      jump(tag_399)\n    tag_396:\n        /* \"@openzeppelin/contracts/token/ERC20/ERC20.sol\":6548:6567  uint256 fromBalance */\n      0x00\n        /* \"@openzeppelin/contracts/token/ERC20/ERC20.sol\":6570:6579  _balances */\n      dup1\n        /* \"@openzeppelin/contracts/token/ERC20/ERC20.sol\":6570:6585  _balances[from] */\n      0x00\n        /* \"@openzeppelin/contracts/token/ERC20/ERC20.sol\":6580:6584  from */\n      dup6\n        /* \"@openzeppelin/contracts/token/ERC20/ERC20.sol\":6570:6585  _balances[from] */\n      0xffffffffffffffffffffffffffffffffffffffff\n      and\n      0xffffffffffffffffffffffffffffffffffffffff\n      and\n      dup2\n      mstore\n      0x20\n      add\n      swap1\n      dup2\n      mstore\n      0x20\n      add\n      0x00\n      keccak256\n      sload\n        /* \"@openzeppelin/contracts/token/ERC20/ERC20.sol\":6548:6585  uint256 fromBalance = _balances[from] */\n      swap1\n      pop\n        /* \"@openzeppelin/contracts/token/ERC20/ERC20.sol\":6617:6622  value */\n      dup2\n        /* \"@openzeppelin/contracts/token/ERC20/ERC20.sol\":6603:6614  fromBalance */\n      dup2\n        /* \"@openzeppelin/contracts/token/ERC20/ERC20.sol\":6603:6622  fromBalance < value */\n      lt\n        /* \"@openzeppelin/contracts/token/ERC20/ERC20.sol\":6599:6714  if (fromBalance < value) {... */\n      iszero\n      tag_400\n      jumpi\n        /* \"@openzeppelin/contracts/token/ERC20/ERC20.sol\":6674:6678  from */\n      dup4\n        /* \"@openzeppelin/contracts/token/ERC20/ERC20.sol\":6680:6691  fromBalance */\n      dup2\n        /* \"@openzeppelin/contracts/token/ERC20/ERC20.sol\":6693:6698  value */\n      dup4\n        /* \"@openzeppelin/contracts/token/ERC20/ERC20.sol\":6649:6699  ERC20InsufficientBalance(from, fromBalance, value) */\n      mload(0x40)\n      0xe450d38c00000000000000000000000000000000000000000000000000000000\n      dup2\n      mstore\n      0x04\n      add\n      tag_401\n      swap4\n      swap3\n      swap2\n      swap1\n      tag_330\n      jump\t// in\n    tag_401:\n      mload(0x40)\n      dup1\n      swap2\n      sub\n      swap1\n      revert\n        /* \"@openzeppelin/contracts/token/ERC20/ERC20.sol\":6599:6714  if (fromBalance < value) {... */\n    tag_400:\n        /* \"@openzeppelin/contracts/token/ERC20/ERC20.sol\":6866:6871  value */\n      dup2\n        /* \"@openzeppelin/contracts/token/ERC20/ERC20.sol\":6852:6863  fromBalance */\n      dup2\n        /* \"@openzeppelin/contracts/token/ERC20/ERC20.sol\":6852:6871  fromBalance - value */\n      sub\n        /* \"@openzeppelin/contracts/token/ERC20/ERC20.sol\":6834:6843  _balances */\n      0x00\n        /* \"@openzeppelin/contracts/token/ERC20/ERC20.sol\":6834:6849  _balances[from] */\n      dup1\n        /* \"@openzeppelin/contracts/token/ERC20/ERC20.sol\":6844:6848  from */\n      dup7\n        /* \"@openzeppelin/contracts/token/ERC20/ERC20.sol\":6834:6849  _balances[from] */\n      0xffffffffffffffffffffffffffffffffffffffff\n      and\n      0xffffffffffffffffffffffffffffffffffffffff\n      and\n      dup2\n      mstore\n      0x20\n      add\n      swap1\n      dup2\n      mstore\n      0x20\n      add\n      0x00\n      keccak256\n        /* \"@openzeppelin/contracts/token/ERC20/ERC20.sol\":6834:6871  _balances[from] = fromBalance - value */\n      dup2\n      swap1\n      sstore\n      pop\n        /* \"@openzeppelin/contracts/token/ERC20/ERC20.sol\":6534:6896  {... */\n      pop\n        /* \"@openzeppelin/contracts/token/ERC20/ERC20.sol\":6356:6896  if (from == address(0)) {... */\n    tag_399:\n        /* \"@openzeppelin/contracts/token/ERC20/ERC20.sol\":6924:6925  0 */\n      0x00\n        /* \"@openzeppelin/contracts/token/ERC20/ERC20.sol\":6910:6926  to == address(0) */\n      0xffffffffffffffffffffffffffffffffffffffff\n      and\n        /* \"@openzeppelin/contracts/token/ERC20/ERC20.sol\":6910:6912  to */\n      dup3\n        /* \"@openzeppelin/contracts/token/ERC20/ERC20.sol\":6910:6926  to == address(0) */\n      0xffffffffffffffffffffffffffffffffffffffff\n      and\n      sub\n        /* \"@openzeppelin/contracts/token/ERC20/ERC20.sol\":6906:7331  if (to == address(0)) {... */\n      tag_402\n      jumpi\n        /* \"@openzeppelin/contracts/token/ERC20/ERC20.sol\":7089:7094  value */\n      dup1\n        /* \"@openzeppelin/contracts/token/ERC20/ERC20.sol\":7073:7085  _totalSupply */\n      0x02\n      0x00\n        /* \"@openzeppelin/contracts/token/ERC20/ERC20.sol\":7073:7094  _totalSupply -= value */\n      dup3\n      dup3\n      sload\n      sub\n      swap3\n      pop\n      pop\n      dup2\n      swap1\n      sstore\n      pop\n        /* \"@openzeppelin/contracts/token/ERC20/ERC20.sol\":6906:7331  if (to == address(0)) {... */\n      jump(tag_403)\n    tag_402:\n        /* \"@openzeppelin/contracts/token/ERC20/ERC20.sol\":7301:7306  value */\n      dup1\n        /* \"@openzeppelin/contracts/token/ERC20/ERC20.sol\":7284:7293  _balances */\n      0x00\n        /* \"@openzeppelin/contracts/token/ERC20/ERC20.sol\":7284:7297  _balances[to] */\n      dup1\n        /* \"@openzeppelin/contracts/token/ERC20/ERC20.sol\":7294:7296  to */\n      dup5\n        /* \"@openzeppelin/contracts/token/ERC20/ERC20.sol\":7284:7297  _balances[to] */\n      0xffffffffffffffffffffffffffffffffffffffff\n      and\n      0xffffffffffffffffffffffffffffffffffffffff\n      and\n      dup2\n      mstore\n      0x20\n      add\n      swap1\n      dup2\n      mstore\n      0x20\n      add\n      0x00\n      keccak256\n      0x00\n        /* \"@openzeppelin/contracts/token/ERC20/ERC20.sol\":7284:7306  _balances[to] += value */\n      dup3\n      dup3\n      sload\n      add\n      swap3\n      pop\n      pop\n      dup2\n      swap1\n      sstore\n      pop\n        /* \"@openzeppelin/contracts/token/ERC20/ERC20.sol\":6906:7331  if (to == address(0)) {... */\n    tag_403:\n        /* \"@openzeppelin/contracts/token/ERC20/ERC20.sol\":7361:7363  to */\n      dup2\n        /* \"@openzeppelin/contracts/token/ERC20/ERC20.sol\":7346:7371  Transfer(from, to, value) */\n      0xffffffffffffffffffffffffffffffffffffffff\n      and\n        /* \"@openzeppelin/contracts/token/ERC20/ERC20.sol\":7355:7359  from */\n      dup4\n        /* \"@openzeppelin/contracts/token/ERC20/ERC20.sol\":7346:7371  Transfer(from, to, value) */\n      0xffffffffffffffffffffffffffffffffffffffff\n      and\n      0xddf252ad1be2c89b69c2b068fc378daa952ba7f163c4a11628f55a4df523b3ef\n        /* \"@openzeppelin/contracts/token/ERC20/ERC20.sol\":7365:7370  value */\n      dup4\n        /* \"@openzeppelin/contracts/token/ERC20/ERC20.sol\":7346:7371  Transfer(from, to, value) */\n      mload(0x40)\n      tag_404\n      swap2\n      swap1\n      tag_64\n      jump\t// in\n    tag_404:\n      mload(0x40)\n      dup1\n      swap2\n      sub\n      swap1\n      log3\n        /* \"@openzeppelin/contracts/token/ERC20/ERC20.sol\":6271:7378  function _update(address from, address to, uint256 value) internal virtual {... */\n      pop\n      pop\n      pop\n      jump\t// out\n        /* \"#utility.yul\":7:82   */\n    tag_405:\n        /* \"#utility.yul\":40:46   */\n      0x00\n        /* \"#utility.yul\":73:75   */\n      0x40\n        /* \"#utility.yul\":67:76   */\n      mload\n        /* \"#utility.yul\":57:76   */\n      swap1\n      pop\n        /* \"#utility.yul\":7:82   */\n      swap1\n      jump\t// out\n        /* \"#utility.yul\":88:205   */\n    tag_406:\n        /* \"#utility.yul\":197:198   */\n      0x00\n        /* \"#utility.yul\":194:195   */\n      dup1\n        /* \"#utility.yul\":187:199   */\n      revert\n        /* \"#utility.yul\":211:328   */\n    tag_407:\n        /* \"#utility.yul\":320:321   */\n      0x00\n        /* \"#utility.yul\":317:318   */\n      dup1\n        /* \"#utility.yul\":310:322   */\n      revert\n        /* \"#utility.yul\":334:483   */\n    tag_408:\n        /* \"#utility.yul\":370:377   */\n      0x00\n        /* \"#utility.yul\":410:476   */\n      0xffffffff00000000000000000000000000000000000000000000000000000000\n        /* \"#utility.yul\":403:408   */\n      dup3\n        /* \"#utility.yul\":399:477   */\n      and\n        /* \"#utility.yul\":388:477   */\n      swap1\n      pop\n        /* \"#utility.yul\":334:483   */\n      swap2\n      swap1\n      pop\n      jump\t// out\n        /* \"#utility.yul\":489:609   */\n    tag_409:\n        /* \"#utility.yul\":561:584   */\n      tag_471\n        /* \"#utility.yul\":578:583   */\n      dup2\n        /* \"#utility.yul\":561:584   */\n      tag_408\n      jump\t// in\n    tag_471:\n        /* \"#utility.yul\":554:559   */\n      dup2\n        /* \"#utility.yul\":551:585   */\n      eq\n        /* \"#utility.yul\":541:603   */\n      tag_472\n      jumpi\n        /* \"#utility.yul\":599:600   */\n      0x00\n        /* \"#utility.yul\":596:597   */\n      dup1\n        /* \"#utility.yul\":589:601   */\n      revert\n        /* \"#utility.yul\":541:603   */\n    tag_472:\n        /* \"#utility.yul\":489:609   */\n      pop\n      jump\t// out\n        /* \"#utility.yul\":615:752   */\n    tag_410:\n        /* \"#utility.yul\":660:665   */\n      0x00\n        /* \"#utility.yul\":698:704   */\n      dup2\n        /* \"#utility.yul\":685:705   */\n      calldataload\n        /* \"#utility.yul\":676:705   */\n      swap1\n      pop\n        /* \"#utility.yul\":714:746   */\n      tag_474\n        /* \"#utility.yul\":740:745   */\n      dup2\n        /* \"#utility.yul\":714:746   */\n      tag_409\n      jump\t// in\n    tag_474:\n        /* \"#utility.yul\":615:752   */\n      swap3\n      swap2\n      pop\n      pop\n      jump\t// out\n        /* \"#utility.yul\":758:1085   */\n    tag_44:\n        /* \"#utility.yul\":816:822   */\n      0x00\n        /* \"#utility.yul\":865:867   */\n      0x20\n        /* \"#utility.yul\":853:862   */\n      dup3\n        /* \"#utility.yul\":844:851   */\n      dup5\n        /* \"#utility.yul\":840:863   */\n      sub\n        /* \"#utility.yul\":836:868   */\n      slt\n        /* \"#utility.yul\":833:952   */\n      iszero\n      tag_476\n      jumpi\n        /* \"#utility.yul\":871:950   */\n      tag_477\n      tag_406\n      jump\t// in\n    tag_477:\n        /* \"#utility.yul\":833:952   */\n    tag_476:\n        /* \"#utility.yul\":991:992   */\n      0x00\n        /* \"#utility.yul\":1016:1068   */\n      tag_478\n        /* \"#utility.yul\":1060:1067   */\n      dup5\n        /* \"#utility.yul\":1051:1057   */\n      dup3\n        /* \"#utility.yul\":1040:1049   */\n      dup6\n        /* \"#utility.yul\":1036:1058   */\n      add\n        /* \"#utility.yul\":1016:1068   */\n      tag_410\n      jump\t// in\n    tag_478:\n        /* \"#utility.yul\":1006:1068   */\n      swap2\n      pop\n        /* \"#utility.yul\":962:1078   */\n      pop\n        /* \"#utility.yul\":758:1085   */\n      swap3\n      swap2\n      pop\n      pop\n      jump\t// out\n        /* \"#utility.yul\":1091:1181   */\n    tag_411:\n        /* \"#utility.yul\":1125:1132   */\n      0x00\n        /* \"#utility.yul\":1168:1173   */\n      dup2\n        /* \"#utility.yul\":1161:1174   */\n      iszero\n        /* \"#utility.yul\":1154:1175   */\n      iszero\n        /* \"#utility.yul\":1143:1175   */\n      swap1\n      pop\n        /* \"#utility.yul\":1091:1181   */\n      swap2\n      swap1\n      pop\n      jump\t// out\n        /* \"#utility.yul\":1187:1296   */\n    tag_412:\n        /* \"#utility.yul\":1268:1289   */\n      tag_481\n        /* \"#utility.yul\":1283:1288   */\n      dup2\n        /* \"#utility.yul\":1268:1289   */\n      tag_411\n      jump\t// in\n    tag_481:\n        /* \"#utility.yul\":1263:1266   */\n      dup3\n        /* \"#utility.yul\":1256:1290   */\n      mstore\n        /* \"#utility.yul\":1187:1296   */\n      pop\n      pop\n      jump\t// out\n        /* \"#utility.yul\":1302:1512   */\n    tag_47:\n        /* \"#utility.yul\":1389:1393   */\n      0x00\n        /* \"#utility.yul\":1427:1429   */\n      0x20\n        /* \"#utility.yul\":1416:1425   */\n      dup3\n        /* \"#utility.yul\":1412:1430   */\n      add\n        /* \"#utility.yul\":1404:1430   */\n      swap1\n      pop\n        /* \"#utility.yul\":1440:1505   */\n      tag_483\n        /* \"#utility.yul\":1502:1503   */\n      0x00\n        /* \"#utility.yul\":1491:1500   */\n      dup4\n        /* \"#utility.yul\":1487:1504   */\n      add\n        /* \"#utility.yul\":1478:1484   */\n      dup5\n        /* \"#utility.yul\":1440:1505   */\n      tag_412\n      jump\t// in\n    tag_483:\n        /* \"#utility.yul\":1302:1512   */\n      swap3\n      swap2\n      pop\n      pop\n      jump\t// out\n        /* \"#utility.yul\":1518:1617   */\n    tag_413:\n        /* \"#utility.yul\":1570:1576   */\n      0x00\n        /* \"#utility.yul\":1604:1609   */\n      dup2\n        /* \"#utility.yul\":1598:1610   */\n      mload\n        /* \"#utility.yul\":1588:1610   */\n      swap1\n      pop\n        /* \"#utility.yul\":1518:1617   */\n      swap2\n      swap1\n      pop\n      jump\t// out\n        /* \"#utility.yul\":1623:1792   */\n    tag_414:\n        /* \"#utility.yul\":1707:1718   */\n      0x00\n        /* \"#utility.yul\":1741:1747   */\n      dup3\n        /* \"#utility.yul\":1736:1739   */\n      dup3\n        /* \"#utility.yul\":1729:1748   */\n      mstore\n        /* \"#utility.yul\":1781:1785   */\n      0x20\n        /* \"#utility.yul\":1776:1779   */\n      dup3\n        /* \"#utility.yul\":1772:1786   */\n      add\n        /* \"#utility.yul\":1757:1786   */\n      swap1\n      pop\n        /* \"#utility.yul\":1623:1792   */\n      swap3\n      swap2\n      pop\n      pop\n      jump\t// out\n        /* \"#utility.yul\":1798:1937   */\n    tag_415:\n        /* \"#utility.yul\":1887:1893   */\n      dup3\n        /* \"#utility.yul\":1882:1885   */\n      dup2\n        /* \"#utility.yul\":1877:1880   */\n      dup4\n        /* \"#utility.yul\":1871:1894   */\n      mcopy\n        /* \"#utility.yul\":1928:1929   */\n      0x00\n        /* \"#utility.yul\":1919:1925   */\n      dup4\n        /* \"#utility.yul\":1914:1917   */\n      dup4\n        /* \"#utility.yul\":1910:1926   */\n      add\n        /* \"#utility.yul\":1903:1930   */\n      mstore\n        /* \"#utility.yul\":1798:1937   */\n      pop\n      pop\n      pop\n      jump\t// out\n        /* \"#utility.yul\":1943:2045   */\n    tag_416:\n        /* \"#utility.yul\":1984:1990   */\n      0x00\n        /* \"#utility.yul\":2035:2037   */\n      0x1f\n        /* \"#utility.yul\":2031:2038   */\n      not\n        /* \"#utility.yul\":2026:2028   */\n      0x1f\n        /* \"#utility.yul\":2019:2024   */\n      dup4\n        /* \"#utility.yul\":2015:2029   */\n      add\n        /* \"#utility.yul\":2011:2039   */\n      and\n        /* \"#utility.yul\":2001:2039   */\n      swap1\n      pop\n        /* \"#utility.yul\":1943:2045   */\n      swap2\n      swap1\n      pop\n      jump\t// out\n        /* \"#utility.yul\":2051:2428   */\n    tag_417:\n        /* \"#utility.yul\":2139:2142   */\n      0x00\n        /* \"#utility.yul\":2167:2206   */\n      tag_489\n        /* \"#utility.yul\":2200:2205   */\n      dup3\n        /* \"#utility.yul\":2167:2206   */\n      tag_413\n      jump\t// in\n    tag_489:\n        /* \"#utility.yul\":2222:2293   */\n      tag_490\n        /* \"#utility.yul\":2286:2292   */\n      dup2\n        /* \"#utility.yul\":2281:2284   */\n      dup6\n        /* \"#utility.yul\":2222:2293   */\n      tag_414\n      jump\t// in\n    tag_490:\n        /* \"#utility.yul\":2215:2293   */\n      swap4\n      pop\n        /* \"#utility.yul\":2302:2367   */\n      tag_491\n        /* \"#utility.yul\":2360:2366   */\n      dup2\n        /* \"#utility.yul\":2355:2358   */\n      dup6\n        /* \"#utility.yul\":2348:2352   */\n      0x20\n        /* \"#utility.yul\":2341:2346   */\n      dup7\n        /* \"#utility.yul\":2337:2353   */\n      add\n        /* \"#utility.yul\":2302:2367   */\n      tag_415\n      jump\t// in\n    tag_491:\n        /* \"#utility.yul\":2392:2421   */\n      tag_492\n        /* \"#utility.yul\":2414:2420   */\n      dup2\n        /* \"#utility.yul\":2392:2421   */\n      tag_416\n      jump\t// in\n    tag_492:\n        /* \"#utility.yul\":2387:2390   */\n      dup5\n        /* \"#utility.yul\":2383:2422   */\n      add\n        /* \"#utility.yul\":2376:2422   */\n      swap2\n      pop\n        /* \"#utility.yul\":2143:2428   */\n      pop\n        /* \"#utility.yul\":2051:2428   */\n      swap3\n      swap2\n      pop\n      pop\n      jump\t// out\n        /* \"#utility.yul\":2434:2747   */\n    tag_51:\n        /* \"#utility.yul\":2547:2551   */\n      0x00\n        /* \"#utility.yul\":2585:2587   */\n      0x20\n        /* \"#utility.yul\":2574:2583   */\n      dup3\n        /* \"#utility.yul\":2570:2588   */\n      add\n        /* \"#utility.yul\":2562:2588   */\n      swap1\n      pop\n        /* \"#utility.yul\":2634:2643   */\n      dup2\n        /* \"#utility.yul\":2628:2632   */\n      dup2\n        /* \"#utility.yul\":2624:2644   */\n      sub\n        /* \"#utility.yul\":2620:2621   */\n      0x00\n        /* \"#utility.yul\":2609:2618   */\n      dup4\n        /* \"#utility.yul\":2605:2622   */\n      add\n        /* \"#utility.yul\":2598:2645   */\n      mstore\n        /* \"#utility.yul\":2662:2740   */\n      tag_494\n        /* \"#utility.yul\":2735:2739   */\n      dup2\n        /* \"#utility.yul\":2726:2732   */\n      dup5\n        /* \"#utility.yul\":2662:2740   */\n      tag_417\n      jump\t// in\n    tag_494:\n        /* \"#utility.yul\":2654:2740   */\n      swap1\n      pop\n        /* \"#utility.yul\":2434:2747   */\n      swap3\n      swap2\n      pop\n      pop\n      jump\t// out\n        /* \"#utility.yul\":2753:2879   */\n    tag_418:\n        /* \"#utility.yul\":2790:2797   */\n      0x00\n        /* \"#utility.yul\":2830:2872   */\n      0xffffffffffffffffffffffffffffffffffffffff\n        /* \"#utility.yul\":2823:2828   */\n      dup3\n        /* \"#utility.yul\":2819:2873   */\n      and\n        /* \"#utility.yul\":2808:2873   */\n      swap1\n      pop\n        /* \"#utility.yul\":2753:2879   */\n      swap2\n      swap1\n      pop\n      jump\t// out\n        /* \"#utility.yul\":2885:2981   */\n    tag_419:\n        /* \"#utility.yul\":2922:2929   */\n      0x00\n        /* \"#utility.yul\":2951:2975   */\n      tag_497\n        /* \"#utility.yul\":2969:2974   */\n      dup3\n        /* \"#utility.yul\":2951:2975   */\n      tag_418\n      jump\t// in\n    tag_497:\n        /* \"#utility.yul\":2940:2975   */\n      swap1\n      pop\n        /* \"#utility.yul\":2885:2981   */\n      swap2\n      swap1\n      pop\n      jump\t// out\n        /* \"#utility.yul\":2987:3109   */\n    tag_420:\n        /* \"#utility.yul\":3060:3084   */\n      tag_499\n        /* \"#utility.yul\":3078:3083   */\n      dup2\n        /* \"#utility.yul\":3060:3084   */\n      tag_419\n      jump\t// in\n    tag_499:\n        /* \"#utility.yul\":3053:3058   */\n      dup2\n        /* \"#utility.yul\":3050:3085   */\n      eq\n        /* \"#utility.yul\":3040:3103   */\n      tag_500\n      jumpi\n        /* \"#utility.yul\":3099:3100   */\n      0x00\n        /* \"#utility.yul\":3096:3097   */\n      dup1\n        /* \"#utility.yul\":3089:3101   */\n      revert\n        /* \"#utility.yul\":3040:3103   */\n    tag_500:\n        /* \"#utility.yul\":2987:3109   */\n      pop\n      jump\t// out\n        /* \"#utility.yul\":3115:3254   */\n    tag_421:\n        /* \"#utility.yul\":3161:3166   */\n      0x00\n        /* \"#utility.yul\":3199:3205   */\n      dup2\n        /* \"#utility.yul\":3186:3206   */\n      calldataload\n        /* \"#utility.yul\":3177:3206   */\n      swap1\n      pop\n        /* \"#utility.yul\":3215:3248   */\n      tag_502\n        /* \"#utility.yul\":3242:3247   */\n      dup2\n        /* \"#utility.yul\":3215:3248   */\n      tag_420\n      jump\t// in\n    tag_502:\n        /* \"#utility.yul\":3115:3254   */\n      swap3\n      swap2\n      pop\n      pop\n      jump\t// out\n        /* \"#utility.yul\":3260:3337   */\n    tag_422:\n        /* \"#utility.yul\":3297:3304   */\n      0x00\n        /* \"#utility.yul\":3326:3331   */\n      dup2\n        /* \"#utility.yul\":3315:3331   */\n      swap1\n      pop\n        /* \"#utility.yul\":3260:3337   */\n      swap2\n      swap1\n      pop\n      jump\t// out\n        /* \"#utility.yul\":3343:3465   */\n    tag_423:\n        /* \"#utility.yul\":3416:3440   */\n      tag_505\n        /* \"#utility.yul\":3434:3439   */\n      dup2\n        /* \"#utility.yul\":3416:3440   */\n      tag_422\n      jump\t// in\n    tag_505:\n        /* \"#utility.yul\":3409:3414   */\n      dup2\n        /* \"#utility.yul\":3406:3441   */\n      eq\n        /* \"#utility.yul\":3396:3459   */\n      tag_506\n      jumpi\n        /* \"#utility.yul\":3455:3456   */\n      0x00\n        /* \"#utility.yul\":3452:3453   */\n      dup1\n        /* \"#utility.yul\":3445:3457   */\n      revert\n        /* \"#utility.yul\":3396:3459   */\n    tag_506:\n        /* \"#utility.yul\":3343:3465   */\n      pop\n      jump\t// out\n        /* \"#utility.yul\":3471:3610   */\n    tag_424:\n        /* \"#utility.yul\":3517:3522   */\n      0x00\n        /* \"#utility.yul\":3555:3561   */\n      dup2\n        /* \"#utility.yul\":3542:3562   */\n      calldataload\n        /* \"#utility.yul\":3533:3562   */\n      swap1\n      pop\n        /* \"#utility.yul\":3571:3604   */\n      tag_508\n        /* \"#utility.yul\":3598:3603   */\n      dup2\n        /* \"#utility.yul\":3571:3604   */\n      tag_423\n      jump\t// in\n    tag_508:\n        /* \"#utility.yul\":3471:3610   */\n      swap3\n      swap2\n      pop\n      pop\n      jump\t// out\n        /* \"#utility.yul\":3616:4090   */\n    tag_54:\n        /* \"#utility.yul\":3684:3690   */\n      0x00\n        /* \"#utility.yul\":3692:3698   */\n      dup1\n        /* \"#utility.yul\":3741:3743   */\n      0x40\n        /* \"#utility.yul\":3729:3738   */\n      dup4\n        /* \"#utility.yul\":3720:3727   */\n      dup6\n        /* \"#utility.yul\":3716:3739   */\n      sub\n        /* \"#utility.yul\":3712:3744   */\n      slt\n        /* \"#utility.yul\":3709:3828   */\n      iszero\n      tag_510\n      jumpi\n        /* \"#utility.yul\":3747:3826   */\n      tag_511\n      tag_406\n      jump\t// in\n    tag_511:\n        /* \"#utility.yul\":3709:3828   */\n    tag_510:\n        /* \"#utility.yul\":3867:3868   */\n      0x00\n        /* \"#utility.yul\":3892:3945   */\n      tag_512\n        /* \"#utility.yul\":3937:3944   */\n      dup6\n        /* \"#utility.yul\":3928:3934   */\n      dup3\n        /* \"#utility.yul\":3917:3926   */\n      dup7\n        /* \"#utility.yul\":3913:3935   */\n      add\n        /* \"#utility.yul\":3892:3945   */\n      tag_421\n      jump\t// in\n    tag_512:\n        /* \"#utility.yul\":3882:3945   */\n      swap3\n      pop\n        /* \"#utility.yul\":3838:3955   */\n      pop\n        /* \"#utility.yul\":3994:3996   */\n      0x20\n        /* \"#utility.yul\":4020:4073   */\n      tag_513\n        /* \"#utility.yul\":4065:4072   */\n      dup6\n        /* \"#utility.yul\":4056:4062   */\n      dup3\n        /* \"#utility.yul\":4045:4054   */\n      dup7\n        /* \"#utility.yul\":4041:4063   */\n      add\n        /* \"#utility.yul\":4020:4073   */\n      tag_424\n      jump\t// in\n    tag_513:\n        /* \"#utility.yul\":4010:4073   */\n      swap2\n      pop\n        /* \"#utility.yul\":3965:4083   */\n      pop\n        /* \"#utility.yul\":3616:4090   */\n      swap3\n      pop\n      swap3\n      swap1\n      pop\n      jump\t// out\n        /* \"#utility.yul\":4096:4425   */\n    tag_59:\n        /* \"#utility.yul\":4155:4161   */\n      0x00\n        /* \"#utility.yul\":4204:4206   */\n      0x20\n        /* \"#utility.yul\":4192:4201   */\n      dup3\n        /* \"#utility.yul\":4183:4190   */\n      dup5\n        /* \"#utility.yul\":4179:4202   */\n      sub\n        /* \"#utility.yul\":4175:4207   */\n      slt\n        /* \"#utility.yul\":4172:4291   */\n      iszero\n      tag_515\n      jumpi\n        /* \"#utility.yul\":4210:4289   */\n      tag_516\n      tag_406\n      jump\t// in\n    tag_516:\n        /* \"#utility.yul\":4172:4291   */\n    tag_515:\n        /* \"#utility.yul\":4330:4331   */\n      0x00\n        /* \"#utility.yul\":4355:4408   */\n      tag_517\n        /* \"#utility.yul\":4400:4407   */\n      dup5\n        /* \"#utility.yul\":4391:4397   */\n      dup3\n        /* \"#utility.yul\":4380:4389   */\n      dup6\n        /* \"#utility.yul\":4376:4398   */\n      add\n        /* \"#utility.yul\":4355:4408   */\n      tag_424\n      jump\t// in\n    tag_517:\n        /* \"#utility.yul\":4345:4408   */\n      swap2\n      pop\n        /* \"#utility.yul\":4301:4418   */\n      pop\n        /* \"#utility.yul\":4096:4425   */\n      swap3\n      swap2\n      pop\n      pop\n      jump\t// out\n        /* \"#utility.yul\":4431:4549   */\n    tag_425:\n        /* \"#utility.yul\":4518:4542   */\n      tag_519\n        /* \"#utility.yul\":4536:4541   */\n      dup2\n        /* \"#utility.yul\":4518:4542   */\n      tag_422\n      jump\t// in\n    tag_519:\n        /* \"#utility.yul\":4513:4516   */\n      dup3\n        /* \"#utility.yul\":4506:4543   */\n      mstore\n        /* \"#utility.yul\":4431:4549   */\n      pop\n      pop\n      jump\t// out\n        /* \"#utility.yul\":4555:4777   */\n    tag_64:\n        /* \"#utility.yul\":4648:4652   */\n      0x00\n        /* \"#utility.yul\":4686:4688   */\n      0x20\n        /* \"#utility.yul\":4675:4684   */\n      dup3\n        /* \"#utility.yul\":4671:4689   */\n      add\n        /* \"#utility.yul\":4663:4689   */\n      swap1\n      pop\n        /* \"#utility.yul\":4699:4770   */\n      tag_521\n        /* \"#utility.yul\":4767:4768   */\n      0x00\n        /* \"#utility.yul\":4756:4765   */\n      dup4\n        /* \"#utility.yul\":4752:4769   */\n      add\n        /* \"#utility.yul\":4743:4749   */\n      dup5\n        /* \"#utility.yul\":4699:4770   */\n      tag_425\n      jump\t// in\n    tag_521:\n        /* \"#utility.yul\":4555:4777   */\n      swap3\n      swap2\n      pop\n      pop\n      jump\t// out\n        /* \"#utility.yul\":4783:5402   */\n    tag_67:\n        /* \"#utility.yul\":4860:4866   */\n      0x00\n        /* \"#utility.yul\":4868:4874   */\n      dup1\n        /* \"#utility.yul\":4876:4882   */\n      0x00\n        /* \"#utility.yul\":4925:4927   */\n      0x60\n        /* \"#utility.yul\":4913:4922   */\n      dup5\n        /* \"#utility.yul\":4904:4911   */\n      dup7\n        /* \"#utility.yul\":4900:4923   */\n      sub\n        /* \"#utility.yul\":4896:4928   */\n      slt\n        /* \"#utility.yul\":4893:5012   */\n      iszero\n      tag_523\n      jumpi\n        /* \"#utility.yul\":4931:5010   */\n      tag_524\n      tag_406\n      jump\t// in\n    tag_524:\n        /* \"#utility.yul\":4893:5012   */\n    tag_523:\n        /* \"#utility.yul\":5051:5052   */\n      0x00\n        /* \"#utility.yul\":5076:5129   */\n      tag_525\n        /* \"#utility.yul\":5121:5128   */\n      dup7\n        /* \"#utility.yul\":5112:5118   */\n      dup3\n        /* \"#utility.yul\":5101:5110   */\n      dup8\n        /* \"#utility.yul\":5097:5119   */\n      add\n        /* \"#utility.yul\":5076:5129   */\n      tag_421\n      jump\t// in\n    tag_525:\n        /* \"#utility.yul\":5066:5129   */\n      swap4\n      pop\n        /* \"#utility.yul\":5022:5139   */\n      pop\n        /* \"#utility.yul\":5178:5180   */\n      0x20\n        /* \"#utility.yul\":5204:5257   */\n      tag_526\n        /* \"#utility.yul\":5249:5256   */\n      dup7\n        /* \"#utility.yul\":5240:5246   */\n      dup3\n        /* \"#utility.yul\":5229:5238   */\n      dup8\n        /* \"#utility.yul\":5225:5247   */\n      add\n        /* \"#utility.yul\":5204:5257   */\n      tag_421\n      jump\t// in\n    tag_526:\n        /* \"#utility.yul\":5194:5257   */\n      swap3\n      pop\n        /* \"#utility.yul\":5149:5267   */\n      pop\n        /* \"#utility.yul\":5306:5308   */\n      0x40\n        /* \"#utility.yul\":5332:5385   */\n      tag_527\n        /* \"#utility.yul\":5377:5384   */\n      dup7\n        /* \"#utility.yul\":5368:5374   */\n      dup3\n        /* \"#utility.yul\":5357:5366   */\n      dup8\n        /* \"#utility.yul\":5353:5375   */\n      add\n        /* \"#utility.yul\":5332:5385   */\n      tag_424\n      jump\t// in\n    tag_527:\n        /* \"#utility.yul\":5322:5385   */\n      swap2\n      pop\n        /* \"#utility.yul\":5277:5395   */\n      pop\n        /* \"#utility.yul\":4783:5402   */\n      swap3\n      pop\n      swap3\n      pop\n      swap3\n      jump\t// out\n        /* \"#utility.yul\":5408:5485   */\n    tag_426:\n        /* \"#utility.yul\":5445:5452   */\n      0x00\n        /* \"#utility.yul\":5474:5479   */\n      dup2\n        /* \"#utility.yul\":5463:5479   */\n      swap1\n      pop\n        /* \"#utility.yul\":5408:5485   */\n      swap2\n      swap1\n      pop\n      jump\t// out\n        /* \"#utility.yul\":5491:5613   */\n    tag_427:\n        /* \"#utility.yul\":5564:5588   */\n      tag_530\n        /* \"#utility.yul\":5582:5587   */\n      dup2\n        /* \"#utility.yul\":5564:5588   */\n      tag_426\n      jump\t// in\n    tag_530:\n        /* \"#utility.yul\":5557:5562   */\n      dup2\n        /* \"#utility.yul\":5554:5589   */\n      eq\n        /* \"#utility.yul\":5544:5607   */\n      tag_531\n      jumpi\n        /* \"#utility.yul\":5603:5604   */\n      0x00\n        /* \"#utility.yul\":5600:5601   */\n      dup1\n        /* \"#utility.yul\":5593:5605   */\n      revert\n        /* \"#utility.yul\":5544:5607   */\n    tag_531:\n        /* \"#utility.yul\":5491:5613   */\n      pop\n      jump\t// out\n        /* \"#utility.yul\":5619:5758   */\n    tag_428:\n        /* \"#utility.yul\":5665:5670   */\n      0x00\n        /* \"#utility.yul\":5703:5709   */\n      dup2\n        /* \"#utility.yul\":5690:5710   */\n      calldataload\n        /* \"#utility.yul\":5681:5710   */\n      swap1\n      pop\n        /* \"#utility.yul\":5719:5752   */\n      tag_533\n        /* \"#utility.yul\":5746:5751   */\n      dup2\n        /* \"#utility.yul\":5719:5752   */\n      tag_427\n      jump\t// in\n    tag_533:\n        /* \"#utility.yul\":5619:5758   */\n      swap3\n      swap2\n      pop\n      pop\n      jump\t// out\n        /* \"#utility.yul\":5764:6093   */\n    tag_72:\n        /* \"#utility.yul\":5823:5829   */\n      0x00\n        /* \"#utility.yul\":5872:5874   */\n      0x20\n        /* \"#utility.yul\":5860:5869   */\n      dup3\n        /* \"#utility.yul\":5851:5858   */\n      dup5\n        /* \"#utility.yul\":5847:5870   */\n      sub\n        /* \"#utility.yul\":5843:5875   */\n      slt\n        /* \"#utility.yul\":5840:5959   */\n      iszero\n      tag_535\n      jumpi\n        /* \"#utility.yul\":5878:5957   */\n      tag_536\n      tag_406\n      jump\t// in\n    tag_536:\n        /* \"#utility.yul\":5840:5959   */\n    tag_535:\n        /* \"#utility.yul\":5998:5999   */\n      0x00\n        /* \"#utility.yul\":6023:6076   */\n      tag_537\n        /* \"#utility.yul\":6068:6075   */\n      dup5\n        /* \"#utility.yul\":6059:6065   */\n      dup3\n        /* \"#utility.yul\":6048:6057   */\n      dup6\n        /* \"#utility.yul\":6044:6066   */\n      add\n        /* \"#utility.yul\":6023:6076   */\n      tag_428\n      jump\t// in\n    tag_537:\n        /* \"#utility.yul\":6013:6076   */\n      swap2\n      pop\n        /* \"#utility.yul\":5969:6086   */\n      pop\n        /* \"#utility.yul\":5764:6093   */\n      swap3\n      swap2\n      pop\n      pop\n      jump\t// out\n        /* \"#utility.yul\":6099:6217   */\n    tag_429:\n        /* \"#utility.yul\":6186:6210   */\n      tag_539\n        /* \"#utility.yul\":6204:6209   */\n      dup2\n        /* \"#utility.yul\":6186:6210   */\n      tag_426\n      jump\t// in\n    tag_539:\n        /* \"#utility.yul\":6181:6184   */\n      dup3\n        /* \"#utility.yul\":6174:6211   */\n      mstore\n        /* \"#utility.yul\":6099:6217   */\n      pop\n      pop\n      jump\t// out\n        /* \"#utility.yul\":6223:6445   */\n    tag_75:\n        /* \"#utility.yul\":6316:6320   */\n      0x00\n        /* \"#utility.yul\":6354:6356   */\n      0x20\n        /* \"#utility.yul\":6343:6352   */\n      dup3\n        /* \"#utility.yul\":6339:6357   */\n      add\n        /* \"#utility.yul\":6331:6357   */\n      swap1\n      pop\n        /* \"#utility.yul\":6367:6438   */\n      tag_541\n        /* \"#utility.yul\":6435:6436   */\n      0x00\n        /* \"#utility.yul\":6424:6433   */\n      dup4\n        /* \"#utility.yul\":6420:6437   */\n      add\n        /* \"#utility.yul\":6411:6417   */\n      dup5\n        /* \"#utility.yul\":6367:6438   */\n      tag_429\n      jump\t// in\n    tag_541:\n        /* \"#utility.yul\":6223:6445   */\n      swap3\n      swap2\n      pop\n      pop\n      jump\t// out\n        /* \"#utility.yul\":6451:6925   */\n    tag_81:\n        /* \"#utility.yul\":6519:6525   */\n      0x00\n        /* \"#utility.yul\":6527:6533   */\n      dup1\n        /* \"#utility.yul\":6576:6578   */\n      0x40\n        /* \"#utility.yul\":6564:6573   */\n      dup4\n        /* \"#utility.yul\":6555:6562   */\n      dup6\n        /* \"#utility.yul\":6551:6574   */\n      sub\n        /* \"#utility.yul\":6547:6579   */\n      slt\n        /* \"#utility.yul\":6544:6663   */\n      iszero\n      tag_543\n      jumpi\n        /* \"#utility.yul\":6582:6661   */\n      tag_544\n      tag_406\n      jump\t// in\n    tag_544:\n        /* \"#utility.yul\":6544:6663   */\n    tag_543:\n        /* \"#utility.yul\":6702:6703   */\n      0x00\n        /* \"#utility.yul\":6727:6780   */\n      tag_545\n        /* \"#utility.yul\":6772:6779   */\n      dup6\n        /* \"#utility.yul\":6763:6769   */\n      dup3\n        /* \"#utility.yul\":6752:6761   */\n      dup7\n        /* \"#utility.yul\":6748:6770   */\n      add\n        /* \"#utility.yul\":6727:6780   */\n      tag_428\n      jump\t// in\n    tag_545:\n        /* \"#utility.yul\":6717:6780   */\n      swap3\n      pop\n        /* \"#utility.yul\":6673:6790   */\n      pop\n        /* \"#utility.yul\":6829:6831   */\n      0x20\n        /* \"#utility.yul\":6855:6908   */\n      tag_546\n        /* \"#utility.yul\":6900:6907   */\n      dup6\n        /* \"#utility.yul\":6891:6897   */\n      dup3\n        /* \"#utility.yul\":6880:6889   */\n      dup7\n        /* \"#utility.yul\":6876:6898   */\n      add\n        /* \"#utility.yul\":6855:6908   */\n      tag_421\n      jump\t// in\n    tag_546:\n        /* \"#utility.yul\":6845:6908   */\n      swap2\n      pop\n        /* \"#utility.yul\":6800:6918   */\n      pop\n        /* \"#utility.yul\":6451:6925   */\n      swap3\n      pop\n      swap3\n      swap1\n      pop\n      jump\t// out\n        /* \"#utility.yul\":6931:7017   */\n    tag_430:\n        /* \"#utility.yul\":6966:6973   */\n      0x00\n        /* \"#utility.yul\":7006:7010   */\n      0xff\n        /* \"#utility.yul\":6999:7004   */\n      dup3\n        /* \"#utility.yul\":6995:7011   */\n      and\n        /* \"#utility.yul\":6984:7011   */\n      swap1\n      pop\n        /* \"#utility.yul\":6931:7017   */\n      swap2\n      swap1\n      pop\n      jump\t// out\n        /* \"#utility.yul\":7023:7135   */\n    tag_431:\n        /* \"#utility.yul\":7106:7128   */\n      tag_549\n        /* \"#utility.yul\":7122:7127   */\n      dup2\n        /* \"#utility.yul\":7106:7128   */\n      tag_430\n      jump\t// in\n    tag_549:\n        /* \"#utility.yul\":7101:7104   */\n      dup3\n        /* \"#utility.yul\":7094:7129   */\n      mstore\n        /* \"#utility.yul\":7023:7135   */\n      pop\n      pop\n      jump\t// out\n        /* \"#utility.yul\":7141:7355   */\n    tag_86:\n        /* \"#utility.yul\":7230:7234   */\n      0x00\n        /* \"#utility.yul\":7268:7270   */\n      0x20\n        /* \"#utility.yul\":7257:7266   */\n      dup3\n        /* \"#utility.yul\":7253:7271   */\n      add\n        /* \"#utility.yul\":7245:7271   */\n      swap1\n      pop\n        /* \"#utility.yul\":7281:7348   */\n      tag_551\n        /* \"#utility.yul\":7345:7346   */\n      0x00\n        /* \"#utility.yul\":7334:7343   */\n      dup4\n        /* \"#utility.yul\":7330:7347   */\n      add\n        /* \"#utility.yul\":7321:7327   */\n      dup5\n        /* \"#utility.yul\":7281:7348   */\n      tag_431\n      jump\t// in\n    tag_551:\n        /* \"#utility.yul\":7141:7355   */\n      swap3\n      swap2\n      pop\n      pop\n      jump\t// out\n        /* \"#utility.yul\":7361:7690   */\n    tag_100:\n        /* \"#utility.yul\":7420:7426   */\n      0x00\n        /* \"#utility.yul\":7469:7471   */\n      0x20\n        /* \"#utility.yul\":7457:7466   */\n      dup3\n        /* \"#utility.yul\":7448:7455   */\n      dup5\n        /* \"#utility.yul\":7444:7467   */\n      sub\n        /* \"#utility.yul\":7440:7472   */\n      slt\n        /* \"#utility.yul\":7437:7556   */\n      iszero\n      tag_553\n      jumpi\n        /* \"#utility.yul\":7475:7554   */\n      tag_554\n      tag_406\n      jump\t// in\n    tag_554:\n        /* \"#utility.yul\":7437:7556   */\n    tag_553:\n        /* \"#utility.yul\":7595:7596   */\n      0x00\n        /* \"#utility.yul\":7620:7673   */\n      tag_555\n        /* \"#utility.yul\":7665:7672   */\n      dup5\n        /* \"#utility.yul\":7656:7662   */\n      dup3\n        /* \"#utility.yul\":7645:7654   */\n      dup6\n        /* \"#utility.yul\":7641:7663   */\n      add\n        /* \"#utility.yul\":7620:7673   */\n      tag_421\n      jump\t// in\n    tag_555:\n        /* \"#utility.yul\":7610:7673   */\n      swap2\n      pop\n        /* \"#utility.yul\":7566:7683   */\n      pop\n        /* \"#utility.yul\":7361:7690   */\n      swap3\n      swap2\n      pop\n      pop\n      jump\t// out\n        /* \"#utility.yul\":7696:7813   */\n    tag_432:\n        /* \"#utility.yul\":7805:7806   */\n      0x00\n        /* \"#utility.yul\":7802:7803   */\n      dup1\n        /* \"#utility.yul\":7795:7807   */\n      revert\n        /* \"#utility.yul\":7819:7999   */\n    tag_433:\n        /* \"#utility.yul\":7867:7944   */\n      0x4e487b7100000000000000000000000000000000000000000000000000000000\n        /* \"#utility.yul\":7864:7865   */\n      0x00\n        /* \"#utility.yul\":7857:7945   */\n      mstore\n        /* \"#utility.yul\":7964:7968   */\n      0x41\n        /* \"#utility.yul\":7961:7962   */\n      0x04\n        /* \"#utility.yul\":7954:7969   */\n      mstore\n        /* \"#utility.yul\":7988:7992   */\n      0x24\n        /* \"#utility.yul\":7985:7986   */\n      0x00\n        /* \"#utility.yul\":7978:7993   */\n      revert\n        /* \"#utility.yul\":8005:8286   */\n    tag_434:\n        /* \"#utility.yul\":8088:8115   */\n      tag_559\n        /* \"#utility.yul\":8110:8114   */\n      dup3\n        /* \"#utility.yul\":8088:8115   */\n      tag_416\n      jump\t// in\n    tag_559:\n        /* \"#utility.yul\":8080:8086   */\n      dup2\n        /* \"#utility.yul\":8076:8116   */\n      add\n        /* \"#utility.yul\":8218:8224   */\n      dup2\n        /* \"#utility.yul\":8206:8216   */\n      dup2\n        /* \"#utility.yul\":8203:8225   */\n      lt\n        /* \"#utility.yul\":8182:8200   */\n      0xffffffffffffffff\n        /* \"#utility.yul\":8170:8180   */\n      dup3\n        /* \"#utility.yul\":8167:8201   */\n      gt\n        /* \"#utility.yul\":8164:8226   */\n      or\n        /* \"#utility.yul\":8161:8249   */\n      iszero\n      tag_560\n      jumpi\n        /* \"#utility.yul\":8229:8247   */\n      tag_561\n      tag_433\n      jump\t// in\n    tag_561:\n        /* \"#utility.yul\":8161:8249   */\n    tag_560:\n        /* \"#utility.yul\":8269:8279   */\n      dup1\n        /* \"#utility.yul\":8265:8267   */\n      0x40\n        /* \"#utility.yul\":8258:8280   */\n      mstore\n        /* \"#utility.yul\":8048:8286   */\n      pop\n        /* \"#utility.yul\":8005:8286   */\n      pop\n      pop\n      jump\t// out\n        /* \"#utility.yul\":8292:8421   */\n    tag_435:\n        /* \"#utility.yul\":8326:8332   */\n      0x00\n        /* \"#utility.yul\":8353:8373   */\n      tag_563\n      tag_405\n      jump\t// in\n    tag_563:\n        /* \"#utility.yul\":8343:8373   */\n      swap1\n      pop\n        /* \"#utility.yul\":8382:8415   */\n      tag_564\n        /* \"#utility.yul\":8410:8414   */\n      dup3\n        /* \"#utility.yul\":8402:8408   */\n      dup3\n        /* \"#utility.yul\":8382:8415   */\n      tag_434\n      jump\t// in\n    tag_564:\n        /* \"#utility.yul\":8292:8421   */\n      swap2\n      swap1\n      pop\n      jump\t// out\n        /* \"#utility.yul\":8427:8738   */\n    tag_436:\n        /* \"#utility.yul\":8504:8508   */\n      0x00\n        /* \"#utility.yul\":8594:8612   */\n      0xffffffffffffffff\n        /* \"#utility.yul\":8586:8592   */\n      dup3\n        /* \"#utility.yul\":8583:8613   */\n      gt\n        /* \"#utility.yul\":8580:8636   */\n      iszero\n      tag_566\n      jumpi\n        /* \"#utility.yul\":8616:8634   */\n      tag_567\n      tag_433\n      jump\t// in\n    tag_567:\n        /* \"#utility.yul\":8580:8636   */\n    tag_566:\n        /* \"#utility.yul\":8666:8670   */\n      0x20\n        /* \"#utility.yul\":8658:8664   */\n      dup3\n        /* \"#utility.yul\":8654:8671   */\n      mul\n        /* \"#utility.yul\":8646:8671   */\n      swap1\n      pop\n        /* \"#utility.yul\":8726:8730   */\n      0x20\n        /* \"#utility.yul\":8720:8724   */\n      dup2\n        /* \"#utility.yul\":8716:8731   */\n      add\n        /* \"#utility.yul\":8708:8731   */\n      swap1\n      pop\n        /* \"#utility.yul\":8427:8738   */\n      swap2\n      swap1\n      pop\n      jump\t// out\n        /* \"#utility.yul\":8744:8861   */\n    tag_437:\n        /* \"#utility.yul\":8853:8854   */\n      0x00\n        /* \"#utility.yul\":8850:8851   */\n      dup1\n        /* \"#utility.yul\":8843:8855   */\n      revert\n        /* \"#utility.yul\":8884:9594   */\n    tag_438:\n        /* \"#utility.yul\":8980:8985   */\n      0x00\n        /* \"#utility.yul\":9005:9086   */\n      tag_570\n        /* \"#utility.yul\":9021:9085   */\n      tag_571\n        /* \"#utility.yul\":9078:9084   */\n      dup5\n        /* \"#utility.yul\":9021:9085   */\n      tag_436\n      jump\t// in\n    tag_571:\n        /* \"#utility.yul\":9005:9086   */\n      tag_435\n      jump\t// in\n    tag_570:\n        /* \"#utility.yul\":8996:9086   */\n      swap1\n      pop\n        /* \"#utility.yul\":9106:9111   */\n      dup1\n        /* \"#utility.yul\":9135:9141   */\n      dup4\n        /* \"#utility.yul\":9128:9133   */\n      dup3\n        /* \"#utility.yul\":9121:9142   */\n      mstore\n        /* \"#utility.yul\":9169:9173   */\n      0x20\n        /* \"#utility.yul\":9162:9167   */\n      dup3\n        /* \"#utility.yul\":9158:9174   */\n      add\n        /* \"#utility.yul\":9151:9174   */\n      swap1\n      pop\n        /* \"#utility.yul\":9222:9226   */\n      0x20\n        /* \"#utility.yul\":9214:9220   */\n      dup5\n        /* \"#utility.yul\":9210:9227   */\n      mul\n        /* \"#utility.yul\":9202:9208   */\n      dup4\n        /* \"#utility.yul\":9198:9228   */\n      add\n        /* \"#utility.yul\":9251:9254   */\n      dup6\n        /* \"#utility.yul\":9243:9249   */\n      dup2\n        /* \"#utility.yul\":9240:9255   */\n      gt\n        /* \"#utility.yul\":9237:9359   */\n      iszero\n      tag_572\n      jumpi\n        /* \"#utility.yul\":9270:9349   */\n      tag_573\n      tag_437\n      jump\t// in\n    tag_573:\n        /* \"#utility.yul\":9237:9359   */\n    tag_572:\n        /* \"#utility.yul\":9385:9391   */\n      dup4\n        /* \"#utility.yul\":9368:9588   */\n    tag_574:\n        /* \"#utility.yul\":9402:9408   */\n      dup2\n        /* \"#utility.yul\":9397:9400   */\n      dup2\n        /* \"#utility.yul\":9394:9409   */\n      lt\n        /* \"#utility.yul\":9368:9588   */\n      iszero\n      tag_576\n      jumpi\n        /* \"#utility.yul\":9477:9480   */\n      dup1\n        /* \"#utility.yul\":9506:9543   */\n      tag_577\n        /* \"#utility.yul\":9539:9542   */\n      dup9\n        /* \"#utility.yul\":9527:9537   */\n      dup3\n        /* \"#utility.yul\":9506:9543   */\n      tag_421\n      jump\t// in\n    tag_577:\n        /* \"#utility.yul\":9501:9504   */\n      dup5\n        /* \"#utility.yul\":9494:9544   */\n      mstore\n        /* \"#utility.yul\":9573:9577   */\n      0x20\n        /* \"#utility.yul\":9568:9571   */\n      dup5\n        /* \"#utility.yul\":9564:9578   */\n      add\n        /* \"#utility.yul\":9557:9578   */\n      swap4\n      pop\n        /* \"#utility.yul\":9444:9588   */\n      pop\n        /* \"#utility.yul\":9428:9432   */\n      0x20\n        /* \"#utility.yul\":9423:9426   */\n      dup2\n        /* \"#utility.yul\":9419:9433   */\n      add\n        /* \"#utility.yul\":9412:9433   */\n      swap1\n      pop\n        /* \"#utility.yul\":9368:9588   */\n      jump(tag_574)\n    tag_576:\n        /* \"#utility.yul\":9372:9393   */\n      pop\n        /* \"#utility.yul\":8986:9594   */\n      pop\n      pop\n        /* \"#utility.yul\":8884:9594   */\n      swap4\n      swap3\n      pop\n      pop\n      pop\n      jump\t// out\n        /* \"#utility.yul\":9617:9987   */\n    tag_439:\n        /* \"#utility.yul\":9688:9693   */\n      0x00\n        /* \"#utility.yul\":9737:9740   */\n      dup3\n        /* \"#utility.yul\":9730:9734   */\n      0x1f\n        /* \"#utility.yul\":9722:9728   */\n      dup4\n        /* \"#utility.yul\":9718:9735   */\n      add\n        /* \"#utility.yul\":9714:9741   */\n      slt\n        /* \"#utility.yul\":9704:9826   */\n      tag_579\n      jumpi\n        /* \"#utility.yul\":9745:9824   */\n      tag_580\n      tag_432\n      jump\t// in\n    tag_580:\n        /* \"#utility.yul\":9704:9826   */\n    tag_579:\n        /* \"#utility.yul\":9862:9868   */\n      dup2\n        /* \"#utility.yul\":9849:9869   */\n      calldataload\n        /* \"#utility.yul\":9887:9981   */\n      tag_581\n        /* \"#utility.yul\":9977:9980   */\n      dup5\n        /* \"#utility.yul\":9969:9975   */\n      dup3\n        /* \"#utility.yul\":9962:9966   */\n      0x20\n        /* \"#utility.yul\":9954:9960   */\n      dup7\n        /* \"#utility.yul\":9950:9967   */\n      add\n        /* \"#utility.yul\":9887:9981   */\n      tag_438\n      jump\t// in\n    tag_581:\n        /* \"#utility.yul\":9878:9981   */\n      swap2\n      pop\n        /* \"#utility.yul\":9694:9987   */\n      pop\n        /* \"#utility.yul\":9617:9987   */\n      swap3\n      swap2\n      pop\n      pop\n      jump\t// out\n        /* \"#utility.yul\":9993:10304   */\n    tag_440:\n        /* \"#utility.yul\":10070:10074   */\n      0x00\n        /* \"#utility.yul\":10160:10178   */\n      0xffffffffffffffff\n        /* \"#utility.yul\":10152:10158   */\n      dup3\n        /* \"#utility.yul\":10149:10179   */\n      gt\n        /* \"#utility.yul\":10146:10202   */\n      iszero\n      tag_583\n      jumpi\n        /* \"#utility.yul\":10182:10200   */\n      tag_584\n      tag_433\n      jump\t// in\n    tag_584:\n        /* \"#utility.yul\":10146:10202   */\n    tag_583:\n        /* \"#utility.yul\":10232:10236   */\n      0x20\n        /* \"#utility.yul\":10224:10230   */\n      dup3\n        /* \"#utility.yul\":10220:10237   */\n      mul\n        /* \"#utility.yul\":10212:10237   */\n      swap1\n      pop\n        /* \"#utility.yul\":10292:10296   */\n      0x20\n        /* \"#utility.yul\":10286:10290   */\n      dup2\n        /* \"#utility.yul\":10282:10297   */\n      add\n        /* \"#utility.yul\":10274:10297   */\n      swap1\n      pop\n        /* \"#utility.yul\":9993:10304   */\n      swap2\n      swap1\n      pop\n      jump\t// out\n        /* \"#utility.yul\":10327:11037   */\n    tag_441:\n        /* \"#utility.yul\":10423:10428   */\n      0x00\n        /* \"#utility.yul\":10448:10529   */\n      tag_586\n        /* \"#utility.yul\":10464:10528   */\n      tag_587\n        /* \"#utility.yul\":10521:10527   */\n      dup5\n        /* \"#utility.yul\":10464:10528   */\n      tag_440\n      jump\t// in\n    tag_587:\n        /* \"#utility.yul\":10448:10529   */\n      tag_435\n      jump\t// in\n    tag_586:\n        /* \"#utility.yul\":10439:10529   */\n      swap1\n      pop\n        /* \"#utility.yul\":10549:10554   */\n      dup1\n        /* \"#utility.yul\":10578:10584   */\n      dup4\n        /* \"#utility.yul\":10571:10576   */\n      dup3\n        /* \"#utility.yul\":10564:10585   */\n      mstore\n        /* \"#utility.yul\":10612:10616   */\n      0x20\n        /* \"#utility.yul\":10605:10610   */\n      dup3\n        /* \"#utility.yul\":10601:10617   */\n      add\n        /* \"#utility.yul\":10594:10617   */\n      swap1\n      pop\n        /* \"#utility.yul\":10665:10669   */\n      0x20\n        /* \"#utility.yul\":10657:10663   */\n      dup5\n        /* \"#utility.yul\":10653:10670   */\n      mul\n        /* \"#utility.yul\":10645:10651   */\n      dup4\n        /* \"#utility.yul\":10641:10671   */\n      add\n        /* \"#utility.yul\":10694:10697   */\n      dup6\n        /* \"#utility.yul\":10686:10692   */\n      dup2\n        /* \"#utility.yul\":10683:10698   */\n      gt\n        /* \"#utility.yul\":10680:10802   */\n      iszero\n      tag_588\n      jumpi\n        /* \"#utility.yul\":10713:10792   */\n      tag_589\n      tag_437\n      jump\t// in\n    tag_589:\n        /* \"#utility.yul\":10680:10802   */\n    tag_588:\n        /* \"#utility.yul\":10828:10834   */\n      dup4\n        /* \"#utility.yul\":10811:11031   */\n    tag_590:\n        /* \"#utility.yul\":10845:10851   */\n      dup2\n        /* \"#utility.yul\":10840:10843   */\n      dup2\n        /* \"#utility.yul\":10837:10852   */\n      lt\n        /* \"#utility.yul\":10811:11031   */\n      iszero\n      tag_592\n      jumpi\n        /* \"#utility.yul\":10920:10923   */\n      dup1\n        /* \"#utility.yul\":10949:10986   */\n      tag_593\n        /* \"#utility.yul\":10982:10985   */\n      dup9\n        /* \"#utility.yul\":10970:10980   */\n      dup3\n        /* \"#utility.yul\":10949:10986   */\n      tag_424\n      jump\t// in\n    tag_593:\n        /* \"#utility.yul\":10944:10947   */\n      dup5\n        /* \"#utility.yul\":10937:10987   */\n      mstore\n        /* \"#utility.yul\":11016:11020   */\n      0x20\n        /* \"#utility.yul\":11011:11014   */\n      dup5\n        /* \"#utility.yul\":11007:11021   */\n      add\n        /* \"#utility.yul\":11000:11021   */\n      swap4\n      pop\n        /* \"#utility.yul\":10887:11031   */\n      pop\n        /* \"#utility.yul\":10871:10875   */\n      0x20\n        /* \"#utility.yul\":10866:10869   */\n      dup2\n        /* \"#utility.yul\":10862:10876   */\n      add\n        /* \"#utility.yul\":10855:10876   */\n      swap1\n      pop\n        /* \"#utility.yul\":10811:11031   */\n      jump(tag_590)\n    tag_592:\n        /* \"#utility.yul\":10815:10836   */\n      pop\n        /* \"#utility.yul\":10429:11037   */\n      pop\n      pop\n        /* \"#utility.yul\":10327:11037   */\n      swap4\n      swap3\n      pop\n      pop\n      pop\n      jump\t// out\n        /* \"#utility.yul\":11060:11430   */\n    tag_442:\n        /* \"#utility.yul\":11131:11136   */\n      0x00\n        /* \"#utility.yul\":11180:11183   */\n      dup3\n        /* \"#utility.yul\":11173:11177   */\n      0x1f\n        /* \"#utility.yul\":11165:11171   */\n      dup4\n        /* \"#utility.yul\":11161:11178   */\n      add\n        /* \"#utility.yul\":11157:11184   */\n      slt\n        /* \"#utility.yul\":11147:11269   */\n      tag_595\n      jumpi\n        /* \"#utility.yul\":11188:11267   */\n      tag_596\n      tag_432\n      jump\t// in\n    tag_596:\n        /* \"#utility.yul\":11147:11269   */\n    tag_595:\n        /* \"#utility.yul\":11305:11311   */\n      dup2\n        /* \"#utility.yul\":11292:11312   */\n      calldataload\n        /* \"#utility.yul\":11330:11424   */\n      tag_597\n        /* \"#utility.yul\":11420:11423   */\n      dup5\n        /* \"#utility.yul\":11412:11418   */\n      dup3\n        /* \"#utility.yul\":11405:11409   */\n      0x20\n        /* \"#utility.yul\":11397:11403   */\n      dup7\n        /* \"#utility.yul\":11393:11410   */\n      add\n        /* \"#utility.yul\":11330:11424   */\n      tag_441\n      jump\t// in\n    tag_597:\n        /* \"#utility.yul\":11321:11424   */\n      swap2\n      pop\n        /* \"#utility.yul\":11137:11430   */\n      pop\n        /* \"#utility.yul\":11060:11430   */\n      swap3\n      swap2\n      pop\n      pop\n      jump\t// out\n        /* \"#utility.yul\":11436:12330   */\n    tag_110:\n        /* \"#utility.yul\":11554:11560   */\n      0x00\n        /* \"#utility.yul\":11562:11568   */\n      dup1\n        /* \"#utility.yul\":11611:11613   */\n      0x40\n        /* \"#utility.yul\":11599:11608   */\n      dup4\n        /* \"#utility.yul\":11590:11597   */\n      dup6\n        /* \"#utility.yul\":11586:11609   */\n      sub\n        /* \"#utility.yul\":11582:11614   */\n      slt\n        /* \"#utility.yul\":11579:11698   */\n      iszero\n      tag_599\n      jumpi\n        /* \"#utility.yul\":11617:11696   */\n      tag_600\n      tag_406\n      jump\t// in\n    tag_600:\n        /* \"#utility.yul\":11579:11698   */\n    tag_599:\n        /* \"#utility.yul\":11765:11766   */\n      0x00\n        /* \"#utility.yul\":11754:11763   */\n      dup4\n        /* \"#utility.yul\":11750:11767   */\n      add\n        /* \"#utility.yul\":11737:11768   */\n      calldataload\n        /* \"#utility.yul\":11795:11813   */\n      0xffffffffffffffff\n        /* \"#utility.yul\":11787:11793   */\n      dup2\n        /* \"#utility.yul\":11784:11814   */\n      gt\n        /* \"#utility.yul\":11781:11898   */\n      iszero\n      tag_601\n      jumpi\n        /* \"#utility.yul\":11817:11896   */\n      tag_602\n      tag_407\n      jump\t// in\n    tag_602:\n        /* \"#utility.yul\":11781:11898   */\n    tag_601:\n        /* \"#utility.yul\":11922:12000   */\n      tag_603\n        /* \"#utility.yul\":11992:11999   */\n      dup6\n        /* \"#utility.yul\":11983:11989   */\n      dup3\n        /* \"#utility.yul\":11972:11981   */\n      dup7\n        /* \"#utility.yul\":11968:11990   */\n      add\n        /* \"#utility.yul\":11922:12000   */\n      tag_439\n      jump\t// in\n    tag_603:\n        /* \"#utility.yul\":11912:12000   */\n      swap3\n      pop\n        /* \"#utility.yul\":11708:12010   */\n      pop\n        /* \"#utility.yul\":12077:12079   */\n      0x20\n        /* \"#utility.yul\":12066:12075   */\n      dup4\n        /* \"#utility.yul\":12062:12080   */\n      add\n        /* \"#utility.yul\":12049:12081   */\n      calldataload\n        /* \"#utility.yul\":12108:12126   */\n      0xffffffffffffffff\n        /* \"#utility.yul\":12100:12106   */\n      dup2\n        /* \"#utility.yul\":12097:12127   */\n      gt\n        /* \"#utility.yul\":12094:12211   */\n      iszero\n      tag_604\n      jumpi\n        /* \"#utility.yul\":12130:12209   */\n      tag_605\n      tag_407\n      jump\t// in\n    tag_605:\n        /* \"#utility.yul\":12094:12211   */\n    tag_604:\n        /* \"#utility.yul\":12235:12313   */\n      tag_606\n        /* \"#utility.yul\":12305:12312   */\n      dup6\n        /* \"#utility.yul\":12296:12302   */\n      dup3\n        /* \"#utility.yul\":12285:12294   */\n      dup7\n        /* \"#utility.yul\":12281:12303   */\n      add\n        /* \"#utility.yul\":12235:12313   */\n      tag_442\n      jump\t// in\n    tag_606:\n        /* \"#utility.yul\":12225:12313   */\n      swap2\n      pop\n        /* \"#utility.yul\":12020:12323   */\n      pop\n        /* \"#utility.yul\":11436:12330   */\n      swap3\n      pop\n      swap3\n      swap1\n      pop\n      jump\t// out\n        /* \"#utility.yul\":12336:12454   */\n    tag_443:\n        /* \"#utility.yul\":12423:12447   */\n      tag_608\n        /* \"#utility.yul\":12441:12446   */\n      dup2\n        /* \"#utility.yul\":12423:12447   */\n      tag_419\n      jump\t// in\n    tag_608:\n        /* \"#utility.yul\":12418:12421   */\n      dup3\n        /* \"#utility.yul\":12411:12448   */\n      mstore\n        /* \"#utility.yul\":12336:12454   */\n      pop\n      pop\n      jump\t// out\n        /* \"#utility.yul\":12460:12682   */\n    tag_122:\n        /* \"#utility.yul\":12553:12557   */\n      0x00\n        /* \"#utility.yul\":12591:12593   */\n      0x20\n        /* \"#utility.yul\":12580:12589   */\n      dup3\n        /* \"#utility.yul\":12576:12594   */\n      add\n        /* \"#utility.yul\":12568:12594   */\n      swap1\n      pop\n        /* \"#utility.yul\":12604:12675   */\n      tag_610\n        /* \"#utility.yul\":12672:12673   */\n      0x00\n        /* \"#utility.yul\":12661:12670   */\n      dup4\n        /* \"#utility.yul\":12657:12674   */\n      add\n        /* \"#utility.yul\":12648:12654   */\n      dup5\n        /* \"#utility.yul\":12604:12675   */\n      tag_443\n      jump\t// in\n    tag_610:\n        /* \"#utility.yul\":12460:12682   */\n      swap3\n      swap2\n      pop\n      pop\n      jump\t// out\n        /* \"#utility.yul\":12688:13162   */\n    tag_146:\n        /* \"#utility.yul\":12756:12762   */\n      0x00\n        /* \"#utility.yul\":12764:12770   */\n      dup1\n        /* \"#utility.yul\":12813:12815   */\n      0x40\n        /* \"#utility.yul\":12801:12810   */\n      dup4\n        /* \"#utility.yul\":12792:12799   */\n      dup6\n        /* \"#utility.yul\":12788:12811   */\n      sub\n        /* \"#utility.yul\":12784:12816   */\n      slt\n        /* \"#utility.yul\":12781:12900   */\n      iszero\n      tag_612\n      jumpi\n        /* \"#utility.yul\":12819:12898   */\n      tag_613\n      tag_406\n      jump\t// in\n    tag_613:\n        /* \"#utility.yul\":12781:12900   */\n    tag_612:\n        /* \"#utility.yul\":12939:12940   */\n      0x00\n        /* \"#utility.yul\":12964:13017   */\n      tag_614\n        /* \"#utility.yul\":13009:13016   */\n      dup6\n        /* \"#utility.yul\":13000:13006   */\n      dup3\n        /* \"#utility.yul\":12989:12998   */\n      dup7\n        /* \"#utility.yul\":12985:13007   */\n      add\n        /* \"#utility.yul\":12964:13017   */\n      tag_421\n      jump\t// in\n    tag_614:\n        /* \"#utility.yul\":12954:13017   */\n      swap3\n      pop\n        /* \"#utility.yul\":12910:13027   */\n      pop\n        /* \"#utility.yul\":13066:13068   */\n      0x20\n        /* \"#utility.yul\":13092:13145   */\n      tag_615\n        /* \"#utility.yul\":13137:13144   */\n      dup6\n        /* \"#utility.yul\":13128:13134   */\n      dup3\n        /* \"#utility.yul\":13117:13126   */\n      dup7\n        /* \"#utility.yul\":13113:13135   */\n      add\n        /* \"#utility.yul\":13092:13145   */\n      tag_421\n      jump\t// in\n    tag_615:\n        /* \"#utility.yul\":13082:13145   */\n      swap2\n      pop\n        /* \"#utility.yul\":13037:13155   */\n      pop\n        /* \"#utility.yul\":12688:13162   */\n      swap3\n      pop\n      swap3\n      swap1\n      pop\n      jump\t// out\n        /* \"#utility.yul\":13168:13348   */\n    tag_444:\n        /* \"#utility.yul\":13216:13293   */\n      0x4e487b7100000000000000000000000000000000000000000000000000000000\n        /* \"#utility.yul\":13213:13214   */\n      0x00\n        /* \"#utility.yul\":13206:13294   */\n      mstore\n        /* \"#utility.yul\":13313:13317   */\n      0x22\n        /* \"#utility.yul\":13310:13311   */\n      0x04\n        /* \"#utility.yul\":13303:13318   */\n      mstore\n        /* \"#utility.yul\":13337:13341   */\n      0x24\n        /* \"#utility.yul\":13334:13335   */\n      0x00\n        /* \"#utility.yul\":13327:13342   */\n      revert\n        /* \"#utility.yul\":13354:13674   */\n    tag_164:\n        /* \"#utility.yul\":13398:13404   */\n      0x00\n        /* \"#utility.yul\":13435:13436   */\n      0x02\n        /* \"#utility.yul\":13429:13433   */\n      dup3\n        /* \"#utility.yul\":13425:13437   */\n      div\n        /* \"#utility.yul\":13415:13437   */\n      swap1\n      pop\n        /* \"#utility.yul\":13482:13483   */\n      0x01\n        /* \"#utility.yul\":13476:13480   */\n      dup3\n        /* \"#utility.yul\":13472:13484   */\n      and\n        /* \"#utility.yul\":13503:13521   */\n      dup1\n        /* \"#utility.yul\":13493:13574   */\n      tag_618\n      jumpi\n        /* \"#utility.yul\":13559:13563   */\n      0x7f\n        /* \"#utility.yul\":13551:13557   */\n      dup3\n        /* \"#utility.yul\":13547:13564   */\n      and\n        /* \"#utility.yul\":13537:13564   */\n      swap2\n      pop\n        /* \"#utility.yul\":13493:13574   */\n    tag_618:\n        /* \"#utility.yul\":13621:13623   */\n      0x20\n        /* \"#utility.yul\":13613:13619   */\n      dup3\n        /* \"#utility.yul\":13610:13624   */\n      lt\n        /* \"#utility.yul\":13590:13608   */\n      dup2\n        /* \"#utility.yul\":13587:13625   */\n      sub\n        /* \"#utility.yul\":13584:13668   */\n      tag_619\n      jumpi\n        /* \"#utility.yul\":13640:13658   */\n      tag_620\n      tag_444\n      jump\t// in\n    tag_620:\n        /* \"#utility.yul\":13584:13668   */\n    tag_619:\n        /* \"#utility.yul\":13405:13674   */\n      pop\n        /* \"#utility.yul\":13354:13674   */\n      swap2\n      swap1\n      pop\n      jump\t// out\n        /* \"#utility.yul\":13680:13860   */\n    tag_445:\n        /* \"#utility.yul\":13728:13805   */\n      0x4e487b7100000000000000000000000000000000000000000000000000000000\n        /* \"#utility.yul\":13725:13726   */\n      0x00\n        /* \"#utility.yul\":13718:13806   */\n      mstore\n        /* \"#utility.yul\":13825:13829   */\n      0x11\n        /* \"#utility.yul\":13822:13823   */\n      0x04\n        /* \"#utility.yul\":13815:13830   */\n      mstore\n        /* \"#utility.yul\":13849:13853   */\n      0x24\n        /* \"#utility.yul\":13846:13847   */\n      0x00\n        /* \"#utility.yul\":13839:13854   */\n      revert\n        /* \"#utility.yul\":13866:14276   */\n    tag_176:\n        /* \"#utility.yul\":13906:13913   */\n      0x00\n        /* \"#utility.yul\":13929:13949   */\n      tag_623\n        /* \"#utility.yul\":13947:13948   */\n      dup3\n        /* \"#utility.yul\":13929:13949   */\n      tag_422\n      jump\t// in\n    tag_623:\n        /* \"#utility.yul\":13924:13949   */\n      swap2\n      pop\n        /* \"#utility.yul\":13963:13983   */\n      tag_624\n        /* \"#utility.yul\":13981:13982   */\n      dup4\n        /* \"#utility.yul\":13963:13983   */\n      tag_422\n      jump\t// in\n    tag_624:\n        /* \"#utility.yul\":13958:13983   */\n      swap3\n      pop\n        /* \"#utility.yul\":14018:14019   */\n      dup3\n        /* \"#utility.yul\":14015:14016   */\n      dup3\n        /* \"#utility.yul\":14011:14020   */\n      mul\n        /* \"#utility.yul\":14040:14070   */\n      tag_625\n        /* \"#utility.yul\":14058:14069   */\n      dup2\n        /* \"#utility.yul\":14040:14070   */\n      tag_422\n      jump\t// in\n    tag_625:\n        /* \"#utility.yul\":14029:14070   */\n      swap2\n      pop\n        /* \"#utility.yul\":14219:14220   */\n      dup3\n        /* \"#utility.yul\":14210:14217   */\n      dup3\n        /* \"#utility.yul\":14206:14221   */\n      div\n        /* \"#utility.yul\":14203:14204   */\n      dup5\n        /* \"#utility.yul\":14200:14222   */\n      eq\n        /* \"#utility.yul\":14180:14181   */\n      dup4\n        /* \"#utility.yul\":14173:14182   */\n      iszero\n        /* \"#utility.yul\":14153:14236   */\n      or\n        /* \"#utility.yul\":14130:14269   */\n      tag_626\n      jumpi\n        /* \"#utility.yul\":14249:14267   */\n      tag_627\n      tag_445\n      jump\t// in\n    tag_627:\n        /* \"#utility.yul\":14130:14269   */\n    tag_626:\n        /* \"#utility.yul\":13914:14276   */\n      pop\n        /* \"#utility.yul\":13866:14276   */\n      swap3\n      swap2\n      pop\n      pop\n      jump\t// out\n        /* \"#utility.yul\":14282:14724   */\n    tag_178:\n        /* \"#utility.yul\":14431:14435   */\n      0x00\n        /* \"#utility.yul\":14469:14471   */\n      0x60\n        /* \"#utility.yul\":14458:14467   */\n      dup3\n        /* \"#utility.yul\":14454:14472   */\n      add\n        /* \"#utility.yul\":14446:14472   */\n      swap1\n      pop\n        /* \"#utility.yul\":14482:14553   */\n      tag_629\n        /* \"#utility.yul\":14550:14551   */\n      0x00\n        /* \"#utility.yul\":14539:14548   */\n      dup4\n        /* \"#utility.yul\":14535:14552   */\n      add\n        /* \"#utility.yul\":14526:14532   */\n      dup7\n        /* \"#utility.yul\":14482:14553   */\n      tag_443\n      jump\t// in\n    tag_629:\n        /* \"#utility.yul\":14563:14635   */\n      tag_630\n        /* \"#utility.yul\":14631:14633   */\n      0x20\n        /* \"#utility.yul\":14620:14629   */\n      dup4\n        /* \"#utility.yul\":14616:14634   */\n      add\n        /* \"#utility.yul\":14607:14613   */\n      dup6\n        /* \"#utility.yul\":14563:14635   */\n      tag_443\n      jump\t// in\n    tag_630:\n        /* \"#utility.yul\":14645:14717   */\n      tag_631\n        /* \"#utility.yul\":14713:14715   */\n      0x40\n        /* \"#utility.yul\":14702:14711   */\n      dup4\n        /* \"#utility.yul\":14698:14716   */\n      add\n        /* \"#utility.yul\":14689:14695   */\n      dup5\n        /* \"#utility.yul\":14645:14717   */\n      tag_425\n      jump\t// in\n    tag_631:\n        /* \"#utility.yul\":14282:14724   */\n      swap5\n      swap4\n      pop\n      pop\n      pop\n      pop\n      jump\t// out\n        /* \"#utility.yul\":14730:14846   */\n    tag_446:\n        /* \"#utility.yul\":14800:14821   */\n      tag_633\n        /* \"#utility.yul\":14815:14820   */\n      dup2\n        /* \"#utility.yul\":14800:14821   */\n      tag_411\n      jump\t// in\n    tag_633:\n        /* \"#utility.yul\":14793:14798   */\n      dup2\n        /* \"#utility.yul\":14790:14822   */\n      eq\n        /* \"#utility.yul\":14780:14840   */\n      tag_634\n      jumpi\n        /* \"#utility.yul\":14836:14837   */\n      0x00\n        /* \"#utility.yul\":14833:14834   */\n      dup1\n        /* \"#utility.yul\":14826:14838   */\n      revert\n        /* \"#utility.yul\":14780:14840   */\n    tag_634:\n        /* \"#utility.yul\":14730:14846   */\n      pop\n      jump\t// out\n        /* \"#utility.yul\":14852:14989   */\n    tag_447:\n        /* \"#utility.yul\":14906:14911   */\n      0x00\n        /* \"#utility.yul\":14937:14943   */\n      dup2\n        /* \"#utility.yul\":14931:14944   */\n      mload\n        /* \"#utility.yul\":14922:14944   */\n      swap1\n      pop\n        /* \"#utility.yul\":14953:14983   */\n      tag_636\n        /* \"#utility.yul\":14977:14982   */\n      dup2\n        /* \"#utility.yul\":14953:14983   */\n      tag_446\n      jump\t// in\n    tag_636:\n        /* \"#utility.yul\":14852:14989   */\n      swap3\n      swap2\n      pop\n      pop\n      jump\t// out\n        /* \"#utility.yul\":14995:15340   */\n    tag_182:\n        /* \"#utility.yul\":15062:15068   */\n      0x00\n        /* \"#utility.yul\":15111:15113   */\n      0x20\n        /* \"#utility.yul\":15099:15108   */\n      dup3\n        /* \"#utility.yul\":15090:15097   */\n      dup5\n        /* \"#utility.yul\":15086:15109   */\n      sub\n        /* \"#utility.yul\":15082:15114   */\n      slt\n        /* \"#utility.yul\":15079:15198   */\n      iszero\n      tag_638\n      jumpi\n        /* \"#utility.yul\":15117:15196   */\n      tag_639\n      tag_406\n      jump\t// in\n    tag_639:\n        /* \"#utility.yul\":15079:15198   */\n    tag_638:\n        /* \"#utility.yul\":15237:15238   */\n      0x00\n        /* \"#utility.yul\":15262:15323   */\n      tag_640\n        /* \"#utility.yul\":15315:15322   */\n      dup5\n        /* \"#utility.yul\":15306:15312   */\n      dup3\n        /* \"#utility.yul\":15295:15304   */\n      dup6\n        /* \"#utility.yul\":15291:15313   */\n      add\n        /* \"#utility.yul\":15262:15323   */\n      tag_447\n      jump\t// in\n    tag_640:\n        /* \"#utility.yul\":15252:15323   */\n      swap2\n      pop\n        /* \"#utility.yul\":15208:15333   */\n      pop\n        /* \"#utility.yul\":14995:15340   */\n      swap3\n      swap2\n      pop\n      pop\n      jump\t// out\n        /* \"#utility.yul\":15346:15523   */\n    tag_448:\n        /* \"#utility.yul\":15486:15515   */\n      0x537461626c6520636f696e207472616e73666572206661696c65640000000000\n        /* \"#utility.yul\":15482:15483   */\n      0x00\n        /* \"#utility.yul\":15474:15480   */\n      dup3\n        /* \"#utility.yul\":15470:15484   */\n      add\n        /* \"#utility.yul\":15463:15516   */\n      mstore\n        /* \"#utility.yul\":15346:15523   */\n      pop\n      jump\t// out\n        /* \"#utility.yul\":15529:15895   */\n    tag_449:\n        /* \"#utility.yul\":15671:15674   */\n      0x00\n        /* \"#utility.yul\":15692:15759   */\n      tag_643\n        /* \"#utility.yul\":15756:15758   */\n      0x1b\n        /* \"#utility.yul\":15751:15754   */\n      dup4\n        /* \"#utility.yul\":15692:15759   */\n      tag_414\n      jump\t// in\n    tag_643:\n        /* \"#utility.yul\":15685:15759   */\n      swap2\n      pop\n        /* \"#utility.yul\":15768:15861   */\n      tag_644\n        /* \"#utility.yul\":15857:15860   */\n      dup3\n        /* \"#utility.yul\":15768:15861   */\n      tag_448\n      jump\t// in\n    tag_644:\n        /* \"#utility.yul\":15886:15888   */\n      0x20\n        /* \"#utility.yul\":15881:15884   */\n      dup3\n        /* \"#utility.yul\":15877:15889   */\n      add\n        /* \"#utility.yul\":15870:15889   */\n      swap1\n      pop\n        /* \"#utility.yul\":15529:15895   */\n      swap2\n      swap1\n      pop\n      jump\t// out\n        /* \"#utility.yul\":15901:16320   */\n    tag_185:\n        /* \"#utility.yul\":16067:16071   */\n      0x00\n        /* \"#utility.yul\":16105:16107   */\n      0x20\n        /* \"#utility.yul\":16094:16103   */\n      dup3\n        /* \"#utility.yul\":16090:16108   */\n      add\n        /* \"#utility.yul\":16082:16108   */\n      swap1\n      pop\n        /* \"#utility.yul\":16154:16163   */\n      dup2\n        /* \"#utility.yul\":16148:16152   */\n      dup2\n        /* \"#utility.yul\":16144:16164   */\n      sub\n        /* \"#utility.yul\":16140:16141   */\n      0x00\n        /* \"#utility.yul\":16129:16138   */\n      dup4\n        /* \"#utility.yul\":16125:16142   */\n      add\n        /* \"#utility.yul\":16118:16165   */\n      mstore\n        /* \"#utility.yul\":16182:16313   */\n      tag_646\n        /* \"#utility.yul\":16308:16312   */\n      dup2\n        /* \"#utility.yul\":16182:16313   */\n      tag_449\n      jump\t// in\n    tag_646:\n        /* \"#utility.yul\":16174:16313   */\n      swap1\n      pop\n        /* \"#utility.yul\":15901:16320   */\n      swap2\n      swap1\n      pop\n      jump\t// out\n        /* \"#utility.yul\":16326:16658   */\n    tag_187:\n        /* \"#utility.yul\":16447:16451   */\n      0x00\n        /* \"#utility.yul\":16485:16487   */\n      0x40\n        /* \"#utility.yul\":16474:16483   */\n      dup3\n        /* \"#utility.yul\":16470:16488   */\n      add\n        /* \"#utility.yul\":16462:16488   */\n      swap1\n      pop\n        /* \"#utility.yul\":16498:16569   */\n      tag_648\n        /* \"#utility.yul\":16566:16567   */\n      0x00\n        /* \"#utility.yul\":16555:16564   */\n      dup4\n        /* \"#utility.yul\":16551:16568   */\n      add\n        /* \"#utility.yul\":16542:16548   */\n      dup6\n        /* \"#utility.yul\":16498:16569   */\n      tag_443\n      jump\t// in\n    tag_648:\n        /* \"#utility.yul\":16579:16651   */\n      tag_649\n        /* \"#utility.yul\":16647:16649   */\n      0x20\n        /* \"#utility.yul\":16636:16645   */\n      dup4\n        /* \"#utility.yul\":16632:16650   */\n      add\n        /* \"#utility.yul\":16623:16629   */\n      dup5\n        /* \"#utility.yul\":16579:16651   */\n      tag_425\n      jump\t// in\n    tag_649:\n        /* \"#utility.yul\":16326:16658   */\n      swap4\n      swap3\n      pop\n      pop\n      pop\n      jump\t// out\n        /* \"#utility.yul\":16664:16840   */\n    tag_450:\n        /* \"#utility.yul\":16804:16832   */\n      0x426f6e6420746f6b656e207472616e73666572206661696c6564000000000000\n        /* \"#utility.yul\":16800:16801   */\n      0x00\n        /* \"#utility.yul\":16792:16798   */\n      dup3\n        /* \"#utility.yul\":16788:16802   */\n      add\n        /* \"#utility.yul\":16781:16833   */\n      mstore\n        /* \"#utility.yul\":16664:16840   */\n      pop\n      jump\t// out\n        /* \"#utility.yul\":16846:17212   */\n    tag_451:\n        /* \"#utility.yul\":16988:16991   */\n      0x00\n        /* \"#utility.yul\":17009:17076   */\n      tag_652\n        /* \"#utility.yul\":17073:17075   */\n      0x1a\n        /* \"#utility.yul\":17068:17071   */\n      dup4\n        /* \"#utility.yul\":17009:17076   */\n      tag_414\n      jump\t// in\n    tag_652:\n        /* \"#utility.yul\":17002:17076   */\n      swap2\n      pop\n        /* \"#utility.yul\":17085:17178   */\n      tag_653\n        /* \"#utility.yul\":17174:17177   */\n      dup3\n        /* \"#utility.yul\":17085:17178   */\n      tag_450\n      jump\t// in\n    tag_653:\n        /* \"#utility.yul\":17203:17205   */\n      0x20\n        /* \"#utility.yul\":17198:17201   */\n      dup3\n        /* \"#utility.yul\":17194:17206   */\n      add\n        /* \"#utility.yul\":17187:17206   */\n      swap1\n      pop\n        /* \"#utility.yul\":16846:17212   */\n      swap2\n      swap1\n      pop\n      jump\t// out\n        /* \"#utility.yul\":17218:17637   */\n    tag_193:\n        /* \"#utility.yul\":17384:17388   */\n      0x00\n        /* \"#utility.yul\":17422:17424   */\n      0x20\n        /* \"#utility.yul\":17411:17420   */\n      dup3\n        /* \"#utility.yul\":17407:17425   */\n      add\n        /* \"#utility.yul\":17399:17425   */\n      swap1\n      pop\n        /* \"#utility.yul\":17471:17480   */\n      dup2\n        /* \"#utility.yul\":17465:17469   */\n      dup2\n        /* \"#utility.yul\":17461:17481   */\n      sub\n        /* \"#utility.yul\":17457:17458   */\n      0x00\n        /* \"#utility.yul\":17446:17455   */\n      dup4\n        /* \"#utility.yul\":17442:17459   */\n      add\n        /* \"#utility.yul\":17435:17482   */\n      mstore\n        /* \"#utility.yul\":17499:17630   */\n      tag_655\n        /* \"#utility.yul\":17625:17629   */\n      dup2\n        /* \"#utility.yul\":17499:17630   */\n      tag_451\n      jump\t// in\n    tag_655:\n        /* \"#utility.yul\":17491:17630   */\n      swap1\n      pop\n        /* \"#utility.yul\":17218:17637   */\n      swap2\n      swap1\n      pop\n      jump\t// out\n        /* \"#utility.yul\":17643:17871   */\n    tag_452:\n        /* \"#utility.yul\":17783:17817   */\n      0x546f6b656e20686f6c6465727320616e6420616d6f756e7473206c656e677468\n        /* \"#utility.yul\":17779:17780   */\n      0x00\n        /* \"#utility.yul\":17771:17777   */\n      dup3\n        /* \"#utility.yul\":17767:17781   */\n      add\n        /* \"#utility.yul\":17760:17818   */\n      mstore\n        /* \"#utility.yul\":17852:17863   */\n      0x206d69736d617463680000000000000000000000000000000000000000000000\n        /* \"#utility.yul\":17847:17849   */\n      0x20\n        /* \"#utility.yul\":17839:17845   */\n      dup3\n        /* \"#utility.yul\":17835:17850   */\n      add\n        /* \"#utility.yul\":17828:17864   */\n      mstore\n        /* \"#utility.yul\":17643:17871   */\n      pop\n      jump\t// out\n        /* \"#utility.yul\":17877:18243   */\n    tag_453:\n        /* \"#utility.yul\":18019:18022   */\n      0x00\n        /* \"#utility.yul\":18040:18107   */\n      tag_658\n        /* \"#utility.yul\":18104:18106   */\n      0x29\n        /* \"#utility.yul\":18099:18102   */\n      dup4\n        /* \"#utility.yul\":18040:18107   */\n      tag_414\n      jump\t// in\n    tag_658:\n        /* \"#utility.yul\":18033:18107   */\n      swap2\n      pop\n        /* \"#utility.yul\":18116:18209   */\n      tag_659\n        /* \"#utility.yul\":18205:18208   */\n      dup3\n        /* \"#utility.yul\":18116:18209   */\n      tag_452\n      jump\t// in\n    tag_659:\n        /* \"#utility.yul\":18234:18236   */\n      0x40\n        /* \"#utility.yul\":18229:18232   */\n      dup3\n        /* \"#utility.yul\":18225:18237   */\n      add\n        /* \"#utility.yul\":18218:18237   */\n      swap1\n      pop\n        /* \"#utility.yul\":17877:18243   */\n      swap2\n      swap1\n      pop\n      jump\t// out\n        /* \"#utility.yul\":18249:18668   */\n    tag_240:\n        /* \"#utility.yul\":18415:18419   */\n      0x00\n        /* \"#utility.yul\":18453:18455   */\n      0x20\n        /* \"#utility.yul\":18442:18451   */\n      dup3\n        /* \"#utility.yul\":18438:18456   */\n      add\n        /* \"#utility.yul\":18430:18456   */\n      swap1\n      pop\n        /* \"#utility.yul\":18502:18511   */\n      dup2\n        /* \"#utility.yul\":18496:18500   */\n      dup2\n        /* \"#utility.yul\":18492:18512   */\n      sub\n        /* \"#utility.yul\":18488:18489   */\n      0x00\n        /* \"#utility.yul\":18477:18486   */\n      dup4\n        /* \"#utility.yul\":18473:18490   */\n      add\n        /* \"#utility.yul\":18466:18513   */\n      mstore\n        /* \"#utility.yul\":18530:18661   */\n      tag_661\n        /* \"#utility.yul\":18656:18660   */\n      dup2\n        /* \"#utility.yul\":18530:18661   */\n      tag_453\n      jump\t// in\n    tag_661:\n        /* \"#utility.yul\":18522:18661   */\n      swap1\n      pop\n        /* \"#utility.yul\":18249:18668   */\n      swap2\n      swap1\n      pop\n      jump\t// out\n        /* \"#utility.yul\":18674:18854   */\n    tag_246:\n        /* \"#utility.yul\":18722:18799   */\n      0x4e487b7100000000000000000000000000000000000000000000000000000000\n        /* \"#utility.yul\":18719:18720   */\n      0x00\n        /* \"#utility.yul\":18712:18800   */\n      mstore\n        /* \"#utility.yul\":18819:18823   */\n      0x32\n        /* \"#utility.yul\":18816:18817   */\n      0x04\n        /* \"#utility.yul\":18809:18824   */\n      mstore\n        /* \"#utility.yul\":18843:18847   */\n      0x24\n        /* \"#utility.yul\":18840:18841   */\n      0x00\n        /* \"#utility.yul\":18833:18848   */\n      revert\n        /* \"#utility.yul\":18860:19025   */\n    tag_454:\n        /* \"#utility.yul\":19000:19017   */\n      0x5472616e73666572206661696c65640000000000000000000000000000000000\n        /* \"#utility.yul\":18996:18997   */\n      0x00\n        /* \"#utility.yul\":18988:18994   */\n      dup3\n        /* \"#utility.yul\":18984:18998   */\n      add\n        /* \"#utility.yul\":18977:19018   */\n      mstore\n        /* \"#utility.yul\":18860:19025   */\n      pop\n      jump\t// out\n        /* \"#utility.yul\":19031:19397   */\n    tag_455:\n        /* \"#utility.yul\":19173:19176   */\n      0x00\n        /* \"#utility.yul\":19194:19261   */\n      tag_665\n        /* \"#utility.yul\":19258:19260   */\n      0x0f\n        /* \"#utility.yul\":19253:19256   */\n      dup4\n        /* \"#utility.yul\":19194:19261   */\n      tag_414\n      jump\t// in\n    tag_665:\n        /* \"#utility.yul\":19187:19261   */\n      swap2\n      pop\n        /* \"#utility.yul\":19270:19363   */\n      tag_666\n        /* \"#utility.yul\":19359:19362   */\n      dup3\n        /* \"#utility.yul\":19270:19363   */\n      tag_454\n      jump\t// in\n    tag_666:\n        /* \"#utility.yul\":19388:19390   */\n      0x20\n        /* \"#utility.yul\":19383:19386   */\n      dup3\n        /* \"#utility.yul\":19379:19391   */\n      add\n        /* \"#utility.yul\":19372:19391   */\n      swap1\n      pop\n        /* \"#utility.yul\":19031:19397   */\n      swap2\n      swap1\n      pop\n      jump\t// out\n        /* \"#utility.yul\":19403:19822   */\n    tag_255:\n        /* \"#utility.yul\":19569:19573   */\n      0x00\n        /* \"#utility.yul\":19607:19609   */\n      0x20\n        /* \"#utility.yul\":19596:19605   */\n      dup3\n        /* \"#utility.yul\":19592:19610   */\n      add\n        /* \"#utility.yul\":19584:19610   */\n      swap1\n      pop\n        /* \"#utility.yul\":19656:19665   */\n      dup2\n        /* \"#utility.yul\":19650:19654   */\n      dup2\n        /* \"#utility.yul\":19646:19666   */\n      sub\n        /* \"#utility.yul\":19642:19643   */\n      0x00\n        /* \"#utility.yul\":19631:19640   */\n      dup4\n        /* \"#utility.yul\":19627:19644   */\n      add\n        /* \"#utility.yul\":19620:19667   */\n      mstore\n        /* \"#utility.yul\":19684:19815   */\n      tag_668\n        /* \"#utility.yul\":19810:19814   */\n      dup2\n        /* \"#utility.yul\":19684:19815   */\n      tag_455\n      jump\t// in\n    tag_668:\n        /* \"#utility.yul\":19676:19815   */\n      swap1\n      pop\n        /* \"#utility.yul\":19403:19822   */\n      swap2\n      swap1\n      pop\n      jump\t// out\n        /* \"#utility.yul\":19828:20002   */\n    tag_456:\n        /* \"#utility.yul\":19968:19994   */\n      0x4d61747572697479206e6f742079657420726561636865640000000000000000\n        /* \"#utility.yul\":19964:19965   */\n      0x00\n        /* \"#utility.yul\":19956:19962   */\n      dup3\n        /* \"#utility.yul\":19952:19966   */\n      add\n        /* \"#utility.yul\":19945:19995   */\n      mstore\n        /* \"#utility.yul\":19828:20002   */\n      pop\n      jump\t// out\n        /* \"#utility.yul\":20008:20374   */\n    tag_457:\n        /* \"#utility.yul\":20150:20153   */\n      0x00\n        /* \"#utility.yul\":20171:20238   */\n      tag_671\n        /* \"#utility.yul\":20235:20237   */\n      0x18\n        /* \"#utility.yul\":20230:20233   */\n      dup4\n        /* \"#utility.yul\":20171:20238   */\n      tag_414\n      jump\t// in\n    tag_671:\n        /* \"#utility.yul\":20164:20238   */\n      swap2\n      pop\n        /* \"#utility.yul\":20247:20340   */\n      tag_672\n        /* \"#utility.yul\":20336:20339   */\n      dup3\n        /* \"#utility.yul\":20247:20340   */\n      tag_456\n      jump\t// in\n    tag_672:\n        /* \"#utility.yul\":20365:20367   */\n      0x20\n        /* \"#utility.yul\":20360:20363   */\n      dup3\n        /* \"#utility.yul\":20356:20368   */\n      add\n        /* \"#utility.yul\":20349:20368   */\n      swap1\n      pop\n        /* \"#utility.yul\":20008:20374   */\n      swap2\n      swap1\n      pop\n      jump\t// out\n        /* \"#utility.yul\":20380:20799   */\n    tag_269:\n        /* \"#utility.yul\":20546:20550   */\n      0x00\n        /* \"#utility.yul\":20584:20586   */\n      0x20\n        /* \"#utility.yul\":20573:20582   */\n      dup3\n        /* \"#utility.yul\":20569:20587   */\n      add\n        /* \"#utility.yul\":20561:20587   */\n      swap1\n      pop\n        /* \"#utility.yul\":20633:20642   */\n      dup2\n        /* \"#utility.yul\":20627:20631   */\n      dup2\n        /* \"#utility.yul\":20623:20643   */\n      sub\n        /* \"#utility.yul\":20619:20620   */\n      0x00\n        /* \"#utility.yul\":20608:20617   */\n      dup4\n        /* \"#utility.yul\":20604:20621   */\n      add\n        /* \"#utility.yul\":20597:20644   */\n      mstore\n        /* \"#utility.yul\":20661:20792   */\n      tag_674\n        /* \"#utility.yul\":20787:20791   */\n      dup2\n        /* \"#utility.yul\":20661:20792   */\n      tag_457\n      jump\t// in\n    tag_674:\n        /* \"#utility.yul\":20653:20792   */\n      swap1\n      pop\n        /* \"#utility.yul\":20380:20799   */\n      swap2\n      swap1\n      pop\n      jump\t// out\n        /* \"#utility.yul\":20805:20977   */\n    tag_458:\n        /* \"#utility.yul\":20945:20969   */\n      0x43616e277420636c61696d207a65726f20636f696e7300000000000000000000\n        /* \"#utility.yul\":20941:20942   */\n      0x00\n        /* \"#utility.yul\":20933:20939   */\n      dup3\n        /* \"#utility.yul\":20929:20943   */\n      add\n        /* \"#utility.yul\":20922:20970   */\n      mstore\n        /* \"#utility.yul\":20805:20977   */\n      pop\n      jump\t// out\n        /* \"#utility.yul\":20983:21349   */\n    tag_459:\n        /* \"#utility.yul\":21125:21128   */\n      0x00\n        /* \"#utility.yul\":21146:21213   */\n      tag_677\n        /* \"#utility.yul\":21210:21212   */\n      0x16\n        /* \"#utility.yul\":21205:21208   */\n      dup4\n        /* \"#utility.yul\":21146:21213   */\n      tag_414\n      jump\t// in\n    tag_677:\n        /* \"#utility.yul\":21139:21213   */\n      swap2\n      pop\n        /* \"#utility.yul\":21222:21315   */\n      tag_678\n        /* \"#utility.yul\":21311:21314   */\n      dup3\n        /* \"#utility.yul\":21222:21315   */\n      tag_458\n      jump\t// in\n    tag_678:\n        /* \"#utility.yul\":21340:21342   */\n      0x20\n        /* \"#utility.yul\":21335:21338   */\n      dup3\n        /* \"#utility.yul\":21331:21343   */\n      add\n        /* \"#utility.yul\":21324:21343   */\n      swap1\n      pop\n        /* \"#utility.yul\":20983:21349   */\n      swap2\n      swap1\n      pop\n      jump\t// out\n        /* \"#utility.yul\":21355:21774   */\n    tag_272:\n        /* \"#utility.yul\":21521:21525   */\n      0x00\n        /* \"#utility.yul\":21559:21561   */\n      0x20\n        /* \"#utility.yul\":21548:21557   */\n      dup3\n        /* \"#utility.yul\":21544:21562   */\n      add\n        /* \"#utility.yul\":21536:21562   */\n      swap1\n      pop\n        /* \"#utility.yul\":21608:21617   */\n      dup2\n        /* \"#utility.yul\":21602:21606   */\n      dup2\n        /* \"#utility.yul\":21598:21618   */\n      sub\n        /* \"#utility.yul\":21594:21595   */\n      0x00\n        /* \"#utility.yul\":21583:21592   */\n      dup4\n        /* \"#utility.yul\":21579:21596   */\n      add\n        /* \"#utility.yul\":21572:21619   */\n      mstore\n        /* \"#utility.yul\":21636:21767   */\n      tag_680\n        /* \"#utility.yul\":21762:21766   */\n      dup2\n        /* \"#utility.yul\":21636:21767   */\n      tag_459\n      jump\t// in\n    tag_680:\n        /* \"#utility.yul\":21628:21767   */\n      swap1\n      pop\n        /* \"#utility.yul\":21355:21774   */\n      swap2\n      swap1\n      pop\n      jump\t// out\n        /* \"#utility.yul\":21780:21923   */\n    tag_460:\n        /* \"#utility.yul\":21837:21842   */\n      0x00\n        /* \"#utility.yul\":21868:21874   */\n      dup2\n        /* \"#utility.yul\":21862:21875   */\n      mload\n        /* \"#utility.yul\":21853:21875   */\n      swap1\n      pop\n        /* \"#utility.yul\":21884:21917   */\n      tag_682\n        /* \"#utility.yul\":21911:21916   */\n      dup2\n        /* \"#utility.yul\":21884:21917   */\n      tag_423\n      jump\t// in\n    tag_682:\n        /* \"#utility.yul\":21780:21923   */\n      swap3\n      swap2\n      pop\n      pop\n      jump\t// out\n        /* \"#utility.yul\":21929:22280   */\n    tag_294:\n        /* \"#utility.yul\":21999:22005   */\n      0x00\n        /* \"#utility.yul\":22048:22050   */\n      0x20\n        /* \"#utility.yul\":22036:22045   */\n      dup3\n        /* \"#utility.yul\":22027:22034   */\n      dup5\n        /* \"#utility.yul\":22023:22046   */\n      sub\n        /* \"#utility.yul\":22019:22051   */\n      slt\n        /* \"#utility.yul\":22016:22135   */\n      iszero\n      tag_684\n      jumpi\n        /* \"#utility.yul\":22054:22133   */\n      tag_685\n      tag_406\n      jump\t// in\n    tag_685:\n        /* \"#utility.yul\":22016:22135   */\n    tag_684:\n        /* \"#utility.yul\":22174:22175   */\n      0x00\n        /* \"#utility.yul\":22199:22263   */\n      tag_686\n        /* \"#utility.yul\":22255:22262   */\n      dup5\n        /* \"#utility.yul\":22246:22252   */\n      dup3\n        /* \"#utility.yul\":22235:22244   */\n      dup6\n        /* \"#utility.yul\":22231:22253   */\n      add\n        /* \"#utility.yul\":22199:22263   */\n      tag_460\n      jump\t// in\n    tag_686:\n        /* \"#utility.yul\":22189:22263   */\n      swap2\n      pop\n        /* \"#utility.yul\":22145:22273   */\n      pop\n        /* \"#utility.yul\":21929:22280   */\n      swap3\n      swap2\n      pop\n      pop\n      jump\t// out\n        /* \"#utility.yul\":22286:22464   */\n    tag_461:\n        /* \"#utility.yul\":22426:22456   */\n      0x4e6f20696e766573746f722066756e647320617661696c61626c652e00000000\n        /* \"#utility.yul\":22422:22423   */\n      0x00\n        /* \"#utility.yul\":22414:22420   */\n      dup3\n        /* \"#utility.yul\":22410:22424   */\n      add\n        /* \"#utility.yul\":22403:22457   */\n      mstore\n        /* \"#utility.yul\":22286:22464   */\n      pop\n      jump\t// out\n        /* \"#utility.yul\":22470:22836   */\n    tag_462:\n        /* \"#utility.yul\":22612:22615   */\n      0x00\n        /* \"#utility.yul\":22633:22700   */\n      tag_689\n        /* \"#utility.yul\":22697:22699   */\n      0x1c\n        /* \"#utility.yul\":22692:22695   */\n      dup4\n        /* \"#utility.yul\":22633:22700   */\n      tag_414\n      jump\t// in\n    tag_689:\n        /* \"#utility.yul\":22626:22700   */\n      swap2\n      pop\n        /* \"#utility.yul\":22709:22802   */\n      tag_690\n        /* \"#utility.yul\":22798:22801   */\n      dup3\n        /* \"#utility.yul\":22709:22802   */\n      tag_461\n      jump\t// in\n    tag_690:\n        /* \"#utility.yul\":22827:22829   */\n      0x20\n        /* \"#utility.yul\":22822:22825   */\n      dup3\n        /* \"#utility.yul\":22818:22830   */\n      add\n        /* \"#utility.yul\":22811:22830   */\n      swap1\n      pop\n        /* \"#utility.yul\":22470:22836   */\n      swap2\n      swap1\n      pop\n      jump\t// out\n        /* \"#utility.yul\":22842:23261   */\n    tag_297:\n        /* \"#utility.yul\":23008:23012   */\n      0x00\n        /* \"#utility.yul\":23046:23048   */\n      0x20\n        /* \"#utility.yul\":23035:23044   */\n      dup3\n        /* \"#utility.yul\":23031:23049   */\n      add\n        /* \"#utility.yul\":23023:23049   */\n      swap1\n      pop\n        /* \"#utility.yul\":23095:23104   */\n      dup2\n        /* \"#utility.yul\":23089:23093   */\n      dup2\n        /* \"#utility.yul\":23085:23105   */\n      sub\n        /* \"#utility.yul\":23081:23082   */\n      0x00\n        /* \"#utility.yul\":23070:23079   */\n      dup4\n        /* \"#utility.yul\":23066:23083   */\n      add\n        /* \"#utility.yul\":23059:23106   */\n      mstore\n        /* \"#utility.yul\":23123:23254   */\n      tag_692\n        /* \"#utility.yul\":23249:23253   */\n      dup2\n        /* \"#utility.yul\":23123:23254   */\n      tag_462\n      jump\t// in\n    tag_692:\n        /* \"#utility.yul\":23115:23254   */\n      swap1\n      pop\n        /* \"#utility.yul\":22842:23261   */\n      swap2\n      swap1\n      pop\n      jump\t// out\n        /* \"#utility.yul\":23267:23448   */\n    tag_463:\n        /* \"#utility.yul\":23407:23440   */\n      0x4661696c656420746f207472616e7366657220737461626c6520636f696e7300\n        /* \"#utility.yul\":23403:23404   */\n      0x00\n        /* \"#utility.yul\":23395:23401   */\n      dup3\n        /* \"#utility.yul\":23391:23405   */\n      add\n        /* \"#utility.yul\":23384:23441   */\n      mstore\n        /* \"#utility.yul\":23267:23448   */\n      pop\n      jump\t// out\n        /* \"#utility.yul\":23454:23820   */\n    tag_464:\n        /* \"#utility.yul\":23596:23599   */\n      0x00\n        /* \"#utility.yul\":23617:23684   */\n      tag_695\n        /* \"#utility.yul\":23681:23683   */\n      0x1f\n        /* \"#utility.yul\":23676:23679   */\n      dup4\n        /* \"#utility.yul\":23617:23684   */\n      tag_414\n      jump\t// in\n    tag_695:\n        /* \"#utility.yul\":23610:23684   */\n      swap2\n      pop\n        /* \"#utility.yul\":23693:23786   */\n      tag_696\n        /* \"#utility.yul\":23782:23785   */\n      dup3\n        /* \"#utility.yul\":23693:23786   */\n      tag_463\n      jump\t// in\n    tag_696:\n        /* \"#utility.yul\":23811:23813   */\n      0x20\n        /* \"#utility.yul\":23806:23809   */\n      dup3\n        /* \"#utility.yul\":23802:23814   */\n      add\n        /* \"#utility.yul\":23795:23814   */\n      swap1\n      pop\n        /* \"#utility.yul\":23454:23820   */\n      swap2\n      swap1\n      pop\n      jump\t// out\n        /* \"#utility.yul\":23826:24245   */\n    tag_304:\n        /* \"#utility.yul\":23992:23996   */\n      0x00\n        /* \"#utility.yul\":24030:24032   */\n      0x20\n        /* \"#utility.yul\":24019:24028   */\n      dup3\n        /* \"#utility.yul\":24015:24033   */\n      add\n        /* \"#utility.yul\":24007:24033   */\n      swap1\n      pop\n        /* \"#utility.yul\":24079:24088   */\n      dup2\n        /* \"#utility.yul\":24073:24077   */\n      dup2\n        /* \"#utility.yul\":24069:24089   */\n      sub\n        /* \"#utility.yul\":24065:24066   */\n      0x00\n        /* \"#utility.yul\":24054:24063   */\n      dup4\n        /* \"#utility.yul\":24050:24067   */\n      add\n        /* \"#utility.yul\":24043:24090   */\n      mstore\n        /* \"#utility.yul\":24107:24238   */\n      tag_698\n        /* \"#utility.yul\":24233:24237   */\n      dup2\n        /* \"#utility.yul\":24107:24238   */\n      tag_464\n      jump\t// in\n    tag_698:\n        /* \"#utility.yul\":24099:24238   */\n      swap1\n      pop\n        /* \"#utility.yul\":23826:24245   */\n      swap2\n      swap1\n      pop\n      jump\t// out\n        /* \"#utility.yul\":24251:24693   */\n    tag_330:\n        /* \"#utility.yul\":24400:24404   */\n      0x00\n        /* \"#utility.yul\":24438:24440   */\n      0x60\n        /* \"#utility.yul\":24427:24436   */\n      dup3\n        /* \"#utility.yul\":24423:24441   */\n      add\n        /* \"#utility.yul\":24415:24441   */\n      swap1\n      pop\n        /* \"#utility.yul\":24451:24522   */\n      tag_700\n        /* \"#utility.yul\":24519:24520   */\n      0x00\n        /* \"#utility.yul\":24508:24517   */\n      dup4\n        /* \"#utility.yul\":24504:24521   */\n      add\n        /* \"#utility.yul\":24495:24501   */\n      dup7\n        /* \"#utility.yul\":24451:24522   */\n      tag_443\n      jump\t// in\n    tag_700:\n        /* \"#utility.yul\":24532:24604   */\n      tag_701\n        /* \"#utility.yul\":24600:24602   */\n      0x20\n        /* \"#utility.yul\":24589:24598   */\n      dup4\n        /* \"#utility.yul\":24585:24603   */\n      add\n        /* \"#utility.yul\":24576:24582   */\n      dup6\n        /* \"#utility.yul\":24532:24604   */\n      tag_425\n      jump\t// in\n    tag_701:\n        /* \"#utility.yul\":24614:24686   */\n      tag_702\n        /* \"#utility.yul\":24682:24684   */\n      0x40\n        /* \"#utility.yul\":24671:24680   */\n      dup4\n        /* \"#utility.yul\":24667:24685   */\n      add\n        /* \"#utility.yul\":24658:24664   */\n      dup5\n        /* \"#utility.yul\":24614:24686   */\n      tag_425\n      jump\t// in\n    tag_702:\n        /* \"#utility.yul\":24251:24693   */\n      swap5\n      swap4\n      pop\n      pop\n      pop\n      pop\n      jump\t// out\n        /* \"#utility.yul\":24699:25031   */\n    tag_383:\n        /* \"#utility.yul\":24820:24824   */\n      0x00\n        /* \"#utility.yul\":24858:24860   */\n      0x40\n        /* \"#utility.yul\":24847:24856   */\n      dup3\n        /* \"#utility.yul\":24843:24861   */\n      add\n        /* \"#utility.yul\":24835:24861   */\n      swap1\n      pop\n        /* \"#utility.yul\":24871:24942   */\n      tag_704\n        /* \"#utility.yul\":24939:24940   */\n      0x00\n        /* \"#utility.yul\":24928:24937   */\n      dup4\n        /* \"#utility.yul\":24924:24941   */\n      add\n        /* \"#utility.yul\":24915:24921   */\n      dup6\n        /* \"#utility.yul\":24871:24942   */\n      tag_443\n      jump\t// in\n    tag_704:\n        /* \"#utility.yul\":24952:25024   */\n      tag_705\n        /* \"#utility.yul\":25020:25022   */\n      0x20\n        /* \"#utility.yul\":25009:25018   */\n      dup4\n        /* \"#utility.yul\":25005:25023   */\n      add\n        /* \"#utility.yul\":24996:25002   */\n      dup5\n        /* \"#utility.yul\":24952:25024   */\n      tag_429\n      jump\t// in\n    tag_705:\n        /* \"#utility.yul\":24699:25031   */\n      swap4\n      swap3\n      pop\n      pop\n      pop\n      jump\t// out\n        /* \"#utility.yul\":25037:25228   */\n    tag_398:\n        /* \"#utility.yul\":25077:25080   */\n      0x00\n        /* \"#utility.yul\":25096:25116   */\n      tag_707\n        /* \"#utility.yul\":25114:25115   */\n      dup3\n        /* \"#utility.yul\":25096:25116   */\n      tag_422\n      jump\t// in\n    tag_707:\n        /* \"#utility.yul\":25091:25116   */\n      swap2\n      pop\n        /* \"#utility.yul\":25130:25150   */\n      tag_708\n        /* \"#utility.yul\":25148:25149   */\n      dup4\n        /* \"#utility.yul\":25130:25150   */\n      tag_422\n      jump\t// in\n    tag_708:\n        /* \"#utility.yul\":25125:25150   */\n      swap3\n      pop\n        /* \"#utility.yul\":25173:25174   */\n      dup3\n        /* \"#utility.yul\":25170:25171   */\n      dup3\n        /* \"#utility.yul\":25166:25175   */\n      add\n        /* \"#utility.yul\":25159:25175   */\n      swap1\n      pop\n        /* \"#utility.yul\":25194:25197   */\n      dup1\n        /* \"#utility.yul\":25191:25192   */\n      dup3\n        /* \"#utility.yul\":25188:25198   */\n      gt\n        /* \"#utility.yul\":25185:25221   */\n      iszero\n      tag_709\n      jumpi\n        /* \"#utility.yul\":25201:25219   */\n      tag_710\n      tag_445\n      jump\t// in\n    tag_710:\n        /* \"#utility.yul\":25185:25221   */\n    tag_709:\n        /* \"#utility.yul\":25037:25228   */\n      swap3\n      swap2\n      pop\n      pop\n      jump\t// out\n\n    auxdata: 0xa26469706673582212209cb8b3e465b50756657981eb2fe160c5e57eaa54e5b63ea9bfe6970e9cc95d7064736f6c634300081a0033\n}\n",
				"bytecode": {
					"linkReferences": {},
					"object": "610100604052348015610010575f80fd5b506040516139923803806139928339818101604052810190610032919061072c565b6040518060400160405280600c81526020017f426f6e44654669546f6b656e00000000000000000000000000000000000000008152506040518060400160405280600381526020017f424446000000000000000000000000000000000000000000000000000000000081525081600390816100ad91906109fa565b5080600490816100bd91906109fa565b5050505f60055f6101000a81548160ff0219169083151502179055506101097fdf8b4c520ffe197c5343c6f5aec59570151ef9a492f2c624fd45ddde6135ec42886101fe60201b60201c565b5061013a7ff877234297ef562d54f0328f892acfc1d6c1e44ca89f02e3a2c2a4736f6095b7876101fe60201b60201c565b508473ffffffffffffffffffffffffffffffffffffffff1660808173ffffffffffffffffffffffffffffffffffffffff16815250508373ffffffffffffffffffffffffffffffffffffffff1660a08173ffffffffffffffffffffffffffffffffffffffff16815250508060c081815250508160e081815250506101f2336101c56102f460201b60201c565b600a6101d19190610c31565b83866101dd9190610ca8565b6101e79190610cd8565b6102fc60201b60201c565b50505050505050610dd1565b5f61020f838361038160201b60201c565b6102ea57600160065f8581526020019081526020015f205f015f8473ffffffffffffffffffffffffffffffffffffffff1673ffffffffffffffffffffffffffffffffffffffff1681526020019081526020015f205f6101000a81548160ff0219169083151502179055506102876103e560201b60201c565b73ffffffffffffffffffffffffffffffffffffffff168273ffffffffffffffffffffffffffffffffffffffff16847f2f8788117e7eff1d82e926ec794901d17c78024a50270940304540a733656f0d60405160405180910390a4600190506102ee565b5f90505b92915050565b5f6012905090565b5f73ffffffffffffffffffffffffffffffffffffffff168273ffffffffffffffffffffffffffffffffffffffff160361036c575f6040517fec442f050000000000000000000000000000000000000000000000000000000081526004016103639190610d28565b60405180910390fd5b61037d5f83836103ec60201b60201c565b5050565b5f60065f8481526020019081526020015f205f015f8373ffffffffffffffffffffffffffffffffffffffff1673ffffffffffffffffffffffffffffffffffffffff1681526020019081526020015f205f9054906101000a900460ff16905092915050565b5f33905090565b6103fd83838361040260201b60201c565b505050565b61041061042660201b60201c565b61042183838361046d60201b60201c565b505050565b61043461068660201b60201c565b1561046b576040517fd93c066500000000000000000000000000000000000000000000000000000000815260040160405180910390fd5b565b5f73ffffffffffffffffffffffffffffffffffffffff168373ffffffffffffffffffffffffffffffffffffffff16036104bd578060025f8282546104b19190610d41565b9250508190555061058b565b5f805f8573ffffffffffffffffffffffffffffffffffffffff1673ffffffffffffffffffffffffffffffffffffffff1681526020019081526020015f2054905081811015610546578381836040517fe450d38c00000000000000000000000000000000000000000000000000000000815260040161053d93929190610d83565b60405180910390fd5b8181035f808673ffffffffffffffffffffffffffffffffffffffff1673ffffffffffffffffffffffffffffffffffffffff1681526020019081526020015f2081905550505b5f73ffffffffffffffffffffffffffffffffffffffff168273ffffffffffffffffffffffffffffffffffffffff16036105d2578060025f828254039250508190555061061c565b805f808473ffffffffffffffffffffffffffffffffffffffff1673ffffffffffffffffffffffffffffffffffffffff1681526020019081526020015f205f82825401925050819055505b8173ffffffffffffffffffffffffffffffffffffffff168373ffffffffffffffffffffffffffffffffffffffff167fddf252ad1be2c89b69c2b068fc378daa952ba7f163c4a11628f55a4df523b3ef836040516106799190610db8565b60405180910390a3505050565b5f60055f9054906101000a900460ff16905090565b5f80fd5b5f73ffffffffffffffffffffffffffffffffffffffff82169050919050565b5f6106c88261069f565b9050919050565b6106d8816106be565b81146106e2575f80fd5b50565b5f815190506106f3816106cf565b92915050565b5f819050919050565b61070b816106f9565b8114610715575f80fd5b50565b5f8151905061072681610702565b92915050565b5f805f805f805f60e0888a0312156107475761074661069b565b5b5f6107548a828b016106e5565b97505060206107658a828b016106e5565b96505060406107768a828b016106e5565b95505060606107878a828b016106e5565b94505060806107988a828b01610718565b93505060a06107a98a828b01610718565b92505060c06107ba8a828b01610718565b91505092959891949750929550565b5f81519050919050565b7f4e487b71000000000000000000000000000000000000000000000000000000005f52604160045260245ffd5b7f4e487b71000000000000000000000000000000000000000000000000000000005f52602260045260245ffd5b5f600282049050600182168061084457607f821691505b60208210810361085757610856610800565b5b50919050565b5f819050815f5260205f209050919050565b5f6020601f8301049050919050565b5f82821b905092915050565b5f600883026108b97fffffffffffffffffffffffffffffffffffffffffffffffffffffffffffffffff8261087e565b6108c3868361087e565b95508019841693508086168417925050509392505050565b5f819050919050565b5f6108fe6108f96108f4846106f9565b6108db565b6106f9565b9050919050565b5f819050919050565b610917836108e4565b61092b61092382610905565b84845461088a565b825550505050565b5f90565b61093f610933565b61094a81848461090e565b505050565b5b8181101561096d576109625f82610937565b600181019050610950565b5050565b601f8211156109b2576109838161085d565b61098c8461086f565b8101602085101561099b578190505b6109af6109a78561086f565b83018261094f565b50505b505050565b5f82821c905092915050565b5f6109d25f19846008026109b7565b1980831691505092915050565b5f6109ea83836109c3565b9150826002028217905092915050565b610a03826107c9565b67ffffffffffffffff811115610a1c57610a1b6107d3565b5b610a26825461082d565b610a31828285610971565b5f60209050601f831160018114610a62575f8415610a50578287015190505b610a5a85826109df565b865550610ac1565b601f198416610a708661085d565b5f5b82811015610a9757848901518255600182019150602085019450602081019050610a72565b86831015610ab45784890151610ab0601f8916826109c3565b8355505b6001600288020188555050505b505050505050565b7f4e487b71000000000000000000000000000000000000000000000000000000005f52601160045260245ffd5b5f8160011c9050919050565b5f808291508390505b6001851115610b4b57808604811115610b2757610b26610ac9565b5b6001851615610b365780820291505b8081029050610b4485610af6565b9450610b0b565b94509492505050565b5f82610b635760019050610c1e565b81610b70575f9050610c1e565b8160018114610b865760028114610b9057610bbf565b6001915050610c1e565b60ff841115610ba257610ba1610ac9565b5b8360020a915084821115610bb957610bb8610ac9565b5b50610c1e565b5060208310610133831016604e8410600b8410161715610bf45782820a905083811115610bef57610bee610ac9565b5b610c1e565b610c018484846001610b02565b92509050818404811115610c1857610c17610ac9565b5b81810290505b9392505050565b5f60ff82169050919050565b5f610c3b826106f9565b9150610c4683610c25565b9250610c737fffffffffffffffffffffffffffffffffffffffffffffffffffffffffffffffff8484610b54565b905092915050565b7f4e487b71000000000000000000000000000000000000000000000000000000005f52601260045260245ffd5b5f610cb2826106f9565b9150610cbd836106f9565b925082610ccd57610ccc610c7b565b5b828204905092915050565b5f610ce2826106f9565b9150610ced836106f9565b9250828202610cfb816106f9565b91508282048414831517610d1257610d11610ac9565b5b5092915050565b610d22816106be565b82525050565b5f602082019050610d3b5f830184610d19565b92915050565b5f610d4b826106f9565b9150610d56836106f9565b9250828201905080821115610d6e57610d6d610ac9565b5b92915050565b610d7d816106f9565b82525050565b5f606082019050610d965f830186610d19565b610da36020830185610d74565b610db06040830184610d74565b949350505050565b5f602082019050610dcb5f830184610d74565b92915050565b60805160a05160c05160e051612b4f610e435f395f8181610dfa015261125401525f818161075f01528181610dd60152610f9801525f8181610b730152818161131e0152818161136c01526113a801525f818161072101528181610d8a01528181610f5b01526110980152612b4f5ff3fe608060405234801561000f575f80fd5b50600436106101ee575f3560e01c80638456cb591161010d578063ca19c11c116100a0578063dd62ed3e1161006f578063dd62ed3e1461056c578063e091a39b1461059c578063ec8eba14146105ba578063f57d283e146105d8576101ee565b8063ca19c11c1461050c578063ced0550f14610528578063d547741f14610532578063d59624b41461054e576101ee565b8063992642e5116100dc578063992642e514610482578063a217fddf146104a0578063a9059cbb146104be578063a920260b146104ee576101ee565b80638456cb591461040e578063904835c41461041857806391d148541461043457806395d89b4114610464576101ee565b80632f2ff15d1161018557806342966c681161015457806342966c68146103885780635c975abb146103a457806370a08231146103c257806379cc6790146103f2576101ee565b80632f2ff15d14610328578063313ce5671461034457806336568abe146103625780633f4ba83a1461037e576101ee565b806318160ddd116101c157806318160ddd1461028c57806323b872dd146102aa578063248a9ca3146102da5780632a0acc6a1461030a576101ee565b806301ffc9a7146101f257806306fdde0314610222578063095ea7b31461024057806310002dbd14610270575b5f80fd5b61020c60048036038101906102079190611ee1565b6105f4565b6040516102199190611f26565b60405180910390f35b61022a61066d565b6040516102379190611faf565b60405180910390f35b61025a6004803603810190610255919061205c565b6106fd565b6040516102679190611f26565b60405180910390f35b61028a6004803603810190610285919061209a565b61071f565b005b6102946108e3565b6040516102a191906120d4565b60405180910390f35b6102c460048036038101906102bf91906120ed565b6108ec565b6040516102d19190611f26565b60405180910390f35b6102f460048036038101906102ef9190612170565b61091a565b60405161030191906121aa565b60405180910390f35b610312610937565b60405161031f91906121aa565b60405180910390f35b610342600480360381019061033d91906121c3565b61095b565b005b61034c61097d565b604051610359919061221c565b60405180910390f35b61037c600480360381019061037791906121c3565b610985565b005b610386610a00565b005b6103a2600480360381019061039d919061209a565b610a35565b005b6103ac610a49565b6040516103b99190611f26565b60405180910390f35b6103dc60048036038101906103d79190612235565b610a5e565b6040516103e991906120d4565b60405180910390f35b61040c6004803603810190610407919061205c565b610aa3565b005b610416610ac3565b005b610432600480360381019061042d9190612460565b610af8565b005b61044e600480360381019061044991906121c3565b610c94565b60405161045b9190611f26565b60405180910390f35b61046c610cf8565b6040516104799190611faf565b60405180910390f35b61048a610d88565b60405161049791906124e5565b60405180910390f35b6104a8610dac565b6040516104b591906121aa565b60405180910390f35b6104d860048036038101906104d3919061205c565b610db2565b6040516104e59190611f26565b60405180910390f35b6104f6610dd4565b60405161050391906120d4565b60405180910390f35b6105266004803603810190610521919061209a565b610df8565b005b61053061106b565b005b61054c600480360381019061054791906121c3565b611230565b005b610556611252565b60405161056391906120d4565b60405180910390f35b610586600480360381019061058191906124fe565b611276565b60405161059391906120d4565b60405180910390f35b6105a46112f8565b6040516105b191906121aa565b60405180910390f35b6105c261131c565b6040516105cf91906124e5565b60405180910390f35b6105f260048036038101906105ed919061205c565b611340565b005b5f7f7965db0b000000000000000000000000000000000000000000000000000000007bffffffffffffffffffffffffffffffffffffffffffffffffffffffff1916827bffffffffffffffffffffffffffffffffffffffffffffffffffffffff1916148061066657506106658261146b565b5b9050919050565b60606003805461067c90612569565b80601f01602080910402602001604051908101604052809291908181526020018280546106a890612569565b80156106f35780601f106106ca576101008083540402835291602001916106f3565b820191905f5260205f20905b8154815290600101906020018083116106d657829003601f168201915b5050505050905090565b5f806107076114d4565b90506107148185856114db565b600191505092915050565b7f000000000000000000000000000000000000000000000000000000000000000073ffffffffffffffffffffffffffffffffffffffff166323b872dd33307f00000000000000000000000000000000000000000000000000000000000000008561078991906125c6565b6040518463ffffffff1660e01b81526004016107a793929190612607565b6020604051808303815f875af11580156107c3573d5f803e3d5ffd5b505050506040513d601f19601f820116820180604052508101906107e79190612666565b610826576040517f08c379a000000000000000000000000000000000000000000000000000000000815260040161081d906126db565b60405180910390fd5b3073ffffffffffffffffffffffffffffffffffffffff1663a9059cbb33836040518363ffffffff1660e01b81526004016108619291906126f9565b6020604051808303815f875af115801561087d573d5f803e3d5ffd5b505050506040513d601f19601f820116820180604052508101906108a19190612666565b6108e0576040517f08c379a00000000000000000000000000000000000000000000000000000000081526004016108d79061276a565b60405180910390fd5b50565b5f600254905090565b5f806108f66114d4565b90506109038582856114ed565b61090e85858561157f565b60019150509392505050565b5f60065f8381526020019081526020015f20600101549050919050565b7fdf8b4c520ffe197c5343c6f5aec59570151ef9a492f2c624fd45ddde6135ec4281565b6109648261091a565b61096d8161166f565b6109778383611683565b50505050565b5f6012905090565b61098d6114d4565b73ffffffffffffffffffffffffffffffffffffffff168173ffffffffffffffffffffffffffffffffffffffff16146109f1576040517f6697b23200000000000000000000000000000000000000000000000000000000815260040160405180910390fd5b6109fb828261176d565b505050565b7fdf8b4c520ffe197c5343c6f5aec59570151ef9a492f2c624fd45ddde6135ec42610a2a8161166f565b610a32611857565b50565b610a46610a406114d4565b826118b8565b50565b5f60055f9054906101000a900460ff16905090565b5f805f8373ffffffffffffffffffffffffffffffffffffffff1673ffffffffffffffffffffffffffffffffffffffff1681526020019081526020015f20549050919050565b610ab582610aaf6114d4565b836114ed565b610abf82826118b8565b5050565b7fdf8b4c520ffe197c5343c6f5aec59570151ef9a492f2c624fd45ddde6135ec42610aed8161166f565b610af5611937565b50565b7fdf8b4c520ffe197c5343c6f5aec59570151ef9a492f2c624fd45ddde6135ec42610b228161166f565b8151835114610b66576040517f08c379a0000000000000000000000000000000000000000000000000000000008152600401610b5d906127f8565b60405180910390fd5b5f5b8351811015610c8e577f000000000000000000000000000000000000000000000000000000000000000073ffffffffffffffffffffffffffffffffffffffff166323b872dd33868481518110610bc157610bc0612816565b5b6020026020010151868581518110610bdc57610bdb612816565b5b60200260200101516040518463ffffffff1660e01b8152600401610c0293929190612607565b6020604051808303815f875af1158015610c1e573d5f803e3d5ffd5b505050506040513d601f19601f82011682018060405250810190610c429190612666565b610c81576040517f08c379a0000000000000000000000000000000000000000000000000000000008152600401610c789061288d565b60405180910390fd5b8080600101915050610b68565b50505050565b5f60065f8481526020019081526020015f205f015f8373ffffffffffffffffffffffffffffffffffffffff1673ffffffffffffffffffffffffffffffffffffffff1681526020019081526020015f205f9054906101000a900460ff16905092915050565b606060048054610d0790612569565b80601f0160208091040260200160405190810160405280929190818152602001828054610d3390612569565b8015610d7e5780601f10610d5557610100808354040283529160200191610d7e565b820191905f5260205f20905b815481529060010190602001808311610d6157829003601f168201915b5050505050905090565b7f000000000000000000000000000000000000000000000000000000000000000081565b5f801b81565b5f80610dbc6114d4565b9050610dc981858561157f565b600191505092915050565b7f000000000000000000000000000000000000000000000000000000000000000081565b7f0000000000000000000000000000000000000000000000000000000000000000421015610e5b576040517f08c379a0000000000000000000000000000000000000000000000000000000008152600401610e52906128f5565b60405180910390fd5b5f8111610e9d576040517f08c379a0000000000000000000000000000000000000000000000000000000008152600401610e949061295d565b60405180910390fd5b3073ffffffffffffffffffffffffffffffffffffffff166323b872dd3330846040518463ffffffff1660e01b8152600401610eda93929190612607565b6020604051808303815f875af1158015610ef6573d5f803e3d5ffd5b505050506040513d601f19601f82011682018060405250810190610f1a9190612666565b610f59576040517f08c379a0000000000000000000000000000000000000000000000000000000008152600401610f509061276a565b60405180910390fd5b7f000000000000000000000000000000000000000000000000000000000000000073ffffffffffffffffffffffffffffffffffffffff1663a9059cbb337f000000000000000000000000000000000000000000000000000000000000000084610fc291906125c6565b6040518363ffffffff1660e01b8152600401610fdf9291906126f9565b6020604051808303815f875af1158015610ffb573d5f803e3d5ffd5b505050506040513d601f19601f8201168201806040525081019061101f9190612666565b61105e576040517f08c379a0000000000000000000000000000000000000000000000000000000008152600401611055906126db565b60405180910390fd5b61106830826118b8565b50565b7ff877234297ef562d54f0328f892acfc1d6c1e44ca89f02e3a2c2a4736f6095b76110958161166f565b5f7f000000000000000000000000000000000000000000000000000000000000000073ffffffffffffffffffffffffffffffffffffffff166370a08231306040518263ffffffff1660e01b81526004016110ef91906124e5565b602060405180830381865afa15801561110a573d5f803e3d5ffd5b505050506040513d601f19601f8201168201806040525081019061112e919061298f565b90505f8111611172576040517f08c379a000000000000000000000000000000000000000000000000000000000815260040161116990612a04565b60405180910390fd5b3073ffffffffffffffffffffffffffffffffffffffff1663a9059cbb33836040518363ffffffff1660e01b81526004016111ad9291906126f9565b6020604051808303815f875af11580156111c9573d5f803e3d5ffd5b505050506040513d601f19601f820116820180604052508101906111ed9190612666565b61122c576040517f08c379a000000000000000000000000000000000000000000000000000000000815260040161122390612a6c565b60405180910390fd5b5050565b6112398261091a565b6112428161166f565b61124c838361176d565b50505050565b7f000000000000000000000000000000000000000000000000000000000000000081565b5f60015f8473ffffffffffffffffffffffffffffffffffffffff1673ffffffffffffffffffffffffffffffffffffffff1681526020019081526020015f205f8373ffffffffffffffffffffffffffffffffffffffff1673ffffffffffffffffffffffffffffffffffffffff1681526020019081526020015f2054905092915050565b7ff877234297ef562d54f0328f892acfc1d6c1e44ca89f02e3a2c2a4736f6095b781565b7f000000000000000000000000000000000000000000000000000000000000000081565b7fdf8b4c520ffe197c5343c6f5aec59570151ef9a492f2c624fd45ddde6135ec4261136a8161166f565b7f000000000000000000000000000000000000000000000000000000000000000073ffffffffffffffffffffffffffffffffffffffff166323b872dd7f000000000000000000000000000000000000000000000000000000000000000085856040518463ffffffff1660e01b81526004016113e793929190612607565b6020604051808303815f875af1158015611403573d5f803e3d5ffd5b505050506040513d601f19601f820116820180604052508101906114279190612666565b611466576040517f08c379a000000000000000000000000000000000000000000000000000000000815260040161145d9061288d565b60405180910390fd5b505050565b5f7f01ffc9a7000000000000000000000000000000000000000000000000000000007bffffffffffffffffffffffffffffffffffffffffffffffffffffffff1916827bffffffffffffffffffffffffffffffffffffffffffffffffffffffff1916149050919050565b5f33905090565b6114e88383836001611999565b505050565b5f6114f88484611276565b90507fffffffffffffffffffffffffffffffffffffffffffffffffffffffffffffffff8114611579578181101561156a578281836040517ffb8f41b200000000000000000000000000000000000000000000000000000000815260040161156193929190612a8a565b60405180910390fd5b61157884848484035f611999565b5b50505050565b5f73ffffffffffffffffffffffffffffffffffffffff168373ffffffffffffffffffffffffffffffffffffffff16036115ef575f6040517f96c6fd1e0000000000000000000000000000000000000000000000000000000081526004016115e691906124e5565b60405180910390fd5b5f73ffffffffffffffffffffffffffffffffffffffff168273ffffffffffffffffffffffffffffffffffffffff160361165f575f6040517fec442f0500000000000000000000000000000000000000000000000000000000815260040161165691906124e5565b60405180910390fd5b61166a838383611b68565b505050565b6116808161167b6114d4565b611b78565b50565b5f61168e8383610c94565b61176357600160065f8581526020019081526020015f205f015f8473ffffffffffffffffffffffffffffffffffffffff1673ffffffffffffffffffffffffffffffffffffffff1681526020019081526020015f205f6101000a81548160ff0219169083151502179055506117006114d4565b73ffffffffffffffffffffffffffffffffffffffff168273ffffffffffffffffffffffffffffffffffffffff16847f2f8788117e7eff1d82e926ec794901d17c78024a50270940304540a733656f0d60405160405180910390a460019050611767565b5f90505b92915050565b5f6117788383610c94565b1561184d575f60065f8581526020019081526020015f205f015f8473ffffffffffffffffffffffffffffffffffffffff1673ffffffffffffffffffffffffffffffffffffffff1681526020019081526020015f205f6101000a81548160ff0219169083151502179055506117ea6114d4565b73ffffffffffffffffffffffffffffffffffffffff168273ffffffffffffffffffffffffffffffffffffffff16847ff6391f5c32d9c69d2a47ea670b442974b53935d1edc7fd64eb21e047a839171b60405160405180910390a460019050611851565b5f90505b92915050565b61185f611bc9565b5f60055f6101000a81548160ff0219169083151502179055507f5db9ee0a495bf2e6ff9c91a7834c1ba4fdd244a5e8aa4e537bd38aeae4b073aa6118a16114d4565b6040516118ae91906124e5565b60405180910390a1565b5f73ffffffffffffffffffffffffffffffffffffffff168273ffffffffffffffffffffffffffffffffffffffff1603611928575f6040517f96c6fd1e00000000000000000000000000000000000000000000000000000000815260040161191f91906124e5565b60405180910390fd5b611933825f83611b68565b5050565b61193f611c09565b600160055f6101000a81548160ff0219169083151502179055507f62e78cea01bee320cd4e420270b5ea74000d11b0c9f74754ebdbfc544b05a2586119826114d4565b60405161198f91906124e5565b60405180910390a1565b5f73ffffffffffffffffffffffffffffffffffffffff168473ffffffffffffffffffffffffffffffffffffffff1603611a09575f6040517fe602df05000000000000000000000000000000000000000000000000000000008152600401611a0091906124e5565b60405180910390fd5b5f73ffffffffffffffffffffffffffffffffffffffff168373ffffffffffffffffffffffffffffffffffffffff1603611a79575f6040517f94280d62000000000000000000000000000000000000000000000000000000008152600401611a7091906124e5565b60405180910390fd5b8160015f8673ffffffffffffffffffffffffffffffffffffffff1673ffffffffffffffffffffffffffffffffffffffff1681526020019081526020015f205f8573ffffffffffffffffffffffffffffffffffffffff1673ffffffffffffffffffffffffffffffffffffffff1681526020019081526020015f20819055508015611b62578273ffffffffffffffffffffffffffffffffffffffff168473ffffffffffffffffffffffffffffffffffffffff167f8c5be1e5ebec7d5bd14f71427d1e84f3dd0314c0f7b2291e5b200ac8c7c3b92584604051611b5991906120d4565b60405180910390a35b50505050565b611b73838383611c4a565b505050565b611b828282610c94565b611bc55780826040517fe2517d3f000000000000000000000000000000000000000000000000000000008152600401611bbc929190612abf565b60405180910390fd5b5050565b611bd1610a49565b611c07576040517f8dfc202b00000000000000000000000000000000000000000000000000000000815260040160405180910390fd5b565b611c11610a49565b15611c48576040517fd93c066500000000000000000000000000000000000000000000000000000000815260040160405180910390fd5b565b611c52611c09565b611c5d838383611c62565b505050565b5f73ffffffffffffffffffffffffffffffffffffffff168373ffffffffffffffffffffffffffffffffffffffff1603611cb2578060025f828254611ca69190612ae6565b92505081905550611d80565b5f805f8573ffffffffffffffffffffffffffffffffffffffff1673ffffffffffffffffffffffffffffffffffffffff1681526020019081526020015f2054905081811015611d3b578381836040517fe450d38c000000000000000000000000000000000000000000000000000000008152600401611d3293929190612a8a565b60405180910390fd5b8181035f808673ffffffffffffffffffffffffffffffffffffffff1673ffffffffffffffffffffffffffffffffffffffff1681526020019081526020015f2081905550505b5f73ffffffffffffffffffffffffffffffffffffffff168273ffffffffffffffffffffffffffffffffffffffff1603611dc7578060025f8282540392505081905550611e11565b805f808473ffffffffffffffffffffffffffffffffffffffff1673ffffffffffffffffffffffffffffffffffffffff1681526020019081526020015f205f82825401925050819055505b8173ffffffffffffffffffffffffffffffffffffffff168373ffffffffffffffffffffffffffffffffffffffff167fddf252ad1be2c89b69c2b068fc378daa952ba7f163c4a11628f55a4df523b3ef83604051611e6e91906120d4565b60405180910390a3505050565b5f604051905090565b5f80fd5b5f80fd5b5f7fffffffff0000000000000000000000000000000000000000000000000000000082169050919050565b611ec081611e8c565b8114611eca575f80fd5b50565b5f81359050611edb81611eb7565b92915050565b5f60208284031215611ef657611ef5611e84565b5b5f611f0384828501611ecd565b91505092915050565b5f8115159050919050565b611f2081611f0c565b82525050565b5f602082019050611f395f830184611f17565b92915050565b5f81519050919050565b5f82825260208201905092915050565b8281835e5f83830152505050565b5f601f19601f8301169050919050565b5f611f8182611f3f565b611f8b8185611f49565b9350611f9b818560208601611f59565b611fa481611f67565b840191505092915050565b5f6020820190508181035f830152611fc78184611f77565b905092915050565b5f73ffffffffffffffffffffffffffffffffffffffff82169050919050565b5f611ff882611fcf565b9050919050565b61200881611fee565b8114612012575f80fd5b50565b5f8135905061202381611fff565b92915050565b5f819050919050565b61203b81612029565b8114612045575f80fd5b50565b5f8135905061205681612032565b92915050565b5f806040838503121561207257612071611e84565b5b5f61207f85828601612015565b925050602061209085828601612048565b9150509250929050565b5f602082840312156120af576120ae611e84565b5b5f6120bc84828501612048565b91505092915050565b6120ce81612029565b82525050565b5f6020820190506120e75f8301846120c5565b92915050565b5f805f6060848603121561210457612103611e84565b5b5f61211186828701612015565b935050602061212286828701612015565b925050604061213386828701612048565b9150509250925092565b5f819050919050565b61214f8161213d565b8114612159575f80fd5b50565b5f8135905061216a81612146565b92915050565b5f6020828403121561218557612184611e84565b5b5f6121928482850161215c565b91505092915050565b6121a48161213d565b82525050565b5f6020820190506121bd5f83018461219b565b92915050565b5f80604083850312156121d9576121d8611e84565b5b5f6121e68582860161215c565b92505060206121f785828601612015565b9150509250929050565b5f60ff82169050919050565b61221681612201565b82525050565b5f60208201905061222f5f83018461220d565b92915050565b5f6020828403121561224a57612249611e84565b5b5f61225784828501612015565b91505092915050565b5f80fd5b7f4e487b71000000000000000000000000000000000000000000000000000000005f52604160045260245ffd5b61229a82611f67565b810181811067ffffffffffffffff821117156122b9576122b8612264565b5b80604052505050565b5f6122cb611e7b565b90506122d78282612291565b919050565b5f67ffffffffffffffff8211156122f6576122f5612264565b5b602082029050602081019050919050565b5f80fd5b5f61231d612318846122dc565b6122c2565b905080838252602082019050602084028301858111156123405761233f612307565b5b835b8181101561236957806123558882612015565b845260208401935050602081019050612342565b5050509392505050565b5f82601f83011261238757612386612260565b5b813561239784826020860161230b565b91505092915050565b5f67ffffffffffffffff8211156123ba576123b9612264565b5b602082029050602081019050919050565b5f6123dd6123d8846123a0565b6122c2565b90508083825260208201905060208402830185811115612400576123ff612307565b5b835b8181101561242957806124158882612048565b845260208401935050602081019050612402565b5050509392505050565b5f82601f83011261244757612446612260565b5b81356124578482602086016123cb565b91505092915050565b5f806040838503121561247657612475611e84565b5b5f83013567ffffffffffffffff81111561249357612492611e88565b5b61249f85828601612373565b925050602083013567ffffffffffffffff8111156124c0576124bf611e88565b5b6124cc85828601612433565b9150509250929050565b6124df81611fee565b82525050565b5f6020820190506124f85f8301846124d6565b92915050565b5f806040838503121561251457612513611e84565b5b5f61252185828601612015565b925050602061253285828601612015565b9150509250929050565b7f4e487b71000000000000000000000000000000000000000000000000000000005f52602260045260245ffd5b5f600282049050600182168061258057607f821691505b6020821081036125935761259261253c565b5b50919050565b7f4e487b71000000000000000000000000000000000000000000000000000000005f52601160045260245ffd5b5f6125d082612029565b91506125db83612029565b92508282026125e981612029565b91508282048414831517612600576125ff612599565b5b5092915050565b5f60608201905061261a5f8301866124d6565b61262760208301856124d6565b61263460408301846120c5565b949350505050565b61264581611f0c565b811461264f575f80fd5b50565b5f815190506126608161263c565b92915050565b5f6020828403121561267b5761267a611e84565b5b5f61268884828501612652565b91505092915050565b7f537461626c6520636f696e207472616e73666572206661696c656400000000005f82015250565b5f6126c5601b83611f49565b91506126d082612691565b602082019050919050565b5f6020820190508181035f8301526126f2816126b9565b9050919050565b5f60408201905061270c5f8301856124d6565b61271960208301846120c5565b9392505050565b7f426f6e6420746f6b656e207472616e73666572206661696c65640000000000005f82015250565b5f612754601a83611f49565b915061275f82612720565b602082019050919050565b5f6020820190508181035f83015261278181612748565b9050919050565b7f546f6b656e20686f6c6465727320616e6420616d6f756e7473206c656e6774685f8201527f206d69736d617463680000000000000000000000000000000000000000000000602082015250565b5f6127e2602983611f49565b91506127ed82612788565b604082019050919050565b5f6020820190508181035f83015261280f816127d6565b9050919050565b7f4e487b71000000000000000000000000000000000000000000000000000000005f52603260045260245ffd5b7f5472616e73666572206661696c656400000000000000000000000000000000005f82015250565b5f612877600f83611f49565b915061288282612843565b602082019050919050565b5f6020820190508181035f8301526128a48161286b565b9050919050565b7f4d61747572697479206e6f7420796574207265616368656400000000000000005f82015250565b5f6128df601883611f49565b91506128ea826128ab565b602082019050919050565b5f6020820190508181035f83015261290c816128d3565b9050919050565b7f43616e277420636c61696d207a65726f20636f696e73000000000000000000005f82015250565b5f612947601683611f49565b915061295282612913565b602082019050919050565b5f6020820190508181035f8301526129748161293b565b9050919050565b5f8151905061298981612032565b92915050565b5f602082840312156129a4576129a3611e84565b5b5f6129b18482850161297b565b91505092915050565b7f4e6f20696e766573746f722066756e647320617661696c61626c652e000000005f82015250565b5f6129ee601c83611f49565b91506129f9826129ba565b602082019050919050565b5f6020820190508181035f830152612a1b816129e2565b9050919050565b7f4661696c656420746f207472616e7366657220737461626c6520636f696e73005f82015250565b5f612a56601f83611f49565b9150612a6182612a22565b602082019050919050565b5f6020820190508181035f830152612a8381612a4a565b9050919050565b5f606082019050612a9d5f8301866124d6565b612aaa60208301856120c5565b612ab760408301846120c5565b949350505050565b5f604082019050612ad25f8301856124d6565b612adf602083018461219b565b9392505050565b5f612af082612029565b9150612afb83612029565b9250828201905080821115612b1357612b12612599565b5b9291505056fea26469706673582212209cb8b3e465b50756657981eb2fe160c5e57eaa54e5b63ea9bfe6970e9cc95d7064736f6c634300081a0033",
					"opcodes": "PUSH2 0x100 PUSH1 0x40 MSTORE CALLVALUE DUP1 ISZERO PUSH2 0x10 JUMPI PUSH0 DUP1 REVERT JUMPDEST POP PUSH1 0x40 MLOAD PUSH2 0x3992 CODESIZE SUB DUP1 PUSH2 0x3992 DUP4 CODECOPY DUP2 DUP2 ADD PUSH1 0x40 MSTORE DUP2 ADD SWAP1 PUSH2 0x32 SWAP2 SWAP1 PUSH2 0x72C JUMP JUMPDEST PUSH1 0x40 MLOAD DUP1 PUSH1 0x40 ADD PUSH1 0x40 MSTORE DUP1 PUSH1 0xC DUP2 MSTORE PUSH1 0x20 ADD PUSH32 0x426F6E44654669546F6B656E0000000000000000000000000000000000000000 DUP2 MSTORE POP PUSH1 0x40 MLOAD DUP1 PUSH1 0x40 ADD PUSH1 0x40 MSTORE DUP1 PUSH1 0x3 DUP2 MSTORE PUSH1 0x20 ADD PUSH32 0x4244460000000000000000000000000000000000000000000000000000000000 DUP2 MSTORE POP DUP2 PUSH1 0x3 SWAP1 DUP2 PUSH2 0xAD SWAP2 SWAP1 PUSH2 0x9FA JUMP JUMPDEST POP DUP1 PUSH1 0x4 SWAP1 DUP2 PUSH2 0xBD SWAP2 SWAP1 PUSH2 0x9FA JUMP JUMPDEST POP POP POP PUSH0 PUSH1 0x5 PUSH0 PUSH2 0x100 EXP DUP2 SLOAD DUP2 PUSH1 0xFF MUL NOT AND SWAP1 DUP4 ISZERO ISZERO MUL OR SWAP1 SSTORE POP PUSH2 0x109 PUSH32 0xDF8B4C520FFE197C5343C6F5AEC59570151EF9A492F2C624FD45DDDE6135EC42 DUP9 PUSH2 0x1FE PUSH1 0x20 SHL PUSH1 0x20 SHR JUMP JUMPDEST POP PUSH2 0x13A PUSH32 0xF877234297EF562D54F0328F892ACFC1D6C1E44CA89F02E3A2C2A4736F6095B7 DUP8 PUSH2 0x1FE PUSH1 0x20 SHL PUSH1 0x20 SHR JUMP JUMPDEST POP DUP5 PUSH20 0xFFFFFFFFFFFFFFFFFFFFFFFFFFFFFFFFFFFFFFFF AND PUSH1 0x80 DUP2 PUSH20 0xFFFFFFFFFFFFFFFFFFFFFFFFFFFFFFFFFFFFFFFF AND DUP2 MSTORE POP POP DUP4 PUSH20 0xFFFFFFFFFFFFFFFFFFFFFFFFFFFFFFFFFFFFFFFF AND PUSH1 0xA0 DUP2 PUSH20 0xFFFFFFFFFFFFFFFFFFFFFFFFFFFFFFFFFFFFFFFF AND DUP2 MSTORE POP POP DUP1 PUSH1 0xC0 DUP2 DUP2 MSTORE POP POP DUP2 PUSH1 0xE0 DUP2 DUP2 MSTORE POP POP PUSH2 0x1F2 CALLER PUSH2 0x1C5 PUSH2 0x2F4 PUSH1 0x20 SHL PUSH1 0x20 SHR JUMP JUMPDEST PUSH1 0xA PUSH2 0x1D1 SWAP2 SWAP1 PUSH2 0xC31 JUMP JUMPDEST DUP4 DUP7 PUSH2 0x1DD SWAP2 SWAP1 PUSH2 0xCA8 JUMP JUMPDEST PUSH2 0x1E7 SWAP2 SWAP1 PUSH2 0xCD8 JUMP JUMPDEST PUSH2 0x2FC PUSH1 0x20 SHL PUSH1 0x20 SHR JUMP JUMPDEST POP POP POP POP POP POP POP PUSH2 0xDD1 JUMP JUMPDEST PUSH0 PUSH2 0x20F DUP4 DUP4 PUSH2 0x381 PUSH1 0x20 SHL PUSH1 0x20 SHR JUMP JUMPDEST PUSH2 0x2EA JUMPI PUSH1 0x1 PUSH1 0x6 PUSH0 DUP6 DUP2 MSTORE PUSH1 0x20 ADD SWAP1 DUP2 MSTORE PUSH1 0x20 ADD PUSH0 KECCAK256 PUSH0 ADD PUSH0 DUP5 PUSH20 0xFFFFFFFFFFFFFFFFFFFFFFFFFFFFFFFFFFFFFFFF AND PUSH20 0xFFFFFFFFFFFFFFFFFFFFFFFFFFFFFFFFFFFFFFFF AND DUP2 MSTORE PUSH1 0x20 ADD SWAP1 DUP2 MSTORE PUSH1 0x20 ADD PUSH0 KECCAK256 PUSH0 PUSH2 0x100 EXP DUP2 SLOAD DUP2 PUSH1 0xFF MUL NOT AND SWAP1 DUP4 ISZERO ISZERO MUL OR SWAP1 SSTORE POP PUSH2 0x287 PUSH2 0x3E5 PUSH1 0x20 SHL PUSH1 0x20 SHR JUMP JUMPDEST PUSH20 0xFFFFFFFFFFFFFFFFFFFFFFFFFFFFFFFFFFFFFFFF AND DUP3 PUSH20 0xFFFFFFFFFFFFFFFFFFFFFFFFFFFFFFFFFFFFFFFF AND DUP5 PUSH32 0x2F8788117E7EFF1D82E926EC794901D17C78024A50270940304540A733656F0D PUSH1 0x40 MLOAD PUSH1 0x40 MLOAD DUP1 SWAP2 SUB SWAP1 LOG4 PUSH1 0x1 SWAP1 POP PUSH2 0x2EE JUMP JUMPDEST PUSH0 SWAP1 POP JUMPDEST SWAP3 SWAP2 POP POP JUMP JUMPDEST PUSH0 PUSH1 0x12 SWAP1 POP SWAP1 JUMP JUMPDEST PUSH0 PUSH20 0xFFFFFFFFFFFFFFFFFFFFFFFFFFFFFFFFFFFFFFFF AND DUP3 PUSH20 0xFFFFFFFFFFFFFFFFFFFFFFFFFFFFFFFFFFFFFFFF AND SUB PUSH2 0x36C JUMPI PUSH0 PUSH1 0x40 MLOAD PUSH32 0xEC442F0500000000000000000000000000000000000000000000000000000000 DUP2 MSTORE PUSH1 0x4 ADD PUSH2 0x363 SWAP2 SWAP1 PUSH2 0xD28 JUMP JUMPDEST PUSH1 0x40 MLOAD DUP1 SWAP2 SUB SWAP1 REVERT JUMPDEST PUSH2 0x37D PUSH0 DUP4 DUP4 PUSH2 0x3EC PUSH1 0x20 SHL PUSH1 0x20 SHR JUMP JUMPDEST POP POP JUMP JUMPDEST PUSH0 PUSH1 0x6 PUSH0 DUP5 DUP2 MSTORE PUSH1 0x20 ADD SWAP1 DUP2 MSTORE PUSH1 0x20 ADD PUSH0 KECCAK256 PUSH0 ADD PUSH0 DUP4 PUSH20 0xFFFFFFFFFFFFFFFFFFFFFFFFFFFFFFFFFFFFFFFF AND PUSH20 0xFFFFFFFFFFFFFFFFFFFFFFFFFFFFFFFFFFFFFFFF AND DUP2 MSTORE PUSH1 0x20 ADD SWAP1 DUP2 MSTORE PUSH1 0x20 ADD PUSH0 KECCAK256 PUSH0 SWAP1 SLOAD SWAP1 PUSH2 0x100 EXP SWAP1 DIV PUSH1 0xFF AND SWAP1 POP SWAP3 SWAP2 POP POP JUMP JUMPDEST PUSH0 CALLER SWAP1 POP SWAP1 JUMP JUMPDEST PUSH2 0x3FD DUP4 DUP4 DUP4 PUSH2 0x402 PUSH1 0x20 SHL PUSH1 0x20 SHR JUMP JUMPDEST POP POP POP JUMP JUMPDEST PUSH2 0x410 PUSH2 0x426 PUSH1 0x20 SHL PUSH1 0x20 SHR JUMP JUMPDEST PUSH2 0x421 DUP4 DUP4 DUP4 PUSH2 0x46D PUSH1 0x20 SHL PUSH1 0x20 SHR JUMP JUMPDEST POP POP POP JUMP JUMPDEST PUSH2 0x434 PUSH2 0x686 PUSH1 0x20 SHL PUSH1 0x20 SHR JUMP JUMPDEST ISZERO PUSH2 0x46B JUMPI PUSH1 0x40 MLOAD PUSH32 0xD93C066500000000000000000000000000000000000000000000000000000000 DUP2 MSTORE PUSH1 0x4 ADD PUSH1 0x40 MLOAD DUP1 SWAP2 SUB SWAP1 REVERT JUMPDEST JUMP JUMPDEST PUSH0 PUSH20 0xFFFFFFFFFFFFFFFFFFFFFFFFFFFFFFFFFFFFFFFF AND DUP4 PUSH20 0xFFFFFFFFFFFFFFFFFFFFFFFFFFFFFFFFFFFFFFFF AND SUB PUSH2 0x4BD JUMPI DUP1 PUSH1 0x2 PUSH0 DUP3 DUP3 SLOAD PUSH2 0x4B1 SWAP2 SWAP1 PUSH2 0xD41 JUMP JUMPDEST SWAP3 POP POP DUP2 SWAP1 SSTORE POP PUSH2 0x58B JUMP JUMPDEST PUSH0 DUP1 PUSH0 DUP6 PUSH20 0xFFFFFFFFFFFFFFFFFFFFFFFFFFFFFFFFFFFFFFFF AND PUSH20 0xFFFFFFFFFFFFFFFFFFFFFFFFFFFFFFFFFFFFFFFF AND DUP2 MSTORE PUSH1 0x20 ADD SWAP1 DUP2 MSTORE PUSH1 0x20 ADD PUSH0 KECCAK256 SLOAD SWAP1 POP DUP2 DUP2 LT ISZERO PUSH2 0x546 JUMPI DUP4 DUP2 DUP4 PUSH1 0x40 MLOAD PUSH32 0xE450D38C00000000000000000000000000000000000000000000000000000000 DUP2 MSTORE PUSH1 0x4 ADD PUSH2 0x53D SWAP4 SWAP3 SWAP2 SWAP1 PUSH2 0xD83 JUMP JUMPDEST PUSH1 0x40 MLOAD DUP1 SWAP2 SUB SWAP1 REVERT JUMPDEST DUP2 DUP2 SUB PUSH0 DUP1 DUP7 PUSH20 0xFFFFFFFFFFFFFFFFFFFFFFFFFFFFFFFFFFFFFFFF AND PUSH20 0xFFFFFFFFFFFFFFFFFFFFFFFFFFFFFFFFFFFFFFFF AND DUP2 MSTORE PUSH1 0x20 ADD SWAP1 DUP2 MSTORE PUSH1 0x20 ADD PUSH0 KECCAK256 DUP2 SWAP1 SSTORE POP POP JUMPDEST PUSH0 PUSH20 0xFFFFFFFFFFFFFFFFFFFFFFFFFFFFFFFFFFFFFFFF AND DUP3 PUSH20 0xFFFFFFFFFFFFFFFFFFFFFFFFFFFFFFFFFFFFFFFF AND SUB PUSH2 0x5D2 JUMPI DUP1 PUSH1 0x2 PUSH0 DUP3 DUP3 SLOAD SUB SWAP3 POP POP DUP2 SWAP1 SSTORE POP PUSH2 0x61C JUMP JUMPDEST DUP1 PUSH0 DUP1 DUP5 PUSH20 0xFFFFFFFFFFFFFFFFFFFFFFFFFFFFFFFFFFFFFFFF AND PUSH20 0xFFFFFFFFFFFFFFFFFFFFFFFFFFFFFFFFFFFFFFFF AND DUP2 MSTORE PUSH1 0x20 ADD SWAP1 DUP2 MSTORE PUSH1 0x20 ADD PUSH0 KECCAK256 PUSH0 DUP3 DUP3 SLOAD ADD SWAP3 POP POP DUP2 SWAP1 SSTORE POP JUMPDEST DUP2 PUSH20 0xFFFFFFFFFFFFFFFFFFFFFFFFFFFFFFFFFFFFFFFF AND DUP4 PUSH20 0xFFFFFFFFFFFFFFFFFFFFFFFFFFFFFFFFFFFFFFFF AND PUSH32 0xDDF252AD1BE2C89B69C2B068FC378DAA952BA7F163C4A11628F55A4DF523B3EF DUP4 PUSH1 0x40 MLOAD PUSH2 0x679 SWAP2 SWAP1 PUSH2 0xDB8 JUMP JUMPDEST PUSH1 0x40 MLOAD DUP1 SWAP2 SUB SWAP1 LOG3 POP POP POP JUMP JUMPDEST PUSH0 PUSH1 0x5 PUSH0 SWAP1 SLOAD SWAP1 PUSH2 0x100 EXP SWAP1 DIV PUSH1 0xFF AND SWAP1 POP SWAP1 JUMP JUMPDEST PUSH0 DUP1 REVERT JUMPDEST PUSH0 PUSH20 0xFFFFFFFFFFFFFFFFFFFFFFFFFFFFFFFFFFFFFFFF DUP3 AND SWAP1 POP SWAP2 SWAP1 POP JUMP JUMPDEST PUSH0 PUSH2 0x6C8 DUP3 PUSH2 0x69F JUMP JUMPDEST SWAP1 POP SWAP2 SWAP1 POP JUMP JUMPDEST PUSH2 0x6D8 DUP2 PUSH2 0x6BE JUMP JUMPDEST DUP2 EQ PUSH2 0x6E2 JUMPI PUSH0 DUP1 REVERT JUMPDEST POP JUMP JUMPDEST PUSH0 DUP2 MLOAD SWAP1 POP PUSH2 0x6F3 DUP2 PUSH2 0x6CF JUMP JUMPDEST SWAP3 SWAP2 POP POP JUMP JUMPDEST PUSH0 DUP2 SWAP1 POP SWAP2 SWAP1 POP JUMP JUMPDEST PUSH2 0x70B DUP2 PUSH2 0x6F9 JUMP JUMPDEST DUP2 EQ PUSH2 0x715 JUMPI PUSH0 DUP1 REVERT JUMPDEST POP JUMP JUMPDEST PUSH0 DUP2 MLOAD SWAP1 POP PUSH2 0x726 DUP2 PUSH2 0x702 JUMP JUMPDEST SWAP3 SWAP2 POP POP JUMP JUMPDEST PUSH0 DUP1 PUSH0 DUP1 PUSH0 DUP1 PUSH0 PUSH1 0xE0 DUP9 DUP11 SUB SLT ISZERO PUSH2 0x747 JUMPI PUSH2 0x746 PUSH2 0x69B JUMP JUMPDEST JUMPDEST PUSH0 PUSH2 0x754 DUP11 DUP3 DUP12 ADD PUSH2 0x6E5 JUMP JUMPDEST SWAP8 POP POP PUSH1 0x20 PUSH2 0x765 DUP11 DUP3 DUP12 ADD PUSH2 0x6E5 JUMP JUMPDEST SWAP7 POP POP PUSH1 0x40 PUSH2 0x776 DUP11 DUP3 DUP12 ADD PUSH2 0x6E5 JUMP JUMPDEST SWAP6 POP POP PUSH1 0x60 PUSH2 0x787 DUP11 DUP3 DUP12 ADD PUSH2 0x6E5 JUMP JUMPDEST SWAP5 POP POP PUSH1 0x80 PUSH2 0x798 DUP11 DUP3 DUP12 ADD PUSH2 0x718 JUMP JUMPDEST SWAP4 POP POP PUSH1 0xA0 PUSH2 0x7A9 DUP11 DUP3 DUP12 ADD PUSH2 0x718 JUMP JUMPDEST SWAP3 POP POP PUSH1 0xC0 PUSH2 0x7BA DUP11 DUP3 DUP12 ADD PUSH2 0x718 JUMP JUMPDEST SWAP2 POP POP SWAP3 SWAP6 SWAP9 SWAP2 SWAP5 SWAP8 POP SWAP3 SWAP6 POP JUMP JUMPDEST PUSH0 DUP2 MLOAD SWAP1 POP SWAP2 SWAP1 POP JUMP JUMPDEST PUSH32 0x4E487B7100000000000000000000000000000000000000000000000000000000 PUSH0 MSTORE PUSH1 0x41 PUSH1 0x4 MSTORE PUSH1 0x24 PUSH0 REVERT JUMPDEST PUSH32 0x4E487B7100000000000000000000000000000000000000000000000000000000 PUSH0 MSTORE PUSH1 0x22 PUSH1 0x4 MSTORE PUSH1 0x24 PUSH0 REVERT JUMPDEST PUSH0 PUSH1 0x2 DUP3 DIV SWAP1 POP PUSH1 0x1 DUP3 AND DUP1 PUSH2 0x844 JUMPI PUSH1 0x7F DUP3 AND SWAP2 POP JUMPDEST PUSH1 0x20 DUP3 LT DUP2 SUB PUSH2 0x857 JUMPI PUSH2 0x856 PUSH2 0x800 JUMP JUMPDEST JUMPDEST POP SWAP2 SWAP1 POP JUMP JUMPDEST PUSH0 DUP2 SWAP1 POP DUP2 PUSH0 MSTORE PUSH1 0x20 PUSH0 KECCAK256 SWAP1 POP SWAP2 SWAP1 POP JUMP JUMPDEST PUSH0 PUSH1 0x20 PUSH1 0x1F DUP4 ADD DIV SWAP1 POP SWAP2 SWAP1 POP JUMP JUMPDEST PUSH0 DUP3 DUP3 SHL SWAP1 POP SWAP3 SWAP2 POP POP JUMP JUMPDEST PUSH0 PUSH1 0x8 DUP4 MUL PUSH2 0x8B9 PUSH32 0xFFFFFFFFFFFFFFFFFFFFFFFFFFFFFFFFFFFFFFFFFFFFFFFFFFFFFFFFFFFFFFFF DUP3 PUSH2 0x87E JUMP JUMPDEST PUSH2 0x8C3 DUP7 DUP4 PUSH2 0x87E JUMP JUMPDEST SWAP6 POP DUP1 NOT DUP5 AND SWAP4 POP DUP1 DUP7 AND DUP5 OR SWAP3 POP POP POP SWAP4 SWAP3 POP POP POP JUMP JUMPDEST PUSH0 DUP2 SWAP1 POP SWAP2 SWAP1 POP JUMP JUMPDEST PUSH0 PUSH2 0x8FE PUSH2 0x8F9 PUSH2 0x8F4 DUP5 PUSH2 0x6F9 JUMP JUMPDEST PUSH2 0x8DB JUMP JUMPDEST PUSH2 0x6F9 JUMP JUMPDEST SWAP1 POP SWAP2 SWAP1 POP JUMP JUMPDEST PUSH0 DUP2 SWAP1 POP SWAP2 SWAP1 POP JUMP JUMPDEST PUSH2 0x917 DUP4 PUSH2 0x8E4 JUMP JUMPDEST PUSH2 0x92B PUSH2 0x923 DUP3 PUSH2 0x905 JUMP JUMPDEST DUP5 DUP5 SLOAD PUSH2 0x88A JUMP JUMPDEST DUP3 SSTORE POP POP POP POP JUMP JUMPDEST PUSH0 SWAP1 JUMP JUMPDEST PUSH2 0x93F PUSH2 0x933 JUMP JUMPDEST PUSH2 0x94A DUP2 DUP5 DUP5 PUSH2 0x90E JUMP JUMPDEST POP POP POP JUMP JUMPDEST JUMPDEST DUP2 DUP2 LT ISZERO PUSH2 0x96D JUMPI PUSH2 0x962 PUSH0 DUP3 PUSH2 0x937 JUMP JUMPDEST PUSH1 0x1 DUP2 ADD SWAP1 POP PUSH2 0x950 JUMP JUMPDEST POP POP JUMP JUMPDEST PUSH1 0x1F DUP3 GT ISZERO PUSH2 0x9B2 JUMPI PUSH2 0x983 DUP2 PUSH2 0x85D JUMP JUMPDEST PUSH2 0x98C DUP5 PUSH2 0x86F JUMP JUMPDEST DUP2 ADD PUSH1 0x20 DUP6 LT ISZERO PUSH2 0x99B JUMPI DUP2 SWAP1 POP JUMPDEST PUSH2 0x9AF PUSH2 0x9A7 DUP6 PUSH2 0x86F JUMP JUMPDEST DUP4 ADD DUP3 PUSH2 0x94F JUMP JUMPDEST POP POP JUMPDEST POP POP POP JUMP JUMPDEST PUSH0 DUP3 DUP3 SHR SWAP1 POP SWAP3 SWAP2 POP POP JUMP JUMPDEST PUSH0 PUSH2 0x9D2 PUSH0 NOT DUP5 PUSH1 0x8 MUL PUSH2 0x9B7 JUMP JUMPDEST NOT DUP1 DUP4 AND SWAP2 POP POP SWAP3 SWAP2 POP POP JUMP JUMPDEST PUSH0 PUSH2 0x9EA DUP4 DUP4 PUSH2 0x9C3 JUMP JUMPDEST SWAP2 POP DUP3 PUSH1 0x2 MUL DUP3 OR SWAP1 POP SWAP3 SWAP2 POP POP JUMP JUMPDEST PUSH2 0xA03 DUP3 PUSH2 0x7C9 JUMP JUMPDEST PUSH8 0xFFFFFFFFFFFFFFFF DUP2 GT ISZERO PUSH2 0xA1C JUMPI PUSH2 0xA1B PUSH2 0x7D3 JUMP JUMPDEST JUMPDEST PUSH2 0xA26 DUP3 SLOAD PUSH2 0x82D JUMP JUMPDEST PUSH2 0xA31 DUP3 DUP3 DUP6 PUSH2 0x971 JUMP JUMPDEST PUSH0 PUSH1 0x20 SWAP1 POP PUSH1 0x1F DUP4 GT PUSH1 0x1 DUP2 EQ PUSH2 0xA62 JUMPI PUSH0 DUP5 ISZERO PUSH2 0xA50 JUMPI DUP3 DUP8 ADD MLOAD SWAP1 POP JUMPDEST PUSH2 0xA5A DUP6 DUP3 PUSH2 0x9DF JUMP JUMPDEST DUP7 SSTORE POP PUSH2 0xAC1 JUMP JUMPDEST PUSH1 0x1F NOT DUP5 AND PUSH2 0xA70 DUP7 PUSH2 0x85D JUMP JUMPDEST PUSH0 JUMPDEST DUP3 DUP2 LT ISZERO PUSH2 0xA97 JUMPI DUP5 DUP10 ADD MLOAD DUP3 SSTORE PUSH1 0x1 DUP3 ADD SWAP2 POP PUSH1 0x20 DUP6 ADD SWAP5 POP PUSH1 0x20 DUP2 ADD SWAP1 POP PUSH2 0xA72 JUMP JUMPDEST DUP7 DUP4 LT ISZERO PUSH2 0xAB4 JUMPI DUP5 DUP10 ADD MLOAD PUSH2 0xAB0 PUSH1 0x1F DUP10 AND DUP3 PUSH2 0x9C3 JUMP JUMPDEST DUP4 SSTORE POP JUMPDEST PUSH1 0x1 PUSH1 0x2 DUP9 MUL ADD DUP9 SSTORE POP POP POP JUMPDEST POP POP POP POP POP POP JUMP JUMPDEST PUSH32 0x4E487B7100000000000000000000000000000000000000000000000000000000 PUSH0 MSTORE PUSH1 0x11 PUSH1 0x4 MSTORE PUSH1 0x24 PUSH0 REVERT JUMPDEST PUSH0 DUP2 PUSH1 0x1 SHR SWAP1 POP SWAP2 SWAP1 POP JUMP JUMPDEST PUSH0 DUP1 DUP3 SWAP2 POP DUP4 SWAP1 POP JUMPDEST PUSH1 0x1 DUP6 GT ISZERO PUSH2 0xB4B JUMPI DUP1 DUP7 DIV DUP2 GT ISZERO PUSH2 0xB27 JUMPI PUSH2 0xB26 PUSH2 0xAC9 JUMP JUMPDEST JUMPDEST PUSH1 0x1 DUP6 AND ISZERO PUSH2 0xB36 JUMPI DUP1 DUP3 MUL SWAP2 POP JUMPDEST DUP1 DUP2 MUL SWAP1 POP PUSH2 0xB44 DUP6 PUSH2 0xAF6 JUMP JUMPDEST SWAP5 POP PUSH2 0xB0B JUMP JUMPDEST SWAP5 POP SWAP5 SWAP3 POP POP POP JUMP JUMPDEST PUSH0 DUP3 PUSH2 0xB63 JUMPI PUSH1 0x1 SWAP1 POP PUSH2 0xC1E JUMP JUMPDEST DUP2 PUSH2 0xB70 JUMPI PUSH0 SWAP1 POP PUSH2 0xC1E JUMP JUMPDEST DUP2 PUSH1 0x1 DUP2 EQ PUSH2 0xB86 JUMPI PUSH1 0x2 DUP2 EQ PUSH2 0xB90 JUMPI PUSH2 0xBBF JUMP JUMPDEST PUSH1 0x1 SWAP2 POP POP PUSH2 0xC1E JUMP JUMPDEST PUSH1 0xFF DUP5 GT ISZERO PUSH2 0xBA2 JUMPI PUSH2 0xBA1 PUSH2 0xAC9 JUMP JUMPDEST JUMPDEST DUP4 PUSH1 0x2 EXP SWAP2 POP DUP5 DUP3 GT ISZERO PUSH2 0xBB9 JUMPI PUSH2 0xBB8 PUSH2 0xAC9 JUMP JUMPDEST JUMPDEST POP PUSH2 0xC1E JUMP JUMPDEST POP PUSH1 0x20 DUP4 LT PUSH2 0x133 DUP4 LT AND PUSH1 0x4E DUP5 LT PUSH1 0xB DUP5 LT AND OR ISZERO PUSH2 0xBF4 JUMPI DUP3 DUP3 EXP SWAP1 POP DUP4 DUP2 GT ISZERO PUSH2 0xBEF JUMPI PUSH2 0xBEE PUSH2 0xAC9 JUMP JUMPDEST JUMPDEST PUSH2 0xC1E JUMP JUMPDEST PUSH2 0xC01 DUP5 DUP5 DUP5 PUSH1 0x1 PUSH2 0xB02 JUMP JUMPDEST SWAP3 POP SWAP1 POP DUP2 DUP5 DIV DUP2 GT ISZERO PUSH2 0xC18 JUMPI PUSH2 0xC17 PUSH2 0xAC9 JUMP JUMPDEST JUMPDEST DUP2 DUP2 MUL SWAP1 POP JUMPDEST SWAP4 SWAP3 POP POP POP JUMP JUMPDEST PUSH0 PUSH1 0xFF DUP3 AND SWAP1 POP SWAP2 SWAP1 POP JUMP JUMPDEST PUSH0 PUSH2 0xC3B DUP3 PUSH2 0x6F9 JUMP JUMPDEST SWAP2 POP PUSH2 0xC46 DUP4 PUSH2 0xC25 JUMP JUMPDEST SWAP3 POP PUSH2 0xC73 PUSH32 0xFFFFFFFFFFFFFFFFFFFFFFFFFFFFFFFFFFFFFFFFFFFFFFFFFFFFFFFFFFFFFFFF DUP5 DUP5 PUSH2 0xB54 JUMP JUMPDEST SWAP1 POP SWAP3 SWAP2 POP POP JUMP JUMPDEST PUSH32 0x4E487B7100000000000000000000000000000000000000000000000000000000 PUSH0 MSTORE PUSH1 0x12 PUSH1 0x4 MSTORE PUSH1 0x24 PUSH0 REVERT JUMPDEST PUSH0 PUSH2 0xCB2 DUP3 PUSH2 0x6F9 JUMP JUMPDEST SWAP2 POP PUSH2 0xCBD DUP4 PUSH2 0x6F9 JUMP JUMPDEST SWAP3 POP DUP3 PUSH2 0xCCD JUMPI PUSH2 0xCCC PUSH2 0xC7B JUMP JUMPDEST JUMPDEST DUP3 DUP3 DIV SWAP1 POP SWAP3 SWAP2 POP POP JUMP JUMPDEST PUSH0 PUSH2 0xCE2 DUP3 PUSH2 0x6F9 JUMP JUMPDEST SWAP2 POP PUSH2 0xCED DUP4 PUSH2 0x6F9 JUMP JUMPDEST SWAP3 POP DUP3 DUP3 MUL PUSH2 0xCFB DUP2 PUSH2 0x6F9 JUMP JUMPDEST SWAP2 POP DUP3 DUP3 DIV DUP5 EQ DUP4 ISZERO OR PUSH2 0xD12 JUMPI PUSH2 0xD11 PUSH2 0xAC9 JUMP JUMPDEST JUMPDEST POP SWAP3 SWAP2 POP POP JUMP JUMPDEST PUSH2 0xD22 DUP2 PUSH2 0x6BE JUMP JUMPDEST DUP3 MSTORE POP POP JUMP JUMPDEST PUSH0 PUSH1 0x20 DUP3 ADD SWAP1 POP PUSH2 0xD3B PUSH0 DUP4 ADD DUP5 PUSH2 0xD19 JUMP JUMPDEST SWAP3 SWAP2 POP POP JUMP JUMPDEST PUSH0 PUSH2 0xD4B DUP3 PUSH2 0x6F9 JUMP JUMPDEST SWAP2 POP PUSH2 0xD56 DUP4 PUSH2 0x6F9 JUMP JUMPDEST SWAP3 POP DUP3 DUP3 ADD SWAP1 POP DUP1 DUP3 GT ISZERO PUSH2 0xD6E JUMPI PUSH2 0xD6D PUSH2 0xAC9 JUMP JUMPDEST JUMPDEST SWAP3 SWAP2 POP POP JUMP JUMPDEST PUSH2 0xD7D DUP2 PUSH2 0x6F9 JUMP JUMPDEST DUP3 MSTORE POP POP JUMP JUMPDEST PUSH0 PUSH1 0x60 DUP3 ADD SWAP1 POP PUSH2 0xD96 PUSH0 DUP4 ADD DUP7 PUSH2 0xD19 JUMP JUMPDEST PUSH2 0xDA3 PUSH1 0x20 DUP4 ADD DUP6 PUSH2 0xD74 JUMP JUMPDEST PUSH2 0xDB0 PUSH1 0x40 DUP4 ADD DUP5 PUSH2 0xD74 JUMP JUMPDEST SWAP5 SWAP4 POP POP POP POP JUMP JUMPDEST PUSH0 PUSH1 0x20 DUP3 ADD SWAP1 POP PUSH2 0xDCB PUSH0 DUP4 ADD DUP5 PUSH2 0xD74 JUMP JUMPDEST SWAP3 SWAP2 POP POP JUMP JUMPDEST PUSH1 0x80 MLOAD PUSH1 0xA0 MLOAD PUSH1 0xC0 MLOAD PUSH1 0xE0 MLOAD PUSH2 0x2B4F PUSH2 0xE43 PUSH0 CODECOPY PUSH0 DUP2 DUP2 PUSH2 0xDFA ADD MSTORE PUSH2 0x1254 ADD MSTORE PUSH0 DUP2 DUP2 PUSH2 0x75F ADD MSTORE DUP2 DUP2 PUSH2 0xDD6 ADD MSTORE PUSH2 0xF98 ADD MSTORE PUSH0 DUP2 DUP2 PUSH2 0xB73 ADD MSTORE DUP2 DUP2 PUSH2 0x131E ADD MSTORE DUP2 DUP2 PUSH2 0x136C ADD MSTORE PUSH2 0x13A8 ADD MSTORE PUSH0 DUP2 DUP2 PUSH2 0x721 ADD MSTORE DUP2 DUP2 PUSH2 0xD8A ADD MSTORE DUP2 DUP2 PUSH2 0xF5B ADD MSTORE PUSH2 0x1098 ADD MSTORE PUSH2 0x2B4F PUSH0 RETURN INVALID PUSH1 0x80 PUSH1 0x40 MSTORE CALLVALUE DUP1 ISZERO PUSH2 0xF JUMPI PUSH0 DUP1 REVERT JUMPDEST POP PUSH1 0x4 CALLDATASIZE LT PUSH2 0x1EE JUMPI PUSH0 CALLDATALOAD PUSH1 0xE0 SHR DUP1 PUSH4 0x8456CB59 GT PUSH2 0x10D JUMPI DUP1 PUSH4 0xCA19C11C GT PUSH2 0xA0 JUMPI DUP1 PUSH4 0xDD62ED3E GT PUSH2 0x6F JUMPI DUP1 PUSH4 0xDD62ED3E EQ PUSH2 0x56C JUMPI DUP1 PUSH4 0xE091A39B EQ PUSH2 0x59C JUMPI DUP1 PUSH4 0xEC8EBA14 EQ PUSH2 0x5BA JUMPI DUP1 PUSH4 0xF57D283E EQ PUSH2 0x5D8 JUMPI PUSH2 0x1EE JUMP JUMPDEST DUP1 PUSH4 0xCA19C11C EQ PUSH2 0x50C JUMPI DUP1 PUSH4 0xCED0550F EQ PUSH2 0x528 JUMPI DUP1 PUSH4 0xD547741F EQ PUSH2 0x532 JUMPI DUP1 PUSH4 0xD59624B4 EQ PUSH2 0x54E JUMPI PUSH2 0x1EE JUMP JUMPDEST DUP1 PUSH4 0x992642E5 GT PUSH2 0xDC JUMPI DUP1 PUSH4 0x992642E5 EQ PUSH2 0x482 JUMPI DUP1 PUSH4 0xA217FDDF EQ PUSH2 0x4A0 JUMPI DUP1 PUSH4 0xA9059CBB EQ PUSH2 0x4BE JUMPI DUP1 PUSH4 0xA920260B EQ PUSH2 0x4EE JUMPI PUSH2 0x1EE JUMP JUMPDEST DUP1 PUSH4 0x8456CB59 EQ PUSH2 0x40E JUMPI DUP1 PUSH4 0x904835C4 EQ PUSH2 0x418 JUMPI DUP1 PUSH4 0x91D14854 EQ PUSH2 0x434 JUMPI DUP1 PUSH4 0x95D89B41 EQ PUSH2 0x464 JUMPI PUSH2 0x1EE JUMP JUMPDEST DUP1 PUSH4 0x2F2FF15D GT PUSH2 0x185 JUMPI DUP1 PUSH4 0x42966C68 GT PUSH2 0x154 JUMPI DUP1 PUSH4 0x42966C68 EQ PUSH2 0x388 JUMPI DUP1 PUSH4 0x5C975ABB EQ PUSH2 0x3A4 JUMPI DUP1 PUSH4 0x70A08231 EQ PUSH2 0x3C2 JUMPI DUP1 PUSH4 0x79CC6790 EQ PUSH2 0x3F2 JUMPI PUSH2 0x1EE JUMP JUMPDEST DUP1 PUSH4 0x2F2FF15D EQ PUSH2 0x328 JUMPI DUP1 PUSH4 0x313CE567 EQ PUSH2 0x344 JUMPI DUP1 PUSH4 0x36568ABE EQ PUSH2 0x362 JUMPI DUP1 PUSH4 0x3F4BA83A EQ PUSH2 0x37E JUMPI PUSH2 0x1EE JUMP JUMPDEST DUP1 PUSH4 0x18160DDD GT PUSH2 0x1C1 JUMPI DUP1 PUSH4 0x18160DDD EQ PUSH2 0x28C JUMPI DUP1 PUSH4 0x23B872DD EQ PUSH2 0x2AA JUMPI DUP1 PUSH4 0x248A9CA3 EQ PUSH2 0x2DA JUMPI DUP1 PUSH4 0x2A0ACC6A EQ PUSH2 0x30A JUMPI PUSH2 0x1EE JUMP JUMPDEST DUP1 PUSH4 0x1FFC9A7 EQ PUSH2 0x1F2 JUMPI DUP1 PUSH4 0x6FDDE03 EQ PUSH2 0x222 JUMPI DUP1 PUSH4 0x95EA7B3 EQ PUSH2 0x240 JUMPI DUP1 PUSH4 0x10002DBD EQ PUSH2 0x270 JUMPI JUMPDEST PUSH0 DUP1 REVERT JUMPDEST PUSH2 0x20C PUSH1 0x4 DUP1 CALLDATASIZE SUB DUP2 ADD SWAP1 PUSH2 0x207 SWAP2 SWAP1 PUSH2 0x1EE1 JUMP JUMPDEST PUSH2 0x5F4 JUMP JUMPDEST PUSH1 0x40 MLOAD PUSH2 0x219 SWAP2 SWAP1 PUSH2 0x1F26 JUMP JUMPDEST PUSH1 0x40 MLOAD DUP1 SWAP2 SUB SWAP1 RETURN JUMPDEST PUSH2 0x22A PUSH2 0x66D JUMP JUMPDEST PUSH1 0x40 MLOAD PUSH2 0x237 SWAP2 SWAP1 PUSH2 0x1FAF JUMP JUMPDEST PUSH1 0x40 MLOAD DUP1 SWAP2 SUB SWAP1 RETURN JUMPDEST PUSH2 0x25A PUSH1 0x4 DUP1 CALLDATASIZE SUB DUP2 ADD SWAP1 PUSH2 0x255 SWAP2 SWAP1 PUSH2 0x205C JUMP JUMPDEST PUSH2 0x6FD JUMP JUMPDEST PUSH1 0x40 MLOAD PUSH2 0x267 SWAP2 SWAP1 PUSH2 0x1F26 JUMP JUMPDEST PUSH1 0x40 MLOAD DUP1 SWAP2 SUB SWAP1 RETURN JUMPDEST PUSH2 0x28A PUSH1 0x4 DUP1 CALLDATASIZE SUB DUP2 ADD SWAP1 PUSH2 0x285 SWAP2 SWAP1 PUSH2 0x209A JUMP JUMPDEST PUSH2 0x71F JUMP JUMPDEST STOP JUMPDEST PUSH2 0x294 PUSH2 0x8E3 JUMP JUMPDEST PUSH1 0x40 MLOAD PUSH2 0x2A1 SWAP2 SWAP1 PUSH2 0x20D4 JUMP JUMPDEST PUSH1 0x40 MLOAD DUP1 SWAP2 SUB SWAP1 RETURN JUMPDEST PUSH2 0x2C4 PUSH1 0x4 DUP1 CALLDATASIZE SUB DUP2 ADD SWAP1 PUSH2 0x2BF SWAP2 SWAP1 PUSH2 0x20ED JUMP JUMPDEST PUSH2 0x8EC JUMP JUMPDEST PUSH1 0x40 MLOAD PUSH2 0x2D1 SWAP2 SWAP1 PUSH2 0x1F26 JUMP JUMPDEST PUSH1 0x40 MLOAD DUP1 SWAP2 SUB SWAP1 RETURN JUMPDEST PUSH2 0x2F4 PUSH1 0x4 DUP1 CALLDATASIZE SUB DUP2 ADD SWAP1 PUSH2 0x2EF SWAP2 SWAP1 PUSH2 0x2170 JUMP JUMPDEST PUSH2 0x91A JUMP JUMPDEST PUSH1 0x40 MLOAD PUSH2 0x301 SWAP2 SWAP1 PUSH2 0x21AA JUMP JUMPDEST PUSH1 0x40 MLOAD DUP1 SWAP2 SUB SWAP1 RETURN JUMPDEST PUSH2 0x312 PUSH2 0x937 JUMP JUMPDEST PUSH1 0x40 MLOAD PUSH2 0x31F SWAP2 SWAP1 PUSH2 0x21AA JUMP JUMPDEST PUSH1 0x40 MLOAD DUP1 SWAP2 SUB SWAP1 RETURN JUMPDEST PUSH2 0x342 PUSH1 0x4 DUP1 CALLDATASIZE SUB DUP2 ADD SWAP1 PUSH2 0x33D SWAP2 SWAP1 PUSH2 0x21C3 JUMP JUMPDEST PUSH2 0x95B JUMP JUMPDEST STOP JUMPDEST PUSH2 0x34C PUSH2 0x97D JUMP JUMPDEST PUSH1 0x40 MLOAD PUSH2 0x359 SWAP2 SWAP1 PUSH2 0x221C JUMP JUMPDEST PUSH1 0x40 MLOAD DUP1 SWAP2 SUB SWAP1 RETURN JUMPDEST PUSH2 0x37C PUSH1 0x4 DUP1 CALLDATASIZE SUB DUP2 ADD SWAP1 PUSH2 0x377 SWAP2 SWAP1 PUSH2 0x21C3 JUMP JUMPDEST PUSH2 0x985 JUMP JUMPDEST STOP JUMPDEST PUSH2 0x386 PUSH2 0xA00 JUMP JUMPDEST STOP JUMPDEST PUSH2 0x3A2 PUSH1 0x4 DUP1 CALLDATASIZE SUB DUP2 ADD SWAP1 PUSH2 0x39D SWAP2 SWAP1 PUSH2 0x209A JUMP JUMPDEST PUSH2 0xA35 JUMP JUMPDEST STOP JUMPDEST PUSH2 0x3AC PUSH2 0xA49 JUMP JUMPDEST PUSH1 0x40 MLOAD PUSH2 0x3B9 SWAP2 SWAP1 PUSH2 0x1F26 JUMP JUMPDEST PUSH1 0x40 MLOAD DUP1 SWAP2 SUB SWAP1 RETURN JUMPDEST PUSH2 0x3DC PUSH1 0x4 DUP1 CALLDATASIZE SUB DUP2 ADD SWAP1 PUSH2 0x3D7 SWAP2 SWAP1 PUSH2 0x2235 JUMP JUMPDEST PUSH2 0xA5E JUMP JUMPDEST PUSH1 0x40 MLOAD PUSH2 0x3E9 SWAP2 SWAP1 PUSH2 0x20D4 JUMP JUMPDEST PUSH1 0x40 MLOAD DUP1 SWAP2 SUB SWAP1 RETURN JUMPDEST PUSH2 0x40C PUSH1 0x4 DUP1 CALLDATASIZE SUB DUP2 ADD SWAP1 PUSH2 0x407 SWAP2 SWAP1 PUSH2 0x205C JUMP JUMPDEST PUSH2 0xAA3 JUMP JUMPDEST STOP JUMPDEST PUSH2 0x416 PUSH2 0xAC3 JUMP JUMPDEST STOP JUMPDEST PUSH2 0x432 PUSH1 0x4 DUP1 CALLDATASIZE SUB DUP2 ADD SWAP1 PUSH2 0x42D SWAP2 SWAP1 PUSH2 0x2460 JUMP JUMPDEST PUSH2 0xAF8 JUMP JUMPDEST STOP JUMPDEST PUSH2 0x44E PUSH1 0x4 DUP1 CALLDATASIZE SUB DUP2 ADD SWAP1 PUSH2 0x449 SWAP2 SWAP1 PUSH2 0x21C3 JUMP JUMPDEST PUSH2 0xC94 JUMP JUMPDEST PUSH1 0x40 MLOAD PUSH2 0x45B SWAP2 SWAP1 PUSH2 0x1F26 JUMP JUMPDEST PUSH1 0x40 MLOAD DUP1 SWAP2 SUB SWAP1 RETURN JUMPDEST PUSH2 0x46C PUSH2 0xCF8 JUMP JUMPDEST PUSH1 0x40 MLOAD PUSH2 0x479 SWAP2 SWAP1 PUSH2 0x1FAF JUMP JUMPDEST PUSH1 0x40 MLOAD DUP1 SWAP2 SUB SWAP1 RETURN JUMPDEST PUSH2 0x48A PUSH2 0xD88 JUMP JUMPDEST PUSH1 0x40 MLOAD PUSH2 0x497 SWAP2 SWAP1 PUSH2 0x24E5 JUMP JUMPDEST PUSH1 0x40 MLOAD DUP1 SWAP2 SUB SWAP1 RETURN JUMPDEST PUSH2 0x4A8 PUSH2 0xDAC JUMP JUMPDEST PUSH1 0x40 MLOAD PUSH2 0x4B5 SWAP2 SWAP1 PUSH2 0x21AA JUMP JUMPDEST PUSH1 0x40 MLOAD DUP1 SWAP2 SUB SWAP1 RETURN JUMPDEST PUSH2 0x4D8 PUSH1 0x4 DUP1 CALLDATASIZE SUB DUP2 ADD SWAP1 PUSH2 0x4D3 SWAP2 SWAP1 PUSH2 0x205C JUMP JUMPDEST PUSH2 0xDB2 JUMP JUMPDEST PUSH1 0x40 MLOAD PUSH2 0x4E5 SWAP2 SWAP1 PUSH2 0x1F26 JUMP JUMPDEST PUSH1 0x40 MLOAD DUP1 SWAP2 SUB SWAP1 RETURN JUMPDEST PUSH2 0x4F6 PUSH2 0xDD4 JUMP JUMPDEST PUSH1 0x40 MLOAD PUSH2 0x503 SWAP2 SWAP1 PUSH2 0x20D4 JUMP JUMPDEST PUSH1 0x40 MLOAD DUP1 SWAP2 SUB SWAP1 RETURN JUMPDEST PUSH2 0x526 PUSH1 0x4 DUP1 CALLDATASIZE SUB DUP2 ADD SWAP1 PUSH2 0x521 SWAP2 SWAP1 PUSH2 0x209A JUMP JUMPDEST PUSH2 0xDF8 JUMP JUMPDEST STOP JUMPDEST PUSH2 0x530 PUSH2 0x106B JUMP JUMPDEST STOP JUMPDEST PUSH2 0x54C PUSH1 0x4 DUP1 CALLDATASIZE SUB DUP2 ADD SWAP1 PUSH2 0x547 SWAP2 SWAP1 PUSH2 0x21C3 JUMP JUMPDEST PUSH2 0x1230 JUMP JUMPDEST STOP JUMPDEST PUSH2 0x556 PUSH2 0x1252 JUMP JUMPDEST PUSH1 0x40 MLOAD PUSH2 0x563 SWAP2 SWAP1 PUSH2 0x20D4 JUMP JUMPDEST PUSH1 0x40 MLOAD DUP1 SWAP2 SUB SWAP1 RETURN JUMPDEST PUSH2 0x586 PUSH1 0x4 DUP1 CALLDATASIZE SUB DUP2 ADD SWAP1 PUSH2 0x581 SWAP2 SWAP1 PUSH2 0x24FE JUMP JUMPDEST PUSH2 0x1276 JUMP JUMPDEST PUSH1 0x40 MLOAD PUSH2 0x593 SWAP2 SWAP1 PUSH2 0x20D4 JUMP JUMPDEST PUSH1 0x40 MLOAD DUP1 SWAP2 SUB SWAP1 RETURN JUMPDEST PUSH2 0x5A4 PUSH2 0x12F8 JUMP JUMPDEST PUSH1 0x40 MLOAD PUSH2 0x5B1 SWAP2 SWAP1 PUSH2 0x21AA JUMP JUMPDEST PUSH1 0x40 MLOAD DUP1 SWAP2 SUB SWAP1 RETURN JUMPDEST PUSH2 0x5C2 PUSH2 0x131C JUMP JUMPDEST PUSH1 0x40 MLOAD PUSH2 0x5CF SWAP2 SWAP1 PUSH2 0x24E5 JUMP JUMPDEST PUSH1 0x40 MLOAD DUP1 SWAP2 SUB SWAP1 RETURN JUMPDEST PUSH2 0x5F2 PUSH1 0x4 DUP1 CALLDATASIZE SUB DUP2 ADD SWAP1 PUSH2 0x5ED SWAP2 SWAP1 PUSH2 0x205C JUMP JUMPDEST PUSH2 0x1340 JUMP JUMPDEST STOP JUMPDEST PUSH0 PUSH32 0x7965DB0B00000000000000000000000000000000000000000000000000000000 PUSH28 0xFFFFFFFFFFFFFFFFFFFFFFFFFFFFFFFFFFFFFFFFFFFFFFFFFFFFFFFF NOT AND DUP3 PUSH28 0xFFFFFFFFFFFFFFFFFFFFFFFFFFFFFFFFFFFFFFFFFFFFFFFFFFFFFFFF NOT AND EQ DUP1 PUSH2 0x666 JUMPI POP PUSH2 0x665 DUP3 PUSH2 0x146B JUMP JUMPDEST JUMPDEST SWAP1 POP SWAP2 SWAP1 POP JUMP JUMPDEST PUSH1 0x60 PUSH1 0x3 DUP1 SLOAD PUSH2 0x67C SWAP1 PUSH2 0x2569 JUMP JUMPDEST DUP1 PUSH1 0x1F ADD PUSH1 0x20 DUP1 SWAP2 DIV MUL PUSH1 0x20 ADD PUSH1 0x40 MLOAD SWAP1 DUP2 ADD PUSH1 0x40 MSTORE DUP1 SWAP3 SWAP2 SWAP1 DUP2 DUP2 MSTORE PUSH1 0x20 ADD DUP3 DUP1 SLOAD PUSH2 0x6A8 SWAP1 PUSH2 0x2569 JUMP JUMPDEST DUP1 ISZERO PUSH2 0x6F3 JUMPI DUP1 PUSH1 0x1F LT PUSH2 0x6CA JUMPI PUSH2 0x100 DUP1 DUP4 SLOAD DIV MUL DUP4 MSTORE SWAP2 PUSH1 0x20 ADD SWAP2 PUSH2 0x6F3 JUMP JUMPDEST DUP3 ADD SWAP2 SWAP1 PUSH0 MSTORE PUSH1 0x20 PUSH0 KECCAK256 SWAP1 JUMPDEST DUP2 SLOAD DUP2 MSTORE SWAP1 PUSH1 0x1 ADD SWAP1 PUSH1 0x20 ADD DUP1 DUP4 GT PUSH2 0x6D6 JUMPI DUP3 SWAP1 SUB PUSH1 0x1F AND DUP3 ADD SWAP2 JUMPDEST POP POP POP POP POP SWAP1 POP SWAP1 JUMP JUMPDEST PUSH0 DUP1 PUSH2 0x707 PUSH2 0x14D4 JUMP JUMPDEST SWAP1 POP PUSH2 0x714 DUP2 DUP6 DUP6 PUSH2 0x14DB JUMP JUMPDEST PUSH1 0x1 SWAP2 POP POP SWAP3 SWAP2 POP POP JUMP JUMPDEST PUSH32 0x0 PUSH20 0xFFFFFFFFFFFFFFFFFFFFFFFFFFFFFFFFFFFFFFFF AND PUSH4 0x23B872DD CALLER ADDRESS PUSH32 0x0 DUP6 PUSH2 0x789 SWAP2 SWAP1 PUSH2 0x25C6 JUMP JUMPDEST PUSH1 0x40 MLOAD DUP5 PUSH4 0xFFFFFFFF AND PUSH1 0xE0 SHL DUP2 MSTORE PUSH1 0x4 ADD PUSH2 0x7A7 SWAP4 SWAP3 SWAP2 SWAP1 PUSH2 0x2607 JUMP JUMPDEST PUSH1 0x20 PUSH1 0x40 MLOAD DUP1 DUP4 SUB DUP2 PUSH0 DUP8 GAS CALL ISZERO DUP1 ISZERO PUSH2 0x7C3 JUMPI RETURNDATASIZE PUSH0 DUP1 RETURNDATACOPY RETURNDATASIZE PUSH0 REVERT JUMPDEST POP POP POP POP PUSH1 0x40 MLOAD RETURNDATASIZE PUSH1 0x1F NOT PUSH1 0x1F DUP3 ADD AND DUP3 ADD DUP1 PUSH1 0x40 MSTORE POP DUP2 ADD SWAP1 PUSH2 0x7E7 SWAP2 SWAP1 PUSH2 0x2666 JUMP JUMPDEST PUSH2 0x826 JUMPI PUSH1 0x40 MLOAD PUSH32 0x8C379A000000000000000000000000000000000000000000000000000000000 DUP2 MSTORE PUSH1 0x4 ADD PUSH2 0x81D SWAP1 PUSH2 0x26DB JUMP JUMPDEST PUSH1 0x40 MLOAD DUP1 SWAP2 SUB SWAP1 REVERT JUMPDEST ADDRESS PUSH20 0xFFFFFFFFFFFFFFFFFFFFFFFFFFFFFFFFFFFFFFFF AND PUSH4 0xA9059CBB CALLER DUP4 PUSH1 0x40 MLOAD DUP4 PUSH4 0xFFFFFFFF AND PUSH1 0xE0 SHL DUP2 MSTORE PUSH1 0x4 ADD PUSH2 0x861 SWAP3 SWAP2 SWAP1 PUSH2 0x26F9 JUMP JUMPDEST PUSH1 0x20 PUSH1 0x40 MLOAD DUP1 DUP4 SUB DUP2 PUSH0 DUP8 GAS CALL ISZERO DUP1 ISZERO PUSH2 0x87D JUMPI RETURNDATASIZE PUSH0 DUP1 RETURNDATACOPY RETURNDATASIZE PUSH0 REVERT JUMPDEST POP POP POP POP PUSH1 0x40 MLOAD RETURNDATASIZE PUSH1 0x1F NOT PUSH1 0x1F DUP3 ADD AND DUP3 ADD DUP1 PUSH1 0x40 MSTORE POP DUP2 ADD SWAP1 PUSH2 0x8A1 SWAP2 SWAP1 PUSH2 0x2666 JUMP JUMPDEST PUSH2 0x8E0 JUMPI PUSH1 0x40 MLOAD PUSH32 0x8C379A000000000000000000000000000000000000000000000000000000000 DUP2 MSTORE PUSH1 0x4 ADD PUSH2 0x8D7 SWAP1 PUSH2 0x276A JUMP JUMPDEST PUSH1 0x40 MLOAD DUP1 SWAP2 SUB SWAP1 REVERT JUMPDEST POP JUMP JUMPDEST PUSH0 PUSH1 0x2 SLOAD SWAP1 POP SWAP1 JUMP JUMPDEST PUSH0 DUP1 PUSH2 0x8F6 PUSH2 0x14D4 JUMP JUMPDEST SWAP1 POP PUSH2 0x903 DUP6 DUP3 DUP6 PUSH2 0x14ED JUMP JUMPDEST PUSH2 0x90E DUP6 DUP6 DUP6 PUSH2 0x157F JUMP JUMPDEST PUSH1 0x1 SWAP2 POP POP SWAP4 SWAP3 POP POP POP JUMP JUMPDEST PUSH0 PUSH1 0x6 PUSH0 DUP4 DUP2 MSTORE PUSH1 0x20 ADD SWAP1 DUP2 MSTORE PUSH1 0x20 ADD PUSH0 KECCAK256 PUSH1 0x1 ADD SLOAD SWAP1 POP SWAP2 SWAP1 POP JUMP JUMPDEST PUSH32 0xDF8B4C520FFE197C5343C6F5AEC59570151EF9A492F2C624FD45DDDE6135EC42 DUP2 JUMP JUMPDEST PUSH2 0x964 DUP3 PUSH2 0x91A JUMP JUMPDEST PUSH2 0x96D DUP2 PUSH2 0x166F JUMP JUMPDEST PUSH2 0x977 DUP4 DUP4 PUSH2 0x1683 JUMP JUMPDEST POP POP POP POP JUMP JUMPDEST PUSH0 PUSH1 0x12 SWAP1 POP SWAP1 JUMP JUMPDEST PUSH2 0x98D PUSH2 0x14D4 JUMP JUMPDEST PUSH20 0xFFFFFFFFFFFFFFFFFFFFFFFFFFFFFFFFFFFFFFFF AND DUP2 PUSH20 0xFFFFFFFFFFFFFFFFFFFFFFFFFFFFFFFFFFFFFFFF AND EQ PUSH2 0x9F1 JUMPI PUSH1 0x40 MLOAD PUSH32 0x6697B23200000000000000000000000000000000000000000000000000000000 DUP2 MSTORE PUSH1 0x4 ADD PUSH1 0x40 MLOAD DUP1 SWAP2 SUB SWAP1 REVERT JUMPDEST PUSH2 0x9FB DUP3 DUP3 PUSH2 0x176D JUMP JUMPDEST POP POP POP JUMP JUMPDEST PUSH32 0xDF8B4C520FFE197C5343C6F5AEC59570151EF9A492F2C624FD45DDDE6135EC42 PUSH2 0xA2A DUP2 PUSH2 0x166F JUMP JUMPDEST PUSH2 0xA32 PUSH2 0x1857 JUMP JUMPDEST POP JUMP JUMPDEST PUSH2 0xA46 PUSH2 0xA40 PUSH2 0x14D4 JUMP JUMPDEST DUP3 PUSH2 0x18B8 JUMP JUMPDEST POP JUMP JUMPDEST PUSH0 PUSH1 0x5 PUSH0 SWAP1 SLOAD SWAP1 PUSH2 0x100 EXP SWAP1 DIV PUSH1 0xFF AND SWAP1 POP SWAP1 JUMP JUMPDEST PUSH0 DUP1 PUSH0 DUP4 PUSH20 0xFFFFFFFFFFFFFFFFFFFFFFFFFFFFFFFFFFFFFFFF AND PUSH20 0xFFFFFFFFFFFFFFFFFFFFFFFFFFFFFFFFFFFFFFFF AND DUP2 MSTORE PUSH1 0x20 ADD SWAP1 DUP2 MSTORE PUSH1 0x20 ADD PUSH0 KECCAK256 SLOAD SWAP1 POP SWAP2 SWAP1 POP JUMP JUMPDEST PUSH2 0xAB5 DUP3 PUSH2 0xAAF PUSH2 0x14D4 JUMP JUMPDEST DUP4 PUSH2 0x14ED JUMP JUMPDEST PUSH2 0xABF DUP3 DUP3 PUSH2 0x18B8 JUMP JUMPDEST POP POP JUMP JUMPDEST PUSH32 0xDF8B4C520FFE197C5343C6F5AEC59570151EF9A492F2C624FD45DDDE6135EC42 PUSH2 0xAED DUP2 PUSH2 0x166F JUMP JUMPDEST PUSH2 0xAF5 PUSH2 0x1937 JUMP JUMPDEST POP JUMP JUMPDEST PUSH32 0xDF8B4C520FFE197C5343C6F5AEC59570151EF9A492F2C624FD45DDDE6135EC42 PUSH2 0xB22 DUP2 PUSH2 0x166F JUMP JUMPDEST DUP2 MLOAD DUP4 MLOAD EQ PUSH2 0xB66 JUMPI PUSH1 0x40 MLOAD PUSH32 0x8C379A000000000000000000000000000000000000000000000000000000000 DUP2 MSTORE PUSH1 0x4 ADD PUSH2 0xB5D SWAP1 PUSH2 0x27F8 JUMP JUMPDEST PUSH1 0x40 MLOAD DUP1 SWAP2 SUB SWAP1 REVERT JUMPDEST PUSH0 JUMPDEST DUP4 MLOAD DUP2 LT ISZERO PUSH2 0xC8E JUMPI PUSH32 0x0 PUSH20 0xFFFFFFFFFFFFFFFFFFFFFFFFFFFFFFFFFFFFFFFF AND PUSH4 0x23B872DD CALLER DUP7 DUP5 DUP2 MLOAD DUP2 LT PUSH2 0xBC1 JUMPI PUSH2 0xBC0 PUSH2 0x2816 JUMP JUMPDEST JUMPDEST PUSH1 0x20 MUL PUSH1 0x20 ADD ADD MLOAD DUP7 DUP6 DUP2 MLOAD DUP2 LT PUSH2 0xBDC JUMPI PUSH2 0xBDB PUSH2 0x2816 JUMP JUMPDEST JUMPDEST PUSH1 0x20 MUL PUSH1 0x20 ADD ADD MLOAD PUSH1 0x40 MLOAD DUP5 PUSH4 0xFFFFFFFF AND PUSH1 0xE0 SHL DUP2 MSTORE PUSH1 0x4 ADD PUSH2 0xC02 SWAP4 SWAP3 SWAP2 SWAP1 PUSH2 0x2607 JUMP JUMPDEST PUSH1 0x20 PUSH1 0x40 MLOAD DUP1 DUP4 SUB DUP2 PUSH0 DUP8 GAS CALL ISZERO DUP1 ISZERO PUSH2 0xC1E JUMPI RETURNDATASIZE PUSH0 DUP1 RETURNDATACOPY RETURNDATASIZE PUSH0 REVERT JUMPDEST POP POP POP POP PUSH1 0x40 MLOAD RETURNDATASIZE PUSH1 0x1F NOT PUSH1 0x1F DUP3 ADD AND DUP3 ADD DUP1 PUSH1 0x40 MSTORE POP DUP2 ADD SWAP1 PUSH2 0xC42 SWAP2 SWAP1 PUSH2 0x2666 JUMP JUMPDEST PUSH2 0xC81 JUMPI PUSH1 0x40 MLOAD PUSH32 0x8C379A000000000000000000000000000000000000000000000000000000000 DUP2 MSTORE PUSH1 0x4 ADD PUSH2 0xC78 SWAP1 PUSH2 0x288D JUMP JUMPDEST PUSH1 0x40 MLOAD DUP1 SWAP2 SUB SWAP1 REVERT JUMPDEST DUP1 DUP1 PUSH1 0x1 ADD SWAP2 POP POP PUSH2 0xB68 JUMP JUMPDEST POP POP POP POP JUMP JUMPDEST PUSH0 PUSH1 0x6 PUSH0 DUP5 DUP2 MSTORE PUSH1 0x20 ADD SWAP1 DUP2 MSTORE PUSH1 0x20 ADD PUSH0 KECCAK256 PUSH0 ADD PUSH0 DUP4 PUSH20 0xFFFFFFFFFFFFFFFFFFFFFFFFFFFFFFFFFFFFFFFF AND PUSH20 0xFFFFFFFFFFFFFFFFFFFFFFFFFFFFFFFFFFFFFFFF AND DUP2 MSTORE PUSH1 0x20 ADD SWAP1 DUP2 MSTORE PUSH1 0x20 ADD PUSH0 KECCAK256 PUSH0 SWAP1 SLOAD SWAP1 PUSH2 0x100 EXP SWAP1 DIV PUSH1 0xFF AND SWAP1 POP SWAP3 SWAP2 POP POP JUMP JUMPDEST PUSH1 0x60 PUSH1 0x4 DUP1 SLOAD PUSH2 0xD07 SWAP1 PUSH2 0x2569 JUMP JUMPDEST DUP1 PUSH1 0x1F ADD PUSH1 0x20 DUP1 SWAP2 DIV MUL PUSH1 0x20 ADD PUSH1 0x40 MLOAD SWAP1 DUP2 ADD PUSH1 0x40 MSTORE DUP1 SWAP3 SWAP2 SWAP1 DUP2 DUP2 MSTORE PUSH1 0x20 ADD DUP3 DUP1 SLOAD PUSH2 0xD33 SWAP1 PUSH2 0x2569 JUMP JUMPDEST DUP1 ISZERO PUSH2 0xD7E JUMPI DUP1 PUSH1 0x1F LT PUSH2 0xD55 JUMPI PUSH2 0x100 DUP1 DUP4 SLOAD DIV MUL DUP4 MSTORE SWAP2 PUSH1 0x20 ADD SWAP2 PUSH2 0xD7E JUMP JUMPDEST DUP3 ADD SWAP2 SWAP1 PUSH0 MSTORE PUSH1 0x20 PUSH0 KECCAK256 SWAP1 JUMPDEST DUP2 SLOAD DUP2 MSTORE SWAP1 PUSH1 0x1 ADD SWAP1 PUSH1 0x20 ADD DUP1 DUP4 GT PUSH2 0xD61 JUMPI DUP3 SWAP1 SUB PUSH1 0x1F AND DUP3 ADD SWAP2 JUMPDEST POP POP POP POP POP SWAP1 POP SWAP1 JUMP JUMPDEST PUSH32 0x0 DUP2 JUMP JUMPDEST PUSH0 DUP1 SHL DUP2 JUMP JUMPDEST PUSH0 DUP1 PUSH2 0xDBC PUSH2 0x14D4 JUMP JUMPDEST SWAP1 POP PUSH2 0xDC9 DUP2 DUP6 DUP6 PUSH2 0x157F JUMP JUMPDEST PUSH1 0x1 SWAP2 POP POP SWAP3 SWAP2 POP POP JUMP JUMPDEST PUSH32 0x0 DUP2 JUMP JUMPDEST PUSH32 0x0 TIMESTAMP LT ISZERO PUSH2 0xE5B JUMPI PUSH1 0x40 MLOAD PUSH32 0x8C379A000000000000000000000000000000000000000000000000000000000 DUP2 MSTORE PUSH1 0x4 ADD PUSH2 0xE52 SWAP1 PUSH2 0x28F5 JUMP JUMPDEST PUSH1 0x40 MLOAD DUP1 SWAP2 SUB SWAP1 REVERT JUMPDEST PUSH0 DUP2 GT PUSH2 0xE9D JUMPI PUSH1 0x40 MLOAD PUSH32 0x8C379A000000000000000000000000000000000000000000000000000000000 DUP2 MSTORE PUSH1 0x4 ADD PUSH2 0xE94 SWAP1 PUSH2 0x295D JUMP JUMPDEST PUSH1 0x40 MLOAD DUP1 SWAP2 SUB SWAP1 REVERT JUMPDEST ADDRESS PUSH20 0xFFFFFFFFFFFFFFFFFFFFFFFFFFFFFFFFFFFFFFFF AND PUSH4 0x23B872DD CALLER ADDRESS DUP5 PUSH1 0x40 MLOAD DUP5 PUSH4 0xFFFFFFFF AND PUSH1 0xE0 SHL DUP2 MSTORE PUSH1 0x4 ADD PUSH2 0xEDA SWAP4 SWAP3 SWAP2 SWAP1 PUSH2 0x2607 JUMP JUMPDEST PUSH1 0x20 PUSH1 0x40 MLOAD DUP1 DUP4 SUB DUP2 PUSH0 DUP8 GAS CALL ISZERO DUP1 ISZERO PUSH2 0xEF6 JUMPI RETURNDATASIZE PUSH0 DUP1 RETURNDATACOPY RETURNDATASIZE PUSH0 REVERT JUMPDEST POP POP POP POP PUSH1 0x40 MLOAD RETURNDATASIZE PUSH1 0x1F NOT PUSH1 0x1F DUP3 ADD AND DUP3 ADD DUP1 PUSH1 0x40 MSTORE POP DUP2 ADD SWAP1 PUSH2 0xF1A SWAP2 SWAP1 PUSH2 0x2666 JUMP JUMPDEST PUSH2 0xF59 JUMPI PUSH1 0x40 MLOAD PUSH32 0x8C379A000000000000000000000000000000000000000000000000000000000 DUP2 MSTORE PUSH1 0x4 ADD PUSH2 0xF50 SWAP1 PUSH2 0x276A JUMP JUMPDEST PUSH1 0x40 MLOAD DUP1 SWAP2 SUB SWAP1 REVERT JUMPDEST PUSH32 0x0 PUSH20 0xFFFFFFFFFFFFFFFFFFFFFFFFFFFFFFFFFFFFFFFF AND PUSH4 0xA9059CBB CALLER PUSH32 0x0 DUP5 PUSH2 0xFC2 SWAP2 SWAP1 PUSH2 0x25C6 JUMP JUMPDEST PUSH1 0x40 MLOAD DUP4 PUSH4 0xFFFFFFFF AND PUSH1 0xE0 SHL DUP2 MSTORE PUSH1 0x4 ADD PUSH2 0xFDF SWAP3 SWAP2 SWAP1 PUSH2 0x26F9 JUMP JUMPDEST PUSH1 0x20 PUSH1 0x40 MLOAD DUP1 DUP4 SUB DUP2 PUSH0 DUP8 GAS CALL ISZERO DUP1 ISZERO PUSH2 0xFFB JUMPI RETURNDATASIZE PUSH0 DUP1 RETURNDATACOPY RETURNDATASIZE PUSH0 REVERT JUMPDEST POP POP POP POP PUSH1 0x40 MLOAD RETURNDATASIZE PUSH1 0x1F NOT PUSH1 0x1F DUP3 ADD AND DUP3 ADD DUP1 PUSH1 0x40 MSTORE POP DUP2 ADD SWAP1 PUSH2 0x101F SWAP2 SWAP1 PUSH2 0x2666 JUMP JUMPDEST PUSH2 0x105E JUMPI PUSH1 0x40 MLOAD PUSH32 0x8C379A000000000000000000000000000000000000000000000000000000000 DUP2 MSTORE PUSH1 0x4 ADD PUSH2 0x1055 SWAP1 PUSH2 0x26DB JUMP JUMPDEST PUSH1 0x40 MLOAD DUP1 SWAP2 SUB SWAP1 REVERT JUMPDEST PUSH2 0x1068 ADDRESS DUP3 PUSH2 0x18B8 JUMP JUMPDEST POP JUMP JUMPDEST PUSH32 0xF877234297EF562D54F0328F892ACFC1D6C1E44CA89F02E3A2C2A4736F6095B7 PUSH2 0x1095 DUP2 PUSH2 0x166F JUMP JUMPDEST PUSH0 PUSH32 0x0 PUSH20 0xFFFFFFFFFFFFFFFFFFFFFFFFFFFFFFFFFFFFFFFF AND PUSH4 0x70A08231 ADDRESS PUSH1 0x40 MLOAD DUP3 PUSH4 0xFFFFFFFF AND PUSH1 0xE0 SHL DUP2 MSTORE PUSH1 0x4 ADD PUSH2 0x10EF SWAP2 SWAP1 PUSH2 0x24E5 JUMP JUMPDEST PUSH1 0x20 PUSH1 0x40 MLOAD DUP1 DUP4 SUB DUP2 DUP7 GAS STATICCALL ISZERO DUP1 ISZERO PUSH2 0x110A JUMPI RETURNDATASIZE PUSH0 DUP1 RETURNDATACOPY RETURNDATASIZE PUSH0 REVERT JUMPDEST POP POP POP POP PUSH1 0x40 MLOAD RETURNDATASIZE PUSH1 0x1F NOT PUSH1 0x1F DUP3 ADD AND DUP3 ADD DUP1 PUSH1 0x40 MSTORE POP DUP2 ADD SWAP1 PUSH2 0x112E SWAP2 SWAP1 PUSH2 0x298F JUMP JUMPDEST SWAP1 POP PUSH0 DUP2 GT PUSH2 0x1172 JUMPI PUSH1 0x40 MLOAD PUSH32 0x8C379A000000000000000000000000000000000000000000000000000000000 DUP2 MSTORE PUSH1 0x4 ADD PUSH2 0x1169 SWAP1 PUSH2 0x2A04 JUMP JUMPDEST PUSH1 0x40 MLOAD DUP1 SWAP2 SUB SWAP1 REVERT JUMPDEST ADDRESS PUSH20 0xFFFFFFFFFFFFFFFFFFFFFFFFFFFFFFFFFFFFFFFF AND PUSH4 0xA9059CBB CALLER DUP4 PUSH1 0x40 MLOAD DUP4 PUSH4 0xFFFFFFFF AND PUSH1 0xE0 SHL DUP2 MSTORE PUSH1 0x4 ADD PUSH2 0x11AD SWAP3 SWAP2 SWAP1 PUSH2 0x26F9 JUMP JUMPDEST PUSH1 0x20 PUSH1 0x40 MLOAD DUP1 DUP4 SUB DUP2 PUSH0 DUP8 GAS CALL ISZERO DUP1 ISZERO PUSH2 0x11C9 JUMPI RETURNDATASIZE PUSH0 DUP1 RETURNDATACOPY RETURNDATASIZE PUSH0 REVERT JUMPDEST POP POP POP POP PUSH1 0x40 MLOAD RETURNDATASIZE PUSH1 0x1F NOT PUSH1 0x1F DUP3 ADD AND DUP3 ADD DUP1 PUSH1 0x40 MSTORE POP DUP2 ADD SWAP1 PUSH2 0x11ED SWAP2 SWAP1 PUSH2 0x2666 JUMP JUMPDEST PUSH2 0x122C JUMPI PUSH1 0x40 MLOAD PUSH32 0x8C379A000000000000000000000000000000000000000000000000000000000 DUP2 MSTORE PUSH1 0x4 ADD PUSH2 0x1223 SWAP1 PUSH2 0x2A6C JUMP JUMPDEST PUSH1 0x40 MLOAD DUP1 SWAP2 SUB SWAP1 REVERT JUMPDEST POP POP JUMP JUMPDEST PUSH2 0x1239 DUP3 PUSH2 0x91A JUMP JUMPDEST PUSH2 0x1242 DUP2 PUSH2 0x166F JUMP JUMPDEST PUSH2 0x124C DUP4 DUP4 PUSH2 0x176D JUMP JUMPDEST POP POP POP POP JUMP JUMPDEST PUSH32 0x0 DUP2 JUMP JUMPDEST PUSH0 PUSH1 0x1 PUSH0 DUP5 PUSH20 0xFFFFFFFFFFFFFFFFFFFFFFFFFFFFFFFFFFFFFFFF AND PUSH20 0xFFFFFFFFFFFFFFFFFFFFFFFFFFFFFFFFFFFFFFFF AND DUP2 MSTORE PUSH1 0x20 ADD SWAP1 DUP2 MSTORE PUSH1 0x20 ADD PUSH0 KECCAK256 PUSH0 DUP4 PUSH20 0xFFFFFFFFFFFFFFFFFFFFFFFFFFFFFFFFFFFFFFFF AND PUSH20 0xFFFFFFFFFFFFFFFFFFFFFFFFFFFFFFFFFFFFFFFF AND DUP2 MSTORE PUSH1 0x20 ADD SWAP1 DUP2 MSTORE PUSH1 0x20 ADD PUSH0 KECCAK256 SLOAD SWAP1 POP SWAP3 SWAP2 POP POP JUMP JUMPDEST PUSH32 0xF877234297EF562D54F0328F892ACFC1D6C1E44CA89F02E3A2C2A4736F6095B7 DUP2 JUMP JUMPDEST PUSH32 0x0 DUP2 JUMP JUMPDEST PUSH32 0xDF8B4C520FFE197C5343C6F5AEC59570151EF9A492F2C624FD45DDDE6135EC42 PUSH2 0x136A DUP2 PUSH2 0x166F JUMP JUMPDEST PUSH32 0x0 PUSH20 0xFFFFFFFFFFFFFFFFFFFFFFFFFFFFFFFFFFFFFFFF AND PUSH4 0x23B872DD PUSH32 0x0 DUP6 DUP6 PUSH1 0x40 MLOAD DUP5 PUSH4 0xFFFFFFFF AND PUSH1 0xE0 SHL DUP2 MSTORE PUSH1 0x4 ADD PUSH2 0x13E7 SWAP4 SWAP3 SWAP2 SWAP1 PUSH2 0x2607 JUMP JUMPDEST PUSH1 0x20 PUSH1 0x40 MLOAD DUP1 DUP4 SUB DUP2 PUSH0 DUP8 GAS CALL ISZERO DUP1 ISZERO PUSH2 0x1403 JUMPI RETURNDATASIZE PUSH0 DUP1 RETURNDATACOPY RETURNDATASIZE PUSH0 REVERT JUMPDEST POP POP POP POP PUSH1 0x40 MLOAD RETURNDATASIZE PUSH1 0x1F NOT PUSH1 0x1F DUP3 ADD AND DUP3 ADD DUP1 PUSH1 0x40 MSTORE POP DUP2 ADD SWAP1 PUSH2 0x1427 SWAP2 SWAP1 PUSH2 0x2666 JUMP JUMPDEST PUSH2 0x1466 JUMPI PUSH1 0x40 MLOAD PUSH32 0x8C379A000000000000000000000000000000000000000000000000000000000 DUP2 MSTORE PUSH1 0x4 ADD PUSH2 0x145D SWAP1 PUSH2 0x288D JUMP JUMPDEST PUSH1 0x40 MLOAD DUP1 SWAP2 SUB SWAP1 REVERT JUMPDEST POP POP POP JUMP JUMPDEST PUSH0 PUSH32 0x1FFC9A700000000000000000000000000000000000000000000000000000000 PUSH28 0xFFFFFFFFFFFFFFFFFFFFFFFFFFFFFFFFFFFFFFFFFFFFFFFFFFFFFFFF NOT AND DUP3 PUSH28 0xFFFFFFFFFFFFFFFFFFFFFFFFFFFFFFFFFFFFFFFFFFFFFFFFFFFFFFFF NOT AND EQ SWAP1 POP SWAP2 SWAP1 POP JUMP JUMPDEST PUSH0 CALLER SWAP1 POP SWAP1 JUMP JUMPDEST PUSH2 0x14E8 DUP4 DUP4 DUP4 PUSH1 0x1 PUSH2 0x1999 JUMP JUMPDEST POP POP POP JUMP JUMPDEST PUSH0 PUSH2 0x14F8 DUP5 DUP5 PUSH2 0x1276 JUMP JUMPDEST SWAP1 POP PUSH32 0xFFFFFFFFFFFFFFFFFFFFFFFFFFFFFFFFFFFFFFFFFFFFFFFFFFFFFFFFFFFFFFFF DUP2 EQ PUSH2 0x1579 JUMPI DUP2 DUP2 LT ISZERO PUSH2 0x156A JUMPI DUP3 DUP2 DUP4 PUSH1 0x40 MLOAD PUSH32 0xFB8F41B200000000000000000000000000000000000000000000000000000000 DUP2 MSTORE PUSH1 0x4 ADD PUSH2 0x1561 SWAP4 SWAP3 SWAP2 SWAP1 PUSH2 0x2A8A JUMP JUMPDEST PUSH1 0x40 MLOAD DUP1 SWAP2 SUB SWAP1 REVERT JUMPDEST PUSH2 0x1578 DUP5 DUP5 DUP5 DUP5 SUB PUSH0 PUSH2 0x1999 JUMP JUMPDEST JUMPDEST POP POP POP POP JUMP JUMPDEST PUSH0 PUSH20 0xFFFFFFFFFFFFFFFFFFFFFFFFFFFFFFFFFFFFFFFF AND DUP4 PUSH20 0xFFFFFFFFFFFFFFFFFFFFFFFFFFFFFFFFFFFFFFFF AND SUB PUSH2 0x15EF JUMPI PUSH0 PUSH1 0x40 MLOAD PUSH32 0x96C6FD1E00000000000000000000000000000000000000000000000000000000 DUP2 MSTORE PUSH1 0x4 ADD PUSH2 0x15E6 SWAP2 SWAP1 PUSH2 0x24E5 JUMP JUMPDEST PUSH1 0x40 MLOAD DUP1 SWAP2 SUB SWAP1 REVERT JUMPDEST PUSH0 PUSH20 0xFFFFFFFFFFFFFFFFFFFFFFFFFFFFFFFFFFFFFFFF AND DUP3 PUSH20 0xFFFFFFFFFFFFFFFFFFFFFFFFFFFFFFFFFFFFFFFF AND SUB PUSH2 0x165F JUMPI PUSH0 PUSH1 0x40 MLOAD PUSH32 0xEC442F0500000000000000000000000000000000000000000000000000000000 DUP2 MSTORE PUSH1 0x4 ADD PUSH2 0x1656 SWAP2 SWAP1 PUSH2 0x24E5 JUMP JUMPDEST PUSH1 0x40 MLOAD DUP1 SWAP2 SUB SWAP1 REVERT JUMPDEST PUSH2 0x166A DUP4 DUP4 DUP4 PUSH2 0x1B68 JUMP JUMPDEST POP POP POP JUMP JUMPDEST PUSH2 0x1680 DUP2 PUSH2 0x167B PUSH2 0x14D4 JUMP JUMPDEST PUSH2 0x1B78 JUMP JUMPDEST POP JUMP JUMPDEST PUSH0 PUSH2 0x168E DUP4 DUP4 PUSH2 0xC94 JUMP JUMPDEST PUSH2 0x1763 JUMPI PUSH1 0x1 PUSH1 0x6 PUSH0 DUP6 DUP2 MSTORE PUSH1 0x20 ADD SWAP1 DUP2 MSTORE PUSH1 0x20 ADD PUSH0 KECCAK256 PUSH0 ADD PUSH0 DUP5 PUSH20 0xFFFFFFFFFFFFFFFFFFFFFFFFFFFFFFFFFFFFFFFF AND PUSH20 0xFFFFFFFFFFFFFFFFFFFFFFFFFFFFFFFFFFFFFFFF AND DUP2 MSTORE PUSH1 0x20 ADD SWAP1 DUP2 MSTORE PUSH1 0x20 ADD PUSH0 KECCAK256 PUSH0 PUSH2 0x100 EXP DUP2 SLOAD DUP2 PUSH1 0xFF MUL NOT AND SWAP1 DUP4 ISZERO ISZERO MUL OR SWAP1 SSTORE POP PUSH2 0x1700 PUSH2 0x14D4 JUMP JUMPDEST PUSH20 0xFFFFFFFFFFFFFFFFFFFFFFFFFFFFFFFFFFFFFFFF AND DUP3 PUSH20 0xFFFFFFFFFFFFFFFFFFFFFFFFFFFFFFFFFFFFFFFF AND DUP5 PUSH32 0x2F8788117E7EFF1D82E926EC794901D17C78024A50270940304540A733656F0D PUSH1 0x40 MLOAD PUSH1 0x40 MLOAD DUP1 SWAP2 SUB SWAP1 LOG4 PUSH1 0x1 SWAP1 POP PUSH2 0x1767 JUMP JUMPDEST PUSH0 SWAP1 POP JUMPDEST SWAP3 SWAP2 POP POP JUMP JUMPDEST PUSH0 PUSH2 0x1778 DUP4 DUP4 PUSH2 0xC94 JUMP JUMPDEST ISZERO PUSH2 0x184D JUMPI PUSH0 PUSH1 0x6 PUSH0 DUP6 DUP2 MSTORE PUSH1 0x20 ADD SWAP1 DUP2 MSTORE PUSH1 0x20 ADD PUSH0 KECCAK256 PUSH0 ADD PUSH0 DUP5 PUSH20 0xFFFFFFFFFFFFFFFFFFFFFFFFFFFFFFFFFFFFFFFF AND PUSH20 0xFFFFFFFFFFFFFFFFFFFFFFFFFFFFFFFFFFFFFFFF AND DUP2 MSTORE PUSH1 0x20 ADD SWAP1 DUP2 MSTORE PUSH1 0x20 ADD PUSH0 KECCAK256 PUSH0 PUSH2 0x100 EXP DUP2 SLOAD DUP2 PUSH1 0xFF MUL NOT AND SWAP1 DUP4 ISZERO ISZERO MUL OR SWAP1 SSTORE POP PUSH2 0x17EA PUSH2 0x14D4 JUMP JUMPDEST PUSH20 0xFFFFFFFFFFFFFFFFFFFFFFFFFFFFFFFFFFFFFFFF AND DUP3 PUSH20 0xFFFFFFFFFFFFFFFFFFFFFFFFFFFFFFFFFFFFFFFF AND DUP5 PUSH32 0xF6391F5C32D9C69D2A47EA670B442974B53935D1EDC7FD64EB21E047A839171B PUSH1 0x40 MLOAD PUSH1 0x40 MLOAD DUP1 SWAP2 SUB SWAP1 LOG4 PUSH1 0x1 SWAP1 POP PUSH2 0x1851 JUMP JUMPDEST PUSH0 SWAP1 POP JUMPDEST SWAP3 SWAP2 POP POP JUMP JUMPDEST PUSH2 0x185F PUSH2 0x1BC9 JUMP JUMPDEST PUSH0 PUSH1 0x5 PUSH0 PUSH2 0x100 EXP DUP2 SLOAD DUP2 PUSH1 0xFF MUL NOT AND SWAP1 DUP4 ISZERO ISZERO MUL OR SWAP1 SSTORE POP PUSH32 0x5DB9EE0A495BF2E6FF9C91A7834C1BA4FDD244A5E8AA4E537BD38AEAE4B073AA PUSH2 0x18A1 PUSH2 0x14D4 JUMP JUMPDEST PUSH1 0x40 MLOAD PUSH2 0x18AE SWAP2 SWAP1 PUSH2 0x24E5 JUMP JUMPDEST PUSH1 0x40 MLOAD DUP1 SWAP2 SUB SWAP1 LOG1 JUMP JUMPDEST PUSH0 PUSH20 0xFFFFFFFFFFFFFFFFFFFFFFFFFFFFFFFFFFFFFFFF AND DUP3 PUSH20 0xFFFFFFFFFFFFFFFFFFFFFFFFFFFFFFFFFFFFFFFF AND SUB PUSH2 0x1928 JUMPI PUSH0 PUSH1 0x40 MLOAD PUSH32 0x96C6FD1E00000000000000000000000000000000000000000000000000000000 DUP2 MSTORE PUSH1 0x4 ADD PUSH2 0x191F SWAP2 SWAP1 PUSH2 0x24E5 JUMP JUMPDEST PUSH1 0x40 MLOAD DUP1 SWAP2 SUB SWAP1 REVERT JUMPDEST PUSH2 0x1933 DUP3 PUSH0 DUP4 PUSH2 0x1B68 JUMP JUMPDEST POP POP JUMP JUMPDEST PUSH2 0x193F PUSH2 0x1C09 JUMP JUMPDEST PUSH1 0x1 PUSH1 0x5 PUSH0 PUSH2 0x100 EXP DUP2 SLOAD DUP2 PUSH1 0xFF MUL NOT AND SWAP1 DUP4 ISZERO ISZERO MUL OR SWAP1 SSTORE POP PUSH32 0x62E78CEA01BEE320CD4E420270B5EA74000D11B0C9F74754EBDBFC544B05A258 PUSH2 0x1982 PUSH2 0x14D4 JUMP JUMPDEST PUSH1 0x40 MLOAD PUSH2 0x198F SWAP2 SWAP1 PUSH2 0x24E5 JUMP JUMPDEST PUSH1 0x40 MLOAD DUP1 SWAP2 SUB SWAP1 LOG1 JUMP JUMPDEST PUSH0 PUSH20 0xFFFFFFFFFFFFFFFFFFFFFFFFFFFFFFFFFFFFFFFF AND DUP5 PUSH20 0xFFFFFFFFFFFFFFFFFFFFFFFFFFFFFFFFFFFFFFFF AND SUB PUSH2 0x1A09 JUMPI PUSH0 PUSH1 0x40 MLOAD PUSH32 0xE602DF0500000000000000000000000000000000000000000000000000000000 DUP2 MSTORE PUSH1 0x4 ADD PUSH2 0x1A00 SWAP2 SWAP1 PUSH2 0x24E5 JUMP JUMPDEST PUSH1 0x40 MLOAD DUP1 SWAP2 SUB SWAP1 REVERT JUMPDEST PUSH0 PUSH20 0xFFFFFFFFFFFFFFFFFFFFFFFFFFFFFFFFFFFFFFFF AND DUP4 PUSH20 0xFFFFFFFFFFFFFFFFFFFFFFFFFFFFFFFFFFFFFFFF AND SUB PUSH2 0x1A79 JUMPI PUSH0 PUSH1 0x40 MLOAD PUSH32 0x94280D6200000000000000000000000000000000000000000000000000000000 DUP2 MSTORE PUSH1 0x4 ADD PUSH2 0x1A70 SWAP2 SWAP1 PUSH2 0x24E5 JUMP JUMPDEST PUSH1 0x40 MLOAD DUP1 SWAP2 SUB SWAP1 REVERT JUMPDEST DUP2 PUSH1 0x1 PUSH0 DUP7 PUSH20 0xFFFFFFFFFFFFFFFFFFFFFFFFFFFFFFFFFFFFFFFF AND PUSH20 0xFFFFFFFFFFFFFFFFFFFFFFFFFFFFFFFFFFFFFFFF AND DUP2 MSTORE PUSH1 0x20 ADD SWAP1 DUP2 MSTORE PUSH1 0x20 ADD PUSH0 KECCAK256 PUSH0 DUP6 PUSH20 0xFFFFFFFFFFFFFFFFFFFFFFFFFFFFFFFFFFFFFFFF AND PUSH20 0xFFFFFFFFFFFFFFFFFFFFFFFFFFFFFFFFFFFFFFFF AND DUP2 MSTORE PUSH1 0x20 ADD SWAP1 DUP2 MSTORE PUSH1 0x20 ADD PUSH0 KECCAK256 DUP2 SWAP1 SSTORE POP DUP1 ISZERO PUSH2 0x1B62 JUMPI DUP3 PUSH20 0xFFFFFFFFFFFFFFFFFFFFFFFFFFFFFFFFFFFFFFFF AND DUP5 PUSH20 0xFFFFFFFFFFFFFFFFFFFFFFFFFFFFFFFFFFFFFFFF AND PUSH32 0x8C5BE1E5EBEC7D5BD14F71427D1E84F3DD0314C0F7B2291E5B200AC8C7C3B925 DUP5 PUSH1 0x40 MLOAD PUSH2 0x1B59 SWAP2 SWAP1 PUSH2 0x20D4 JUMP JUMPDEST PUSH1 0x40 MLOAD DUP1 SWAP2 SUB SWAP1 LOG3 JUMPDEST POP POP POP POP JUMP JUMPDEST PUSH2 0x1B73 DUP4 DUP4 DUP4 PUSH2 0x1C4A JUMP JUMPDEST POP POP POP JUMP JUMPDEST PUSH2 0x1B82 DUP3 DUP3 PUSH2 0xC94 JUMP JUMPDEST PUSH2 0x1BC5 JUMPI DUP1 DUP3 PUSH1 0x40 MLOAD PUSH32 0xE2517D3F00000000000000000000000000000000000000000000000000000000 DUP2 MSTORE PUSH1 0x4 ADD PUSH2 0x1BBC SWAP3 SWAP2 SWAP1 PUSH2 0x2ABF JUMP JUMPDEST PUSH1 0x40 MLOAD DUP1 SWAP2 SUB SWAP1 REVERT JUMPDEST POP POP JUMP JUMPDEST PUSH2 0x1BD1 PUSH2 0xA49 JUMP JUMPDEST PUSH2 0x1C07 JUMPI PUSH1 0x40 MLOAD PUSH32 0x8DFC202B00000000000000000000000000000000000000000000000000000000 DUP2 MSTORE PUSH1 0x4 ADD PUSH1 0x40 MLOAD DUP1 SWAP2 SUB SWAP1 REVERT JUMPDEST JUMP JUMPDEST PUSH2 0x1C11 PUSH2 0xA49 JUMP JUMPDEST ISZERO PUSH2 0x1C48 JUMPI PUSH1 0x40 MLOAD PUSH32 0xD93C066500000000000000000000000000000000000000000000000000000000 DUP2 MSTORE PUSH1 0x4 ADD PUSH1 0x40 MLOAD DUP1 SWAP2 SUB SWAP1 REVERT JUMPDEST JUMP JUMPDEST PUSH2 0x1C52 PUSH2 0x1C09 JUMP JUMPDEST PUSH2 0x1C5D DUP4 DUP4 DUP4 PUSH2 0x1C62 JUMP JUMPDEST POP POP POP JUMP JUMPDEST PUSH0 PUSH20 0xFFFFFFFFFFFFFFFFFFFFFFFFFFFFFFFFFFFFFFFF AND DUP4 PUSH20 0xFFFFFFFFFFFFFFFFFFFFFFFFFFFFFFFFFFFFFFFF AND SUB PUSH2 0x1CB2 JUMPI DUP1 PUSH1 0x2 PUSH0 DUP3 DUP3 SLOAD PUSH2 0x1CA6 SWAP2 SWAP1 PUSH2 0x2AE6 JUMP JUMPDEST SWAP3 POP POP DUP2 SWAP1 SSTORE POP PUSH2 0x1D80 JUMP JUMPDEST PUSH0 DUP1 PUSH0 DUP6 PUSH20 0xFFFFFFFFFFFFFFFFFFFFFFFFFFFFFFFFFFFFFFFF AND PUSH20 0xFFFFFFFFFFFFFFFFFFFFFFFFFFFFFFFFFFFFFFFF AND DUP2 MSTORE PUSH1 0x20 ADD SWAP1 DUP2 MSTORE PUSH1 0x20 ADD PUSH0 KECCAK256 SLOAD SWAP1 POP DUP2 DUP2 LT ISZERO PUSH2 0x1D3B JUMPI DUP4 DUP2 DUP4 PUSH1 0x40 MLOAD PUSH32 0xE450D38C00000000000000000000000000000000000000000000000000000000 DUP2 MSTORE PUSH1 0x4 ADD PUSH2 0x1D32 SWAP4 SWAP3 SWAP2 SWAP1 PUSH2 0x2A8A JUMP JUMPDEST PUSH1 0x40 MLOAD DUP1 SWAP2 SUB SWAP1 REVERT JUMPDEST DUP2 DUP2 SUB PUSH0 DUP1 DUP7 PUSH20 0xFFFFFFFFFFFFFFFFFFFFFFFFFFFFFFFFFFFFFFFF AND PUSH20 0xFFFFFFFFFFFFFFFFFFFFFFFFFFFFFFFFFFFFFFFF AND DUP2 MSTORE PUSH1 0x20 ADD SWAP1 DUP2 MSTORE PUSH1 0x20 ADD PUSH0 KECCAK256 DUP2 SWAP1 SSTORE POP POP JUMPDEST PUSH0 PUSH20 0xFFFFFFFFFFFFFFFFFFFFFFFFFFFFFFFFFFFFFFFF AND DUP3 PUSH20 0xFFFFFFFFFFFFFFFFFFFFFFFFFFFFFFFFFFFFFFFF AND SUB PUSH2 0x1DC7 JUMPI DUP1 PUSH1 0x2 PUSH0 DUP3 DUP3 SLOAD SUB SWAP3 POP POP DUP2 SWAP1 SSTORE POP PUSH2 0x1E11 JUMP JUMPDEST DUP1 PUSH0 DUP1 DUP5 PUSH20 0xFFFFFFFFFFFFFFFFFFFFFFFFFFFFFFFFFFFFFFFF AND PUSH20 0xFFFFFFFFFFFFFFFFFFFFFFFFFFFFFFFFFFFFFFFF AND DUP2 MSTORE PUSH1 0x20 ADD SWAP1 DUP2 MSTORE PUSH1 0x20 ADD PUSH0 KECCAK256 PUSH0 DUP3 DUP3 SLOAD ADD SWAP3 POP POP DUP2 SWAP1 SSTORE POP JUMPDEST DUP2 PUSH20 0xFFFFFFFFFFFFFFFFFFFFFFFFFFFFFFFFFFFFFFFF AND DUP4 PUSH20 0xFFFFFFFFFFFFFFFFFFFFFFFFFFFFFFFFFFFFFFFF AND PUSH32 0xDDF252AD1BE2C89B69C2B068FC378DAA952BA7F163C4A11628F55A4DF523B3EF DUP4 PUSH1 0x40 MLOAD PUSH2 0x1E6E SWAP2 SWAP1 PUSH2 0x20D4 JUMP JUMPDEST PUSH1 0x40 MLOAD DUP1 SWAP2 SUB SWAP1 LOG3 POP POP POP JUMP JUMPDEST PUSH0 PUSH1 0x40 MLOAD SWAP1 POP SWAP1 JUMP JUMPDEST PUSH0 DUP1 REVERT JUMPDEST PUSH0 DUP1 REVERT JUMPDEST PUSH0 PUSH32 0xFFFFFFFF00000000000000000000000000000000000000000000000000000000 DUP3 AND SWAP1 POP SWAP2 SWAP1 POP JUMP JUMPDEST PUSH2 0x1EC0 DUP2 PUSH2 0x1E8C JUMP JUMPDEST DUP2 EQ PUSH2 0x1ECA JUMPI PUSH0 DUP1 REVERT JUMPDEST POP JUMP JUMPDEST PUSH0 DUP2 CALLDATALOAD SWAP1 POP PUSH2 0x1EDB DUP2 PUSH2 0x1EB7 JUMP JUMPDEST SWAP3 SWAP2 POP POP JUMP JUMPDEST PUSH0 PUSH1 0x20 DUP3 DUP5 SUB SLT ISZERO PUSH2 0x1EF6 JUMPI PUSH2 0x1EF5 PUSH2 0x1E84 JUMP JUMPDEST JUMPDEST PUSH0 PUSH2 0x1F03 DUP5 DUP3 DUP6 ADD PUSH2 0x1ECD JUMP JUMPDEST SWAP2 POP POP SWAP3 SWAP2 POP POP JUMP JUMPDEST PUSH0 DUP2 ISZERO ISZERO SWAP1 POP SWAP2 SWAP1 POP JUMP JUMPDEST PUSH2 0x1F20 DUP2 PUSH2 0x1F0C JUMP JUMPDEST DUP3 MSTORE POP POP JUMP JUMPDEST PUSH0 PUSH1 0x20 DUP3 ADD SWAP1 POP PUSH2 0x1F39 PUSH0 DUP4 ADD DUP5 PUSH2 0x1F17 JUMP JUMPDEST SWAP3 SWAP2 POP POP JUMP JUMPDEST PUSH0 DUP2 MLOAD SWAP1 POP SWAP2 SWAP1 POP JUMP JUMPDEST PUSH0 DUP3 DUP3 MSTORE PUSH1 0x20 DUP3 ADD SWAP1 POP SWAP3 SWAP2 POP POP JUMP JUMPDEST DUP3 DUP2 DUP4 MCOPY PUSH0 DUP4 DUP4 ADD MSTORE POP POP POP JUMP JUMPDEST PUSH0 PUSH1 0x1F NOT PUSH1 0x1F DUP4 ADD AND SWAP1 POP SWAP2 SWAP1 POP JUMP JUMPDEST PUSH0 PUSH2 0x1F81 DUP3 PUSH2 0x1F3F JUMP JUMPDEST PUSH2 0x1F8B DUP2 DUP6 PUSH2 0x1F49 JUMP JUMPDEST SWAP4 POP PUSH2 0x1F9B DUP2 DUP6 PUSH1 0x20 DUP7 ADD PUSH2 0x1F59 JUMP JUMPDEST PUSH2 0x1FA4 DUP2 PUSH2 0x1F67 JUMP JUMPDEST DUP5 ADD SWAP2 POP POP SWAP3 SWAP2 POP POP JUMP JUMPDEST PUSH0 PUSH1 0x20 DUP3 ADD SWAP1 POP DUP2 DUP2 SUB PUSH0 DUP4 ADD MSTORE PUSH2 0x1FC7 DUP2 DUP5 PUSH2 0x1F77 JUMP JUMPDEST SWAP1 POP SWAP3 SWAP2 POP POP JUMP JUMPDEST PUSH0 PUSH20 0xFFFFFFFFFFFFFFFFFFFFFFFFFFFFFFFFFFFFFFFF DUP3 AND SWAP1 POP SWAP2 SWAP1 POP JUMP JUMPDEST PUSH0 PUSH2 0x1FF8 DUP3 PUSH2 0x1FCF JUMP JUMPDEST SWAP1 POP SWAP2 SWAP1 POP JUMP JUMPDEST PUSH2 0x2008 DUP2 PUSH2 0x1FEE JUMP JUMPDEST DUP2 EQ PUSH2 0x2012 JUMPI PUSH0 DUP1 REVERT JUMPDEST POP JUMP JUMPDEST PUSH0 DUP2 CALLDATALOAD SWAP1 POP PUSH2 0x2023 DUP2 PUSH2 0x1FFF JUMP JUMPDEST SWAP3 SWAP2 POP POP JUMP JUMPDEST PUSH0 DUP2 SWAP1 POP SWAP2 SWAP1 POP JUMP JUMPDEST PUSH2 0x203B DUP2 PUSH2 0x2029 JUMP JUMPDEST DUP2 EQ PUSH2 0x2045 JUMPI PUSH0 DUP1 REVERT JUMPDEST POP JUMP JUMPDEST PUSH0 DUP2 CALLDATALOAD SWAP1 POP PUSH2 0x2056 DUP2 PUSH2 0x2032 JUMP JUMPDEST SWAP3 SWAP2 POP POP JUMP JUMPDEST PUSH0 DUP1 PUSH1 0x40 DUP4 DUP6 SUB SLT ISZERO PUSH2 0x2072 JUMPI PUSH2 0x2071 PUSH2 0x1E84 JUMP JUMPDEST JUMPDEST PUSH0 PUSH2 0x207F DUP6 DUP3 DUP7 ADD PUSH2 0x2015 JUMP JUMPDEST SWAP3 POP POP PUSH1 0x20 PUSH2 0x2090 DUP6 DUP3 DUP7 ADD PUSH2 0x2048 JUMP JUMPDEST SWAP2 POP POP SWAP3 POP SWAP3 SWAP1 POP JUMP JUMPDEST PUSH0 PUSH1 0x20 DUP3 DUP5 SUB SLT ISZERO PUSH2 0x20AF JUMPI PUSH2 0x20AE PUSH2 0x1E84 JUMP JUMPDEST JUMPDEST PUSH0 PUSH2 0x20BC DUP5 DUP3 DUP6 ADD PUSH2 0x2048 JUMP JUMPDEST SWAP2 POP POP SWAP3 SWAP2 POP POP JUMP JUMPDEST PUSH2 0x20CE DUP2 PUSH2 0x2029 JUMP JUMPDEST DUP3 MSTORE POP POP JUMP JUMPDEST PUSH0 PUSH1 0x20 DUP3 ADD SWAP1 POP PUSH2 0x20E7 PUSH0 DUP4 ADD DUP5 PUSH2 0x20C5 JUMP JUMPDEST SWAP3 SWAP2 POP POP JUMP JUMPDEST PUSH0 DUP1 PUSH0 PUSH1 0x60 DUP5 DUP7 SUB SLT ISZERO PUSH2 0x2104 JUMPI PUSH2 0x2103 PUSH2 0x1E84 JUMP JUMPDEST JUMPDEST PUSH0 PUSH2 0x2111 DUP7 DUP3 DUP8 ADD PUSH2 0x2015 JUMP JUMPDEST SWAP4 POP POP PUSH1 0x20 PUSH2 0x2122 DUP7 DUP3 DUP8 ADD PUSH2 0x2015 JUMP JUMPDEST SWAP3 POP POP PUSH1 0x40 PUSH2 0x2133 DUP7 DUP3 DUP8 ADD PUSH2 0x2048 JUMP JUMPDEST SWAP2 POP POP SWAP3 POP SWAP3 POP SWAP3 JUMP JUMPDEST PUSH0 DUP2 SWAP1 POP SWAP2 SWAP1 POP JUMP JUMPDEST PUSH2 0x214F DUP2 PUSH2 0x213D JUMP JUMPDEST DUP2 EQ PUSH2 0x2159 JUMPI PUSH0 DUP1 REVERT JUMPDEST POP JUMP JUMPDEST PUSH0 DUP2 CALLDATALOAD SWAP1 POP PUSH2 0x216A DUP2 PUSH2 0x2146 JUMP JUMPDEST SWAP3 SWAP2 POP POP JUMP JUMPDEST PUSH0 PUSH1 0x20 DUP3 DUP5 SUB SLT ISZERO PUSH2 0x2185 JUMPI PUSH2 0x2184 PUSH2 0x1E84 JUMP JUMPDEST JUMPDEST PUSH0 PUSH2 0x2192 DUP5 DUP3 DUP6 ADD PUSH2 0x215C JUMP JUMPDEST SWAP2 POP POP SWAP3 SWAP2 POP POP JUMP JUMPDEST PUSH2 0x21A4 DUP2 PUSH2 0x213D JUMP JUMPDEST DUP3 MSTORE POP POP JUMP JUMPDEST PUSH0 PUSH1 0x20 DUP3 ADD SWAP1 POP PUSH2 0x21BD PUSH0 DUP4 ADD DUP5 PUSH2 0x219B JUMP JUMPDEST SWAP3 SWAP2 POP POP JUMP JUMPDEST PUSH0 DUP1 PUSH1 0x40 DUP4 DUP6 SUB SLT ISZERO PUSH2 0x21D9 JUMPI PUSH2 0x21D8 PUSH2 0x1E84 JUMP JUMPDEST JUMPDEST PUSH0 PUSH2 0x21E6 DUP6 DUP3 DUP7 ADD PUSH2 0x215C JUMP JUMPDEST SWAP3 POP POP PUSH1 0x20 PUSH2 0x21F7 DUP6 DUP3 DUP7 ADD PUSH2 0x2015 JUMP JUMPDEST SWAP2 POP POP SWAP3 POP SWAP3 SWAP1 POP JUMP JUMPDEST PUSH0 PUSH1 0xFF DUP3 AND SWAP1 POP SWAP2 SWAP1 POP JUMP JUMPDEST PUSH2 0x2216 DUP2 PUSH2 0x2201 JUMP JUMPDEST DUP3 MSTORE POP POP JUMP JUMPDEST PUSH0 PUSH1 0x20 DUP3 ADD SWAP1 POP PUSH2 0x222F PUSH0 DUP4 ADD DUP5 PUSH2 0x220D JUMP JUMPDEST SWAP3 SWAP2 POP POP JUMP JUMPDEST PUSH0 PUSH1 0x20 DUP3 DUP5 SUB SLT ISZERO PUSH2 0x224A JUMPI PUSH2 0x2249 PUSH2 0x1E84 JUMP JUMPDEST JUMPDEST PUSH0 PUSH2 0x2257 DUP5 DUP3 DUP6 ADD PUSH2 0x2015 JUMP JUMPDEST SWAP2 POP POP SWAP3 SWAP2 POP POP JUMP JUMPDEST PUSH0 DUP1 REVERT JUMPDEST PUSH32 0x4E487B7100000000000000000000000000000000000000000000000000000000 PUSH0 MSTORE PUSH1 0x41 PUSH1 0x4 MSTORE PUSH1 0x24 PUSH0 REVERT JUMPDEST PUSH2 0x229A DUP3 PUSH2 0x1F67 JUMP JUMPDEST DUP2 ADD DUP2 DUP2 LT PUSH8 0xFFFFFFFFFFFFFFFF DUP3 GT OR ISZERO PUSH2 0x22B9 JUMPI PUSH2 0x22B8 PUSH2 0x2264 JUMP JUMPDEST JUMPDEST DUP1 PUSH1 0x40 MSTORE POP POP POP JUMP JUMPDEST PUSH0 PUSH2 0x22CB PUSH2 0x1E7B JUMP JUMPDEST SWAP1 POP PUSH2 0x22D7 DUP3 DUP3 PUSH2 0x2291 JUMP JUMPDEST SWAP2 SWAP1 POP JUMP JUMPDEST PUSH0 PUSH8 0xFFFFFFFFFFFFFFFF DUP3 GT ISZERO PUSH2 0x22F6 JUMPI PUSH2 0x22F5 PUSH2 0x2264 JUMP JUMPDEST JUMPDEST PUSH1 0x20 DUP3 MUL SWAP1 POP PUSH1 0x20 DUP2 ADD SWAP1 POP SWAP2 SWAP1 POP JUMP JUMPDEST PUSH0 DUP1 REVERT JUMPDEST PUSH0 PUSH2 0x231D PUSH2 0x2318 DUP5 PUSH2 0x22DC JUMP JUMPDEST PUSH2 0x22C2 JUMP JUMPDEST SWAP1 POP DUP1 DUP4 DUP3 MSTORE PUSH1 0x20 DUP3 ADD SWAP1 POP PUSH1 0x20 DUP5 MUL DUP4 ADD DUP6 DUP2 GT ISZERO PUSH2 0x2340 JUMPI PUSH2 0x233F PUSH2 0x2307 JUMP JUMPDEST JUMPDEST DUP4 JUMPDEST DUP2 DUP2 LT ISZERO PUSH2 0x2369 JUMPI DUP1 PUSH2 0x2355 DUP9 DUP3 PUSH2 0x2015 JUMP JUMPDEST DUP5 MSTORE PUSH1 0x20 DUP5 ADD SWAP4 POP POP PUSH1 0x20 DUP2 ADD SWAP1 POP PUSH2 0x2342 JUMP JUMPDEST POP POP POP SWAP4 SWAP3 POP POP POP JUMP JUMPDEST PUSH0 DUP3 PUSH1 0x1F DUP4 ADD SLT PUSH2 0x2387 JUMPI PUSH2 0x2386 PUSH2 0x2260 JUMP JUMPDEST JUMPDEST DUP2 CALLDATALOAD PUSH2 0x2397 DUP5 DUP3 PUSH1 0x20 DUP7 ADD PUSH2 0x230B JUMP JUMPDEST SWAP2 POP POP SWAP3 SWAP2 POP POP JUMP JUMPDEST PUSH0 PUSH8 0xFFFFFFFFFFFFFFFF DUP3 GT ISZERO PUSH2 0x23BA JUMPI PUSH2 0x23B9 PUSH2 0x2264 JUMP JUMPDEST JUMPDEST PUSH1 0x20 DUP3 MUL SWAP1 POP PUSH1 0x20 DUP2 ADD SWAP1 POP SWAP2 SWAP1 POP JUMP JUMPDEST PUSH0 PUSH2 0x23DD PUSH2 0x23D8 DUP5 PUSH2 0x23A0 JUMP JUMPDEST PUSH2 0x22C2 JUMP JUMPDEST SWAP1 POP DUP1 DUP4 DUP3 MSTORE PUSH1 0x20 DUP3 ADD SWAP1 POP PUSH1 0x20 DUP5 MUL DUP4 ADD DUP6 DUP2 GT ISZERO PUSH2 0x2400 JUMPI PUSH2 0x23FF PUSH2 0x2307 JUMP JUMPDEST JUMPDEST DUP4 JUMPDEST DUP2 DUP2 LT ISZERO PUSH2 0x2429 JUMPI DUP1 PUSH2 0x2415 DUP9 DUP3 PUSH2 0x2048 JUMP JUMPDEST DUP5 MSTORE PUSH1 0x20 DUP5 ADD SWAP4 POP POP PUSH1 0x20 DUP2 ADD SWAP1 POP PUSH2 0x2402 JUMP JUMPDEST POP POP POP SWAP4 SWAP3 POP POP POP JUMP JUMPDEST PUSH0 DUP3 PUSH1 0x1F DUP4 ADD SLT PUSH2 0x2447 JUMPI PUSH2 0x2446 PUSH2 0x2260 JUMP JUMPDEST JUMPDEST DUP2 CALLDATALOAD PUSH2 0x2457 DUP5 DUP3 PUSH1 0x20 DUP7 ADD PUSH2 0x23CB JUMP JUMPDEST SWAP2 POP POP SWAP3 SWAP2 POP POP JUMP JUMPDEST PUSH0 DUP1 PUSH1 0x40 DUP4 DUP6 SUB SLT ISZERO PUSH2 0x2476 JUMPI PUSH2 0x2475 PUSH2 0x1E84 JUMP JUMPDEST JUMPDEST PUSH0 DUP4 ADD CALLDATALOAD PUSH8 0xFFFFFFFFFFFFFFFF DUP2 GT ISZERO PUSH2 0x2493 JUMPI PUSH2 0x2492 PUSH2 0x1E88 JUMP JUMPDEST JUMPDEST PUSH2 0x249F DUP6 DUP3 DUP7 ADD PUSH2 0x2373 JUMP JUMPDEST SWAP3 POP POP PUSH1 0x20 DUP4 ADD CALLDATALOAD PUSH8 0xFFFFFFFFFFFFFFFF DUP2 GT ISZERO PUSH2 0x24C0 JUMPI PUSH2 0x24BF PUSH2 0x1E88 JUMP JUMPDEST JUMPDEST PUSH2 0x24CC DUP6 DUP3 DUP7 ADD PUSH2 0x2433 JUMP JUMPDEST SWAP2 POP POP SWAP3 POP SWAP3 SWAP1 POP JUMP JUMPDEST PUSH2 0x24DF DUP2 PUSH2 0x1FEE JUMP JUMPDEST DUP3 MSTORE POP POP JUMP JUMPDEST PUSH0 PUSH1 0x20 DUP3 ADD SWAP1 POP PUSH2 0x24F8 PUSH0 DUP4 ADD DUP5 PUSH2 0x24D6 JUMP JUMPDEST SWAP3 SWAP2 POP POP JUMP JUMPDEST PUSH0 DUP1 PUSH1 0x40 DUP4 DUP6 SUB SLT ISZERO PUSH2 0x2514 JUMPI PUSH2 0x2513 PUSH2 0x1E84 JUMP JUMPDEST JUMPDEST PUSH0 PUSH2 0x2521 DUP6 DUP3 DUP7 ADD PUSH2 0x2015 JUMP JUMPDEST SWAP3 POP POP PUSH1 0x20 PUSH2 0x2532 DUP6 DUP3 DUP7 ADD PUSH2 0x2015 JUMP JUMPDEST SWAP2 POP POP SWAP3 POP SWAP3 SWAP1 POP JUMP JUMPDEST PUSH32 0x4E487B7100000000000000000000000000000000000000000000000000000000 PUSH0 MSTORE PUSH1 0x22 PUSH1 0x4 MSTORE PUSH1 0x24 PUSH0 REVERT JUMPDEST PUSH0 PUSH1 0x2 DUP3 DIV SWAP1 POP PUSH1 0x1 DUP3 AND DUP1 PUSH2 0x2580 JUMPI PUSH1 0x7F DUP3 AND SWAP2 POP JUMPDEST PUSH1 0x20 DUP3 LT DUP2 SUB PUSH2 0x2593 JUMPI PUSH2 0x2592 PUSH2 0x253C JUMP JUMPDEST JUMPDEST POP SWAP2 SWAP1 POP JUMP JUMPDEST PUSH32 0x4E487B7100000000000000000000000000000000000000000000000000000000 PUSH0 MSTORE PUSH1 0x11 PUSH1 0x4 MSTORE PUSH1 0x24 PUSH0 REVERT JUMPDEST PUSH0 PUSH2 0x25D0 DUP3 PUSH2 0x2029 JUMP JUMPDEST SWAP2 POP PUSH2 0x25DB DUP4 PUSH2 0x2029 JUMP JUMPDEST SWAP3 POP DUP3 DUP3 MUL PUSH2 0x25E9 DUP2 PUSH2 0x2029 JUMP JUMPDEST SWAP2 POP DUP3 DUP3 DIV DUP5 EQ DUP4 ISZERO OR PUSH2 0x2600 JUMPI PUSH2 0x25FF PUSH2 0x2599 JUMP JUMPDEST JUMPDEST POP SWAP3 SWAP2 POP POP JUMP JUMPDEST PUSH0 PUSH1 0x60 DUP3 ADD SWAP1 POP PUSH2 0x261A PUSH0 DUP4 ADD DUP7 PUSH2 0x24D6 JUMP JUMPDEST PUSH2 0x2627 PUSH1 0x20 DUP4 ADD DUP6 PUSH2 0x24D6 JUMP JUMPDEST PUSH2 0x2634 PUSH1 0x40 DUP4 ADD DUP5 PUSH2 0x20C5 JUMP JUMPDEST SWAP5 SWAP4 POP POP POP POP JUMP JUMPDEST PUSH2 0x2645 DUP2 PUSH2 0x1F0C JUMP JUMPDEST DUP2 EQ PUSH2 0x264F JUMPI PUSH0 DUP1 REVERT JUMPDEST POP JUMP JUMPDEST PUSH0 DUP2 MLOAD SWAP1 POP PUSH2 0x2660 DUP2 PUSH2 0x263C JUMP JUMPDEST SWAP3 SWAP2 POP POP JUMP JUMPDEST PUSH0 PUSH1 0x20 DUP3 DUP5 SUB SLT ISZERO PUSH2 0x267B JUMPI PUSH2 0x267A PUSH2 0x1E84 JUMP JUMPDEST JUMPDEST PUSH0 PUSH2 0x2688 DUP5 DUP3 DUP6 ADD PUSH2 0x2652 JUMP JUMPDEST SWAP2 POP POP SWAP3 SWAP2 POP POP JUMP JUMPDEST PUSH32 0x537461626C6520636F696E207472616E73666572206661696C65640000000000 PUSH0 DUP3 ADD MSTORE POP JUMP JUMPDEST PUSH0 PUSH2 0x26C5 PUSH1 0x1B DUP4 PUSH2 0x1F49 JUMP JUMPDEST SWAP2 POP PUSH2 0x26D0 DUP3 PUSH2 0x2691 JUMP JUMPDEST PUSH1 0x20 DUP3 ADD SWAP1 POP SWAP2 SWAP1 POP JUMP JUMPDEST PUSH0 PUSH1 0x20 DUP3 ADD SWAP1 POP DUP2 DUP2 SUB PUSH0 DUP4 ADD MSTORE PUSH2 0x26F2 DUP2 PUSH2 0x26B9 JUMP JUMPDEST SWAP1 POP SWAP2 SWAP1 POP JUMP JUMPDEST PUSH0 PUSH1 0x40 DUP3 ADD SWAP1 POP PUSH2 0x270C PUSH0 DUP4 ADD DUP6 PUSH2 0x24D6 JUMP JUMPDEST PUSH2 0x2719 PUSH1 0x20 DUP4 ADD DUP5 PUSH2 0x20C5 JUMP JUMPDEST SWAP4 SWAP3 POP POP POP JUMP JUMPDEST PUSH32 0x426F6E6420746F6B656E207472616E73666572206661696C6564000000000000 PUSH0 DUP3 ADD MSTORE POP JUMP JUMPDEST PUSH0 PUSH2 0x2754 PUSH1 0x1A DUP4 PUSH2 0x1F49 JUMP JUMPDEST SWAP2 POP PUSH2 0x275F DUP3 PUSH2 0x2720 JUMP JUMPDEST PUSH1 0x20 DUP3 ADD SWAP1 POP SWAP2 SWAP1 POP JUMP JUMPDEST PUSH0 PUSH1 0x20 DUP3 ADD SWAP1 POP DUP2 DUP2 SUB PUSH0 DUP4 ADD MSTORE PUSH2 0x2781 DUP2 PUSH2 0x2748 JUMP JUMPDEST SWAP1 POP SWAP2 SWAP1 POP JUMP JUMPDEST PUSH32 0x546F6B656E20686F6C6465727320616E6420616D6F756E7473206C656E677468 PUSH0 DUP3 ADD MSTORE PUSH32 0x206D69736D617463680000000000000000000000000000000000000000000000 PUSH1 0x20 DUP3 ADD MSTORE POP JUMP JUMPDEST PUSH0 PUSH2 0x27E2 PUSH1 0x29 DUP4 PUSH2 0x1F49 JUMP JUMPDEST SWAP2 POP PUSH2 0x27ED DUP3 PUSH2 0x2788 JUMP JUMPDEST PUSH1 0x40 DUP3 ADD SWAP1 POP SWAP2 SWAP1 POP JUMP JUMPDEST PUSH0 PUSH1 0x20 DUP3 ADD SWAP1 POP DUP2 DUP2 SUB PUSH0 DUP4 ADD MSTORE PUSH2 0x280F DUP2 PUSH2 0x27D6 JUMP JUMPDEST SWAP1 POP SWAP2 SWAP1 POP JUMP JUMPDEST PUSH32 0x4E487B7100000000000000000000000000000000000000000000000000000000 PUSH0 MSTORE PUSH1 0x32 PUSH1 0x4 MSTORE PUSH1 0x24 PUSH0 REVERT JUMPDEST PUSH32 0x5472616E73666572206661696C65640000000000000000000000000000000000 PUSH0 DUP3 ADD MSTORE POP JUMP JUMPDEST PUSH0 PUSH2 0x2877 PUSH1 0xF DUP4 PUSH2 0x1F49 JUMP JUMPDEST SWAP2 POP PUSH2 0x2882 DUP3 PUSH2 0x2843 JUMP JUMPDEST PUSH1 0x20 DUP3 ADD SWAP1 POP SWAP2 SWAP1 POP JUMP JUMPDEST PUSH0 PUSH1 0x20 DUP3 ADD SWAP1 POP DUP2 DUP2 SUB PUSH0 DUP4 ADD MSTORE PUSH2 0x28A4 DUP2 PUSH2 0x286B JUMP JUMPDEST SWAP1 POP SWAP2 SWAP1 POP JUMP JUMPDEST PUSH32 0x4D61747572697479206E6F742079657420726561636865640000000000000000 PUSH0 DUP3 ADD MSTORE POP JUMP JUMPDEST PUSH0 PUSH2 0x28DF PUSH1 0x18 DUP4 PUSH2 0x1F49 JUMP JUMPDEST SWAP2 POP PUSH2 0x28EA DUP3 PUSH2 0x28AB JUMP JUMPDEST PUSH1 0x20 DUP3 ADD SWAP1 POP SWAP2 SWAP1 POP JUMP JUMPDEST PUSH0 PUSH1 0x20 DUP3 ADD SWAP1 POP DUP2 DUP2 SUB PUSH0 DUP4 ADD MSTORE PUSH2 0x290C DUP2 PUSH2 0x28D3 JUMP JUMPDEST SWAP1 POP SWAP2 SWAP1 POP JUMP JUMPDEST PUSH32 0x43616E277420636C61696D207A65726F20636F696E7300000000000000000000 PUSH0 DUP3 ADD MSTORE POP JUMP JUMPDEST PUSH0 PUSH2 0x2947 PUSH1 0x16 DUP4 PUSH2 0x1F49 JUMP JUMPDEST SWAP2 POP PUSH2 0x2952 DUP3 PUSH2 0x2913 JUMP JUMPDEST PUSH1 0x20 DUP3 ADD SWAP1 POP SWAP2 SWAP1 POP JUMP JUMPDEST PUSH0 PUSH1 0x20 DUP3 ADD SWAP1 POP DUP2 DUP2 SUB PUSH0 DUP4 ADD MSTORE PUSH2 0x2974 DUP2 PUSH2 0x293B JUMP JUMPDEST SWAP1 POP SWAP2 SWAP1 POP JUMP JUMPDEST PUSH0 DUP2 MLOAD SWAP1 POP PUSH2 0x2989 DUP2 PUSH2 0x2032 JUMP JUMPDEST SWAP3 SWAP2 POP POP JUMP JUMPDEST PUSH0 PUSH1 0x20 DUP3 DUP5 SUB SLT ISZERO PUSH2 0x29A4 JUMPI PUSH2 0x29A3 PUSH2 0x1E84 JUMP JUMPDEST JUMPDEST PUSH0 PUSH2 0x29B1 DUP5 DUP3 DUP6 ADD PUSH2 0x297B JUMP JUMPDEST SWAP2 POP POP SWAP3 SWAP2 POP POP JUMP JUMPDEST PUSH32 0x4E6F20696E766573746F722066756E647320617661696C61626C652E00000000 PUSH0 DUP3 ADD MSTORE POP JUMP JUMPDEST PUSH0 PUSH2 0x29EE PUSH1 0x1C DUP4 PUSH2 0x1F49 JUMP JUMPDEST SWAP2 POP PUSH2 0x29F9 DUP3 PUSH2 0x29BA JUMP JUMPDEST PUSH1 0x20 DUP3 ADD SWAP1 POP SWAP2 SWAP1 POP JUMP JUMPDEST PUSH0 PUSH1 0x20 DUP3 ADD SWAP1 POP DUP2 DUP2 SUB PUSH0 DUP4 ADD MSTORE PUSH2 0x2A1B DUP2 PUSH2 0x29E2 JUMP JUMPDEST SWAP1 POP SWAP2 SWAP1 POP JUMP JUMPDEST PUSH32 0x4661696C656420746F207472616E7366657220737461626C6520636F696E7300 PUSH0 DUP3 ADD MSTORE POP JUMP JUMPDEST PUSH0 PUSH2 0x2A56 PUSH1 0x1F DUP4 PUSH2 0x1F49 JUMP JUMPDEST SWAP2 POP PUSH2 0x2A61 DUP3 PUSH2 0x2A22 JUMP JUMPDEST PUSH1 0x20 DUP3 ADD SWAP1 POP SWAP2 SWAP1 POP JUMP JUMPDEST PUSH0 PUSH1 0x20 DUP3 ADD SWAP1 POP DUP2 DUP2 SUB PUSH0 DUP4 ADD MSTORE PUSH2 0x2A83 DUP2 PUSH2 0x2A4A JUMP JUMPDEST SWAP1 POP SWAP2 SWAP1 POP JUMP JUMPDEST PUSH0 PUSH1 0x60 DUP3 ADD SWAP1 POP PUSH2 0x2A9D PUSH0 DUP4 ADD DUP7 PUSH2 0x24D6 JUMP JUMPDEST PUSH2 0x2AAA PUSH1 0x20 DUP4 ADD DUP6 PUSH2 0x20C5 JUMP JUMPDEST PUSH2 0x2AB7 PUSH1 0x40 DUP4 ADD DUP5 PUSH2 0x20C5 JUMP JUMPDEST SWAP5 SWAP4 POP POP POP POP JUMP JUMPDEST PUSH0 PUSH1 0x40 DUP3 ADD SWAP1 POP PUSH2 0x2AD2 PUSH0 DUP4 ADD DUP6 PUSH2 0x24D6 JUMP JUMPDEST PUSH2 0x2ADF PUSH1 0x20 DUP4 ADD DUP5 PUSH2 0x219B JUMP JUMPDEST SWAP4 SWAP3 POP POP POP JUMP JUMPDEST PUSH0 PUSH2 0x2AF0 DUP3 PUSH2 0x2029 JUMP JUMPDEST SWAP2 POP PUSH2 0x2AFB DUP4 PUSH2 0x2029 JUMP JUMPDEST SWAP3 POP DUP3 DUP3 ADD SWAP1 POP DUP1 DUP3 GT ISZERO PUSH2 0x2B13 JUMPI PUSH2 0x2B12 PUSH2 0x2599 JUMP JUMPDEST JUMPDEST SWAP3 SWAP2 POP POP JUMP INVALID LOG2 PUSH5 0x6970667358 0x22 SLT KECCAK256 SWAP13 0xB8 0xB3 0xE4 PUSH6 0xB50756657981 0xEB 0x2F 0xE1 PUSH1 0xC5 0xE5 PUSH31 0xAA54E5B63EA9BFE6970E9CC95D7064736F6C634300081A0033000000000000 "
				},
				"gasEstimates": {
					"creation": {
						"codeDepositCost": "2217400",
						"executionCost": "infinite",
						"totalCost": "infinite"
					},
					"external": {
						"ADMIN()": "437",
						"BOND_ISSUER()": "391",
						"DEFAULT_ADMIN_ROLE()": "397",
						"allowance(address,address)": "infinite",
						"approve(address,uint256)": "infinite",
						"balanceOf(address)": "2918",
						"burn(uint256)": "infinite",
						"burnFrom(address,uint256)": "infinite",
						"buyBond(uint256)": "infinite",
						"claimFaceValue(uint256)": "infinite",
						"claimInvestorFunds()": "infinite",
						"decimals()": "406",
						"distributeInterest(address,uint256)": "infinite",
						"distributeInterestAll(address[],uint256[])": "infinite",
						"getRoleAdmin(bytes32)": "infinite",
						"grantRole(bytes32,address)": "infinite",
						"hasRole(bytes32,address)": "3212",
						"interestCoin()": "infinite",
						"maturityDate()": "infinite",
						"name()": "infinite",
						"pause()": "infinite",
						"paused()": "2540",
						"renounceRole(bytes32,address)": "infinite",
						"revokeRole(bytes32,address)": "infinite",
						"stableCoin()": "infinite",
						"supportsInterface(bytes4)": "764",
						"symbol()": "infinite",
						"totalSupply()": "2478",
						"transfer(address,uint256)": "infinite",
						"transferFrom(address,address,uint256)": "infinite",
						"unitSize()": "infinite",
						"unpause()": "infinite"
					},
					"internal": {
						"_update(address,address,uint256)": "infinite"
					}
				},
				"methodIdentifiers": {
					"ADMIN()": "2a0acc6a",
					"BOND_ISSUER()": "e091a39b",
					"DEFAULT_ADMIN_ROLE()": "a217fddf",
					"allowance(address,address)": "dd62ed3e",
					"approve(address,uint256)": "095ea7b3",
					"balanceOf(address)": "70a08231",
					"burn(uint256)": "42966c68",
					"burnFrom(address,uint256)": "79cc6790",
					"buyBond(uint256)": "10002dbd",
					"claimFaceValue(uint256)": "ca19c11c",
					"claimInvestorFunds()": "ced0550f",
					"decimals()": "313ce567",
					"distributeInterest(address,uint256)": "f57d283e",
					"distributeInterestAll(address[],uint256[])": "904835c4",
					"getRoleAdmin(bytes32)": "248a9ca3",
					"grantRole(bytes32,address)": "2f2ff15d",
					"hasRole(bytes32,address)": "91d14854",
					"interestCoin()": "ec8eba14",
					"maturityDate()": "d59624b4",
					"name()": "06fdde03",
					"pause()": "8456cb59",
					"paused()": "5c975abb",
					"renounceRole(bytes32,address)": "36568abe",
					"revokeRole(bytes32,address)": "d547741f",
					"stableCoin()": "992642e5",
					"supportsInterface(bytes4)": "01ffc9a7",
					"symbol()": "95d89b41",
					"totalSupply()": "18160ddd",
					"transfer(address,uint256)": "a9059cbb",
					"transferFrom(address,address,uint256)": "23b872dd",
					"unitSize()": "a920260b",
					"unpause()": "3f4ba83a"
				}
			},
			"storageLayout": {
				"storage": [
					{
						"astId": 538,
						"contract": "contracts/BonDeFiToken.sol:BonDeFiToken",
						"label": "_balances",
						"offset": 0,
						"slot": "0",
						"type": "t_mapping(t_address,t_uint256)"
					},
					{
						"astId": 544,
						"contract": "contracts/BonDeFiToken.sol:BonDeFiToken",
						"label": "_allowances",
						"offset": 0,
						"slot": "1",
						"type": "t_mapping(t_address,t_mapping(t_address,t_uint256))"
					},
					{
						"astId": 546,
						"contract": "contracts/BonDeFiToken.sol:BonDeFiToken",
						"label": "_totalSupply",
						"offset": 0,
						"slot": "2",
						"type": "t_uint256"
					},
					{
						"astId": 548,
						"contract": "contracts/BonDeFiToken.sol:BonDeFiToken",
						"label": "_name",
						"offset": 0,
						"slot": "3",
						"type": "t_string_storage"
					},
					{
						"astId": 550,
						"contract": "contracts/BonDeFiToken.sol:BonDeFiToken",
						"label": "_symbol",
						"offset": 0,
						"slot": "4",
						"type": "t_string_storage"
					},
					{
						"astId": 1253,
						"contract": "contracts/BonDeFiToken.sol:BonDeFiToken",
						"label": "_paused",
						"offset": 0,
						"slot": "5",
						"type": "t_bool"
					},
					{
						"astId": 26,
						"contract": "contracts/BonDeFiToken.sol:BonDeFiToken",
						"label": "_roles",
						"offset": 0,
						"slot": "6",
						"type": "t_mapping(t_bytes32,t_struct(RoleData)21_storage)"
					}
				],
				"types": {
					"t_address": {
						"encoding": "inplace",
						"label": "address",
						"numberOfBytes": "20"
					},
					"t_bool": {
						"encoding": "inplace",
						"label": "bool",
						"numberOfBytes": "1"
					},
					"t_bytes32": {
						"encoding": "inplace",
						"label": "bytes32",
						"numberOfBytes": "32"
					},
					"t_mapping(t_address,t_bool)": {
						"encoding": "mapping",
						"key": "t_address",
						"label": "mapping(address => bool)",
						"numberOfBytes": "32",
						"value": "t_bool"
					},
					"t_mapping(t_address,t_mapping(t_address,t_uint256))": {
						"encoding": "mapping",
						"key": "t_address",
						"label": "mapping(address => mapping(address => uint256))",
						"numberOfBytes": "32",
						"value": "t_mapping(t_address,t_uint256)"
					},
					"t_mapping(t_address,t_uint256)": {
						"encoding": "mapping",
						"key": "t_address",
						"label": "mapping(address => uint256)",
						"numberOfBytes": "32",
						"value": "t_uint256"
					},
					"t_mapping(t_bytes32,t_struct(RoleData)21_storage)": {
						"encoding": "mapping",
						"key": "t_bytes32",
						"label": "mapping(bytes32 => struct AccessControl.RoleData)",
						"numberOfBytes": "32",
						"value": "t_struct(RoleData)21_storage"
					},
					"t_string_storage": {
						"encoding": "bytes",
						"label": "string",
						"numberOfBytes": "32"
					},
					"t_struct(RoleData)21_storage": {
						"encoding": "inplace",
						"label": "struct AccessControl.RoleData",
						"members": [
							{
								"astId": 18,
								"contract": "contracts/BonDeFiToken.sol:BonDeFiToken",
								"label": "hasRole",
								"offset": 0,
								"slot": "0",
								"type": "t_mapping(t_address,t_bool)"
							},
							{
								"astId": 20,
								"contract": "contracts/BonDeFiToken.sol:BonDeFiToken",
								"label": "adminRole",
								"offset": 0,
								"slot": "1",
								"type": "t_bytes32"
							}
						],
						"numberOfBytes": "64"
					},
					"t_uint256": {
						"encoding": "inplace",
						"label": "uint256",
						"numberOfBytes": "32"
					}
				}
			},
			"userdoc": {
				"kind": "user",
				"methods": {},
				"version": 1
			}
		}
	}
}