{
	"data": {
		"bytecode": {
			"linkReferences": {},
			"object": "60e060405234801561000f575f80fd5b5060405161566f38038061566f83398181016040528101906100319190610736565b6040518060400160405280600c81526020017f426f6e44654669546f6b656e00000000000000000000000000000000000000008152506040518060400160405280600381526020017f424446000000000000000000000000000000000000000000000000000000000081525081600390816100ac91906109f0565b5080600490816100bc91906109f0565b5050505f60055f6101000a81548160ff0219169083151502179055506101087fdf8b4c520ffe197c5343c6f5aec59570151ef9a492f2c624fd45ddde6135ec428761020360201b60201c565b506101397ff877234297ef562d54f0328f892acfc1d6c1e44ca89f02e3a2c2a4736f6095b78661020360201b60201c565b508373ffffffffffffffffffffffffffffffffffffffff1660808173ffffffffffffffffffffffffffffffffffffffff16815250508160a081815250505f60078190555061018d30846102f960201b60201c565b5f308260405161019c90610698565b6101a7929190610b81565b604051809103905ff0801580156101c0573d5f803e3d5ffd5b5090508073ffffffffffffffffffffffffffffffffffffffff1660c08173ffffffffffffffffffffffffffffffffffffffff168152505050505050505050610c95565b5f610214838361037e60201b60201c565b6102ef57600160065f8581526020019081526020015f205f015f8473ffffffffffffffffffffffffffffffffffffffff1673ffffffffffffffffffffffffffffffffffffffff1681526020019081526020015f205f6101000a81548160ff02191690831515021790555061028c6103e260201b60201c565b73ffffffffffffffffffffffffffffffffffffffff168273ffffffffffffffffffffffffffffffffffffffff16847f2f8788117e7eff1d82e926ec794901d17c78024a50270940304540a733656f0d60405160405180910390a4600190506102f3565b5f90505b92915050565b5f73ffffffffffffffffffffffffffffffffffffffff168273ffffffffffffffffffffffffffffffffffffffff1603610369575f6040517fec442f050000000000000000000000000000000000000000000000000000000081526004016103609190610bce565b60405180910390fd5b61037a5f83836103e960201b60201c565b5050565b5f60065f8481526020019081526020015f205f015f8373ffffffffffffffffffffffffffffffffffffffff1673ffffffffffffffffffffffffffffffffffffffff1681526020019081526020015f205f9054906101000a900460ff16905092915050565b5f33905090565b6103fa8383836103ff60201b60201c565b505050565b61040d61042360201b60201c565b61041e83838361046a60201b60201c565b505050565b61043161068360201b60201c565b15610468576040517fd93c066500000000000000000000000000000000000000000000000000000000815260040160405180910390fd5b565b5f73ffffffffffffffffffffffffffffffffffffffff168373ffffffffffffffffffffffffffffffffffffffff16036104ba578060025f8282546104ae9190610c14565b92505081905550610588565b5f805f8573ffffffffffffffffffffffffffffffffffffffff1673ffffffffffffffffffffffffffffffffffffffff1681526020019081526020015f2054905081811015610543578381836040517fe450d38c00000000000000000000000000000000000000000000000000000000815260040161053a93929190610c47565b60405180910390fd5b8181035f808673ffffffffffffffffffffffffffffffffffffffff1673ffffffffffffffffffffffffffffffffffffffff1681526020019081526020015f2081905550505b5f73ffffffffffffffffffffffffffffffffffffffff168273ffffffffffffffffffffffffffffffffffffffff16036105cf578060025f8282540392505081905550610619565b805f808473ffffffffffffffffffffffffffffffffffffffff1673ffffffffffffffffffffffffffffffffffffffff1681526020019081526020015f205f82825401925050819055505b8173ffffffffffffffffffffffffffffffffffffffff168373ffffffffffffffffffffffffffffffffffffffff167fddf252ad1be2c89b69c2b068fc378daa952ba7f163c4a11628f55a4df523b3ef836040516106769190610c7c565b60405180910390a3505050565b5f60055f9054906101000a900460ff16905090565b61185480613e1b83390190565b5f80fd5b5f73ffffffffffffffffffffffffffffffffffffffff82169050919050565b5f6106d2826106a9565b9050919050565b6106e2816106c8565b81146106ec575f80fd5b50565b5f815190506106fd816106d9565b92915050565b5f819050919050565b61071581610703565b811461071f575f80fd5b50565b5f815190506107308161070c565b92915050565b5f805f805f8060c087890312156107505761074f6106a5565b5b5f61075d89828a016106ef565b965050602061076e89828a016106ef565b955050604061077f89828a016106ef565b945050606061079089828a01610722565b93505060806107a189828a01610722565b92505060a06107b289828a01610722565b9150509295509295509295565b5f81519050919050565b7f4e487b71000000000000000000000000000000000000000000000000000000005f52604160045260245ffd5b7f4e487b71000000000000000000000000000000000000000000000000000000005f52602260045260245ffd5b5f600282049050600182168061083a57607f821691505b60208210810361084d5761084c6107f6565b5b50919050565b5f819050815f5260205f209050919050565b5f6020601f8301049050919050565b5f82821b905092915050565b5f600883026108af7fffffffffffffffffffffffffffffffffffffffffffffffffffffffffffffffff82610874565b6108b98683610874565b95508019841693508086168417925050509392505050565b5f819050919050565b5f6108f46108ef6108ea84610703565b6108d1565b610703565b9050919050565b5f819050919050565b61090d836108da565b610921610919826108fb565b848454610880565b825550505050565b5f90565b610935610929565b610940818484610904565b505050565b5b81811015610963576109585f8261092d565b600181019050610946565b5050565b601f8211156109a85761097981610853565b61098284610865565b81016020851015610991578190505b6109a561099d85610865565b830182610945565b50505b505050565b5f82821c905092915050565b5f6109c85f19846008026109ad565b1980831691505092915050565b5f6109e083836109b9565b9150826002028217905092915050565b6109f9826107bf565b67ffffffffffffffff811115610a1257610a116107c9565b5b610a1c8254610823565b610a27828285610967565b5f60209050601f831160018114610a58575f8415610a46578287015190505b610a5085826109d5565b865550610ab7565b601f198416610a6686610853565b5f5b82811015610a8d57848901518255600182019150602085019450602081019050610a68565b86831015610aaa5784890151610aa6601f8916826109b9565b8355505b6001600288020188555050505b505050505050565b610ac8816106c8565b82525050565b610ad781610703565b82525050565b5f82825260208201905092915050565b7f426f6e44654669546f6b656e496e7465726573740000000000000000000000005f82015250565b5f610b21601483610add565b9150610b2c82610aed565b602082019050919050565b7f42444649000000000000000000000000000000000000000000000000000000005f82015250565b5f610b6b600483610add565b9150610b7682610b37565b602082019050919050565b5f608082019050610b945f830185610abf565b610ba16020830184610ace565b8181036040830152610bb281610b15565b90508181036060830152610bc581610b5f565b90509392505050565b5f602082019050610be15f830184610abf565b92915050565b7f4e487b71000000000000000000000000000000000000000000000000000000005f52601160045260245ffd5b5f610c1e82610703565b9150610c2983610703565b9250828201905080821115610c4157610c40610be7565b5b92915050565b5f606082019050610c5a5f830186610abf565b610c676020830185610ace565b610c746040830184610ace565b949350505050565b5f602082019050610c8f5f830184610ace565b92915050565b60805160a05160c051613108610d135f395f8181610a9501528181610c4b01528181610ee70152818161103701528181611585015261188501525f818161133c015261179101525f818161084201528181610b7101528181610dc30152818161124c015281816112990152818161149d015261169001526131085ff3fe608060405234801561000f575f80fd5b506004361061020f575f3560e01c80638456cb5911610123578063c94c4705116100ab578063d547741f1161007a578063d547741f146105cb578063d59624b4146105e7578063dd62ed3e14610605578063e091a39b14610635578063f57d283e146106535761020f565b8063c94c470514610569578063ca19c11c14610587578063ce4120da146105a3578063ced0550f146105c15761020f565b806395d89b41116100f257806395d89b41146104c1578063992642e5146104df578063a217fddf146104fd578063a9059cbb1461051b578063acd17a991461054b5761020f565b80638456cb591461044d57806386d7165414610457578063904835c41461047557806391d14854146104915761020f565b80632eb375ea116101a65780633f4ba83a116101755780633f4ba83a146103bb5780635c975abb146103c55780636b749c47146103e357806370a08231146103ff578063764b666c1461042f5761020f565b80632eb375ea146103495780632f2ff15d14610365578063313ce5671461038157806336568abe1461039f5761020f565b806318160ddd116101e257806318160ddd146102ad57806323b872dd146102cb578063248a9ca3146102fb5780632a0acc6a1461032b5761020f565b806301ffc9a71461021357806306fdde0314610243578063095ea7b31461026157806310002dbd14610291575b5f80fd5b61022d600480360381019061022891906123d8565b61066f565b60405161023a919061241d565b60405180910390f35b61024b6106e8565b60405161025891906124a6565b60405180910390f35b61027b60048036038101906102769190612553565b610778565b604051610288919061241d565b60405180910390f35b6102ab60048036038101906102a69190612591565b61079a565b005b6102b56109d9565b6040516102c291906125cb565b60405180910390f35b6102e560048036038101906102e091906125e4565b6109e2565b6040516102f2919061241d565b60405180910390f35b61031560048036038101906103109190612667565b610a10565b60405161032291906126a1565b60405180910390f35b610333610a2d565b60405161034091906126a1565b60405180910390f35b610363600480360381019061035e9190612591565b610a51565b005b61037f600480360381019061037a91906126ba565b610cd2565b005b610389610cf4565b6040516103969190612713565b60405180910390f35b6103b960048036038101906103b491906126ba565b610cfc565b005b6103c3610d77565b005b6103cd610dac565b6040516103da919061241d565b60405180910390f35b6103fd60048036038101906103f89190612591565b610dc1565b005b6104196004803603810190610414919061272c565b610ea0565b60405161042691906125cb565b60405180910390f35b610437610ee5565b6040516104449190612766565b60405180910390f35b610455610f09565b005b61045f610f3e565b60405161046c91906125cb565b60405180910390f35b61048f600480360381019061048a919061297f565b610fbc565b005b6104ab60048036038101906104a691906126ba565b611156565b6040516104b8919061241d565b60405180910390f35b6104c96111ba565b6040516104d691906124a6565b60405180910390f35b6104e761124a565b6040516104f49190612766565b60405180910390f35b61050561126e565b60405161051291906126a1565b60405180910390f35b61053560048036038101906105309190612553565b611274565b604051610542919061241d565b60405180910390f35b610553611296565b60405161056091906125cb565b60405180910390f35b610571611334565b60405161057e91906125cb565b60405180910390f35b6105a1600480360381019061059c9190612591565b61133a565b005b6105ab611582565b6040516105b891906125cb565b60405180910390f35b6105c9611620565b005b6105e560048036038101906105e091906126ba565b61176d565b005b6105ef61178f565b6040516105fc91906125cb565b60405180910390f35b61061f600480360381019061061a91906129f5565b6117b3565b60405161062c91906125cb565b60405180910390f35b61063d611835565b60405161064a91906126a1565b60405180910390f35b61066d60048036038101906106689190612553565b611859565b005b5f7f7965db0b000000000000000000000000000000000000000000000000000000007bffffffffffffffffffffffffffffffffffffffffffffffffffffffff1916827bffffffffffffffffffffffffffffffffffffffffffffffffffffffff191614806106e157506106e082611962565b5b9050919050565b6060600380546106f790612a60565b80601f016020809104026020016040519081016040528092919081815260200182805461072390612a60565b801561076e5780601f106107455761010080835404028352916020019161076e565b820191905f5260205f20905b81548152906001019060200180831161075157829003601f168201915b5050505050905090565b5f806107826119cb565b905061078f8185856119d2565b600191505092915050565b8060075f8282546107ab9190612abd565b925050819055505f813073ffffffffffffffffffffffffffffffffffffffff166370a08231306040518263ffffffff1660e01b81526004016107ed9190612766565b602060405180830381865afa158015610808573d5f803e3d5ffd5b505050506040513d601f19601f8201168201806040525081019061082c9190612b04565b6108369190612b2f565b1015610840575f80fd5b7f000000000000000000000000000000000000000000000000000000000000000073ffffffffffffffffffffffffffffffffffffffff166323b872dd3330846040518463ffffffff1660e01b815260040161089d93929190612b62565b6020604051808303815f875af11580156108b9573d5f803e3d5ffd5b505050506040513d601f19601f820116820180604052508101906108dd9190612bc1565b61091c576040517f08c379a000000000000000000000000000000000000000000000000000000000815260040161091390612c36565b60405180910390fd5b3073ffffffffffffffffffffffffffffffffffffffff1663a9059cbb33836040518363ffffffff1660e01b8152600401610957929190612c54565b6020604051808303815f875af1158015610973573d5f803e3d5ffd5b505050506040513d601f19601f820116820180604052508101906109979190612bc1565b6109d6576040517f08c379a00000000000000000000000000000000000000000000000000000000081526004016109cd90612cc5565b60405180910390fd5b50565b5f600254905090565b5f806109ec6119cb565b90506109f98582856119e4565b610a04858585611a76565b60019150509392505050565b5f60065f8381526020019081526020015f20600101549050919050565b7fdf8b4c520ffe197c5343c6f5aec59570151ef9a492f2c624fd45ddde6135ec4281565b5f8111610a93576040517f08c379a0000000000000000000000000000000000000000000000000000000008152600401610a8a90612d2d565b60405180910390fd5b7f000000000000000000000000000000000000000000000000000000000000000073ffffffffffffffffffffffffffffffffffffffff166323b872dd3330846040518463ffffffff1660e01b8152600401610af093929190612b62565b6020604051808303815f875af1158015610b0c573d5f803e3d5ffd5b505050506040513d601f19601f82011682018060405250810190610b309190612bc1565b610b6f576040517f08c379a0000000000000000000000000000000000000000000000000000000008152600401610b6690612d95565b60405180910390fd5b7f000000000000000000000000000000000000000000000000000000000000000073ffffffffffffffffffffffffffffffffffffffff1663a9059cbb33836040518363ffffffff1660e01b8152600401610bca929190612c54565b6020604051808303815f875af1158015610be6573d5f803e3d5ffd5b505050506040513d601f19601f82011682018060405250810190610c0a9190612bc1565b610c49576040517f08c379a0000000000000000000000000000000000000000000000000000000008152600401610c4090612c36565b60405180910390fd5b7f000000000000000000000000000000000000000000000000000000000000000073ffffffffffffffffffffffffffffffffffffffff166342966c68826040518263ffffffff1660e01b8152600401610ca291906125cb565b5f604051808303815f87803b158015610cb9575f80fd5b505af1158015610ccb573d5f803e3d5ffd5b5050505050565b610cdb82610a10565b610ce481611b66565b610cee8383611b7a565b50505050565b5f6012905090565b610d046119cb565b73ffffffffffffffffffffffffffffffffffffffff168173ffffffffffffffffffffffffffffffffffffffff1614610d68576040517f6697b23200000000000000000000000000000000000000000000000000000000815260040160405180910390fd5b610d728282611c64565b505050565b7fdf8b4c520ffe197c5343c6f5aec59570151ef9a492f2c624fd45ddde6135ec42610da181611b66565b610da9611d4e565b50565b5f60055f9054906101000a900460ff16905090565b7f000000000000000000000000000000000000000000000000000000000000000073ffffffffffffffffffffffffffffffffffffffff166323b872dd3330846040518463ffffffff1660e01b8152600401610e1e93929190612b62565b6020604051808303815f875af1158015610e3a573d5f803e3d5ffd5b505050506040513d601f19601f82011682018060405250810190610e5e9190612bc1565b610e9d576040517f08c379a0000000000000000000000000000000000000000000000000000000008152600401610e9490612dfd565b60405180910390fd5b50565b5f805f8373ffffffffffffffffffffffffffffffffffffffff1673ffffffffffffffffffffffffffffffffffffffff1681526020019081526020015f20549050919050565b7f000000000000000000000000000000000000000000000000000000000000000081565b7fdf8b4c520ffe197c5343c6f5aec59570151ef9a492f2c624fd45ddde6135ec42610f3381611b66565b610f3b611daf565b50565b5f3073ffffffffffffffffffffffffffffffffffffffff166370a08231336040518263ffffffff1660e01b8152600401610f789190612766565b602060405180830381865afa158015610f93573d5f803e3d5ffd5b505050506040513d601f19601f82011682018060405250810190610fb79190612b04565b905090565b7fdf8b4c520ffe197c5343c6f5aec59570151ef9a492f2c624fd45ddde6135ec42610fe681611b66565b815183511461102a576040517f08c379a000000000000000000000000000000000000000000000000000000000815260040161102190612e8b565b60405180910390fd5b5f5b8351811015611150577f000000000000000000000000000000000000000000000000000000000000000073ffffffffffffffffffffffffffffffffffffffff1663a9059cbb85838151811061108457611083612ea9565b5b602002602001015185848151811061109f5761109e612ea9565b5b60200260200101516040518363ffffffff1660e01b81526004016110c4929190612c54565b6020604051808303815f875af11580156110e0573d5f803e3d5ffd5b505050506040513d601f19601f820116820180604052508101906111049190612bc1565b611143576040517f08c379a000000000000000000000000000000000000000000000000000000000815260040161113a90612f20565b60405180910390fd5b808060010191505061102c565b50505050565b5f60065f8481526020019081526020015f205f015f8373ffffffffffffffffffffffffffffffffffffffff1673ffffffffffffffffffffffffffffffffffffffff1681526020019081526020015f205f9054906101000a900460ff16905092915050565b6060600480546111c990612a60565b80601f01602080910402602001604051908101604052809291908181526020018280546111f590612a60565b80156112405780601f1061121757610100808354040283529160200191611240565b820191905f5260205f20905b81548152906001019060200180831161122357829003601f168201915b5050505050905090565b7f000000000000000000000000000000000000000000000000000000000000000081565b5f801b81565b5f8061127e6119cb565b905061128b818585611a76565b600191505092915050565b5f7f000000000000000000000000000000000000000000000000000000000000000073ffffffffffffffffffffffffffffffffffffffff166370a08231336040518263ffffffff1660e01b81526004016112f09190612766565b602060405180830381865afa15801561130b573d5f803e3d5ffd5b505050506040513d601f19601f8201168201806040525081019061132f9190612b04565b905090565b60075481565b7f000000000000000000000000000000000000000000000000000000000000000042101561139d576040517f08c379a000000000000000000000000000000000000000000000000000000000815260040161139490612f88565b60405180910390fd5b5f81116113df576040517f08c379a00000000000000000000000000000000000000000000000000000000081526004016113d690612d2d565b60405180910390fd5b3073ffffffffffffffffffffffffffffffffffffffff166323b872dd3330846040518463ffffffff1660e01b815260040161141c93929190612b62565b6020604051808303815f875af1158015611438573d5f803e3d5ffd5b505050506040513d601f19601f8201168201806040525081019061145c9190612bc1565b61149b576040517f08c379a000000000000000000000000000000000000000000000000000000000815260040161149290612cc5565b60405180910390fd5b7f000000000000000000000000000000000000000000000000000000000000000073ffffffffffffffffffffffffffffffffffffffff1663a9059cbb33836040518363ffffffff1660e01b81526004016114f6929190612c54565b6020604051808303815f875af1158015611512573d5f803e3d5ffd5b505050506040513d601f19601f820116820180604052508101906115369190612bc1565b611575576040517f08c379a000000000000000000000000000000000000000000000000000000000815260040161156c90612c36565b60405180910390fd5b61157f3082611e11565b50565b5f7f000000000000000000000000000000000000000000000000000000000000000073ffffffffffffffffffffffffffffffffffffffff166370a08231336040518263ffffffff1660e01b81526004016115dc9190612766565b602060405180830381865afa1580156115f7573d5f803e3d5ffd5b505050506040513d601f19601f8201168201806040525081019061161b9190612b04565b905090565b7ff877234297ef562d54f0328f892acfc1d6c1e44ca89f02e3a2c2a4736f6095b761164a81611b66565b5f6007541161168e576040517f08c379a000000000000000000000000000000000000000000000000000000000815260040161168590612ff0565b60405180910390fd5b7f000000000000000000000000000000000000000000000000000000000000000073ffffffffffffffffffffffffffffffffffffffff1663a9059cbb336007546040518363ffffffff1660e01b81526004016116eb929190612c54565b6020604051808303815f875af1158015611707573d5f803e3d5ffd5b505050506040513d601f19601f8201168201806040525081019061172b9190612bc1565b61176a576040517f08c379a000000000000000000000000000000000000000000000000000000000815260040161176190613058565b60405180910390fd5b50565b61177682610a10565b61177f81611b66565b6117898383611c64565b50505050565b7f000000000000000000000000000000000000000000000000000000000000000081565b5f60015f8473ffffffffffffffffffffffffffffffffffffffff1673ffffffffffffffffffffffffffffffffffffffff1681526020019081526020015f205f8373ffffffffffffffffffffffffffffffffffffffff1673ffffffffffffffffffffffffffffffffffffffff1681526020019081526020015f2054905092915050565b7ff877234297ef562d54f0328f892acfc1d6c1e44ca89f02e3a2c2a4736f6095b781565b7fdf8b4c520ffe197c5343c6f5aec59570151ef9a492f2c624fd45ddde6135ec4261188381611b66565b7f000000000000000000000000000000000000000000000000000000000000000073ffffffffffffffffffffffffffffffffffffffff1663a9059cbb84846040518363ffffffff1660e01b81526004016118de929190612c54565b6020604051808303815f875af11580156118fa573d5f803e3d5ffd5b505050506040513d601f19601f8201168201806040525081019061191e9190612bc1565b61195d576040517f08c379a000000000000000000000000000000000000000000000000000000000815260040161195490612f20565b60405180910390fd5b505050565b5f7f01ffc9a7000000000000000000000000000000000000000000000000000000007bffffffffffffffffffffffffffffffffffffffffffffffffffffffff1916827bffffffffffffffffffffffffffffffffffffffffffffffffffffffff1916149050919050565b5f33905090565b6119df8383836001611e90565b505050565b5f6119ef84846117b3565b90507fffffffffffffffffffffffffffffffffffffffffffffffffffffffffffffffff8114611a705781811015611a61578281836040517ffb8f41b2000000000000000000000000000000000000000000000000000000008152600401611a5893929190613076565b60405180910390fd5b611a6f84848484035f611e90565b5b50505050565b5f73ffffffffffffffffffffffffffffffffffffffff168373ffffffffffffffffffffffffffffffffffffffff1603611ae6575f6040517f96c6fd1e000000000000000000000000000000000000000000000000000000008152600401611add9190612766565b60405180910390fd5b5f73ffffffffffffffffffffffffffffffffffffffff168273ffffffffffffffffffffffffffffffffffffffff1603611b56575f6040517fec442f05000000000000000000000000000000000000000000000000000000008152600401611b4d9190612766565b60405180910390fd5b611b6183838361205f565b505050565b611b7781611b726119cb565b61206f565b50565b5f611b858383611156565b611c5a57600160065f8581526020019081526020015f205f015f8473ffffffffffffffffffffffffffffffffffffffff1673ffffffffffffffffffffffffffffffffffffffff1681526020019081526020015f205f6101000a81548160ff021916908315150217905550611bf76119cb565b73ffffffffffffffffffffffffffffffffffffffff168273ffffffffffffffffffffffffffffffffffffffff16847f2f8788117e7eff1d82e926ec794901d17c78024a50270940304540a733656f0d60405160405180910390a460019050611c5e565b5f90505b92915050565b5f611c6f8383611156565b15611d44575f60065f8581526020019081526020015f205f015f8473ffffffffffffffffffffffffffffffffffffffff1673ffffffffffffffffffffffffffffffffffffffff1681526020019081526020015f205f6101000a81548160ff021916908315150217905550611ce16119cb565b73ffffffffffffffffffffffffffffffffffffffff168273ffffffffffffffffffffffffffffffffffffffff16847ff6391f5c32d9c69d2a47ea670b442974b53935d1edc7fd64eb21e047a839171b60405160405180910390a460019050611d48565b5f90505b92915050565b611d566120c0565b5f60055f6101000a81548160ff0219169083151502179055507f5db9ee0a495bf2e6ff9c91a7834c1ba4fdd244a5e8aa4e537bd38aeae4b073aa611d986119cb565b604051611da59190612766565b60405180910390a1565b611db7612100565b600160055f6101000a81548160ff0219169083151502179055507f62e78cea01bee320cd4e420270b5ea74000d11b0c9f74754ebdbfc544b05a258611dfa6119cb565b604051611e079190612766565b60405180910390a1565b5f73ffffffffffffffffffffffffffffffffffffffff168273ffffffffffffffffffffffffffffffffffffffff1603611e81575f6040517f96c6fd1e000000000000000000000000000000000000000000000000000000008152600401611e789190612766565b60405180910390fd5b611e8c825f8361205f565b5050565b5f73ffffffffffffffffffffffffffffffffffffffff168473ffffffffffffffffffffffffffffffffffffffff1603611f00575f6040517fe602df05000000000000000000000000000000000000000000000000000000008152600401611ef79190612766565b60405180910390fd5b5f73ffffffffffffffffffffffffffffffffffffffff168373ffffffffffffffffffffffffffffffffffffffff1603611f70575f6040517f94280d62000000000000000000000000000000000000000000000000000000008152600401611f679190612766565b60405180910390fd5b8160015f8673ffffffffffffffffffffffffffffffffffffffff1673ffffffffffffffffffffffffffffffffffffffff1681526020019081526020015f205f8573ffffffffffffffffffffffffffffffffffffffff1673ffffffffffffffffffffffffffffffffffffffff1681526020019081526020015f20819055508015612059578273ffffffffffffffffffffffffffffffffffffffff168473ffffffffffffffffffffffffffffffffffffffff167f8c5be1e5ebec7d5bd14f71427d1e84f3dd0314c0f7b2291e5b200ac8c7c3b9258460405161205091906125cb565b60405180910390a35b50505050565b61206a838383612141565b505050565b6120798282611156565b6120bc5780826040517fe2517d3f0000000000000000000000000000000000000000000000000000000081526004016120b39291906130ab565b60405180910390fd5b5050565b6120c8610dac565b6120fe576040517f8dfc202b00000000000000000000000000000000000000000000000000000000815260040160405180910390fd5b565b612108610dac565b1561213f576040517fd93c066500000000000000000000000000000000000000000000000000000000815260040160405180910390fd5b565b612149612100565b612154838383612159565b505050565b5f73ffffffffffffffffffffffffffffffffffffffff168373ffffffffffffffffffffffffffffffffffffffff16036121a9578060025f82825461219d9190612abd565b92505081905550612277565b5f805f8573ffffffffffffffffffffffffffffffffffffffff1673ffffffffffffffffffffffffffffffffffffffff1681526020019081526020015f2054905081811015612232578381836040517fe450d38c00000000000000000000000000000000000000000000000000000000815260040161222993929190613076565b60405180910390fd5b8181035f808673ffffffffffffffffffffffffffffffffffffffff1673ffffffffffffffffffffffffffffffffffffffff1681526020019081526020015f2081905550505b5f73ffffffffffffffffffffffffffffffffffffffff168273ffffffffffffffffffffffffffffffffffffffff16036122be578060025f8282540392505081905550612308565b805f808473ffffffffffffffffffffffffffffffffffffffff1673ffffffffffffffffffffffffffffffffffffffff1681526020019081526020015f205f82825401925050819055505b8173ffffffffffffffffffffffffffffffffffffffff168373ffffffffffffffffffffffffffffffffffffffff167fddf252ad1be2c89b69c2b068fc378daa952ba7f163c4a11628f55a4df523b3ef8360405161236591906125cb565b60405180910390a3505050565b5f604051905090565b5f80fd5b5f80fd5b5f7fffffffff0000000000000000000000000000000000000000000000000000000082169050919050565b6123b781612383565b81146123c1575f80fd5b50565b5f813590506123d2816123ae565b92915050565b5f602082840312156123ed576123ec61237b565b5b5f6123fa848285016123c4565b91505092915050565b5f8115159050919050565b61241781612403565b82525050565b5f6020820190506124305f83018461240e565b92915050565b5f81519050919050565b5f82825260208201905092915050565b8281835e5f83830152505050565b5f601f19601f8301169050919050565b5f61247882612436565b6124828185612440565b9350612492818560208601612450565b61249b8161245e565b840191505092915050565b5f6020820190508181035f8301526124be818461246e565b905092915050565b5f73ffffffffffffffffffffffffffffffffffffffff82169050919050565b5f6124ef826124c6565b9050919050565b6124ff816124e5565b8114612509575f80fd5b50565b5f8135905061251a816124f6565b92915050565b5f819050919050565b61253281612520565b811461253c575f80fd5b50565b5f8135905061254d81612529565b92915050565b5f80604083850312156125695761256861237b565b5b5f6125768582860161250c565b92505060206125878582860161253f565b9150509250929050565b5f602082840312156125a6576125a561237b565b5b5f6125b38482850161253f565b91505092915050565b6125c581612520565b82525050565b5f6020820190506125de5f8301846125bc565b92915050565b5f805f606084860312156125fb576125fa61237b565b5b5f6126088682870161250c565b93505060206126198682870161250c565b925050604061262a8682870161253f565b9150509250925092565b5f819050919050565b61264681612634565b8114612650575f80fd5b50565b5f813590506126618161263d565b92915050565b5f6020828403121561267c5761267b61237b565b5b5f61268984828501612653565b91505092915050565b61269b81612634565b82525050565b5f6020820190506126b45f830184612692565b92915050565b5f80604083850312156126d0576126cf61237b565b5b5f6126dd85828601612653565b92505060206126ee8582860161250c565b9150509250929050565b5f60ff82169050919050565b61270d816126f8565b82525050565b5f6020820190506127265f830184612704565b92915050565b5f602082840312156127415761274061237b565b5b5f61274e8482850161250c565b91505092915050565b612760816124e5565b82525050565b5f6020820190506127795f830184612757565b92915050565b5f80fd5b7f4e487b71000000000000000000000000000000000000000000000000000000005f52604160045260245ffd5b6127b98261245e565b810181811067ffffffffffffffff821117156127d8576127d7612783565b5b80604052505050565b5f6127ea612372565b90506127f682826127b0565b919050565b5f67ffffffffffffffff82111561281557612814612783565b5b602082029050602081019050919050565b5f80fd5b5f61283c612837846127fb565b6127e1565b9050808382526020820190506020840283018581111561285f5761285e612826565b5b835b818110156128885780612874888261250c565b845260208401935050602081019050612861565b5050509392505050565b5f82601f8301126128a6576128a561277f565b5b81356128b684826020860161282a565b91505092915050565b5f67ffffffffffffffff8211156128d9576128d8612783565b5b602082029050602081019050919050565b5f6128fc6128f7846128bf565b6127e1565b9050808382526020820190506020840283018581111561291f5761291e612826565b5b835b818110156129485780612934888261253f565b845260208401935050602081019050612921565b5050509392505050565b5f82601f8301126129665761296561277f565b5b81356129768482602086016128ea565b91505092915050565b5f80604083850312156129955761299461237b565b5b5f83013567ffffffffffffffff8111156129b2576129b161237f565b5b6129be85828601612892565b925050602083013567ffffffffffffffff8111156129df576129de61237f565b5b6129eb85828601612952565b9150509250929050565b5f8060408385031215612a0b57612a0a61237b565b5b5f612a188582860161250c565b9250506020612a298582860161250c565b9150509250929050565b7f4e487b71000000000000000000000000000000000000000000000000000000005f52602260045260245ffd5b5f6002820490506001821680612a7757607f821691505b602082108103612a8a57612a89612a33565b5b50919050565b7f4e487b71000000000000000000000000000000000000000000000000000000005f52601160045260245ffd5b5f612ac782612520565b9150612ad283612520565b9250828201905080821115612aea57612ae9612a90565b5b92915050565b5f81519050612afe81612529565b92915050565b5f60208284031215612b1957612b1861237b565b5b5f612b2684828501612af0565b91505092915050565b5f612b3982612520565b9150612b4483612520565b9250828203905081811115612b5c57612b5b612a90565b5b92915050565b5f606082019050612b755f830186612757565b612b826020830185612757565b612b8f60408301846125bc565b949350505050565b612ba081612403565b8114612baa575f80fd5b50565b5f81519050612bbb81612b97565b92915050565b5f60208284031215612bd657612bd561237b565b5b5f612be384828501612bad565b91505092915050565b7f537461626c6520636f696e207472616e73666572206661696c656400000000005f82015250565b5f612c20601b83612440565b9150612c2b82612bec565b602082019050919050565b5f6020820190508181035f830152612c4d81612c14565b9050919050565b5f604082019050612c675f830185612757565b612c7460208301846125bc565b9392505050565b7f426f6e6420746f6b656e207472616e73666572206661696c65640000000000005f82015250565b5f612caf601a83612440565b9150612cba82612c7b565b602082019050919050565b5f6020820190508181035f830152612cdc81612ca3565b9050919050565b7f43616e277420636c61696d207a65726f20636f696e73000000000000000000005f82015250565b5f612d17601683612440565b9150612d2282612ce3565b602082019050919050565b5f6020820190508181035f830152612d4481612d0b565b9050919050565b7f496e74657265737420746f6b656e207472616e73666572206661696c656400005f82015250565b5f612d7f601e83612440565b9150612d8a82612d4b565b602082019050919050565b5f6020820190508181035f830152612dac81612d73565b9050919050565b7f537461626c6520636f696e206465706f736974206661696c65642e00000000005f82015250565b5f612de7601b83612440565b9150612df282612db3565b602082019050919050565b5f6020820190508181035f830152612e1481612ddb565b9050919050565b7f546f6b656e20686f6c6465727320616e6420616d6f756e7473206c656e6774685f8201527f206d69736d617463680000000000000000000000000000000000000000000000602082015250565b5f612e75602983612440565b9150612e8082612e1b565b604082019050919050565b5f6020820190508181035f830152612ea281612e69565b9050919050565b7f4e487b71000000000000000000000000000000000000000000000000000000005f52603260045260245ffd5b7f5472616e73666572206661696c656400000000000000000000000000000000005f82015250565b5f612f0a600f83612440565b9150612f1582612ed6565b602082019050919050565b5f6020820190508181035f830152612f3781612efe565b9050919050565b7f4d61747572697479206e6f7420796574207265616368656400000000000000005f82015250565b5f612f72601883612440565b9150612f7d82612f3e565b602082019050919050565b5f6020820190508181035f830152612f9f81612f66565b9050919050565b7f4e6f20696e766573746f722066756e647320617661696c61626c652e000000005f82015250565b5f612fda601c83612440565b9150612fe582612fa6565b602082019050919050565b5f6020820190508181035f83015261300781612fce565b9050919050565b7f4661696c656420746f207472616e7366657220737461626c6520636f696e73005f82015250565b5f613042601f83612440565b915061304d8261300e565b602082019050919050565b5f6020820190508181035f83015261306f81613036565b9050919050565b5f6060820190506130895f830186612757565b61309660208301856125bc565b6130a360408301846125bc565b949350505050565b5f6040820190506130be5f830185612757565b6130cb6020830184612692565b939250505056fea264697066735822122031777a84ca30bd3a844251ad70984f5b055ce5cbbb5e172c1dcb0b381d0941ea64736f6c634300081a0033608060405234801561000f575f80fd5b50604051611854380380611854833981810160405281019061003191906104e6565b818181600390816100429190610786565b5080600490816100529190610786565b505050610065848461006e60201b60201c565b5050505061093a565b5f73ffffffffffffffffffffffffffffffffffffffff168273ffffffffffffffffffffffffffffffffffffffff16036100de575f6040517fec442f050000000000000000000000000000000000000000000000000000000081526004016100d59190610864565b60405180910390fd5b6100ef5f83836100f360201b60201c565b5050565b5f73ffffffffffffffffffffffffffffffffffffffff168373ffffffffffffffffffffffffffffffffffffffff1603610143578060025f82825461013791906108aa565b92505081905550610211565b5f805f8573ffffffffffffffffffffffffffffffffffffffff1673ffffffffffffffffffffffffffffffffffffffff1681526020019081526020015f20549050818110156101cc578381836040517fe450d38c0000000000000000000000000000000000000000000000000000000081526004016101c3939291906108ec565b60405180910390fd5b8181035f808673ffffffffffffffffffffffffffffffffffffffff1673ffffffffffffffffffffffffffffffffffffffff1681526020019081526020015f2081905550505b5f73ffffffffffffffffffffffffffffffffffffffff168273ffffffffffffffffffffffffffffffffffffffff1603610258578060025f82825403925050819055506102a2565b805f808473ffffffffffffffffffffffffffffffffffffffff1673ffffffffffffffffffffffffffffffffffffffff1681526020019081526020015f205f82825401925050819055505b8173ffffffffffffffffffffffffffffffffffffffff168373ffffffffffffffffffffffffffffffffffffffff167fddf252ad1be2c89b69c2b068fc378daa952ba7f163c4a11628f55a4df523b3ef836040516102ff9190610921565b60405180910390a3505050565b5f604051905090565b5f80fd5b5f80fd5b5f73ffffffffffffffffffffffffffffffffffffffff82169050919050565b5f6103468261031d565b9050919050565b6103568161033c565b8114610360575f80fd5b50565b5f815190506103718161034d565b92915050565b5f819050919050565b61038981610377565b8114610393575f80fd5b50565b5f815190506103a481610380565b92915050565b5f80fd5b5f80fd5b5f601f19601f8301169050919050565b7f4e487b71000000000000000000000000000000000000000000000000000000005f52604160045260245ffd5b6103f8826103b2565b810181811067ffffffffffffffff82111715610417576104166103c2565b5b80604052505050565b5f61042961030c565b905061043582826103ef565b919050565b5f67ffffffffffffffff821115610454576104536103c2565b5b61045d826103b2565b9050602081019050919050565b8281835e5f83830152505050565b5f61048a6104858461043a565b610420565b9050828152602081018484840111156104a6576104a56103ae565b5b6104b184828561046a565b509392505050565b5f82601f8301126104cd576104cc6103aa565b5b81516104dd848260208601610478565b91505092915050565b5f805f80608085870312156104fe576104fd610315565b5b5f61050b87828801610363565b945050602061051c87828801610396565b935050604085015167ffffffffffffffff81111561053d5761053c610319565b5b610549878288016104b9565b925050606085015167ffffffffffffffff81111561056a57610569610319565b5b610576878288016104b9565b91505092959194509250565b5f81519050919050565b7f4e487b71000000000000000000000000000000000000000000000000000000005f52602260045260245ffd5b5f60028204905060018216806105d057607f821691505b6020821081036105e3576105e261058c565b5b50919050565b5f819050815f5260205f209050919050565b5f6020601f8301049050919050565b5f82821b905092915050565b5f600883026106457fffffffffffffffffffffffffffffffffffffffffffffffffffffffffffffffff8261060a565b61064f868361060a565b95508019841693508086168417925050509392505050565b5f819050919050565b5f61068a61068561068084610377565b610667565b610377565b9050919050565b5f819050919050565b6106a383610670565b6106b76106af82610691565b848454610616565b825550505050565b5f90565b6106cb6106bf565b6106d681848461069a565b505050565b5b818110156106f9576106ee5f826106c3565b6001810190506106dc565b5050565b601f82111561073e5761070f816105e9565b610718846105fb565b81016020851015610727578190505b61073b610733856105fb565b8301826106db565b50505b505050565b5f82821c905092915050565b5f61075e5f1984600802610743565b1980831691505092915050565b5f610776838361074f565b9150826002028217905092915050565b61078f82610582565b67ffffffffffffffff8111156107a8576107a76103c2565b5b6107b282546105b9565b6107bd8282856106fd565b5f60209050601f8311600181146107ee575f84156107dc578287015190505b6107e6858261076b565b86555061084d565b601f1984166107fc866105e9565b5f5b82811015610823578489015182556001820191506020850194506020810190506107fe565b86831015610840578489015161083c601f89168261074f565b8355505b6001600288020188555050505b505050505050565b61085e8161033c565b82525050565b5f6020820190506108775f830184610855565b92915050565b7f4e487b71000000000000000000000000000000000000000000000000000000005f52601160045260245ffd5b5f6108b482610377565b91506108bf83610377565b92508282019050808211156108d7576108d661087d565b5b92915050565b6108e681610377565b82525050565b5f6060820190506108ff5f830186610855565b61090c60208301856108dd565b61091960408301846108dd565b949350505050565b5f6020820190506109345f8301846108dd565b92915050565b610f0d806109475f395ff3fe608060405234801561000f575f80fd5b50600436106100a7575f3560e01c806342966c681161006f57806342966c681461016557806370a082311461018157806379cc6790146101b157806395d89b41146101cd578063a9059cbb146101eb578063dd62ed3e1461021b576100a7565b806306fdde03146100ab578063095ea7b3146100c957806318160ddd146100f957806323b872dd14610117578063313ce56714610147575b5f80fd5b6100b361024b565b6040516100c09190610b5b565b60405180910390f35b6100e360048036038101906100de9190610c0c565b6102db565b6040516100f09190610c64565b60405180910390f35b6101016102fd565b60405161010e9190610c8c565b60405180910390f35b610131600480360381019061012c9190610ca5565b610306565b60405161013e9190610c64565b60405180910390f35b61014f610334565b60405161015c9190610d10565b60405180910390f35b61017f600480360381019061017a9190610d29565b61033c565b005b61019b60048036038101906101969190610d54565b610350565b6040516101a89190610c8c565b60405180910390f35b6101cb60048036038101906101c69190610c0c565b610395565b005b6101d56103b5565b6040516101e29190610b5b565b60405180910390f35b61020560048036038101906102009190610c0c565b610445565b6040516102129190610c64565b60405180910390f35b61023560048036038101906102309190610d7f565b610467565b6040516102429190610c8c565b60405180910390f35b60606003805461025a90610dea565b80601f016020809104026020016040519081016040528092919081815260200182805461028690610dea565b80156102d15780601f106102a8576101008083540402835291602001916102d1565b820191905f5260205f20905b8154815290600101906020018083116102b457829003601f168201915b5050505050905090565b5f806102e56104e9565b90506102f28185856104f0565b600191505092915050565b5f600254905090565b5f806103106104e9565b905061031d858285610502565b610328858585610594565b60019150509392505050565b5f6012905090565b61034d6103476104e9565b82610684565b50565b5f805f8373ffffffffffffffffffffffffffffffffffffffff1673ffffffffffffffffffffffffffffffffffffffff1681526020019081526020015f20549050919050565b6103a7826103a16104e9565b83610502565b6103b18282610684565b5050565b6060600480546103c490610dea565b80601f01602080910402602001604051908101604052809291908181526020018280546103f090610dea565b801561043b5780601f106104125761010080835404028352916020019161043b565b820191905f5260205f20905b81548152906001019060200180831161041e57829003601f168201915b5050505050905090565b5f8061044f6104e9565b905061045c818585610594565b600191505092915050565b5f60015f8473ffffffffffffffffffffffffffffffffffffffff1673ffffffffffffffffffffffffffffffffffffffff1681526020019081526020015f205f8373ffffffffffffffffffffffffffffffffffffffff1673ffffffffffffffffffffffffffffffffffffffff1681526020019081526020015f2054905092915050565b5f33905090565b6104fd8383836001610703565b505050565b5f61050d8484610467565b90507fffffffffffffffffffffffffffffffffffffffffffffffffffffffffffffffff811461058e578181101561057f578281836040517ffb8f41b200000000000000000000000000000000000000000000000000000000815260040161057693929190610e29565b60405180910390fd5b61058d84848484035f610703565b5b50505050565b5f73ffffffffffffffffffffffffffffffffffffffff168373ffffffffffffffffffffffffffffffffffffffff1603610604575f6040517f96c6fd1e0000000000000000000000000000000000000000000000000000000081526004016105fb9190610e5e565b60405180910390fd5b5f73ffffffffffffffffffffffffffffffffffffffff168273ffffffffffffffffffffffffffffffffffffffff1603610674575f6040517fec442f0500000000000000000000000000000000000000000000000000000000815260040161066b9190610e5e565b60405180910390fd5b61067f8383836108d2565b505050565b5f73ffffffffffffffffffffffffffffffffffffffff168273ffffffffffffffffffffffffffffffffffffffff16036106f4575f6040517f96c6fd1e0000000000000000000000000000000000000000000000000000000081526004016106eb9190610e5e565b60405180910390fd5b6106ff825f836108d2565b5050565b5f73ffffffffffffffffffffffffffffffffffffffff168473ffffffffffffffffffffffffffffffffffffffff1603610773575f6040517fe602df0500000000000000000000000000000000000000000000000000000000815260040161076a9190610e5e565b60405180910390fd5b5f73ffffffffffffffffffffffffffffffffffffffff168373ffffffffffffffffffffffffffffffffffffffff16036107e3575f6040517f94280d620000000000000000000000000000000000000000000000000000000081526004016107da9190610e5e565b60405180910390fd5b8160015f8673ffffffffffffffffffffffffffffffffffffffff1673ffffffffffffffffffffffffffffffffffffffff1681526020019081526020015f205f8573ffffffffffffffffffffffffffffffffffffffff1673ffffffffffffffffffffffffffffffffffffffff1681526020019081526020015f208190555080156108cc578273ffffffffffffffffffffffffffffffffffffffff168473ffffffffffffffffffffffffffffffffffffffff167f8c5be1e5ebec7d5bd14f71427d1e84f3dd0314c0f7b2291e5b200ac8c7c3b925846040516108c39190610c8c565b60405180910390a35b50505050565b5f73ffffffffffffffffffffffffffffffffffffffff168373ffffffffffffffffffffffffffffffffffffffff1603610922578060025f8282546109169190610ea4565b925050819055506109f0565b5f805f8573ffffffffffffffffffffffffffffffffffffffff1673ffffffffffffffffffffffffffffffffffffffff1681526020019081526020015f20549050818110156109ab578381836040517fe450d38c0000000000000000000000000000000000000000000000000000000081526004016109a293929190610e29565b60405180910390fd5b8181035f808673ffffffffffffffffffffffffffffffffffffffff1673ffffffffffffffffffffffffffffffffffffffff1681526020019081526020015f2081905550505b5f73ffffffffffffffffffffffffffffffffffffffff168273ffffffffffffffffffffffffffffffffffffffff1603610a37578060025f8282540392505081905550610a81565b805f808473ffffffffffffffffffffffffffffffffffffffff1673ffffffffffffffffffffffffffffffffffffffff1681526020019081526020015f205f82825401925050819055505b8173ffffffffffffffffffffffffffffffffffffffff168373ffffffffffffffffffffffffffffffffffffffff167fddf252ad1be2c89b69c2b068fc378daa952ba7f163c4a11628f55a4df523b3ef83604051610ade9190610c8c565b60405180910390a3505050565b5f81519050919050565b5f82825260208201905092915050565b8281835e5f83830152505050565b5f601f19601f8301169050919050565b5f610b2d82610aeb565b610b378185610af5565b9350610b47818560208601610b05565b610b5081610b13565b840191505092915050565b5f6020820190508181035f830152610b738184610b23565b905092915050565b5f80fd5b5f73ffffffffffffffffffffffffffffffffffffffff82169050919050565b5f610ba882610b7f565b9050919050565b610bb881610b9e565b8114610bc2575f80fd5b50565b5f81359050610bd381610baf565b92915050565b5f819050919050565b610beb81610bd9565b8114610bf5575f80fd5b50565b5f81359050610c0681610be2565b92915050565b5f8060408385031215610c2257610c21610b7b565b5b5f610c2f85828601610bc5565b9250506020610c4085828601610bf8565b9150509250929050565b5f8115159050919050565b610c5e81610c4a565b82525050565b5f602082019050610c775f830184610c55565b92915050565b610c8681610bd9565b82525050565b5f602082019050610c9f5f830184610c7d565b92915050565b5f805f60608486031215610cbc57610cbb610b7b565b5b5f610cc986828701610bc5565b9350506020610cda86828701610bc5565b9250506040610ceb86828701610bf8565b9150509250925092565b5f60ff82169050919050565b610d0a81610cf5565b82525050565b5f602082019050610d235f830184610d01565b92915050565b5f60208284031215610d3e57610d3d610b7b565b5b5f610d4b84828501610bf8565b91505092915050565b5f60208284031215610d6957610d68610b7b565b5b5f610d7684828501610bc5565b91505092915050565b5f8060408385031215610d9557610d94610b7b565b5b5f610da285828601610bc5565b9250506020610db385828601610bc5565b9150509250929050565b7f4e487b71000000000000000000000000000000000000000000000000000000005f52602260045260245ffd5b5f6002820490506001821680610e0157607f821691505b602082108103610e1457610e13610dbd565b5b50919050565b610e2381610b9e565b82525050565b5f606082019050610e3c5f830186610e1a565b610e496020830185610c7d565b610e566040830184610c7d565b949350505050565b5f602082019050610e715f830184610e1a565b92915050565b7f4e487b71000000000000000000000000000000000000000000000000000000005f52601160045260245ffd5b5f610eae82610bd9565b9150610eb983610bd9565b9250828201905080821115610ed157610ed0610e77565b5b9291505056fea26469706673582212203f649d6b5e36ab5c84cf060a95ac35c50e3e6fd0a17325b28ea92115c158137264736f6c634300081a0033",
			"opcodes": "PUSH1 0xE0 PUSH1 0x40 MSTORE CALLVALUE DUP1 ISZERO PUSH2 0xF JUMPI PUSH0 DUP1 REVERT JUMPDEST POP PUSH1 0x40 MLOAD PUSH2 0x566F CODESIZE SUB DUP1 PUSH2 0x566F DUP4 CODECOPY DUP2 DUP2 ADD PUSH1 0x40 MSTORE DUP2 ADD SWAP1 PUSH2 0x31 SWAP2 SWAP1 PUSH2 0x736 JUMP JUMPDEST PUSH1 0x40 MLOAD DUP1 PUSH1 0x40 ADD PUSH1 0x40 MSTORE DUP1 PUSH1 0xC DUP2 MSTORE PUSH1 0x20 ADD PUSH32 0x426F6E44654669546F6B656E0000000000000000000000000000000000000000 DUP2 MSTORE POP PUSH1 0x40 MLOAD DUP1 PUSH1 0x40 ADD PUSH1 0x40 MSTORE DUP1 PUSH1 0x3 DUP2 MSTORE PUSH1 0x20 ADD PUSH32 0x4244460000000000000000000000000000000000000000000000000000000000 DUP2 MSTORE POP DUP2 PUSH1 0x3 SWAP1 DUP2 PUSH2 0xAC SWAP2 SWAP1 PUSH2 0x9F0 JUMP JUMPDEST POP DUP1 PUSH1 0x4 SWAP1 DUP2 PUSH2 0xBC SWAP2 SWAP1 PUSH2 0x9F0 JUMP JUMPDEST POP POP POP PUSH0 PUSH1 0x5 PUSH0 PUSH2 0x100 EXP DUP2 SLOAD DUP2 PUSH1 0xFF MUL NOT AND SWAP1 DUP4 ISZERO ISZERO MUL OR SWAP1 SSTORE POP PUSH2 0x108 PUSH32 0xDF8B4C520FFE197C5343C6F5AEC59570151EF9A492F2C624FD45DDDE6135EC42 DUP8 PUSH2 0x203 PUSH1 0x20 SHL PUSH1 0x20 SHR JUMP JUMPDEST POP PUSH2 0x139 PUSH32 0xF877234297EF562D54F0328F892ACFC1D6C1E44CA89F02E3A2C2A4736F6095B7 DUP7 PUSH2 0x203 PUSH1 0x20 SHL PUSH1 0x20 SHR JUMP JUMPDEST POP DUP4 PUSH20 0xFFFFFFFFFFFFFFFFFFFFFFFFFFFFFFFFFFFFFFFF AND PUSH1 0x80 DUP2 PUSH20 0xFFFFFFFFFFFFFFFFFFFFFFFFFFFFFFFFFFFFFFFF AND DUP2 MSTORE POP POP DUP2 PUSH1 0xA0 DUP2 DUP2 MSTORE POP POP PUSH0 PUSH1 0x7 DUP2 SWAP1 SSTORE POP PUSH2 0x18D ADDRESS DUP5 PUSH2 0x2F9 PUSH1 0x20 SHL PUSH1 0x20 SHR JUMP JUMPDEST PUSH0 ADDRESS DUP3 PUSH1 0x40 MLOAD PUSH2 0x19C SWAP1 PUSH2 0x698 JUMP JUMPDEST PUSH2 0x1A7 SWAP3 SWAP2 SWAP1 PUSH2 0xB81 JUMP JUMPDEST PUSH1 0x40 MLOAD DUP1 SWAP2 SUB SWAP1 PUSH0 CREATE DUP1 ISZERO DUP1 ISZERO PUSH2 0x1C0 JUMPI RETURNDATASIZE PUSH0 DUP1 RETURNDATACOPY RETURNDATASIZE PUSH0 REVERT JUMPDEST POP SWAP1 POP DUP1 PUSH20 0xFFFFFFFFFFFFFFFFFFFFFFFFFFFFFFFFFFFFFFFF AND PUSH1 0xC0 DUP2 PUSH20 0xFFFFFFFFFFFFFFFFFFFFFFFFFFFFFFFFFFFFFFFF AND DUP2 MSTORE POP POP POP POP POP POP POP POP POP PUSH2 0xC95 JUMP JUMPDEST PUSH0 PUSH2 0x214 DUP4 DUP4 PUSH2 0x37E PUSH1 0x20 SHL PUSH1 0x20 SHR JUMP JUMPDEST PUSH2 0x2EF JUMPI PUSH1 0x1 PUSH1 0x6 PUSH0 DUP6 DUP2 MSTORE PUSH1 0x20 ADD SWAP1 DUP2 MSTORE PUSH1 0x20 ADD PUSH0 KECCAK256 PUSH0 ADD PUSH0 DUP5 PUSH20 0xFFFFFFFFFFFFFFFFFFFFFFFFFFFFFFFFFFFFFFFF AND PUSH20 0xFFFFFFFFFFFFFFFFFFFFFFFFFFFFFFFFFFFFFFFF AND DUP2 MSTORE PUSH1 0x20 ADD SWAP1 DUP2 MSTORE PUSH1 0x20 ADD PUSH0 KECCAK256 PUSH0 PUSH2 0x100 EXP DUP2 SLOAD DUP2 PUSH1 0xFF MUL NOT AND SWAP1 DUP4 ISZERO ISZERO MUL OR SWAP1 SSTORE POP PUSH2 0x28C PUSH2 0x3E2 PUSH1 0x20 SHL PUSH1 0x20 SHR JUMP JUMPDEST PUSH20 0xFFFFFFFFFFFFFFFFFFFFFFFFFFFFFFFFFFFFFFFF AND DUP3 PUSH20 0xFFFFFFFFFFFFFFFFFFFFFFFFFFFFFFFFFFFFFFFF AND DUP5 PUSH32 0x2F8788117E7EFF1D82E926EC794901D17C78024A50270940304540A733656F0D PUSH1 0x40 MLOAD PUSH1 0x40 MLOAD DUP1 SWAP2 SUB SWAP1 LOG4 PUSH1 0x1 SWAP1 POP PUSH2 0x2F3 JUMP JUMPDEST PUSH0 SWAP1 POP JUMPDEST SWAP3 SWAP2 POP POP JUMP JUMPDEST PUSH0 PUSH20 0xFFFFFFFFFFFFFFFFFFFFFFFFFFFFFFFFFFFFFFFF AND DUP3 PUSH20 0xFFFFFFFFFFFFFFFFFFFFFFFFFFFFFFFFFFFFFFFF AND SUB PUSH2 0x369 JUMPI PUSH0 PUSH1 0x40 MLOAD PUSH32 0xEC442F0500000000000000000000000000000000000000000000000000000000 DUP2 MSTORE PUSH1 0x4 ADD PUSH2 0x360 SWAP2 SWAP1 PUSH2 0xBCE JUMP JUMPDEST PUSH1 0x40 MLOAD DUP1 SWAP2 SUB SWAP1 REVERT JUMPDEST PUSH2 0x37A PUSH0 DUP4 DUP4 PUSH2 0x3E9 PUSH1 0x20 SHL PUSH1 0x20 SHR JUMP JUMPDEST POP POP JUMP JUMPDEST PUSH0 PUSH1 0x6 PUSH0 DUP5 DUP2 MSTORE PUSH1 0x20 ADD SWAP1 DUP2 MSTORE PUSH1 0x20 ADD PUSH0 KECCAK256 PUSH0 ADD PUSH0 DUP4 PUSH20 0xFFFFFFFFFFFFFFFFFFFFFFFFFFFFFFFFFFFFFFFF AND PUSH20 0xFFFFFFFFFFFFFFFFFFFFFFFFFFFFFFFFFFFFFFFF AND DUP2 MSTORE PUSH1 0x20 ADD SWAP1 DUP2 MSTORE PUSH1 0x20 ADD PUSH0 KECCAK256 PUSH0 SWAP1 SLOAD SWAP1 PUSH2 0x100 EXP SWAP1 DIV PUSH1 0xFF AND SWAP1 POP SWAP3 SWAP2 POP POP JUMP JUMPDEST PUSH0 CALLER SWAP1 POP SWAP1 JUMP JUMPDEST PUSH2 0x3FA DUP4 DUP4 DUP4 PUSH2 0x3FF PUSH1 0x20 SHL PUSH1 0x20 SHR JUMP JUMPDEST POP POP POP JUMP JUMPDEST PUSH2 0x40D PUSH2 0x423 PUSH1 0x20 SHL PUSH1 0x20 SHR JUMP JUMPDEST PUSH2 0x41E DUP4 DUP4 DUP4 PUSH2 0x46A PUSH1 0x20 SHL PUSH1 0x20 SHR JUMP JUMPDEST POP POP POP JUMP JUMPDEST PUSH2 0x431 PUSH2 0x683 PUSH1 0x20 SHL PUSH1 0x20 SHR JUMP JUMPDEST ISZERO PUSH2 0x468 JUMPI PUSH1 0x40 MLOAD PUSH32 0xD93C066500000000000000000000000000000000000000000000000000000000 DUP2 MSTORE PUSH1 0x4 ADD PUSH1 0x40 MLOAD DUP1 SWAP2 SUB SWAP1 REVERT JUMPDEST JUMP JUMPDEST PUSH0 PUSH20 0xFFFFFFFFFFFFFFFFFFFFFFFFFFFFFFFFFFFFFFFF AND DUP4 PUSH20 0xFFFFFFFFFFFFFFFFFFFFFFFFFFFFFFFFFFFFFFFF AND SUB PUSH2 0x4BA JUMPI DUP1 PUSH1 0x2 PUSH0 DUP3 DUP3 SLOAD PUSH2 0x4AE SWAP2 SWAP1 PUSH2 0xC14 JUMP JUMPDEST SWAP3 POP POP DUP2 SWAP1 SSTORE POP PUSH2 0x588 JUMP JUMPDEST PUSH0 DUP1 PUSH0 DUP6 PUSH20 0xFFFFFFFFFFFFFFFFFFFFFFFFFFFFFFFFFFFFFFFF AND PUSH20 0xFFFFFFFFFFFFFFFFFFFFFFFFFFFFFFFFFFFFFFFF AND DUP2 MSTORE PUSH1 0x20 ADD SWAP1 DUP2 MSTORE PUSH1 0x20 ADD PUSH0 KECCAK256 SLOAD SWAP1 POP DUP2 DUP2 LT ISZERO PUSH2 0x543 JUMPI DUP4 DUP2 DUP4 PUSH1 0x40 MLOAD PUSH32 0xE450D38C00000000000000000000000000000000000000000000000000000000 DUP2 MSTORE PUSH1 0x4 ADD PUSH2 0x53A SWAP4 SWAP3 SWAP2 SWAP1 PUSH2 0xC47 JUMP JUMPDEST PUSH1 0x40 MLOAD DUP1 SWAP2 SUB SWAP1 REVERT JUMPDEST DUP2 DUP2 SUB PUSH0 DUP1 DUP7 PUSH20 0xFFFFFFFFFFFFFFFFFFFFFFFFFFFFFFFFFFFFFFFF AND PUSH20 0xFFFFFFFFFFFFFFFFFFFFFFFFFFFFFFFFFFFFFFFF AND DUP2 MSTORE PUSH1 0x20 ADD SWAP1 DUP2 MSTORE PUSH1 0x20 ADD PUSH0 KECCAK256 DUP2 SWAP1 SSTORE POP POP JUMPDEST PUSH0 PUSH20 0xFFFFFFFFFFFFFFFFFFFFFFFFFFFFFFFFFFFFFFFF AND DUP3 PUSH20 0xFFFFFFFFFFFFFFFFFFFFFFFFFFFFFFFFFFFFFFFF AND SUB PUSH2 0x5CF JUMPI DUP1 PUSH1 0x2 PUSH0 DUP3 DUP3 SLOAD SUB SWAP3 POP POP DUP2 SWAP1 SSTORE POP PUSH2 0x619 JUMP JUMPDEST DUP1 PUSH0 DUP1 DUP5 PUSH20 0xFFFFFFFFFFFFFFFFFFFFFFFFFFFFFFFFFFFFFFFF AND PUSH20 0xFFFFFFFFFFFFFFFFFFFFFFFFFFFFFFFFFFFFFFFF AND DUP2 MSTORE PUSH1 0x20 ADD SWAP1 DUP2 MSTORE PUSH1 0x20 ADD PUSH0 KECCAK256 PUSH0 DUP3 DUP3 SLOAD ADD SWAP3 POP POP DUP2 SWAP1 SSTORE POP JUMPDEST DUP2 PUSH20 0xFFFFFFFFFFFFFFFFFFFFFFFFFFFFFFFFFFFFFFFF AND DUP4 PUSH20 0xFFFFFFFFFFFFFFFFFFFFFFFFFFFFFFFFFFFFFFFF AND PUSH32 0xDDF252AD1BE2C89B69C2B068FC378DAA952BA7F163C4A11628F55A4DF523B3EF DUP4 PUSH1 0x40 MLOAD PUSH2 0x676 SWAP2 SWAP1 PUSH2 0xC7C JUMP JUMPDEST PUSH1 0x40 MLOAD DUP1 SWAP2 SUB SWAP1 LOG3 POP POP POP JUMP JUMPDEST PUSH0 PUSH1 0x5 PUSH0 SWAP1 SLOAD SWAP1 PUSH2 0x100 EXP SWAP1 DIV PUSH1 0xFF AND SWAP1 POP SWAP1 JUMP JUMPDEST PUSH2 0x1854 DUP1 PUSH2 0x3E1B DUP4 CODECOPY ADD SWAP1 JUMP JUMPDEST PUSH0 DUP1 REVERT JUMPDEST PUSH0 PUSH20 0xFFFFFFFFFFFFFFFFFFFFFFFFFFFFFFFFFFFFFFFF DUP3 AND SWAP1 POP SWAP2 SWAP1 POP JUMP JUMPDEST PUSH0 PUSH2 0x6D2 DUP3 PUSH2 0x6A9 JUMP JUMPDEST SWAP1 POP SWAP2 SWAP1 POP JUMP JUMPDEST PUSH2 0x6E2 DUP2 PUSH2 0x6C8 JUMP JUMPDEST DUP2 EQ PUSH2 0x6EC JUMPI PUSH0 DUP1 REVERT JUMPDEST POP JUMP JUMPDEST PUSH0 DUP2 MLOAD SWAP1 POP PUSH2 0x6FD DUP2 PUSH2 0x6D9 JUMP JUMPDEST SWAP3 SWAP2 POP POP JUMP JUMPDEST PUSH0 DUP2 SWAP1 POP SWAP2 SWAP1 POP JUMP JUMPDEST PUSH2 0x715 DUP2 PUSH2 0x703 JUMP JUMPDEST DUP2 EQ PUSH2 0x71F JUMPI PUSH0 DUP1 REVERT JUMPDEST POP JUMP JUMPDEST PUSH0 DUP2 MLOAD SWAP1 POP PUSH2 0x730 DUP2 PUSH2 0x70C JUMP JUMPDEST SWAP3 SWAP2 POP POP JUMP JUMPDEST PUSH0 DUP1 PUSH0 DUP1 PUSH0 DUP1 PUSH1 0xC0 DUP8 DUP10 SUB SLT ISZERO PUSH2 0x750 JUMPI PUSH2 0x74F PUSH2 0x6A5 JUMP JUMPDEST JUMPDEST PUSH0 PUSH2 0x75D DUP10 DUP3 DUP11 ADD PUSH2 0x6EF JUMP JUMPDEST SWAP7 POP POP PUSH1 0x20 PUSH2 0x76E DUP10 DUP3 DUP11 ADD PUSH2 0x6EF JUMP JUMPDEST SWAP6 POP POP PUSH1 0x40 PUSH2 0x77F DUP10 DUP3 DUP11 ADD PUSH2 0x6EF JUMP JUMPDEST SWAP5 POP POP PUSH1 0x60 PUSH2 0x790 DUP10 DUP3 DUP11 ADD PUSH2 0x722 JUMP JUMPDEST SWAP4 POP POP PUSH1 0x80 PUSH2 0x7A1 DUP10 DUP3 DUP11 ADD PUSH2 0x722 JUMP JUMPDEST SWAP3 POP POP PUSH1 0xA0 PUSH2 0x7B2 DUP10 DUP3 DUP11 ADD PUSH2 0x722 JUMP JUMPDEST SWAP2 POP POP SWAP3 SWAP6 POP SWAP3 SWAP6 POP SWAP3 SWAP6 JUMP JUMPDEST PUSH0 DUP2 MLOAD SWAP1 POP SWAP2 SWAP1 POP JUMP JUMPDEST PUSH32 0x4E487B7100000000000000000000000000000000000000000000000000000000 PUSH0 MSTORE PUSH1 0x41 PUSH1 0x4 MSTORE PUSH1 0x24 PUSH0 REVERT JUMPDEST PUSH32 0x4E487B7100000000000000000000000000000000000000000000000000000000 PUSH0 MSTORE PUSH1 0x22 PUSH1 0x4 MSTORE PUSH1 0x24 PUSH0 REVERT JUMPDEST PUSH0 PUSH1 0x2 DUP3 DIV SWAP1 POP PUSH1 0x1 DUP3 AND DUP1 PUSH2 0x83A JUMPI PUSH1 0x7F DUP3 AND SWAP2 POP JUMPDEST PUSH1 0x20 DUP3 LT DUP2 SUB PUSH2 0x84D JUMPI PUSH2 0x84C PUSH2 0x7F6 JUMP JUMPDEST JUMPDEST POP SWAP2 SWAP1 POP JUMP JUMPDEST PUSH0 DUP2 SWAP1 POP DUP2 PUSH0 MSTORE PUSH1 0x20 PUSH0 KECCAK256 SWAP1 POP SWAP2 SWAP1 POP JUMP JUMPDEST PUSH0 PUSH1 0x20 PUSH1 0x1F DUP4 ADD DIV SWAP1 POP SWAP2 SWAP1 POP JUMP JUMPDEST PUSH0 DUP3 DUP3 SHL SWAP1 POP SWAP3 SWAP2 POP POP JUMP JUMPDEST PUSH0 PUSH1 0x8 DUP4 MUL PUSH2 0x8AF PUSH32 0xFFFFFFFFFFFFFFFFFFFFFFFFFFFFFFFFFFFFFFFFFFFFFFFFFFFFFFFFFFFFFFFF DUP3 PUSH2 0x874 JUMP JUMPDEST PUSH2 0x8B9 DUP7 DUP4 PUSH2 0x874 JUMP JUMPDEST SWAP6 POP DUP1 NOT DUP5 AND SWAP4 POP DUP1 DUP7 AND DUP5 OR SWAP3 POP POP POP SWAP4 SWAP3 POP POP POP JUMP JUMPDEST PUSH0 DUP2 SWAP1 POP SWAP2 SWAP1 POP JUMP JUMPDEST PUSH0 PUSH2 0x8F4 PUSH2 0x8EF PUSH2 0x8EA DUP5 PUSH2 0x703 JUMP JUMPDEST PUSH2 0x8D1 JUMP JUMPDEST PUSH2 0x703 JUMP JUMPDEST SWAP1 POP SWAP2 SWAP1 POP JUMP JUMPDEST PUSH0 DUP2 SWAP1 POP SWAP2 SWAP1 POP JUMP JUMPDEST PUSH2 0x90D DUP4 PUSH2 0x8DA JUMP JUMPDEST PUSH2 0x921 PUSH2 0x919 DUP3 PUSH2 0x8FB JUMP JUMPDEST DUP5 DUP5 SLOAD PUSH2 0x880 JUMP JUMPDEST DUP3 SSTORE POP POP POP POP JUMP JUMPDEST PUSH0 SWAP1 JUMP JUMPDEST PUSH2 0x935 PUSH2 0x929 JUMP JUMPDEST PUSH2 0x940 DUP2 DUP5 DUP5 PUSH2 0x904 JUMP JUMPDEST POP POP POP JUMP JUMPDEST JUMPDEST DUP2 DUP2 LT ISZERO PUSH2 0x963 JUMPI PUSH2 0x958 PUSH0 DUP3 PUSH2 0x92D JUMP JUMPDEST PUSH1 0x1 DUP2 ADD SWAP1 POP PUSH2 0x946 JUMP JUMPDEST POP POP JUMP JUMPDEST PUSH1 0x1F DUP3 GT ISZERO PUSH2 0x9A8 JUMPI PUSH2 0x979 DUP2 PUSH2 0x853 JUMP JUMPDEST PUSH2 0x982 DUP5 PUSH2 0x865 JUMP JUMPDEST DUP2 ADD PUSH1 0x20 DUP6 LT ISZERO PUSH2 0x991 JUMPI DUP2 SWAP1 POP JUMPDEST PUSH2 0x9A5 PUSH2 0x99D DUP6 PUSH2 0x865 JUMP JUMPDEST DUP4 ADD DUP3 PUSH2 0x945 JUMP JUMPDEST POP POP JUMPDEST POP POP POP JUMP JUMPDEST PUSH0 DUP3 DUP3 SHR SWAP1 POP SWAP3 SWAP2 POP POP JUMP JUMPDEST PUSH0 PUSH2 0x9C8 PUSH0 NOT DUP5 PUSH1 0x8 MUL PUSH2 0x9AD JUMP JUMPDEST NOT DUP1 DUP4 AND SWAP2 POP POP SWAP3 SWAP2 POP POP JUMP JUMPDEST PUSH0 PUSH2 0x9E0 DUP4 DUP4 PUSH2 0x9B9 JUMP JUMPDEST SWAP2 POP DUP3 PUSH1 0x2 MUL DUP3 OR SWAP1 POP SWAP3 SWAP2 POP POP JUMP JUMPDEST PUSH2 0x9F9 DUP3 PUSH2 0x7BF JUMP JUMPDEST PUSH8 0xFFFFFFFFFFFFFFFF DUP2 GT ISZERO PUSH2 0xA12 JUMPI PUSH2 0xA11 PUSH2 0x7C9 JUMP JUMPDEST JUMPDEST PUSH2 0xA1C DUP3 SLOAD PUSH2 0x823 JUMP JUMPDEST PUSH2 0xA27 DUP3 DUP3 DUP6 PUSH2 0x967 JUMP JUMPDEST PUSH0 PUSH1 0x20 SWAP1 POP PUSH1 0x1F DUP4 GT PUSH1 0x1 DUP2 EQ PUSH2 0xA58 JUMPI PUSH0 DUP5 ISZERO PUSH2 0xA46 JUMPI DUP3 DUP8 ADD MLOAD SWAP1 POP JUMPDEST PUSH2 0xA50 DUP6 DUP3 PUSH2 0x9D5 JUMP JUMPDEST DUP7 SSTORE POP PUSH2 0xAB7 JUMP JUMPDEST PUSH1 0x1F NOT DUP5 AND PUSH2 0xA66 DUP7 PUSH2 0x853 JUMP JUMPDEST PUSH0 JUMPDEST DUP3 DUP2 LT ISZERO PUSH2 0xA8D JUMPI DUP5 DUP10 ADD MLOAD DUP3 SSTORE PUSH1 0x1 DUP3 ADD SWAP2 POP PUSH1 0x20 DUP6 ADD SWAP5 POP PUSH1 0x20 DUP2 ADD SWAP1 POP PUSH2 0xA68 JUMP JUMPDEST DUP7 DUP4 LT ISZERO PUSH2 0xAAA JUMPI DUP5 DUP10 ADD MLOAD PUSH2 0xAA6 PUSH1 0x1F DUP10 AND DUP3 PUSH2 0x9B9 JUMP JUMPDEST DUP4 SSTORE POP JUMPDEST PUSH1 0x1 PUSH1 0x2 DUP9 MUL ADD DUP9 SSTORE POP POP POP JUMPDEST POP POP POP POP POP POP JUMP JUMPDEST PUSH2 0xAC8 DUP2 PUSH2 0x6C8 JUMP JUMPDEST DUP3 MSTORE POP POP JUMP JUMPDEST PUSH2 0xAD7 DUP2 PUSH2 0x703 JUMP JUMPDEST DUP3 MSTORE POP POP JUMP JUMPDEST PUSH0 DUP3 DUP3 MSTORE PUSH1 0x20 DUP3 ADD SWAP1 POP SWAP3 SWAP2 POP POP JUMP JUMPDEST PUSH32 0x426F6E44654669546F6B656E496E746572657374000000000000000000000000 PUSH0 DUP3 ADD MSTORE POP JUMP JUMPDEST PUSH0 PUSH2 0xB21 PUSH1 0x14 DUP4 PUSH2 0xADD JUMP JUMPDEST SWAP2 POP PUSH2 0xB2C DUP3 PUSH2 0xAED JUMP JUMPDEST PUSH1 0x20 DUP3 ADD SWAP1 POP SWAP2 SWAP1 POP JUMP JUMPDEST PUSH32 0x4244464900000000000000000000000000000000000000000000000000000000 PUSH0 DUP3 ADD MSTORE POP JUMP JUMPDEST PUSH0 PUSH2 0xB6B PUSH1 0x4 DUP4 PUSH2 0xADD JUMP JUMPDEST SWAP2 POP PUSH2 0xB76 DUP3 PUSH2 0xB37 JUMP JUMPDEST PUSH1 0x20 DUP3 ADD SWAP1 POP SWAP2 SWAP1 POP JUMP JUMPDEST PUSH0 PUSH1 0x80 DUP3 ADD SWAP1 POP PUSH2 0xB94 PUSH0 DUP4 ADD DUP6 PUSH2 0xABF JUMP JUMPDEST PUSH2 0xBA1 PUSH1 0x20 DUP4 ADD DUP5 PUSH2 0xACE JUMP JUMPDEST DUP2 DUP2 SUB PUSH1 0x40 DUP4 ADD MSTORE PUSH2 0xBB2 DUP2 PUSH2 0xB15 JUMP JUMPDEST SWAP1 POP DUP2 DUP2 SUB PUSH1 0x60 DUP4 ADD MSTORE PUSH2 0xBC5 DUP2 PUSH2 0xB5F JUMP JUMPDEST SWAP1 POP SWAP4 SWAP3 POP POP POP JUMP JUMPDEST PUSH0 PUSH1 0x20 DUP3 ADD SWAP1 POP PUSH2 0xBE1 PUSH0 DUP4 ADD DUP5 PUSH2 0xABF JUMP JUMPDEST SWAP3 SWAP2 POP POP JUMP JUMPDEST PUSH32 0x4E487B7100000000000000000000000000000000000000000000000000000000 PUSH0 MSTORE PUSH1 0x11 PUSH1 0x4 MSTORE PUSH1 0x24 PUSH0 REVERT JUMPDEST PUSH0 PUSH2 0xC1E DUP3 PUSH2 0x703 JUMP JUMPDEST SWAP2 POP PUSH2 0xC29 DUP4 PUSH2 0x703 JUMP JUMPDEST SWAP3 POP DUP3 DUP3 ADD SWAP1 POP DUP1 DUP3 GT ISZERO PUSH2 0xC41 JUMPI PUSH2 0xC40 PUSH2 0xBE7 JUMP JUMPDEST JUMPDEST SWAP3 SWAP2 POP POP JUMP JUMPDEST PUSH0 PUSH1 0x60 DUP3 ADD SWAP1 POP PUSH2 0xC5A PUSH0 DUP4 ADD DUP7 PUSH2 0xABF JUMP JUMPDEST PUSH2 0xC67 PUSH1 0x20 DUP4 ADD DUP6 PUSH2 0xACE JUMP JUMPDEST PUSH2 0xC74 PUSH1 0x40 DUP4 ADD DUP5 PUSH2 0xACE JUMP JUMPDEST SWAP5 SWAP4 POP POP POP POP JUMP JUMPDEST PUSH0 PUSH1 0x20 DUP3 ADD SWAP1 POP PUSH2 0xC8F PUSH0 DUP4 ADD DUP5 PUSH2 0xACE JUMP JUMPDEST SWAP3 SWAP2 POP POP JUMP JUMPDEST PUSH1 0x80 MLOAD PUSH1 0xA0 MLOAD PUSH1 0xC0 MLOAD PUSH2 0x3108 PUSH2 0xD13 PUSH0 CODECOPY PUSH0 DUP2 DUP2 PUSH2 0xA95 ADD MSTORE DUP2 DUP2 PUSH2 0xC4B ADD MSTORE DUP2 DUP2 PUSH2 0xEE7 ADD MSTORE DUP2 DUP2 PUSH2 0x1037 ADD MSTORE DUP2 DUP2 PUSH2 0x1585 ADD MSTORE PUSH2 0x1885 ADD MSTORE PUSH0 DUP2 DUP2 PUSH2 0x133C ADD MSTORE PUSH2 0x1791 ADD MSTORE PUSH0 DUP2 DUP2 PUSH2 0x842 ADD MSTORE DUP2 DUP2 PUSH2 0xB71 ADD MSTORE DUP2 DUP2 PUSH2 0xDC3 ADD MSTORE DUP2 DUP2 PUSH2 0x124C ADD MSTORE DUP2 DUP2 PUSH2 0x1299 ADD MSTORE DUP2 DUP2 PUSH2 0x149D ADD MSTORE PUSH2 0x1690 ADD MSTORE PUSH2 0x3108 PUSH0 RETURN INVALID PUSH1 0x80 PUSH1 0x40 MSTORE CALLVALUE DUP1 ISZERO PUSH2 0xF JUMPI PUSH0 DUP1 REVERT JUMPDEST POP PUSH1 0x4 CALLDATASIZE LT PUSH2 0x20F JUMPI PUSH0 CALLDATALOAD PUSH1 0xE0 SHR DUP1 PUSH4 0x8456CB59 GT PUSH2 0x123 JUMPI DUP1 PUSH4 0xC94C4705 GT PUSH2 0xAB JUMPI DUP1 PUSH4 0xD547741F GT PUSH2 0x7A JUMPI DUP1 PUSH4 0xD547741F EQ PUSH2 0x5CB JUMPI DUP1 PUSH4 0xD59624B4 EQ PUSH2 0x5E7 JUMPI DUP1 PUSH4 0xDD62ED3E EQ PUSH2 0x605 JUMPI DUP1 PUSH4 0xE091A39B EQ PUSH2 0x635 JUMPI DUP1 PUSH4 0xF57D283E EQ PUSH2 0x653 JUMPI PUSH2 0x20F JUMP JUMPDEST DUP1 PUSH4 0xC94C4705 EQ PUSH2 0x569 JUMPI DUP1 PUSH4 0xCA19C11C EQ PUSH2 0x587 JUMPI DUP1 PUSH4 0xCE4120DA EQ PUSH2 0x5A3 JUMPI DUP1 PUSH4 0xCED0550F EQ PUSH2 0x5C1 JUMPI PUSH2 0x20F JUMP JUMPDEST DUP1 PUSH4 0x95D89B41 GT PUSH2 0xF2 JUMPI DUP1 PUSH4 0x95D89B41 EQ PUSH2 0x4C1 JUMPI DUP1 PUSH4 0x992642E5 EQ PUSH2 0x4DF JUMPI DUP1 PUSH4 0xA217FDDF EQ PUSH2 0x4FD JUMPI DUP1 PUSH4 0xA9059CBB EQ PUSH2 0x51B JUMPI DUP1 PUSH4 0xACD17A99 EQ PUSH2 0x54B JUMPI PUSH2 0x20F JUMP JUMPDEST DUP1 PUSH4 0x8456CB59 EQ PUSH2 0x44D JUMPI DUP1 PUSH4 0x86D71654 EQ PUSH2 0x457 JUMPI DUP1 PUSH4 0x904835C4 EQ PUSH2 0x475 JUMPI DUP1 PUSH4 0x91D14854 EQ PUSH2 0x491 JUMPI PUSH2 0x20F JUMP JUMPDEST DUP1 PUSH4 0x2EB375EA GT PUSH2 0x1A6 JUMPI DUP1 PUSH4 0x3F4BA83A GT PUSH2 0x175 JUMPI DUP1 PUSH4 0x3F4BA83A EQ PUSH2 0x3BB JUMPI DUP1 PUSH4 0x5C975ABB EQ PUSH2 0x3C5 JUMPI DUP1 PUSH4 0x6B749C47 EQ PUSH2 0x3E3 JUMPI DUP1 PUSH4 0x70A08231 EQ PUSH2 0x3FF JUMPI DUP1 PUSH4 0x764B666C EQ PUSH2 0x42F JUMPI PUSH2 0x20F JUMP JUMPDEST DUP1 PUSH4 0x2EB375EA EQ PUSH2 0x349 JUMPI DUP1 PUSH4 0x2F2FF15D EQ PUSH2 0x365 JUMPI DUP1 PUSH4 0x313CE567 EQ PUSH2 0x381 JUMPI DUP1 PUSH4 0x36568ABE EQ PUSH2 0x39F JUMPI PUSH2 0x20F JUMP JUMPDEST DUP1 PUSH4 0x18160DDD GT PUSH2 0x1E2 JUMPI DUP1 PUSH4 0x18160DDD EQ PUSH2 0x2AD JUMPI DUP1 PUSH4 0x23B872DD EQ PUSH2 0x2CB JUMPI DUP1 PUSH4 0x248A9CA3 EQ PUSH2 0x2FB JUMPI DUP1 PUSH4 0x2A0ACC6A EQ PUSH2 0x32B JUMPI PUSH2 0x20F JUMP JUMPDEST DUP1 PUSH4 0x1FFC9A7 EQ PUSH2 0x213 JUMPI DUP1 PUSH4 0x6FDDE03 EQ PUSH2 0x243 JUMPI DUP1 PUSH4 0x95EA7B3 EQ PUSH2 0x261 JUMPI DUP1 PUSH4 0x10002DBD EQ PUSH2 0x291 JUMPI JUMPDEST PUSH0 DUP1 REVERT JUMPDEST PUSH2 0x22D PUSH1 0x4 DUP1 CALLDATASIZE SUB DUP2 ADD SWAP1 PUSH2 0x228 SWAP2 SWAP1 PUSH2 0x23D8 JUMP JUMPDEST PUSH2 0x66F JUMP JUMPDEST PUSH1 0x40 MLOAD PUSH2 0x23A SWAP2 SWAP1 PUSH2 0x241D JUMP JUMPDEST PUSH1 0x40 MLOAD DUP1 SWAP2 SUB SWAP1 RETURN JUMPDEST PUSH2 0x24B PUSH2 0x6E8 JUMP JUMPDEST PUSH1 0x40 MLOAD PUSH2 0x258 SWAP2 SWAP1 PUSH2 0x24A6 JUMP JUMPDEST PUSH1 0x40 MLOAD DUP1 SWAP2 SUB SWAP1 RETURN JUMPDEST PUSH2 0x27B PUSH1 0x4 DUP1 CALLDATASIZE SUB DUP2 ADD SWAP1 PUSH2 0x276 SWAP2 SWAP1 PUSH2 0x2553 JUMP JUMPDEST PUSH2 0x778 JUMP JUMPDEST PUSH1 0x40 MLOAD PUSH2 0x288 SWAP2 SWAP1 PUSH2 0x241D JUMP JUMPDEST PUSH1 0x40 MLOAD DUP1 SWAP2 SUB SWAP1 RETURN JUMPDEST PUSH2 0x2AB PUSH1 0x4 DUP1 CALLDATASIZE SUB DUP2 ADD SWAP1 PUSH2 0x2A6 SWAP2 SWAP1 PUSH2 0x2591 JUMP JUMPDEST PUSH2 0x79A JUMP JUMPDEST STOP JUMPDEST PUSH2 0x2B5 PUSH2 0x9D9 JUMP JUMPDEST PUSH1 0x40 MLOAD PUSH2 0x2C2 SWAP2 SWAP1 PUSH2 0x25CB JUMP JUMPDEST PUSH1 0x40 MLOAD DUP1 SWAP2 SUB SWAP1 RETURN JUMPDEST PUSH2 0x2E5 PUSH1 0x4 DUP1 CALLDATASIZE SUB DUP2 ADD SWAP1 PUSH2 0x2E0 SWAP2 SWAP1 PUSH2 0x25E4 JUMP JUMPDEST PUSH2 0x9E2 JUMP JUMPDEST PUSH1 0x40 MLOAD PUSH2 0x2F2 SWAP2 SWAP1 PUSH2 0x241D JUMP JUMPDEST PUSH1 0x40 MLOAD DUP1 SWAP2 SUB SWAP1 RETURN JUMPDEST PUSH2 0x315 PUSH1 0x4 DUP1 CALLDATASIZE SUB DUP2 ADD SWAP1 PUSH2 0x310 SWAP2 SWAP1 PUSH2 0x2667 JUMP JUMPDEST PUSH2 0xA10 JUMP JUMPDEST PUSH1 0x40 MLOAD PUSH2 0x322 SWAP2 SWAP1 PUSH2 0x26A1 JUMP JUMPDEST PUSH1 0x40 MLOAD DUP1 SWAP2 SUB SWAP1 RETURN JUMPDEST PUSH2 0x333 PUSH2 0xA2D JUMP JUMPDEST PUSH1 0x40 MLOAD PUSH2 0x340 SWAP2 SWAP1 PUSH2 0x26A1 JUMP JUMPDEST PUSH1 0x40 MLOAD DUP1 SWAP2 SUB SWAP1 RETURN JUMPDEST PUSH2 0x363 PUSH1 0x4 DUP1 CALLDATASIZE SUB DUP2 ADD SWAP1 PUSH2 0x35E SWAP2 SWAP1 PUSH2 0x2591 JUMP JUMPDEST PUSH2 0xA51 JUMP JUMPDEST STOP JUMPDEST PUSH2 0x37F PUSH1 0x4 DUP1 CALLDATASIZE SUB DUP2 ADD SWAP1 PUSH2 0x37A SWAP2 SWAP1 PUSH2 0x26BA JUMP JUMPDEST PUSH2 0xCD2 JUMP JUMPDEST STOP JUMPDEST PUSH2 0x389 PUSH2 0xCF4 JUMP JUMPDEST PUSH1 0x40 MLOAD PUSH2 0x396 SWAP2 SWAP1 PUSH2 0x2713 JUMP JUMPDEST PUSH1 0x40 MLOAD DUP1 SWAP2 SUB SWAP1 RETURN JUMPDEST PUSH2 0x3B9 PUSH1 0x4 DUP1 CALLDATASIZE SUB DUP2 ADD SWAP1 PUSH2 0x3B4 SWAP2 SWAP1 PUSH2 0x26BA JUMP JUMPDEST PUSH2 0xCFC JUMP JUMPDEST STOP JUMPDEST PUSH2 0x3C3 PUSH2 0xD77 JUMP JUMPDEST STOP JUMPDEST PUSH2 0x3CD PUSH2 0xDAC JUMP JUMPDEST PUSH1 0x40 MLOAD PUSH2 0x3DA SWAP2 SWAP1 PUSH2 0x241D JUMP JUMPDEST PUSH1 0x40 MLOAD DUP1 SWAP2 SUB SWAP1 RETURN JUMPDEST PUSH2 0x3FD PUSH1 0x4 DUP1 CALLDATASIZE SUB DUP2 ADD SWAP1 PUSH2 0x3F8 SWAP2 SWAP1 PUSH2 0x2591 JUMP JUMPDEST PUSH2 0xDC1 JUMP JUMPDEST STOP JUMPDEST PUSH2 0x419 PUSH1 0x4 DUP1 CALLDATASIZE SUB DUP2 ADD SWAP1 PUSH2 0x414 SWAP2 SWAP1 PUSH2 0x272C JUMP JUMPDEST PUSH2 0xEA0 JUMP JUMPDEST PUSH1 0x40 MLOAD PUSH2 0x426 SWAP2 SWAP1 PUSH2 0x25CB JUMP JUMPDEST PUSH1 0x40 MLOAD DUP1 SWAP2 SUB SWAP1 RETURN JUMPDEST PUSH2 0x437 PUSH2 0xEE5 JUMP JUMPDEST PUSH1 0x40 MLOAD PUSH2 0x444 SWAP2 SWAP1 PUSH2 0x2766 JUMP JUMPDEST PUSH1 0x40 MLOAD DUP1 SWAP2 SUB SWAP1 RETURN JUMPDEST PUSH2 0x455 PUSH2 0xF09 JUMP JUMPDEST STOP JUMPDEST PUSH2 0x45F PUSH2 0xF3E JUMP JUMPDEST PUSH1 0x40 MLOAD PUSH2 0x46C SWAP2 SWAP1 PUSH2 0x25CB JUMP JUMPDEST PUSH1 0x40 MLOAD DUP1 SWAP2 SUB SWAP1 RETURN JUMPDEST PUSH2 0x48F PUSH1 0x4 DUP1 CALLDATASIZE SUB DUP2 ADD SWAP1 PUSH2 0x48A SWAP2 SWAP1 PUSH2 0x297F JUMP JUMPDEST PUSH2 0xFBC JUMP JUMPDEST STOP JUMPDEST PUSH2 0x4AB PUSH1 0x4 DUP1 CALLDATASIZE SUB DUP2 ADD SWAP1 PUSH2 0x4A6 SWAP2 SWAP1 PUSH2 0x26BA JUMP JUMPDEST PUSH2 0x1156 JUMP JUMPDEST PUSH1 0x40 MLOAD PUSH2 0x4B8 SWAP2 SWAP1 PUSH2 0x241D JUMP JUMPDEST PUSH1 0x40 MLOAD DUP1 SWAP2 SUB SWAP1 RETURN JUMPDEST PUSH2 0x4C9 PUSH2 0x11BA JUMP JUMPDEST PUSH1 0x40 MLOAD PUSH2 0x4D6 SWAP2 SWAP1 PUSH2 0x24A6 JUMP JUMPDEST PUSH1 0x40 MLOAD DUP1 SWAP2 SUB SWAP1 RETURN JUMPDEST PUSH2 0x4E7 PUSH2 0x124A JUMP JUMPDEST PUSH1 0x40 MLOAD PUSH2 0x4F4 SWAP2 SWAP1 PUSH2 0x2766 JUMP JUMPDEST PUSH1 0x40 MLOAD DUP1 SWAP2 SUB SWAP1 RETURN JUMPDEST PUSH2 0x505 PUSH2 0x126E JUMP JUMPDEST PUSH1 0x40 MLOAD PUSH2 0x512 SWAP2 SWAP1 PUSH2 0x26A1 JUMP JUMPDEST PUSH1 0x40 MLOAD DUP1 SWAP2 SUB SWAP1 RETURN JUMPDEST PUSH2 0x535 PUSH1 0x4 DUP1 CALLDATASIZE SUB DUP2 ADD SWAP1 PUSH2 0x530 SWAP2 SWAP1 PUSH2 0x2553 JUMP JUMPDEST PUSH2 0x1274 JUMP JUMPDEST PUSH1 0x40 MLOAD PUSH2 0x542 SWAP2 SWAP1 PUSH2 0x241D JUMP JUMPDEST PUSH1 0x40 MLOAD DUP1 SWAP2 SUB SWAP1 RETURN JUMPDEST PUSH2 0x553 PUSH2 0x1296 JUMP JUMPDEST PUSH1 0x40 MLOAD PUSH2 0x560 SWAP2 SWAP1 PUSH2 0x25CB JUMP JUMPDEST PUSH1 0x40 MLOAD DUP1 SWAP2 SUB SWAP1 RETURN JUMPDEST PUSH2 0x571 PUSH2 0x1334 JUMP JUMPDEST PUSH1 0x40 MLOAD PUSH2 0x57E SWAP2 SWAP1 PUSH2 0x25CB JUMP JUMPDEST PUSH1 0x40 MLOAD DUP1 SWAP2 SUB SWAP1 RETURN JUMPDEST PUSH2 0x5A1 PUSH1 0x4 DUP1 CALLDATASIZE SUB DUP2 ADD SWAP1 PUSH2 0x59C SWAP2 SWAP1 PUSH2 0x2591 JUMP JUMPDEST PUSH2 0x133A JUMP JUMPDEST STOP JUMPDEST PUSH2 0x5AB PUSH2 0x1582 JUMP JUMPDEST PUSH1 0x40 MLOAD PUSH2 0x5B8 SWAP2 SWAP1 PUSH2 0x25CB JUMP JUMPDEST PUSH1 0x40 MLOAD DUP1 SWAP2 SUB SWAP1 RETURN JUMPDEST PUSH2 0x5C9 PUSH2 0x1620 JUMP JUMPDEST STOP JUMPDEST PUSH2 0x5E5 PUSH1 0x4 DUP1 CALLDATASIZE SUB DUP2 ADD SWAP1 PUSH2 0x5E0 SWAP2 SWAP1 PUSH2 0x26BA JUMP JUMPDEST PUSH2 0x176D JUMP JUMPDEST STOP JUMPDEST PUSH2 0x5EF PUSH2 0x178F JUMP JUMPDEST PUSH1 0x40 MLOAD PUSH2 0x5FC SWAP2 SWAP1 PUSH2 0x25CB JUMP JUMPDEST PUSH1 0x40 MLOAD DUP1 SWAP2 SUB SWAP1 RETURN JUMPDEST PUSH2 0x61F PUSH1 0x4 DUP1 CALLDATASIZE SUB DUP2 ADD SWAP1 PUSH2 0x61A SWAP2 SWAP1 PUSH2 0x29F5 JUMP JUMPDEST PUSH2 0x17B3 JUMP JUMPDEST PUSH1 0x40 MLOAD PUSH2 0x62C SWAP2 SWAP1 PUSH2 0x25CB JUMP JUMPDEST PUSH1 0x40 MLOAD DUP1 SWAP2 SUB SWAP1 RETURN JUMPDEST PUSH2 0x63D PUSH2 0x1835 JUMP JUMPDEST PUSH1 0x40 MLOAD PUSH2 0x64A SWAP2 SWAP1 PUSH2 0x26A1 JUMP JUMPDEST PUSH1 0x40 MLOAD DUP1 SWAP2 SUB SWAP1 RETURN JUMPDEST PUSH2 0x66D PUSH1 0x4 DUP1 CALLDATASIZE SUB DUP2 ADD SWAP1 PUSH2 0x668 SWAP2 SWAP1 PUSH2 0x2553 JUMP JUMPDEST PUSH2 0x1859 JUMP JUMPDEST STOP JUMPDEST PUSH0 PUSH32 0x7965DB0B00000000000000000000000000000000000000000000000000000000 PUSH28 0xFFFFFFFFFFFFFFFFFFFFFFFFFFFFFFFFFFFFFFFFFFFFFFFFFFFFFFFF NOT AND DUP3 PUSH28 0xFFFFFFFFFFFFFFFFFFFFFFFFFFFFFFFFFFFFFFFFFFFFFFFFFFFFFFFF NOT AND EQ DUP1 PUSH2 0x6E1 JUMPI POP PUSH2 0x6E0 DUP3 PUSH2 0x1962 JUMP JUMPDEST JUMPDEST SWAP1 POP SWAP2 SWAP1 POP JUMP JUMPDEST PUSH1 0x60 PUSH1 0x3 DUP1 SLOAD PUSH2 0x6F7 SWAP1 PUSH2 0x2A60 JUMP JUMPDEST DUP1 PUSH1 0x1F ADD PUSH1 0x20 DUP1 SWAP2 DIV MUL PUSH1 0x20 ADD PUSH1 0x40 MLOAD SWAP1 DUP2 ADD PUSH1 0x40 MSTORE DUP1 SWAP3 SWAP2 SWAP1 DUP2 DUP2 MSTORE PUSH1 0x20 ADD DUP3 DUP1 SLOAD PUSH2 0x723 SWAP1 PUSH2 0x2A60 JUMP JUMPDEST DUP1 ISZERO PUSH2 0x76E JUMPI DUP1 PUSH1 0x1F LT PUSH2 0x745 JUMPI PUSH2 0x100 DUP1 DUP4 SLOAD DIV MUL DUP4 MSTORE SWAP2 PUSH1 0x20 ADD SWAP2 PUSH2 0x76E JUMP JUMPDEST DUP3 ADD SWAP2 SWAP1 PUSH0 MSTORE PUSH1 0x20 PUSH0 KECCAK256 SWAP1 JUMPDEST DUP2 SLOAD DUP2 MSTORE SWAP1 PUSH1 0x1 ADD SWAP1 PUSH1 0x20 ADD DUP1 DUP4 GT PUSH2 0x751 JUMPI DUP3 SWAP1 SUB PUSH1 0x1F AND DUP3 ADD SWAP2 JUMPDEST POP POP POP POP POP SWAP1 POP SWAP1 JUMP JUMPDEST PUSH0 DUP1 PUSH2 0x782 PUSH2 0x19CB JUMP JUMPDEST SWAP1 POP PUSH2 0x78F DUP2 DUP6 DUP6 PUSH2 0x19D2 JUMP JUMPDEST PUSH1 0x1 SWAP2 POP POP SWAP3 SWAP2 POP POP JUMP JUMPDEST DUP1 PUSH1 0x7 PUSH0 DUP3 DUP3 SLOAD PUSH2 0x7AB SWAP2 SWAP1 PUSH2 0x2ABD JUMP JUMPDEST SWAP3 POP POP DUP2 SWAP1 SSTORE POP PUSH0 DUP2 ADDRESS PUSH20 0xFFFFFFFFFFFFFFFFFFFFFFFFFFFFFFFFFFFFFFFF AND PUSH4 0x70A08231 ADDRESS PUSH1 0x40 MLOAD DUP3 PUSH4 0xFFFFFFFF AND PUSH1 0xE0 SHL DUP2 MSTORE PUSH1 0x4 ADD PUSH2 0x7ED SWAP2 SWAP1 PUSH2 0x2766 JUMP JUMPDEST PUSH1 0x20 PUSH1 0x40 MLOAD DUP1 DUP4 SUB DUP2 DUP7 GAS STATICCALL ISZERO DUP1 ISZERO PUSH2 0x808 JUMPI RETURNDATASIZE PUSH0 DUP1 RETURNDATACOPY RETURNDATASIZE PUSH0 REVERT JUMPDEST POP POP POP POP PUSH1 0x40 MLOAD RETURNDATASIZE PUSH1 0x1F NOT PUSH1 0x1F DUP3 ADD AND DUP3 ADD DUP1 PUSH1 0x40 MSTORE POP DUP2 ADD SWAP1 PUSH2 0x82C SWAP2 SWAP1 PUSH2 0x2B04 JUMP JUMPDEST PUSH2 0x836 SWAP2 SWAP1 PUSH2 0x2B2F JUMP JUMPDEST LT ISZERO PUSH2 0x840 JUMPI PUSH0 DUP1 REVERT JUMPDEST PUSH32 0x0 PUSH20 0xFFFFFFFFFFFFFFFFFFFFFFFFFFFFFFFFFFFFFFFF AND PUSH4 0x23B872DD CALLER ADDRESS DUP5 PUSH1 0x40 MLOAD DUP5 PUSH4 0xFFFFFFFF AND PUSH1 0xE0 SHL DUP2 MSTORE PUSH1 0x4 ADD PUSH2 0x89D SWAP4 SWAP3 SWAP2 SWAP1 PUSH2 0x2B62 JUMP JUMPDEST PUSH1 0x20 PUSH1 0x40 MLOAD DUP1 DUP4 SUB DUP2 PUSH0 DUP8 GAS CALL ISZERO DUP1 ISZERO PUSH2 0x8B9 JUMPI RETURNDATASIZE PUSH0 DUP1 RETURNDATACOPY RETURNDATASIZE PUSH0 REVERT JUMPDEST POP POP POP POP PUSH1 0x40 MLOAD RETURNDATASIZE PUSH1 0x1F NOT PUSH1 0x1F DUP3 ADD AND DUP3 ADD DUP1 PUSH1 0x40 MSTORE POP DUP2 ADD SWAP1 PUSH2 0x8DD SWAP2 SWAP1 PUSH2 0x2BC1 JUMP JUMPDEST PUSH2 0x91C JUMPI PUSH1 0x40 MLOAD PUSH32 0x8C379A000000000000000000000000000000000000000000000000000000000 DUP2 MSTORE PUSH1 0x4 ADD PUSH2 0x913 SWAP1 PUSH2 0x2C36 JUMP JUMPDEST PUSH1 0x40 MLOAD DUP1 SWAP2 SUB SWAP1 REVERT JUMPDEST ADDRESS PUSH20 0xFFFFFFFFFFFFFFFFFFFFFFFFFFFFFFFFFFFFFFFF AND PUSH4 0xA9059CBB CALLER DUP4 PUSH1 0x40 MLOAD DUP4 PUSH4 0xFFFFFFFF AND PUSH1 0xE0 SHL DUP2 MSTORE PUSH1 0x4 ADD PUSH2 0x957 SWAP3 SWAP2 SWAP1 PUSH2 0x2C54 JUMP JUMPDEST PUSH1 0x20 PUSH1 0x40 MLOAD DUP1 DUP4 SUB DUP2 PUSH0 DUP8 GAS CALL ISZERO DUP1 ISZERO PUSH2 0x973 JUMPI RETURNDATASIZE PUSH0 DUP1 RETURNDATACOPY RETURNDATASIZE PUSH0 REVERT JUMPDEST POP POP POP POP PUSH1 0x40 MLOAD RETURNDATASIZE PUSH1 0x1F NOT PUSH1 0x1F DUP3 ADD AND DUP3 ADD DUP1 PUSH1 0x40 MSTORE POP DUP2 ADD SWAP1 PUSH2 0x997 SWAP2 SWAP1 PUSH2 0x2BC1 JUMP JUMPDEST PUSH2 0x9D6 JUMPI PUSH1 0x40 MLOAD PUSH32 0x8C379A000000000000000000000000000000000000000000000000000000000 DUP2 MSTORE PUSH1 0x4 ADD PUSH2 0x9CD SWAP1 PUSH2 0x2CC5 JUMP JUMPDEST PUSH1 0x40 MLOAD DUP1 SWAP2 SUB SWAP1 REVERT JUMPDEST POP JUMP JUMPDEST PUSH0 PUSH1 0x2 SLOAD SWAP1 POP SWAP1 JUMP JUMPDEST PUSH0 DUP1 PUSH2 0x9EC PUSH2 0x19CB JUMP JUMPDEST SWAP1 POP PUSH2 0x9F9 DUP6 DUP3 DUP6 PUSH2 0x19E4 JUMP JUMPDEST PUSH2 0xA04 DUP6 DUP6 DUP6 PUSH2 0x1A76 JUMP JUMPDEST PUSH1 0x1 SWAP2 POP POP SWAP4 SWAP3 POP POP POP JUMP JUMPDEST PUSH0 PUSH1 0x6 PUSH0 DUP4 DUP2 MSTORE PUSH1 0x20 ADD SWAP1 DUP2 MSTORE PUSH1 0x20 ADD PUSH0 KECCAK256 PUSH1 0x1 ADD SLOAD SWAP1 POP SWAP2 SWAP1 POP JUMP JUMPDEST PUSH32 0xDF8B4C520FFE197C5343C6F5AEC59570151EF9A492F2C624FD45DDDE6135EC42 DUP2 JUMP JUMPDEST PUSH0 DUP2 GT PUSH2 0xA93 JUMPI PUSH1 0x40 MLOAD PUSH32 0x8C379A000000000000000000000000000000000000000000000000000000000 DUP2 MSTORE PUSH1 0x4 ADD PUSH2 0xA8A SWAP1 PUSH2 0x2D2D JUMP JUMPDEST PUSH1 0x40 MLOAD DUP1 SWAP2 SUB SWAP1 REVERT JUMPDEST PUSH32 0x0 PUSH20 0xFFFFFFFFFFFFFFFFFFFFFFFFFFFFFFFFFFFFFFFF AND PUSH4 0x23B872DD CALLER ADDRESS DUP5 PUSH1 0x40 MLOAD DUP5 PUSH4 0xFFFFFFFF AND PUSH1 0xE0 SHL DUP2 MSTORE PUSH1 0x4 ADD PUSH2 0xAF0 SWAP4 SWAP3 SWAP2 SWAP1 PUSH2 0x2B62 JUMP JUMPDEST PUSH1 0x20 PUSH1 0x40 MLOAD DUP1 DUP4 SUB DUP2 PUSH0 DUP8 GAS CALL ISZERO DUP1 ISZERO PUSH2 0xB0C JUMPI RETURNDATASIZE PUSH0 DUP1 RETURNDATACOPY RETURNDATASIZE PUSH0 REVERT JUMPDEST POP POP POP POP PUSH1 0x40 MLOAD RETURNDATASIZE PUSH1 0x1F NOT PUSH1 0x1F DUP3 ADD AND DUP3 ADD DUP1 PUSH1 0x40 MSTORE POP DUP2 ADD SWAP1 PUSH2 0xB30 SWAP2 SWAP1 PUSH2 0x2BC1 JUMP JUMPDEST PUSH2 0xB6F JUMPI PUSH1 0x40 MLOAD PUSH32 0x8C379A000000000000000000000000000000000000000000000000000000000 DUP2 MSTORE PUSH1 0x4 ADD PUSH2 0xB66 SWAP1 PUSH2 0x2D95 JUMP JUMPDEST PUSH1 0x40 MLOAD DUP1 SWAP2 SUB SWAP1 REVERT JUMPDEST PUSH32 0x0 PUSH20 0xFFFFFFFFFFFFFFFFFFFFFFFFFFFFFFFFFFFFFFFF AND PUSH4 0xA9059CBB CALLER DUP4 PUSH1 0x40 MLOAD DUP4 PUSH4 0xFFFFFFFF AND PUSH1 0xE0 SHL DUP2 MSTORE PUSH1 0x4 ADD PUSH2 0xBCA SWAP3 SWAP2 SWAP1 PUSH2 0x2C54 JUMP JUMPDEST PUSH1 0x20 PUSH1 0x40 MLOAD DUP1 DUP4 SUB DUP2 PUSH0 DUP8 GAS CALL ISZERO DUP1 ISZERO PUSH2 0xBE6 JUMPI RETURNDATASIZE PUSH0 DUP1 RETURNDATACOPY RETURNDATASIZE PUSH0 REVERT JUMPDEST POP POP POP POP PUSH1 0x40 MLOAD RETURNDATASIZE PUSH1 0x1F NOT PUSH1 0x1F DUP3 ADD AND DUP3 ADD DUP1 PUSH1 0x40 MSTORE POP DUP2 ADD SWAP1 PUSH2 0xC0A SWAP2 SWAP1 PUSH2 0x2BC1 JUMP JUMPDEST PUSH2 0xC49 JUMPI PUSH1 0x40 MLOAD PUSH32 0x8C379A000000000000000000000000000000000000000000000000000000000 DUP2 MSTORE PUSH1 0x4 ADD PUSH2 0xC40 SWAP1 PUSH2 0x2C36 JUMP JUMPDEST PUSH1 0x40 MLOAD DUP1 SWAP2 SUB SWAP1 REVERT JUMPDEST PUSH32 0x0 PUSH20 0xFFFFFFFFFFFFFFFFFFFFFFFFFFFFFFFFFFFFFFFF AND PUSH4 0x42966C68 DUP3 PUSH1 0x40 MLOAD DUP3 PUSH4 0xFFFFFFFF AND PUSH1 0xE0 SHL DUP2 MSTORE PUSH1 0x4 ADD PUSH2 0xCA2 SWAP2 SWAP1 PUSH2 0x25CB JUMP JUMPDEST PUSH0 PUSH1 0x40 MLOAD DUP1 DUP4 SUB DUP2 PUSH0 DUP8 DUP1 EXTCODESIZE ISZERO DUP1 ISZERO PUSH2 0xCB9 JUMPI PUSH0 DUP1 REVERT JUMPDEST POP GAS CALL ISZERO DUP1 ISZERO PUSH2 0xCCB JUMPI RETURNDATASIZE PUSH0 DUP1 RETURNDATACOPY RETURNDATASIZE PUSH0 REVERT JUMPDEST POP POP POP POP POP JUMP JUMPDEST PUSH2 0xCDB DUP3 PUSH2 0xA10 JUMP JUMPDEST PUSH2 0xCE4 DUP2 PUSH2 0x1B66 JUMP JUMPDEST PUSH2 0xCEE DUP4 DUP4 PUSH2 0x1B7A JUMP JUMPDEST POP POP POP POP JUMP JUMPDEST PUSH0 PUSH1 0x12 SWAP1 POP SWAP1 JUMP JUMPDEST PUSH2 0xD04 PUSH2 0x19CB JUMP JUMPDEST PUSH20 0xFFFFFFFFFFFFFFFFFFFFFFFFFFFFFFFFFFFFFFFF AND DUP2 PUSH20 0xFFFFFFFFFFFFFFFFFFFFFFFFFFFFFFFFFFFFFFFF AND EQ PUSH2 0xD68 JUMPI PUSH1 0x40 MLOAD PUSH32 0x6697B23200000000000000000000000000000000000000000000000000000000 DUP2 MSTORE PUSH1 0x4 ADD PUSH1 0x40 MLOAD DUP1 SWAP2 SUB SWAP1 REVERT JUMPDEST PUSH2 0xD72 DUP3 DUP3 PUSH2 0x1C64 JUMP JUMPDEST POP POP POP JUMP JUMPDEST PUSH32 0xDF8B4C520FFE197C5343C6F5AEC59570151EF9A492F2C624FD45DDDE6135EC42 PUSH2 0xDA1 DUP2 PUSH2 0x1B66 JUMP JUMPDEST PUSH2 0xDA9 PUSH2 0x1D4E JUMP JUMPDEST POP JUMP JUMPDEST PUSH0 PUSH1 0x5 PUSH0 SWAP1 SLOAD SWAP1 PUSH2 0x100 EXP SWAP1 DIV PUSH1 0xFF AND SWAP1 POP SWAP1 JUMP JUMPDEST PUSH32 0x0 PUSH20 0xFFFFFFFFFFFFFFFFFFFFFFFFFFFFFFFFFFFFFFFF AND PUSH4 0x23B872DD CALLER ADDRESS DUP5 PUSH1 0x40 MLOAD DUP5 PUSH4 0xFFFFFFFF AND PUSH1 0xE0 SHL DUP2 MSTORE PUSH1 0x4 ADD PUSH2 0xE1E SWAP4 SWAP3 SWAP2 SWAP1 PUSH2 0x2B62 JUMP JUMPDEST PUSH1 0x20 PUSH1 0x40 MLOAD DUP1 DUP4 SUB DUP2 PUSH0 DUP8 GAS CALL ISZERO DUP1 ISZERO PUSH2 0xE3A JUMPI RETURNDATASIZE PUSH0 DUP1 RETURNDATACOPY RETURNDATASIZE PUSH0 REVERT JUMPDEST POP POP POP POP PUSH1 0x40 MLOAD RETURNDATASIZE PUSH1 0x1F NOT PUSH1 0x1F DUP3 ADD AND DUP3 ADD DUP1 PUSH1 0x40 MSTORE POP DUP2 ADD SWAP1 PUSH2 0xE5E SWAP2 SWAP1 PUSH2 0x2BC1 JUMP JUMPDEST PUSH2 0xE9D JUMPI PUSH1 0x40 MLOAD PUSH32 0x8C379A000000000000000000000000000000000000000000000000000000000 DUP2 MSTORE PUSH1 0x4 ADD PUSH2 0xE94 SWAP1 PUSH2 0x2DFD JUMP JUMPDEST PUSH1 0x40 MLOAD DUP1 SWAP2 SUB SWAP1 REVERT JUMPDEST POP JUMP JUMPDEST PUSH0 DUP1 PUSH0 DUP4 PUSH20 0xFFFFFFFFFFFFFFFFFFFFFFFFFFFFFFFFFFFFFFFF AND PUSH20 0xFFFFFFFFFFFFFFFFFFFFFFFFFFFFFFFFFFFFFFFF AND DUP2 MSTORE PUSH1 0x20 ADD SWAP1 DUP2 MSTORE PUSH1 0x20 ADD PUSH0 KECCAK256 SLOAD SWAP1 POP SWAP2 SWAP1 POP JUMP JUMPDEST PUSH32 0x0 DUP2 JUMP JUMPDEST PUSH32 0xDF8B4C520FFE197C5343C6F5AEC59570151EF9A492F2C624FD45DDDE6135EC42 PUSH2 0xF33 DUP2 PUSH2 0x1B66 JUMP JUMPDEST PUSH2 0xF3B PUSH2 0x1DAF JUMP JUMPDEST POP JUMP JUMPDEST PUSH0 ADDRESS PUSH20 0xFFFFFFFFFFFFFFFFFFFFFFFFFFFFFFFFFFFFFFFF AND PUSH4 0x70A08231 CALLER PUSH1 0x40 MLOAD DUP3 PUSH4 0xFFFFFFFF AND PUSH1 0xE0 SHL DUP2 MSTORE PUSH1 0x4 ADD PUSH2 0xF78 SWAP2 SWAP1 PUSH2 0x2766 JUMP JUMPDEST PUSH1 0x20 PUSH1 0x40 MLOAD DUP1 DUP4 SUB DUP2 DUP7 GAS STATICCALL ISZERO DUP1 ISZERO PUSH2 0xF93 JUMPI RETURNDATASIZE PUSH0 DUP1 RETURNDATACOPY RETURNDATASIZE PUSH0 REVERT JUMPDEST POP POP POP POP PUSH1 0x40 MLOAD RETURNDATASIZE PUSH1 0x1F NOT PUSH1 0x1F DUP3 ADD AND DUP3 ADD DUP1 PUSH1 0x40 MSTORE POP DUP2 ADD SWAP1 PUSH2 0xFB7 SWAP2 SWAP1 PUSH2 0x2B04 JUMP JUMPDEST SWAP1 POP SWAP1 JUMP JUMPDEST PUSH32 0xDF8B4C520FFE197C5343C6F5AEC59570151EF9A492F2C624FD45DDDE6135EC42 PUSH2 0xFE6 DUP2 PUSH2 0x1B66 JUMP JUMPDEST DUP2 MLOAD DUP4 MLOAD EQ PUSH2 0x102A JUMPI PUSH1 0x40 MLOAD PUSH32 0x8C379A000000000000000000000000000000000000000000000000000000000 DUP2 MSTORE PUSH1 0x4 ADD PUSH2 0x1021 SWAP1 PUSH2 0x2E8B JUMP JUMPDEST PUSH1 0x40 MLOAD DUP1 SWAP2 SUB SWAP1 REVERT JUMPDEST PUSH0 JUMPDEST DUP4 MLOAD DUP2 LT ISZERO PUSH2 0x1150 JUMPI PUSH32 0x0 PUSH20 0xFFFFFFFFFFFFFFFFFFFFFFFFFFFFFFFFFFFFFFFF AND PUSH4 0xA9059CBB DUP6 DUP4 DUP2 MLOAD DUP2 LT PUSH2 0x1084 JUMPI PUSH2 0x1083 PUSH2 0x2EA9 JUMP JUMPDEST JUMPDEST PUSH1 0x20 MUL PUSH1 0x20 ADD ADD MLOAD DUP6 DUP5 DUP2 MLOAD DUP2 LT PUSH2 0x109F JUMPI PUSH2 0x109E PUSH2 0x2EA9 JUMP JUMPDEST JUMPDEST PUSH1 0x20 MUL PUSH1 0x20 ADD ADD MLOAD PUSH1 0x40 MLOAD DUP4 PUSH4 0xFFFFFFFF AND PUSH1 0xE0 SHL DUP2 MSTORE PUSH1 0x4 ADD PUSH2 0x10C4 SWAP3 SWAP2 SWAP1 PUSH2 0x2C54 JUMP JUMPDEST PUSH1 0x20 PUSH1 0x40 MLOAD DUP1 DUP4 SUB DUP2 PUSH0 DUP8 GAS CALL ISZERO DUP1 ISZERO PUSH2 0x10E0 JUMPI RETURNDATASIZE PUSH0 DUP1 RETURNDATACOPY RETURNDATASIZE PUSH0 REVERT JUMPDEST POP POP POP POP PUSH1 0x40 MLOAD RETURNDATASIZE PUSH1 0x1F NOT PUSH1 0x1F DUP3 ADD AND DUP3 ADD DUP1 PUSH1 0x40 MSTORE POP DUP2 ADD SWAP1 PUSH2 0x1104 SWAP2 SWAP1 PUSH2 0x2BC1 JUMP JUMPDEST PUSH2 0x1143 JUMPI PUSH1 0x40 MLOAD PUSH32 0x8C379A000000000000000000000000000000000000000000000000000000000 DUP2 MSTORE PUSH1 0x4 ADD PUSH2 0x113A SWAP1 PUSH2 0x2F20 JUMP JUMPDEST PUSH1 0x40 MLOAD DUP1 SWAP2 SUB SWAP1 REVERT JUMPDEST DUP1 DUP1 PUSH1 0x1 ADD SWAP2 POP POP PUSH2 0x102C JUMP JUMPDEST POP POP POP POP JUMP JUMPDEST PUSH0 PUSH1 0x6 PUSH0 DUP5 DUP2 MSTORE PUSH1 0x20 ADD SWAP1 DUP2 MSTORE PUSH1 0x20 ADD PUSH0 KECCAK256 PUSH0 ADD PUSH0 DUP4 PUSH20 0xFFFFFFFFFFFFFFFFFFFFFFFFFFFFFFFFFFFFFFFF AND PUSH20 0xFFFFFFFFFFFFFFFFFFFFFFFFFFFFFFFFFFFFFFFF AND DUP2 MSTORE PUSH1 0x20 ADD SWAP1 DUP2 MSTORE PUSH1 0x20 ADD PUSH0 KECCAK256 PUSH0 SWAP1 SLOAD SWAP1 PUSH2 0x100 EXP SWAP1 DIV PUSH1 0xFF AND SWAP1 POP SWAP3 SWAP2 POP POP JUMP JUMPDEST PUSH1 0x60 PUSH1 0x4 DUP1 SLOAD PUSH2 0x11C9 SWAP1 PUSH2 0x2A60 JUMP JUMPDEST DUP1 PUSH1 0x1F ADD PUSH1 0x20 DUP1 SWAP2 DIV MUL PUSH1 0x20 ADD PUSH1 0x40 MLOAD SWAP1 DUP2 ADD PUSH1 0x40 MSTORE DUP1 SWAP3 SWAP2 SWAP1 DUP2 DUP2 MSTORE PUSH1 0x20 ADD DUP3 DUP1 SLOAD PUSH2 0x11F5 SWAP1 PUSH2 0x2A60 JUMP JUMPDEST DUP1 ISZERO PUSH2 0x1240 JUMPI DUP1 PUSH1 0x1F LT PUSH2 0x1217 JUMPI PUSH2 0x100 DUP1 DUP4 SLOAD DIV MUL DUP4 MSTORE SWAP2 PUSH1 0x20 ADD SWAP2 PUSH2 0x1240 JUMP JUMPDEST DUP3 ADD SWAP2 SWAP1 PUSH0 MSTORE PUSH1 0x20 PUSH0 KECCAK256 SWAP1 JUMPDEST DUP2 SLOAD DUP2 MSTORE SWAP1 PUSH1 0x1 ADD SWAP1 PUSH1 0x20 ADD DUP1 DUP4 GT PUSH2 0x1223 JUMPI DUP3 SWAP1 SUB PUSH1 0x1F AND DUP3 ADD SWAP2 JUMPDEST POP POP POP POP POP SWAP1 POP SWAP1 JUMP JUMPDEST PUSH32 0x0 DUP2 JUMP JUMPDEST PUSH0 DUP1 SHL DUP2 JUMP JUMPDEST PUSH0 DUP1 PUSH2 0x127E PUSH2 0x19CB JUMP JUMPDEST SWAP1 POP PUSH2 0x128B DUP2 DUP6 DUP6 PUSH2 0x1A76 JUMP JUMPDEST PUSH1 0x1 SWAP2 POP POP SWAP3 SWAP2 POP POP JUMP JUMPDEST PUSH0 PUSH32 0x0 PUSH20 0xFFFFFFFFFFFFFFFFFFFFFFFFFFFFFFFFFFFFFFFF AND PUSH4 0x70A08231 CALLER PUSH1 0x40 MLOAD DUP3 PUSH4 0xFFFFFFFF AND PUSH1 0xE0 SHL DUP2 MSTORE PUSH1 0x4 ADD PUSH2 0x12F0 SWAP2 SWAP1 PUSH2 0x2766 JUMP JUMPDEST PUSH1 0x20 PUSH1 0x40 MLOAD DUP1 DUP4 SUB DUP2 DUP7 GAS STATICCALL ISZERO DUP1 ISZERO PUSH2 0x130B JUMPI RETURNDATASIZE PUSH0 DUP1 RETURNDATACOPY RETURNDATASIZE PUSH0 REVERT JUMPDEST POP POP POP POP PUSH1 0x40 MLOAD RETURNDATASIZE PUSH1 0x1F NOT PUSH1 0x1F DUP3 ADD AND DUP3 ADD DUP1 PUSH1 0x40 MSTORE POP DUP2 ADD SWAP1 PUSH2 0x132F SWAP2 SWAP1 PUSH2 0x2B04 JUMP JUMPDEST SWAP1 POP SWAP1 JUMP JUMPDEST PUSH1 0x7 SLOAD DUP2 JUMP JUMPDEST PUSH32 0x0 TIMESTAMP LT ISZERO PUSH2 0x139D JUMPI PUSH1 0x40 MLOAD PUSH32 0x8C379A000000000000000000000000000000000000000000000000000000000 DUP2 MSTORE PUSH1 0x4 ADD PUSH2 0x1394 SWAP1 PUSH2 0x2F88 JUMP JUMPDEST PUSH1 0x40 MLOAD DUP1 SWAP2 SUB SWAP1 REVERT JUMPDEST PUSH0 DUP2 GT PUSH2 0x13DF JUMPI PUSH1 0x40 MLOAD PUSH32 0x8C379A000000000000000000000000000000000000000000000000000000000 DUP2 MSTORE PUSH1 0x4 ADD PUSH2 0x13D6 SWAP1 PUSH2 0x2D2D JUMP JUMPDEST PUSH1 0x40 MLOAD DUP1 SWAP2 SUB SWAP1 REVERT JUMPDEST ADDRESS PUSH20 0xFFFFFFFFFFFFFFFFFFFFFFFFFFFFFFFFFFFFFFFF AND PUSH4 0x23B872DD CALLER ADDRESS DUP5 PUSH1 0x40 MLOAD DUP5 PUSH4 0xFFFFFFFF AND PUSH1 0xE0 SHL DUP2 MSTORE PUSH1 0x4 ADD PUSH2 0x141C SWAP4 SWAP3 SWAP2 SWAP1 PUSH2 0x2B62 JUMP JUMPDEST PUSH1 0x20 PUSH1 0x40 MLOAD DUP1 DUP4 SUB DUP2 PUSH0 DUP8 GAS CALL ISZERO DUP1 ISZERO PUSH2 0x1438 JUMPI RETURNDATASIZE PUSH0 DUP1 RETURNDATACOPY RETURNDATASIZE PUSH0 REVERT JUMPDEST POP POP POP POP PUSH1 0x40 MLOAD RETURNDATASIZE PUSH1 0x1F NOT PUSH1 0x1F DUP3 ADD AND DUP3 ADD DUP1 PUSH1 0x40 MSTORE POP DUP2 ADD SWAP1 PUSH2 0x145C SWAP2 SWAP1 PUSH2 0x2BC1 JUMP JUMPDEST PUSH2 0x149B JUMPI PUSH1 0x40 MLOAD PUSH32 0x8C379A000000000000000000000000000000000000000000000000000000000 DUP2 MSTORE PUSH1 0x4 ADD PUSH2 0x1492 SWAP1 PUSH2 0x2CC5 JUMP JUMPDEST PUSH1 0x40 MLOAD DUP1 SWAP2 SUB SWAP1 REVERT JUMPDEST PUSH32 0x0 PUSH20 0xFFFFFFFFFFFFFFFFFFFFFFFFFFFFFFFFFFFFFFFF AND PUSH4 0xA9059CBB CALLER DUP4 PUSH1 0x40 MLOAD DUP4 PUSH4 0xFFFFFFFF AND PUSH1 0xE0 SHL DUP2 MSTORE PUSH1 0x4 ADD PUSH2 0x14F6 SWAP3 SWAP2 SWAP1 PUSH2 0x2C54 JUMP JUMPDEST PUSH1 0x20 PUSH1 0x40 MLOAD DUP1 DUP4 SUB DUP2 PUSH0 DUP8 GAS CALL ISZERO DUP1 ISZERO PUSH2 0x1512 JUMPI RETURNDATASIZE PUSH0 DUP1 RETURNDATACOPY RETURNDATASIZE PUSH0 REVERT JUMPDEST POP POP POP POP PUSH1 0x40 MLOAD RETURNDATASIZE PUSH1 0x1F NOT PUSH1 0x1F DUP3 ADD AND DUP3 ADD DUP1 PUSH1 0x40 MSTORE POP DUP2 ADD SWAP1 PUSH2 0x1536 SWAP2 SWAP1 PUSH2 0x2BC1 JUMP JUMPDEST PUSH2 0x1575 JUMPI PUSH1 0x40 MLOAD PUSH32 0x8C379A000000000000000000000000000000000000000000000000000000000 DUP2 MSTORE PUSH1 0x4 ADD PUSH2 0x156C SWAP1 PUSH2 0x2C36 JUMP JUMPDEST PUSH1 0x40 MLOAD DUP1 SWAP2 SUB SWAP1 REVERT JUMPDEST PUSH2 0x157F ADDRESS DUP3 PUSH2 0x1E11 JUMP JUMPDEST POP JUMP JUMPDEST PUSH0 PUSH32 0x0 PUSH20 0xFFFFFFFFFFFFFFFFFFFFFFFFFFFFFFFFFFFFFFFF AND PUSH4 0x70A08231 CALLER PUSH1 0x40 MLOAD DUP3 PUSH4 0xFFFFFFFF AND PUSH1 0xE0 SHL DUP2 MSTORE PUSH1 0x4 ADD PUSH2 0x15DC SWAP2 SWAP1 PUSH2 0x2766 JUMP JUMPDEST PUSH1 0x20 PUSH1 0x40 MLOAD DUP1 DUP4 SUB DUP2 DUP7 GAS STATICCALL ISZERO DUP1 ISZERO PUSH2 0x15F7 JUMPI RETURNDATASIZE PUSH0 DUP1 RETURNDATACOPY RETURNDATASIZE PUSH0 REVERT JUMPDEST POP POP POP POP PUSH1 0x40 MLOAD RETURNDATASIZE PUSH1 0x1F NOT PUSH1 0x1F DUP3 ADD AND DUP3 ADD DUP1 PUSH1 0x40 MSTORE POP DUP2 ADD SWAP1 PUSH2 0x161B SWAP2 SWAP1 PUSH2 0x2B04 JUMP JUMPDEST SWAP1 POP SWAP1 JUMP JUMPDEST PUSH32 0xF877234297EF562D54F0328F892ACFC1D6C1E44CA89F02E3A2C2A4736F6095B7 PUSH2 0x164A DUP2 PUSH2 0x1B66 JUMP JUMPDEST PUSH0 PUSH1 0x7 SLOAD GT PUSH2 0x168E JUMPI PUSH1 0x40 MLOAD PUSH32 0x8C379A000000000000000000000000000000000000000000000000000000000 DUP2 MSTORE PUSH1 0x4 ADD PUSH2 0x1685 SWAP1 PUSH2 0x2FF0 JUMP JUMPDEST PUSH1 0x40 MLOAD DUP1 SWAP2 SUB SWAP1 REVERT JUMPDEST PUSH32 0x0 PUSH20 0xFFFFFFFFFFFFFFFFFFFFFFFFFFFFFFFFFFFFFFFF AND PUSH4 0xA9059CBB CALLER PUSH1 0x7 SLOAD PUSH1 0x40 MLOAD DUP4 PUSH4 0xFFFFFFFF AND PUSH1 0xE0 SHL DUP2 MSTORE PUSH1 0x4 ADD PUSH2 0x16EB SWAP3 SWAP2 SWAP1 PUSH2 0x2C54 JUMP JUMPDEST PUSH1 0x20 PUSH1 0x40 MLOAD DUP1 DUP4 SUB DUP2 PUSH0 DUP8 GAS CALL ISZERO DUP1 ISZERO PUSH2 0x1707 JUMPI RETURNDATASIZE PUSH0 DUP1 RETURNDATACOPY RETURNDATASIZE PUSH0 REVERT JUMPDEST POP POP POP POP PUSH1 0x40 MLOAD RETURNDATASIZE PUSH1 0x1F NOT PUSH1 0x1F DUP3 ADD AND DUP3 ADD DUP1 PUSH1 0x40 MSTORE POP DUP2 ADD SWAP1 PUSH2 0x172B SWAP2 SWAP1 PUSH2 0x2BC1 JUMP JUMPDEST PUSH2 0x176A JUMPI PUSH1 0x40 MLOAD PUSH32 0x8C379A000000000000000000000000000000000000000000000000000000000 DUP2 MSTORE PUSH1 0x4 ADD PUSH2 0x1761 SWAP1 PUSH2 0x3058 JUMP JUMPDEST PUSH1 0x40 MLOAD DUP1 SWAP2 SUB SWAP1 REVERT JUMPDEST POP JUMP JUMPDEST PUSH2 0x1776 DUP3 PUSH2 0xA10 JUMP JUMPDEST PUSH2 0x177F DUP2 PUSH2 0x1B66 JUMP JUMPDEST PUSH2 0x1789 DUP4 DUP4 PUSH2 0x1C64 JUMP JUMPDEST POP POP POP POP JUMP JUMPDEST PUSH32 0x0 DUP2 JUMP JUMPDEST PUSH0 PUSH1 0x1 PUSH0 DUP5 PUSH20 0xFFFFFFFFFFFFFFFFFFFFFFFFFFFFFFFFFFFFFFFF AND PUSH20 0xFFFFFFFFFFFFFFFFFFFFFFFFFFFFFFFFFFFFFFFF AND DUP2 MSTORE PUSH1 0x20 ADD SWAP1 DUP2 MSTORE PUSH1 0x20 ADD PUSH0 KECCAK256 PUSH0 DUP4 PUSH20 0xFFFFFFFFFFFFFFFFFFFFFFFFFFFFFFFFFFFFFFFF AND PUSH20 0xFFFFFFFFFFFFFFFFFFFFFFFFFFFFFFFFFFFFFFFF AND DUP2 MSTORE PUSH1 0x20 ADD SWAP1 DUP2 MSTORE PUSH1 0x20 ADD PUSH0 KECCAK256 SLOAD SWAP1 POP SWAP3 SWAP2 POP POP JUMP JUMPDEST PUSH32 0xF877234297EF562D54F0328F892ACFC1D6C1E44CA89F02E3A2C2A4736F6095B7 DUP2 JUMP JUMPDEST PUSH32 0xDF8B4C520FFE197C5343C6F5AEC59570151EF9A492F2C624FD45DDDE6135EC42 PUSH2 0x1883 DUP2 PUSH2 0x1B66 JUMP JUMPDEST PUSH32 0x0 PUSH20 0xFFFFFFFFFFFFFFFFFFFFFFFFFFFFFFFFFFFFFFFF AND PUSH4 0xA9059CBB DUP5 DUP5 PUSH1 0x40 MLOAD DUP4 PUSH4 0xFFFFFFFF AND PUSH1 0xE0 SHL DUP2 MSTORE PUSH1 0x4 ADD PUSH2 0x18DE SWAP3 SWAP2 SWAP1 PUSH2 0x2C54 JUMP JUMPDEST PUSH1 0x20 PUSH1 0x40 MLOAD DUP1 DUP4 SUB DUP2 PUSH0 DUP8 GAS CALL ISZERO DUP1 ISZERO PUSH2 0x18FA JUMPI RETURNDATASIZE PUSH0 DUP1 RETURNDATACOPY RETURNDATASIZE PUSH0 REVERT JUMPDEST POP POP POP POP PUSH1 0x40 MLOAD RETURNDATASIZE PUSH1 0x1F NOT PUSH1 0x1F DUP3 ADD AND DUP3 ADD DUP1 PUSH1 0x40 MSTORE POP DUP2 ADD SWAP1 PUSH2 0x191E SWAP2 SWAP1 PUSH2 0x2BC1 JUMP JUMPDEST PUSH2 0x195D JUMPI PUSH1 0x40 MLOAD PUSH32 0x8C379A000000000000000000000000000000000000000000000000000000000 DUP2 MSTORE PUSH1 0x4 ADD PUSH2 0x1954 SWAP1 PUSH2 0x2F20 JUMP JUMPDEST PUSH1 0x40 MLOAD DUP1 SWAP2 SUB SWAP1 REVERT JUMPDEST POP POP POP JUMP JUMPDEST PUSH0 PUSH32 0x1FFC9A700000000000000000000000000000000000000000000000000000000 PUSH28 0xFFFFFFFFFFFFFFFFFFFFFFFFFFFFFFFFFFFFFFFFFFFFFFFFFFFFFFFF NOT AND DUP3 PUSH28 0xFFFFFFFFFFFFFFFFFFFFFFFFFFFFFFFFFFFFFFFFFFFFFFFFFFFFFFFF NOT AND EQ SWAP1 POP SWAP2 SWAP1 POP JUMP JUMPDEST PUSH0 CALLER SWAP1 POP SWAP1 JUMP JUMPDEST PUSH2 0x19DF DUP4 DUP4 DUP4 PUSH1 0x1 PUSH2 0x1E90 JUMP JUMPDEST POP POP POP JUMP JUMPDEST PUSH0 PUSH2 0x19EF DUP5 DUP5 PUSH2 0x17B3 JUMP JUMPDEST SWAP1 POP PUSH32 0xFFFFFFFFFFFFFFFFFFFFFFFFFFFFFFFFFFFFFFFFFFFFFFFFFFFFFFFFFFFFFFFF DUP2 EQ PUSH2 0x1A70 JUMPI DUP2 DUP2 LT ISZERO PUSH2 0x1A61 JUMPI DUP3 DUP2 DUP4 PUSH1 0x40 MLOAD PUSH32 0xFB8F41B200000000000000000000000000000000000000000000000000000000 DUP2 MSTORE PUSH1 0x4 ADD PUSH2 0x1A58 SWAP4 SWAP3 SWAP2 SWAP1 PUSH2 0x3076 JUMP JUMPDEST PUSH1 0x40 MLOAD DUP1 SWAP2 SUB SWAP1 REVERT JUMPDEST PUSH2 0x1A6F DUP5 DUP5 DUP5 DUP5 SUB PUSH0 PUSH2 0x1E90 JUMP JUMPDEST JUMPDEST POP POP POP POP JUMP JUMPDEST PUSH0 PUSH20 0xFFFFFFFFFFFFFFFFFFFFFFFFFFFFFFFFFFFFFFFF AND DUP4 PUSH20 0xFFFFFFFFFFFFFFFFFFFFFFFFFFFFFFFFFFFFFFFF AND SUB PUSH2 0x1AE6 JUMPI PUSH0 PUSH1 0x40 MLOAD PUSH32 0x96C6FD1E00000000000000000000000000000000000000000000000000000000 DUP2 MSTORE PUSH1 0x4 ADD PUSH2 0x1ADD SWAP2 SWAP1 PUSH2 0x2766 JUMP JUMPDEST PUSH1 0x40 MLOAD DUP1 SWAP2 SUB SWAP1 REVERT JUMPDEST PUSH0 PUSH20 0xFFFFFFFFFFFFFFFFFFFFFFFFFFFFFFFFFFFFFFFF AND DUP3 PUSH20 0xFFFFFFFFFFFFFFFFFFFFFFFFFFFFFFFFFFFFFFFF AND SUB PUSH2 0x1B56 JUMPI PUSH0 PUSH1 0x40 MLOAD PUSH32 0xEC442F0500000000000000000000000000000000000000000000000000000000 DUP2 MSTORE PUSH1 0x4 ADD PUSH2 0x1B4D SWAP2 SWAP1 PUSH2 0x2766 JUMP JUMPDEST PUSH1 0x40 MLOAD DUP1 SWAP2 SUB SWAP1 REVERT JUMPDEST PUSH2 0x1B61 DUP4 DUP4 DUP4 PUSH2 0x205F JUMP JUMPDEST POP POP POP JUMP JUMPDEST PUSH2 0x1B77 DUP2 PUSH2 0x1B72 PUSH2 0x19CB JUMP JUMPDEST PUSH2 0x206F JUMP JUMPDEST POP JUMP JUMPDEST PUSH0 PUSH2 0x1B85 DUP4 DUP4 PUSH2 0x1156 JUMP JUMPDEST PUSH2 0x1C5A JUMPI PUSH1 0x1 PUSH1 0x6 PUSH0 DUP6 DUP2 MSTORE PUSH1 0x20 ADD SWAP1 DUP2 MSTORE PUSH1 0x20 ADD PUSH0 KECCAK256 PUSH0 ADD PUSH0 DUP5 PUSH20 0xFFFFFFFFFFFFFFFFFFFFFFFFFFFFFFFFFFFFFFFF AND PUSH20 0xFFFFFFFFFFFFFFFFFFFFFFFFFFFFFFFFFFFFFFFF AND DUP2 MSTORE PUSH1 0x20 ADD SWAP1 DUP2 MSTORE PUSH1 0x20 ADD PUSH0 KECCAK256 PUSH0 PUSH2 0x100 EXP DUP2 SLOAD DUP2 PUSH1 0xFF MUL NOT AND SWAP1 DUP4 ISZERO ISZERO MUL OR SWAP1 SSTORE POP PUSH2 0x1BF7 PUSH2 0x19CB JUMP JUMPDEST PUSH20 0xFFFFFFFFFFFFFFFFFFFFFFFFFFFFFFFFFFFFFFFF AND DUP3 PUSH20 0xFFFFFFFFFFFFFFFFFFFFFFFFFFFFFFFFFFFFFFFF AND DUP5 PUSH32 0x2F8788117E7EFF1D82E926EC794901D17C78024A50270940304540A733656F0D PUSH1 0x40 MLOAD PUSH1 0x40 MLOAD DUP1 SWAP2 SUB SWAP1 LOG4 PUSH1 0x1 SWAP1 POP PUSH2 0x1C5E JUMP JUMPDEST PUSH0 SWAP1 POP JUMPDEST SWAP3 SWAP2 POP POP JUMP JUMPDEST PUSH0 PUSH2 0x1C6F DUP4 DUP4 PUSH2 0x1156 JUMP JUMPDEST ISZERO PUSH2 0x1D44 JUMPI PUSH0 PUSH1 0x6 PUSH0 DUP6 DUP2 MSTORE PUSH1 0x20 ADD SWAP1 DUP2 MSTORE PUSH1 0x20 ADD PUSH0 KECCAK256 PUSH0 ADD PUSH0 DUP5 PUSH20 0xFFFFFFFFFFFFFFFFFFFFFFFFFFFFFFFFFFFFFFFF AND PUSH20 0xFFFFFFFFFFFFFFFFFFFFFFFFFFFFFFFFFFFFFFFF AND DUP2 MSTORE PUSH1 0x20 ADD SWAP1 DUP2 MSTORE PUSH1 0x20 ADD PUSH0 KECCAK256 PUSH0 PUSH2 0x100 EXP DUP2 SLOAD DUP2 PUSH1 0xFF MUL NOT AND SWAP1 DUP4 ISZERO ISZERO MUL OR SWAP1 SSTORE POP PUSH2 0x1CE1 PUSH2 0x19CB JUMP JUMPDEST PUSH20 0xFFFFFFFFFFFFFFFFFFFFFFFFFFFFFFFFFFFFFFFF AND DUP3 PUSH20 0xFFFFFFFFFFFFFFFFFFFFFFFFFFFFFFFFFFFFFFFF AND DUP5 PUSH32 0xF6391F5C32D9C69D2A47EA670B442974B53935D1EDC7FD64EB21E047A839171B PUSH1 0x40 MLOAD PUSH1 0x40 MLOAD DUP1 SWAP2 SUB SWAP1 LOG4 PUSH1 0x1 SWAP1 POP PUSH2 0x1D48 JUMP JUMPDEST PUSH0 SWAP1 POP JUMPDEST SWAP3 SWAP2 POP POP JUMP JUMPDEST PUSH2 0x1D56 PUSH2 0x20C0 JUMP JUMPDEST PUSH0 PUSH1 0x5 PUSH0 PUSH2 0x100 EXP DUP2 SLOAD DUP2 PUSH1 0xFF MUL NOT AND SWAP1 DUP4 ISZERO ISZERO MUL OR SWAP1 SSTORE POP PUSH32 0x5DB9EE0A495BF2E6FF9C91A7834C1BA4FDD244A5E8AA4E537BD38AEAE4B073AA PUSH2 0x1D98 PUSH2 0x19CB JUMP JUMPDEST PUSH1 0x40 MLOAD PUSH2 0x1DA5 SWAP2 SWAP1 PUSH2 0x2766 JUMP JUMPDEST PUSH1 0x40 MLOAD DUP1 SWAP2 SUB SWAP1 LOG1 JUMP JUMPDEST PUSH2 0x1DB7 PUSH2 0x2100 JUMP JUMPDEST PUSH1 0x1 PUSH1 0x5 PUSH0 PUSH2 0x100 EXP DUP2 SLOAD DUP2 PUSH1 0xFF MUL NOT AND SWAP1 DUP4 ISZERO ISZERO MUL OR SWAP1 SSTORE POP PUSH32 0x62E78CEA01BEE320CD4E420270B5EA74000D11B0C9F74754EBDBFC544B05A258 PUSH2 0x1DFA PUSH2 0x19CB JUMP JUMPDEST PUSH1 0x40 MLOAD PUSH2 0x1E07 SWAP2 SWAP1 PUSH2 0x2766 JUMP JUMPDEST PUSH1 0x40 MLOAD DUP1 SWAP2 SUB SWAP1 LOG1 JUMP JUMPDEST PUSH0 PUSH20 0xFFFFFFFFFFFFFFFFFFFFFFFFFFFFFFFFFFFFFFFF AND DUP3 PUSH20 0xFFFFFFFFFFFFFFFFFFFFFFFFFFFFFFFFFFFFFFFF AND SUB PUSH2 0x1E81 JUMPI PUSH0 PUSH1 0x40 MLOAD PUSH32 0x96C6FD1E00000000000000000000000000000000000000000000000000000000 DUP2 MSTORE PUSH1 0x4 ADD PUSH2 0x1E78 SWAP2 SWAP1 PUSH2 0x2766 JUMP JUMPDEST PUSH1 0x40 MLOAD DUP1 SWAP2 SUB SWAP1 REVERT JUMPDEST PUSH2 0x1E8C DUP3 PUSH0 DUP4 PUSH2 0x205F JUMP JUMPDEST POP POP JUMP JUMPDEST PUSH0 PUSH20 0xFFFFFFFFFFFFFFFFFFFFFFFFFFFFFFFFFFFFFFFF AND DUP5 PUSH20 0xFFFFFFFFFFFFFFFFFFFFFFFFFFFFFFFFFFFFFFFF AND SUB PUSH2 0x1F00 JUMPI PUSH0 PUSH1 0x40 MLOAD PUSH32 0xE602DF0500000000000000000000000000000000000000000000000000000000 DUP2 MSTORE PUSH1 0x4 ADD PUSH2 0x1EF7 SWAP2 SWAP1 PUSH2 0x2766 JUMP JUMPDEST PUSH1 0x40 MLOAD DUP1 SWAP2 SUB SWAP1 REVERT JUMPDEST PUSH0 PUSH20 0xFFFFFFFFFFFFFFFFFFFFFFFFFFFFFFFFFFFFFFFF AND DUP4 PUSH20 0xFFFFFFFFFFFFFFFFFFFFFFFFFFFFFFFFFFFFFFFF AND SUB PUSH2 0x1F70 JUMPI PUSH0 PUSH1 0x40 MLOAD PUSH32 0x94280D6200000000000000000000000000000000000000000000000000000000 DUP2 MSTORE PUSH1 0x4 ADD PUSH2 0x1F67 SWAP2 SWAP1 PUSH2 0x2766 JUMP JUMPDEST PUSH1 0x40 MLOAD DUP1 SWAP2 SUB SWAP1 REVERT JUMPDEST DUP2 PUSH1 0x1 PUSH0 DUP7 PUSH20 0xFFFFFFFFFFFFFFFFFFFFFFFFFFFFFFFFFFFFFFFF AND PUSH20 0xFFFFFFFFFFFFFFFFFFFFFFFFFFFFFFFFFFFFFFFF AND DUP2 MSTORE PUSH1 0x20 ADD SWAP1 DUP2 MSTORE PUSH1 0x20 ADD PUSH0 KECCAK256 PUSH0 DUP6 PUSH20 0xFFFFFFFFFFFFFFFFFFFFFFFFFFFFFFFFFFFFFFFF AND PUSH20 0xFFFFFFFFFFFFFFFFFFFFFFFFFFFFFFFFFFFFFFFF AND DUP2 MSTORE PUSH1 0x20 ADD SWAP1 DUP2 MSTORE PUSH1 0x20 ADD PUSH0 KECCAK256 DUP2 SWAP1 SSTORE POP DUP1 ISZERO PUSH2 0x2059 JUMPI DUP3 PUSH20 0xFFFFFFFFFFFFFFFFFFFFFFFFFFFFFFFFFFFFFFFF AND DUP5 PUSH20 0xFFFFFFFFFFFFFFFFFFFFFFFFFFFFFFFFFFFFFFFF AND PUSH32 0x8C5BE1E5EBEC7D5BD14F71427D1E84F3DD0314C0F7B2291E5B200AC8C7C3B925 DUP5 PUSH1 0x40 MLOAD PUSH2 0x2050 SWAP2 SWAP1 PUSH2 0x25CB JUMP JUMPDEST PUSH1 0x40 MLOAD DUP1 SWAP2 SUB SWAP1 LOG3 JUMPDEST POP POP POP POP JUMP JUMPDEST PUSH2 0x206A DUP4 DUP4 DUP4 PUSH2 0x2141 JUMP JUMPDEST POP POP POP JUMP JUMPDEST PUSH2 0x2079 DUP3 DUP3 PUSH2 0x1156 JUMP JUMPDEST PUSH2 0x20BC JUMPI DUP1 DUP3 PUSH1 0x40 MLOAD PUSH32 0xE2517D3F00000000000000000000000000000000000000000000000000000000 DUP2 MSTORE PUSH1 0x4 ADD PUSH2 0x20B3 SWAP3 SWAP2 SWAP1 PUSH2 0x30AB JUMP JUMPDEST PUSH1 0x40 MLOAD DUP1 SWAP2 SUB SWAP1 REVERT JUMPDEST POP POP JUMP JUMPDEST PUSH2 0x20C8 PUSH2 0xDAC JUMP JUMPDEST PUSH2 0x20FE JUMPI PUSH1 0x40 MLOAD PUSH32 0x8DFC202B00000000000000000000000000000000000000000000000000000000 DUP2 MSTORE PUSH1 0x4 ADD PUSH1 0x40 MLOAD DUP1 SWAP2 SUB SWAP1 REVERT JUMPDEST JUMP JUMPDEST PUSH2 0x2108 PUSH2 0xDAC JUMP JUMPDEST ISZERO PUSH2 0x213F JUMPI PUSH1 0x40 MLOAD PUSH32 0xD93C066500000000000000000000000000000000000000000000000000000000 DUP2 MSTORE PUSH1 0x4 ADD PUSH1 0x40 MLOAD DUP1 SWAP2 SUB SWAP1 REVERT JUMPDEST JUMP JUMPDEST PUSH2 0x2149 PUSH2 0x2100 JUMP JUMPDEST PUSH2 0x2154 DUP4 DUP4 DUP4 PUSH2 0x2159 JUMP JUMPDEST POP POP POP JUMP JUMPDEST PUSH0 PUSH20 0xFFFFFFFFFFFFFFFFFFFFFFFFFFFFFFFFFFFFFFFF AND DUP4 PUSH20 0xFFFFFFFFFFFFFFFFFFFFFFFFFFFFFFFFFFFFFFFF AND SUB PUSH2 0x21A9 JUMPI DUP1 PUSH1 0x2 PUSH0 DUP3 DUP3 SLOAD PUSH2 0x219D SWAP2 SWAP1 PUSH2 0x2ABD JUMP JUMPDEST SWAP3 POP POP DUP2 SWAP1 SSTORE POP PUSH2 0x2277 JUMP JUMPDEST PUSH0 DUP1 PUSH0 DUP6 PUSH20 0xFFFFFFFFFFFFFFFFFFFFFFFFFFFFFFFFFFFFFFFF AND PUSH20 0xFFFFFFFFFFFFFFFFFFFFFFFFFFFFFFFFFFFFFFFF AND DUP2 MSTORE PUSH1 0x20 ADD SWAP1 DUP2 MSTORE PUSH1 0x20 ADD PUSH0 KECCAK256 SLOAD SWAP1 POP DUP2 DUP2 LT ISZERO PUSH2 0x2232 JUMPI DUP4 DUP2 DUP4 PUSH1 0x40 MLOAD PUSH32 0xE450D38C00000000000000000000000000000000000000000000000000000000 DUP2 MSTORE PUSH1 0x4 ADD PUSH2 0x2229 SWAP4 SWAP3 SWAP2 SWAP1 PUSH2 0x3076 JUMP JUMPDEST PUSH1 0x40 MLOAD DUP1 SWAP2 SUB SWAP1 REVERT JUMPDEST DUP2 DUP2 SUB PUSH0 DUP1 DUP7 PUSH20 0xFFFFFFFFFFFFFFFFFFFFFFFFFFFFFFFFFFFFFFFF AND PUSH20 0xFFFFFFFFFFFFFFFFFFFFFFFFFFFFFFFFFFFFFFFF AND DUP2 MSTORE PUSH1 0x20 ADD SWAP1 DUP2 MSTORE PUSH1 0x20 ADD PUSH0 KECCAK256 DUP2 SWAP1 SSTORE POP POP JUMPDEST PUSH0 PUSH20 0xFFFFFFFFFFFFFFFFFFFFFFFFFFFFFFFFFFFFFFFF AND DUP3 PUSH20 0xFFFFFFFFFFFFFFFFFFFFFFFFFFFFFFFFFFFFFFFF AND SUB PUSH2 0x22BE JUMPI DUP1 PUSH1 0x2 PUSH0 DUP3 DUP3 SLOAD SUB SWAP3 POP POP DUP2 SWAP1 SSTORE POP PUSH2 0x2308 JUMP JUMPDEST DUP1 PUSH0 DUP1 DUP5 PUSH20 0xFFFFFFFFFFFFFFFFFFFFFFFFFFFFFFFFFFFFFFFF AND PUSH20 0xFFFFFFFFFFFFFFFFFFFFFFFFFFFFFFFFFFFFFFFF AND DUP2 MSTORE PUSH1 0x20 ADD SWAP1 DUP2 MSTORE PUSH1 0x20 ADD PUSH0 KECCAK256 PUSH0 DUP3 DUP3 SLOAD ADD SWAP3 POP POP DUP2 SWAP1 SSTORE POP JUMPDEST DUP2 PUSH20 0xFFFFFFFFFFFFFFFFFFFFFFFFFFFFFFFFFFFFFFFF AND DUP4 PUSH20 0xFFFFFFFFFFFFFFFFFFFFFFFFFFFFFFFFFFFFFFFF AND PUSH32 0xDDF252AD1BE2C89B69C2B068FC378DAA952BA7F163C4A11628F55A4DF523B3EF DUP4 PUSH1 0x40 MLOAD PUSH2 0x2365 SWAP2 SWAP1 PUSH2 0x25CB JUMP JUMPDEST PUSH1 0x40 MLOAD DUP1 SWAP2 SUB SWAP1 LOG3 POP POP POP JUMP JUMPDEST PUSH0 PUSH1 0x40 MLOAD SWAP1 POP SWAP1 JUMP JUMPDEST PUSH0 DUP1 REVERT JUMPDEST PUSH0 DUP1 REVERT JUMPDEST PUSH0 PUSH32 0xFFFFFFFF00000000000000000000000000000000000000000000000000000000 DUP3 AND SWAP1 POP SWAP2 SWAP1 POP JUMP JUMPDEST PUSH2 0x23B7 DUP2 PUSH2 0x2383 JUMP JUMPDEST DUP2 EQ PUSH2 0x23C1 JUMPI PUSH0 DUP1 REVERT JUMPDEST POP JUMP JUMPDEST PUSH0 DUP2 CALLDATALOAD SWAP1 POP PUSH2 0x23D2 DUP2 PUSH2 0x23AE JUMP JUMPDEST SWAP3 SWAP2 POP POP JUMP JUMPDEST PUSH0 PUSH1 0x20 DUP3 DUP5 SUB SLT ISZERO PUSH2 0x23ED JUMPI PUSH2 0x23EC PUSH2 0x237B JUMP JUMPDEST JUMPDEST PUSH0 PUSH2 0x23FA DUP5 DUP3 DUP6 ADD PUSH2 0x23C4 JUMP JUMPDEST SWAP2 POP POP SWAP3 SWAP2 POP POP JUMP JUMPDEST PUSH0 DUP2 ISZERO ISZERO SWAP1 POP SWAP2 SWAP1 POP JUMP JUMPDEST PUSH2 0x2417 DUP2 PUSH2 0x2403 JUMP JUMPDEST DUP3 MSTORE POP POP JUMP JUMPDEST PUSH0 PUSH1 0x20 DUP3 ADD SWAP1 POP PUSH2 0x2430 PUSH0 DUP4 ADD DUP5 PUSH2 0x240E JUMP JUMPDEST SWAP3 SWAP2 POP POP JUMP JUMPDEST PUSH0 DUP2 MLOAD SWAP1 POP SWAP2 SWAP1 POP JUMP JUMPDEST PUSH0 DUP3 DUP3 MSTORE PUSH1 0x20 DUP3 ADD SWAP1 POP SWAP3 SWAP2 POP POP JUMP JUMPDEST DUP3 DUP2 DUP4 MCOPY PUSH0 DUP4 DUP4 ADD MSTORE POP POP POP JUMP JUMPDEST PUSH0 PUSH1 0x1F NOT PUSH1 0x1F DUP4 ADD AND SWAP1 POP SWAP2 SWAP1 POP JUMP JUMPDEST PUSH0 PUSH2 0x2478 DUP3 PUSH2 0x2436 JUMP JUMPDEST PUSH2 0x2482 DUP2 DUP6 PUSH2 0x2440 JUMP JUMPDEST SWAP4 POP PUSH2 0x2492 DUP2 DUP6 PUSH1 0x20 DUP7 ADD PUSH2 0x2450 JUMP JUMPDEST PUSH2 0x249B DUP2 PUSH2 0x245E JUMP JUMPDEST DUP5 ADD SWAP2 POP POP SWAP3 SWAP2 POP POP JUMP JUMPDEST PUSH0 PUSH1 0x20 DUP3 ADD SWAP1 POP DUP2 DUP2 SUB PUSH0 DUP4 ADD MSTORE PUSH2 0x24BE DUP2 DUP5 PUSH2 0x246E JUMP JUMPDEST SWAP1 POP SWAP3 SWAP2 POP POP JUMP JUMPDEST PUSH0 PUSH20 0xFFFFFFFFFFFFFFFFFFFFFFFFFFFFFFFFFFFFFFFF DUP3 AND SWAP1 POP SWAP2 SWAP1 POP JUMP JUMPDEST PUSH0 PUSH2 0x24EF DUP3 PUSH2 0x24C6 JUMP JUMPDEST SWAP1 POP SWAP2 SWAP1 POP JUMP JUMPDEST PUSH2 0x24FF DUP2 PUSH2 0x24E5 JUMP JUMPDEST DUP2 EQ PUSH2 0x2509 JUMPI PUSH0 DUP1 REVERT JUMPDEST POP JUMP JUMPDEST PUSH0 DUP2 CALLDATALOAD SWAP1 POP PUSH2 0x251A DUP2 PUSH2 0x24F6 JUMP JUMPDEST SWAP3 SWAP2 POP POP JUMP JUMPDEST PUSH0 DUP2 SWAP1 POP SWAP2 SWAP1 POP JUMP JUMPDEST PUSH2 0x2532 DUP2 PUSH2 0x2520 JUMP JUMPDEST DUP2 EQ PUSH2 0x253C JUMPI PUSH0 DUP1 REVERT JUMPDEST POP JUMP JUMPDEST PUSH0 DUP2 CALLDATALOAD SWAP1 POP PUSH2 0x254D DUP2 PUSH2 0x2529 JUMP JUMPDEST SWAP3 SWAP2 POP POP JUMP JUMPDEST PUSH0 DUP1 PUSH1 0x40 DUP4 DUP6 SUB SLT ISZERO PUSH2 0x2569 JUMPI PUSH2 0x2568 PUSH2 0x237B JUMP JUMPDEST JUMPDEST PUSH0 PUSH2 0x2576 DUP6 DUP3 DUP7 ADD PUSH2 0x250C JUMP JUMPDEST SWAP3 POP POP PUSH1 0x20 PUSH2 0x2587 DUP6 DUP3 DUP7 ADD PUSH2 0x253F JUMP JUMPDEST SWAP2 POP POP SWAP3 POP SWAP3 SWAP1 POP JUMP JUMPDEST PUSH0 PUSH1 0x20 DUP3 DUP5 SUB SLT ISZERO PUSH2 0x25A6 JUMPI PUSH2 0x25A5 PUSH2 0x237B JUMP JUMPDEST JUMPDEST PUSH0 PUSH2 0x25B3 DUP5 DUP3 DUP6 ADD PUSH2 0x253F JUMP JUMPDEST SWAP2 POP POP SWAP3 SWAP2 POP POP JUMP JUMPDEST PUSH2 0x25C5 DUP2 PUSH2 0x2520 JUMP JUMPDEST DUP3 MSTORE POP POP JUMP JUMPDEST PUSH0 PUSH1 0x20 DUP3 ADD SWAP1 POP PUSH2 0x25DE PUSH0 DUP4 ADD DUP5 PUSH2 0x25BC JUMP JUMPDEST SWAP3 SWAP2 POP POP JUMP JUMPDEST PUSH0 DUP1 PUSH0 PUSH1 0x60 DUP5 DUP7 SUB SLT ISZERO PUSH2 0x25FB JUMPI PUSH2 0x25FA PUSH2 0x237B JUMP JUMPDEST JUMPDEST PUSH0 PUSH2 0x2608 DUP7 DUP3 DUP8 ADD PUSH2 0x250C JUMP JUMPDEST SWAP4 POP POP PUSH1 0x20 PUSH2 0x2619 DUP7 DUP3 DUP8 ADD PUSH2 0x250C JUMP JUMPDEST SWAP3 POP POP PUSH1 0x40 PUSH2 0x262A DUP7 DUP3 DUP8 ADD PUSH2 0x253F JUMP JUMPDEST SWAP2 POP POP SWAP3 POP SWAP3 POP SWAP3 JUMP JUMPDEST PUSH0 DUP2 SWAP1 POP SWAP2 SWAP1 POP JUMP JUMPDEST PUSH2 0x2646 DUP2 PUSH2 0x2634 JUMP JUMPDEST DUP2 EQ PUSH2 0x2650 JUMPI PUSH0 DUP1 REVERT JUMPDEST POP JUMP JUMPDEST PUSH0 DUP2 CALLDATALOAD SWAP1 POP PUSH2 0x2661 DUP2 PUSH2 0x263D JUMP JUMPDEST SWAP3 SWAP2 POP POP JUMP JUMPDEST PUSH0 PUSH1 0x20 DUP3 DUP5 SUB SLT ISZERO PUSH2 0x267C JUMPI PUSH2 0x267B PUSH2 0x237B JUMP JUMPDEST JUMPDEST PUSH0 PUSH2 0x2689 DUP5 DUP3 DUP6 ADD PUSH2 0x2653 JUMP JUMPDEST SWAP2 POP POP SWAP3 SWAP2 POP POP JUMP JUMPDEST PUSH2 0x269B DUP2 PUSH2 0x2634 JUMP JUMPDEST DUP3 MSTORE POP POP JUMP JUMPDEST PUSH0 PUSH1 0x20 DUP3 ADD SWAP1 POP PUSH2 0x26B4 PUSH0 DUP4 ADD DUP5 PUSH2 0x2692 JUMP JUMPDEST SWAP3 SWAP2 POP POP JUMP JUMPDEST PUSH0 DUP1 PUSH1 0x40 DUP4 DUP6 SUB SLT ISZERO PUSH2 0x26D0 JUMPI PUSH2 0x26CF PUSH2 0x237B JUMP JUMPDEST JUMPDEST PUSH0 PUSH2 0x26DD DUP6 DUP3 DUP7 ADD PUSH2 0x2653 JUMP JUMPDEST SWAP3 POP POP PUSH1 0x20 PUSH2 0x26EE DUP6 DUP3 DUP7 ADD PUSH2 0x250C JUMP JUMPDEST SWAP2 POP POP SWAP3 POP SWAP3 SWAP1 POP JUMP JUMPDEST PUSH0 PUSH1 0xFF DUP3 AND SWAP1 POP SWAP2 SWAP1 POP JUMP JUMPDEST PUSH2 0x270D DUP2 PUSH2 0x26F8 JUMP JUMPDEST DUP3 MSTORE POP POP JUMP JUMPDEST PUSH0 PUSH1 0x20 DUP3 ADD SWAP1 POP PUSH2 0x2726 PUSH0 DUP4 ADD DUP5 PUSH2 0x2704 JUMP JUMPDEST SWAP3 SWAP2 POP POP JUMP JUMPDEST PUSH0 PUSH1 0x20 DUP3 DUP5 SUB SLT ISZERO PUSH2 0x2741 JUMPI PUSH2 0x2740 PUSH2 0x237B JUMP JUMPDEST JUMPDEST PUSH0 PUSH2 0x274E DUP5 DUP3 DUP6 ADD PUSH2 0x250C JUMP JUMPDEST SWAP2 POP POP SWAP3 SWAP2 POP POP JUMP JUMPDEST PUSH2 0x2760 DUP2 PUSH2 0x24E5 JUMP JUMPDEST DUP3 MSTORE POP POP JUMP JUMPDEST PUSH0 PUSH1 0x20 DUP3 ADD SWAP1 POP PUSH2 0x2779 PUSH0 DUP4 ADD DUP5 PUSH2 0x2757 JUMP JUMPDEST SWAP3 SWAP2 POP POP JUMP JUMPDEST PUSH0 DUP1 REVERT JUMPDEST PUSH32 0x4E487B7100000000000000000000000000000000000000000000000000000000 PUSH0 MSTORE PUSH1 0x41 PUSH1 0x4 MSTORE PUSH1 0x24 PUSH0 REVERT JUMPDEST PUSH2 0x27B9 DUP3 PUSH2 0x245E JUMP JUMPDEST DUP2 ADD DUP2 DUP2 LT PUSH8 0xFFFFFFFFFFFFFFFF DUP3 GT OR ISZERO PUSH2 0x27D8 JUMPI PUSH2 0x27D7 PUSH2 0x2783 JUMP JUMPDEST JUMPDEST DUP1 PUSH1 0x40 MSTORE POP POP POP JUMP JUMPDEST PUSH0 PUSH2 0x27EA PUSH2 0x2372 JUMP JUMPDEST SWAP1 POP PUSH2 0x27F6 DUP3 DUP3 PUSH2 0x27B0 JUMP JUMPDEST SWAP2 SWAP1 POP JUMP JUMPDEST PUSH0 PUSH8 0xFFFFFFFFFFFFFFFF DUP3 GT ISZERO PUSH2 0x2815 JUMPI PUSH2 0x2814 PUSH2 0x2783 JUMP JUMPDEST JUMPDEST PUSH1 0x20 DUP3 MUL SWAP1 POP PUSH1 0x20 DUP2 ADD SWAP1 POP SWAP2 SWAP1 POP JUMP JUMPDEST PUSH0 DUP1 REVERT JUMPDEST PUSH0 PUSH2 0x283C PUSH2 0x2837 DUP5 PUSH2 0x27FB JUMP JUMPDEST PUSH2 0x27E1 JUMP JUMPDEST SWAP1 POP DUP1 DUP4 DUP3 MSTORE PUSH1 0x20 DUP3 ADD SWAP1 POP PUSH1 0x20 DUP5 MUL DUP4 ADD DUP6 DUP2 GT ISZERO PUSH2 0x285F JUMPI PUSH2 0x285E PUSH2 0x2826 JUMP JUMPDEST JUMPDEST DUP4 JUMPDEST DUP2 DUP2 LT ISZERO PUSH2 0x2888 JUMPI DUP1 PUSH2 0x2874 DUP9 DUP3 PUSH2 0x250C JUMP JUMPDEST DUP5 MSTORE PUSH1 0x20 DUP5 ADD SWAP4 POP POP PUSH1 0x20 DUP2 ADD SWAP1 POP PUSH2 0x2861 JUMP JUMPDEST POP POP POP SWAP4 SWAP3 POP POP POP JUMP JUMPDEST PUSH0 DUP3 PUSH1 0x1F DUP4 ADD SLT PUSH2 0x28A6 JUMPI PUSH2 0x28A5 PUSH2 0x277F JUMP JUMPDEST JUMPDEST DUP2 CALLDATALOAD PUSH2 0x28B6 DUP5 DUP3 PUSH1 0x20 DUP7 ADD PUSH2 0x282A JUMP JUMPDEST SWAP2 POP POP SWAP3 SWAP2 POP POP JUMP JUMPDEST PUSH0 PUSH8 0xFFFFFFFFFFFFFFFF DUP3 GT ISZERO PUSH2 0x28D9 JUMPI PUSH2 0x28D8 PUSH2 0x2783 JUMP JUMPDEST JUMPDEST PUSH1 0x20 DUP3 MUL SWAP1 POP PUSH1 0x20 DUP2 ADD SWAP1 POP SWAP2 SWAP1 POP JUMP JUMPDEST PUSH0 PUSH2 0x28FC PUSH2 0x28F7 DUP5 PUSH2 0x28BF JUMP JUMPDEST PUSH2 0x27E1 JUMP JUMPDEST SWAP1 POP DUP1 DUP4 DUP3 MSTORE PUSH1 0x20 DUP3 ADD SWAP1 POP PUSH1 0x20 DUP5 MUL DUP4 ADD DUP6 DUP2 GT ISZERO PUSH2 0x291F JUMPI PUSH2 0x291E PUSH2 0x2826 JUMP JUMPDEST JUMPDEST DUP4 JUMPDEST DUP2 DUP2 LT ISZERO PUSH2 0x2948 JUMPI DUP1 PUSH2 0x2934 DUP9 DUP3 PUSH2 0x253F JUMP JUMPDEST DUP5 MSTORE PUSH1 0x20 DUP5 ADD SWAP4 POP POP PUSH1 0x20 DUP2 ADD SWAP1 POP PUSH2 0x2921 JUMP JUMPDEST POP POP POP SWAP4 SWAP3 POP POP POP JUMP JUMPDEST PUSH0 DUP3 PUSH1 0x1F DUP4 ADD SLT PUSH2 0x2966 JUMPI PUSH2 0x2965 PUSH2 0x277F JUMP JUMPDEST JUMPDEST DUP2 CALLDATALOAD PUSH2 0x2976 DUP5 DUP3 PUSH1 0x20 DUP7 ADD PUSH2 0x28EA JUMP JUMPDEST SWAP2 POP POP SWAP3 SWAP2 POP POP JUMP JUMPDEST PUSH0 DUP1 PUSH1 0x40 DUP4 DUP6 SUB SLT ISZERO PUSH2 0x2995 JUMPI PUSH2 0x2994 PUSH2 0x237B JUMP JUMPDEST JUMPDEST PUSH0 DUP4 ADD CALLDATALOAD PUSH8 0xFFFFFFFFFFFFFFFF DUP2 GT ISZERO PUSH2 0x29B2 JUMPI PUSH2 0x29B1 PUSH2 0x237F JUMP JUMPDEST JUMPDEST PUSH2 0x29BE DUP6 DUP3 DUP7 ADD PUSH2 0x2892 JUMP JUMPDEST SWAP3 POP POP PUSH1 0x20 DUP4 ADD CALLDATALOAD PUSH8 0xFFFFFFFFFFFFFFFF DUP2 GT ISZERO PUSH2 0x29DF JUMPI PUSH2 0x29DE PUSH2 0x237F JUMP JUMPDEST JUMPDEST PUSH2 0x29EB DUP6 DUP3 DUP7 ADD PUSH2 0x2952 JUMP JUMPDEST SWAP2 POP POP SWAP3 POP SWAP3 SWAP1 POP JUMP JUMPDEST PUSH0 DUP1 PUSH1 0x40 DUP4 DUP6 SUB SLT ISZERO PUSH2 0x2A0B JUMPI PUSH2 0x2A0A PUSH2 0x237B JUMP JUMPDEST JUMPDEST PUSH0 PUSH2 0x2A18 DUP6 DUP3 DUP7 ADD PUSH2 0x250C JUMP JUMPDEST SWAP3 POP POP PUSH1 0x20 PUSH2 0x2A29 DUP6 DUP3 DUP7 ADD PUSH2 0x250C JUMP JUMPDEST SWAP2 POP POP SWAP3 POP SWAP3 SWAP1 POP JUMP JUMPDEST PUSH32 0x4E487B7100000000000000000000000000000000000000000000000000000000 PUSH0 MSTORE PUSH1 0x22 PUSH1 0x4 MSTORE PUSH1 0x24 PUSH0 REVERT JUMPDEST PUSH0 PUSH1 0x2 DUP3 DIV SWAP1 POP PUSH1 0x1 DUP3 AND DUP1 PUSH2 0x2A77 JUMPI PUSH1 0x7F DUP3 AND SWAP2 POP JUMPDEST PUSH1 0x20 DUP3 LT DUP2 SUB PUSH2 0x2A8A JUMPI PUSH2 0x2A89 PUSH2 0x2A33 JUMP JUMPDEST JUMPDEST POP SWAP2 SWAP1 POP JUMP JUMPDEST PUSH32 0x4E487B7100000000000000000000000000000000000000000000000000000000 PUSH0 MSTORE PUSH1 0x11 PUSH1 0x4 MSTORE PUSH1 0x24 PUSH0 REVERT JUMPDEST PUSH0 PUSH2 0x2AC7 DUP3 PUSH2 0x2520 JUMP JUMPDEST SWAP2 POP PUSH2 0x2AD2 DUP4 PUSH2 0x2520 JUMP JUMPDEST SWAP3 POP DUP3 DUP3 ADD SWAP1 POP DUP1 DUP3 GT ISZERO PUSH2 0x2AEA JUMPI PUSH2 0x2AE9 PUSH2 0x2A90 JUMP JUMPDEST JUMPDEST SWAP3 SWAP2 POP POP JUMP JUMPDEST PUSH0 DUP2 MLOAD SWAP1 POP PUSH2 0x2AFE DUP2 PUSH2 0x2529 JUMP JUMPDEST SWAP3 SWAP2 POP POP JUMP JUMPDEST PUSH0 PUSH1 0x20 DUP3 DUP5 SUB SLT ISZERO PUSH2 0x2B19 JUMPI PUSH2 0x2B18 PUSH2 0x237B JUMP JUMPDEST JUMPDEST PUSH0 PUSH2 0x2B26 DUP5 DUP3 DUP6 ADD PUSH2 0x2AF0 JUMP JUMPDEST SWAP2 POP POP SWAP3 SWAP2 POP POP JUMP JUMPDEST PUSH0 PUSH2 0x2B39 DUP3 PUSH2 0x2520 JUMP JUMPDEST SWAP2 POP PUSH2 0x2B44 DUP4 PUSH2 0x2520 JUMP JUMPDEST SWAP3 POP DUP3 DUP3 SUB SWAP1 POP DUP2 DUP2 GT ISZERO PUSH2 0x2B5C JUMPI PUSH2 0x2B5B PUSH2 0x2A90 JUMP JUMPDEST JUMPDEST SWAP3 SWAP2 POP POP JUMP JUMPDEST PUSH0 PUSH1 0x60 DUP3 ADD SWAP1 POP PUSH2 0x2B75 PUSH0 DUP4 ADD DUP7 PUSH2 0x2757 JUMP JUMPDEST PUSH2 0x2B82 PUSH1 0x20 DUP4 ADD DUP6 PUSH2 0x2757 JUMP JUMPDEST PUSH2 0x2B8F PUSH1 0x40 DUP4 ADD DUP5 PUSH2 0x25BC JUMP JUMPDEST SWAP5 SWAP4 POP POP POP POP JUMP JUMPDEST PUSH2 0x2BA0 DUP2 PUSH2 0x2403 JUMP JUMPDEST DUP2 EQ PUSH2 0x2BAA JUMPI PUSH0 DUP1 REVERT JUMPDEST POP JUMP JUMPDEST PUSH0 DUP2 MLOAD SWAP1 POP PUSH2 0x2BBB DUP2 PUSH2 0x2B97 JUMP JUMPDEST SWAP3 SWAP2 POP POP JUMP JUMPDEST PUSH0 PUSH1 0x20 DUP3 DUP5 SUB SLT ISZERO PUSH2 0x2BD6 JUMPI PUSH2 0x2BD5 PUSH2 0x237B JUMP JUMPDEST JUMPDEST PUSH0 PUSH2 0x2BE3 DUP5 DUP3 DUP6 ADD PUSH2 0x2BAD JUMP JUMPDEST SWAP2 POP POP SWAP3 SWAP2 POP POP JUMP JUMPDEST PUSH32 0x537461626C6520636F696E207472616E73666572206661696C65640000000000 PUSH0 DUP3 ADD MSTORE POP JUMP JUMPDEST PUSH0 PUSH2 0x2C20 PUSH1 0x1B DUP4 PUSH2 0x2440 JUMP JUMPDEST SWAP2 POP PUSH2 0x2C2B DUP3 PUSH2 0x2BEC JUMP JUMPDEST PUSH1 0x20 DUP3 ADD SWAP1 POP SWAP2 SWAP1 POP JUMP JUMPDEST PUSH0 PUSH1 0x20 DUP3 ADD SWAP1 POP DUP2 DUP2 SUB PUSH0 DUP4 ADD MSTORE PUSH2 0x2C4D DUP2 PUSH2 0x2C14 JUMP JUMPDEST SWAP1 POP SWAP2 SWAP1 POP JUMP JUMPDEST PUSH0 PUSH1 0x40 DUP3 ADD SWAP1 POP PUSH2 0x2C67 PUSH0 DUP4 ADD DUP6 PUSH2 0x2757 JUMP JUMPDEST PUSH2 0x2C74 PUSH1 0x20 DUP4 ADD DUP5 PUSH2 0x25BC JUMP JUMPDEST SWAP4 SWAP3 POP POP POP JUMP JUMPDEST PUSH32 0x426F6E6420746F6B656E207472616E73666572206661696C6564000000000000 PUSH0 DUP3 ADD MSTORE POP JUMP JUMPDEST PUSH0 PUSH2 0x2CAF PUSH1 0x1A DUP4 PUSH2 0x2440 JUMP JUMPDEST SWAP2 POP PUSH2 0x2CBA DUP3 PUSH2 0x2C7B JUMP JUMPDEST PUSH1 0x20 DUP3 ADD SWAP1 POP SWAP2 SWAP1 POP JUMP JUMPDEST PUSH0 PUSH1 0x20 DUP3 ADD SWAP1 POP DUP2 DUP2 SUB PUSH0 DUP4 ADD MSTORE PUSH2 0x2CDC DUP2 PUSH2 0x2CA3 JUMP JUMPDEST SWAP1 POP SWAP2 SWAP1 POP JUMP JUMPDEST PUSH32 0x43616E277420636C61696D207A65726F20636F696E7300000000000000000000 PUSH0 DUP3 ADD MSTORE POP JUMP JUMPDEST PUSH0 PUSH2 0x2D17 PUSH1 0x16 DUP4 PUSH2 0x2440 JUMP JUMPDEST SWAP2 POP PUSH2 0x2D22 DUP3 PUSH2 0x2CE3 JUMP JUMPDEST PUSH1 0x20 DUP3 ADD SWAP1 POP SWAP2 SWAP1 POP JUMP JUMPDEST PUSH0 PUSH1 0x20 DUP3 ADD SWAP1 POP DUP2 DUP2 SUB PUSH0 DUP4 ADD MSTORE PUSH2 0x2D44 DUP2 PUSH2 0x2D0B JUMP JUMPDEST SWAP1 POP SWAP2 SWAP1 POP JUMP JUMPDEST PUSH32 0x496E74657265737420746F6B656E207472616E73666572206661696C65640000 PUSH0 DUP3 ADD MSTORE POP JUMP JUMPDEST PUSH0 PUSH2 0x2D7F PUSH1 0x1E DUP4 PUSH2 0x2440 JUMP JUMPDEST SWAP2 POP PUSH2 0x2D8A DUP3 PUSH2 0x2D4B JUMP JUMPDEST PUSH1 0x20 DUP3 ADD SWAP1 POP SWAP2 SWAP1 POP JUMP JUMPDEST PUSH0 PUSH1 0x20 DUP3 ADD SWAP1 POP DUP2 DUP2 SUB PUSH0 DUP4 ADD MSTORE PUSH2 0x2DAC DUP2 PUSH2 0x2D73 JUMP JUMPDEST SWAP1 POP SWAP2 SWAP1 POP JUMP JUMPDEST PUSH32 0x537461626C6520636F696E206465706F736974206661696C65642E0000000000 PUSH0 DUP3 ADD MSTORE POP JUMP JUMPDEST PUSH0 PUSH2 0x2DE7 PUSH1 0x1B DUP4 PUSH2 0x2440 JUMP JUMPDEST SWAP2 POP PUSH2 0x2DF2 DUP3 PUSH2 0x2DB3 JUMP JUMPDEST PUSH1 0x20 DUP3 ADD SWAP1 POP SWAP2 SWAP1 POP JUMP JUMPDEST PUSH0 PUSH1 0x20 DUP3 ADD SWAP1 POP DUP2 DUP2 SUB PUSH0 DUP4 ADD MSTORE PUSH2 0x2E14 DUP2 PUSH2 0x2DDB JUMP JUMPDEST SWAP1 POP SWAP2 SWAP1 POP JUMP JUMPDEST PUSH32 0x546F6B656E20686F6C6465727320616E6420616D6F756E7473206C656E677468 PUSH0 DUP3 ADD MSTORE PUSH32 0x206D69736D617463680000000000000000000000000000000000000000000000 PUSH1 0x20 DUP3 ADD MSTORE POP JUMP JUMPDEST PUSH0 PUSH2 0x2E75 PUSH1 0x29 DUP4 PUSH2 0x2440 JUMP JUMPDEST SWAP2 POP PUSH2 0x2E80 DUP3 PUSH2 0x2E1B JUMP JUMPDEST PUSH1 0x40 DUP3 ADD SWAP1 POP SWAP2 SWAP1 POP JUMP JUMPDEST PUSH0 PUSH1 0x20 DUP3 ADD SWAP1 POP DUP2 DUP2 SUB PUSH0 DUP4 ADD MSTORE PUSH2 0x2EA2 DUP2 PUSH2 0x2E69 JUMP JUMPDEST SWAP1 POP SWAP2 SWAP1 POP JUMP JUMPDEST PUSH32 0x4E487B7100000000000000000000000000000000000000000000000000000000 PUSH0 MSTORE PUSH1 0x32 PUSH1 0x4 MSTORE PUSH1 0x24 PUSH0 REVERT JUMPDEST PUSH32 0x5472616E73666572206661696C65640000000000000000000000000000000000 PUSH0 DUP3 ADD MSTORE POP JUMP JUMPDEST PUSH0 PUSH2 0x2F0A PUSH1 0xF DUP4 PUSH2 0x2440 JUMP JUMPDEST SWAP2 POP PUSH2 0x2F15 DUP3 PUSH2 0x2ED6 JUMP JUMPDEST PUSH1 0x20 DUP3 ADD SWAP1 POP SWAP2 SWAP1 POP JUMP JUMPDEST PUSH0 PUSH1 0x20 DUP3 ADD SWAP1 POP DUP2 DUP2 SUB PUSH0 DUP4 ADD MSTORE PUSH2 0x2F37 DUP2 PUSH2 0x2EFE JUMP JUMPDEST SWAP1 POP SWAP2 SWAP1 POP JUMP JUMPDEST PUSH32 0x4D61747572697479206E6F742079657420726561636865640000000000000000 PUSH0 DUP3 ADD MSTORE POP JUMP JUMPDEST PUSH0 PUSH2 0x2F72 PUSH1 0x18 DUP4 PUSH2 0x2440 JUMP JUMPDEST SWAP2 POP PUSH2 0x2F7D DUP3 PUSH2 0x2F3E JUMP JUMPDEST PUSH1 0x20 DUP3 ADD SWAP1 POP SWAP2 SWAP1 POP JUMP JUMPDEST PUSH0 PUSH1 0x20 DUP3 ADD SWAP1 POP DUP2 DUP2 SUB PUSH0 DUP4 ADD MSTORE PUSH2 0x2F9F DUP2 PUSH2 0x2F66 JUMP JUMPDEST SWAP1 POP SWAP2 SWAP1 POP JUMP JUMPDEST PUSH32 0x4E6F20696E766573746F722066756E647320617661696C61626C652E00000000 PUSH0 DUP3 ADD MSTORE POP JUMP JUMPDEST PUSH0 PUSH2 0x2FDA PUSH1 0x1C DUP4 PUSH2 0x2440 JUMP JUMPDEST SWAP2 POP PUSH2 0x2FE5 DUP3 PUSH2 0x2FA6 JUMP JUMPDEST PUSH1 0x20 DUP3 ADD SWAP1 POP SWAP2 SWAP1 POP JUMP JUMPDEST PUSH0 PUSH1 0x20 DUP3 ADD SWAP1 POP DUP2 DUP2 SUB PUSH0 DUP4 ADD MSTORE PUSH2 0x3007 DUP2 PUSH2 0x2FCE JUMP JUMPDEST SWAP1 POP SWAP2 SWAP1 POP JUMP JUMPDEST PUSH32 0x4661696C656420746F207472616E7366657220737461626C6520636F696E7300 PUSH0 DUP3 ADD MSTORE POP JUMP JUMPDEST PUSH0 PUSH2 0x3042 PUSH1 0x1F DUP4 PUSH2 0x2440 JUMP JUMPDEST SWAP2 POP PUSH2 0x304D DUP3 PUSH2 0x300E JUMP JUMPDEST PUSH1 0x20 DUP3 ADD SWAP1 POP SWAP2 SWAP1 POP JUMP JUMPDEST PUSH0 PUSH1 0x20 DUP3 ADD SWAP1 POP DUP2 DUP2 SUB PUSH0 DUP4 ADD MSTORE PUSH2 0x306F DUP2 PUSH2 0x3036 JUMP JUMPDEST SWAP1 POP SWAP2 SWAP1 POP JUMP JUMPDEST PUSH0 PUSH1 0x60 DUP3 ADD SWAP1 POP PUSH2 0x3089 PUSH0 DUP4 ADD DUP7 PUSH2 0x2757 JUMP JUMPDEST PUSH2 0x3096 PUSH1 0x20 DUP4 ADD DUP6 PUSH2 0x25BC JUMP JUMPDEST PUSH2 0x30A3 PUSH1 0x40 DUP4 ADD DUP5 PUSH2 0x25BC JUMP JUMPDEST SWAP5 SWAP4 POP POP POP POP JUMP JUMPDEST PUSH0 PUSH1 0x40 DUP3 ADD SWAP1 POP PUSH2 0x30BE PUSH0 DUP4 ADD DUP6 PUSH2 0x2757 JUMP JUMPDEST PUSH2 0x30CB PUSH1 0x20 DUP4 ADD DUP5 PUSH2 0x2692 JUMP JUMPDEST SWAP4 SWAP3 POP POP POP JUMP INVALID LOG2 PUSH5 0x6970667358 0x22 SLT KECCAK256 BALANCE PUSH24 0x7A84CA30BD3A844251AD70984F5B055CE5CBBB5E172C1DCB SIGNEXTEND CODESIZE SAR MULMOD COINBASE 0xEA PUSH5 0x736F6C6343 STOP ADDMOD BYTE STOP CALLER PUSH1 0x80 PUSH1 0x40 MSTORE CALLVALUE DUP1 ISZERO PUSH2 0xF JUMPI PUSH0 DUP1 REVERT JUMPDEST POP PUSH1 0x40 MLOAD PUSH2 0x1854 CODESIZE SUB DUP1 PUSH2 0x1854 DUP4 CODECOPY DUP2 DUP2 ADD PUSH1 0x40 MSTORE DUP2 ADD SWAP1 PUSH2 0x31 SWAP2 SWAP1 PUSH2 0x4E6 JUMP JUMPDEST DUP2 DUP2 DUP2 PUSH1 0x3 SWAP1 DUP2 PUSH2 0x42 SWAP2 SWAP1 PUSH2 0x786 JUMP JUMPDEST POP DUP1 PUSH1 0x4 SWAP1 DUP2 PUSH2 0x52 SWAP2 SWAP1 PUSH2 0x786 JUMP JUMPDEST POP POP POP PUSH2 0x65 DUP5 DUP5 PUSH2 0x6E PUSH1 0x20 SHL PUSH1 0x20 SHR JUMP JUMPDEST POP POP POP POP PUSH2 0x93A JUMP JUMPDEST PUSH0 PUSH20 0xFFFFFFFFFFFFFFFFFFFFFFFFFFFFFFFFFFFFFFFF AND DUP3 PUSH20 0xFFFFFFFFFFFFFFFFFFFFFFFFFFFFFFFFFFFFFFFF AND SUB PUSH2 0xDE JUMPI PUSH0 PUSH1 0x40 MLOAD PUSH32 0xEC442F0500000000000000000000000000000000000000000000000000000000 DUP2 MSTORE PUSH1 0x4 ADD PUSH2 0xD5 SWAP2 SWAP1 PUSH2 0x864 JUMP JUMPDEST PUSH1 0x40 MLOAD DUP1 SWAP2 SUB SWAP1 REVERT JUMPDEST PUSH2 0xEF PUSH0 DUP4 DUP4 PUSH2 0xF3 PUSH1 0x20 SHL PUSH1 0x20 SHR JUMP JUMPDEST POP POP JUMP JUMPDEST PUSH0 PUSH20 0xFFFFFFFFFFFFFFFFFFFFFFFFFFFFFFFFFFFFFFFF AND DUP4 PUSH20 0xFFFFFFFFFFFFFFFFFFFFFFFFFFFFFFFFFFFFFFFF AND SUB PUSH2 0x143 JUMPI DUP1 PUSH1 0x2 PUSH0 DUP3 DUP3 SLOAD PUSH2 0x137 SWAP2 SWAP1 PUSH2 0x8AA JUMP JUMPDEST SWAP3 POP POP DUP2 SWAP1 SSTORE POP PUSH2 0x211 JUMP JUMPDEST PUSH0 DUP1 PUSH0 DUP6 PUSH20 0xFFFFFFFFFFFFFFFFFFFFFFFFFFFFFFFFFFFFFFFF AND PUSH20 0xFFFFFFFFFFFFFFFFFFFFFFFFFFFFFFFFFFFFFFFF AND DUP2 MSTORE PUSH1 0x20 ADD SWAP1 DUP2 MSTORE PUSH1 0x20 ADD PUSH0 KECCAK256 SLOAD SWAP1 POP DUP2 DUP2 LT ISZERO PUSH2 0x1CC JUMPI DUP4 DUP2 DUP4 PUSH1 0x40 MLOAD PUSH32 0xE450D38C00000000000000000000000000000000000000000000000000000000 DUP2 MSTORE PUSH1 0x4 ADD PUSH2 0x1C3 SWAP4 SWAP3 SWAP2 SWAP1 PUSH2 0x8EC JUMP JUMPDEST PUSH1 0x40 MLOAD DUP1 SWAP2 SUB SWAP1 REVERT JUMPDEST DUP2 DUP2 SUB PUSH0 DUP1 DUP7 PUSH20 0xFFFFFFFFFFFFFFFFFFFFFFFFFFFFFFFFFFFFFFFF AND PUSH20 0xFFFFFFFFFFFFFFFFFFFFFFFFFFFFFFFFFFFFFFFF AND DUP2 MSTORE PUSH1 0x20 ADD SWAP1 DUP2 MSTORE PUSH1 0x20 ADD PUSH0 KECCAK256 DUP2 SWAP1 SSTORE POP POP JUMPDEST PUSH0 PUSH20 0xFFFFFFFFFFFFFFFFFFFFFFFFFFFFFFFFFFFFFFFF AND DUP3 PUSH20 0xFFFFFFFFFFFFFFFFFFFFFFFFFFFFFFFFFFFFFFFF AND SUB PUSH2 0x258 JUMPI DUP1 PUSH1 0x2 PUSH0 DUP3 DUP3 SLOAD SUB SWAP3 POP POP DUP2 SWAP1 SSTORE POP PUSH2 0x2A2 JUMP JUMPDEST DUP1 PUSH0 DUP1 DUP5 PUSH20 0xFFFFFFFFFFFFFFFFFFFFFFFFFFFFFFFFFFFFFFFF AND PUSH20 0xFFFFFFFFFFFFFFFFFFFFFFFFFFFFFFFFFFFFFFFF AND DUP2 MSTORE PUSH1 0x20 ADD SWAP1 DUP2 MSTORE PUSH1 0x20 ADD PUSH0 KECCAK256 PUSH0 DUP3 DUP3 SLOAD ADD SWAP3 POP POP DUP2 SWAP1 SSTORE POP JUMPDEST DUP2 PUSH20 0xFFFFFFFFFFFFFFFFFFFFFFFFFFFFFFFFFFFFFFFF AND DUP4 PUSH20 0xFFFFFFFFFFFFFFFFFFFFFFFFFFFFFFFFFFFFFFFF AND PUSH32 0xDDF252AD1BE2C89B69C2B068FC378DAA952BA7F163C4A11628F55A4DF523B3EF DUP4 PUSH1 0x40 MLOAD PUSH2 0x2FF SWAP2 SWAP1 PUSH2 0x921 JUMP JUMPDEST PUSH1 0x40 MLOAD DUP1 SWAP2 SUB SWAP1 LOG3 POP POP POP JUMP JUMPDEST PUSH0 PUSH1 0x40 MLOAD SWAP1 POP SWAP1 JUMP JUMPDEST PUSH0 DUP1 REVERT JUMPDEST PUSH0 DUP1 REVERT JUMPDEST PUSH0 PUSH20 0xFFFFFFFFFFFFFFFFFFFFFFFFFFFFFFFFFFFFFFFF DUP3 AND SWAP1 POP SWAP2 SWAP1 POP JUMP JUMPDEST PUSH0 PUSH2 0x346 DUP3 PUSH2 0x31D JUMP JUMPDEST SWAP1 POP SWAP2 SWAP1 POP JUMP JUMPDEST PUSH2 0x356 DUP2 PUSH2 0x33C JUMP JUMPDEST DUP2 EQ PUSH2 0x360 JUMPI PUSH0 DUP1 REVERT JUMPDEST POP JUMP JUMPDEST PUSH0 DUP2 MLOAD SWAP1 POP PUSH2 0x371 DUP2 PUSH2 0x34D JUMP JUMPDEST SWAP3 SWAP2 POP POP JUMP JUMPDEST PUSH0 DUP2 SWAP1 POP SWAP2 SWAP1 POP JUMP JUMPDEST PUSH2 0x389 DUP2 PUSH2 0x377 JUMP JUMPDEST DUP2 EQ PUSH2 0x393 JUMPI PUSH0 DUP1 REVERT JUMPDEST POP JUMP JUMPDEST PUSH0 DUP2 MLOAD SWAP1 POP PUSH2 0x3A4 DUP2 PUSH2 0x380 JUMP JUMPDEST SWAP3 SWAP2 POP POP JUMP JUMPDEST PUSH0 DUP1 REVERT JUMPDEST PUSH0 DUP1 REVERT JUMPDEST PUSH0 PUSH1 0x1F NOT PUSH1 0x1F DUP4 ADD AND SWAP1 POP SWAP2 SWAP1 POP JUMP JUMPDEST PUSH32 0x4E487B7100000000000000000000000000000000000000000000000000000000 PUSH0 MSTORE PUSH1 0x41 PUSH1 0x4 MSTORE PUSH1 0x24 PUSH0 REVERT JUMPDEST PUSH2 0x3F8 DUP3 PUSH2 0x3B2 JUMP JUMPDEST DUP2 ADD DUP2 DUP2 LT PUSH8 0xFFFFFFFFFFFFFFFF DUP3 GT OR ISZERO PUSH2 0x417 JUMPI PUSH2 0x416 PUSH2 0x3C2 JUMP JUMPDEST JUMPDEST DUP1 PUSH1 0x40 MSTORE POP POP POP JUMP JUMPDEST PUSH0 PUSH2 0x429 PUSH2 0x30C JUMP JUMPDEST SWAP1 POP PUSH2 0x435 DUP3 DUP3 PUSH2 0x3EF JUMP JUMPDEST SWAP2 SWAP1 POP JUMP JUMPDEST PUSH0 PUSH8 0xFFFFFFFFFFFFFFFF DUP3 GT ISZERO PUSH2 0x454 JUMPI PUSH2 0x453 PUSH2 0x3C2 JUMP JUMPDEST JUMPDEST PUSH2 0x45D DUP3 PUSH2 0x3B2 JUMP JUMPDEST SWAP1 POP PUSH1 0x20 DUP2 ADD SWAP1 POP SWAP2 SWAP1 POP JUMP JUMPDEST DUP3 DUP2 DUP4 MCOPY PUSH0 DUP4 DUP4 ADD MSTORE POP POP POP JUMP JUMPDEST PUSH0 PUSH2 0x48A PUSH2 0x485 DUP5 PUSH2 0x43A JUMP JUMPDEST PUSH2 0x420 JUMP JUMPDEST SWAP1 POP DUP3 DUP2 MSTORE PUSH1 0x20 DUP2 ADD DUP5 DUP5 DUP5 ADD GT ISZERO PUSH2 0x4A6 JUMPI PUSH2 0x4A5 PUSH2 0x3AE JUMP JUMPDEST JUMPDEST PUSH2 0x4B1 DUP5 DUP3 DUP6 PUSH2 0x46A JUMP JUMPDEST POP SWAP4 SWAP3 POP POP POP JUMP JUMPDEST PUSH0 DUP3 PUSH1 0x1F DUP4 ADD SLT PUSH2 0x4CD JUMPI PUSH2 0x4CC PUSH2 0x3AA JUMP JUMPDEST JUMPDEST DUP2 MLOAD PUSH2 0x4DD DUP5 DUP3 PUSH1 0x20 DUP7 ADD PUSH2 0x478 JUMP JUMPDEST SWAP2 POP POP SWAP3 SWAP2 POP POP JUMP JUMPDEST PUSH0 DUP1 PUSH0 DUP1 PUSH1 0x80 DUP6 DUP8 SUB SLT ISZERO PUSH2 0x4FE JUMPI PUSH2 0x4FD PUSH2 0x315 JUMP JUMPDEST JUMPDEST PUSH0 PUSH2 0x50B DUP8 DUP3 DUP9 ADD PUSH2 0x363 JUMP JUMPDEST SWAP5 POP POP PUSH1 0x20 PUSH2 0x51C DUP8 DUP3 DUP9 ADD PUSH2 0x396 JUMP JUMPDEST SWAP4 POP POP PUSH1 0x40 DUP6 ADD MLOAD PUSH8 0xFFFFFFFFFFFFFFFF DUP2 GT ISZERO PUSH2 0x53D JUMPI PUSH2 0x53C PUSH2 0x319 JUMP JUMPDEST JUMPDEST PUSH2 0x549 DUP8 DUP3 DUP9 ADD PUSH2 0x4B9 JUMP JUMPDEST SWAP3 POP POP PUSH1 0x60 DUP6 ADD MLOAD PUSH8 0xFFFFFFFFFFFFFFFF DUP2 GT ISZERO PUSH2 0x56A JUMPI PUSH2 0x569 PUSH2 0x319 JUMP JUMPDEST JUMPDEST PUSH2 0x576 DUP8 DUP3 DUP9 ADD PUSH2 0x4B9 JUMP JUMPDEST SWAP2 POP POP SWAP3 SWAP6 SWAP2 SWAP5 POP SWAP3 POP JUMP JUMPDEST PUSH0 DUP2 MLOAD SWAP1 POP SWAP2 SWAP1 POP JUMP JUMPDEST PUSH32 0x4E487B7100000000000000000000000000000000000000000000000000000000 PUSH0 MSTORE PUSH1 0x22 PUSH1 0x4 MSTORE PUSH1 0x24 PUSH0 REVERT JUMPDEST PUSH0 PUSH1 0x2 DUP3 DIV SWAP1 POP PUSH1 0x1 DUP3 AND DUP1 PUSH2 0x5D0 JUMPI PUSH1 0x7F DUP3 AND SWAP2 POP JUMPDEST PUSH1 0x20 DUP3 LT DUP2 SUB PUSH2 0x5E3 JUMPI PUSH2 0x5E2 PUSH2 0x58C JUMP JUMPDEST JUMPDEST POP SWAP2 SWAP1 POP JUMP JUMPDEST PUSH0 DUP2 SWAP1 POP DUP2 PUSH0 MSTORE PUSH1 0x20 PUSH0 KECCAK256 SWAP1 POP SWAP2 SWAP1 POP JUMP JUMPDEST PUSH0 PUSH1 0x20 PUSH1 0x1F DUP4 ADD DIV SWAP1 POP SWAP2 SWAP1 POP JUMP JUMPDEST PUSH0 DUP3 DUP3 SHL SWAP1 POP SWAP3 SWAP2 POP POP JUMP JUMPDEST PUSH0 PUSH1 0x8 DUP4 MUL PUSH2 0x645 PUSH32 0xFFFFFFFFFFFFFFFFFFFFFFFFFFFFFFFFFFFFFFFFFFFFFFFFFFFFFFFFFFFFFFFF DUP3 PUSH2 0x60A JUMP JUMPDEST PUSH2 0x64F DUP7 DUP4 PUSH2 0x60A JUMP JUMPDEST SWAP6 POP DUP1 NOT DUP5 AND SWAP4 POP DUP1 DUP7 AND DUP5 OR SWAP3 POP POP POP SWAP4 SWAP3 POP POP POP JUMP JUMPDEST PUSH0 DUP2 SWAP1 POP SWAP2 SWAP1 POP JUMP JUMPDEST PUSH0 PUSH2 0x68A PUSH2 0x685 PUSH2 0x680 DUP5 PUSH2 0x377 JUMP JUMPDEST PUSH2 0x667 JUMP JUMPDEST PUSH2 0x377 JUMP JUMPDEST SWAP1 POP SWAP2 SWAP1 POP JUMP JUMPDEST PUSH0 DUP2 SWAP1 POP SWAP2 SWAP1 POP JUMP JUMPDEST PUSH2 0x6A3 DUP4 PUSH2 0x670 JUMP JUMPDEST PUSH2 0x6B7 PUSH2 0x6AF DUP3 PUSH2 0x691 JUMP JUMPDEST DUP5 DUP5 SLOAD PUSH2 0x616 JUMP JUMPDEST DUP3 SSTORE POP POP POP POP JUMP JUMPDEST PUSH0 SWAP1 JUMP JUMPDEST PUSH2 0x6CB PUSH2 0x6BF JUMP JUMPDEST PUSH2 0x6D6 DUP2 DUP5 DUP5 PUSH2 0x69A JUMP JUMPDEST POP POP POP JUMP JUMPDEST JUMPDEST DUP2 DUP2 LT ISZERO PUSH2 0x6F9 JUMPI PUSH2 0x6EE PUSH0 DUP3 PUSH2 0x6C3 JUMP JUMPDEST PUSH1 0x1 DUP2 ADD SWAP1 POP PUSH2 0x6DC JUMP JUMPDEST POP POP JUMP JUMPDEST PUSH1 0x1F DUP3 GT ISZERO PUSH2 0x73E JUMPI PUSH2 0x70F DUP2 PUSH2 0x5E9 JUMP JUMPDEST PUSH2 0x718 DUP5 PUSH2 0x5FB JUMP JUMPDEST DUP2 ADD PUSH1 0x20 DUP6 LT ISZERO PUSH2 0x727 JUMPI DUP2 SWAP1 POP JUMPDEST PUSH2 0x73B PUSH2 0x733 DUP6 PUSH2 0x5FB JUMP JUMPDEST DUP4 ADD DUP3 PUSH2 0x6DB JUMP JUMPDEST POP POP JUMPDEST POP POP POP JUMP JUMPDEST PUSH0 DUP3 DUP3 SHR SWAP1 POP SWAP3 SWAP2 POP POP JUMP JUMPDEST PUSH0 PUSH2 0x75E PUSH0 NOT DUP5 PUSH1 0x8 MUL PUSH2 0x743 JUMP JUMPDEST NOT DUP1 DUP4 AND SWAP2 POP POP SWAP3 SWAP2 POP POP JUMP JUMPDEST PUSH0 PUSH2 0x776 DUP4 DUP4 PUSH2 0x74F JUMP JUMPDEST SWAP2 POP DUP3 PUSH1 0x2 MUL DUP3 OR SWAP1 POP SWAP3 SWAP2 POP POP JUMP JUMPDEST PUSH2 0x78F DUP3 PUSH2 0x582 JUMP JUMPDEST PUSH8 0xFFFFFFFFFFFFFFFF DUP2 GT ISZERO PUSH2 0x7A8 JUMPI PUSH2 0x7A7 PUSH2 0x3C2 JUMP JUMPDEST JUMPDEST PUSH2 0x7B2 DUP3 SLOAD PUSH2 0x5B9 JUMP JUMPDEST PUSH2 0x7BD DUP3 DUP3 DUP6 PUSH2 0x6FD JUMP JUMPDEST PUSH0 PUSH1 0x20 SWAP1 POP PUSH1 0x1F DUP4 GT PUSH1 0x1 DUP2 EQ PUSH2 0x7EE JUMPI PUSH0 DUP5 ISZERO PUSH2 0x7DC JUMPI DUP3 DUP8 ADD MLOAD SWAP1 POP JUMPDEST PUSH2 0x7E6 DUP6 DUP3 PUSH2 0x76B JUMP JUMPDEST DUP7 SSTORE POP PUSH2 0x84D JUMP JUMPDEST PUSH1 0x1F NOT DUP5 AND PUSH2 0x7FC DUP7 PUSH2 0x5E9 JUMP JUMPDEST PUSH0 JUMPDEST DUP3 DUP2 LT ISZERO PUSH2 0x823 JUMPI DUP5 DUP10 ADD MLOAD DUP3 SSTORE PUSH1 0x1 DUP3 ADD SWAP2 POP PUSH1 0x20 DUP6 ADD SWAP5 POP PUSH1 0x20 DUP2 ADD SWAP1 POP PUSH2 0x7FE JUMP JUMPDEST DUP7 DUP4 LT ISZERO PUSH2 0x840 JUMPI DUP5 DUP10 ADD MLOAD PUSH2 0x83C PUSH1 0x1F DUP10 AND DUP3 PUSH2 0x74F JUMP JUMPDEST DUP4 SSTORE POP JUMPDEST PUSH1 0x1 PUSH1 0x2 DUP9 MUL ADD DUP9 SSTORE POP POP POP JUMPDEST POP POP POP POP POP POP JUMP JUMPDEST PUSH2 0x85E DUP2 PUSH2 0x33C JUMP JUMPDEST DUP3 MSTORE POP POP JUMP JUMPDEST PUSH0 PUSH1 0x20 DUP3 ADD SWAP1 POP PUSH2 0x877 PUSH0 DUP4 ADD DUP5 PUSH2 0x855 JUMP JUMPDEST SWAP3 SWAP2 POP POP JUMP JUMPDEST PUSH32 0x4E487B7100000000000000000000000000000000000000000000000000000000 PUSH0 MSTORE PUSH1 0x11 PUSH1 0x4 MSTORE PUSH1 0x24 PUSH0 REVERT JUMPDEST PUSH0 PUSH2 0x8B4 DUP3 PUSH2 0x377 JUMP JUMPDEST SWAP2 POP PUSH2 0x8BF DUP4 PUSH2 0x377 JUMP JUMPDEST SWAP3 POP DUP3 DUP3 ADD SWAP1 POP DUP1 DUP3 GT ISZERO PUSH2 0x8D7 JUMPI PUSH2 0x8D6 PUSH2 0x87D JUMP JUMPDEST JUMPDEST SWAP3 SWAP2 POP POP JUMP JUMPDEST PUSH2 0x8E6 DUP2 PUSH2 0x377 JUMP JUMPDEST DUP3 MSTORE POP POP JUMP JUMPDEST PUSH0 PUSH1 0x60 DUP3 ADD SWAP1 POP PUSH2 0x8FF PUSH0 DUP4 ADD DUP7 PUSH2 0x855 JUMP JUMPDEST PUSH2 0x90C PUSH1 0x20 DUP4 ADD DUP6 PUSH2 0x8DD JUMP JUMPDEST PUSH2 0x919 PUSH1 0x40 DUP4 ADD DUP5 PUSH2 0x8DD JUMP JUMPDEST SWAP5 SWAP4 POP POP POP POP JUMP JUMPDEST PUSH0 PUSH1 0x20 DUP3 ADD SWAP1 POP PUSH2 0x934 PUSH0 DUP4 ADD DUP5 PUSH2 0x8DD JUMP JUMPDEST SWAP3 SWAP2 POP POP JUMP JUMPDEST PUSH2 0xF0D DUP1 PUSH2 0x947 PUSH0 CODECOPY PUSH0 RETURN INVALID PUSH1 0x80 PUSH1 0x40 MSTORE CALLVALUE DUP1 ISZERO PUSH2 0xF JUMPI PUSH0 DUP1 REVERT JUMPDEST POP PUSH1 0x4 CALLDATASIZE LT PUSH2 0xA7 JUMPI PUSH0 CALLDATALOAD PUSH1 0xE0 SHR DUP1 PUSH4 0x42966C68 GT PUSH2 0x6F JUMPI DUP1 PUSH4 0x42966C68 EQ PUSH2 0x165 JUMPI DUP1 PUSH4 0x70A08231 EQ PUSH2 0x181 JUMPI DUP1 PUSH4 0x79CC6790 EQ PUSH2 0x1B1 JUMPI DUP1 PUSH4 0x95D89B41 EQ PUSH2 0x1CD JUMPI DUP1 PUSH4 0xA9059CBB EQ PUSH2 0x1EB JUMPI DUP1 PUSH4 0xDD62ED3E EQ PUSH2 0x21B JUMPI PUSH2 0xA7 JUMP JUMPDEST DUP1 PUSH4 0x6FDDE03 EQ PUSH2 0xAB JUMPI DUP1 PUSH4 0x95EA7B3 EQ PUSH2 0xC9 JUMPI DUP1 PUSH4 0x18160DDD EQ PUSH2 0xF9 JUMPI DUP1 PUSH4 0x23B872DD EQ PUSH2 0x117 JUMPI DUP1 PUSH4 0x313CE567 EQ PUSH2 0x147 JUMPI JUMPDEST PUSH0 DUP1 REVERT JUMPDEST PUSH2 0xB3 PUSH2 0x24B JUMP JUMPDEST PUSH1 0x40 MLOAD PUSH2 0xC0 SWAP2 SWAP1 PUSH2 0xB5B JUMP JUMPDEST PUSH1 0x40 MLOAD DUP1 SWAP2 SUB SWAP1 RETURN JUMPDEST PUSH2 0xE3 PUSH1 0x4 DUP1 CALLDATASIZE SUB DUP2 ADD SWAP1 PUSH2 0xDE SWAP2 SWAP1 PUSH2 0xC0C JUMP JUMPDEST PUSH2 0x2DB JUMP JUMPDEST PUSH1 0x40 MLOAD PUSH2 0xF0 SWAP2 SWAP1 PUSH2 0xC64 JUMP JUMPDEST PUSH1 0x40 MLOAD DUP1 SWAP2 SUB SWAP1 RETURN JUMPDEST PUSH2 0x101 PUSH2 0x2FD JUMP JUMPDEST PUSH1 0x40 MLOAD PUSH2 0x10E SWAP2 SWAP1 PUSH2 0xC8C JUMP JUMPDEST PUSH1 0x40 MLOAD DUP1 SWAP2 SUB SWAP1 RETURN JUMPDEST PUSH2 0x131 PUSH1 0x4 DUP1 CALLDATASIZE SUB DUP2 ADD SWAP1 PUSH2 0x12C SWAP2 SWAP1 PUSH2 0xCA5 JUMP JUMPDEST PUSH2 0x306 JUMP JUMPDEST PUSH1 0x40 MLOAD PUSH2 0x13E SWAP2 SWAP1 PUSH2 0xC64 JUMP JUMPDEST PUSH1 0x40 MLOAD DUP1 SWAP2 SUB SWAP1 RETURN JUMPDEST PUSH2 0x14F PUSH2 0x334 JUMP JUMPDEST PUSH1 0x40 MLOAD PUSH2 0x15C SWAP2 SWAP1 PUSH2 0xD10 JUMP JUMPDEST PUSH1 0x40 MLOAD DUP1 SWAP2 SUB SWAP1 RETURN JUMPDEST PUSH2 0x17F PUSH1 0x4 DUP1 CALLDATASIZE SUB DUP2 ADD SWAP1 PUSH2 0x17A SWAP2 SWAP1 PUSH2 0xD29 JUMP JUMPDEST PUSH2 0x33C JUMP JUMPDEST STOP JUMPDEST PUSH2 0x19B PUSH1 0x4 DUP1 CALLDATASIZE SUB DUP2 ADD SWAP1 PUSH2 0x196 SWAP2 SWAP1 PUSH2 0xD54 JUMP JUMPDEST PUSH2 0x350 JUMP JUMPDEST PUSH1 0x40 MLOAD PUSH2 0x1A8 SWAP2 SWAP1 PUSH2 0xC8C JUMP JUMPDEST PUSH1 0x40 MLOAD DUP1 SWAP2 SUB SWAP1 RETURN JUMPDEST PUSH2 0x1CB PUSH1 0x4 DUP1 CALLDATASIZE SUB DUP2 ADD SWAP1 PUSH2 0x1C6 SWAP2 SWAP1 PUSH2 0xC0C JUMP JUMPDEST PUSH2 0x395 JUMP JUMPDEST STOP JUMPDEST PUSH2 0x1D5 PUSH2 0x3B5 JUMP JUMPDEST PUSH1 0x40 MLOAD PUSH2 0x1E2 SWAP2 SWAP1 PUSH2 0xB5B JUMP JUMPDEST PUSH1 0x40 MLOAD DUP1 SWAP2 SUB SWAP1 RETURN JUMPDEST PUSH2 0x205 PUSH1 0x4 DUP1 CALLDATASIZE SUB DUP2 ADD SWAP1 PUSH2 0x200 SWAP2 SWAP1 PUSH2 0xC0C JUMP JUMPDEST PUSH2 0x445 JUMP JUMPDEST PUSH1 0x40 MLOAD PUSH2 0x212 SWAP2 SWAP1 PUSH2 0xC64 JUMP JUMPDEST PUSH1 0x40 MLOAD DUP1 SWAP2 SUB SWAP1 RETURN JUMPDEST PUSH2 0x235 PUSH1 0x4 DUP1 CALLDATASIZE SUB DUP2 ADD SWAP1 PUSH2 0x230 SWAP2 SWAP1 PUSH2 0xD7F JUMP JUMPDEST PUSH2 0x467 JUMP JUMPDEST PUSH1 0x40 MLOAD PUSH2 0x242 SWAP2 SWAP1 PUSH2 0xC8C JUMP JUMPDEST PUSH1 0x40 MLOAD DUP1 SWAP2 SUB SWAP1 RETURN JUMPDEST PUSH1 0x60 PUSH1 0x3 DUP1 SLOAD PUSH2 0x25A SWAP1 PUSH2 0xDEA JUMP JUMPDEST DUP1 PUSH1 0x1F ADD PUSH1 0x20 DUP1 SWAP2 DIV MUL PUSH1 0x20 ADD PUSH1 0x40 MLOAD SWAP1 DUP2 ADD PUSH1 0x40 MSTORE DUP1 SWAP3 SWAP2 SWAP1 DUP2 DUP2 MSTORE PUSH1 0x20 ADD DUP3 DUP1 SLOAD PUSH2 0x286 SWAP1 PUSH2 0xDEA JUMP JUMPDEST DUP1 ISZERO PUSH2 0x2D1 JUMPI DUP1 PUSH1 0x1F LT PUSH2 0x2A8 JUMPI PUSH2 0x100 DUP1 DUP4 SLOAD DIV MUL DUP4 MSTORE SWAP2 PUSH1 0x20 ADD SWAP2 PUSH2 0x2D1 JUMP JUMPDEST DUP3 ADD SWAP2 SWAP1 PUSH0 MSTORE PUSH1 0x20 PUSH0 KECCAK256 SWAP1 JUMPDEST DUP2 SLOAD DUP2 MSTORE SWAP1 PUSH1 0x1 ADD SWAP1 PUSH1 0x20 ADD DUP1 DUP4 GT PUSH2 0x2B4 JUMPI DUP3 SWAP1 SUB PUSH1 0x1F AND DUP3 ADD SWAP2 JUMPDEST POP POP POP POP POP SWAP1 POP SWAP1 JUMP JUMPDEST PUSH0 DUP1 PUSH2 0x2E5 PUSH2 0x4E9 JUMP JUMPDEST SWAP1 POP PUSH2 0x2F2 DUP2 DUP6 DUP6 PUSH2 0x4F0 JUMP JUMPDEST PUSH1 0x1 SWAP2 POP POP SWAP3 SWAP2 POP POP JUMP JUMPDEST PUSH0 PUSH1 0x2 SLOAD SWAP1 POP SWAP1 JUMP JUMPDEST PUSH0 DUP1 PUSH2 0x310 PUSH2 0x4E9 JUMP JUMPDEST SWAP1 POP PUSH2 0x31D DUP6 DUP3 DUP6 PUSH2 0x502 JUMP JUMPDEST PUSH2 0x328 DUP6 DUP6 DUP6 PUSH2 0x594 JUMP JUMPDEST PUSH1 0x1 SWAP2 POP POP SWAP4 SWAP3 POP POP POP JUMP JUMPDEST PUSH0 PUSH1 0x12 SWAP1 POP SWAP1 JUMP JUMPDEST PUSH2 0x34D PUSH2 0x347 PUSH2 0x4E9 JUMP JUMPDEST DUP3 PUSH2 0x684 JUMP JUMPDEST POP JUMP JUMPDEST PUSH0 DUP1 PUSH0 DUP4 PUSH20 0xFFFFFFFFFFFFFFFFFFFFFFFFFFFFFFFFFFFFFFFF AND PUSH20 0xFFFFFFFFFFFFFFFFFFFFFFFFFFFFFFFFFFFFFFFF AND DUP2 MSTORE PUSH1 0x20 ADD SWAP1 DUP2 MSTORE PUSH1 0x20 ADD PUSH0 KECCAK256 SLOAD SWAP1 POP SWAP2 SWAP1 POP JUMP JUMPDEST PUSH2 0x3A7 DUP3 PUSH2 0x3A1 PUSH2 0x4E9 JUMP JUMPDEST DUP4 PUSH2 0x502 JUMP JUMPDEST PUSH2 0x3B1 DUP3 DUP3 PUSH2 0x684 JUMP JUMPDEST POP POP JUMP JUMPDEST PUSH1 0x60 PUSH1 0x4 DUP1 SLOAD PUSH2 0x3C4 SWAP1 PUSH2 0xDEA JUMP JUMPDEST DUP1 PUSH1 0x1F ADD PUSH1 0x20 DUP1 SWAP2 DIV MUL PUSH1 0x20 ADD PUSH1 0x40 MLOAD SWAP1 DUP2 ADD PUSH1 0x40 MSTORE DUP1 SWAP3 SWAP2 SWAP1 DUP2 DUP2 MSTORE PUSH1 0x20 ADD DUP3 DUP1 SLOAD PUSH2 0x3F0 SWAP1 PUSH2 0xDEA JUMP JUMPDEST DUP1 ISZERO PUSH2 0x43B JUMPI DUP1 PUSH1 0x1F LT PUSH2 0x412 JUMPI PUSH2 0x100 DUP1 DUP4 SLOAD DIV MUL DUP4 MSTORE SWAP2 PUSH1 0x20 ADD SWAP2 PUSH2 0x43B JUMP JUMPDEST DUP3 ADD SWAP2 SWAP1 PUSH0 MSTORE PUSH1 0x20 PUSH0 KECCAK256 SWAP1 JUMPDEST DUP2 SLOAD DUP2 MSTORE SWAP1 PUSH1 0x1 ADD SWAP1 PUSH1 0x20 ADD DUP1 DUP4 GT PUSH2 0x41E JUMPI DUP3 SWAP1 SUB PUSH1 0x1F AND DUP3 ADD SWAP2 JUMPDEST POP POP POP POP POP SWAP1 POP SWAP1 JUMP JUMPDEST PUSH0 DUP1 PUSH2 0x44F PUSH2 0x4E9 JUMP JUMPDEST SWAP1 POP PUSH2 0x45C DUP2 DUP6 DUP6 PUSH2 0x594 JUMP JUMPDEST PUSH1 0x1 SWAP2 POP POP SWAP3 SWAP2 POP POP JUMP JUMPDEST PUSH0 PUSH1 0x1 PUSH0 DUP5 PUSH20 0xFFFFFFFFFFFFFFFFFFFFFFFFFFFFFFFFFFFFFFFF AND PUSH20 0xFFFFFFFFFFFFFFFFFFFFFFFFFFFFFFFFFFFFFFFF AND DUP2 MSTORE PUSH1 0x20 ADD SWAP1 DUP2 MSTORE PUSH1 0x20 ADD PUSH0 KECCAK256 PUSH0 DUP4 PUSH20 0xFFFFFFFFFFFFFFFFFFFFFFFFFFFFFFFFFFFFFFFF AND PUSH20 0xFFFFFFFFFFFFFFFFFFFFFFFFFFFFFFFFFFFFFFFF AND DUP2 MSTORE PUSH1 0x20 ADD SWAP1 DUP2 MSTORE PUSH1 0x20 ADD PUSH0 KECCAK256 SLOAD SWAP1 POP SWAP3 SWAP2 POP POP JUMP JUMPDEST PUSH0 CALLER SWAP1 POP SWAP1 JUMP JUMPDEST PUSH2 0x4FD DUP4 DUP4 DUP4 PUSH1 0x1 PUSH2 0x703 JUMP JUMPDEST POP POP POP JUMP JUMPDEST PUSH0 PUSH2 0x50D DUP5 DUP5 PUSH2 0x467 JUMP JUMPDEST SWAP1 POP PUSH32 0xFFFFFFFFFFFFFFFFFFFFFFFFFFFFFFFFFFFFFFFFFFFFFFFFFFFFFFFFFFFFFFFF DUP2 EQ PUSH2 0x58E JUMPI DUP2 DUP2 LT ISZERO PUSH2 0x57F JUMPI DUP3 DUP2 DUP4 PUSH1 0x40 MLOAD PUSH32 0xFB8F41B200000000000000000000000000000000000000000000000000000000 DUP2 MSTORE PUSH1 0x4 ADD PUSH2 0x576 SWAP4 SWAP3 SWAP2 SWAP1 PUSH2 0xE29 JUMP JUMPDEST PUSH1 0x40 MLOAD DUP1 SWAP2 SUB SWAP1 REVERT JUMPDEST PUSH2 0x58D DUP5 DUP5 DUP5 DUP5 SUB PUSH0 PUSH2 0x703 JUMP JUMPDEST JUMPDEST POP POP POP POP JUMP JUMPDEST PUSH0 PUSH20 0xFFFFFFFFFFFFFFFFFFFFFFFFFFFFFFFFFFFFFFFF AND DUP4 PUSH20 0xFFFFFFFFFFFFFFFFFFFFFFFFFFFFFFFFFFFFFFFF AND SUB PUSH2 0x604 JUMPI PUSH0 PUSH1 0x40 MLOAD PUSH32 0x96C6FD1E00000000000000000000000000000000000000000000000000000000 DUP2 MSTORE PUSH1 0x4 ADD PUSH2 0x5FB SWAP2 SWAP1 PUSH2 0xE5E JUMP JUMPDEST PUSH1 0x40 MLOAD DUP1 SWAP2 SUB SWAP1 REVERT JUMPDEST PUSH0 PUSH20 0xFFFFFFFFFFFFFFFFFFFFFFFFFFFFFFFFFFFFFFFF AND DUP3 PUSH20 0xFFFFFFFFFFFFFFFFFFFFFFFFFFFFFFFFFFFFFFFF AND SUB PUSH2 0x674 JUMPI PUSH0 PUSH1 0x40 MLOAD PUSH32 0xEC442F0500000000000000000000000000000000000000000000000000000000 DUP2 MSTORE PUSH1 0x4 ADD PUSH2 0x66B SWAP2 SWAP1 PUSH2 0xE5E JUMP JUMPDEST PUSH1 0x40 MLOAD DUP1 SWAP2 SUB SWAP1 REVERT JUMPDEST PUSH2 0x67F DUP4 DUP4 DUP4 PUSH2 0x8D2 JUMP JUMPDEST POP POP POP JUMP JUMPDEST PUSH0 PUSH20 0xFFFFFFFFFFFFFFFFFFFFFFFFFFFFFFFFFFFFFFFF AND DUP3 PUSH20 0xFFFFFFFFFFFFFFFFFFFFFFFFFFFFFFFFFFFFFFFF AND SUB PUSH2 0x6F4 JUMPI PUSH0 PUSH1 0x40 MLOAD PUSH32 0x96C6FD1E00000000000000000000000000000000000000000000000000000000 DUP2 MSTORE PUSH1 0x4 ADD PUSH2 0x6EB SWAP2 SWAP1 PUSH2 0xE5E JUMP JUMPDEST PUSH1 0x40 MLOAD DUP1 SWAP2 SUB SWAP1 REVERT JUMPDEST PUSH2 0x6FF DUP3 PUSH0 DUP4 PUSH2 0x8D2 JUMP JUMPDEST POP POP JUMP JUMPDEST PUSH0 PUSH20 0xFFFFFFFFFFFFFFFFFFFFFFFFFFFFFFFFFFFFFFFF AND DUP5 PUSH20 0xFFFFFFFFFFFFFFFFFFFFFFFFFFFFFFFFFFFFFFFF AND SUB PUSH2 0x773 JUMPI PUSH0 PUSH1 0x40 MLOAD PUSH32 0xE602DF0500000000000000000000000000000000000000000000000000000000 DUP2 MSTORE PUSH1 0x4 ADD PUSH2 0x76A SWAP2 SWAP1 PUSH2 0xE5E JUMP JUMPDEST PUSH1 0x40 MLOAD DUP1 SWAP2 SUB SWAP1 REVERT JUMPDEST PUSH0 PUSH20 0xFFFFFFFFFFFFFFFFFFFFFFFFFFFFFFFFFFFFFFFF AND DUP4 PUSH20 0xFFFFFFFFFFFFFFFFFFFFFFFFFFFFFFFFFFFFFFFF AND SUB PUSH2 0x7E3 JUMPI PUSH0 PUSH1 0x40 MLOAD PUSH32 0x94280D6200000000000000000000000000000000000000000000000000000000 DUP2 MSTORE PUSH1 0x4 ADD PUSH2 0x7DA SWAP2 SWAP1 PUSH2 0xE5E JUMP JUMPDEST PUSH1 0x40 MLOAD DUP1 SWAP2 SUB SWAP1 REVERT JUMPDEST DUP2 PUSH1 0x1 PUSH0 DUP7 PUSH20 0xFFFFFFFFFFFFFFFFFFFFFFFFFFFFFFFFFFFFFFFF AND PUSH20 0xFFFFFFFFFFFFFFFFFFFFFFFFFFFFFFFFFFFFFFFF AND DUP2 MSTORE PUSH1 0x20 ADD SWAP1 DUP2 MSTORE PUSH1 0x20 ADD PUSH0 KECCAK256 PUSH0 DUP6 PUSH20 0xFFFFFFFFFFFFFFFFFFFFFFFFFFFFFFFFFFFFFFFF AND PUSH20 0xFFFFFFFFFFFFFFFFFFFFFFFFFFFFFFFFFFFFFFFF AND DUP2 MSTORE PUSH1 0x20 ADD SWAP1 DUP2 MSTORE PUSH1 0x20 ADD PUSH0 KECCAK256 DUP2 SWAP1 SSTORE POP DUP1 ISZERO PUSH2 0x8CC JUMPI DUP3 PUSH20 0xFFFFFFFFFFFFFFFFFFFFFFFFFFFFFFFFFFFFFFFF AND DUP5 PUSH20 0xFFFFFFFFFFFFFFFFFFFFFFFFFFFFFFFFFFFFFFFF AND PUSH32 0x8C5BE1E5EBEC7D5BD14F71427D1E84F3DD0314C0F7B2291E5B200AC8C7C3B925 DUP5 PUSH1 0x40 MLOAD PUSH2 0x8C3 SWAP2 SWAP1 PUSH2 0xC8C JUMP JUMPDEST PUSH1 0x40 MLOAD DUP1 SWAP2 SUB SWAP1 LOG3 JUMPDEST POP POP POP POP JUMP JUMPDEST PUSH0 PUSH20 0xFFFFFFFFFFFFFFFFFFFFFFFFFFFFFFFFFFFFFFFF AND DUP4 PUSH20 0xFFFFFFFFFFFFFFFFFFFFFFFFFFFFFFFFFFFFFFFF AND SUB PUSH2 0x922 JUMPI DUP1 PUSH1 0x2 PUSH0 DUP3 DUP3 SLOAD PUSH2 0x916 SWAP2 SWAP1 PUSH2 0xEA4 JUMP JUMPDEST SWAP3 POP POP DUP2 SWAP1 SSTORE POP PUSH2 0x9F0 JUMP JUMPDEST PUSH0 DUP1 PUSH0 DUP6 PUSH20 0xFFFFFFFFFFFFFFFFFFFFFFFFFFFFFFFFFFFFFFFF AND PUSH20 0xFFFFFFFFFFFFFFFFFFFFFFFFFFFFFFFFFFFFFFFF AND DUP2 MSTORE PUSH1 0x20 ADD SWAP1 DUP2 MSTORE PUSH1 0x20 ADD PUSH0 KECCAK256 SLOAD SWAP1 POP DUP2 DUP2 LT ISZERO PUSH2 0x9AB JUMPI DUP4 DUP2 DUP4 PUSH1 0x40 MLOAD PUSH32 0xE450D38C00000000000000000000000000000000000000000000000000000000 DUP2 MSTORE PUSH1 0x4 ADD PUSH2 0x9A2 SWAP4 SWAP3 SWAP2 SWAP1 PUSH2 0xE29 JUMP JUMPDEST PUSH1 0x40 MLOAD DUP1 SWAP2 SUB SWAP1 REVERT JUMPDEST DUP2 DUP2 SUB PUSH0 DUP1 DUP7 PUSH20 0xFFFFFFFFFFFFFFFFFFFFFFFFFFFFFFFFFFFFFFFF AND PUSH20 0xFFFFFFFFFFFFFFFFFFFFFFFFFFFFFFFFFFFFFFFF AND DUP2 MSTORE PUSH1 0x20 ADD SWAP1 DUP2 MSTORE PUSH1 0x20 ADD PUSH0 KECCAK256 DUP2 SWAP1 SSTORE POP POP JUMPDEST PUSH0 PUSH20 0xFFFFFFFFFFFFFFFFFFFFFFFFFFFFFFFFFFFFFFFF AND DUP3 PUSH20 0xFFFFFFFFFFFFFFFFFFFFFFFFFFFFFFFFFFFFFFFF AND SUB PUSH2 0xA37 JUMPI DUP1 PUSH1 0x2 PUSH0 DUP3 DUP3 SLOAD SUB SWAP3 POP POP DUP2 SWAP1 SSTORE POP PUSH2 0xA81 JUMP JUMPDEST DUP1 PUSH0 DUP1 DUP5 PUSH20 0xFFFFFFFFFFFFFFFFFFFFFFFFFFFFFFFFFFFFFFFF AND PUSH20 0xFFFFFFFFFFFFFFFFFFFFFFFFFFFFFFFFFFFFFFFF AND DUP2 MSTORE PUSH1 0x20 ADD SWAP1 DUP2 MSTORE PUSH1 0x20 ADD PUSH0 KECCAK256 PUSH0 DUP3 DUP3 SLOAD ADD SWAP3 POP POP DUP2 SWAP1 SSTORE POP JUMPDEST DUP2 PUSH20 0xFFFFFFFFFFFFFFFFFFFFFFFFFFFFFFFFFFFFFFFF AND DUP4 PUSH20 0xFFFFFFFFFFFFFFFFFFFFFFFFFFFFFFFFFFFFFFFF AND PUSH32 0xDDF252AD1BE2C89B69C2B068FC378DAA952BA7F163C4A11628F55A4DF523B3EF DUP4 PUSH1 0x40 MLOAD PUSH2 0xADE SWAP2 SWAP1 PUSH2 0xC8C JUMP JUMPDEST PUSH1 0x40 MLOAD DUP1 SWAP2 SUB SWAP1 LOG3 POP POP POP JUMP JUMPDEST PUSH0 DUP2 MLOAD SWAP1 POP SWAP2 SWAP1 POP JUMP JUMPDEST PUSH0 DUP3 DUP3 MSTORE PUSH1 0x20 DUP3 ADD SWAP1 POP SWAP3 SWAP2 POP POP JUMP JUMPDEST DUP3 DUP2 DUP4 MCOPY PUSH0 DUP4 DUP4 ADD MSTORE POP POP POP JUMP JUMPDEST PUSH0 PUSH1 0x1F NOT PUSH1 0x1F DUP4 ADD AND SWAP1 POP SWAP2 SWAP1 POP JUMP JUMPDEST PUSH0 PUSH2 0xB2D DUP3 PUSH2 0xAEB JUMP JUMPDEST PUSH2 0xB37 DUP2 DUP6 PUSH2 0xAF5 JUMP JUMPDEST SWAP4 POP PUSH2 0xB47 DUP2 DUP6 PUSH1 0x20 DUP7 ADD PUSH2 0xB05 JUMP JUMPDEST PUSH2 0xB50 DUP2 PUSH2 0xB13 JUMP JUMPDEST DUP5 ADD SWAP2 POP POP SWAP3 SWAP2 POP POP JUMP JUMPDEST PUSH0 PUSH1 0x20 DUP3 ADD SWAP1 POP DUP2 DUP2 SUB PUSH0 DUP4 ADD MSTORE PUSH2 0xB73 DUP2 DUP5 PUSH2 0xB23 JUMP JUMPDEST SWAP1 POP SWAP3 SWAP2 POP POP JUMP JUMPDEST PUSH0 DUP1 REVERT JUMPDEST PUSH0 PUSH20 0xFFFFFFFFFFFFFFFFFFFFFFFFFFFFFFFFFFFFFFFF DUP3 AND SWAP1 POP SWAP2 SWAP1 POP JUMP JUMPDEST PUSH0 PUSH2 0xBA8 DUP3 PUSH2 0xB7F JUMP JUMPDEST SWAP1 POP SWAP2 SWAP1 POP JUMP JUMPDEST PUSH2 0xBB8 DUP2 PUSH2 0xB9E JUMP JUMPDEST DUP2 EQ PUSH2 0xBC2 JUMPI PUSH0 DUP1 REVERT JUMPDEST POP JUMP JUMPDEST PUSH0 DUP2 CALLDATALOAD SWAP1 POP PUSH2 0xBD3 DUP2 PUSH2 0xBAF JUMP JUMPDEST SWAP3 SWAP2 POP POP JUMP JUMPDEST PUSH0 DUP2 SWAP1 POP SWAP2 SWAP1 POP JUMP JUMPDEST PUSH2 0xBEB DUP2 PUSH2 0xBD9 JUMP JUMPDEST DUP2 EQ PUSH2 0xBF5 JUMPI PUSH0 DUP1 REVERT JUMPDEST POP JUMP JUMPDEST PUSH0 DUP2 CALLDATALOAD SWAP1 POP PUSH2 0xC06 DUP2 PUSH2 0xBE2 JUMP JUMPDEST SWAP3 SWAP2 POP POP JUMP JUMPDEST PUSH0 DUP1 PUSH1 0x40 DUP4 DUP6 SUB SLT ISZERO PUSH2 0xC22 JUMPI PUSH2 0xC21 PUSH2 0xB7B JUMP JUMPDEST JUMPDEST PUSH0 PUSH2 0xC2F DUP6 DUP3 DUP7 ADD PUSH2 0xBC5 JUMP JUMPDEST SWAP3 POP POP PUSH1 0x20 PUSH2 0xC40 DUP6 DUP3 DUP7 ADD PUSH2 0xBF8 JUMP JUMPDEST SWAP2 POP POP SWAP3 POP SWAP3 SWAP1 POP JUMP JUMPDEST PUSH0 DUP2 ISZERO ISZERO SWAP1 POP SWAP2 SWAP1 POP JUMP JUMPDEST PUSH2 0xC5E DUP2 PUSH2 0xC4A JUMP JUMPDEST DUP3 MSTORE POP POP JUMP JUMPDEST PUSH0 PUSH1 0x20 DUP3 ADD SWAP1 POP PUSH2 0xC77 PUSH0 DUP4 ADD DUP5 PUSH2 0xC55 JUMP JUMPDEST SWAP3 SWAP2 POP POP JUMP JUMPDEST PUSH2 0xC86 DUP2 PUSH2 0xBD9 JUMP JUMPDEST DUP3 MSTORE POP POP JUMP JUMPDEST PUSH0 PUSH1 0x20 DUP3 ADD SWAP1 POP PUSH2 0xC9F PUSH0 DUP4 ADD DUP5 PUSH2 0xC7D JUMP JUMPDEST SWAP3 SWAP2 POP POP JUMP JUMPDEST PUSH0 DUP1 PUSH0 PUSH1 0x60 DUP5 DUP7 SUB SLT ISZERO PUSH2 0xCBC JUMPI PUSH2 0xCBB PUSH2 0xB7B JUMP JUMPDEST JUMPDEST PUSH0 PUSH2 0xCC9 DUP7 DUP3 DUP8 ADD PUSH2 0xBC5 JUMP JUMPDEST SWAP4 POP POP PUSH1 0x20 PUSH2 0xCDA DUP7 DUP3 DUP8 ADD PUSH2 0xBC5 JUMP JUMPDEST SWAP3 POP POP PUSH1 0x40 PUSH2 0xCEB DUP7 DUP3 DUP8 ADD PUSH2 0xBF8 JUMP JUMPDEST SWAP2 POP POP SWAP3 POP SWAP3 POP SWAP3 JUMP JUMPDEST PUSH0 PUSH1 0xFF DUP3 AND SWAP1 POP SWAP2 SWAP1 POP JUMP JUMPDEST PUSH2 0xD0A DUP2 PUSH2 0xCF5 JUMP JUMPDEST DUP3 MSTORE POP POP JUMP JUMPDEST PUSH0 PUSH1 0x20 DUP3 ADD SWAP1 POP PUSH2 0xD23 PUSH0 DUP4 ADD DUP5 PUSH2 0xD01 JUMP JUMPDEST SWAP3 SWAP2 POP POP JUMP JUMPDEST PUSH0 PUSH1 0x20 DUP3 DUP5 SUB SLT ISZERO PUSH2 0xD3E JUMPI PUSH2 0xD3D PUSH2 0xB7B JUMP JUMPDEST JUMPDEST PUSH0 PUSH2 0xD4B DUP5 DUP3 DUP6 ADD PUSH2 0xBF8 JUMP JUMPDEST SWAP2 POP POP SWAP3 SWAP2 POP POP JUMP JUMPDEST PUSH0 PUSH1 0x20 DUP3 DUP5 SUB SLT ISZERO PUSH2 0xD69 JUMPI PUSH2 0xD68 PUSH2 0xB7B JUMP JUMPDEST JUMPDEST PUSH0 PUSH2 0xD76 DUP5 DUP3 DUP6 ADD PUSH2 0xBC5 JUMP JUMPDEST SWAP2 POP POP SWAP3 SWAP2 POP POP JUMP JUMPDEST PUSH0 DUP1 PUSH1 0x40 DUP4 DUP6 SUB SLT ISZERO PUSH2 0xD95 JUMPI PUSH2 0xD94 PUSH2 0xB7B JUMP JUMPDEST JUMPDEST PUSH0 PUSH2 0xDA2 DUP6 DUP3 DUP7 ADD PUSH2 0xBC5 JUMP JUMPDEST SWAP3 POP POP PUSH1 0x20 PUSH2 0xDB3 DUP6 DUP3 DUP7 ADD PUSH2 0xBC5 JUMP JUMPDEST SWAP2 POP POP SWAP3 POP SWAP3 SWAP1 POP JUMP JUMPDEST PUSH32 0x4E487B7100000000000000000000000000000000000000000000000000000000 PUSH0 MSTORE PUSH1 0x22 PUSH1 0x4 MSTORE PUSH1 0x24 PUSH0 REVERT JUMPDEST PUSH0 PUSH1 0x2 DUP3 DIV SWAP1 POP PUSH1 0x1 DUP3 AND DUP1 PUSH2 0xE01 JUMPI PUSH1 0x7F DUP3 AND SWAP2 POP JUMPDEST PUSH1 0x20 DUP3 LT DUP2 SUB PUSH2 0xE14 JUMPI PUSH2 0xE13 PUSH2 0xDBD JUMP JUMPDEST JUMPDEST POP SWAP2 SWAP1 POP JUMP JUMPDEST PUSH2 0xE23 DUP2 PUSH2 0xB9E JUMP JUMPDEST DUP3 MSTORE POP POP JUMP JUMPDEST PUSH0 PUSH1 0x60 DUP3 ADD SWAP1 POP PUSH2 0xE3C PUSH0 DUP4 ADD DUP7 PUSH2 0xE1A JUMP JUMPDEST PUSH2 0xE49 PUSH1 0x20 DUP4 ADD DUP6 PUSH2 0xC7D JUMP JUMPDEST PUSH2 0xE56 PUSH1 0x40 DUP4 ADD DUP5 PUSH2 0xC7D JUMP JUMPDEST SWAP5 SWAP4 POP POP POP POP JUMP JUMPDEST PUSH0 PUSH1 0x20 DUP3 ADD SWAP1 POP PUSH2 0xE71 PUSH0 DUP4 ADD DUP5 PUSH2 0xE1A JUMP JUMPDEST SWAP3 SWAP2 POP POP JUMP JUMPDEST PUSH32 0x4E487B7100000000000000000000000000000000000000000000000000000000 PUSH0 MSTORE PUSH1 0x11 PUSH1 0x4 MSTORE PUSH1 0x24 PUSH0 REVERT JUMPDEST PUSH0 PUSH2 0xEAE DUP3 PUSH2 0xBD9 JUMP JUMPDEST SWAP2 POP PUSH2 0xEB9 DUP4 PUSH2 0xBD9 JUMP JUMPDEST SWAP3 POP DUP3 DUP3 ADD SWAP1 POP DUP1 DUP3 GT ISZERO PUSH2 0xED1 JUMPI PUSH2 0xED0 PUSH2 0xE77 JUMP JUMPDEST JUMPDEST SWAP3 SWAP2 POP POP JUMP INVALID LOG2 PUSH5 0x6970667358 0x22 SLT KECCAK256 EXTCODEHASH PUSH5 0x9D6B5E36AB TLOAD DUP5 0xCF MOD EXP SWAP6 0xAC CALLDATALOAD 0xC5 0xE RETURNDATACOPY PUSH16 0xD0A17325B28EA92115C158137264736F PUSH13 0x634300081A0033000000000000 "
		},
		"gasEstimates": {
			"creation": {
				"codeDepositCost": "2510400",
				"executionCost": "infinite",
				"totalCost": "infinite"
			},
			"external": {
				"ADMIN()": "437",
				"BOND_ISSUER()": "435",
				"DEFAULT_ADMIN_ROLE()": "419",
				"allowance(address,address)": "infinite",
				"approve(address,uint256)": "infinite",
				"balanceOf(address)": "2940",
				"buyBond(uint256)": "infinite",
				"claimFaceValue(uint256)": "infinite",
				"claimInterest(uint256)": "infinite",
				"claimInvestorFunds()": "infinite",
				"decimals()": "428",
				"depositPayment(uint256)": "infinite",
				"distributeInterest(address,uint256)": "infinite",
				"distributeInterestAll(address[],uint256[])": "infinite",
				"getRoleAdmin(bytes32)": "infinite",
				"grantRole(bytes32,address)": "infinite",
				"hasRole(bytes32,address)": "3234",
				"interestToken()": "infinite",
				"investorFundsAmount()": "2470",
				"maturityDate()": "infinite",
				"name()": "infinite",
				"pause()": "infinite",
				"paused()": "2540",
				"renounceRole(bytes32,address)": "infinite",
				"revokeRole(bytes32,address)": "infinite",
				"showBondTokens()": "infinite",
				"showInterestTokens()": "infinite",
				"showStableCoins()": "infinite",
				"stableCoin()": "infinite",
				"supportsInterface(bytes4)": "764",
				"symbol()": "infinite",
				"totalSupply()": "2478",
				"transfer(address,uint256)": "infinite",
				"transferFrom(address,address,uint256)": "infinite",
				"unpause()": "infinite"
			},
			"internal": {
				"_update(address,address,uint256)": "infinite"
			}
		},
		"methodIdentifiers": {
			"ADMIN()": "2a0acc6a",
			"BOND_ISSUER()": "e091a39b",
			"DEFAULT_ADMIN_ROLE()": "a217fddf",
			"allowance(address,address)": "dd62ed3e",
			"approve(address,uint256)": "095ea7b3",
			"balanceOf(address)": "70a08231",
			"buyBond(uint256)": "10002dbd",
			"claimFaceValue(uint256)": "ca19c11c",
			"claimInterest(uint256)": "2eb375ea",
			"claimInvestorFunds()": "ced0550f",
			"decimals()": "313ce567",
			"depositPayment(uint256)": "6b749c47",
			"distributeInterest(address,uint256)": "f57d283e",
			"distributeInterestAll(address[],uint256[])": "904835c4",
			"getRoleAdmin(bytes32)": "248a9ca3",
			"grantRole(bytes32,address)": "2f2ff15d",
			"hasRole(bytes32,address)": "91d14854",
			"interestToken()": "764b666c",
			"investorFundsAmount()": "c94c4705",
			"maturityDate()": "d59624b4",
			"name()": "06fdde03",
			"pause()": "8456cb59",
			"paused()": "5c975abb",
			"renounceRole(bytes32,address)": "36568abe",
			"revokeRole(bytes32,address)": "d547741f",
			"showBondTokens()": "86d71654",
			"showInterestTokens()": "ce4120da",
			"showStableCoins()": "acd17a99",
			"stableCoin()": "992642e5",
			"supportsInterface(bytes4)": "01ffc9a7",
			"symbol()": "95d89b41",
			"totalSupply()": "18160ddd",
			"transfer(address,uint256)": "a9059cbb",
			"transferFrom(address,address,uint256)": "23b872dd",
			"unpause()": "3f4ba83a"
		}
	},
	"abi": [
		{
			"inputs": [
				{
					"internalType": "address",
					"name": "administrator",
					"type": "address"
				},
				{
					"internalType": "address",
					"name": "bondIssuer",
					"type": "address"
				},
				{
					"internalType": "address",
					"name": "_stableCoin",
					"type": "address"
				},
				{
					"internalType": "uint256",
					"name": "_faceValue",
					"type": "uint256"
				},
				{
					"internalType": "uint256",
					"name": "_maturityDate",
					"type": "uint256"
				},
				{
					"internalType": "uint256",
					"name": "_totalInterest",
					"type": "uint256"
				}
			],
			"stateMutability": "nonpayable",
			"type": "constructor"
		},
		{
			"inputs": [],
			"name": "AccessControlBadConfirmation",
			"type": "error"
		},
		{
			"inputs": [
				{
					"internalType": "address",
					"name": "account",
					"type": "address"
				},
				{
					"internalType": "bytes32",
					"name": "neededRole",
					"type": "bytes32"
				}
			],
			"name": "AccessControlUnauthorizedAccount",
			"type": "error"
		},
		{
			"inputs": [
				{
					"internalType": "address",
					"name": "spender",
					"type": "address"
				},
				{
					"internalType": "uint256",
					"name": "allowance",
					"type": "uint256"
				},
				{
					"internalType": "uint256",
					"name": "needed",
					"type": "uint256"
				}
			],
			"name": "ERC20InsufficientAllowance",
			"type": "error"
		},
		{
			"inputs": [
				{
					"internalType": "address",
					"name": "sender",
					"type": "address"
				},
				{
					"internalType": "uint256",
					"name": "balance",
					"type": "uint256"
				},
				{
					"internalType": "uint256",
					"name": "needed",
					"type": "uint256"
				}
			],
			"name": "ERC20InsufficientBalance",
			"type": "error"
		},
		{
			"inputs": [
				{
					"internalType": "address",
					"name": "approver",
					"type": "address"
				}
			],
			"name": "ERC20InvalidApprover",
			"type": "error"
		},
		{
			"inputs": [
				{
					"internalType": "address",
					"name": "receiver",
					"type": "address"
				}
			],
			"name": "ERC20InvalidReceiver",
			"type": "error"
		},
		{
			"inputs": [
				{
					"internalType": "address",
					"name": "sender",
					"type": "address"
				}
			],
			"name": "ERC20InvalidSender",
			"type": "error"
		},
		{
			"inputs": [
				{
					"internalType": "address",
					"name": "spender",
					"type": "address"
				}
			],
			"name": "ERC20InvalidSpender",
			"type": "error"
		},
		{
			"inputs": [],
			"name": "EnforcedPause",
			"type": "error"
		},
		{
			"inputs": [],
			"name": "ExpectedPause",
			"type": "error"
		},
		{
			"anonymous": false,
			"inputs": [
				{
					"indexed": true,
					"internalType": "address",
					"name": "owner",
					"type": "address"
				},
				{
					"indexed": true,
					"internalType": "address",
					"name": "spender",
					"type": "address"
				},
				{
					"indexed": false,
					"internalType": "uint256",
					"name": "value",
					"type": "uint256"
				}
			],
			"name": "Approval",
			"type": "event"
		},
		{
			"anonymous": false,
			"inputs": [
				{
					"indexed": false,
					"internalType": "address",
					"name": "account",
					"type": "address"
				}
			],
			"name": "Paused",
			"type": "event"
		},
		{
			"anonymous": false,
			"inputs": [
				{
					"indexed": true,
					"internalType": "bytes32",
					"name": "role",
					"type": "bytes32"
				},
				{
					"indexed": true,
					"internalType": "bytes32",
					"name": "previousAdminRole",
					"type": "bytes32"
				},
				{
					"indexed": true,
					"internalType": "bytes32",
					"name": "newAdminRole",
					"type": "bytes32"
				}
			],
			"name": "RoleAdminChanged",
			"type": "event"
		},
		{
			"anonymous": false,
			"inputs": [
				{
					"indexed": true,
					"internalType": "bytes32",
					"name": "role",
					"type": "bytes32"
				},
				{
					"indexed": true,
					"internalType": "address",
					"name": "account",
					"type": "address"
				},
				{
					"indexed": true,
					"internalType": "address",
					"name": "sender",
					"type": "address"
				}
			],
			"name": "RoleGranted",
			"type": "event"
		},
		{
			"anonymous": false,
			"inputs": [
				{
					"indexed": true,
					"internalType": "bytes32",
					"name": "role",
					"type": "bytes32"
				},
				{
					"indexed": true,
					"internalType": "address",
					"name": "account",
					"type": "address"
				},
				{
					"indexed": true,
					"internalType": "address",
					"name": "sender",
					"type": "address"
				}
			],
			"name": "RoleRevoked",
			"type": "event"
		},
		{
			"anonymous": false,
			"inputs": [
				{
					"indexed": true,
					"internalType": "address",
					"name": "from",
					"type": "address"
				},
				{
					"indexed": true,
					"internalType": "address",
					"name": "to",
					"type": "address"
				},
				{
					"indexed": false,
					"internalType": "uint256",
					"name": "value",
					"type": "uint256"
				}
			],
			"name": "Transfer",
			"type": "event"
		},
		{
			"anonymous": false,
			"inputs": [
				{
					"indexed": false,
					"internalType": "address",
					"name": "account",
					"type": "address"
				}
			],
			"name": "Unpaused",
			"type": "event"
		},
		{
			"inputs": [],
			"name": "ADMIN",
			"outputs": [
				{
					"internalType": "bytes32",
					"name": "",
					"type": "bytes32"
				}
			],
			"stateMutability": "view",
			"type": "function"
		},
		{
			"inputs": [],
			"name": "BOND_ISSUER",
			"outputs": [
				{
					"internalType": "bytes32",
					"name": "",
					"type": "bytes32"
				}
			],
			"stateMutability": "view",
			"type": "function"
		},
		{
			"inputs": [],
			"name": "DEFAULT_ADMIN_ROLE",
			"outputs": [
				{
					"internalType": "bytes32",
					"name": "",
					"type": "bytes32"
				}
			],
			"stateMutability": "view",
			"type": "function"
		},
		{
			"inputs": [
				{
					"internalType": "address",
					"name": "owner",
					"type": "address"
				},
				{
					"internalType": "address",
					"name": "spender",
					"type": "address"
				}
			],
			"name": "allowance",
			"outputs": [
				{
					"internalType": "uint256",
					"name": "",
					"type": "uint256"
				}
			],
			"stateMutability": "view",
			"type": "function"
		},
		{
			"inputs": [
				{
					"internalType": "address",
					"name": "spender",
					"type": "address"
				},
				{
					"internalType": "uint256",
					"name": "value",
					"type": "uint256"
				}
			],
			"name": "approve",
			"outputs": [
				{
					"internalType": "bool",
					"name": "",
					"type": "bool"
				}
			],
			"stateMutability": "nonpayable",
			"type": "function"
		},
		{
			"inputs": [
				{
					"internalType": "address",
					"name": "account",
					"type": "address"
				}
			],
			"name": "balanceOf",
			"outputs": [
				{
					"internalType": "uint256",
					"name": "",
					"type": "uint256"
				}
			],
			"stateMutability": "view",
			"type": "function"
		},
		{
			"inputs": [
				{
					"internalType": "uint256",
					"name": "amountTokens",
					"type": "uint256"
				}
			],
			"name": "buyBond",
			"outputs": [],
			"stateMutability": "nonpayable",
			"type": "function"
		},
		{
			"inputs": [
				{
					"internalType": "uint256",
					"name": "amountTokens",
					"type": "uint256"
				}
			],
			"name": "claimFaceValue",
			"outputs": [],
			"stateMutability": "nonpayable",
			"type": "function"
		},
		{
			"inputs": [
				{
					"internalType": "uint256",
					"name": "amountTokens",
					"type": "uint256"
				}
			],
			"name": "claimInterest",
			"outputs": [],
			"stateMutability": "nonpayable",
			"type": "function"
		},
		{
			"inputs": [],
			"name": "claimInvestorFunds",
			"outputs": [],
			"stateMutability": "nonpayable",
			"type": "function"
		},
		{
			"inputs": [],
			"name": "decimals",
			"outputs": [
				{
					"internalType": "uint8",
					"name": "",
					"type": "uint8"
				}
			],
			"stateMutability": "view",
			"type": "function"
		},
		{
			"inputs": [
				{
					"internalType": "uint256",
					"name": "amountTokens",
					"type": "uint256"
				}
			],
			"name": "depositPayment",
			"outputs": [],
			"stateMutability": "nonpayable",
			"type": "function"
		},
		{
			"inputs": [
				{
					"internalType": "address",
					"name": "tokenHolder",
					"type": "address"
				},
				{
					"internalType": "uint256",
					"name": "amount",
					"type": "uint256"
				}
			],
			"name": "distributeInterest",
			"outputs": [],
			"stateMutability": "nonpayable",
			"type": "function"
		},
		{
			"inputs": [
				{
					"internalType": "address[]",
					"name": "tokenHolders",
					"type": "address[]"
				},
				{
					"internalType": "uint256[]",
					"name": "amounts",
					"type": "uint256[]"
				}
			],
			"name": "distributeInterestAll",
			"outputs": [],
			"stateMutability": "nonpayable",
			"type": "function"
		},
		{
			"inputs": [
				{
					"internalType": "bytes32",
					"name": "role",
					"type": "bytes32"
				}
			],
			"name": "getRoleAdmin",
			"outputs": [
				{
					"internalType": "bytes32",
					"name": "",
					"type": "bytes32"
				}
			],
			"stateMutability": "view",
			"type": "function"
		},
		{
			"inputs": [
				{
					"internalType": "bytes32",
					"name": "role",
					"type": "bytes32"
				},
				{
					"internalType": "address",
					"name": "account",
					"type": "address"
				}
			],
			"name": "grantRole",
			"outputs": [],
			"stateMutability": "nonpayable",
			"type": "function"
		},
		{
			"inputs": [
				{
					"internalType": "bytes32",
					"name": "role",
					"type": "bytes32"
				},
				{
					"internalType": "address",
					"name": "account",
					"type": "address"
				}
			],
			"name": "hasRole",
			"outputs": [
				{
					"internalType": "bool",
					"name": "",
					"type": "bool"
				}
			],
			"stateMutability": "view",
			"type": "function"
		},
		{
			"inputs": [],
			"name": "interestToken",
			"outputs": [
				{
					"internalType": "address",
					"name": "",
					"type": "address"
				}
			],
			"stateMutability": "view",
			"type": "function"
		},
		{
			"inputs": [],
			"name": "investorFundsAmount",
			"outputs": [
				{
					"internalType": "uint256",
					"name": "",
					"type": "uint256"
				}
			],
			"stateMutability": "view",
			"type": "function"
		},
		{
			"inputs": [],
			"name": "maturityDate",
			"outputs": [
				{
					"internalType": "uint256",
					"name": "",
					"type": "uint256"
				}
			],
			"stateMutability": "view",
			"type": "function"
		},
		{
			"inputs": [],
			"name": "name",
			"outputs": [
				{
					"internalType": "string",
					"name": "",
					"type": "string"
				}
			],
			"stateMutability": "view",
			"type": "function"
		},
		{
			"inputs": [],
			"name": "pause",
			"outputs": [],
			"stateMutability": "nonpayable",
			"type": "function"
		},
		{
			"inputs": [],
			"name": "paused",
			"outputs": [
				{
					"internalType": "bool",
					"name": "",
					"type": "bool"
				}
			],
			"stateMutability": "view",
			"type": "function"
		},
		{
			"inputs": [
				{
					"internalType": "bytes32",
					"name": "role",
					"type": "bytes32"
				},
				{
					"internalType": "address",
					"name": "callerConfirmation",
					"type": "address"
				}
			],
			"name": "renounceRole",
			"outputs": [],
			"stateMutability": "nonpayable",
			"type": "function"
		},
		{
			"inputs": [
				{
					"internalType": "bytes32",
					"name": "role",
					"type": "bytes32"
				},
				{
					"internalType": "address",
					"name": "account",
					"type": "address"
				}
			],
			"name": "revokeRole",
			"outputs": [],
			"stateMutability": "nonpayable",
			"type": "function"
		},
		{
			"inputs": [],
			"name": "showBondTokens",
			"outputs": [
				{
					"internalType": "uint256",
					"name": "",
					"type": "uint256"
				}
			],
			"stateMutability": "view",
			"type": "function"
		},
		{
			"inputs": [],
			"name": "showInterestTokens",
			"outputs": [
				{
					"internalType": "uint256",
					"name": "",
					"type": "uint256"
				}
			],
			"stateMutability": "view",
			"type": "function"
		},
		{
			"inputs": [],
			"name": "showStableCoins",
			"outputs": [
				{
					"internalType": "uint256",
					"name": "",
					"type": "uint256"
				}
			],
			"stateMutability": "view",
			"type": "function"
		},
		{
			"inputs": [],
			"name": "stableCoin",
			"outputs": [
				{
					"internalType": "address",
					"name": "",
					"type": "address"
				}
			],
			"stateMutability": "view",
			"type": "function"
		},
		{
			"inputs": [
				{
					"internalType": "bytes4",
					"name": "interfaceId",
					"type": "bytes4"
				}
			],
			"name": "supportsInterface",
			"outputs": [
				{
					"internalType": "bool",
					"name": "",
					"type": "bool"
				}
			],
			"stateMutability": "view",
			"type": "function"
		},
		{
			"inputs": [],
			"name": "symbol",
			"outputs": [
				{
					"internalType": "string",
					"name": "",
					"type": "string"
				}
			],
			"stateMutability": "view",
			"type": "function"
		},
		{
			"inputs": [],
			"name": "totalSupply",
			"outputs": [
				{
					"internalType": "uint256",
					"name": "",
					"type": "uint256"
				}
			],
			"stateMutability": "view",
			"type": "function"
		},
		{
			"inputs": [
				{
					"internalType": "address",
					"name": "to",
					"type": "address"
				},
				{
					"internalType": "uint256",
					"name": "value",
					"type": "uint256"
				}
			],
			"name": "transfer",
			"outputs": [
				{
					"internalType": "bool",
					"name": "",
					"type": "bool"
				}
			],
			"stateMutability": "nonpayable",
			"type": "function"
		},
		{
			"inputs": [
				{
					"internalType": "address",
					"name": "from",
					"type": "address"
				},
				{
					"internalType": "address",
					"name": "to",
					"type": "address"
				},
				{
					"internalType": "uint256",
					"name": "value",
					"type": "uint256"
				}
			],
			"name": "transferFrom",
			"outputs": [
				{
					"internalType": "bool",
					"name": "",
					"type": "bool"
				}
			],
			"stateMutability": "nonpayable",
			"type": "function"
		},
		{
			"inputs": [],
			"name": "unpause",
			"outputs": [],
			"stateMutability": "nonpayable",
			"type": "function"
		}
	]
}