{
	"data": {
		"bytecode": {
			"linkReferences": {},
			"object": "60e060405234801561000f575f80fd5b5060405161388038038061388083398181016040528101906100319190610725565b6040518060400160405280601581526020017f426f6e4465466920546f6b656e205369656d656e7300000000000000000000008152506040518060400160405280600681526020017f42445349454d000000000000000000000000000000000000000000000000000081525081600390816100ac9190610a1a565b5080600490816100bc9190610a1a565b5050505f60055f6101000a81548160ff0219169083151502179055506101087fdf8b4c520ffe197c5343c6f5aec59570151ef9a492f2c624fd45ddde6135ec428a6101f760201b60201c565b506101397ff877234297ef562d54f0328f892acfc1d6c1e44ca89f02e3a2c2a4736f6095b7896101f760201b60201c565b508673ffffffffffffffffffffffffffffffffffffffff1660808173ffffffffffffffffffffffffffffffffffffffff16815250508573ffffffffffffffffffffffffffffffffffffffff1660a08173ffffffffffffffffffffffffffffffffffffffff16815250508060c081815250506101e9336101bc6102ed60201b60201c565b600a6101c89190610c51565b83886101d49190610cc8565b6101de9190610cf8565b6102f560201b60201c565b505050505050505050610df1565b5f610208838361037a60201b60201c565b6102e357600160065f8581526020019081526020015f205f015f8473ffffffffffffffffffffffffffffffffffffffff1673ffffffffffffffffffffffffffffffffffffffff1681526020019081526020015f205f6101000a81548160ff0219169083151502179055506102806103de60201b60201c565b73ffffffffffffffffffffffffffffffffffffffff168273ffffffffffffffffffffffffffffffffffffffff16847f2f8788117e7eff1d82e926ec794901d17c78024a50270940304540a733656f0d60405160405180910390a4600190506102e7565b5f90505b92915050565b5f6012905090565b5f73ffffffffffffffffffffffffffffffffffffffff168273ffffffffffffffffffffffffffffffffffffffff1603610365575f6040517fec442f0500000000000000000000000000000000000000000000000000000000815260040161035c9190610d48565b60405180910390fd5b6103765f83836103e560201b60201c565b5050565b5f60065f8481526020019081526020015f205f015f8373ffffffffffffffffffffffffffffffffffffffff1673ffffffffffffffffffffffffffffffffffffffff1681526020019081526020015f205f9054906101000a900460ff16905092915050565b5f33905090565b6103f68383836103fb60201b60201c565b505050565b61040961041f60201b60201c565b61041a83838361046660201b60201c565b505050565b61042d61067f60201b60201c565b15610464576040517fd93c066500000000000000000000000000000000000000000000000000000000815260040160405180910390fd5b565b5f73ffffffffffffffffffffffffffffffffffffffff168373ffffffffffffffffffffffffffffffffffffffff16036104b6578060025f8282546104aa9190610d61565b92505081905550610584565b5f805f8573ffffffffffffffffffffffffffffffffffffffff1673ffffffffffffffffffffffffffffffffffffffff1681526020019081526020015f205490508181101561053f578381836040517fe450d38c00000000000000000000000000000000000000000000000000000000815260040161053693929190610da3565b60405180910390fd5b8181035f808673ffffffffffffffffffffffffffffffffffffffff1673ffffffffffffffffffffffffffffffffffffffff1681526020019081526020015f2081905550505b5f73ffffffffffffffffffffffffffffffffffffffff168273ffffffffffffffffffffffffffffffffffffffff16036105cb578060025f8282540392505081905550610615565b805f808473ffffffffffffffffffffffffffffffffffffffff1673ffffffffffffffffffffffffffffffffffffffff1681526020019081526020015f205f82825401925050819055505b8173ffffffffffffffffffffffffffffffffffffffff168373ffffffffffffffffffffffffffffffffffffffff167fddf252ad1be2c89b69c2b068fc378daa952ba7f163c4a11628f55a4df523b3ef836040516106729190610dd8565b60405180910390a3505050565b5f60055f9054906101000a900460ff16905090565b5f80fd5b5f73ffffffffffffffffffffffffffffffffffffffff82169050919050565b5f6106c182610698565b9050919050565b6106d1816106b7565b81146106db575f80fd5b50565b5f815190506106ec816106c8565b92915050565b5f819050919050565b610704816106f2565b811461070e575f80fd5b50565b5f8151905061071f816106fb565b92915050565b5f805f805f805f805f6101208a8c03121561074357610742610694565b5b5f6107508c828d016106de565b99505060206107618c828d016106de565b98505060406107728c828d016106de565b97505060606107838c828d016106de565b96505060806107948c828d01610711565b95505060a06107a58c828d01610711565b94505060c06107b68c828d01610711565b93505060e06107c78c828d01610711565b9250506101006107d98c828d01610711565b9150509295985092959850929598565b5f81519050919050565b7f4e487b71000000000000000000000000000000000000000000000000000000005f52604160045260245ffd5b7f4e487b71000000000000000000000000000000000000000000000000000000005f52602260045260245ffd5b5f600282049050600182168061086457607f821691505b60208210810361087757610876610820565b5b50919050565b5f819050815f5260205f209050919050565b5f6020601f8301049050919050565b5f82821b905092915050565b5f600883026108d97fffffffffffffffffffffffffffffffffffffffffffffffffffffffffffffffff8261089e565b6108e3868361089e565b95508019841693508086168417925050509392505050565b5f819050919050565b5f61091e610919610914846106f2565b6108fb565b6106f2565b9050919050565b5f819050919050565b61093783610904565b61094b61094382610925565b8484546108aa565b825550505050565b5f90565b61095f610953565b61096a81848461092e565b505050565b5b8181101561098d576109825f82610957565b600181019050610970565b5050565b601f8211156109d2576109a38161087d565b6109ac8461088f565b810160208510156109bb578190505b6109cf6109c78561088f565b83018261096f565b50505b505050565b5f82821c905092915050565b5f6109f25f19846008026109d7565b1980831691505092915050565b5f610a0a83836109e3565b9150826002028217905092915050565b610a23826107e9565b67ffffffffffffffff811115610a3c57610a3b6107f3565b5b610a46825461084d565b610a51828285610991565b5f60209050601f831160018114610a82575f8415610a70578287015190505b610a7a85826109ff565b865550610ae1565b601f198416610a908661087d565b5f5b82811015610ab757848901518255600182019150602085019450602081019050610a92565b86831015610ad45784890151610ad0601f8916826109e3565b8355505b6001600288020188555050505b505050505050565b7f4e487b71000000000000000000000000000000000000000000000000000000005f52601160045260245ffd5b5f8160011c9050919050565b5f808291508390505b6001851115610b6b57808604811115610b4757610b46610ae9565b5b6001851615610b565780820291505b8081029050610b6485610b16565b9450610b2b565b94509492505050565b5f82610b835760019050610c3e565b81610b90575f9050610c3e565b8160018114610ba65760028114610bb057610bdf565b6001915050610c3e565b60ff841115610bc257610bc1610ae9565b5b8360020a915084821115610bd957610bd8610ae9565b5b50610c3e565b5060208310610133831016604e8410600b8410161715610c145782820a905083811115610c0f57610c0e610ae9565b5b610c3e565b610c218484846001610b22565b92509050818404811115610c3857610c37610ae9565b5b81810290505b9392505050565b5f60ff82169050919050565b5f610c5b826106f2565b9150610c6683610c45565b9250610c937fffffffffffffffffffffffffffffffffffffffffffffffffffffffffffffffff8484610b74565b905092915050565b7f4e487b71000000000000000000000000000000000000000000000000000000005f52601260045260245ffd5b5f610cd2826106f2565b9150610cdd836106f2565b925082610ced57610cec610c9b565b5b828204905092915050565b5f610d02826106f2565b9150610d0d836106f2565b9250828202610d1b816106f2565b91508282048414831517610d3257610d31610ae9565b5b5092915050565b610d42816106b7565b82525050565b5f602082019050610d5b5f830184610d39565b92915050565b5f610d6b826106f2565b9150610d76836106f2565b9250828201905080821115610d8e57610d8d610ae9565b5b92915050565b610d9d816106f2565b82525050565b5f606082019050610db65f830186610d39565b610dc36020830185610d94565b610dd06040830184610d94565b949350505050565b5f602082019050610deb5f830184610d94565b92915050565b60805160a05160c051612a2d610e535f395f818161073601528181610dad0152610f0c01525f8181610b4a01528181611264015281816112b201526112ee01525f81816106f801528181610d6101528181610ecf01526110020152612a2d5ff3fe608060405234801561000f575f80fd5b50600436106101e3575f3560e01c806379cc67901161010d578063a920260b116100a0578063dd62ed3e1161006f578063dd62ed3e14610543578063e091a39b14610573578063ec8eba1414610591578063f57d283e146105af576101e3565b8063a920260b146104e3578063ca19c11c14610501578063ced0550f1461051d578063d547741f14610527576101e3565b806395d89b41116100dc57806395d89b4114610459578063992642e514610477578063a217fddf14610495578063a9059cbb146104b3576101e3565b806379cc6790146103e75780638456cb5914610403578063904835c41461040d57806391d1485414610429576101e3565b80632a0acc6a116101855780633f4ba83a116101545780633f4ba83a1461037357806342966c681461037d5780635c975abb1461039957806370a08231146103b7576101e3565b80632a0acc6a146102ff5780632f2ff15d1461031d578063313ce5671461033957806336568abe14610357576101e3565b806310002dbd116101c157806310002dbd1461026557806318160ddd1461028157806323b872dd1461029f578063248a9ca3146102cf576101e3565b806301ffc9a7146101e757806306fdde0314610217578063095ea7b314610235575b5f80fd5b61020160048036038101906101fc9190611e27565b6105cb565b60405161020e9190611e6c565b60405180910390f35b61021f610644565b60405161022c9190611ef5565b60405180910390f35b61024f600480360381019061024a9190611fa2565b6106d4565b60405161025c9190611e6c565b60405180910390f35b61027f600480360381019061027a9190611fe0565b6106f6565b005b6102896108ba565b604051610296919061201a565b60405180910390f35b6102b960048036038101906102b49190612033565b6108c3565b6040516102c69190611e6c565b60405180910390f35b6102e960048036038101906102e491906120b6565b6108f1565b6040516102f691906120f0565b60405180910390f35b61030761090e565b60405161031491906120f0565b60405180910390f35b61033760048036038101906103329190612109565b610932565b005b610341610954565b60405161034e9190612162565b60405180910390f35b610371600480360381019061036c9190612109565b61095c565b005b61037b6109d7565b005b61039760048036038101906103929190611fe0565b610a0c565b005b6103a1610a20565b6040516103ae9190611e6c565b60405180910390f35b6103d160048036038101906103cc919061217b565b610a35565b6040516103de919061201a565b60405180910390f35b61040160048036038101906103fc9190611fa2565b610a7a565b005b61040b610a9a565b005b610427600480360381019061042291906123a6565b610acf565b005b610443600480360381019061043e9190612109565b610c6b565b6040516104509190611e6c565b60405180910390f35b610461610ccf565b60405161046e9190611ef5565b60405180910390f35b61047f610d5f565b60405161048c919061242b565b60405180910390f35b61049d610d83565b6040516104aa91906120f0565b60405180910390f35b6104cd60048036038101906104c89190611fa2565b610d89565b6040516104da9190611e6c565b60405180910390f35b6104eb610dab565b6040516104f8919061201a565b60405180910390f35b61051b60048036038101906105169190611fe0565b610dcf565b005b610525610fd5565b005b610541600480360381019061053c9190612109565b61119a565b005b61055d60048036038101906105589190612444565b6111bc565b60405161056a919061201a565b60405180910390f35b61057b61123e565b60405161058891906120f0565b60405180910390f35b610599611262565b6040516105a6919061242b565b60405180910390f35b6105c960048036038101906105c49190611fa2565b611286565b005b5f7f7965db0b000000000000000000000000000000000000000000000000000000007bffffffffffffffffffffffffffffffffffffffffffffffffffffffff1916827bffffffffffffffffffffffffffffffffffffffffffffffffffffffff1916148061063d575061063c826113b1565b5b9050919050565b606060038054610653906124af565b80601f016020809104026020016040519081016040528092919081815260200182805461067f906124af565b80156106ca5780601f106106a1576101008083540402835291602001916106ca565b820191905f5260205f20905b8154815290600101906020018083116106ad57829003601f168201915b5050505050905090565b5f806106de61141a565b90506106eb818585611421565b600191505092915050565b7f000000000000000000000000000000000000000000000000000000000000000073ffffffffffffffffffffffffffffffffffffffff166323b872dd33307f000000000000000000000000000000000000000000000000000000000000000085610760919061250c565b6040518463ffffffff1660e01b815260040161077e9392919061254d565b6020604051808303815f875af115801561079a573d5f803e3d5ffd5b505050506040513d601f19601f820116820180604052508101906107be91906125ac565b6107fd576040517f08c379a00000000000000000000000000000000000000000000000000000000081526004016107f490612621565b60405180910390fd5b3073ffffffffffffffffffffffffffffffffffffffff1663a9059cbb33836040518363ffffffff1660e01b815260040161083892919061263f565b6020604051808303815f875af1158015610854573d5f803e3d5ffd5b505050506040513d601f19601f8201168201806040525081019061087891906125ac565b6108b7576040517f08c379a00000000000000000000000000000000000000000000000000000000081526004016108ae906126b0565b60405180910390fd5b50565b5f600254905090565b5f806108cd61141a565b90506108da858285611433565b6108e58585856114c5565b60019150509392505050565b5f60065f8381526020019081526020015f20600101549050919050565b7fdf8b4c520ffe197c5343c6f5aec59570151ef9a492f2c624fd45ddde6135ec4281565b61093b826108f1565b610944816115b5565b61094e83836115c9565b50505050565b5f6012905090565b61096461141a565b73ffffffffffffffffffffffffffffffffffffffff168173ffffffffffffffffffffffffffffffffffffffff16146109c8576040517f6697b23200000000000000000000000000000000000000000000000000000000815260040160405180910390fd5b6109d282826116b3565b505050565b7fdf8b4c520ffe197c5343c6f5aec59570151ef9a492f2c624fd45ddde6135ec42610a01816115b5565b610a0961179d565b50565b610a1d610a1761141a565b826117fe565b50565b5f60055f9054906101000a900460ff16905090565b5f805f8373ffffffffffffffffffffffffffffffffffffffff1673ffffffffffffffffffffffffffffffffffffffff1681526020019081526020015f20549050919050565b610a8c82610a8661141a565b83611433565b610a9682826117fe565b5050565b7fdf8b4c520ffe197c5343c6f5aec59570151ef9a492f2c624fd45ddde6135ec42610ac4816115b5565b610acc61187d565b50565b7fdf8b4c520ffe197c5343c6f5aec59570151ef9a492f2c624fd45ddde6135ec42610af9816115b5565b8151835114610b3d576040517f08c379a0000000000000000000000000000000000000000000000000000000008152600401610b349061273e565b60405180910390fd5b5f5b8351811015610c65577f000000000000000000000000000000000000000000000000000000000000000073ffffffffffffffffffffffffffffffffffffffff166323b872dd33868481518110610b9857610b9761275c565b5b6020026020010151868581518110610bb357610bb261275c565b5b60200260200101516040518463ffffffff1660e01b8152600401610bd99392919061254d565b6020604051808303815f875af1158015610bf5573d5f803e3d5ffd5b505050506040513d601f19601f82011682018060405250810190610c1991906125ac565b610c58576040517f08c379a0000000000000000000000000000000000000000000000000000000008152600401610c4f906127d3565b60405180910390fd5b8080600101915050610b3f565b50505050565b5f60065f8481526020019081526020015f205f015f8373ffffffffffffffffffffffffffffffffffffffff1673ffffffffffffffffffffffffffffffffffffffff1681526020019081526020015f205f9054906101000a900460ff16905092915050565b606060048054610cde906124af565b80601f0160208091040260200160405190810160405280929190818152602001828054610d0a906124af565b8015610d555780601f10610d2c57610100808354040283529160200191610d55565b820191905f5260205f20905b815481529060010190602001808311610d3857829003601f168201915b5050505050905090565b7f000000000000000000000000000000000000000000000000000000000000000081565b5f801b81565b5f80610d9361141a565b9050610da08185856114c5565b600191505092915050565b7f000000000000000000000000000000000000000000000000000000000000000081565b5f8111610e11576040517f08c379a0000000000000000000000000000000000000000000000000000000008152600401610e089061283b565b60405180910390fd5b3073ffffffffffffffffffffffffffffffffffffffff166323b872dd3330846040518463ffffffff1660e01b8152600401610e4e9392919061254d565b6020604051808303815f875af1158015610e6a573d5f803e3d5ffd5b505050506040513d601f19601f82011682018060405250810190610e8e91906125ac565b610ecd576040517f08c379a0000000000000000000000000000000000000000000000000000000008152600401610ec4906126b0565b60405180910390fd5b7f000000000000000000000000000000000000000000000000000000000000000073ffffffffffffffffffffffffffffffffffffffff1663a9059cbb337f000000000000000000000000000000000000000000000000000000000000000084610f36919061250c565b6040518363ffffffff1660e01b8152600401610f5392919061263f565b6020604051808303815f875af1158015610f6f573d5f803e3d5ffd5b505050506040513d601f19601f82011682018060405250810190610f9391906125ac565b610fd2576040517f08c379a0000000000000000000000000000000000000000000000000000000008152600401610fc9906126b0565b60405180910390fd5b50565b7ff877234297ef562d54f0328f892acfc1d6c1e44ca89f02e3a2c2a4736f6095b7610fff816115b5565b5f7f000000000000000000000000000000000000000000000000000000000000000073ffffffffffffffffffffffffffffffffffffffff166370a08231306040518263ffffffff1660e01b8152600401611059919061242b565b602060405180830381865afa158015611074573d5f803e3d5ffd5b505050506040513d601f19601f82011682018060405250810190611098919061286d565b90505f81116110dc576040517f08c379a00000000000000000000000000000000000000000000000000000000081526004016110d3906128e2565b60405180910390fd5b3073ffffffffffffffffffffffffffffffffffffffff1663a9059cbb33836040518363ffffffff1660e01b815260040161111792919061263f565b6020604051808303815f875af1158015611133573d5f803e3d5ffd5b505050506040513d601f19601f8201168201806040525081019061115791906125ac565b611196576040517f08c379a000000000000000000000000000000000000000000000000000000000815260040161118d9061294a565b60405180910390fd5b5050565b6111a3826108f1565b6111ac816115b5565b6111b683836116b3565b50505050565b5f60015f8473ffffffffffffffffffffffffffffffffffffffff1673ffffffffffffffffffffffffffffffffffffffff1681526020019081526020015f205f8373ffffffffffffffffffffffffffffffffffffffff1673ffffffffffffffffffffffffffffffffffffffff1681526020019081526020015f2054905092915050565b7ff877234297ef562d54f0328f892acfc1d6c1e44ca89f02e3a2c2a4736f6095b781565b7f000000000000000000000000000000000000000000000000000000000000000081565b7fdf8b4c520ffe197c5343c6f5aec59570151ef9a492f2c624fd45ddde6135ec426112b0816115b5565b7f000000000000000000000000000000000000000000000000000000000000000073ffffffffffffffffffffffffffffffffffffffff166323b872dd7f000000000000000000000000000000000000000000000000000000000000000085856040518463ffffffff1660e01b815260040161132d9392919061254d565b6020604051808303815f875af1158015611349573d5f803e3d5ffd5b505050506040513d601f19601f8201168201806040525081019061136d91906125ac565b6113ac576040517f08c379a00000000000000000000000000000000000000000000000000000000081526004016113a3906127d3565b60405180910390fd5b505050565b5f7f01ffc9a7000000000000000000000000000000000000000000000000000000007bffffffffffffffffffffffffffffffffffffffffffffffffffffffff1916827bffffffffffffffffffffffffffffffffffffffffffffffffffffffff1916149050919050565b5f33905090565b61142e83838360016118df565b505050565b5f61143e84846111bc565b90507fffffffffffffffffffffffffffffffffffffffffffffffffffffffffffffffff81146114bf57818110156114b0578281836040517ffb8f41b20000000000000000000000000000000000000000000000000000000081526004016114a793929190612968565b60405180910390fd5b6114be84848484035f6118df565b5b50505050565b5f73ffffffffffffffffffffffffffffffffffffffff168373ffffffffffffffffffffffffffffffffffffffff1603611535575f6040517f96c6fd1e00000000000000000000000000000000000000000000000000000000815260040161152c919061242b565b60405180910390fd5b5f73ffffffffffffffffffffffffffffffffffffffff168273ffffffffffffffffffffffffffffffffffffffff16036115a5575f6040517fec442f0500000000000000000000000000000000000000000000000000000000815260040161159c919061242b565b60405180910390fd5b6115b0838383611aae565b505050565b6115c6816115c161141a565b611abe565b50565b5f6115d48383610c6b565b6116a957600160065f8581526020019081526020015f205f015f8473ffffffffffffffffffffffffffffffffffffffff1673ffffffffffffffffffffffffffffffffffffffff1681526020019081526020015f205f6101000a81548160ff02191690831515021790555061164661141a565b73ffffffffffffffffffffffffffffffffffffffff168273ffffffffffffffffffffffffffffffffffffffff16847f2f8788117e7eff1d82e926ec794901d17c78024a50270940304540a733656f0d60405160405180910390a4600190506116ad565b5f90505b92915050565b5f6116be8383610c6b565b15611793575f60065f8581526020019081526020015f205f015f8473ffffffffffffffffffffffffffffffffffffffff1673ffffffffffffffffffffffffffffffffffffffff1681526020019081526020015f205f6101000a81548160ff02191690831515021790555061173061141a565b73ffffffffffffffffffffffffffffffffffffffff168273ffffffffffffffffffffffffffffffffffffffff16847ff6391f5c32d9c69d2a47ea670b442974b53935d1edc7fd64eb21e047a839171b60405160405180910390a460019050611797565b5f90505b92915050565b6117a5611b0f565b5f60055f6101000a81548160ff0219169083151502179055507f5db9ee0a495bf2e6ff9c91a7834c1ba4fdd244a5e8aa4e537bd38aeae4b073aa6117e761141a565b6040516117f4919061242b565b60405180910390a1565b5f73ffffffffffffffffffffffffffffffffffffffff168273ffffffffffffffffffffffffffffffffffffffff160361186e575f6040517f96c6fd1e000000000000000000000000000000000000000000000000000000008152600401611865919061242b565b60405180910390fd5b611879825f83611aae565b5050565b611885611b4f565b600160055f6101000a81548160ff0219169083151502179055507f62e78cea01bee320cd4e420270b5ea74000d11b0c9f74754ebdbfc544b05a2586118c861141a565b6040516118d5919061242b565b60405180910390a1565b5f73ffffffffffffffffffffffffffffffffffffffff168473ffffffffffffffffffffffffffffffffffffffff160361194f575f6040517fe602df05000000000000000000000000000000000000000000000000000000008152600401611946919061242b565b60405180910390fd5b5f73ffffffffffffffffffffffffffffffffffffffff168373ffffffffffffffffffffffffffffffffffffffff16036119bf575f6040517f94280d620000000000000000000000000000000000000000000000000000000081526004016119b6919061242b565b60405180910390fd5b8160015f8673ffffffffffffffffffffffffffffffffffffffff1673ffffffffffffffffffffffffffffffffffffffff1681526020019081526020015f205f8573ffffffffffffffffffffffffffffffffffffffff1673ffffffffffffffffffffffffffffffffffffffff1681526020019081526020015f20819055508015611aa8578273ffffffffffffffffffffffffffffffffffffffff168473ffffffffffffffffffffffffffffffffffffffff167f8c5be1e5ebec7d5bd14f71427d1e84f3dd0314c0f7b2291e5b200ac8c7c3b92584604051611a9f919061201a565b60405180910390a35b50505050565b611ab9838383611b90565b505050565b611ac88282610c6b565b611b0b5780826040517fe2517d3f000000000000000000000000000000000000000000000000000000008152600401611b0292919061299d565b60405180910390fd5b5050565b611b17610a20565b611b4d576040517f8dfc202b00000000000000000000000000000000000000000000000000000000815260040160405180910390fd5b565b611b57610a20565b15611b8e576040517fd93c066500000000000000000000000000000000000000000000000000000000815260040160405180910390fd5b565b611b98611b4f565b611ba3838383611ba8565b505050565b5f73ffffffffffffffffffffffffffffffffffffffff168373ffffffffffffffffffffffffffffffffffffffff1603611bf8578060025f828254611bec91906129c4565b92505081905550611cc6565b5f805f8573ffffffffffffffffffffffffffffffffffffffff1673ffffffffffffffffffffffffffffffffffffffff1681526020019081526020015f2054905081811015611c81578381836040517fe450d38c000000000000000000000000000000000000000000000000000000008152600401611c7893929190612968565b60405180910390fd5b8181035f808673ffffffffffffffffffffffffffffffffffffffff1673ffffffffffffffffffffffffffffffffffffffff1681526020019081526020015f2081905550505b5f73ffffffffffffffffffffffffffffffffffffffff168273ffffffffffffffffffffffffffffffffffffffff1603611d0d578060025f8282540392505081905550611d57565b805f808473ffffffffffffffffffffffffffffffffffffffff1673ffffffffffffffffffffffffffffffffffffffff1681526020019081526020015f205f82825401925050819055505b8173ffffffffffffffffffffffffffffffffffffffff168373ffffffffffffffffffffffffffffffffffffffff167fddf252ad1be2c89b69c2b068fc378daa952ba7f163c4a11628f55a4df523b3ef83604051611db4919061201a565b60405180910390a3505050565b5f604051905090565b5f80fd5b5f80fd5b5f7fffffffff0000000000000000000000000000000000000000000000000000000082169050919050565b611e0681611dd2565b8114611e10575f80fd5b50565b5f81359050611e2181611dfd565b92915050565b5f60208284031215611e3c57611e3b611dca565b5b5f611e4984828501611e13565b91505092915050565b5f8115159050919050565b611e6681611e52565b82525050565b5f602082019050611e7f5f830184611e5d565b92915050565b5f81519050919050565b5f82825260208201905092915050565b8281835e5f83830152505050565b5f601f19601f8301169050919050565b5f611ec782611e85565b611ed18185611e8f565b9350611ee1818560208601611e9f565b611eea81611ead565b840191505092915050565b5f6020820190508181035f830152611f0d8184611ebd565b905092915050565b5f73ffffffffffffffffffffffffffffffffffffffff82169050919050565b5f611f3e82611f15565b9050919050565b611f4e81611f34565b8114611f58575f80fd5b50565b5f81359050611f6981611f45565b92915050565b5f819050919050565b611f8181611f6f565b8114611f8b575f80fd5b50565b5f81359050611f9c81611f78565b92915050565b5f8060408385031215611fb857611fb7611dca565b5b5f611fc585828601611f5b565b9250506020611fd685828601611f8e565b9150509250929050565b5f60208284031215611ff557611ff4611dca565b5b5f61200284828501611f8e565b91505092915050565b61201481611f6f565b82525050565b5f60208201905061202d5f83018461200b565b92915050565b5f805f6060848603121561204a57612049611dca565b5b5f61205786828701611f5b565b935050602061206886828701611f5b565b925050604061207986828701611f8e565b9150509250925092565b5f819050919050565b61209581612083565b811461209f575f80fd5b50565b5f813590506120b08161208c565b92915050565b5f602082840312156120cb576120ca611dca565b5b5f6120d8848285016120a2565b91505092915050565b6120ea81612083565b82525050565b5f6020820190506121035f8301846120e1565b92915050565b5f806040838503121561211f5761211e611dca565b5b5f61212c858286016120a2565b925050602061213d85828601611f5b565b9150509250929050565b5f60ff82169050919050565b61215c81612147565b82525050565b5f6020820190506121755f830184612153565b92915050565b5f602082840312156121905761218f611dca565b5b5f61219d84828501611f5b565b91505092915050565b5f80fd5b7f4e487b71000000000000000000000000000000000000000000000000000000005f52604160045260245ffd5b6121e082611ead565b810181811067ffffffffffffffff821117156121ff576121fe6121aa565b5b80604052505050565b5f612211611dc1565b905061221d82826121d7565b919050565b5f67ffffffffffffffff82111561223c5761223b6121aa565b5b602082029050602081019050919050565b5f80fd5b5f61226361225e84612222565b612208565b905080838252602082019050602084028301858111156122865761228561224d565b5b835b818110156122af578061229b8882611f5b565b845260208401935050602081019050612288565b5050509392505050565b5f82601f8301126122cd576122cc6121a6565b5b81356122dd848260208601612251565b91505092915050565b5f67ffffffffffffffff821115612300576122ff6121aa565b5b602082029050602081019050919050565b5f61232361231e846122e6565b612208565b905080838252602082019050602084028301858111156123465761234561224d565b5b835b8181101561236f578061235b8882611f8e565b845260208401935050602081019050612348565b5050509392505050565b5f82601f83011261238d5761238c6121a6565b5b813561239d848260208601612311565b91505092915050565b5f80604083850312156123bc576123bb611dca565b5b5f83013567ffffffffffffffff8111156123d9576123d8611dce565b5b6123e5858286016122b9565b925050602083013567ffffffffffffffff81111561240657612405611dce565b5b61241285828601612379565b9150509250929050565b61242581611f34565b82525050565b5f60208201905061243e5f83018461241c565b92915050565b5f806040838503121561245a57612459611dca565b5b5f61246785828601611f5b565b925050602061247885828601611f5b565b9150509250929050565b7f4e487b71000000000000000000000000000000000000000000000000000000005f52602260045260245ffd5b5f60028204905060018216806124c657607f821691505b6020821081036124d9576124d8612482565b5b50919050565b7f4e487b71000000000000000000000000000000000000000000000000000000005f52601160045260245ffd5b5f61251682611f6f565b915061252183611f6f565b925082820261252f81611f6f565b91508282048414831517612546576125456124df565b5b5092915050565b5f6060820190506125605f83018661241c565b61256d602083018561241c565b61257a604083018461200b565b949350505050565b61258b81611e52565b8114612595575f80fd5b50565b5f815190506125a681612582565b92915050565b5f602082840312156125c1576125c0611dca565b5b5f6125ce84828501612598565b91505092915050565b7f537461626c6520636f696e207472616e73666572206661696c656400000000005f82015250565b5f61260b601b83611e8f565b9150612616826125d7565b602082019050919050565b5f6020820190508181035f830152612638816125ff565b9050919050565b5f6040820190506126525f83018561241c565b61265f602083018461200b565b9392505050565b7f426f6e6420746f6b656e207472616e73666572206661696c65640000000000005f82015250565b5f61269a601a83611e8f565b91506126a582612666565b602082019050919050565b5f6020820190508181035f8301526126c78161268e565b9050919050565b7f546f6b656e20686f6c6465727320616e6420616d6f756e7473206c656e6774685f8201527f206d69736d617463680000000000000000000000000000000000000000000000602082015250565b5f612728602983611e8f565b9150612733826126ce565b604082019050919050565b5f6020820190508181035f8301526127558161271c565b9050919050565b7f4e487b71000000000000000000000000000000000000000000000000000000005f52603260045260245ffd5b7f5472616e73666572206661696c656400000000000000000000000000000000005f82015250565b5f6127bd600f83611e8f565b91506127c882612789565b602082019050919050565b5f6020820190508181035f8301526127ea816127b1565b9050919050565b7f43616e277420636c61696d207a65726f20636f696e73000000000000000000005f82015250565b5f612825601683611e8f565b9150612830826127f1565b602082019050919050565b5f6020820190508181035f83015261285281612819565b9050919050565b5f8151905061286781611f78565b92915050565b5f6020828403121561288257612881611dca565b5b5f61288f84828501612859565b91505092915050565b7f4e6f20696e766573746f722066756e647320617661696c61626c652e000000005f82015250565b5f6128cc601c83611e8f565b91506128d782612898565b602082019050919050565b5f6020820190508181035f8301526128f9816128c0565b9050919050565b7f4661696c656420746f207472616e7366657220737461626c6520636f696e73005f82015250565b5f612934601f83611e8f565b915061293f82612900565b602082019050919050565b5f6020820190508181035f83015261296181612928565b9050919050565b5f60608201905061297b5f83018661241c565b612988602083018561200b565b612995604083018461200b565b949350505050565b5f6040820190506129b05f83018561241c565b6129bd60208301846120e1565b9392505050565b5f6129ce82611f6f565b91506129d983611f6f565b92508282019050808211156129f1576129f06124df565b5b9291505056fea264697066735822122008f31546049f2a9e63b1324962d7398911bf39d61999c89dda3debe24595869664736f6c634300081a0033",
			"opcodes": "PUSH1 0xE0 PUSH1 0x40 MSTORE CALLVALUE DUP1 ISZERO PUSH2 0xF JUMPI PUSH0 DUP1 REVERT JUMPDEST POP PUSH1 0x40 MLOAD PUSH2 0x3880 CODESIZE SUB DUP1 PUSH2 0x3880 DUP4 CODECOPY DUP2 DUP2 ADD PUSH1 0x40 MSTORE DUP2 ADD SWAP1 PUSH2 0x31 SWAP2 SWAP1 PUSH2 0x725 JUMP JUMPDEST PUSH1 0x40 MLOAD DUP1 PUSH1 0x40 ADD PUSH1 0x40 MSTORE DUP1 PUSH1 0x15 DUP2 MSTORE PUSH1 0x20 ADD PUSH32 0x426F6E4465466920546F6B656E205369656D656E730000000000000000000000 DUP2 MSTORE POP PUSH1 0x40 MLOAD DUP1 PUSH1 0x40 ADD PUSH1 0x40 MSTORE DUP1 PUSH1 0x6 DUP2 MSTORE PUSH1 0x20 ADD PUSH32 0x42445349454D0000000000000000000000000000000000000000000000000000 DUP2 MSTORE POP DUP2 PUSH1 0x3 SWAP1 DUP2 PUSH2 0xAC SWAP2 SWAP1 PUSH2 0xA1A JUMP JUMPDEST POP DUP1 PUSH1 0x4 SWAP1 DUP2 PUSH2 0xBC SWAP2 SWAP1 PUSH2 0xA1A JUMP JUMPDEST POP POP POP PUSH0 PUSH1 0x5 PUSH0 PUSH2 0x100 EXP DUP2 SLOAD DUP2 PUSH1 0xFF MUL NOT AND SWAP1 DUP4 ISZERO ISZERO MUL OR SWAP1 SSTORE POP PUSH2 0x108 PUSH32 0xDF8B4C520FFE197C5343C6F5AEC59570151EF9A492F2C624FD45DDDE6135EC42 DUP11 PUSH2 0x1F7 PUSH1 0x20 SHL PUSH1 0x20 SHR JUMP JUMPDEST POP PUSH2 0x139 PUSH32 0xF877234297EF562D54F0328F892ACFC1D6C1E44CA89F02E3A2C2A4736F6095B7 DUP10 PUSH2 0x1F7 PUSH1 0x20 SHL PUSH1 0x20 SHR JUMP JUMPDEST POP DUP7 PUSH20 0xFFFFFFFFFFFFFFFFFFFFFFFFFFFFFFFFFFFFFFFF AND PUSH1 0x80 DUP2 PUSH20 0xFFFFFFFFFFFFFFFFFFFFFFFFFFFFFFFFFFFFFFFF AND DUP2 MSTORE POP POP DUP6 PUSH20 0xFFFFFFFFFFFFFFFFFFFFFFFFFFFFFFFFFFFFFFFF AND PUSH1 0xA0 DUP2 PUSH20 0xFFFFFFFFFFFFFFFFFFFFFFFFFFFFFFFFFFFFFFFF AND DUP2 MSTORE POP POP DUP1 PUSH1 0xC0 DUP2 DUP2 MSTORE POP POP PUSH2 0x1E9 CALLER PUSH2 0x1BC PUSH2 0x2ED PUSH1 0x20 SHL PUSH1 0x20 SHR JUMP JUMPDEST PUSH1 0xA PUSH2 0x1C8 SWAP2 SWAP1 PUSH2 0xC51 JUMP JUMPDEST DUP4 DUP9 PUSH2 0x1D4 SWAP2 SWAP1 PUSH2 0xCC8 JUMP JUMPDEST PUSH2 0x1DE SWAP2 SWAP1 PUSH2 0xCF8 JUMP JUMPDEST PUSH2 0x2F5 PUSH1 0x20 SHL PUSH1 0x20 SHR JUMP JUMPDEST POP POP POP POP POP POP POP POP POP PUSH2 0xDF1 JUMP JUMPDEST PUSH0 PUSH2 0x208 DUP4 DUP4 PUSH2 0x37A PUSH1 0x20 SHL PUSH1 0x20 SHR JUMP JUMPDEST PUSH2 0x2E3 JUMPI PUSH1 0x1 PUSH1 0x6 PUSH0 DUP6 DUP2 MSTORE PUSH1 0x20 ADD SWAP1 DUP2 MSTORE PUSH1 0x20 ADD PUSH0 KECCAK256 PUSH0 ADD PUSH0 DUP5 PUSH20 0xFFFFFFFFFFFFFFFFFFFFFFFFFFFFFFFFFFFFFFFF AND PUSH20 0xFFFFFFFFFFFFFFFFFFFFFFFFFFFFFFFFFFFFFFFF AND DUP2 MSTORE PUSH1 0x20 ADD SWAP1 DUP2 MSTORE PUSH1 0x20 ADD PUSH0 KECCAK256 PUSH0 PUSH2 0x100 EXP DUP2 SLOAD DUP2 PUSH1 0xFF MUL NOT AND SWAP1 DUP4 ISZERO ISZERO MUL OR SWAP1 SSTORE POP PUSH2 0x280 PUSH2 0x3DE PUSH1 0x20 SHL PUSH1 0x20 SHR JUMP JUMPDEST PUSH20 0xFFFFFFFFFFFFFFFFFFFFFFFFFFFFFFFFFFFFFFFF AND DUP3 PUSH20 0xFFFFFFFFFFFFFFFFFFFFFFFFFFFFFFFFFFFFFFFF AND DUP5 PUSH32 0x2F8788117E7EFF1D82E926EC794901D17C78024A50270940304540A733656F0D PUSH1 0x40 MLOAD PUSH1 0x40 MLOAD DUP1 SWAP2 SUB SWAP1 LOG4 PUSH1 0x1 SWAP1 POP PUSH2 0x2E7 JUMP JUMPDEST PUSH0 SWAP1 POP JUMPDEST SWAP3 SWAP2 POP POP JUMP JUMPDEST PUSH0 PUSH1 0x12 SWAP1 POP SWAP1 JUMP JUMPDEST PUSH0 PUSH20 0xFFFFFFFFFFFFFFFFFFFFFFFFFFFFFFFFFFFFFFFF AND DUP3 PUSH20 0xFFFFFFFFFFFFFFFFFFFFFFFFFFFFFFFFFFFFFFFF AND SUB PUSH2 0x365 JUMPI PUSH0 PUSH1 0x40 MLOAD PUSH32 0xEC442F0500000000000000000000000000000000000000000000000000000000 DUP2 MSTORE PUSH1 0x4 ADD PUSH2 0x35C SWAP2 SWAP1 PUSH2 0xD48 JUMP JUMPDEST PUSH1 0x40 MLOAD DUP1 SWAP2 SUB SWAP1 REVERT JUMPDEST PUSH2 0x376 PUSH0 DUP4 DUP4 PUSH2 0x3E5 PUSH1 0x20 SHL PUSH1 0x20 SHR JUMP JUMPDEST POP POP JUMP JUMPDEST PUSH0 PUSH1 0x6 PUSH0 DUP5 DUP2 MSTORE PUSH1 0x20 ADD SWAP1 DUP2 MSTORE PUSH1 0x20 ADD PUSH0 KECCAK256 PUSH0 ADD PUSH0 DUP4 PUSH20 0xFFFFFFFFFFFFFFFFFFFFFFFFFFFFFFFFFFFFFFFF AND PUSH20 0xFFFFFFFFFFFFFFFFFFFFFFFFFFFFFFFFFFFFFFFF AND DUP2 MSTORE PUSH1 0x20 ADD SWAP1 DUP2 MSTORE PUSH1 0x20 ADD PUSH0 KECCAK256 PUSH0 SWAP1 SLOAD SWAP1 PUSH2 0x100 EXP SWAP1 DIV PUSH1 0xFF AND SWAP1 POP SWAP3 SWAP2 POP POP JUMP JUMPDEST PUSH0 CALLER SWAP1 POP SWAP1 JUMP JUMPDEST PUSH2 0x3F6 DUP4 DUP4 DUP4 PUSH2 0x3FB PUSH1 0x20 SHL PUSH1 0x20 SHR JUMP JUMPDEST POP POP POP JUMP JUMPDEST PUSH2 0x409 PUSH2 0x41F PUSH1 0x20 SHL PUSH1 0x20 SHR JUMP JUMPDEST PUSH2 0x41A DUP4 DUP4 DUP4 PUSH2 0x466 PUSH1 0x20 SHL PUSH1 0x20 SHR JUMP JUMPDEST POP POP POP JUMP JUMPDEST PUSH2 0x42D PUSH2 0x67F PUSH1 0x20 SHL PUSH1 0x20 SHR JUMP JUMPDEST ISZERO PUSH2 0x464 JUMPI PUSH1 0x40 MLOAD PUSH32 0xD93C066500000000000000000000000000000000000000000000000000000000 DUP2 MSTORE PUSH1 0x4 ADD PUSH1 0x40 MLOAD DUP1 SWAP2 SUB SWAP1 REVERT JUMPDEST JUMP JUMPDEST PUSH0 PUSH20 0xFFFFFFFFFFFFFFFFFFFFFFFFFFFFFFFFFFFFFFFF AND DUP4 PUSH20 0xFFFFFFFFFFFFFFFFFFFFFFFFFFFFFFFFFFFFFFFF AND SUB PUSH2 0x4B6 JUMPI DUP1 PUSH1 0x2 PUSH0 DUP3 DUP3 SLOAD PUSH2 0x4AA SWAP2 SWAP1 PUSH2 0xD61 JUMP JUMPDEST SWAP3 POP POP DUP2 SWAP1 SSTORE POP PUSH2 0x584 JUMP JUMPDEST PUSH0 DUP1 PUSH0 DUP6 PUSH20 0xFFFFFFFFFFFFFFFFFFFFFFFFFFFFFFFFFFFFFFFF AND PUSH20 0xFFFFFFFFFFFFFFFFFFFFFFFFFFFFFFFFFFFFFFFF AND DUP2 MSTORE PUSH1 0x20 ADD SWAP1 DUP2 MSTORE PUSH1 0x20 ADD PUSH0 KECCAK256 SLOAD SWAP1 POP DUP2 DUP2 LT ISZERO PUSH2 0x53F JUMPI DUP4 DUP2 DUP4 PUSH1 0x40 MLOAD PUSH32 0xE450D38C00000000000000000000000000000000000000000000000000000000 DUP2 MSTORE PUSH1 0x4 ADD PUSH2 0x536 SWAP4 SWAP3 SWAP2 SWAP1 PUSH2 0xDA3 JUMP JUMPDEST PUSH1 0x40 MLOAD DUP1 SWAP2 SUB SWAP1 REVERT JUMPDEST DUP2 DUP2 SUB PUSH0 DUP1 DUP7 PUSH20 0xFFFFFFFFFFFFFFFFFFFFFFFFFFFFFFFFFFFFFFFF AND PUSH20 0xFFFFFFFFFFFFFFFFFFFFFFFFFFFFFFFFFFFFFFFF AND DUP2 MSTORE PUSH1 0x20 ADD SWAP1 DUP2 MSTORE PUSH1 0x20 ADD PUSH0 KECCAK256 DUP2 SWAP1 SSTORE POP POP JUMPDEST PUSH0 PUSH20 0xFFFFFFFFFFFFFFFFFFFFFFFFFFFFFFFFFFFFFFFF AND DUP3 PUSH20 0xFFFFFFFFFFFFFFFFFFFFFFFFFFFFFFFFFFFFFFFF AND SUB PUSH2 0x5CB JUMPI DUP1 PUSH1 0x2 PUSH0 DUP3 DUP3 SLOAD SUB SWAP3 POP POP DUP2 SWAP1 SSTORE POP PUSH2 0x615 JUMP JUMPDEST DUP1 PUSH0 DUP1 DUP5 PUSH20 0xFFFFFFFFFFFFFFFFFFFFFFFFFFFFFFFFFFFFFFFF AND PUSH20 0xFFFFFFFFFFFFFFFFFFFFFFFFFFFFFFFFFFFFFFFF AND DUP2 MSTORE PUSH1 0x20 ADD SWAP1 DUP2 MSTORE PUSH1 0x20 ADD PUSH0 KECCAK256 PUSH0 DUP3 DUP3 SLOAD ADD SWAP3 POP POP DUP2 SWAP1 SSTORE POP JUMPDEST DUP2 PUSH20 0xFFFFFFFFFFFFFFFFFFFFFFFFFFFFFFFFFFFFFFFF AND DUP4 PUSH20 0xFFFFFFFFFFFFFFFFFFFFFFFFFFFFFFFFFFFFFFFF AND PUSH32 0xDDF252AD1BE2C89B69C2B068FC378DAA952BA7F163C4A11628F55A4DF523B3EF DUP4 PUSH1 0x40 MLOAD PUSH2 0x672 SWAP2 SWAP1 PUSH2 0xDD8 JUMP JUMPDEST PUSH1 0x40 MLOAD DUP1 SWAP2 SUB SWAP1 LOG3 POP POP POP JUMP JUMPDEST PUSH0 PUSH1 0x5 PUSH0 SWAP1 SLOAD SWAP1 PUSH2 0x100 EXP SWAP1 DIV PUSH1 0xFF AND SWAP1 POP SWAP1 JUMP JUMPDEST PUSH0 DUP1 REVERT JUMPDEST PUSH0 PUSH20 0xFFFFFFFFFFFFFFFFFFFFFFFFFFFFFFFFFFFFFFFF DUP3 AND SWAP1 POP SWAP2 SWAP1 POP JUMP JUMPDEST PUSH0 PUSH2 0x6C1 DUP3 PUSH2 0x698 JUMP JUMPDEST SWAP1 POP SWAP2 SWAP1 POP JUMP JUMPDEST PUSH2 0x6D1 DUP2 PUSH2 0x6B7 JUMP JUMPDEST DUP2 EQ PUSH2 0x6DB JUMPI PUSH0 DUP1 REVERT JUMPDEST POP JUMP JUMPDEST PUSH0 DUP2 MLOAD SWAP1 POP PUSH2 0x6EC DUP2 PUSH2 0x6C8 JUMP JUMPDEST SWAP3 SWAP2 POP POP JUMP JUMPDEST PUSH0 DUP2 SWAP1 POP SWAP2 SWAP1 POP JUMP JUMPDEST PUSH2 0x704 DUP2 PUSH2 0x6F2 JUMP JUMPDEST DUP2 EQ PUSH2 0x70E JUMPI PUSH0 DUP1 REVERT JUMPDEST POP JUMP JUMPDEST PUSH0 DUP2 MLOAD SWAP1 POP PUSH2 0x71F DUP2 PUSH2 0x6FB JUMP JUMPDEST SWAP3 SWAP2 POP POP JUMP JUMPDEST PUSH0 DUP1 PUSH0 DUP1 PUSH0 DUP1 PUSH0 DUP1 PUSH0 PUSH2 0x120 DUP11 DUP13 SUB SLT ISZERO PUSH2 0x743 JUMPI PUSH2 0x742 PUSH2 0x694 JUMP JUMPDEST JUMPDEST PUSH0 PUSH2 0x750 DUP13 DUP3 DUP14 ADD PUSH2 0x6DE JUMP JUMPDEST SWAP10 POP POP PUSH1 0x20 PUSH2 0x761 DUP13 DUP3 DUP14 ADD PUSH2 0x6DE JUMP JUMPDEST SWAP9 POP POP PUSH1 0x40 PUSH2 0x772 DUP13 DUP3 DUP14 ADD PUSH2 0x6DE JUMP JUMPDEST SWAP8 POP POP PUSH1 0x60 PUSH2 0x783 DUP13 DUP3 DUP14 ADD PUSH2 0x6DE JUMP JUMPDEST SWAP7 POP POP PUSH1 0x80 PUSH2 0x794 DUP13 DUP3 DUP14 ADD PUSH2 0x711 JUMP JUMPDEST SWAP6 POP POP PUSH1 0xA0 PUSH2 0x7A5 DUP13 DUP3 DUP14 ADD PUSH2 0x711 JUMP JUMPDEST SWAP5 POP POP PUSH1 0xC0 PUSH2 0x7B6 DUP13 DUP3 DUP14 ADD PUSH2 0x711 JUMP JUMPDEST SWAP4 POP POP PUSH1 0xE0 PUSH2 0x7C7 DUP13 DUP3 DUP14 ADD PUSH2 0x711 JUMP JUMPDEST SWAP3 POP POP PUSH2 0x100 PUSH2 0x7D9 DUP13 DUP3 DUP14 ADD PUSH2 0x711 JUMP JUMPDEST SWAP2 POP POP SWAP3 SWAP6 SWAP9 POP SWAP3 SWAP6 SWAP9 POP SWAP3 SWAP6 SWAP9 JUMP JUMPDEST PUSH0 DUP2 MLOAD SWAP1 POP SWAP2 SWAP1 POP JUMP JUMPDEST PUSH32 0x4E487B7100000000000000000000000000000000000000000000000000000000 PUSH0 MSTORE PUSH1 0x41 PUSH1 0x4 MSTORE PUSH1 0x24 PUSH0 REVERT JUMPDEST PUSH32 0x4E487B7100000000000000000000000000000000000000000000000000000000 PUSH0 MSTORE PUSH1 0x22 PUSH1 0x4 MSTORE PUSH1 0x24 PUSH0 REVERT JUMPDEST PUSH0 PUSH1 0x2 DUP3 DIV SWAP1 POP PUSH1 0x1 DUP3 AND DUP1 PUSH2 0x864 JUMPI PUSH1 0x7F DUP3 AND SWAP2 POP JUMPDEST PUSH1 0x20 DUP3 LT DUP2 SUB PUSH2 0x877 JUMPI PUSH2 0x876 PUSH2 0x820 JUMP JUMPDEST JUMPDEST POP SWAP2 SWAP1 POP JUMP JUMPDEST PUSH0 DUP2 SWAP1 POP DUP2 PUSH0 MSTORE PUSH1 0x20 PUSH0 KECCAK256 SWAP1 POP SWAP2 SWAP1 POP JUMP JUMPDEST PUSH0 PUSH1 0x20 PUSH1 0x1F DUP4 ADD DIV SWAP1 POP SWAP2 SWAP1 POP JUMP JUMPDEST PUSH0 DUP3 DUP3 SHL SWAP1 POP SWAP3 SWAP2 POP POP JUMP JUMPDEST PUSH0 PUSH1 0x8 DUP4 MUL PUSH2 0x8D9 PUSH32 0xFFFFFFFFFFFFFFFFFFFFFFFFFFFFFFFFFFFFFFFFFFFFFFFFFFFFFFFFFFFFFFFF DUP3 PUSH2 0x89E JUMP JUMPDEST PUSH2 0x8E3 DUP7 DUP4 PUSH2 0x89E JUMP JUMPDEST SWAP6 POP DUP1 NOT DUP5 AND SWAP4 POP DUP1 DUP7 AND DUP5 OR SWAP3 POP POP POP SWAP4 SWAP3 POP POP POP JUMP JUMPDEST PUSH0 DUP2 SWAP1 POP SWAP2 SWAP1 POP JUMP JUMPDEST PUSH0 PUSH2 0x91E PUSH2 0x919 PUSH2 0x914 DUP5 PUSH2 0x6F2 JUMP JUMPDEST PUSH2 0x8FB JUMP JUMPDEST PUSH2 0x6F2 JUMP JUMPDEST SWAP1 POP SWAP2 SWAP1 POP JUMP JUMPDEST PUSH0 DUP2 SWAP1 POP SWAP2 SWAP1 POP JUMP JUMPDEST PUSH2 0x937 DUP4 PUSH2 0x904 JUMP JUMPDEST PUSH2 0x94B PUSH2 0x943 DUP3 PUSH2 0x925 JUMP JUMPDEST DUP5 DUP5 SLOAD PUSH2 0x8AA JUMP JUMPDEST DUP3 SSTORE POP POP POP POP JUMP JUMPDEST PUSH0 SWAP1 JUMP JUMPDEST PUSH2 0x95F PUSH2 0x953 JUMP JUMPDEST PUSH2 0x96A DUP2 DUP5 DUP5 PUSH2 0x92E JUMP JUMPDEST POP POP POP JUMP JUMPDEST JUMPDEST DUP2 DUP2 LT ISZERO PUSH2 0x98D JUMPI PUSH2 0x982 PUSH0 DUP3 PUSH2 0x957 JUMP JUMPDEST PUSH1 0x1 DUP2 ADD SWAP1 POP PUSH2 0x970 JUMP JUMPDEST POP POP JUMP JUMPDEST PUSH1 0x1F DUP3 GT ISZERO PUSH2 0x9D2 JUMPI PUSH2 0x9A3 DUP2 PUSH2 0x87D JUMP JUMPDEST PUSH2 0x9AC DUP5 PUSH2 0x88F JUMP JUMPDEST DUP2 ADD PUSH1 0x20 DUP6 LT ISZERO PUSH2 0x9BB JUMPI DUP2 SWAP1 POP JUMPDEST PUSH2 0x9CF PUSH2 0x9C7 DUP6 PUSH2 0x88F JUMP JUMPDEST DUP4 ADD DUP3 PUSH2 0x96F JUMP JUMPDEST POP POP JUMPDEST POP POP POP JUMP JUMPDEST PUSH0 DUP3 DUP3 SHR SWAP1 POP SWAP3 SWAP2 POP POP JUMP JUMPDEST PUSH0 PUSH2 0x9F2 PUSH0 NOT DUP5 PUSH1 0x8 MUL PUSH2 0x9D7 JUMP JUMPDEST NOT DUP1 DUP4 AND SWAP2 POP POP SWAP3 SWAP2 POP POP JUMP JUMPDEST PUSH0 PUSH2 0xA0A DUP4 DUP4 PUSH2 0x9E3 JUMP JUMPDEST SWAP2 POP DUP3 PUSH1 0x2 MUL DUP3 OR SWAP1 POP SWAP3 SWAP2 POP POP JUMP JUMPDEST PUSH2 0xA23 DUP3 PUSH2 0x7E9 JUMP JUMPDEST PUSH8 0xFFFFFFFFFFFFFFFF DUP2 GT ISZERO PUSH2 0xA3C JUMPI PUSH2 0xA3B PUSH2 0x7F3 JUMP JUMPDEST JUMPDEST PUSH2 0xA46 DUP3 SLOAD PUSH2 0x84D JUMP JUMPDEST PUSH2 0xA51 DUP3 DUP3 DUP6 PUSH2 0x991 JUMP JUMPDEST PUSH0 PUSH1 0x20 SWAP1 POP PUSH1 0x1F DUP4 GT PUSH1 0x1 DUP2 EQ PUSH2 0xA82 JUMPI PUSH0 DUP5 ISZERO PUSH2 0xA70 JUMPI DUP3 DUP8 ADD MLOAD SWAP1 POP JUMPDEST PUSH2 0xA7A DUP6 DUP3 PUSH2 0x9FF JUMP JUMPDEST DUP7 SSTORE POP PUSH2 0xAE1 JUMP JUMPDEST PUSH1 0x1F NOT DUP5 AND PUSH2 0xA90 DUP7 PUSH2 0x87D JUMP JUMPDEST PUSH0 JUMPDEST DUP3 DUP2 LT ISZERO PUSH2 0xAB7 JUMPI DUP5 DUP10 ADD MLOAD DUP3 SSTORE PUSH1 0x1 DUP3 ADD SWAP2 POP PUSH1 0x20 DUP6 ADD SWAP5 POP PUSH1 0x20 DUP2 ADD SWAP1 POP PUSH2 0xA92 JUMP JUMPDEST DUP7 DUP4 LT ISZERO PUSH2 0xAD4 JUMPI DUP5 DUP10 ADD MLOAD PUSH2 0xAD0 PUSH1 0x1F DUP10 AND DUP3 PUSH2 0x9E3 JUMP JUMPDEST DUP4 SSTORE POP JUMPDEST PUSH1 0x1 PUSH1 0x2 DUP9 MUL ADD DUP9 SSTORE POP POP POP JUMPDEST POP POP POP POP POP POP JUMP JUMPDEST PUSH32 0x4E487B7100000000000000000000000000000000000000000000000000000000 PUSH0 MSTORE PUSH1 0x11 PUSH1 0x4 MSTORE PUSH1 0x24 PUSH0 REVERT JUMPDEST PUSH0 DUP2 PUSH1 0x1 SHR SWAP1 POP SWAP2 SWAP1 POP JUMP JUMPDEST PUSH0 DUP1 DUP3 SWAP2 POP DUP4 SWAP1 POP JUMPDEST PUSH1 0x1 DUP6 GT ISZERO PUSH2 0xB6B JUMPI DUP1 DUP7 DIV DUP2 GT ISZERO PUSH2 0xB47 JUMPI PUSH2 0xB46 PUSH2 0xAE9 JUMP JUMPDEST JUMPDEST PUSH1 0x1 DUP6 AND ISZERO PUSH2 0xB56 JUMPI DUP1 DUP3 MUL SWAP2 POP JUMPDEST DUP1 DUP2 MUL SWAP1 POP PUSH2 0xB64 DUP6 PUSH2 0xB16 JUMP JUMPDEST SWAP5 POP PUSH2 0xB2B JUMP JUMPDEST SWAP5 POP SWAP5 SWAP3 POP POP POP JUMP JUMPDEST PUSH0 DUP3 PUSH2 0xB83 JUMPI PUSH1 0x1 SWAP1 POP PUSH2 0xC3E JUMP JUMPDEST DUP2 PUSH2 0xB90 JUMPI PUSH0 SWAP1 POP PUSH2 0xC3E JUMP JUMPDEST DUP2 PUSH1 0x1 DUP2 EQ PUSH2 0xBA6 JUMPI PUSH1 0x2 DUP2 EQ PUSH2 0xBB0 JUMPI PUSH2 0xBDF JUMP JUMPDEST PUSH1 0x1 SWAP2 POP POP PUSH2 0xC3E JUMP JUMPDEST PUSH1 0xFF DUP5 GT ISZERO PUSH2 0xBC2 JUMPI PUSH2 0xBC1 PUSH2 0xAE9 JUMP JUMPDEST JUMPDEST DUP4 PUSH1 0x2 EXP SWAP2 POP DUP5 DUP3 GT ISZERO PUSH2 0xBD9 JUMPI PUSH2 0xBD8 PUSH2 0xAE9 JUMP JUMPDEST JUMPDEST POP PUSH2 0xC3E JUMP JUMPDEST POP PUSH1 0x20 DUP4 LT PUSH2 0x133 DUP4 LT AND PUSH1 0x4E DUP5 LT PUSH1 0xB DUP5 LT AND OR ISZERO PUSH2 0xC14 JUMPI DUP3 DUP3 EXP SWAP1 POP DUP4 DUP2 GT ISZERO PUSH2 0xC0F JUMPI PUSH2 0xC0E PUSH2 0xAE9 JUMP JUMPDEST JUMPDEST PUSH2 0xC3E JUMP JUMPDEST PUSH2 0xC21 DUP5 DUP5 DUP5 PUSH1 0x1 PUSH2 0xB22 JUMP JUMPDEST SWAP3 POP SWAP1 POP DUP2 DUP5 DIV DUP2 GT ISZERO PUSH2 0xC38 JUMPI PUSH2 0xC37 PUSH2 0xAE9 JUMP JUMPDEST JUMPDEST DUP2 DUP2 MUL SWAP1 POP JUMPDEST SWAP4 SWAP3 POP POP POP JUMP JUMPDEST PUSH0 PUSH1 0xFF DUP3 AND SWAP1 POP SWAP2 SWAP1 POP JUMP JUMPDEST PUSH0 PUSH2 0xC5B DUP3 PUSH2 0x6F2 JUMP JUMPDEST SWAP2 POP PUSH2 0xC66 DUP4 PUSH2 0xC45 JUMP JUMPDEST SWAP3 POP PUSH2 0xC93 PUSH32 0xFFFFFFFFFFFFFFFFFFFFFFFFFFFFFFFFFFFFFFFFFFFFFFFFFFFFFFFFFFFFFFFF DUP5 DUP5 PUSH2 0xB74 JUMP JUMPDEST SWAP1 POP SWAP3 SWAP2 POP POP JUMP JUMPDEST PUSH32 0x4E487B7100000000000000000000000000000000000000000000000000000000 PUSH0 MSTORE PUSH1 0x12 PUSH1 0x4 MSTORE PUSH1 0x24 PUSH0 REVERT JUMPDEST PUSH0 PUSH2 0xCD2 DUP3 PUSH2 0x6F2 JUMP JUMPDEST SWAP2 POP PUSH2 0xCDD DUP4 PUSH2 0x6F2 JUMP JUMPDEST SWAP3 POP DUP3 PUSH2 0xCED JUMPI PUSH2 0xCEC PUSH2 0xC9B JUMP JUMPDEST JUMPDEST DUP3 DUP3 DIV SWAP1 POP SWAP3 SWAP2 POP POP JUMP JUMPDEST PUSH0 PUSH2 0xD02 DUP3 PUSH2 0x6F2 JUMP JUMPDEST SWAP2 POP PUSH2 0xD0D DUP4 PUSH2 0x6F2 JUMP JUMPDEST SWAP3 POP DUP3 DUP3 MUL PUSH2 0xD1B DUP2 PUSH2 0x6F2 JUMP JUMPDEST SWAP2 POP DUP3 DUP3 DIV DUP5 EQ DUP4 ISZERO OR PUSH2 0xD32 JUMPI PUSH2 0xD31 PUSH2 0xAE9 JUMP JUMPDEST JUMPDEST POP SWAP3 SWAP2 POP POP JUMP JUMPDEST PUSH2 0xD42 DUP2 PUSH2 0x6B7 JUMP JUMPDEST DUP3 MSTORE POP POP JUMP JUMPDEST PUSH0 PUSH1 0x20 DUP3 ADD SWAP1 POP PUSH2 0xD5B PUSH0 DUP4 ADD DUP5 PUSH2 0xD39 JUMP JUMPDEST SWAP3 SWAP2 POP POP JUMP JUMPDEST PUSH0 PUSH2 0xD6B DUP3 PUSH2 0x6F2 JUMP JUMPDEST SWAP2 POP PUSH2 0xD76 DUP4 PUSH2 0x6F2 JUMP JUMPDEST SWAP3 POP DUP3 DUP3 ADD SWAP1 POP DUP1 DUP3 GT ISZERO PUSH2 0xD8E JUMPI PUSH2 0xD8D PUSH2 0xAE9 JUMP JUMPDEST JUMPDEST SWAP3 SWAP2 POP POP JUMP JUMPDEST PUSH2 0xD9D DUP2 PUSH2 0x6F2 JUMP JUMPDEST DUP3 MSTORE POP POP JUMP JUMPDEST PUSH0 PUSH1 0x60 DUP3 ADD SWAP1 POP PUSH2 0xDB6 PUSH0 DUP4 ADD DUP7 PUSH2 0xD39 JUMP JUMPDEST PUSH2 0xDC3 PUSH1 0x20 DUP4 ADD DUP6 PUSH2 0xD94 JUMP JUMPDEST PUSH2 0xDD0 PUSH1 0x40 DUP4 ADD DUP5 PUSH2 0xD94 JUMP JUMPDEST SWAP5 SWAP4 POP POP POP POP JUMP JUMPDEST PUSH0 PUSH1 0x20 DUP3 ADD SWAP1 POP PUSH2 0xDEB PUSH0 DUP4 ADD DUP5 PUSH2 0xD94 JUMP JUMPDEST SWAP3 SWAP2 POP POP JUMP JUMPDEST PUSH1 0x80 MLOAD PUSH1 0xA0 MLOAD PUSH1 0xC0 MLOAD PUSH2 0x2A2D PUSH2 0xE53 PUSH0 CODECOPY PUSH0 DUP2 DUP2 PUSH2 0x736 ADD MSTORE DUP2 DUP2 PUSH2 0xDAD ADD MSTORE PUSH2 0xF0C ADD MSTORE PUSH0 DUP2 DUP2 PUSH2 0xB4A ADD MSTORE DUP2 DUP2 PUSH2 0x1264 ADD MSTORE DUP2 DUP2 PUSH2 0x12B2 ADD MSTORE PUSH2 0x12EE ADD MSTORE PUSH0 DUP2 DUP2 PUSH2 0x6F8 ADD MSTORE DUP2 DUP2 PUSH2 0xD61 ADD MSTORE DUP2 DUP2 PUSH2 0xECF ADD MSTORE PUSH2 0x1002 ADD MSTORE PUSH2 0x2A2D PUSH0 RETURN INVALID PUSH1 0x80 PUSH1 0x40 MSTORE CALLVALUE DUP1 ISZERO PUSH2 0xF JUMPI PUSH0 DUP1 REVERT JUMPDEST POP PUSH1 0x4 CALLDATASIZE LT PUSH2 0x1E3 JUMPI PUSH0 CALLDATALOAD PUSH1 0xE0 SHR DUP1 PUSH4 0x79CC6790 GT PUSH2 0x10D JUMPI DUP1 PUSH4 0xA920260B GT PUSH2 0xA0 JUMPI DUP1 PUSH4 0xDD62ED3E GT PUSH2 0x6F JUMPI DUP1 PUSH4 0xDD62ED3E EQ PUSH2 0x543 JUMPI DUP1 PUSH4 0xE091A39B EQ PUSH2 0x573 JUMPI DUP1 PUSH4 0xEC8EBA14 EQ PUSH2 0x591 JUMPI DUP1 PUSH4 0xF57D283E EQ PUSH2 0x5AF JUMPI PUSH2 0x1E3 JUMP JUMPDEST DUP1 PUSH4 0xA920260B EQ PUSH2 0x4E3 JUMPI DUP1 PUSH4 0xCA19C11C EQ PUSH2 0x501 JUMPI DUP1 PUSH4 0xCED0550F EQ PUSH2 0x51D JUMPI DUP1 PUSH4 0xD547741F EQ PUSH2 0x527 JUMPI PUSH2 0x1E3 JUMP JUMPDEST DUP1 PUSH4 0x95D89B41 GT PUSH2 0xDC JUMPI DUP1 PUSH4 0x95D89B41 EQ PUSH2 0x459 JUMPI DUP1 PUSH4 0x992642E5 EQ PUSH2 0x477 JUMPI DUP1 PUSH4 0xA217FDDF EQ PUSH2 0x495 JUMPI DUP1 PUSH4 0xA9059CBB EQ PUSH2 0x4B3 JUMPI PUSH2 0x1E3 JUMP JUMPDEST DUP1 PUSH4 0x79CC6790 EQ PUSH2 0x3E7 JUMPI DUP1 PUSH4 0x8456CB59 EQ PUSH2 0x403 JUMPI DUP1 PUSH4 0x904835C4 EQ PUSH2 0x40D JUMPI DUP1 PUSH4 0x91D14854 EQ PUSH2 0x429 JUMPI PUSH2 0x1E3 JUMP JUMPDEST DUP1 PUSH4 0x2A0ACC6A GT PUSH2 0x185 JUMPI DUP1 PUSH4 0x3F4BA83A GT PUSH2 0x154 JUMPI DUP1 PUSH4 0x3F4BA83A EQ PUSH2 0x373 JUMPI DUP1 PUSH4 0x42966C68 EQ PUSH2 0x37D JUMPI DUP1 PUSH4 0x5C975ABB EQ PUSH2 0x399 JUMPI DUP1 PUSH4 0x70A08231 EQ PUSH2 0x3B7 JUMPI PUSH2 0x1E3 JUMP JUMPDEST DUP1 PUSH4 0x2A0ACC6A EQ PUSH2 0x2FF JUMPI DUP1 PUSH4 0x2F2FF15D EQ PUSH2 0x31D JUMPI DUP1 PUSH4 0x313CE567 EQ PUSH2 0x339 JUMPI DUP1 PUSH4 0x36568ABE EQ PUSH2 0x357 JUMPI PUSH2 0x1E3 JUMP JUMPDEST DUP1 PUSH4 0x10002DBD GT PUSH2 0x1C1 JUMPI DUP1 PUSH4 0x10002DBD EQ PUSH2 0x265 JUMPI DUP1 PUSH4 0x18160DDD EQ PUSH2 0x281 JUMPI DUP1 PUSH4 0x23B872DD EQ PUSH2 0x29F JUMPI DUP1 PUSH4 0x248A9CA3 EQ PUSH2 0x2CF JUMPI PUSH2 0x1E3 JUMP JUMPDEST DUP1 PUSH4 0x1FFC9A7 EQ PUSH2 0x1E7 JUMPI DUP1 PUSH4 0x6FDDE03 EQ PUSH2 0x217 JUMPI DUP1 PUSH4 0x95EA7B3 EQ PUSH2 0x235 JUMPI JUMPDEST PUSH0 DUP1 REVERT JUMPDEST PUSH2 0x201 PUSH1 0x4 DUP1 CALLDATASIZE SUB DUP2 ADD SWAP1 PUSH2 0x1FC SWAP2 SWAP1 PUSH2 0x1E27 JUMP JUMPDEST PUSH2 0x5CB JUMP JUMPDEST PUSH1 0x40 MLOAD PUSH2 0x20E SWAP2 SWAP1 PUSH2 0x1E6C JUMP JUMPDEST PUSH1 0x40 MLOAD DUP1 SWAP2 SUB SWAP1 RETURN JUMPDEST PUSH2 0x21F PUSH2 0x644 JUMP JUMPDEST PUSH1 0x40 MLOAD PUSH2 0x22C SWAP2 SWAP1 PUSH2 0x1EF5 JUMP JUMPDEST PUSH1 0x40 MLOAD DUP1 SWAP2 SUB SWAP1 RETURN JUMPDEST PUSH2 0x24F PUSH1 0x4 DUP1 CALLDATASIZE SUB DUP2 ADD SWAP1 PUSH2 0x24A SWAP2 SWAP1 PUSH2 0x1FA2 JUMP JUMPDEST PUSH2 0x6D4 JUMP JUMPDEST PUSH1 0x40 MLOAD PUSH2 0x25C SWAP2 SWAP1 PUSH2 0x1E6C JUMP JUMPDEST PUSH1 0x40 MLOAD DUP1 SWAP2 SUB SWAP1 RETURN JUMPDEST PUSH2 0x27F PUSH1 0x4 DUP1 CALLDATASIZE SUB DUP2 ADD SWAP1 PUSH2 0x27A SWAP2 SWAP1 PUSH2 0x1FE0 JUMP JUMPDEST PUSH2 0x6F6 JUMP JUMPDEST STOP JUMPDEST PUSH2 0x289 PUSH2 0x8BA JUMP JUMPDEST PUSH1 0x40 MLOAD PUSH2 0x296 SWAP2 SWAP1 PUSH2 0x201A JUMP JUMPDEST PUSH1 0x40 MLOAD DUP1 SWAP2 SUB SWAP1 RETURN JUMPDEST PUSH2 0x2B9 PUSH1 0x4 DUP1 CALLDATASIZE SUB DUP2 ADD SWAP1 PUSH2 0x2B4 SWAP2 SWAP1 PUSH2 0x2033 JUMP JUMPDEST PUSH2 0x8C3 JUMP JUMPDEST PUSH1 0x40 MLOAD PUSH2 0x2C6 SWAP2 SWAP1 PUSH2 0x1E6C JUMP JUMPDEST PUSH1 0x40 MLOAD DUP1 SWAP2 SUB SWAP1 RETURN JUMPDEST PUSH2 0x2E9 PUSH1 0x4 DUP1 CALLDATASIZE SUB DUP2 ADD SWAP1 PUSH2 0x2E4 SWAP2 SWAP1 PUSH2 0x20B6 JUMP JUMPDEST PUSH2 0x8F1 JUMP JUMPDEST PUSH1 0x40 MLOAD PUSH2 0x2F6 SWAP2 SWAP1 PUSH2 0x20F0 JUMP JUMPDEST PUSH1 0x40 MLOAD DUP1 SWAP2 SUB SWAP1 RETURN JUMPDEST PUSH2 0x307 PUSH2 0x90E JUMP JUMPDEST PUSH1 0x40 MLOAD PUSH2 0x314 SWAP2 SWAP1 PUSH2 0x20F0 JUMP JUMPDEST PUSH1 0x40 MLOAD DUP1 SWAP2 SUB SWAP1 RETURN JUMPDEST PUSH2 0x337 PUSH1 0x4 DUP1 CALLDATASIZE SUB DUP2 ADD SWAP1 PUSH2 0x332 SWAP2 SWAP1 PUSH2 0x2109 JUMP JUMPDEST PUSH2 0x932 JUMP JUMPDEST STOP JUMPDEST PUSH2 0x341 PUSH2 0x954 JUMP JUMPDEST PUSH1 0x40 MLOAD PUSH2 0x34E SWAP2 SWAP1 PUSH2 0x2162 JUMP JUMPDEST PUSH1 0x40 MLOAD DUP1 SWAP2 SUB SWAP1 RETURN JUMPDEST PUSH2 0x371 PUSH1 0x4 DUP1 CALLDATASIZE SUB DUP2 ADD SWAP1 PUSH2 0x36C SWAP2 SWAP1 PUSH2 0x2109 JUMP JUMPDEST PUSH2 0x95C JUMP JUMPDEST STOP JUMPDEST PUSH2 0x37B PUSH2 0x9D7 JUMP JUMPDEST STOP JUMPDEST PUSH2 0x397 PUSH1 0x4 DUP1 CALLDATASIZE SUB DUP2 ADD SWAP1 PUSH2 0x392 SWAP2 SWAP1 PUSH2 0x1FE0 JUMP JUMPDEST PUSH2 0xA0C JUMP JUMPDEST STOP JUMPDEST PUSH2 0x3A1 PUSH2 0xA20 JUMP JUMPDEST PUSH1 0x40 MLOAD PUSH2 0x3AE SWAP2 SWAP1 PUSH2 0x1E6C JUMP JUMPDEST PUSH1 0x40 MLOAD DUP1 SWAP2 SUB SWAP1 RETURN JUMPDEST PUSH2 0x3D1 PUSH1 0x4 DUP1 CALLDATASIZE SUB DUP2 ADD SWAP1 PUSH2 0x3CC SWAP2 SWAP1 PUSH2 0x217B JUMP JUMPDEST PUSH2 0xA35 JUMP JUMPDEST PUSH1 0x40 MLOAD PUSH2 0x3DE SWAP2 SWAP1 PUSH2 0x201A JUMP JUMPDEST PUSH1 0x40 MLOAD DUP1 SWAP2 SUB SWAP1 RETURN JUMPDEST PUSH2 0x401 PUSH1 0x4 DUP1 CALLDATASIZE SUB DUP2 ADD SWAP1 PUSH2 0x3FC SWAP2 SWAP1 PUSH2 0x1FA2 JUMP JUMPDEST PUSH2 0xA7A JUMP JUMPDEST STOP JUMPDEST PUSH2 0x40B PUSH2 0xA9A JUMP JUMPDEST STOP JUMPDEST PUSH2 0x427 PUSH1 0x4 DUP1 CALLDATASIZE SUB DUP2 ADD SWAP1 PUSH2 0x422 SWAP2 SWAP1 PUSH2 0x23A6 JUMP JUMPDEST PUSH2 0xACF JUMP JUMPDEST STOP JUMPDEST PUSH2 0x443 PUSH1 0x4 DUP1 CALLDATASIZE SUB DUP2 ADD SWAP1 PUSH2 0x43E SWAP2 SWAP1 PUSH2 0x2109 JUMP JUMPDEST PUSH2 0xC6B JUMP JUMPDEST PUSH1 0x40 MLOAD PUSH2 0x450 SWAP2 SWAP1 PUSH2 0x1E6C JUMP JUMPDEST PUSH1 0x40 MLOAD DUP1 SWAP2 SUB SWAP1 RETURN JUMPDEST PUSH2 0x461 PUSH2 0xCCF JUMP JUMPDEST PUSH1 0x40 MLOAD PUSH2 0x46E SWAP2 SWAP1 PUSH2 0x1EF5 JUMP JUMPDEST PUSH1 0x40 MLOAD DUP1 SWAP2 SUB SWAP1 RETURN JUMPDEST PUSH2 0x47F PUSH2 0xD5F JUMP JUMPDEST PUSH1 0x40 MLOAD PUSH2 0x48C SWAP2 SWAP1 PUSH2 0x242B JUMP JUMPDEST PUSH1 0x40 MLOAD DUP1 SWAP2 SUB SWAP1 RETURN JUMPDEST PUSH2 0x49D PUSH2 0xD83 JUMP JUMPDEST PUSH1 0x40 MLOAD PUSH2 0x4AA SWAP2 SWAP1 PUSH2 0x20F0 JUMP JUMPDEST PUSH1 0x40 MLOAD DUP1 SWAP2 SUB SWAP1 RETURN JUMPDEST PUSH2 0x4CD PUSH1 0x4 DUP1 CALLDATASIZE SUB DUP2 ADD SWAP1 PUSH2 0x4C8 SWAP2 SWAP1 PUSH2 0x1FA2 JUMP JUMPDEST PUSH2 0xD89 JUMP JUMPDEST PUSH1 0x40 MLOAD PUSH2 0x4DA SWAP2 SWAP1 PUSH2 0x1E6C JUMP JUMPDEST PUSH1 0x40 MLOAD DUP1 SWAP2 SUB SWAP1 RETURN JUMPDEST PUSH2 0x4EB PUSH2 0xDAB JUMP JUMPDEST PUSH1 0x40 MLOAD PUSH2 0x4F8 SWAP2 SWAP1 PUSH2 0x201A JUMP JUMPDEST PUSH1 0x40 MLOAD DUP1 SWAP2 SUB SWAP1 RETURN JUMPDEST PUSH2 0x51B PUSH1 0x4 DUP1 CALLDATASIZE SUB DUP2 ADD SWAP1 PUSH2 0x516 SWAP2 SWAP1 PUSH2 0x1FE0 JUMP JUMPDEST PUSH2 0xDCF JUMP JUMPDEST STOP JUMPDEST PUSH2 0x525 PUSH2 0xFD5 JUMP JUMPDEST STOP JUMPDEST PUSH2 0x541 PUSH1 0x4 DUP1 CALLDATASIZE SUB DUP2 ADD SWAP1 PUSH2 0x53C SWAP2 SWAP1 PUSH2 0x2109 JUMP JUMPDEST PUSH2 0x119A JUMP JUMPDEST STOP JUMPDEST PUSH2 0x55D PUSH1 0x4 DUP1 CALLDATASIZE SUB DUP2 ADD SWAP1 PUSH2 0x558 SWAP2 SWAP1 PUSH2 0x2444 JUMP JUMPDEST PUSH2 0x11BC JUMP JUMPDEST PUSH1 0x40 MLOAD PUSH2 0x56A SWAP2 SWAP1 PUSH2 0x201A JUMP JUMPDEST PUSH1 0x40 MLOAD DUP1 SWAP2 SUB SWAP1 RETURN JUMPDEST PUSH2 0x57B PUSH2 0x123E JUMP JUMPDEST PUSH1 0x40 MLOAD PUSH2 0x588 SWAP2 SWAP1 PUSH2 0x20F0 JUMP JUMPDEST PUSH1 0x40 MLOAD DUP1 SWAP2 SUB SWAP1 RETURN JUMPDEST PUSH2 0x599 PUSH2 0x1262 JUMP JUMPDEST PUSH1 0x40 MLOAD PUSH2 0x5A6 SWAP2 SWAP1 PUSH2 0x242B JUMP JUMPDEST PUSH1 0x40 MLOAD DUP1 SWAP2 SUB SWAP1 RETURN JUMPDEST PUSH2 0x5C9 PUSH1 0x4 DUP1 CALLDATASIZE SUB DUP2 ADD SWAP1 PUSH2 0x5C4 SWAP2 SWAP1 PUSH2 0x1FA2 JUMP JUMPDEST PUSH2 0x1286 JUMP JUMPDEST STOP JUMPDEST PUSH0 PUSH32 0x7965DB0B00000000000000000000000000000000000000000000000000000000 PUSH28 0xFFFFFFFFFFFFFFFFFFFFFFFFFFFFFFFFFFFFFFFFFFFFFFFFFFFFFFFF NOT AND DUP3 PUSH28 0xFFFFFFFFFFFFFFFFFFFFFFFFFFFFFFFFFFFFFFFFFFFFFFFFFFFFFFFF NOT AND EQ DUP1 PUSH2 0x63D JUMPI POP PUSH2 0x63C DUP3 PUSH2 0x13B1 JUMP JUMPDEST JUMPDEST SWAP1 POP SWAP2 SWAP1 POP JUMP JUMPDEST PUSH1 0x60 PUSH1 0x3 DUP1 SLOAD PUSH2 0x653 SWAP1 PUSH2 0x24AF JUMP JUMPDEST DUP1 PUSH1 0x1F ADD PUSH1 0x20 DUP1 SWAP2 DIV MUL PUSH1 0x20 ADD PUSH1 0x40 MLOAD SWAP1 DUP2 ADD PUSH1 0x40 MSTORE DUP1 SWAP3 SWAP2 SWAP1 DUP2 DUP2 MSTORE PUSH1 0x20 ADD DUP3 DUP1 SLOAD PUSH2 0x67F SWAP1 PUSH2 0x24AF JUMP JUMPDEST DUP1 ISZERO PUSH2 0x6CA JUMPI DUP1 PUSH1 0x1F LT PUSH2 0x6A1 JUMPI PUSH2 0x100 DUP1 DUP4 SLOAD DIV MUL DUP4 MSTORE SWAP2 PUSH1 0x20 ADD SWAP2 PUSH2 0x6CA JUMP JUMPDEST DUP3 ADD SWAP2 SWAP1 PUSH0 MSTORE PUSH1 0x20 PUSH0 KECCAK256 SWAP1 JUMPDEST DUP2 SLOAD DUP2 MSTORE SWAP1 PUSH1 0x1 ADD SWAP1 PUSH1 0x20 ADD DUP1 DUP4 GT PUSH2 0x6AD JUMPI DUP3 SWAP1 SUB PUSH1 0x1F AND DUP3 ADD SWAP2 JUMPDEST POP POP POP POP POP SWAP1 POP SWAP1 JUMP JUMPDEST PUSH0 DUP1 PUSH2 0x6DE PUSH2 0x141A JUMP JUMPDEST SWAP1 POP PUSH2 0x6EB DUP2 DUP6 DUP6 PUSH2 0x1421 JUMP JUMPDEST PUSH1 0x1 SWAP2 POP POP SWAP3 SWAP2 POP POP JUMP JUMPDEST PUSH32 0x0 PUSH20 0xFFFFFFFFFFFFFFFFFFFFFFFFFFFFFFFFFFFFFFFF AND PUSH4 0x23B872DD CALLER ADDRESS PUSH32 0x0 DUP6 PUSH2 0x760 SWAP2 SWAP1 PUSH2 0x250C JUMP JUMPDEST PUSH1 0x40 MLOAD DUP5 PUSH4 0xFFFFFFFF AND PUSH1 0xE0 SHL DUP2 MSTORE PUSH1 0x4 ADD PUSH2 0x77E SWAP4 SWAP3 SWAP2 SWAP1 PUSH2 0x254D JUMP JUMPDEST PUSH1 0x20 PUSH1 0x40 MLOAD DUP1 DUP4 SUB DUP2 PUSH0 DUP8 GAS CALL ISZERO DUP1 ISZERO PUSH2 0x79A JUMPI RETURNDATASIZE PUSH0 DUP1 RETURNDATACOPY RETURNDATASIZE PUSH0 REVERT JUMPDEST POP POP POP POP PUSH1 0x40 MLOAD RETURNDATASIZE PUSH1 0x1F NOT PUSH1 0x1F DUP3 ADD AND DUP3 ADD DUP1 PUSH1 0x40 MSTORE POP DUP2 ADD SWAP1 PUSH2 0x7BE SWAP2 SWAP1 PUSH2 0x25AC JUMP JUMPDEST PUSH2 0x7FD JUMPI PUSH1 0x40 MLOAD PUSH32 0x8C379A000000000000000000000000000000000000000000000000000000000 DUP2 MSTORE PUSH1 0x4 ADD PUSH2 0x7F4 SWAP1 PUSH2 0x2621 JUMP JUMPDEST PUSH1 0x40 MLOAD DUP1 SWAP2 SUB SWAP1 REVERT JUMPDEST ADDRESS PUSH20 0xFFFFFFFFFFFFFFFFFFFFFFFFFFFFFFFFFFFFFFFF AND PUSH4 0xA9059CBB CALLER DUP4 PUSH1 0x40 MLOAD DUP4 PUSH4 0xFFFFFFFF AND PUSH1 0xE0 SHL DUP2 MSTORE PUSH1 0x4 ADD PUSH2 0x838 SWAP3 SWAP2 SWAP1 PUSH2 0x263F JUMP JUMPDEST PUSH1 0x20 PUSH1 0x40 MLOAD DUP1 DUP4 SUB DUP2 PUSH0 DUP8 GAS CALL ISZERO DUP1 ISZERO PUSH2 0x854 JUMPI RETURNDATASIZE PUSH0 DUP1 RETURNDATACOPY RETURNDATASIZE PUSH0 REVERT JUMPDEST POP POP POP POP PUSH1 0x40 MLOAD RETURNDATASIZE PUSH1 0x1F NOT PUSH1 0x1F DUP3 ADD AND DUP3 ADD DUP1 PUSH1 0x40 MSTORE POP DUP2 ADD SWAP1 PUSH2 0x878 SWAP2 SWAP1 PUSH2 0x25AC JUMP JUMPDEST PUSH2 0x8B7 JUMPI PUSH1 0x40 MLOAD PUSH32 0x8C379A000000000000000000000000000000000000000000000000000000000 DUP2 MSTORE PUSH1 0x4 ADD PUSH2 0x8AE SWAP1 PUSH2 0x26B0 JUMP JUMPDEST PUSH1 0x40 MLOAD DUP1 SWAP2 SUB SWAP1 REVERT JUMPDEST POP JUMP JUMPDEST PUSH0 PUSH1 0x2 SLOAD SWAP1 POP SWAP1 JUMP JUMPDEST PUSH0 DUP1 PUSH2 0x8CD PUSH2 0x141A JUMP JUMPDEST SWAP1 POP PUSH2 0x8DA DUP6 DUP3 DUP6 PUSH2 0x1433 JUMP JUMPDEST PUSH2 0x8E5 DUP6 DUP6 DUP6 PUSH2 0x14C5 JUMP JUMPDEST PUSH1 0x1 SWAP2 POP POP SWAP4 SWAP3 POP POP POP JUMP JUMPDEST PUSH0 PUSH1 0x6 PUSH0 DUP4 DUP2 MSTORE PUSH1 0x20 ADD SWAP1 DUP2 MSTORE PUSH1 0x20 ADD PUSH0 KECCAK256 PUSH1 0x1 ADD SLOAD SWAP1 POP SWAP2 SWAP1 POP JUMP JUMPDEST PUSH32 0xDF8B4C520FFE197C5343C6F5AEC59570151EF9A492F2C624FD45DDDE6135EC42 DUP2 JUMP JUMPDEST PUSH2 0x93B DUP3 PUSH2 0x8F1 JUMP JUMPDEST PUSH2 0x944 DUP2 PUSH2 0x15B5 JUMP JUMPDEST PUSH2 0x94E DUP4 DUP4 PUSH2 0x15C9 JUMP JUMPDEST POP POP POP POP JUMP JUMPDEST PUSH0 PUSH1 0x12 SWAP1 POP SWAP1 JUMP JUMPDEST PUSH2 0x964 PUSH2 0x141A JUMP JUMPDEST PUSH20 0xFFFFFFFFFFFFFFFFFFFFFFFFFFFFFFFFFFFFFFFF AND DUP2 PUSH20 0xFFFFFFFFFFFFFFFFFFFFFFFFFFFFFFFFFFFFFFFF AND EQ PUSH2 0x9C8 JUMPI PUSH1 0x40 MLOAD PUSH32 0x6697B23200000000000000000000000000000000000000000000000000000000 DUP2 MSTORE PUSH1 0x4 ADD PUSH1 0x40 MLOAD DUP1 SWAP2 SUB SWAP1 REVERT JUMPDEST PUSH2 0x9D2 DUP3 DUP3 PUSH2 0x16B3 JUMP JUMPDEST POP POP POP JUMP JUMPDEST PUSH32 0xDF8B4C520FFE197C5343C6F5AEC59570151EF9A492F2C624FD45DDDE6135EC42 PUSH2 0xA01 DUP2 PUSH2 0x15B5 JUMP JUMPDEST PUSH2 0xA09 PUSH2 0x179D JUMP JUMPDEST POP JUMP JUMPDEST PUSH2 0xA1D PUSH2 0xA17 PUSH2 0x141A JUMP JUMPDEST DUP3 PUSH2 0x17FE JUMP JUMPDEST POP JUMP JUMPDEST PUSH0 PUSH1 0x5 PUSH0 SWAP1 SLOAD SWAP1 PUSH2 0x100 EXP SWAP1 DIV PUSH1 0xFF AND SWAP1 POP SWAP1 JUMP JUMPDEST PUSH0 DUP1 PUSH0 DUP4 PUSH20 0xFFFFFFFFFFFFFFFFFFFFFFFFFFFFFFFFFFFFFFFF AND PUSH20 0xFFFFFFFFFFFFFFFFFFFFFFFFFFFFFFFFFFFFFFFF AND DUP2 MSTORE PUSH1 0x20 ADD SWAP1 DUP2 MSTORE PUSH1 0x20 ADD PUSH0 KECCAK256 SLOAD SWAP1 POP SWAP2 SWAP1 POP JUMP JUMPDEST PUSH2 0xA8C DUP3 PUSH2 0xA86 PUSH2 0x141A JUMP JUMPDEST DUP4 PUSH2 0x1433 JUMP JUMPDEST PUSH2 0xA96 DUP3 DUP3 PUSH2 0x17FE JUMP JUMPDEST POP POP JUMP JUMPDEST PUSH32 0xDF8B4C520FFE197C5343C6F5AEC59570151EF9A492F2C624FD45DDDE6135EC42 PUSH2 0xAC4 DUP2 PUSH2 0x15B5 JUMP JUMPDEST PUSH2 0xACC PUSH2 0x187D JUMP JUMPDEST POP JUMP JUMPDEST PUSH32 0xDF8B4C520FFE197C5343C6F5AEC59570151EF9A492F2C624FD45DDDE6135EC42 PUSH2 0xAF9 DUP2 PUSH2 0x15B5 JUMP JUMPDEST DUP2 MLOAD DUP4 MLOAD EQ PUSH2 0xB3D JUMPI PUSH1 0x40 MLOAD PUSH32 0x8C379A000000000000000000000000000000000000000000000000000000000 DUP2 MSTORE PUSH1 0x4 ADD PUSH2 0xB34 SWAP1 PUSH2 0x273E JUMP JUMPDEST PUSH1 0x40 MLOAD DUP1 SWAP2 SUB SWAP1 REVERT JUMPDEST PUSH0 JUMPDEST DUP4 MLOAD DUP2 LT ISZERO PUSH2 0xC65 JUMPI PUSH32 0x0 PUSH20 0xFFFFFFFFFFFFFFFFFFFFFFFFFFFFFFFFFFFFFFFF AND PUSH4 0x23B872DD CALLER DUP7 DUP5 DUP2 MLOAD DUP2 LT PUSH2 0xB98 JUMPI PUSH2 0xB97 PUSH2 0x275C JUMP JUMPDEST JUMPDEST PUSH1 0x20 MUL PUSH1 0x20 ADD ADD MLOAD DUP7 DUP6 DUP2 MLOAD DUP2 LT PUSH2 0xBB3 JUMPI PUSH2 0xBB2 PUSH2 0x275C JUMP JUMPDEST JUMPDEST PUSH1 0x20 MUL PUSH1 0x20 ADD ADD MLOAD PUSH1 0x40 MLOAD DUP5 PUSH4 0xFFFFFFFF AND PUSH1 0xE0 SHL DUP2 MSTORE PUSH1 0x4 ADD PUSH2 0xBD9 SWAP4 SWAP3 SWAP2 SWAP1 PUSH2 0x254D JUMP JUMPDEST PUSH1 0x20 PUSH1 0x40 MLOAD DUP1 DUP4 SUB DUP2 PUSH0 DUP8 GAS CALL ISZERO DUP1 ISZERO PUSH2 0xBF5 JUMPI RETURNDATASIZE PUSH0 DUP1 RETURNDATACOPY RETURNDATASIZE PUSH0 REVERT JUMPDEST POP POP POP POP PUSH1 0x40 MLOAD RETURNDATASIZE PUSH1 0x1F NOT PUSH1 0x1F DUP3 ADD AND DUP3 ADD DUP1 PUSH1 0x40 MSTORE POP DUP2 ADD SWAP1 PUSH2 0xC19 SWAP2 SWAP1 PUSH2 0x25AC JUMP JUMPDEST PUSH2 0xC58 JUMPI PUSH1 0x40 MLOAD PUSH32 0x8C379A000000000000000000000000000000000000000000000000000000000 DUP2 MSTORE PUSH1 0x4 ADD PUSH2 0xC4F SWAP1 PUSH2 0x27D3 JUMP JUMPDEST PUSH1 0x40 MLOAD DUP1 SWAP2 SUB SWAP1 REVERT JUMPDEST DUP1 DUP1 PUSH1 0x1 ADD SWAP2 POP POP PUSH2 0xB3F JUMP JUMPDEST POP POP POP POP JUMP JUMPDEST PUSH0 PUSH1 0x6 PUSH0 DUP5 DUP2 MSTORE PUSH1 0x20 ADD SWAP1 DUP2 MSTORE PUSH1 0x20 ADD PUSH0 KECCAK256 PUSH0 ADD PUSH0 DUP4 PUSH20 0xFFFFFFFFFFFFFFFFFFFFFFFFFFFFFFFFFFFFFFFF AND PUSH20 0xFFFFFFFFFFFFFFFFFFFFFFFFFFFFFFFFFFFFFFFF AND DUP2 MSTORE PUSH1 0x20 ADD SWAP1 DUP2 MSTORE PUSH1 0x20 ADD PUSH0 KECCAK256 PUSH0 SWAP1 SLOAD SWAP1 PUSH2 0x100 EXP SWAP1 DIV PUSH1 0xFF AND SWAP1 POP SWAP3 SWAP2 POP POP JUMP JUMPDEST PUSH1 0x60 PUSH1 0x4 DUP1 SLOAD PUSH2 0xCDE SWAP1 PUSH2 0x24AF JUMP JUMPDEST DUP1 PUSH1 0x1F ADD PUSH1 0x20 DUP1 SWAP2 DIV MUL PUSH1 0x20 ADD PUSH1 0x40 MLOAD SWAP1 DUP2 ADD PUSH1 0x40 MSTORE DUP1 SWAP3 SWAP2 SWAP1 DUP2 DUP2 MSTORE PUSH1 0x20 ADD DUP3 DUP1 SLOAD PUSH2 0xD0A SWAP1 PUSH2 0x24AF JUMP JUMPDEST DUP1 ISZERO PUSH2 0xD55 JUMPI DUP1 PUSH1 0x1F LT PUSH2 0xD2C JUMPI PUSH2 0x100 DUP1 DUP4 SLOAD DIV MUL DUP4 MSTORE SWAP2 PUSH1 0x20 ADD SWAP2 PUSH2 0xD55 JUMP JUMPDEST DUP3 ADD SWAP2 SWAP1 PUSH0 MSTORE PUSH1 0x20 PUSH0 KECCAK256 SWAP1 JUMPDEST DUP2 SLOAD DUP2 MSTORE SWAP1 PUSH1 0x1 ADD SWAP1 PUSH1 0x20 ADD DUP1 DUP4 GT PUSH2 0xD38 JUMPI DUP3 SWAP1 SUB PUSH1 0x1F AND DUP3 ADD SWAP2 JUMPDEST POP POP POP POP POP SWAP1 POP SWAP1 JUMP JUMPDEST PUSH32 0x0 DUP2 JUMP JUMPDEST PUSH0 DUP1 SHL DUP2 JUMP JUMPDEST PUSH0 DUP1 PUSH2 0xD93 PUSH2 0x141A JUMP JUMPDEST SWAP1 POP PUSH2 0xDA0 DUP2 DUP6 DUP6 PUSH2 0x14C5 JUMP JUMPDEST PUSH1 0x1 SWAP2 POP POP SWAP3 SWAP2 POP POP JUMP JUMPDEST PUSH32 0x0 DUP2 JUMP JUMPDEST PUSH0 DUP2 GT PUSH2 0xE11 JUMPI PUSH1 0x40 MLOAD PUSH32 0x8C379A000000000000000000000000000000000000000000000000000000000 DUP2 MSTORE PUSH1 0x4 ADD PUSH2 0xE08 SWAP1 PUSH2 0x283B JUMP JUMPDEST PUSH1 0x40 MLOAD DUP1 SWAP2 SUB SWAP1 REVERT JUMPDEST ADDRESS PUSH20 0xFFFFFFFFFFFFFFFFFFFFFFFFFFFFFFFFFFFFFFFF AND PUSH4 0x23B872DD CALLER ADDRESS DUP5 PUSH1 0x40 MLOAD DUP5 PUSH4 0xFFFFFFFF AND PUSH1 0xE0 SHL DUP2 MSTORE PUSH1 0x4 ADD PUSH2 0xE4E SWAP4 SWAP3 SWAP2 SWAP1 PUSH2 0x254D JUMP JUMPDEST PUSH1 0x20 PUSH1 0x40 MLOAD DUP1 DUP4 SUB DUP2 PUSH0 DUP8 GAS CALL ISZERO DUP1 ISZERO PUSH2 0xE6A JUMPI RETURNDATASIZE PUSH0 DUP1 RETURNDATACOPY RETURNDATASIZE PUSH0 REVERT JUMPDEST POP POP POP POP PUSH1 0x40 MLOAD RETURNDATASIZE PUSH1 0x1F NOT PUSH1 0x1F DUP3 ADD AND DUP3 ADD DUP1 PUSH1 0x40 MSTORE POP DUP2 ADD SWAP1 PUSH2 0xE8E SWAP2 SWAP1 PUSH2 0x25AC JUMP JUMPDEST PUSH2 0xECD JUMPI PUSH1 0x40 MLOAD PUSH32 0x8C379A000000000000000000000000000000000000000000000000000000000 DUP2 MSTORE PUSH1 0x4 ADD PUSH2 0xEC4 SWAP1 PUSH2 0x26B0 JUMP JUMPDEST PUSH1 0x40 MLOAD DUP1 SWAP2 SUB SWAP1 REVERT JUMPDEST PUSH32 0x0 PUSH20 0xFFFFFFFFFFFFFFFFFFFFFFFFFFFFFFFFFFFFFFFF AND PUSH4 0xA9059CBB CALLER PUSH32 0x0 DUP5 PUSH2 0xF36 SWAP2 SWAP1 PUSH2 0x250C JUMP JUMPDEST PUSH1 0x40 MLOAD DUP4 PUSH4 0xFFFFFFFF AND PUSH1 0xE0 SHL DUP2 MSTORE PUSH1 0x4 ADD PUSH2 0xF53 SWAP3 SWAP2 SWAP1 PUSH2 0x263F JUMP JUMPDEST PUSH1 0x20 PUSH1 0x40 MLOAD DUP1 DUP4 SUB DUP2 PUSH0 DUP8 GAS CALL ISZERO DUP1 ISZERO PUSH2 0xF6F JUMPI RETURNDATASIZE PUSH0 DUP1 RETURNDATACOPY RETURNDATASIZE PUSH0 REVERT JUMPDEST POP POP POP POP PUSH1 0x40 MLOAD RETURNDATASIZE PUSH1 0x1F NOT PUSH1 0x1F DUP3 ADD AND DUP3 ADD DUP1 PUSH1 0x40 MSTORE POP DUP2 ADD SWAP1 PUSH2 0xF93 SWAP2 SWAP1 PUSH2 0x25AC JUMP JUMPDEST PUSH2 0xFD2 JUMPI PUSH1 0x40 MLOAD PUSH32 0x8C379A000000000000000000000000000000000000000000000000000000000 DUP2 MSTORE PUSH1 0x4 ADD PUSH2 0xFC9 SWAP1 PUSH2 0x26B0 JUMP JUMPDEST PUSH1 0x40 MLOAD DUP1 SWAP2 SUB SWAP1 REVERT JUMPDEST POP JUMP JUMPDEST PUSH32 0xF877234297EF562D54F0328F892ACFC1D6C1E44CA89F02E3A2C2A4736F6095B7 PUSH2 0xFFF DUP2 PUSH2 0x15B5 JUMP JUMPDEST PUSH0 PUSH32 0x0 PUSH20 0xFFFFFFFFFFFFFFFFFFFFFFFFFFFFFFFFFFFFFFFF AND PUSH4 0x70A08231 ADDRESS PUSH1 0x40 MLOAD DUP3 PUSH4 0xFFFFFFFF AND PUSH1 0xE0 SHL DUP2 MSTORE PUSH1 0x4 ADD PUSH2 0x1059 SWAP2 SWAP1 PUSH2 0x242B JUMP JUMPDEST PUSH1 0x20 PUSH1 0x40 MLOAD DUP1 DUP4 SUB DUP2 DUP7 GAS STATICCALL ISZERO DUP1 ISZERO PUSH2 0x1074 JUMPI RETURNDATASIZE PUSH0 DUP1 RETURNDATACOPY RETURNDATASIZE PUSH0 REVERT JUMPDEST POP POP POP POP PUSH1 0x40 MLOAD RETURNDATASIZE PUSH1 0x1F NOT PUSH1 0x1F DUP3 ADD AND DUP3 ADD DUP1 PUSH1 0x40 MSTORE POP DUP2 ADD SWAP1 PUSH2 0x1098 SWAP2 SWAP1 PUSH2 0x286D JUMP JUMPDEST SWAP1 POP PUSH0 DUP2 GT PUSH2 0x10DC JUMPI PUSH1 0x40 MLOAD PUSH32 0x8C379A000000000000000000000000000000000000000000000000000000000 DUP2 MSTORE PUSH1 0x4 ADD PUSH2 0x10D3 SWAP1 PUSH2 0x28E2 JUMP JUMPDEST PUSH1 0x40 MLOAD DUP1 SWAP2 SUB SWAP1 REVERT JUMPDEST ADDRESS PUSH20 0xFFFFFFFFFFFFFFFFFFFFFFFFFFFFFFFFFFFFFFFF AND PUSH4 0xA9059CBB CALLER DUP4 PUSH1 0x40 MLOAD DUP4 PUSH4 0xFFFFFFFF AND PUSH1 0xE0 SHL DUP2 MSTORE PUSH1 0x4 ADD PUSH2 0x1117 SWAP3 SWAP2 SWAP1 PUSH2 0x263F JUMP JUMPDEST PUSH1 0x20 PUSH1 0x40 MLOAD DUP1 DUP4 SUB DUP2 PUSH0 DUP8 GAS CALL ISZERO DUP1 ISZERO PUSH2 0x1133 JUMPI RETURNDATASIZE PUSH0 DUP1 RETURNDATACOPY RETURNDATASIZE PUSH0 REVERT JUMPDEST POP POP POP POP PUSH1 0x40 MLOAD RETURNDATASIZE PUSH1 0x1F NOT PUSH1 0x1F DUP3 ADD AND DUP3 ADD DUP1 PUSH1 0x40 MSTORE POP DUP2 ADD SWAP1 PUSH2 0x1157 SWAP2 SWAP1 PUSH2 0x25AC JUMP JUMPDEST PUSH2 0x1196 JUMPI PUSH1 0x40 MLOAD PUSH32 0x8C379A000000000000000000000000000000000000000000000000000000000 DUP2 MSTORE PUSH1 0x4 ADD PUSH2 0x118D SWAP1 PUSH2 0x294A JUMP JUMPDEST PUSH1 0x40 MLOAD DUP1 SWAP2 SUB SWAP1 REVERT JUMPDEST POP POP JUMP JUMPDEST PUSH2 0x11A3 DUP3 PUSH2 0x8F1 JUMP JUMPDEST PUSH2 0x11AC DUP2 PUSH2 0x15B5 JUMP JUMPDEST PUSH2 0x11B6 DUP4 DUP4 PUSH2 0x16B3 JUMP JUMPDEST POP POP POP POP JUMP JUMPDEST PUSH0 PUSH1 0x1 PUSH0 DUP5 PUSH20 0xFFFFFFFFFFFFFFFFFFFFFFFFFFFFFFFFFFFFFFFF AND PUSH20 0xFFFFFFFFFFFFFFFFFFFFFFFFFFFFFFFFFFFFFFFF AND DUP2 MSTORE PUSH1 0x20 ADD SWAP1 DUP2 MSTORE PUSH1 0x20 ADD PUSH0 KECCAK256 PUSH0 DUP4 PUSH20 0xFFFFFFFFFFFFFFFFFFFFFFFFFFFFFFFFFFFFFFFF AND PUSH20 0xFFFFFFFFFFFFFFFFFFFFFFFFFFFFFFFFFFFFFFFF AND DUP2 MSTORE PUSH1 0x20 ADD SWAP1 DUP2 MSTORE PUSH1 0x20 ADD PUSH0 KECCAK256 SLOAD SWAP1 POP SWAP3 SWAP2 POP POP JUMP JUMPDEST PUSH32 0xF877234297EF562D54F0328F892ACFC1D6C1E44CA89F02E3A2C2A4736F6095B7 DUP2 JUMP JUMPDEST PUSH32 0x0 DUP2 JUMP JUMPDEST PUSH32 0xDF8B4C520FFE197C5343C6F5AEC59570151EF9A492F2C624FD45DDDE6135EC42 PUSH2 0x12B0 DUP2 PUSH2 0x15B5 JUMP JUMPDEST PUSH32 0x0 PUSH20 0xFFFFFFFFFFFFFFFFFFFFFFFFFFFFFFFFFFFFFFFF AND PUSH4 0x23B872DD PUSH32 0x0 DUP6 DUP6 PUSH1 0x40 MLOAD DUP5 PUSH4 0xFFFFFFFF AND PUSH1 0xE0 SHL DUP2 MSTORE PUSH1 0x4 ADD PUSH2 0x132D SWAP4 SWAP3 SWAP2 SWAP1 PUSH2 0x254D JUMP JUMPDEST PUSH1 0x20 PUSH1 0x40 MLOAD DUP1 DUP4 SUB DUP2 PUSH0 DUP8 GAS CALL ISZERO DUP1 ISZERO PUSH2 0x1349 JUMPI RETURNDATASIZE PUSH0 DUP1 RETURNDATACOPY RETURNDATASIZE PUSH0 REVERT JUMPDEST POP POP POP POP PUSH1 0x40 MLOAD RETURNDATASIZE PUSH1 0x1F NOT PUSH1 0x1F DUP3 ADD AND DUP3 ADD DUP1 PUSH1 0x40 MSTORE POP DUP2 ADD SWAP1 PUSH2 0x136D SWAP2 SWAP1 PUSH2 0x25AC JUMP JUMPDEST PUSH2 0x13AC JUMPI PUSH1 0x40 MLOAD PUSH32 0x8C379A000000000000000000000000000000000000000000000000000000000 DUP2 MSTORE PUSH1 0x4 ADD PUSH2 0x13A3 SWAP1 PUSH2 0x27D3 JUMP JUMPDEST PUSH1 0x40 MLOAD DUP1 SWAP2 SUB SWAP1 REVERT JUMPDEST POP POP POP JUMP JUMPDEST PUSH0 PUSH32 0x1FFC9A700000000000000000000000000000000000000000000000000000000 PUSH28 0xFFFFFFFFFFFFFFFFFFFFFFFFFFFFFFFFFFFFFFFFFFFFFFFFFFFFFFFF NOT AND DUP3 PUSH28 0xFFFFFFFFFFFFFFFFFFFFFFFFFFFFFFFFFFFFFFFFFFFFFFFFFFFFFFFF NOT AND EQ SWAP1 POP SWAP2 SWAP1 POP JUMP JUMPDEST PUSH0 CALLER SWAP1 POP SWAP1 JUMP JUMPDEST PUSH2 0x142E DUP4 DUP4 DUP4 PUSH1 0x1 PUSH2 0x18DF JUMP JUMPDEST POP POP POP JUMP JUMPDEST PUSH0 PUSH2 0x143E DUP5 DUP5 PUSH2 0x11BC JUMP JUMPDEST SWAP1 POP PUSH32 0xFFFFFFFFFFFFFFFFFFFFFFFFFFFFFFFFFFFFFFFFFFFFFFFFFFFFFFFFFFFFFFFF DUP2 EQ PUSH2 0x14BF JUMPI DUP2 DUP2 LT ISZERO PUSH2 0x14B0 JUMPI DUP3 DUP2 DUP4 PUSH1 0x40 MLOAD PUSH32 0xFB8F41B200000000000000000000000000000000000000000000000000000000 DUP2 MSTORE PUSH1 0x4 ADD PUSH2 0x14A7 SWAP4 SWAP3 SWAP2 SWAP1 PUSH2 0x2968 JUMP JUMPDEST PUSH1 0x40 MLOAD DUP1 SWAP2 SUB SWAP1 REVERT JUMPDEST PUSH2 0x14BE DUP5 DUP5 DUP5 DUP5 SUB PUSH0 PUSH2 0x18DF JUMP JUMPDEST JUMPDEST POP POP POP POP JUMP JUMPDEST PUSH0 PUSH20 0xFFFFFFFFFFFFFFFFFFFFFFFFFFFFFFFFFFFFFFFF AND DUP4 PUSH20 0xFFFFFFFFFFFFFFFFFFFFFFFFFFFFFFFFFFFFFFFF AND SUB PUSH2 0x1535 JUMPI PUSH0 PUSH1 0x40 MLOAD PUSH32 0x96C6FD1E00000000000000000000000000000000000000000000000000000000 DUP2 MSTORE PUSH1 0x4 ADD PUSH2 0x152C SWAP2 SWAP1 PUSH2 0x242B JUMP JUMPDEST PUSH1 0x40 MLOAD DUP1 SWAP2 SUB SWAP1 REVERT JUMPDEST PUSH0 PUSH20 0xFFFFFFFFFFFFFFFFFFFFFFFFFFFFFFFFFFFFFFFF AND DUP3 PUSH20 0xFFFFFFFFFFFFFFFFFFFFFFFFFFFFFFFFFFFFFFFF AND SUB PUSH2 0x15A5 JUMPI PUSH0 PUSH1 0x40 MLOAD PUSH32 0xEC442F0500000000000000000000000000000000000000000000000000000000 DUP2 MSTORE PUSH1 0x4 ADD PUSH2 0x159C SWAP2 SWAP1 PUSH2 0x242B JUMP JUMPDEST PUSH1 0x40 MLOAD DUP1 SWAP2 SUB SWAP1 REVERT JUMPDEST PUSH2 0x15B0 DUP4 DUP4 DUP4 PUSH2 0x1AAE JUMP JUMPDEST POP POP POP JUMP JUMPDEST PUSH2 0x15C6 DUP2 PUSH2 0x15C1 PUSH2 0x141A JUMP JUMPDEST PUSH2 0x1ABE JUMP JUMPDEST POP JUMP JUMPDEST PUSH0 PUSH2 0x15D4 DUP4 DUP4 PUSH2 0xC6B JUMP JUMPDEST PUSH2 0x16A9 JUMPI PUSH1 0x1 PUSH1 0x6 PUSH0 DUP6 DUP2 MSTORE PUSH1 0x20 ADD SWAP1 DUP2 MSTORE PUSH1 0x20 ADD PUSH0 KECCAK256 PUSH0 ADD PUSH0 DUP5 PUSH20 0xFFFFFFFFFFFFFFFFFFFFFFFFFFFFFFFFFFFFFFFF AND PUSH20 0xFFFFFFFFFFFFFFFFFFFFFFFFFFFFFFFFFFFFFFFF AND DUP2 MSTORE PUSH1 0x20 ADD SWAP1 DUP2 MSTORE PUSH1 0x20 ADD PUSH0 KECCAK256 PUSH0 PUSH2 0x100 EXP DUP2 SLOAD DUP2 PUSH1 0xFF MUL NOT AND SWAP1 DUP4 ISZERO ISZERO MUL OR SWAP1 SSTORE POP PUSH2 0x1646 PUSH2 0x141A JUMP JUMPDEST PUSH20 0xFFFFFFFFFFFFFFFFFFFFFFFFFFFFFFFFFFFFFFFF AND DUP3 PUSH20 0xFFFFFFFFFFFFFFFFFFFFFFFFFFFFFFFFFFFFFFFF AND DUP5 PUSH32 0x2F8788117E7EFF1D82E926EC794901D17C78024A50270940304540A733656F0D PUSH1 0x40 MLOAD PUSH1 0x40 MLOAD DUP1 SWAP2 SUB SWAP1 LOG4 PUSH1 0x1 SWAP1 POP PUSH2 0x16AD JUMP JUMPDEST PUSH0 SWAP1 POP JUMPDEST SWAP3 SWAP2 POP POP JUMP JUMPDEST PUSH0 PUSH2 0x16BE DUP4 DUP4 PUSH2 0xC6B JUMP JUMPDEST ISZERO PUSH2 0x1793 JUMPI PUSH0 PUSH1 0x6 PUSH0 DUP6 DUP2 MSTORE PUSH1 0x20 ADD SWAP1 DUP2 MSTORE PUSH1 0x20 ADD PUSH0 KECCAK256 PUSH0 ADD PUSH0 DUP5 PUSH20 0xFFFFFFFFFFFFFFFFFFFFFFFFFFFFFFFFFFFFFFFF AND PUSH20 0xFFFFFFFFFFFFFFFFFFFFFFFFFFFFFFFFFFFFFFFF AND DUP2 MSTORE PUSH1 0x20 ADD SWAP1 DUP2 MSTORE PUSH1 0x20 ADD PUSH0 KECCAK256 PUSH0 PUSH2 0x100 EXP DUP2 SLOAD DUP2 PUSH1 0xFF MUL NOT AND SWAP1 DUP4 ISZERO ISZERO MUL OR SWAP1 SSTORE POP PUSH2 0x1730 PUSH2 0x141A JUMP JUMPDEST PUSH20 0xFFFFFFFFFFFFFFFFFFFFFFFFFFFFFFFFFFFFFFFF AND DUP3 PUSH20 0xFFFFFFFFFFFFFFFFFFFFFFFFFFFFFFFFFFFFFFFF AND DUP5 PUSH32 0xF6391F5C32D9C69D2A47EA670B442974B53935D1EDC7FD64EB21E047A839171B PUSH1 0x40 MLOAD PUSH1 0x40 MLOAD DUP1 SWAP2 SUB SWAP1 LOG4 PUSH1 0x1 SWAP1 POP PUSH2 0x1797 JUMP JUMPDEST PUSH0 SWAP1 POP JUMPDEST SWAP3 SWAP2 POP POP JUMP JUMPDEST PUSH2 0x17A5 PUSH2 0x1B0F JUMP JUMPDEST PUSH0 PUSH1 0x5 PUSH0 PUSH2 0x100 EXP DUP2 SLOAD DUP2 PUSH1 0xFF MUL NOT AND SWAP1 DUP4 ISZERO ISZERO MUL OR SWAP1 SSTORE POP PUSH32 0x5DB9EE0A495BF2E6FF9C91A7834C1BA4FDD244A5E8AA4E537BD38AEAE4B073AA PUSH2 0x17E7 PUSH2 0x141A JUMP JUMPDEST PUSH1 0x40 MLOAD PUSH2 0x17F4 SWAP2 SWAP1 PUSH2 0x242B JUMP JUMPDEST PUSH1 0x40 MLOAD DUP1 SWAP2 SUB SWAP1 LOG1 JUMP JUMPDEST PUSH0 PUSH20 0xFFFFFFFFFFFFFFFFFFFFFFFFFFFFFFFFFFFFFFFF AND DUP3 PUSH20 0xFFFFFFFFFFFFFFFFFFFFFFFFFFFFFFFFFFFFFFFF AND SUB PUSH2 0x186E JUMPI PUSH0 PUSH1 0x40 MLOAD PUSH32 0x96C6FD1E00000000000000000000000000000000000000000000000000000000 DUP2 MSTORE PUSH1 0x4 ADD PUSH2 0x1865 SWAP2 SWAP1 PUSH2 0x242B JUMP JUMPDEST PUSH1 0x40 MLOAD DUP1 SWAP2 SUB SWAP1 REVERT JUMPDEST PUSH2 0x1879 DUP3 PUSH0 DUP4 PUSH2 0x1AAE JUMP JUMPDEST POP POP JUMP JUMPDEST PUSH2 0x1885 PUSH2 0x1B4F JUMP JUMPDEST PUSH1 0x1 PUSH1 0x5 PUSH0 PUSH2 0x100 EXP DUP2 SLOAD DUP2 PUSH1 0xFF MUL NOT AND SWAP1 DUP4 ISZERO ISZERO MUL OR SWAP1 SSTORE POP PUSH32 0x62E78CEA01BEE320CD4E420270B5EA74000D11B0C9F74754EBDBFC544B05A258 PUSH2 0x18C8 PUSH2 0x141A JUMP JUMPDEST PUSH1 0x40 MLOAD PUSH2 0x18D5 SWAP2 SWAP1 PUSH2 0x242B JUMP JUMPDEST PUSH1 0x40 MLOAD DUP1 SWAP2 SUB SWAP1 LOG1 JUMP JUMPDEST PUSH0 PUSH20 0xFFFFFFFFFFFFFFFFFFFFFFFFFFFFFFFFFFFFFFFF AND DUP5 PUSH20 0xFFFFFFFFFFFFFFFFFFFFFFFFFFFFFFFFFFFFFFFF AND SUB PUSH2 0x194F JUMPI PUSH0 PUSH1 0x40 MLOAD PUSH32 0xE602DF0500000000000000000000000000000000000000000000000000000000 DUP2 MSTORE PUSH1 0x4 ADD PUSH2 0x1946 SWAP2 SWAP1 PUSH2 0x242B JUMP JUMPDEST PUSH1 0x40 MLOAD DUP1 SWAP2 SUB SWAP1 REVERT JUMPDEST PUSH0 PUSH20 0xFFFFFFFFFFFFFFFFFFFFFFFFFFFFFFFFFFFFFFFF AND DUP4 PUSH20 0xFFFFFFFFFFFFFFFFFFFFFFFFFFFFFFFFFFFFFFFF AND SUB PUSH2 0x19BF JUMPI PUSH0 PUSH1 0x40 MLOAD PUSH32 0x94280D6200000000000000000000000000000000000000000000000000000000 DUP2 MSTORE PUSH1 0x4 ADD PUSH2 0x19B6 SWAP2 SWAP1 PUSH2 0x242B JUMP JUMPDEST PUSH1 0x40 MLOAD DUP1 SWAP2 SUB SWAP1 REVERT JUMPDEST DUP2 PUSH1 0x1 PUSH0 DUP7 PUSH20 0xFFFFFFFFFFFFFFFFFFFFFFFFFFFFFFFFFFFFFFFF AND PUSH20 0xFFFFFFFFFFFFFFFFFFFFFFFFFFFFFFFFFFFFFFFF AND DUP2 MSTORE PUSH1 0x20 ADD SWAP1 DUP2 MSTORE PUSH1 0x20 ADD PUSH0 KECCAK256 PUSH0 DUP6 PUSH20 0xFFFFFFFFFFFFFFFFFFFFFFFFFFFFFFFFFFFFFFFF AND PUSH20 0xFFFFFFFFFFFFFFFFFFFFFFFFFFFFFFFFFFFFFFFF AND DUP2 MSTORE PUSH1 0x20 ADD SWAP1 DUP2 MSTORE PUSH1 0x20 ADD PUSH0 KECCAK256 DUP2 SWAP1 SSTORE POP DUP1 ISZERO PUSH2 0x1AA8 JUMPI DUP3 PUSH20 0xFFFFFFFFFFFFFFFFFFFFFFFFFFFFFFFFFFFFFFFF AND DUP5 PUSH20 0xFFFFFFFFFFFFFFFFFFFFFFFFFFFFFFFFFFFFFFFF AND PUSH32 0x8C5BE1E5EBEC7D5BD14F71427D1E84F3DD0314C0F7B2291E5B200AC8C7C3B925 DUP5 PUSH1 0x40 MLOAD PUSH2 0x1A9F SWAP2 SWAP1 PUSH2 0x201A JUMP JUMPDEST PUSH1 0x40 MLOAD DUP1 SWAP2 SUB SWAP1 LOG3 JUMPDEST POP POP POP POP JUMP JUMPDEST PUSH2 0x1AB9 DUP4 DUP4 DUP4 PUSH2 0x1B90 JUMP JUMPDEST POP POP POP JUMP JUMPDEST PUSH2 0x1AC8 DUP3 DUP3 PUSH2 0xC6B JUMP JUMPDEST PUSH2 0x1B0B JUMPI DUP1 DUP3 PUSH1 0x40 MLOAD PUSH32 0xE2517D3F00000000000000000000000000000000000000000000000000000000 DUP2 MSTORE PUSH1 0x4 ADD PUSH2 0x1B02 SWAP3 SWAP2 SWAP1 PUSH2 0x299D JUMP JUMPDEST PUSH1 0x40 MLOAD DUP1 SWAP2 SUB SWAP1 REVERT JUMPDEST POP POP JUMP JUMPDEST PUSH2 0x1B17 PUSH2 0xA20 JUMP JUMPDEST PUSH2 0x1B4D JUMPI PUSH1 0x40 MLOAD PUSH32 0x8DFC202B00000000000000000000000000000000000000000000000000000000 DUP2 MSTORE PUSH1 0x4 ADD PUSH1 0x40 MLOAD DUP1 SWAP2 SUB SWAP1 REVERT JUMPDEST JUMP JUMPDEST PUSH2 0x1B57 PUSH2 0xA20 JUMP JUMPDEST ISZERO PUSH2 0x1B8E JUMPI PUSH1 0x40 MLOAD PUSH32 0xD93C066500000000000000000000000000000000000000000000000000000000 DUP2 MSTORE PUSH1 0x4 ADD PUSH1 0x40 MLOAD DUP1 SWAP2 SUB SWAP1 REVERT JUMPDEST JUMP JUMPDEST PUSH2 0x1B98 PUSH2 0x1B4F JUMP JUMPDEST PUSH2 0x1BA3 DUP4 DUP4 DUP4 PUSH2 0x1BA8 JUMP JUMPDEST POP POP POP JUMP JUMPDEST PUSH0 PUSH20 0xFFFFFFFFFFFFFFFFFFFFFFFFFFFFFFFFFFFFFFFF AND DUP4 PUSH20 0xFFFFFFFFFFFFFFFFFFFFFFFFFFFFFFFFFFFFFFFF AND SUB PUSH2 0x1BF8 JUMPI DUP1 PUSH1 0x2 PUSH0 DUP3 DUP3 SLOAD PUSH2 0x1BEC SWAP2 SWAP1 PUSH2 0x29C4 JUMP JUMPDEST SWAP3 POP POP DUP2 SWAP1 SSTORE POP PUSH2 0x1CC6 JUMP JUMPDEST PUSH0 DUP1 PUSH0 DUP6 PUSH20 0xFFFFFFFFFFFFFFFFFFFFFFFFFFFFFFFFFFFFFFFF AND PUSH20 0xFFFFFFFFFFFFFFFFFFFFFFFFFFFFFFFFFFFFFFFF AND DUP2 MSTORE PUSH1 0x20 ADD SWAP1 DUP2 MSTORE PUSH1 0x20 ADD PUSH0 KECCAK256 SLOAD SWAP1 POP DUP2 DUP2 LT ISZERO PUSH2 0x1C81 JUMPI DUP4 DUP2 DUP4 PUSH1 0x40 MLOAD PUSH32 0xE450D38C00000000000000000000000000000000000000000000000000000000 DUP2 MSTORE PUSH1 0x4 ADD PUSH2 0x1C78 SWAP4 SWAP3 SWAP2 SWAP1 PUSH2 0x2968 JUMP JUMPDEST PUSH1 0x40 MLOAD DUP1 SWAP2 SUB SWAP1 REVERT JUMPDEST DUP2 DUP2 SUB PUSH0 DUP1 DUP7 PUSH20 0xFFFFFFFFFFFFFFFFFFFFFFFFFFFFFFFFFFFFFFFF AND PUSH20 0xFFFFFFFFFFFFFFFFFFFFFFFFFFFFFFFFFFFFFFFF AND DUP2 MSTORE PUSH1 0x20 ADD SWAP1 DUP2 MSTORE PUSH1 0x20 ADD PUSH0 KECCAK256 DUP2 SWAP1 SSTORE POP POP JUMPDEST PUSH0 PUSH20 0xFFFFFFFFFFFFFFFFFFFFFFFFFFFFFFFFFFFFFFFF AND DUP3 PUSH20 0xFFFFFFFFFFFFFFFFFFFFFFFFFFFFFFFFFFFFFFFF AND SUB PUSH2 0x1D0D JUMPI DUP1 PUSH1 0x2 PUSH0 DUP3 DUP3 SLOAD SUB SWAP3 POP POP DUP2 SWAP1 SSTORE POP PUSH2 0x1D57 JUMP JUMPDEST DUP1 PUSH0 DUP1 DUP5 PUSH20 0xFFFFFFFFFFFFFFFFFFFFFFFFFFFFFFFFFFFFFFFF AND PUSH20 0xFFFFFFFFFFFFFFFFFFFFFFFFFFFFFFFFFFFFFFFF AND DUP2 MSTORE PUSH1 0x20 ADD SWAP1 DUP2 MSTORE PUSH1 0x20 ADD PUSH0 KECCAK256 PUSH0 DUP3 DUP3 SLOAD ADD SWAP3 POP POP DUP2 SWAP1 SSTORE POP JUMPDEST DUP2 PUSH20 0xFFFFFFFFFFFFFFFFFFFFFFFFFFFFFFFFFFFFFFFF AND DUP4 PUSH20 0xFFFFFFFFFFFFFFFFFFFFFFFFFFFFFFFFFFFFFFFF AND PUSH32 0xDDF252AD1BE2C89B69C2B068FC378DAA952BA7F163C4A11628F55A4DF523B3EF DUP4 PUSH1 0x40 MLOAD PUSH2 0x1DB4 SWAP2 SWAP1 PUSH2 0x201A JUMP JUMPDEST PUSH1 0x40 MLOAD DUP1 SWAP2 SUB SWAP1 LOG3 POP POP POP JUMP JUMPDEST PUSH0 PUSH1 0x40 MLOAD SWAP1 POP SWAP1 JUMP JUMPDEST PUSH0 DUP1 REVERT JUMPDEST PUSH0 DUP1 REVERT JUMPDEST PUSH0 PUSH32 0xFFFFFFFF00000000000000000000000000000000000000000000000000000000 DUP3 AND SWAP1 POP SWAP2 SWAP1 POP JUMP JUMPDEST PUSH2 0x1E06 DUP2 PUSH2 0x1DD2 JUMP JUMPDEST DUP2 EQ PUSH2 0x1E10 JUMPI PUSH0 DUP1 REVERT JUMPDEST POP JUMP JUMPDEST PUSH0 DUP2 CALLDATALOAD SWAP1 POP PUSH2 0x1E21 DUP2 PUSH2 0x1DFD JUMP JUMPDEST SWAP3 SWAP2 POP POP JUMP JUMPDEST PUSH0 PUSH1 0x20 DUP3 DUP5 SUB SLT ISZERO PUSH2 0x1E3C JUMPI PUSH2 0x1E3B PUSH2 0x1DCA JUMP JUMPDEST JUMPDEST PUSH0 PUSH2 0x1E49 DUP5 DUP3 DUP6 ADD PUSH2 0x1E13 JUMP JUMPDEST SWAP2 POP POP SWAP3 SWAP2 POP POP JUMP JUMPDEST PUSH0 DUP2 ISZERO ISZERO SWAP1 POP SWAP2 SWAP1 POP JUMP JUMPDEST PUSH2 0x1E66 DUP2 PUSH2 0x1E52 JUMP JUMPDEST DUP3 MSTORE POP POP JUMP JUMPDEST PUSH0 PUSH1 0x20 DUP3 ADD SWAP1 POP PUSH2 0x1E7F PUSH0 DUP4 ADD DUP5 PUSH2 0x1E5D JUMP JUMPDEST SWAP3 SWAP2 POP POP JUMP JUMPDEST PUSH0 DUP2 MLOAD SWAP1 POP SWAP2 SWAP1 POP JUMP JUMPDEST PUSH0 DUP3 DUP3 MSTORE PUSH1 0x20 DUP3 ADD SWAP1 POP SWAP3 SWAP2 POP POP JUMP JUMPDEST DUP3 DUP2 DUP4 MCOPY PUSH0 DUP4 DUP4 ADD MSTORE POP POP POP JUMP JUMPDEST PUSH0 PUSH1 0x1F NOT PUSH1 0x1F DUP4 ADD AND SWAP1 POP SWAP2 SWAP1 POP JUMP JUMPDEST PUSH0 PUSH2 0x1EC7 DUP3 PUSH2 0x1E85 JUMP JUMPDEST PUSH2 0x1ED1 DUP2 DUP6 PUSH2 0x1E8F JUMP JUMPDEST SWAP4 POP PUSH2 0x1EE1 DUP2 DUP6 PUSH1 0x20 DUP7 ADD PUSH2 0x1E9F JUMP JUMPDEST PUSH2 0x1EEA DUP2 PUSH2 0x1EAD JUMP JUMPDEST DUP5 ADD SWAP2 POP POP SWAP3 SWAP2 POP POP JUMP JUMPDEST PUSH0 PUSH1 0x20 DUP3 ADD SWAP1 POP DUP2 DUP2 SUB PUSH0 DUP4 ADD MSTORE PUSH2 0x1F0D DUP2 DUP5 PUSH2 0x1EBD JUMP JUMPDEST SWAP1 POP SWAP3 SWAP2 POP POP JUMP JUMPDEST PUSH0 PUSH20 0xFFFFFFFFFFFFFFFFFFFFFFFFFFFFFFFFFFFFFFFF DUP3 AND SWAP1 POP SWAP2 SWAP1 POP JUMP JUMPDEST PUSH0 PUSH2 0x1F3E DUP3 PUSH2 0x1F15 JUMP JUMPDEST SWAP1 POP SWAP2 SWAP1 POP JUMP JUMPDEST PUSH2 0x1F4E DUP2 PUSH2 0x1F34 JUMP JUMPDEST DUP2 EQ PUSH2 0x1F58 JUMPI PUSH0 DUP1 REVERT JUMPDEST POP JUMP JUMPDEST PUSH0 DUP2 CALLDATALOAD SWAP1 POP PUSH2 0x1F69 DUP2 PUSH2 0x1F45 JUMP JUMPDEST SWAP3 SWAP2 POP POP JUMP JUMPDEST PUSH0 DUP2 SWAP1 POP SWAP2 SWAP1 POP JUMP JUMPDEST PUSH2 0x1F81 DUP2 PUSH2 0x1F6F JUMP JUMPDEST DUP2 EQ PUSH2 0x1F8B JUMPI PUSH0 DUP1 REVERT JUMPDEST POP JUMP JUMPDEST PUSH0 DUP2 CALLDATALOAD SWAP1 POP PUSH2 0x1F9C DUP2 PUSH2 0x1F78 JUMP JUMPDEST SWAP3 SWAP2 POP POP JUMP JUMPDEST PUSH0 DUP1 PUSH1 0x40 DUP4 DUP6 SUB SLT ISZERO PUSH2 0x1FB8 JUMPI PUSH2 0x1FB7 PUSH2 0x1DCA JUMP JUMPDEST JUMPDEST PUSH0 PUSH2 0x1FC5 DUP6 DUP3 DUP7 ADD PUSH2 0x1F5B JUMP JUMPDEST SWAP3 POP POP PUSH1 0x20 PUSH2 0x1FD6 DUP6 DUP3 DUP7 ADD PUSH2 0x1F8E JUMP JUMPDEST SWAP2 POP POP SWAP3 POP SWAP3 SWAP1 POP JUMP JUMPDEST PUSH0 PUSH1 0x20 DUP3 DUP5 SUB SLT ISZERO PUSH2 0x1FF5 JUMPI PUSH2 0x1FF4 PUSH2 0x1DCA JUMP JUMPDEST JUMPDEST PUSH0 PUSH2 0x2002 DUP5 DUP3 DUP6 ADD PUSH2 0x1F8E JUMP JUMPDEST SWAP2 POP POP SWAP3 SWAP2 POP POP JUMP JUMPDEST PUSH2 0x2014 DUP2 PUSH2 0x1F6F JUMP JUMPDEST DUP3 MSTORE POP POP JUMP JUMPDEST PUSH0 PUSH1 0x20 DUP3 ADD SWAP1 POP PUSH2 0x202D PUSH0 DUP4 ADD DUP5 PUSH2 0x200B JUMP JUMPDEST SWAP3 SWAP2 POP POP JUMP JUMPDEST PUSH0 DUP1 PUSH0 PUSH1 0x60 DUP5 DUP7 SUB SLT ISZERO PUSH2 0x204A JUMPI PUSH2 0x2049 PUSH2 0x1DCA JUMP JUMPDEST JUMPDEST PUSH0 PUSH2 0x2057 DUP7 DUP3 DUP8 ADD PUSH2 0x1F5B JUMP JUMPDEST SWAP4 POP POP PUSH1 0x20 PUSH2 0x2068 DUP7 DUP3 DUP8 ADD PUSH2 0x1F5B JUMP JUMPDEST SWAP3 POP POP PUSH1 0x40 PUSH2 0x2079 DUP7 DUP3 DUP8 ADD PUSH2 0x1F8E JUMP JUMPDEST SWAP2 POP POP SWAP3 POP SWAP3 POP SWAP3 JUMP JUMPDEST PUSH0 DUP2 SWAP1 POP SWAP2 SWAP1 POP JUMP JUMPDEST PUSH2 0x2095 DUP2 PUSH2 0x2083 JUMP JUMPDEST DUP2 EQ PUSH2 0x209F JUMPI PUSH0 DUP1 REVERT JUMPDEST POP JUMP JUMPDEST PUSH0 DUP2 CALLDATALOAD SWAP1 POP PUSH2 0x20B0 DUP2 PUSH2 0x208C JUMP JUMPDEST SWAP3 SWAP2 POP POP JUMP JUMPDEST PUSH0 PUSH1 0x20 DUP3 DUP5 SUB SLT ISZERO PUSH2 0x20CB JUMPI PUSH2 0x20CA PUSH2 0x1DCA JUMP JUMPDEST JUMPDEST PUSH0 PUSH2 0x20D8 DUP5 DUP3 DUP6 ADD PUSH2 0x20A2 JUMP JUMPDEST SWAP2 POP POP SWAP3 SWAP2 POP POP JUMP JUMPDEST PUSH2 0x20EA DUP2 PUSH2 0x2083 JUMP JUMPDEST DUP3 MSTORE POP POP JUMP JUMPDEST PUSH0 PUSH1 0x20 DUP3 ADD SWAP1 POP PUSH2 0x2103 PUSH0 DUP4 ADD DUP5 PUSH2 0x20E1 JUMP JUMPDEST SWAP3 SWAP2 POP POP JUMP JUMPDEST PUSH0 DUP1 PUSH1 0x40 DUP4 DUP6 SUB SLT ISZERO PUSH2 0x211F JUMPI PUSH2 0x211E PUSH2 0x1DCA JUMP JUMPDEST JUMPDEST PUSH0 PUSH2 0x212C DUP6 DUP3 DUP7 ADD PUSH2 0x20A2 JUMP JUMPDEST SWAP3 POP POP PUSH1 0x20 PUSH2 0x213D DUP6 DUP3 DUP7 ADD PUSH2 0x1F5B JUMP JUMPDEST SWAP2 POP POP SWAP3 POP SWAP3 SWAP1 POP JUMP JUMPDEST PUSH0 PUSH1 0xFF DUP3 AND SWAP1 POP SWAP2 SWAP1 POP JUMP JUMPDEST PUSH2 0x215C DUP2 PUSH2 0x2147 JUMP JUMPDEST DUP3 MSTORE POP POP JUMP JUMPDEST PUSH0 PUSH1 0x20 DUP3 ADD SWAP1 POP PUSH2 0x2175 PUSH0 DUP4 ADD DUP5 PUSH2 0x2153 JUMP JUMPDEST SWAP3 SWAP2 POP POP JUMP JUMPDEST PUSH0 PUSH1 0x20 DUP3 DUP5 SUB SLT ISZERO PUSH2 0x2190 JUMPI PUSH2 0x218F PUSH2 0x1DCA JUMP JUMPDEST JUMPDEST PUSH0 PUSH2 0x219D DUP5 DUP3 DUP6 ADD PUSH2 0x1F5B JUMP JUMPDEST SWAP2 POP POP SWAP3 SWAP2 POP POP JUMP JUMPDEST PUSH0 DUP1 REVERT JUMPDEST PUSH32 0x4E487B7100000000000000000000000000000000000000000000000000000000 PUSH0 MSTORE PUSH1 0x41 PUSH1 0x4 MSTORE PUSH1 0x24 PUSH0 REVERT JUMPDEST PUSH2 0x21E0 DUP3 PUSH2 0x1EAD JUMP JUMPDEST DUP2 ADD DUP2 DUP2 LT PUSH8 0xFFFFFFFFFFFFFFFF DUP3 GT OR ISZERO PUSH2 0x21FF JUMPI PUSH2 0x21FE PUSH2 0x21AA JUMP JUMPDEST JUMPDEST DUP1 PUSH1 0x40 MSTORE POP POP POP JUMP JUMPDEST PUSH0 PUSH2 0x2211 PUSH2 0x1DC1 JUMP JUMPDEST SWAP1 POP PUSH2 0x221D DUP3 DUP3 PUSH2 0x21D7 JUMP JUMPDEST SWAP2 SWAP1 POP JUMP JUMPDEST PUSH0 PUSH8 0xFFFFFFFFFFFFFFFF DUP3 GT ISZERO PUSH2 0x223C JUMPI PUSH2 0x223B PUSH2 0x21AA JUMP JUMPDEST JUMPDEST PUSH1 0x20 DUP3 MUL SWAP1 POP PUSH1 0x20 DUP2 ADD SWAP1 POP SWAP2 SWAP1 POP JUMP JUMPDEST PUSH0 DUP1 REVERT JUMPDEST PUSH0 PUSH2 0x2263 PUSH2 0x225E DUP5 PUSH2 0x2222 JUMP JUMPDEST PUSH2 0x2208 JUMP JUMPDEST SWAP1 POP DUP1 DUP4 DUP3 MSTORE PUSH1 0x20 DUP3 ADD SWAP1 POP PUSH1 0x20 DUP5 MUL DUP4 ADD DUP6 DUP2 GT ISZERO PUSH2 0x2286 JUMPI PUSH2 0x2285 PUSH2 0x224D JUMP JUMPDEST JUMPDEST DUP4 JUMPDEST DUP2 DUP2 LT ISZERO PUSH2 0x22AF JUMPI DUP1 PUSH2 0x229B DUP9 DUP3 PUSH2 0x1F5B JUMP JUMPDEST DUP5 MSTORE PUSH1 0x20 DUP5 ADD SWAP4 POP POP PUSH1 0x20 DUP2 ADD SWAP1 POP PUSH2 0x2288 JUMP JUMPDEST POP POP POP SWAP4 SWAP3 POP POP POP JUMP JUMPDEST PUSH0 DUP3 PUSH1 0x1F DUP4 ADD SLT PUSH2 0x22CD JUMPI PUSH2 0x22CC PUSH2 0x21A6 JUMP JUMPDEST JUMPDEST DUP2 CALLDATALOAD PUSH2 0x22DD DUP5 DUP3 PUSH1 0x20 DUP7 ADD PUSH2 0x2251 JUMP JUMPDEST SWAP2 POP POP SWAP3 SWAP2 POP POP JUMP JUMPDEST PUSH0 PUSH8 0xFFFFFFFFFFFFFFFF DUP3 GT ISZERO PUSH2 0x2300 JUMPI PUSH2 0x22FF PUSH2 0x21AA JUMP JUMPDEST JUMPDEST PUSH1 0x20 DUP3 MUL SWAP1 POP PUSH1 0x20 DUP2 ADD SWAP1 POP SWAP2 SWAP1 POP JUMP JUMPDEST PUSH0 PUSH2 0x2323 PUSH2 0x231E DUP5 PUSH2 0x22E6 JUMP JUMPDEST PUSH2 0x2208 JUMP JUMPDEST SWAP1 POP DUP1 DUP4 DUP3 MSTORE PUSH1 0x20 DUP3 ADD SWAP1 POP PUSH1 0x20 DUP5 MUL DUP4 ADD DUP6 DUP2 GT ISZERO PUSH2 0x2346 JUMPI PUSH2 0x2345 PUSH2 0x224D JUMP JUMPDEST JUMPDEST DUP4 JUMPDEST DUP2 DUP2 LT ISZERO PUSH2 0x236F JUMPI DUP1 PUSH2 0x235B DUP9 DUP3 PUSH2 0x1F8E JUMP JUMPDEST DUP5 MSTORE PUSH1 0x20 DUP5 ADD SWAP4 POP POP PUSH1 0x20 DUP2 ADD SWAP1 POP PUSH2 0x2348 JUMP JUMPDEST POP POP POP SWAP4 SWAP3 POP POP POP JUMP JUMPDEST PUSH0 DUP3 PUSH1 0x1F DUP4 ADD SLT PUSH2 0x238D JUMPI PUSH2 0x238C PUSH2 0x21A6 JUMP JUMPDEST JUMPDEST DUP2 CALLDATALOAD PUSH2 0x239D DUP5 DUP3 PUSH1 0x20 DUP7 ADD PUSH2 0x2311 JUMP JUMPDEST SWAP2 POP POP SWAP3 SWAP2 POP POP JUMP JUMPDEST PUSH0 DUP1 PUSH1 0x40 DUP4 DUP6 SUB SLT ISZERO PUSH2 0x23BC JUMPI PUSH2 0x23BB PUSH2 0x1DCA JUMP JUMPDEST JUMPDEST PUSH0 DUP4 ADD CALLDATALOAD PUSH8 0xFFFFFFFFFFFFFFFF DUP2 GT ISZERO PUSH2 0x23D9 JUMPI PUSH2 0x23D8 PUSH2 0x1DCE JUMP JUMPDEST JUMPDEST PUSH2 0x23E5 DUP6 DUP3 DUP7 ADD PUSH2 0x22B9 JUMP JUMPDEST SWAP3 POP POP PUSH1 0x20 DUP4 ADD CALLDATALOAD PUSH8 0xFFFFFFFFFFFFFFFF DUP2 GT ISZERO PUSH2 0x2406 JUMPI PUSH2 0x2405 PUSH2 0x1DCE JUMP JUMPDEST JUMPDEST PUSH2 0x2412 DUP6 DUP3 DUP7 ADD PUSH2 0x2379 JUMP JUMPDEST SWAP2 POP POP SWAP3 POP SWAP3 SWAP1 POP JUMP JUMPDEST PUSH2 0x2425 DUP2 PUSH2 0x1F34 JUMP JUMPDEST DUP3 MSTORE POP POP JUMP JUMPDEST PUSH0 PUSH1 0x20 DUP3 ADD SWAP1 POP PUSH2 0x243E PUSH0 DUP4 ADD DUP5 PUSH2 0x241C JUMP JUMPDEST SWAP3 SWAP2 POP POP JUMP JUMPDEST PUSH0 DUP1 PUSH1 0x40 DUP4 DUP6 SUB SLT ISZERO PUSH2 0x245A JUMPI PUSH2 0x2459 PUSH2 0x1DCA JUMP JUMPDEST JUMPDEST PUSH0 PUSH2 0x2467 DUP6 DUP3 DUP7 ADD PUSH2 0x1F5B JUMP JUMPDEST SWAP3 POP POP PUSH1 0x20 PUSH2 0x2478 DUP6 DUP3 DUP7 ADD PUSH2 0x1F5B JUMP JUMPDEST SWAP2 POP POP SWAP3 POP SWAP3 SWAP1 POP JUMP JUMPDEST PUSH32 0x4E487B7100000000000000000000000000000000000000000000000000000000 PUSH0 MSTORE PUSH1 0x22 PUSH1 0x4 MSTORE PUSH1 0x24 PUSH0 REVERT JUMPDEST PUSH0 PUSH1 0x2 DUP3 DIV SWAP1 POP PUSH1 0x1 DUP3 AND DUP1 PUSH2 0x24C6 JUMPI PUSH1 0x7F DUP3 AND SWAP2 POP JUMPDEST PUSH1 0x20 DUP3 LT DUP2 SUB PUSH2 0x24D9 JUMPI PUSH2 0x24D8 PUSH2 0x2482 JUMP JUMPDEST JUMPDEST POP SWAP2 SWAP1 POP JUMP JUMPDEST PUSH32 0x4E487B7100000000000000000000000000000000000000000000000000000000 PUSH0 MSTORE PUSH1 0x11 PUSH1 0x4 MSTORE PUSH1 0x24 PUSH0 REVERT JUMPDEST PUSH0 PUSH2 0x2516 DUP3 PUSH2 0x1F6F JUMP JUMPDEST SWAP2 POP PUSH2 0x2521 DUP4 PUSH2 0x1F6F JUMP JUMPDEST SWAP3 POP DUP3 DUP3 MUL PUSH2 0x252F DUP2 PUSH2 0x1F6F JUMP JUMPDEST SWAP2 POP DUP3 DUP3 DIV DUP5 EQ DUP4 ISZERO OR PUSH2 0x2546 JUMPI PUSH2 0x2545 PUSH2 0x24DF JUMP JUMPDEST JUMPDEST POP SWAP3 SWAP2 POP POP JUMP JUMPDEST PUSH0 PUSH1 0x60 DUP3 ADD SWAP1 POP PUSH2 0x2560 PUSH0 DUP4 ADD DUP7 PUSH2 0x241C JUMP JUMPDEST PUSH2 0x256D PUSH1 0x20 DUP4 ADD DUP6 PUSH2 0x241C JUMP JUMPDEST PUSH2 0x257A PUSH1 0x40 DUP4 ADD DUP5 PUSH2 0x200B JUMP JUMPDEST SWAP5 SWAP4 POP POP POP POP JUMP JUMPDEST PUSH2 0x258B DUP2 PUSH2 0x1E52 JUMP JUMPDEST DUP2 EQ PUSH2 0x2595 JUMPI PUSH0 DUP1 REVERT JUMPDEST POP JUMP JUMPDEST PUSH0 DUP2 MLOAD SWAP1 POP PUSH2 0x25A6 DUP2 PUSH2 0x2582 JUMP JUMPDEST SWAP3 SWAP2 POP POP JUMP JUMPDEST PUSH0 PUSH1 0x20 DUP3 DUP5 SUB SLT ISZERO PUSH2 0x25C1 JUMPI PUSH2 0x25C0 PUSH2 0x1DCA JUMP JUMPDEST JUMPDEST PUSH0 PUSH2 0x25CE DUP5 DUP3 DUP6 ADD PUSH2 0x2598 JUMP JUMPDEST SWAP2 POP POP SWAP3 SWAP2 POP POP JUMP JUMPDEST PUSH32 0x537461626C6520636F696E207472616E73666572206661696C65640000000000 PUSH0 DUP3 ADD MSTORE POP JUMP JUMPDEST PUSH0 PUSH2 0x260B PUSH1 0x1B DUP4 PUSH2 0x1E8F JUMP JUMPDEST SWAP2 POP PUSH2 0x2616 DUP3 PUSH2 0x25D7 JUMP JUMPDEST PUSH1 0x20 DUP3 ADD SWAP1 POP SWAP2 SWAP1 POP JUMP JUMPDEST PUSH0 PUSH1 0x20 DUP3 ADD SWAP1 POP DUP2 DUP2 SUB PUSH0 DUP4 ADD MSTORE PUSH2 0x2638 DUP2 PUSH2 0x25FF JUMP JUMPDEST SWAP1 POP SWAP2 SWAP1 POP JUMP JUMPDEST PUSH0 PUSH1 0x40 DUP3 ADD SWAP1 POP PUSH2 0x2652 PUSH0 DUP4 ADD DUP6 PUSH2 0x241C JUMP JUMPDEST PUSH2 0x265F PUSH1 0x20 DUP4 ADD DUP5 PUSH2 0x200B JUMP JUMPDEST SWAP4 SWAP3 POP POP POP JUMP JUMPDEST PUSH32 0x426F6E6420746F6B656E207472616E73666572206661696C6564000000000000 PUSH0 DUP3 ADD MSTORE POP JUMP JUMPDEST PUSH0 PUSH2 0x269A PUSH1 0x1A DUP4 PUSH2 0x1E8F JUMP JUMPDEST SWAP2 POP PUSH2 0x26A5 DUP3 PUSH2 0x2666 JUMP JUMPDEST PUSH1 0x20 DUP3 ADD SWAP1 POP SWAP2 SWAP1 POP JUMP JUMPDEST PUSH0 PUSH1 0x20 DUP3 ADD SWAP1 POP DUP2 DUP2 SUB PUSH0 DUP4 ADD MSTORE PUSH2 0x26C7 DUP2 PUSH2 0x268E JUMP JUMPDEST SWAP1 POP SWAP2 SWAP1 POP JUMP JUMPDEST PUSH32 0x546F6B656E20686F6C6465727320616E6420616D6F756E7473206C656E677468 PUSH0 DUP3 ADD MSTORE PUSH32 0x206D69736D617463680000000000000000000000000000000000000000000000 PUSH1 0x20 DUP3 ADD MSTORE POP JUMP JUMPDEST PUSH0 PUSH2 0x2728 PUSH1 0x29 DUP4 PUSH2 0x1E8F JUMP JUMPDEST SWAP2 POP PUSH2 0x2733 DUP3 PUSH2 0x26CE JUMP JUMPDEST PUSH1 0x40 DUP3 ADD SWAP1 POP SWAP2 SWAP1 POP JUMP JUMPDEST PUSH0 PUSH1 0x20 DUP3 ADD SWAP1 POP DUP2 DUP2 SUB PUSH0 DUP4 ADD MSTORE PUSH2 0x2755 DUP2 PUSH2 0x271C JUMP JUMPDEST SWAP1 POP SWAP2 SWAP1 POP JUMP JUMPDEST PUSH32 0x4E487B7100000000000000000000000000000000000000000000000000000000 PUSH0 MSTORE PUSH1 0x32 PUSH1 0x4 MSTORE PUSH1 0x24 PUSH0 REVERT JUMPDEST PUSH32 0x5472616E73666572206661696C65640000000000000000000000000000000000 PUSH0 DUP3 ADD MSTORE POP JUMP JUMPDEST PUSH0 PUSH2 0x27BD PUSH1 0xF DUP4 PUSH2 0x1E8F JUMP JUMPDEST SWAP2 POP PUSH2 0x27C8 DUP3 PUSH2 0x2789 JUMP JUMPDEST PUSH1 0x20 DUP3 ADD SWAP1 POP SWAP2 SWAP1 POP JUMP JUMPDEST PUSH0 PUSH1 0x20 DUP3 ADD SWAP1 POP DUP2 DUP2 SUB PUSH0 DUP4 ADD MSTORE PUSH2 0x27EA DUP2 PUSH2 0x27B1 JUMP JUMPDEST SWAP1 POP SWAP2 SWAP1 POP JUMP JUMPDEST PUSH32 0x43616E277420636C61696D207A65726F20636F696E7300000000000000000000 PUSH0 DUP3 ADD MSTORE POP JUMP JUMPDEST PUSH0 PUSH2 0x2825 PUSH1 0x16 DUP4 PUSH2 0x1E8F JUMP JUMPDEST SWAP2 POP PUSH2 0x2830 DUP3 PUSH2 0x27F1 JUMP JUMPDEST PUSH1 0x20 DUP3 ADD SWAP1 POP SWAP2 SWAP1 POP JUMP JUMPDEST PUSH0 PUSH1 0x20 DUP3 ADD SWAP1 POP DUP2 DUP2 SUB PUSH0 DUP4 ADD MSTORE PUSH2 0x2852 DUP2 PUSH2 0x2819 JUMP JUMPDEST SWAP1 POP SWAP2 SWAP1 POP JUMP JUMPDEST PUSH0 DUP2 MLOAD SWAP1 POP PUSH2 0x2867 DUP2 PUSH2 0x1F78 JUMP JUMPDEST SWAP3 SWAP2 POP POP JUMP JUMPDEST PUSH0 PUSH1 0x20 DUP3 DUP5 SUB SLT ISZERO PUSH2 0x2882 JUMPI PUSH2 0x2881 PUSH2 0x1DCA JUMP JUMPDEST JUMPDEST PUSH0 PUSH2 0x288F DUP5 DUP3 DUP6 ADD PUSH2 0x2859 JUMP JUMPDEST SWAP2 POP POP SWAP3 SWAP2 POP POP JUMP JUMPDEST PUSH32 0x4E6F20696E766573746F722066756E647320617661696C61626C652E00000000 PUSH0 DUP3 ADD MSTORE POP JUMP JUMPDEST PUSH0 PUSH2 0x28CC PUSH1 0x1C DUP4 PUSH2 0x1E8F JUMP JUMPDEST SWAP2 POP PUSH2 0x28D7 DUP3 PUSH2 0x2898 JUMP JUMPDEST PUSH1 0x20 DUP3 ADD SWAP1 POP SWAP2 SWAP1 POP JUMP JUMPDEST PUSH0 PUSH1 0x20 DUP3 ADD SWAP1 POP DUP2 DUP2 SUB PUSH0 DUP4 ADD MSTORE PUSH2 0x28F9 DUP2 PUSH2 0x28C0 JUMP JUMPDEST SWAP1 POP SWAP2 SWAP1 POP JUMP JUMPDEST PUSH32 0x4661696C656420746F207472616E7366657220737461626C6520636F696E7300 PUSH0 DUP3 ADD MSTORE POP JUMP JUMPDEST PUSH0 PUSH2 0x2934 PUSH1 0x1F DUP4 PUSH2 0x1E8F JUMP JUMPDEST SWAP2 POP PUSH2 0x293F DUP3 PUSH2 0x2900 JUMP JUMPDEST PUSH1 0x20 DUP3 ADD SWAP1 POP SWAP2 SWAP1 POP JUMP JUMPDEST PUSH0 PUSH1 0x20 DUP3 ADD SWAP1 POP DUP2 DUP2 SUB PUSH0 DUP4 ADD MSTORE PUSH2 0x2961 DUP2 PUSH2 0x2928 JUMP JUMPDEST SWAP1 POP SWAP2 SWAP1 POP JUMP JUMPDEST PUSH0 PUSH1 0x60 DUP3 ADD SWAP1 POP PUSH2 0x297B PUSH0 DUP4 ADD DUP7 PUSH2 0x241C JUMP JUMPDEST PUSH2 0x2988 PUSH1 0x20 DUP4 ADD DUP6 PUSH2 0x200B JUMP JUMPDEST PUSH2 0x2995 PUSH1 0x40 DUP4 ADD DUP5 PUSH2 0x200B JUMP JUMPDEST SWAP5 SWAP4 POP POP POP POP JUMP JUMPDEST PUSH0 PUSH1 0x40 DUP3 ADD SWAP1 POP PUSH2 0x29B0 PUSH0 DUP4 ADD DUP6 PUSH2 0x241C JUMP JUMPDEST PUSH2 0x29BD PUSH1 0x20 DUP4 ADD DUP5 PUSH2 0x20E1 JUMP JUMPDEST SWAP4 SWAP3 POP POP POP JUMP JUMPDEST PUSH0 PUSH2 0x29CE DUP3 PUSH2 0x1F6F JUMP JUMPDEST SWAP2 POP PUSH2 0x29D9 DUP4 PUSH2 0x1F6F JUMP JUMPDEST SWAP3 POP DUP3 DUP3 ADD SWAP1 POP DUP1 DUP3 GT ISZERO PUSH2 0x29F1 JUMPI PUSH2 0x29F0 PUSH2 0x24DF JUMP JUMPDEST JUMPDEST SWAP3 SWAP2 POP POP JUMP INVALID LOG2 PUSH5 0x6970667358 0x22 SLT KECCAK256 ADDMOD RETURN ISZERO CHAINID DIV SWAP16 0x2A SWAP15 PUSH4 0xB1324962 0xD7 CODECOPY DUP10 GT 0xBF CODECOPY 0xD6 NOT SWAP10 0xC8 SWAP14 0xDA RETURNDATASIZE 0xEB 0xE2 GASLIMIT SWAP6 DUP7 SWAP7 PUSH5 0x736F6C6343 STOP ADDMOD BYTE STOP CALLER "
		},
		"gasEstimates": {
			"creation": {
				"codeDepositCost": "2159400",
				"executionCost": "infinite",
				"totalCost": "infinite"
			},
			"external": {
				"ADMIN()": "371",
				"BOND_ISSUER()": "391",
				"DEFAULT_ADMIN_ROLE()": "419",
				"allowance(address,address)": "infinite",
				"approve(address,uint256)": "infinite",
				"balanceOf(address)": "2940",
				"burn(uint256)": "infinite",
				"burnFrom(address,uint256)": "infinite",
				"buyBond(uint256)": "infinite",
				"claimFaceValue(uint256)": "infinite",
				"claimInvestorFunds()": "infinite",
				"decimals()": "428",
				"distributeInterest(address,uint256)": "infinite",
				"distributeInterestAll(address[],uint256[])": "infinite",
				"getRoleAdmin(bytes32)": "infinite",
				"grantRole(bytes32,address)": "infinite",
				"hasRole(bytes32,address)": "3234",
				"interestCoin()": "infinite",
				"name()": "infinite",
				"pause()": "infinite",
				"paused()": "2562",
				"renounceRole(bytes32,address)": "infinite",
				"revokeRole(bytes32,address)": "infinite",
				"stableCoin()": "infinite",
				"supportsInterface(bytes4)": "764",
				"symbol()": "infinite",
				"totalSupply()": "2500",
				"transfer(address,uint256)": "infinite",
				"transferFrom(address,address,uint256)": "infinite",
				"unitSize()": "infinite",
				"unpause()": "infinite"
			},
			"internal": {
				"_update(address,address,uint256)": "infinite"
			}
		},
		"methodIdentifiers": {
			"ADMIN()": "2a0acc6a",
			"BOND_ISSUER()": "e091a39b",
			"DEFAULT_ADMIN_ROLE()": "a217fddf",
			"allowance(address,address)": "dd62ed3e",
			"approve(address,uint256)": "095ea7b3",
			"balanceOf(address)": "70a08231",
			"burn(uint256)": "42966c68",
			"burnFrom(address,uint256)": "79cc6790",
			"buyBond(uint256)": "10002dbd",
			"claimFaceValue(uint256)": "ca19c11c",
			"claimInvestorFunds()": "ced0550f",
			"decimals()": "313ce567",
			"distributeInterest(address,uint256)": "f57d283e",
			"distributeInterestAll(address[],uint256[])": "904835c4",
			"getRoleAdmin(bytes32)": "248a9ca3",
			"grantRole(bytes32,address)": "2f2ff15d",
			"hasRole(bytes32,address)": "91d14854",
			"interestCoin()": "ec8eba14",
			"name()": "06fdde03",
			"pause()": "8456cb59",
			"paused()": "5c975abb",
			"renounceRole(bytes32,address)": "36568abe",
			"revokeRole(bytes32,address)": "d547741f",
			"stableCoin()": "992642e5",
			"supportsInterface(bytes4)": "01ffc9a7",
			"symbol()": "95d89b41",
			"totalSupply()": "18160ddd",
			"transfer(address,uint256)": "a9059cbb",
			"transferFrom(address,address,uint256)": "23b872dd",
			"unitSize()": "a920260b",
			"unpause()": "3f4ba83a"
		}
	},
	"abi": [
		{
			"inputs": [
				{
					"internalType": "address",
					"name": "administrator",
					"type": "address"
				},
				{
					"internalType": "address",
					"name": "bondIssuer",
					"type": "address"
				},
				{
					"internalType": "address",
					"name": "_stableCoin",
					"type": "address"
				},
				{
					"internalType": "address",
					"name": "_interestCoin",
					"type": "address"
				},
				{
					"internalType": "uint256",
					"name": "faceValue",
					"type": "uint256"
				},
				{
					"internalType": "uint256",
					"name": "totalInterest",
					"type": "uint256"
				},
				{
					"internalType": "uint256",
					"name": "interestFrequency",
					"type": "uint256"
				},
				{
					"internalType": "uint256",
					"name": "maturityDate",
					"type": "uint256"
				},
				{
					"internalType": "uint256",
					"name": "_unitSize",
					"type": "uint256"
				}
			],
			"stateMutability": "nonpayable",
			"type": "constructor"
		},
		{
			"inputs": [],
			"name": "AccessControlBadConfirmation",
			"type": "error"
		},
		{
			"inputs": [
				{
					"internalType": "address",
					"name": "account",
					"type": "address"
				},
				{
					"internalType": "bytes32",
					"name": "neededRole",
					"type": "bytes32"
				}
			],
			"name": "AccessControlUnauthorizedAccount",
			"type": "error"
		},
		{
			"inputs": [
				{
					"internalType": "address",
					"name": "spender",
					"type": "address"
				},
				{
					"internalType": "uint256",
					"name": "allowance",
					"type": "uint256"
				},
				{
					"internalType": "uint256",
					"name": "needed",
					"type": "uint256"
				}
			],
			"name": "ERC20InsufficientAllowance",
			"type": "error"
		},
		{
			"inputs": [
				{
					"internalType": "address",
					"name": "sender",
					"type": "address"
				},
				{
					"internalType": "uint256",
					"name": "balance",
					"type": "uint256"
				},
				{
					"internalType": "uint256",
					"name": "needed",
					"type": "uint256"
				}
			],
			"name": "ERC20InsufficientBalance",
			"type": "error"
		},
		{
			"inputs": [
				{
					"internalType": "address",
					"name": "approver",
					"type": "address"
				}
			],
			"name": "ERC20InvalidApprover",
			"type": "error"
		},
		{
			"inputs": [
				{
					"internalType": "address",
					"name": "receiver",
					"type": "address"
				}
			],
			"name": "ERC20InvalidReceiver",
			"type": "error"
		},
		{
			"inputs": [
				{
					"internalType": "address",
					"name": "sender",
					"type": "address"
				}
			],
			"name": "ERC20InvalidSender",
			"type": "error"
		},
		{
			"inputs": [
				{
					"internalType": "address",
					"name": "spender",
					"type": "address"
				}
			],
			"name": "ERC20InvalidSpender",
			"type": "error"
		},
		{
			"inputs": [],
			"name": "EnforcedPause",
			"type": "error"
		},
		{
			"inputs": [],
			"name": "ExpectedPause",
			"type": "error"
		},
		{
			"anonymous": false,
			"inputs": [
				{
					"indexed": true,
					"internalType": "address",
					"name": "owner",
					"type": "address"
				},
				{
					"indexed": true,
					"internalType": "address",
					"name": "spender",
					"type": "address"
				},
				{
					"indexed": false,
					"internalType": "uint256",
					"name": "value",
					"type": "uint256"
				}
			],
			"name": "Approval",
			"type": "event"
		},
		{
			"anonymous": false,
			"inputs": [
				{
					"indexed": false,
					"internalType": "address",
					"name": "account",
					"type": "address"
				}
			],
			"name": "Paused",
			"type": "event"
		},
		{
			"anonymous": false,
			"inputs": [
				{
					"indexed": true,
					"internalType": "bytes32",
					"name": "role",
					"type": "bytes32"
				},
				{
					"indexed": true,
					"internalType": "bytes32",
					"name": "previousAdminRole",
					"type": "bytes32"
				},
				{
					"indexed": true,
					"internalType": "bytes32",
					"name": "newAdminRole",
					"type": "bytes32"
				}
			],
			"name": "RoleAdminChanged",
			"type": "event"
		},
		{
			"anonymous": false,
			"inputs": [
				{
					"indexed": true,
					"internalType": "bytes32",
					"name": "role",
					"type": "bytes32"
				},
				{
					"indexed": true,
					"internalType": "address",
					"name": "account",
					"type": "address"
				},
				{
					"indexed": true,
					"internalType": "address",
					"name": "sender",
					"type": "address"
				}
			],
			"name": "RoleGranted",
			"type": "event"
		},
		{
			"anonymous": false,
			"inputs": [
				{
					"indexed": true,
					"internalType": "bytes32",
					"name": "role",
					"type": "bytes32"
				},
				{
					"indexed": true,
					"internalType": "address",
					"name": "account",
					"type": "address"
				},
				{
					"indexed": true,
					"internalType": "address",
					"name": "sender",
					"type": "address"
				}
			],
			"name": "RoleRevoked",
			"type": "event"
		},
		{
			"anonymous": false,
			"inputs": [
				{
					"indexed": true,
					"internalType": "address",
					"name": "from",
					"type": "address"
				},
				{
					"indexed": true,
					"internalType": "address",
					"name": "to",
					"type": "address"
				},
				{
					"indexed": false,
					"internalType": "uint256",
					"name": "value",
					"type": "uint256"
				}
			],
			"name": "Transfer",
			"type": "event"
		},
		{
			"anonymous": false,
			"inputs": [
				{
					"indexed": false,
					"internalType": "address",
					"name": "account",
					"type": "address"
				}
			],
			"name": "Unpaused",
			"type": "event"
		},
		{
			"inputs": [],
			"name": "ADMIN",
			"outputs": [
				{
					"internalType": "bytes32",
					"name": "",
					"type": "bytes32"
				}
			],
			"stateMutability": "view",
			"type": "function"
		},
		{
			"inputs": [],
			"name": "BOND_ISSUER",
			"outputs": [
				{
					"internalType": "bytes32",
					"name": "",
					"type": "bytes32"
				}
			],
			"stateMutability": "view",
			"type": "function"
		},
		{
			"inputs": [],
			"name": "DEFAULT_ADMIN_ROLE",
			"outputs": [
				{
					"internalType": "bytes32",
					"name": "",
					"type": "bytes32"
				}
			],
			"stateMutability": "view",
			"type": "function"
		},
		{
			"inputs": [
				{
					"internalType": "address",
					"name": "owner",
					"type": "address"
				},
				{
					"internalType": "address",
					"name": "spender",
					"type": "address"
				}
			],
			"name": "allowance",
			"outputs": [
				{
					"internalType": "uint256",
					"name": "",
					"type": "uint256"
				}
			],
			"stateMutability": "view",
			"type": "function"
		},
		{
			"inputs": [
				{
					"internalType": "address",
					"name": "spender",
					"type": "address"
				},
				{
					"internalType": "uint256",
					"name": "value",
					"type": "uint256"
				}
			],
			"name": "approve",
			"outputs": [
				{
					"internalType": "bool",
					"name": "",
					"type": "bool"
				}
			],
			"stateMutability": "nonpayable",
			"type": "function"
		},
		{
			"inputs": [
				{
					"internalType": "address",
					"name": "account",
					"type": "address"
				}
			],
			"name": "balanceOf",
			"outputs": [
				{
					"internalType": "uint256",
					"name": "",
					"type": "uint256"
				}
			],
			"stateMutability": "view",
			"type": "function"
		},
		{
			"inputs": [
				{
					"internalType": "uint256",
					"name": "value",
					"type": "uint256"
				}
			],
			"name": "burn",
			"outputs": [],
			"stateMutability": "nonpayable",
			"type": "function"
		},
		{
			"inputs": [
				{
					"internalType": "address",
					"name": "account",
					"type": "address"
				},
				{
					"internalType": "uint256",
					"name": "value",
					"type": "uint256"
				}
			],
			"name": "burnFrom",
			"outputs": [],
			"stateMutability": "nonpayable",
			"type": "function"
		},
		{
			"inputs": [
				{
					"internalType": "uint256",
					"name": "amountTokens",
					"type": "uint256"
				}
			],
			"name": "buyBond",
			"outputs": [],
			"stateMutability": "nonpayable",
			"type": "function"
		},
		{
			"inputs": [
				{
					"internalType": "uint256",
					"name": "amountTokens",
					"type": "uint256"
				}
			],
			"name": "claimFaceValue",
			"outputs": [],
			"stateMutability": "nonpayable",
			"type": "function"
		},
		{
			"inputs": [],
			"name": "claimInvestorFunds",
			"outputs": [],
			"stateMutability": "nonpayable",
			"type": "function"
		},
		{
			"inputs": [],
			"name": "decimals",
			"outputs": [
				{
					"internalType": "uint8",
					"name": "",
					"type": "uint8"
				}
			],
			"stateMutability": "view",
			"type": "function"
		},
		{
			"inputs": [
				{
					"internalType": "address",
					"name": "tokenHolder",
					"type": "address"
				},
				{
					"internalType": "uint256",
					"name": "amount",
					"type": "uint256"
				}
			],
			"name": "distributeInterest",
			"outputs": [],
			"stateMutability": "nonpayable",
			"type": "function"
		},
		{
			"inputs": [
				{
					"internalType": "address[]",
					"name": "tokenHolders",
					"type": "address[]"
				},
				{
					"internalType": "uint256[]",
					"name": "amounts",
					"type": "uint256[]"
				}
			],
			"name": "distributeInterestAll",
			"outputs": [],
			"stateMutability": "nonpayable",
			"type": "function"
		},
		{
			"inputs": [
				{
					"internalType": "bytes32",
					"name": "role",
					"type": "bytes32"
				}
			],
			"name": "getRoleAdmin",
			"outputs": [
				{
					"internalType": "bytes32",
					"name": "",
					"type": "bytes32"
				}
			],
			"stateMutability": "view",
			"type": "function"
		},
		{
			"inputs": [
				{
					"internalType": "bytes32",
					"name": "role",
					"type": "bytes32"
				},
				{
					"internalType": "address",
					"name": "account",
					"type": "address"
				}
			],
			"name": "grantRole",
			"outputs": [],
			"stateMutability": "nonpayable",
			"type": "function"
		},
		{
			"inputs": [
				{
					"internalType": "bytes32",
					"name": "role",
					"type": "bytes32"
				},
				{
					"internalType": "address",
					"name": "account",
					"type": "address"
				}
			],
			"name": "hasRole",
			"outputs": [
				{
					"internalType": "bool",
					"name": "",
					"type": "bool"
				}
			],
			"stateMutability": "view",
			"type": "function"
		},
		{
			"inputs": [],
			"name": "interestCoin",
			"outputs": [
				{
					"internalType": "address",
					"name": "",
					"type": "address"
				}
			],
			"stateMutability": "view",
			"type": "function"
		},
		{
			"inputs": [],
			"name": "name",
			"outputs": [
				{
					"internalType": "string",
					"name": "",
					"type": "string"
				}
			],
			"stateMutability": "view",
			"type": "function"
		},
		{
			"inputs": [],
			"name": "pause",
			"outputs": [],
			"stateMutability": "nonpayable",
			"type": "function"
		},
		{
			"inputs": [],
			"name": "paused",
			"outputs": [
				{
					"internalType": "bool",
					"name": "",
					"type": "bool"
				}
			],
			"stateMutability": "view",
			"type": "function"
		},
		{
			"inputs": [
				{
					"internalType": "bytes32",
					"name": "role",
					"type": "bytes32"
				},
				{
					"internalType": "address",
					"name": "callerConfirmation",
					"type": "address"
				}
			],
			"name": "renounceRole",
			"outputs": [],
			"stateMutability": "nonpayable",
			"type": "function"
		},
		{
			"inputs": [
				{
					"internalType": "bytes32",
					"name": "role",
					"type": "bytes32"
				},
				{
					"internalType": "address",
					"name": "account",
					"type": "address"
				}
			],
			"name": "revokeRole",
			"outputs": [],
			"stateMutability": "nonpayable",
			"type": "function"
		},
		{
			"inputs": [],
			"name": "stableCoin",
			"outputs": [
				{
					"internalType": "address",
					"name": "",
					"type": "address"
				}
			],
			"stateMutability": "view",
			"type": "function"
		},
		{
			"inputs": [
				{
					"internalType": "bytes4",
					"name": "interfaceId",
					"type": "bytes4"
				}
			],
			"name": "supportsInterface",
			"outputs": [
				{
					"internalType": "bool",
					"name": "",
					"type": "bool"
				}
			],
			"stateMutability": "view",
			"type": "function"
		},
		{
			"inputs": [],
			"name": "symbol",
			"outputs": [
				{
					"internalType": "string",
					"name": "",
					"type": "string"
				}
			],
			"stateMutability": "view",
			"type": "function"
		},
		{
			"inputs": [],
			"name": "totalSupply",
			"outputs": [
				{
					"internalType": "uint256",
					"name": "",
					"type": "uint256"
				}
			],
			"stateMutability": "view",
			"type": "function"
		},
		{
			"inputs": [
				{
					"internalType": "address",
					"name": "to",
					"type": "address"
				},
				{
					"internalType": "uint256",
					"name": "value",
					"type": "uint256"
				}
			],
			"name": "transfer",
			"outputs": [
				{
					"internalType": "bool",
					"name": "",
					"type": "bool"
				}
			],
			"stateMutability": "nonpayable",
			"type": "function"
		},
		{
			"inputs": [
				{
					"internalType": "address",
					"name": "from",
					"type": "address"
				},
				{
					"internalType": "address",
					"name": "to",
					"type": "address"
				},
				{
					"internalType": "uint256",
					"name": "value",
					"type": "uint256"
				}
			],
			"name": "transferFrom",
			"outputs": [
				{
					"internalType": "bool",
					"name": "",
					"type": "bool"
				}
			],
			"stateMutability": "nonpayable",
			"type": "function"
		},
		{
			"inputs": [],
			"name": "unitSize",
			"outputs": [
				{
					"internalType": "uint256",
					"name": "",
					"type": "uint256"
				}
			],
			"stateMutability": "view",
			"type": "function"
		},
		{
			"inputs": [],
			"name": "unpause",
			"outputs": [],
			"stateMutability": "nonpayable",
			"type": "function"
		}
	]
}